{
  "_format": "hh-sol-artifact-1",
  "contractName": "OwnershipFacet",
  "sourceName": "contracts/farm/facets/OwnershipFacet.sol",
  "abi": [
    {
      "anonymous": false,
      "inputs": [
        {
          "indexed": true,
          "internalType": "address",
          "name": "previousOwner",
          "type": "address"
        },
        {
          "indexed": true,
          "internalType": "address",
          "name": "newOwner",
          "type": "address"
        }
      ],
      "name": "OwnershipTransferred",
      "type": "event"
    },
    {
      "inputs": [],
      "name": "claimOwnership",
      "outputs": [],
      "stateMutability": "nonpayable",
      "type": "function"
    },
    {
      "inputs": [],
      "name": "owner",
      "outputs": [
        {
          "internalType": "address",
          "name": "owner_",
          "type": "address"
        }
      ],
      "stateMutability": "view",
      "type": "function"
    },
    {
      "inputs": [],
      "name": "ownerCandidate",
      "outputs": [
        {
          "internalType": "address",
          "name": "ownerCandidate_",
          "type": "address"
        }
      ],
      "stateMutability": "view",
      "type": "function"
    },
    {
      "inputs": [
        {
          "internalType": "address",
          "name": "_newOwner",
          "type": "address"
        }
      ],
      "name": "transferOwnership",
      "outputs": [],
      "stateMutability": "nonpayable",
      "type": "function"
    }
  ],
  "bytecode": "0x608060405234801561001057600080fd5b506105b3806100206000396000f3fe608060405234801561001057600080fd5b506004361061004c5760003560e01c80634e71e0c8146100515780635f504a821461005b5780638da5cb5b14610079578063f2fde38b14610097575b600080fd5b6100596100b3565b005b610063610179565b60405161007091906104c8565b60405180910390f35b6100816101a5565b60405161008e91906104c8565b60405180910390f35b6100b160048036038101906100ac91906103ea565b6101b4565b005b3373ffffffffffffffffffffffffffffffffffffffff166000604a0160009054906101000a900473ffffffffffffffffffffffffffffffffffffffff1673ffffffffffffffffffffffffffffffffffffffff1614610146576040517f08c379a000000000000000000000000000000000000000000000000000000000815260040161013d90610503565b60405180910390fd5b61014f33610203565b6000604a0160006101000a81549073ffffffffffffffffffffffffffffffffffffffff0219169055565b600080604a0160009054906101000a900473ffffffffffffffffffffffffffffffffffffffff16905090565b60006101af6102da565b905090565b6101bc61030d565b806000604a0160006101000a81548173ffffffffffffffffffffffffffffffffffffffff021916908373ffffffffffffffffffffffffffffffffffffffff16021790555050565b600061020d6103a8565b905060008160040160009054906101000a900473ffffffffffffffffffffffffffffffffffffffff169050828260040160006101000a81548173ffffffffffffffffffffffffffffffffffffffff021916908373ffffffffffffffffffffffffffffffffffffffff1602179055508273ffffffffffffffffffffffffffffffffffffffff168173ffffffffffffffffffffffffffffffffffffffff167f8be0079c531659141344cd1fd0a4f28419497f9722a3daafe3b4186f6b6457e060405160405180910390a3505050565b60006102e46103a8565b60040160009054906101000a900473ffffffffffffffffffffffffffffffffffffffff16905090565b6103156103a8565b60040160009054906101000a900473ffffffffffffffffffffffffffffffffffffffff1673ffffffffffffffffffffffffffffffffffffffff163373ffffffffffffffffffffffffffffffffffffffff16146103a6576040517f08c379a000000000000000000000000000000000000000000000000000000000815260040161039d906104e3565b60405180910390fd5b565b6000807fc8fcad8db84d3cc18b4c41d551ea0ee66dd599cde068d998e57d5e09332c131c90508091505090565b6000813590506103e481610566565b92915050565b6000602082840312156103fc57600080fd5b600061040a848285016103d5565b91505092915050565b61041c81610534565b82525050565b600061042f602283610523565b91507f4c69624469616d6f6e643a204d75737420626520636f6e7472616374206f776e60008301527f65720000000000000000000000000000000000000000000000000000000000006020830152604082019050919050565b6000610495601883610523565b91507f4f776e6572736869703a204e6f742063616e64696461746500000000000000006000830152602082019050919050565b60006020820190506104dd6000830184610413565b92915050565b600060208201905081810360008301526104fc81610422565b9050919050565b6000602082019050818103600083015261051c81610488565b9050919050565b600082825260208201905092915050565b600061053f82610546565b9050919050565b600073ffffffffffffffffffffffffffffffffffffffff82169050919050565b61056f81610534565b811461057a57600080fd5b5056fea2646970667358221220eb5b86e2bb550d929d8010faf8501c3771b1067906c5a0ac2693b5f810a02b6564736f6c63430007060033",
  "linkReferences": {},
  "deployedLinkReferences": {}
}