{
  "_format": "hh-sol-artifact-1",
  "contractName": "Internalizer",
  "sourceName": "contracts/pool/Internalizer.sol",
  "abi": [
    {
      "anonymous": false,
      "inputs": [
        {
          "indexed": true,
          "internalType": "address",
          "name": "account",
          "type": "address"
        },
        {
          "indexed": true,
          "internalType": "address",
          "name": "operator",
          "type": "address"
        },
        {
          "indexed": false,
          "internalType": "bool",
          "name": "approved",
          "type": "bool"
        }
      ],
      "name": "ApprovalForAll",
      "type": "event"
    },
    {
      "anonymous": false,
      "inputs": [
        {
          "indexed": true,
          "internalType": "address",
          "name": "previousOwner",
          "type": "address"
        },
        {
          "indexed": true,
          "internalType": "address",
          "name": "newOwner",
          "type": "address"
        }
      ],
      "name": "OwnershipTransferred",
      "type": "event"
    },
    {
      "anonymous": false,
      "inputs": [
        {
          "indexed": true,
          "internalType": "address",
          "name": "operator",
          "type": "address"
        },
        {
          "indexed": true,
          "internalType": "address",
          "name": "from",
          "type": "address"
        },
        {
          "indexed": true,
          "internalType": "address",
          "name": "to",
          "type": "address"
        },
        {
          "indexed": false,
          "internalType": "uint256[]",
          "name": "ids",
          "type": "uint256[]"
        },
        {
          "indexed": false,
          "internalType": "uint256[]",
          "name": "values",
          "type": "uint256[]"
        }
      ],
      "name": "TransferBatch",
      "type": "event"
    },
    {
      "anonymous": false,
      "inputs": [
        {
          "indexed": true,
          "internalType": "address",
          "name": "operator",
          "type": "address"
        },
        {
          "indexed": true,
          "internalType": "address",
          "name": "from",
          "type": "address"
        },
        {
          "indexed": true,
          "internalType": "address",
          "name": "to",
          "type": "address"
        },
        {
          "indexed": false,
          "internalType": "uint256",
          "name": "id",
          "type": "uint256"
        },
        {
          "indexed": false,
          "internalType": "uint256",
          "name": "value",
          "type": "uint256"
        }
      ],
      "name": "TransferSingle",
      "type": "event"
    },
    {
      "anonymous": false,
      "inputs": [
        {
          "indexed": false,
          "internalType": "string",
          "name": "value",
          "type": "string"
        },
        {
          "indexed": true,
          "internalType": "uint256",
          "name": "id",
          "type": "uint256"
        }
      ],
      "name": "URI",
      "type": "event"
    },
    {
      "inputs": [
        {
          "internalType": "address",
          "name": "account",
          "type": "address"
        },
        {
          "internalType": "uint256",
          "name": "id",
          "type": "uint256"
        }
      ],
      "name": "balanceOf",
      "outputs": [
        {
          "internalType": "uint256",
          "name": "",
          "type": "uint256"
        }
      ],
      "stateMutability": "view",
      "type": "function"
    },
    {
      "inputs": [
        {
          "internalType": "address[]",
          "name": "accounts",
          "type": "address[]"
        },
        {
          "internalType": "uint256[]",
          "name": "ids",
          "type": "uint256[]"
        }
      ],
      "name": "balanceOfBatch",
      "outputs": [
        {
          "internalType": "uint256[]",
          "name": "",
          "type": "uint256[]"
        }
      ],
      "stateMutability": "view",
      "type": "function"
    },
    {
      "inputs": [
        {
          "internalType": "address",
          "name": "account",
          "type": "address"
        },
        {
          "internalType": "address",
          "name": "operator",
          "type": "address"
        }
      ],
      "name": "isApprovedForAll",
      "outputs": [
        {
          "internalType": "bool",
          "name": "",
          "type": "bool"
        }
      ],
      "stateMutability": "view",
      "type": "function"
    },
    {
      "inputs": [
        {
          "internalType": "address",
          "name": "account",
          "type": "address"
        },
        {
          "internalType": "uint256",
          "name": "id",
          "type": "uint256"
        }
      ],
      "name": "lastBalanceOf",
      "outputs": [
        {
          "components": [
            {
              "internalType": "uint128",
              "name": "amount",
              "type": "uint128"
            },
            {
              "internalType": "uint128",
              "name": "lastBpf",
              "type": "uint128"
            }
          ],
          "internalType": "struct Internalizer.Balance",
          "name": "",
          "type": "tuple"
        }
      ],
      "stateMutability": "view",
      "type": "function"
    },
    {
      "inputs": [
        {
          "internalType": "address[]",
          "name": "accounts",
          "type": "address[]"
        },
        {
          "internalType": "uint256[]",
          "name": "ids",
          "type": "uint256[]"
        }
      ],
      "name": "lastBalanceOfBatch",
      "outputs": [
        {
          "components": [
            {
              "internalType": "uint128",
              "name": "amount",
              "type": "uint128"
            },
            {
              "internalType": "uint128",
              "name": "lastBpf",
              "type": "uint128"
            }
          ],
          "internalType": "struct Internalizer.Balance[]",
          "name": "balances",
          "type": "tuple[]"
        }
      ],
      "stateMutability": "view",
      "type": "function"
    },
    {
      "inputs": [],
      "name": "name",
      "outputs": [
        {
          "internalType": "string",
          "name": "",
          "type": "string"
        }
      ],
      "stateMutability": "pure",
      "type": "function"
    },
    {
      "inputs": [],
      "name": "owner",
      "outputs": [
        {
          "internalType": "address",
          "name": "",
          "type": "address"
        }
      ],
      "stateMutability": "view",
      "type": "function"
    },
    {
      "inputs": [],
      "name": "renounceOwnership",
      "outputs": [],
      "stateMutability": "nonpayable",
      "type": "function"
    },
    {
      "inputs": [
        {
          "internalType": "address",
          "name": "from",
          "type": "address"
        },
        {
          "internalType": "address",
          "name": "to",
          "type": "address"
        },
        {
          "internalType": "uint256[]",
          "name": "ids",
          "type": "uint256[]"
        },
        {
          "internalType": "uint256[]",
          "name": "amounts",
          "type": "uint256[]"
        },
        {
          "internalType": "bytes",
          "name": "data",
          "type": "bytes"
        }
      ],
      "name": "safeBatchTransferFrom",
      "outputs": [],
      "stateMutability": "nonpayable",
      "type": "function"
    },
    {
      "inputs": [
        {
          "internalType": "address",
          "name": "from",
          "type": "address"
        },
        {
          "internalType": "address",
          "name": "to",
          "type": "address"
        },
        {
          "internalType": "uint256",
          "name": "id",
          "type": "uint256"
        },
        {
          "internalType": "uint256",
          "name": "amount",
          "type": "uint256"
        },
        {
          "internalType": "bytes",
          "name": "data",
          "type": "bytes"
        }
      ],
      "name": "safeTransferFrom",
      "outputs": [],
      "stateMutability": "nonpayable",
      "type": "function"
    },
    {
      "inputs": [
        {
          "internalType": "address",
          "name": "operator",
          "type": "address"
        },
        {
          "internalType": "bool",
          "name": "approved",
          "type": "bool"
        }
      ],
      "name": "setApprovalForAll",
      "outputs": [],
      "stateMutability": "nonpayable",
      "type": "function"
    },
    {
      "inputs": [
        {
          "internalType": "string",
          "name": "newuri",
          "type": "string"
        }
      ],
      "name": "setURI",
      "outputs": [],
      "stateMutability": "nonpayable",
      "type": "function"
    },
    {
      "inputs": [
        {
          "internalType": "bytes4",
          "name": "interfaceId",
          "type": "bytes4"
        }
      ],
      "name": "supportsInterface",
      "outputs": [
        {
          "internalType": "bool",
          "name": "",
          "type": "bool"
        }
      ],
      "stateMutability": "view",
      "type": "function"
    },
    {
      "inputs": [],
      "name": "symbol",
      "outputs": [
        {
          "internalType": "string",
          "name": "",
          "type": "string"
        }
      ],
      "stateMutability": "pure",
      "type": "function"
    },
    {
      "inputs": [
        {
          "internalType": "address",
          "name": "newOwner",
          "type": "address"
        }
      ],
      "name": "transferOwnership",
      "outputs": [],
      "stateMutability": "nonpayable",
      "type": "function"
    },
    {
      "inputs": [
        {
          "internalType": "uint256",
          "name": "_id",
          "type": "uint256"
        }
      ],
      "name": "uri",
      "outputs": [
        {
          "internalType": "string",
          "name": "",
          "type": "string"
        }
      ],
      "stateMutability": "view",
      "type": "function"
    }
  ],
  "bytecode": "0x608060405234801561001057600080fd5b50612fb8806100206000396000f3fe608060405234801561001057600080fd5b50600436106100ff5760003560e01c80638da5cb5b11610097578063bf02d30911610066578063bf02d309146102ac578063e985e9c5146102dc578063f242432a1461030c578063f2fde38b14610328576100ff565b80638da5cb5b1461022457806391b7301f1461024257806395d89b4114610272578063a22cb46514610290576100ff565b80630e89341c116100d35780630e89341c1461019e5780632eb2c2d6146101ce5780634e1273f4146101ea578063715018a61461021a576100ff565b8062fdd58e1461010457806301ffc9a71461013457806302fe53051461016457806306fdde0314610180575b600080fd5b61011e6004803603810190610119919061210d565b610344565b60405161012b9190612b3f565b60405180910390f35b61014e600480360381019061014991906121b5565b61043f565b60405161015b91906129e7565b60405180910390f35b61017e60048036038101906101799190612207565b6104a7565b005b61018861056c565b6040516101959190612a02565b60405180910390f35b6101b860048036038101906101b3919061224c565b6105a9565b6040516101c59190612a02565b60405180910390f35b6101e860048036038101906101e39190611f83565b6105dd565b005b61020460048036038101906101ff9190612149565b610816565b604051610211919061298e565b60405180910390f35b610222610928565b005b61022c610a98565b604051610239919061288f565b60405180910390f35b61025c6004803603810190610257919061210d565b610ac2565b6040516102699190612b24565b60405180910390f35b61027a610c31565b6040516102879190612a02565b60405180910390f35b6102aa60048036038101906102a591906120d1565b610c6e565b005b6102c660048036038101906102c19190612149565b610e07565b6040516102d3919061296c565b60405180910390f35b6102f660048036038101906102f19190611f47565b610ec3565b60405161030391906129e7565b60405180910390f35b61032660048036038101906103219190612042565b610f57565b005b610342600480360381019061033d9190611f1e565b61111e565b005b60008073ffffffffffffffffffffffffffffffffffffffff168373ffffffffffffffffffffffffffffffffffffffff1614156103b5576040517f08c379a00000000000000000000000000000000000000000000000000000000081526004016103ac90612a64565b60405180910390fd5b60fb600083815260200190815260200160002060008473ffffffffffffffffffffffffffffffffffffffff1673ffffffffffffffffffffffffffffffffffffffff16815260200190815260200160002060000160009054906101000a90046fffffffffffffffffffffffffffffffff166fffffffffffffffffffffffffffffffff16905092915050565b600060976000837bffffffffffffffffffffffffffffffffffffffffffffffffffffffff19167bffffffffffffffffffffffffffffffffffffffffffffffffffffffff1916815260200190815260200160002060009054906101000a900460ff169050919050565b6104af611313565b73ffffffffffffffffffffffffffffffffffffffff166104cd610a98565b73ffffffffffffffffffffffffffffffffffffffff1614610556576040517f08c379a00000000000000000000000000000000000000000000000000000000081526004018080602001828103825260208152602001807f4f776e61626c653a2063616c6c6572206973206e6f7420746865206f776e657281525060200191505060405180910390fd5b818160fc9190610567929190611bee565b505050565b60606040518060400160405280600a81526020017f46657274696c697a657200000000000000000000000000000000000000000000815250905090565b606060fc6105b68361131b565b6040516020016105c792919061286b565b6040516020818303038152906040529050919050565b8151835114610621576040517f08c379a000000000000000000000000000000000000000000000000000000000815260040161061890612b04565b60405180910390fd5b600073ffffffffffffffffffffffffffffffffffffffff168473ffffffffffffffffffffffffffffffffffffffff161415610691576040517f08c379a000000000000000000000000000000000000000000000000000000000815260040161068890612aa4565b60405180910390fd5b610699611313565b73ffffffffffffffffffffffffffffffffffffffff168573ffffffffffffffffffffffffffffffffffffffff1614806106df57506106de856106d9611313565b610ec3565b5b61071e576040517f08c379a000000000000000000000000000000000000000000000000000000000815260040161071590612ac4565b60405180910390fd5b6000610728611313565b9050610738818787878787611462565b60005b845181101561078157610776878787848151811061075557fe5b602002602001015187858151811061076957fe5b602002602001015161146a565b80600101905061073b565b508473ffffffffffffffffffffffffffffffffffffffff168673ffffffffffffffffffffffffffffffffffffffff168273ffffffffffffffffffffffffffffffffffffffff167f4a39dc06d4c0dbc64b70af90fd698a233a518aa5d07e595d983b8c0526c8f7fb87876040516107f89291906129b0565b60405180910390a461080e81878787878761171e565b505050505050565b60608151835114610872576040517f08c379a0000000000000000000000000000000000000000000000000000000008152600401808060200182810382526029815260200180612f5a6029913960400191505060405180910390fd5b6000835167ffffffffffffffff8111801561088c57600080fd5b506040519080825280602002602001820160405280156108bb5781602001602082028036833780820191505090505b50905060005b845181101561091d576108fa8582815181106108d957fe5b60200260200101518583815181106108ed57fe5b6020026020010151610344565b82828151811061090657fe5b6020026020010181815250508060010190506108c1565b508091505092915050565b610930611313565b73ffffffffffffffffffffffffffffffffffffffff1661094e610a98565b73ffffffffffffffffffffffffffffffffffffffff16146109d7576040517f08c379a00000000000000000000000000000000000000000000000000000000081526004018080602001828103825260208152602001807f4f776e61626c653a2063616c6c6572206973206e6f7420746865206f776e657281525060200191505060405180910390fd5b600073ffffffffffffffffffffffffffffffffffffffff16603360009054906101000a900473ffffffffffffffffffffffffffffffffffffffff1673ffffffffffffffffffffffffffffffffffffffff167f8be0079c531659141344cd1fd0a4f28419497f9722a3daafe3b4186f6b6457e060405160405180910390a36000603360006101000a81548173ffffffffffffffffffffffffffffffffffffffff021916908373ffffffffffffffffffffffffffffffffffffffff160217905550565b6000603360009054906101000a900473ffffffffffffffffffffffffffffffffffffffff16905090565b610aca611c7c565b600073ffffffffffffffffffffffffffffffffffffffff168373ffffffffffffffffffffffffffffffffffffffff161415610b3a576040517f08c379a0000000000000000000000000000000000000000000000000000000008152600401610b3190612a64565b60405180910390fd5b60fb600083815260200190815260200160002060008473ffffffffffffffffffffffffffffffffffffffff1673ffffffffffffffffffffffffffffffffffffffff1681526020019081526020016000206040518060400160405290816000820160009054906101000a90046fffffffffffffffffffffffffffffffff166fffffffffffffffffffffffffffffffff166fffffffffffffffffffffffffffffffff1681526020016000820160109054906101000a90046fffffffffffffffffffffffffffffffff166fffffffffffffffffffffffffffffffff166fffffffffffffffffffffffffffffffff1681525050905092915050565b60606040518060400160405280600481526020017f4645525400000000000000000000000000000000000000000000000000000000815250905090565b8173ffffffffffffffffffffffffffffffffffffffff16610c8d611313565b73ffffffffffffffffffffffffffffffffffffffff161415610cfa576040517f08c379a0000000000000000000000000000000000000000000000000000000008152600401808060200182810382526029815260200180612f316029913960400191505060405180910390fd5b8060ca6000610d07611313565b73ffffffffffffffffffffffffffffffffffffffff1673ffffffffffffffffffffffffffffffffffffffff16815260200190815260200160002060008473ffffffffffffffffffffffffffffffffffffffff1673ffffffffffffffffffffffffffffffffffffffff16815260200190815260200160002060006101000a81548160ff0219169083151502179055508173ffffffffffffffffffffffffffffffffffffffff16610db4611313565b73ffffffffffffffffffffffffffffffffffffffff167f17307eab39ab6107e8899845ad3d59bd9653f200f220920489ca2b5937696c318360405180821515815260200191505060405180910390a35050565b6060825167ffffffffffffffff81118015610e2157600080fd5b50604051908082528060200260200182016040528015610e5b57816020015b610e48611c7c565b815260200190600190039081610e405790505b50905060005b8351811015610ebc57610e9a848281518110610e7957fe5b6020026020010151848381518110610e8d57fe5b6020026020010151610ac2565b828281518110610ea657fe5b6020026020010181905250806001019050610e61565b5092915050565b600060ca60008473ffffffffffffffffffffffffffffffffffffffff1673ffffffffffffffffffffffffffffffffffffffff16815260200190815260200160002060008373ffffffffffffffffffffffffffffffffffffffff1673ffffffffffffffffffffffffffffffffffffffff16815260200190815260200160002060009054906101000a900460ff16905092915050565b600073ffffffffffffffffffffffffffffffffffffffff168473ffffffffffffffffffffffffffffffffffffffff161415610fc7576040517f08c379a0000000000000000000000000000000000000000000000000000000008152600401610fbe90612aa4565b60405180910390fd5b610fcf611313565b73ffffffffffffffffffffffffffffffffffffffff168573ffffffffffffffffffffffffffffffffffffffff16148061101557506110148561100f611313565b610ec3565b5b611054576040517f08c379a000000000000000000000000000000000000000000000000000000000815260040161104b90612a84565b60405180910390fd5b600061105e611313565b905061107e81878761106f886118ee565b611078886118ee565b87611462565b61108a8686868661146a565b8473ffffffffffffffffffffffffffffffffffffffff168673ffffffffffffffffffffffffffffffffffffffff168273ffffffffffffffffffffffffffffffffffffffff167fc3d58168c5ae7397731d063d5bbf3d657854427343f4c083240f7aacaa2d0f628787604051611100929190612b5a565b60405180910390a461111681878787878761195f565b505050505050565b611126611313565b73ffffffffffffffffffffffffffffffffffffffff16611144610a98565b73ffffffffffffffffffffffffffffffffffffffff16146111cd576040517f08c379a00000000000000000000000000000000000000000000000000000000081526004018080602001828103825260208152602001807f4f776e61626c653a2063616c6c6572206973206e6f7420746865206f776e657281525060200191505060405180910390fd5b600073ffffffffffffffffffffffffffffffffffffffff168173ffffffffffffffffffffffffffffffffffffffff161415611253576040517f08c379a0000000000000000000000000000000000000000000000000000000008152600401808060200182810382526026815260200180612f0b6026913960400191505060405180910390fd5b8073ffffffffffffffffffffffffffffffffffffffff16603360009054906101000a900473ffffffffffffffffffffffffffffffffffffffff1673ffffffffffffffffffffffffffffffffffffffff167f8be0079c531659141344cd1fd0a4f28419497f9722a3daafe3b4186f6b6457e060405160405180910390a380603360006101000a81548173ffffffffffffffffffffffffffffffffffffffff021916908373ffffffffffffffffffffffffffffffffffffffff16021790555050565b600033905090565b60606000821415611363576040518060400160405280600181526020017f3000000000000000000000000000000000000000000000000000000000000000815250905061145d565b600082905060005b6000821461138d578080600101915050600a828161138557fe5b04915061136b565b60008167ffffffffffffffff811180156113a657600080fd5b506040519080825280601f01601f1916602001820160405280156113d95781602001600182028036833780820191505090505b50905060006001830390508593505b6000841461145557600a84816113fa57fe5b0660300160f81b8282806001900393508151811061141457fe5b60200101907effffffffffffffffffffffffffffffffffffffffffffffffffffffffffffff1916908160001a905350600a848161144d57fe5b0493506113e8565b819450505050505b919050565b505050505050565b6000819050600073ffffffffffffffffffffffffffffffffffffffff168573ffffffffffffffffffffffffffffffffffffffff16146115fa57600060fb600085815260200190815260200160002060008773ffffffffffffffffffffffffffffffffffffffff1673ffffffffffffffffffffffffffffffffffffffff16815260200190815260200160002060000160009054906101000a90046fffffffffffffffffffffffffffffffff16905082816fffffffffffffffffffffffffffffffff16101561156c576040517f08c379a000000000000000000000000000000000000000000000000000000000815260040161156390612ae4565b60405180910390fd5b81810360fb600086815260200190815260200160002060008873ffffffffffffffffffffffffffffffffffffffff1673ffffffffffffffffffffffffffffffffffffffff16815260200190815260200160002060000160006101000a8154816fffffffffffffffffffffffffffffffff02191690836fffffffffffffffffffffffffffffffff160217905550505b61168e8160fb600086815260200190815260200160002060008773ffffffffffffffffffffffffffffffffffffffff1673ffffffffffffffffffffffffffffffffffffffff16815260200190815260200160002060000160009054906101000a90046fffffffffffffffffffffffffffffffff166fffffffffffffffffffffffffffffffff16611b2f90919063ffffffff16565b60fb600085815260200190815260200160002060008673ffffffffffffffffffffffffffffffffffffffff1673ffffffffffffffffffffffffffffffffffffffff16815260200190815260200160002060000160006101000a8154816fffffffffffffffffffffffffffffffff02191690836fffffffffffffffffffffffffffffffff1602179055505050505050565b61173d8473ffffffffffffffffffffffffffffffffffffffff16611bdb565b156118e6578373ffffffffffffffffffffffffffffffffffffffff1663bc197c8187878686866040518663ffffffff1660e01b81526004016117839594939291906128aa565b602060405180830381600087803b15801561179d57600080fd5b505af19250505080156117ce57506040513d601f19601f820116820180604052508101906117cb91906121de565b60015b61185d576117da612df8565b806117e55750611822565b806040517f08c379a00000000000000000000000000000000000000000000000000000000081526004016118199190612a02565b60405180910390fd5b6040517f08c379a000000000000000000000000000000000000000000000000000000000815260040161185490612a24565b60405180910390fd5b63bc197c8160e01b7bffffffffffffffffffffffffffffffffffffffffffffffffffffffff1916817bffffffffffffffffffffffffffffffffffffffffffffffffffffffff1916146118e4576040517f08c379a00000000000000000000000000000000000000000000000000000000081526004016118db90612a44565b60405180910390fd5b505b505050505050565b60606000600167ffffffffffffffff8111801561190a57600080fd5b506040519080825280602002602001820160405280156119395781602001602082028036833780820191505090505b509050828160008151811061194a57fe5b60200260200101818152505080915050919050565b61197e8473ffffffffffffffffffffffffffffffffffffffff16611bdb565b15611b27578373ffffffffffffffffffffffffffffffffffffffff1663f23a6e6187878686866040518663ffffffff1660e01b81526004016119c4959493929190612912565b602060405180830381600087803b1580156119de57600080fd5b505af1925050508015611a0f57506040513d601f19601f82011682018060405250810190611a0c91906121de565b60015b611a9e57611a1b612df8565b80611a265750611a63565b806040517f08c379a0000000000000000000000000000000000000000000000000000000008152600401611a5a9190612a02565b60405180910390fd5b6040517f08c379a0000000000000000000000000000000000000000000000000000000008152600401611a9590612a24565b60405180910390fd5b63f23a6e6160e01b7bffffffffffffffffffffffffffffffffffffffffffffffffffffffff1916817bffffffffffffffffffffffffffffffffffffffffffffffffffffffff191614611b25576040517f08c379a0000000000000000000000000000000000000000000000000000000008152600401611b1c90612a44565b60405180910390fd5b505b505050505050565b6000808284019050836fffffffffffffffffffffffffffffffff16816fffffffffffffffffffffffffffffffff161015611bd1576040517f08c379a000000000000000000000000000000000000000000000000000000000815260040180806020018281038252601b8152602001807f536166654d6174683a206164646974696f6e206f766572666c6f77000000000081525060200191505060405180910390fd5b8091505092915050565b600080823b905060008111915050919050565b828054600181600116156101000203166002900490600052602060002090601f016020900481019282611c245760008555611c6b565b82601f10611c3d57803560ff1916838001178555611c6b565b82800160010185558215611c6b579182015b82811115611c6a578235825591602001919060010190611c4f565b5b509050611c789190611cba565b5090565b604051806040016040528060006fffffffffffffffffffffffffffffffff16815260200160006fffffffffffffffffffffffffffffffff1681525090565b5b80821115611cd3576000816000905550600101611cbb565b5090565b6000611cea611ce584612bb4565b612b83565b90508083825260208201905082856020860282011115611d0957600080fd5b60005b85811015611d395781611d1f8882611ded565b845260208401935060208301925050600181019050611d0c565b5050509392505050565b6000611d56611d5184612be0565b612b83565b90508083825260208201905082856020860282011115611d7557600080fd5b60005b85811015611da55781611d8b8882611f09565b845260208401935060208301925050600181019050611d78565b5050509392505050565b6000611dc2611dbd84612c0c565b612b83565b905082815260208101848484011115611dda57600080fd5b611de5848285612d96565b509392505050565b600081359050611dfc81612eae565b92915050565b600082601f830112611e1357600080fd5b8135611e23848260208601611cd7565b91505092915050565b600082601f830112611e3d57600080fd5b8135611e4d848260208601611d43565b91505092915050565b600081359050611e6581612ec5565b92915050565b600081359050611e7a81612edc565b92915050565b600081519050611e8f81612edc565b92915050565b600082601f830112611ea657600080fd5b8135611eb6848260208601611daf565b91505092915050565b60008083601f840112611ed157600080fd5b8235905067ffffffffffffffff811115611eea57600080fd5b602083019150836001820283011115611f0257600080fd5b9250929050565b600081359050611f1881612ef3565b92915050565b600060208284031215611f3057600080fd5b6000611f3e84828501611ded565b91505092915050565b60008060408385031215611f5a57600080fd5b6000611f6885828601611ded565b9250506020611f7985828601611ded565b9150509250929050565b600080600080600060a08688031215611f9b57600080fd5b6000611fa988828901611ded565b9550506020611fba88828901611ded565b945050604086013567ffffffffffffffff811115611fd757600080fd5b611fe388828901611e2c565b935050606086013567ffffffffffffffff81111561200057600080fd5b61200c88828901611e2c565b925050608086013567ffffffffffffffff81111561202957600080fd5b61203588828901611e95565b9150509295509295909350565b600080600080600060a0868803121561205a57600080fd5b600061206888828901611ded565b955050602061207988828901611ded565b945050604061208a88828901611f09565b935050606061209b88828901611f09565b925050608086013567ffffffffffffffff8111156120b857600080fd5b6120c488828901611e95565b9150509295509295909350565b600080604083850312156120e457600080fd5b60006120f285828601611ded565b925050602061210385828601611e56565b9150509250929050565b6000806040838503121561212057600080fd5b600061212e85828601611ded565b925050602061213f85828601611f09565b9150509250929050565b6000806040838503121561215c57600080fd5b600083013567ffffffffffffffff81111561217657600080fd5b61218285828601611e02565b925050602083013567ffffffffffffffff81111561219f57600080fd5b6121ab85828601611e2c565b9150509250929050565b6000602082840312156121c757600080fd5b60006121d584828501611e6b565b91505092915050565b6000602082840312156121f057600080fd5b60006121fe84828501611e80565b91505092915050565b6000806020838503121561221a57600080fd5b600083013567ffffffffffffffff81111561223457600080fd5b61224085828601611ebf565b92509250509250929050565b60006020828403121561225e57600080fd5b600061226c84828501611f09565b91505092915050565b600061228183836127e0565b60408301905092915050565b6000612299838361284d565b60208301905092915050565b6122ae81612d06565b82525050565b60006122bf82612c71565b6122c98185612cb7565b93506122d483612c3c565b8060005b838110156123055781516122ec8882612275565b97506122f783612c9d565b9250506001810190506122d8565b5085935050505092915050565b600061231d82612c7c565b6123278185612cc8565b935061233283612c4c565b8060005b8381101561236357815161234a888261228d565b975061235583612caa565b925050600181019050612336565b5085935050505092915050565b61237981612d18565b82525050565b600061238a82612c87565b6123948185612cd9565b93506123a4818560208601612da5565b6123ad81612dda565b840191505092915050565b60006123c382612c92565b6123cd8185612cea565b93506123dd818560208601612da5565b6123e681612dda565b840191505092915050565b60006123fc82612c92565b6124068185612cfb565b9350612416818560208601612da5565b80840191505092915050565b60008154600181166000811461243f5760018114612464576124a8565b607f60028304166124508187612cfb565b955060ff19831686528086019350506124a8565b600282046124728187612cfb565b955061247d85612c5c565b60005b8281101561249f57815481890152600182019150602081019050612480565b82880195505050505b505092915050565b60006124bd603483612cea565b91507f455243313135353a207472616e7366657220746f206e6f6e204552433131353560008301527f526563656976657220696d706c656d656e7465720000000000000000000000006020830152604082019050919050565b6000612523602883612cea565b91507f455243313135353a204552433131353552656365697665722072656a6563746560008301527f6420746f6b656e730000000000000000000000000000000000000000000000006020830152604082019050919050565b6000612589602b83612cea565b91507f455243313135353a2062616c616e636520717565727920666f7220746865207a60008301527f65726f20616464726573730000000000000000000000000000000000000000006020830152604082019050919050565b60006125ef602983612cea565b91507f455243313135353a2063616c6c6572206973206e6f74206f776e6572206e6f7260008301527f20617070726f76656400000000000000000000000000000000000000000000006020830152604082019050919050565b6000612655602583612cea565b91507f455243313135353a207472616e7366657220746f20746865207a65726f20616460008301527f64726573730000000000000000000000000000000000000000000000000000006020830152604082019050919050565b60006126bb603283612cea565b91507f455243313135353a207472616e736665722063616c6c6572206973206e6f742060008301527f6f776e6572206e6f7220617070726f76656400000000000000000000000000006020830152604082019050919050565b6000612721602a83612cea565b91507f455243313135353a20696e73756666696369656e742062616c616e636520666f60008301527f72207472616e73666572000000000000000000000000000000000000000000006020830152604082019050919050565b6000612787602883612cea565b91507f455243313135353a2069647320616e6420616d6f756e7473206c656e6774682060008301527f6d69736d617463680000000000000000000000000000000000000000000000006020830152604082019050919050565b6040820160008201516127f6600085018261283e565b506020820151612809602085018261283e565b50505050565b604082016000820151612825600085018261283e565b506020820151612838602085018261283e565b50505050565b61284781612d50565b82525050565b61285681612d8c565b82525050565b61286581612d8c565b82525050565b60006128778285612422565b915061288382846123f1565b91508190509392505050565b60006020820190506128a460008301846122a5565b92915050565b600060a0820190506128bf60008301886122a5565b6128cc60208301876122a5565b81810360408301526128de8186612312565b905081810360608301526128f28185612312565b90508181036080830152612906818461237f565b90509695505050505050565b600060a08201905061292760008301886122a5565b61293460208301876122a5565b612941604083018661285c565b61294e606083018561285c565b8181036080830152612960818461237f565b90509695505050505050565b6000602082019050818103600083015261298681846122b4565b905092915050565b600060208201905081810360008301526129a88184612312565b905092915050565b600060408201905081810360008301526129ca8185612312565b905081810360208301526129de8184612312565b90509392505050565b60006020820190506129fc6000830184612370565b92915050565b60006020820190508181036000830152612a1c81846123b8565b905092915050565b60006020820190508181036000830152612a3d816124b0565b9050919050565b60006020820190508181036000830152612a5d81612516565b9050919050565b60006020820190508181036000830152612a7d8161257c565b9050919050565b60006020820190508181036000830152612a9d816125e2565b9050919050565b60006020820190508181036000830152612abd81612648565b9050919050565b60006020820190508181036000830152612add816126ae565b9050919050565b60006020820190508181036000830152612afd81612714565b9050919050565b60006020820190508181036000830152612b1d8161277a565b9050919050565b6000604082019050612b39600083018461280f565b92915050565b6000602082019050612b54600083018461285c565b92915050565b6000604082019050612b6f600083018561285c565b612b7c602083018461285c565b9392505050565b6000604051905081810181811067ffffffffffffffff82111715612baa57612ba9612dd8565b5b8060405250919050565b600067ffffffffffffffff821115612bcf57612bce612dd8565b5b602082029050602081019050919050565b600067ffffffffffffffff821115612bfb57612bfa612dd8565b5b602082029050602081019050919050565b600067ffffffffffffffff821115612c2757612c26612dd8565b5b601f19601f8301169050602081019050919050565b6000819050602082019050919050565b6000819050602082019050919050565b60008190508160005260206000209050919050565b600081519050919050565b600081519050919050565b600081519050919050565b600081519050919050565b6000602082019050919050565b6000602082019050919050565b600082825260208201905092915050565b600082825260208201905092915050565b600082825260208201905092915050565b600082825260208201905092915050565b600081905092915050565b6000612d1182612d6c565b9050919050565b60008115159050919050565b60007fffffffff0000000000000000000000000000000000000000000000000000000082169050919050565b60006fffffffffffffffffffffffffffffffff82169050919050565b600073ffffffffffffffffffffffffffffffffffffffff82169050919050565b6000819050919050565b82818337600083830152505050565b60005b83811015612dc3578082015181840152602081019050612da8565b83811115612dd2576000848401525b50505050565bfe5b6000601f19601f8301169050919050565b60008160e01c9050919050565b600060443d1015612e0857612eab565b60046000803e612e19600051612deb565b6308c379a08114612e2a5750612eab565b60405160043d036004823e80513d602482011167ffffffffffffffff82111715612e5657505050612eab565b808201805167ffffffffffffffff811115612e75575050505050612eab565b8060208301013d8501811115612e9057505050505050612eab565b612e9982612dda565b60208401016040528296505050505050505b90565b612eb781612d06565b8114612ec257600080fd5b50565b612ece81612d18565b8114612ed957600080fd5b50565b612ee581612d24565b8114612ef057600080fd5b50565b612efc81612d8c565b8114612f0757600080fd5b5056fe4f776e61626c653a206e6577206f776e657220697320746865207a65726f2061646472657373455243313135353a2073657474696e6720617070726f76616c2073746174757320666f722073656c66455243313135353a206163636f756e747320616e6420696473206c656e677468206d69736d61746368a2646970667358221220476c232199e8636586b5f058eedb7fe48aac4a7f67d56e7e8920b5fbbe87f55f64736f6c63430007060033",
  "linkReferences": {},
  "deployedLinkReferences": {}
}