{
  "_format": "hh-sol-artifact-1",
  "contractName": "Silo",
  "sourceName": "contracts/farm/facets/SiloFacet/Silo.sol",
  "abi": [
    {
      "anonymous": false,
      "inputs": [
        {
          "indexed": true,
          "internalType": "address",
          "name": "account",
          "type": "address"
        },
        {
          "indexed": false,
          "internalType": "uint256",
          "name": "plenty",
          "type": "uint256"
        }
      ],
      "name": "ClaimPlenty",
      "type": "event"
    },
    {
      "anonymous": false,
      "inputs": [
        {
          "indexed": true,
          "internalType": "address",
          "name": "account",
          "type": "address"
        },
        {
          "indexed": false,
          "internalType": "uint256",
          "name": "beans",
          "type": "uint256"
        }
      ],
      "name": "Plant",
      "type": "event"
    },
    {
      "anonymous": false,
      "inputs": [
        {
          "indexed": true,
          "internalType": "address",
          "name": "account",
          "type": "address"
        },
        {
          "indexed": false,
          "internalType": "int256",
          "name": "delta",
          "type": "int256"
        }
      ],
      "name": "SeedsBalanceChanged",
      "type": "event"
    },
    {
      "anonymous": false,
      "inputs": [
        {
          "indexed": true,
          "internalType": "address",
          "name": "account",
          "type": "address"
        },
        {
          "indexed": false,
          "internalType": "int256",
          "name": "delta",
          "type": "int256"
        },
        {
          "indexed": false,
          "internalType": "int256",
          "name": "deltaRoots",
          "type": "int256"
        }
      ],
      "name": "StalkBalanceChanged",
      "type": "event"
    },
    {
      "inputs": [
        {
          "internalType": "address",
          "name": "account",
          "type": "address"
        }
      ],
      "name": "balanceOfEarnedBeans",
      "outputs": [
        {
          "internalType": "uint256",
          "name": "beans",
          "type": "uint256"
        }
      ],
      "stateMutability": "view",
      "type": "function"
    },
    {
      "inputs": [
        {
          "internalType": "address",
          "name": "account",
          "type": "address"
        }
      ],
      "name": "balanceOfEarnedSeeds",
      "outputs": [
        {
          "internalType": "uint256",
          "name": "",
          "type": "uint256"
        }
      ],
      "stateMutability": "view",
      "type": "function"
    },
    {
      "inputs": [
        {
          "internalType": "address",
          "name": "account",
          "type": "address"
        }
      ],
      "name": "balanceOfEarnedStalk",
      "outputs": [
        {
          "internalType": "uint256",
          "name": "",
          "type": "uint256"
        }
      ],
      "stateMutability": "view",
      "type": "function"
    },
    {
      "inputs": [
        {
          "internalType": "address",
          "name": "account",
          "type": "address"
        }
      ],
      "name": "balanceOfGrownStalk",
      "outputs": [
        {
          "internalType": "uint256",
          "name": "",
          "type": "uint256"
        }
      ],
      "stateMutability": "view",
      "type": "function"
    },
    {
      "inputs": [
        {
          "internalType": "address",
          "name": "account",
          "type": "address"
        }
      ],
      "name": "balanceOfPlenty",
      "outputs": [
        {
          "internalType": "uint256",
          "name": "plenty",
          "type": "uint256"
        }
      ],
      "stateMutability": "view",
      "type": "function"
    },
    {
      "inputs": [
        {
          "internalType": "address",
          "name": "account",
          "type": "address"
        }
      ],
      "name": "balanceOfRainRoots",
      "outputs": [
        {
          "internalType": "uint256",
          "name": "",
          "type": "uint256"
        }
      ],
      "stateMutability": "view",
      "type": "function"
    },
    {
      "inputs": [
        {
          "internalType": "address",
          "name": "account",
          "type": "address"
        }
      ],
      "name": "balanceOfRoots",
      "outputs": [
        {
          "internalType": "uint256",
          "name": "",
          "type": "uint256"
        }
      ],
      "stateMutability": "view",
      "type": "function"
    },
    {
      "inputs": [
        {
          "internalType": "address",
          "name": "account",
          "type": "address"
        }
      ],
      "name": "balanceOfSeeds",
      "outputs": [
        {
          "internalType": "uint256",
          "name": "",
          "type": "uint256"
        }
      ],
      "stateMutability": "view",
      "type": "function"
    },
    {
      "inputs": [
        {
          "internalType": "address",
          "name": "account",
          "type": "address"
        }
      ],
      "name": "balanceOfSop",
      "outputs": [
        {
          "components": [
            {
              "internalType": "uint32",
              "name": "lastRain",
              "type": "uint32"
            },
            {
              "internalType": "uint32",
              "name": "lastSop",
              "type": "uint32"
            },
            {
              "internalType": "uint256",
              "name": "roots",
              "type": "uint256"
            },
            {
              "internalType": "uint256",
              "name": "plentyPerRoot",
              "type": "uint256"
            },
            {
              "internalType": "uint256",
              "name": "plenty",
              "type": "uint256"
            }
          ],
          "internalType": "struct SiloExit.AccountSeasonOfPlenty",
          "name": "sop",
          "type": "tuple"
        }
      ],
      "stateMutability": "view",
      "type": "function"
    },
    {
      "inputs": [
        {
          "internalType": "address",
          "name": "account",
          "type": "address"
        }
      ],
      "name": "balanceOfStalk",
      "outputs": [
        {
          "internalType": "uint256",
          "name": "",
          "type": "uint256"
        }
      ],
      "stateMutability": "view",
      "type": "function"
    },
    {
      "inputs": [],
      "name": "lastSeasonOfPlenty",
      "outputs": [
        {
          "internalType": "uint32",
          "name": "",
          "type": "uint32"
        }
      ],
      "stateMutability": "view",
      "type": "function"
    },
    {
      "inputs": [
        {
          "internalType": "address",
          "name": "account",
          "type": "address"
        }
      ],
      "name": "lastUpdate",
      "outputs": [
        {
          "internalType": "uint32",
          "name": "",
          "type": "uint32"
        }
      ],
      "stateMutability": "view",
      "type": "function"
    },
    {
      "inputs": [],
      "name": "totalEarnedBeans",
      "outputs": [
        {
          "internalType": "uint256",
          "name": "",
          "type": "uint256"
        }
      ],
      "stateMutability": "view",
      "type": "function"
    },
    {
      "inputs": [],
      "name": "totalRoots",
      "outputs": [
        {
          "internalType": "uint256",
          "name": "",
          "type": "uint256"
        }
      ],
      "stateMutability": "view",
      "type": "function"
    },
    {
      "inputs": [],
      "name": "totalSeeds",
      "outputs": [
        {
          "internalType": "uint256",
          "name": "",
          "type": "uint256"
        }
      ],
      "stateMutability": "view",
      "type": "function"
    },
    {
      "inputs": [],
      "name": "totalStalk",
      "outputs": [
        {
          "internalType": "uint256",
          "name": "",
          "type": "uint256"
        }
      ],
      "stateMutability": "view",
      "type": "function"
    }
  ],
  "bytecode": "0x608060405234801561001057600080fd5b506111b1806100206000396000f3fe608060405234801561001057600080fd5b50600436106101005760003560e01c8063896651e811610097578063be6547d211610066578063be6547d214610321578063cb03fb1e1461033f578063d8bd0d9d1461036f578063fd9de1661461038d57610100565b8063896651e8146102615780638eeae31014610291578063a7bf680f146102c1578063ba39dc02146102f157610100565b80634916bc72116100d35780634916bc72146101b3578063602aa123146101e357806369fbad94146102135780637b52fadf1461024357610100565b8063249564aa14610105578063341b94d5146101355780633e465a2e146101655780634654416614610195575b600080fd5b61011f600480360381019061011a9190610fd9565b6103ab565b60405161012c91906110c1565b60405180910390f35b61014f600480360381019061014a9190610fd9565b610417565b60405161015c91906110c1565b60405180910390f35b61017f600480360381019061017a9190610fd9565b610442565b60405161018c91906110c1565b60405180910390f35b61019d61049d565b6040516101aa91906110c1565b60405180910390f35b6101cd60048036038101906101c89190610fd9565b6104ac565b6040516101da91906110c1565b60405180910390f35b6101fd60048036038101906101f89190610fd9565b6104fd565b60405161020a91906110c1565b60405180910390f35b61022d60048036038101906102289190610fd9565b610528565b60405161023a91906110c1565b60405180910390f35b61024b610579565b60405161025891906110c1565b60405180910390f35b61027b60048036038101906102769190610fd9565b610588565b60405161028891906110c1565b60405180910390f35b6102ab60048036038101906102a69190610fd9565b61092e565b6040516102b891906110c1565b60405180910390f35b6102db60048036038101906102d69190610fd9565b61099a565b6040516102e891906110a6565b60405180910390f35b61030b60048036038101906103069190610fd9565b610b37565b60405161031891906110c1565b60405180910390f35b610329610b85565b60405161033691906110dc565b60405180910390f35b61035960048036038101906103549190610fd9565b610ba4565b60405161036691906110dc565b60405180910390f35b610377610c02565b60405161038491906110c1565b60405180910390f35b610395610c11565b6040516103a291906110c1565b60405180910390f35b6000610410600060310160008473ffffffffffffffffffffffffffffffffffffffff1673ffffffffffffffffffffffffffffffffffffffff1681526020019081526020016000206008016001015461040284610ba4565b61040a610c1d565b03610c3c565b9050919050565b600061043b610424610c5f565b61042d84610442565b610c6990919063ffffffff16565b9050919050565b600061049682600060310160008573ffffffffffffffffffffffffffffffffffffffff1673ffffffffffffffffffffffffffffffffffffffff16815260200190815260200160002060080160000154610cef565b9050919050565b600080601b0160020154905090565b60008060310160008373ffffffffffffffffffffffffffffffffffffffff1673ffffffffffffffffffffffffffffffffffffffff168152602001908152602001600020600801600101549050919050565b600061052161050a610dda565b61051384610442565b610c6990919063ffffffff16565b9050919050565b60008060310160008373ffffffffffffffffffffffffffffffffffffffff1673ffffffffffffffffffffffffffffffffffffffff168152602001908152602001600020601201600001549050919050565b600080601b0160000154905090565b600080600060310160008473ffffffffffffffffffffffffffffffffffffffff1673ffffffffffffffffffffffffffffffffffffffff168152602001908152602001600020905080601201600201549150600080600060310160008673ffffffffffffffffffffffffffffffffffffffff1673ffffffffffffffffffffffffffffffffffffffff168152602001908152602001600020600a01600c9054906101000a900463ffffffff1663ffffffff1611156107df5781600a01600c9054906101000a900463ffffffff1663ffffffff1682600a0160089054906101000a900463ffffffff1663ffffffff16141561068957816012016001015490506106c3565b6000603d01600083600a0160089054906101000a900463ffffffff1663ffffffff1663ffffffff1681526020019081526020016000205490505b600080603d0160008060310160008873ffffffffffffffffffffffffffffffffffffffff1673ffffffffffffffffffffffffffffffffffffffff168152602001908152602001600020600a01600c9054906101000a900463ffffffff1663ffffffff1663ffffffff168152602001908152602001600020549050818111156107d957600082820390508192506107d56107c661075d610de3565b6107b8600060310160008b73ffffffffffffffffffffffffffffffffffffffff1673ffffffffffffffffffffffffffffffffffffffff1681526020019081526020016000206012016000015485610c6990919063ffffffff16565b610df590919063ffffffff16565b86610e7e90919063ffffffff16565b9450505b50610859565b6000603d0160008060310160008773ffffffffffffffffffffffffffffffffffffffff1673ffffffffffffffffffffffffffffffffffffffff168152602001908152602001600020600a0160089054906101000a900463ffffffff1663ffffffff1663ffffffff1681526020019081526020016000205490505b61086284610ba4565b63ffffffff16600060030160000160049054906101000a900463ffffffff1663ffffffff1611156109275760006108db826000603d0160008060030160000160049054906101000a900463ffffffff1663ffffffff1663ffffffff16815260200190815260200160002054610f0690919063ffffffff16565b90506109236109146108eb610de3565b6109066108f789610b37565b85610c6990919063ffffffff16565b610df590919063ffffffff16565b85610e7e90919063ffffffff16565b9350505b5050919050565b600061099361093c83610417565b600060310160008573ffffffffffffffffffffffffffffffffffffffff1673ffffffffffffffffffffffffffffffffffffffff16815260200190815260200160002060080160000154610e7e90919063ffffffff16565b9050919050565b6109a2610f89565b600060310160008373ffffffffffffffffffffffffffffffffffffffff1673ffffffffffffffffffffffffffffffffffffffff168152602001908152602001600020600a01600c9054906101000a900463ffffffff16816000019063ffffffff16908163ffffffff1681525050600060310160008373ffffffffffffffffffffffffffffffffffffffff1673ffffffffffffffffffffffffffffffffffffffff168152602001908152602001600020600a0160089054906101000a900463ffffffff16816020019063ffffffff16908163ffffffff1681525050600060310160008373ffffffffffffffffffffffffffffffffffffffff1673ffffffffffffffffffffffffffffffffffffffff16815260200190815260200160002060120160000154816040018181525050610ad782610588565b816080018181525050600060310160008373ffffffffffffffffffffffffffffffffffffffff1673ffffffffffffffffffffffffffffffffffffffff16815260200190815260200160002060120160010154816060018181525050919050565b60008060310160008373ffffffffffffffffffffffffffffffffffffffff1673ffffffffffffffffffffffffffffffffffffffff168152602001908152602001600020600e01549050919050565b60008060030160000160049054906101000a900463ffffffff16905090565b60008060310160008373ffffffffffffffffffffffffffffffffffffffff1673ffffffffffffffffffffffffffffffffffffffff168152602001908152602001600020600a0160049054906101000a900463ffffffff169050919050565b600080601b0160010154905090565b60008060220154905090565b60008060030160000160009054906101000a900463ffffffff16905090565b6000610c578263ffffffff1684610c6990919063ffffffff16565b905092915050565b6000612710905090565b600080831415610c7c5760009050610ce9565b6000828402905082848281610c8d57fe5b0414610ce4576040517f08c379a000000000000000000000000000000000000000000000000000000000815260040180806020018281038252602181526020018061115b6021913960400191505060405180910390fd5b809150505b92915050565b6000806000601b01600201541415610d0a5760009050610dd4565b6000610d866000601b0160020154610d78600060310160008873ffffffffffffffffffffffffffffffffffffffff1673ffffffffffffffffffffffffffffffffffffffff168152602001908152602001600020600e01546000601b0160000154610c6990919063ffffffff16565b610df590919063ffffffff16565b9050828111610d99576000915050610dd4565b610db5610da4610c5f565b848303610df590919063ffffffff16565b9150600060220154821115610dd257600060220154915050610dd4565b505b92915050565b60006002905090565b600069d3c21bcecceda1000000905090565b6000808211610e6c576040517f08c379a000000000000000000000000000000000000000000000000000000000815260040180806020018281038252601a8152602001807f536166654d6174683a206469766973696f6e206279207a65726f00000000000081525060200191505060405180910390fd5b818381610e7557fe5b04905092915050565b600080828401905083811015610efc576040517f08c379a000000000000000000000000000000000000000000000000000000000815260040180806020018281038252601b8152602001807f536166654d6174683a206164646974696f6e206f766572666c6f77000000000081525060200191505060405180910390fd5b8091505092915050565b600082821115610f7e576040517f08c379a000000000000000000000000000000000000000000000000000000000815260040180806020018281038252601e8152602001807f536166654d6174683a207375627472616374696f6e206f766572666c6f77000081525060200191505060405180910390fd5b818303905092915050565b6040518060a00160405280600063ffffffff168152602001600063ffffffff1681526020016000815260200160008152602001600081525090565b600081359050610fd381611143565b92915050565b600060208284031215610feb57600080fd5b6000610ff984828501610fc4565b91505092915050565b60a0820160008201516110186000850182611088565b50602082015161102b6020850182611088565b50604082015161103e604085018261106a565b506060820151611051606085018261106a565b506080820151611064608085018261106a565b50505050565b61107381611129565b82525050565b61108281611129565b82525050565b61109181611133565b82525050565b6110a081611133565b82525050565b600060a0820190506110bb6000830184611002565b92915050565b60006020820190506110d66000830184611079565b92915050565b60006020820190506110f16000830184611097565b92915050565b600061110282611109565b9050919050565b600073ffffffffffffffffffffffffffffffffffffffff82169050919050565b6000819050919050565b600063ffffffff82169050919050565b61114c816110f7565b811461115757600080fd5b5056fe536166654d6174683a206d756c7469706c69636174696f6e206f766572666c6f77a264697066735822122013b6ad48082ad8572572c57d72f1aeb2b9b5b77eb790777dea395fec5d09f8a964736f6c63430007060033",
  "linkReferences": {},
  "deployedLinkReferences": {}
}