{
  "_format": "hh-sol-artifact-1",
  "contractName": "FieldFacet",
  "sourceName": "contracts/farm/facets/FieldFacet.sol",
  "abi": [
    {
      "anonymous": false,
      "inputs": [
        {
          "indexed": true,
          "internalType": "address",
          "name": "account",
          "type": "address"
        },
        {
          "indexed": false,
          "internalType": "uint256[]",
          "name": "plots",
          "type": "uint256[]"
        },
        {
          "indexed": false,
          "internalType": "uint256",
          "name": "beans",
          "type": "uint256"
        }
      ],
      "name": "Harvest",
      "type": "event"
    },
    {
      "anonymous": false,
      "inputs": [
        {
          "indexed": true,
          "internalType": "address",
          "name": "account",
          "type": "address"
        },
        {
          "indexed": false,
          "internalType": "uint256",
          "name": "index",
          "type": "uint256"
        }
      ],
      "name": "PodListingCancelled",
      "type": "event"
    },
    {
      "anonymous": false,
      "inputs": [
        {
          "indexed": true,
          "internalType": "address",
          "name": "account",
          "type": "address"
        },
        {
          "indexed": false,
          "internalType": "uint256",
          "name": "index",
          "type": "uint256"
        },
        {
          "indexed": false,
          "internalType": "uint256",
          "name": "beans",
          "type": "uint256"
        },
        {
          "indexed": false,
          "internalType": "uint256",
          "name": "pods",
          "type": "uint256"
        }
      ],
      "name": "Sow",
      "type": "event"
    },
    {
      "inputs": [
        {
          "internalType": "uint256[]",
          "name": "plots",
          "type": "uint256[]"
        },
        {
          "internalType": "enum LibTransfer.To",
          "name": "mode",
          "type": "uint8"
        }
      ],
      "name": "harvest",
      "outputs": [],
      "stateMutability": "payable",
      "type": "function"
    },
    {
      "inputs": [],
      "name": "harvestableIndex",
      "outputs": [
        {
          "internalType": "uint256",
          "name": "",
          "type": "uint256"
        }
      ],
      "stateMutability": "view",
      "type": "function"
    },
    {
      "inputs": [
        {
          "internalType": "address",
          "name": "account",
          "type": "address"
        },
        {
          "internalType": "uint256",
          "name": "plotId",
          "type": "uint256"
        }
      ],
      "name": "plot",
      "outputs": [
        {
          "internalType": "uint256",
          "name": "",
          "type": "uint256"
        }
      ],
      "stateMutability": "view",
      "type": "function"
    },
    {
      "inputs": [],
      "name": "podIndex",
      "outputs": [
        {
          "internalType": "uint256",
          "name": "",
          "type": "uint256"
        }
      ],
      "stateMutability": "view",
      "type": "function"
    },
    {
      "inputs": [
        {
          "internalType": "uint256",
          "name": "amount",
          "type": "uint256"
        },
        {
          "internalType": "enum LibTransfer.From",
          "name": "mode",
          "type": "uint8"
        }
      ],
      "name": "sow",
      "outputs": [
        {
          "internalType": "uint256",
          "name": "",
          "type": "uint256"
        }
      ],
      "stateMutability": "payable",
      "type": "function"
    },
    {
      "inputs": [
        {
          "internalType": "uint256",
          "name": "amount",
          "type": "uint256"
        },
        {
          "internalType": "uint256",
          "name": "minAmount",
          "type": "uint256"
        },
        {
          "internalType": "enum LibTransfer.From",
          "name": "mode",
          "type": "uint8"
        }
      ],
      "name": "sowWithMin",
      "outputs": [
        {
          "internalType": "uint256",
          "name": "",
          "type": "uint256"
        }
      ],
      "stateMutability": "payable",
      "type": "function"
    },
    {
      "inputs": [],
      "name": "totalHarvestable",
      "outputs": [
        {
          "internalType": "uint256",
          "name": "",
          "type": "uint256"
        }
      ],
      "stateMutability": "view",
      "type": "function"
    },
    {
      "inputs": [],
      "name": "totalHarvested",
      "outputs": [
        {
          "internalType": "uint256",
          "name": "",
          "type": "uint256"
        }
      ],
      "stateMutability": "view",
      "type": "function"
    },
    {
      "inputs": [],
      "name": "totalPods",
      "outputs": [
        {
          "internalType": "uint256",
          "name": "",
          "type": "uint256"
        }
      ],
      "stateMutability": "view",
      "type": "function"
    },
    {
      "inputs": [],
      "name": "totalSoil",
      "outputs": [
        {
          "internalType": "uint256",
          "name": "",
          "type": "uint256"
        }
      ],
      "stateMutability": "view",
      "type": "function"
    },
    {
      "inputs": [],
      "name": "totalUnharvestable",
      "outputs": [
        {
          "internalType": "uint256",
          "name": "",
          "type": "uint256"
        }
      ],
      "stateMutability": "view",
      "type": "function"
    }
  ],
  "bytecode": "0x608060405234801561001057600080fd5b50611ebd806100206000396000f3fe60806040526004361061009c5760003560e01c806378309c851161006457806378309c851461017d5780638fd83ecf146101ad578063c0aa6a90146101c9578063cb44a6cf146101f4578063d6be18161461021f578063e1d9d6281461024a5761009c565b8063067fcd2e146100a157806323dc1142146100cc5780633285008a146100f75780634433366d146101225780636c8d548e1461014d575b600080fd5b3480156100ad57600080fd5b506100b6610287565b6040516100c39190611cd7565b60405180910390f35b3480156100d857600080fd5b506100e16102b1565b6040516100ee9190611cd7565b60405180910390f35b34801561010357600080fd5b5061010c6102c0565b6040516101199190611cd7565b60405180910390f35b34801561012e57600080fd5b506101376102cf565b6040516101449190611cd7565b60405180910390f35b6101676004803603810190610162919061196a565b6102f9565b6040516101749190611cd7565b60405180910390f35b610197600480360381019061019291906119a6565b61030e565b6040516101a49190611cd7565b60405180910390f35b6101c760048036038101906101c291906118e9565b610397565b005b3480156101d557600080fd5b506101de6103be565b6040516101eb9190611cd7565b60405180910390f35b34801561020057600080fd5b506102096103e8565b6040516102169190611cd7565b60405180910390f35b34801561022b57600080fd5b506102346103f7565b6040516102419190611cd7565b60405180910390f35b34801561025657600080fd5b50610271600480360381019061026c91906118ad565b610406565b60405161027e9190611cd7565b60405180910390f35b60006102ac6000600b01600201546000600b016003015461046990919063ffffffff16565b905090565b600080600b0160020154905090565b600080600b0160000154905090565b60006102f46000600b01600301546000600b016001015461046990919063ffffffff16565b905090565b600061030683848461030e565b905092915050565b6000806000600b0160000154905083811015801561032c5750838510155b80156103385750600084115b610377576040517f08c379a000000000000000000000000000000000000000000000000000000000815260040161036e90611c57565b60405180910390fd5b80851015610383578490505b61038d81846104ec565b9150509392505050565b60006103a38484610515565b90506103b86103b0610641565b82338561065d565b50505050565b60006103e36000600b01600201546000600b016001015461046990919063ffffffff16565b905090565b600080600b0160010154905090565b600080600b0160030154905090565b60008060310160008473ffffffffffffffffffffffffffffffffffffffff1673ffffffffffffffffffffffffffffffffffffffff168152602001908152602001600020600001600001600083815260200190815260200160002054905092915050565b6000828211156104e1576040517f08c379a000000000000000000000000000000000000000000000000000000000815260040180806020018281038252601e8152602001807f536166654d6174683a207375627472616374696f6e206f766572666c6f77000081525060200191505060405180910390fd5b818303905092915050565b60006105016104f9610641565b8433856106cc565b925061050d83336107e3565b905092915050565b6000805b838390508110156105c1576000600b016003015484848381811061053957fe5b9050602002013510610580576040517f08c379a000000000000000000000000000000000000000000000000000000000815260040161057790611c97565b60405180910390fd5b600061059e3386868581811061059257fe5b90506020020135610818565b90506105b38184610a5890919063ffffffff16565b925050806001019050610519565b506105dd816000600b0160020154610a5890919063ffffffff16565b6000600b01600201819055503373ffffffffffffffffffffffffffffffffffffffff167f2250a3497055c8a54223a5ea64f100a209e9c1c4ab39d3cae64c64a493065fa184848460405161063393929190611c0a565b60405180910390a292915050565b600073bea0000029ad1c77d3d5d23ba2d8893db9d1efab905090565b600083141561066b576106c6565b60018081111561067757fe5b81600181111561068357fe5b141561069957610694828585610ae0565b6106c5565b6106c482848673ffffffffffffffffffffffffffffffffffffffff16610b209092919063ffffffff16565b5b5b50505050565b60008060038111156106da57fe5b8260038111156106e657fe5b1415610761578473ffffffffffffffffffffffffffffffffffffffff166379cc679084866040518363ffffffff1660e01b8152600401610727929190611be1565b600060405180830381600087803b15801561074157600080fd5b505af1158015610755573d6000803e3d6000fd5b505050508390506107db565b61076d85858585610bc2565b90508473ffffffffffffffffffffffffffffffffffffffff166342966c68826040518263ffffffff1660e01b81526004016107a89190611cd7565b600060405180830381600087803b1580156107c257600080fd5b505af11580156107d6573d6000803e3d6000fd5b505050505b949350505050565b6000806107ee610dbe565b90508381600b01600001540381600b016000018190555061080f8484610dc3565b91505092915050565b600080600060310160008573ffffffffffffffffffffffffffffffffffffffff1673ffffffffffffffffffffffffffffffffffffffff1681526020019081526020016000206000016000016000848152602001908152602001600020549050600081116108ba576040517f08c379a00000000000000000000000000000000000000000000000000000000081526004016108b190611c77565b60405180910390fd5b6108d5836000600b016003015461046990919063ffffffff16565b9150600060310160008573ffffffffffffffffffffffffffffffffffffffff1673ffffffffffffffffffffffffffffffffffffffff1681526020019081526020016000206000016000016000848152602001908152602001600020600090556000801b600060360160008581526020019081526020016000205411156109be5760006036016000848152602001908152602001600020600090553373ffffffffffffffffffffffffffffffffffffffff167fe9dc43fcbeb08ecb743b537fa98567049e3b77e283833f89ab216b22ede6ba0a846040516109b59190611cd7565b60405180910390a25b8082106109ce5780915050610a52565b6109e1828261046990919063ffffffff16565b600060310160008673ffffffffffffffffffffffffffffffffffffffff1673ffffffffffffffffffffffffffffffffffffffff1681526020019081526020016000206000016000016000610a3e8587610a5890919063ffffffff16565b815260200190815260200160002081905550505b92915050565b600080828401905083811015610ad6576040517f08c379a000000000000000000000000000000000000000000000000000000000815260040180806020018281038252601b8152602001807f536166654d6174683a206164646974696f6e206f766572666c6f77000000000081525060200191505060405180910390fd5b8091505092915050565b6000610aec8484610e3e565b90506000610b038383610a5890919063ffffffff16565b9050610b19858583610b1487610ed3565b610f55565b5050505050565b610bbd8363a9059cbb60e01b8484604051602401808373ffffffffffffffffffffffffffffffffffffffff16815260200182815260200192505050604051602081830303815290604052907bffffffffffffffffffffffffffffffffffffffffffffffffffffffff19166020820180517bffffffffffffffffffffffffffffffffffffffffffffffffffffffff8381831617835250505050611050565b505050565b600080841415610bd55760009050610db6565b60006003811115610be257fe5b826003811115610bee57fe5b14610c4957610c1983868660016003811115610c0657fe5b866003811115610c1257fe5b141561113f565b905080841480610c3e5750600380811115610c3057fe5b826003811115610c3c57fe5b145b15610c4857610db6565b5b60008573ffffffffffffffffffffffffffffffffffffffff166370a08231306040518263ffffffff1660e01b8152600401610c849190611bc6565b60206040518083038186803b158015610c9c57600080fd5b505afa158015610cb0573d6000803e3d6000fd5b505050506040513d601f19601f82011682018060405250810190610cd49190611941565b9050610d0584308488038973ffffffffffffffffffffffffffffffffffffffff166111cd909392919063ffffffff16565b610db2610da3828873ffffffffffffffffffffffffffffffffffffffff166370a08231306040518263ffffffff1660e01b8152600401610d459190611bc6565b60206040518083038186803b158015610d5d57600080fd5b505afa158015610d71573d6000803e3d6000fd5b505050506040513d601f19601f82011682018060405250810190610d959190611941565b61046990919063ffffffff16565b83610a5890919063ffffffff16565b9150505b949350505050565b600090565b600080610dce610dbe565b90506000610df98583601f0160020160149054906101000a900463ffffffff1663ffffffff1661128e565b9050610e068486836112d0565b610e208183600b0160010154610a5890919063ffffffff16565b82600b0160010181905550610e3361139f565b809250505092915050565b600080610e49610dbe565b905080603e0160008573ffffffffffffffffffffffffffffffffffffffff1673ffffffffffffffffffffffffffffffffffffffff16815260200190815260200160002060008473ffffffffffffffffffffffffffffffffffffffff1673ffffffffffffffffffffffffffffffffffffffff1681526020019081526020016000205491505092915050565b60007f80000000000000000000000000000000000000000000000000000000000000008210610f4d576040517f08c379a0000000000000000000000000000000000000000000000000000000008152600401808060200182810382526028815260200180611e366028913960400191505060405180910390fd5b819050919050565b6000610f5f610dbe565b90508281603e0160008773ffffffffffffffffffffffffffffffffffffffff1673ffffffffffffffffffffffffffffffffffffffff16815260200190815260200160002060008673ffffffffffffffffffffffffffffffffffffffff1673ffffffffffffffffffffffffffffffffffffffff168152602001908152602001600020819055508373ffffffffffffffffffffffffffffffffffffffff168573ffffffffffffffffffffffffffffffffffffffff167f18e1ea4139e68413d7d08aa752e71568e36b2c5bf940893314c2c5b01eaa0c42846040516110419190611c3c565b60405180910390a35050505050565b60006110b2826040518060400160405280602081526020017f5361666545524332303a206c6f772d6c6576656c2063616c6c206661696c65648152508573ffffffffffffffffffffffffffffffffffffffff166114339092919063ffffffff16565b905060008151111561113a578080602001905160208110156110d357600080fd5b8101908080519060200190929190505050611139576040517f08c379a000000000000000000000000000000000000000000000000000000000815260040180806020018281038252602a815260200180611e5e602a913960400191505060405180910390fd5b5b505050565b60008061114c8686610e3e565b9050828061115a5750838110155b611199576040517f08c379a000000000000000000000000000000000000000000000000000000000815260040161119090611cb7565b60405180910390fd5b6111a3818561144b565b9150600082820390506111c38787836111bb87610ed3565b600003610f55565b5050949350505050565b611288846323b872dd60e01b858585604051602401808473ffffffffffffffffffffffffffffffffffffffff1681526020018373ffffffffffffffffffffffffffffffffffffffff1681526020018281526020019350505050604051602081830303815290604052907bffffffffffffffffffffffffffffffffffffffffffffffffffffffff19166020820180517bffffffffffffffffffffffffffffffffffffffffffffffffffffffff8381831617835250505050611050565b50505050565b60006112c86112b960646112ab858761146490919063ffffffff16565b6114ea90919063ffffffff16565b84610a5890919063ffffffff16565b905092915050565b60006112da610dbe565b9050818160310160008673ffffffffffffffffffffffffffffffffffffffff1673ffffffffffffffffffffffffffffffffffffffff168152602001908152602001600020600001600001600083600b01600101548152602001908152602001600020819055508373ffffffffffffffffffffffffffffffffffffffff167fdd43b982e9a6350577cad86db14e254b658fb741d7864a6860409c4526bcc64182600b0160010154858560405161139193929190611cf2565b60405180910390a250505050565b60006113a9610dbe565b9050620f424081600b016000015411806113e5575063ffffffff801681601f0160020160109054906101000a900463ffffffff1663ffffffff16105b156113f05750611431565b61140a81600301600301544261046990919063ffffffff16565b81601f0160020160106101000a81548163ffffffff021916908363ffffffff160217905550505b565b60606114428484600085611573565b90509392505050565b600081831061145a578161145c565b825b905092915050565b60008083141561147757600090506114e4565b600082840290508284828161148857fe5b04146114df576040517f08c379a0000000000000000000000000000000000000000000000000000000008152600401808060200182810382526021815260200180611e156021913960400191505060405180910390fd5b809150505b92915050565b6000808211611561576040517f08c379a000000000000000000000000000000000000000000000000000000000815260040180806020018281038252601a8152602001807f536166654d6174683a206469766973696f6e206279207a65726f00000000000081525060200191505060405180910390fd5b81838161156a57fe5b04905092915050565b6060824710156115ce576040517f08c379a0000000000000000000000000000000000000000000000000000000008152600401808060200182810382526026815260200180611def6026913960400191505060405180910390fd5b6115d78561171b565b611649576040517f08c379a000000000000000000000000000000000000000000000000000000000815260040180806020018281038252601d8152602001807f416464726573733a2063616c6c20746f206e6f6e2d636f6e747261637400000081525060200191505060405180910390fd5b6000808673ffffffffffffffffffffffffffffffffffffffff1685876040518082805190602001908083835b602083106116985780518252602082019150602081019050602083039250611675565b6001836020036101000a03801982511681845116808217855250505050505090500191505060006040518083038185875af1925050503d80600081146116fa576040519150601f19603f3d011682016040523d82523d6000602084013e6116ff565b606091505b509150915061170f82828661172e565b92505050949350505050565b600080823b905060008111915050919050565b6060831561173e578290506117f3565b6000835111156117515782518084602001fd5b816040517f08c379a00000000000000000000000000000000000000000000000000000000081526004018080602001828103825283818151815260200191508051906020019080838360005b838110156117b857808201518184015260208101905061179d565b50505050905090810190601f1680156117e55780820380516001836020036101000a031916815260200191505b509250505060405180910390fd5b9392505050565b60008135905061180981611da0565b92915050565b60008083601f84011261182157600080fd5b8235905067ffffffffffffffff81111561183a57600080fd5b60208301915083602082028301111561185257600080fd5b9250929050565b60008135905061186881611db7565b92915050565b60008135905061187d81611dc7565b92915050565b60008135905061189281611dd7565b92915050565b6000815190506118a781611dd7565b92915050565b600080604083850312156118c057600080fd5b60006118ce858286016117fa565b92505060206118df85828601611883565b9150509250929050565b6000806000604084860312156118fe57600080fd5b600084013567ffffffffffffffff81111561191857600080fd5b6119248682870161180f565b935093505060206119378682870161186e565b9150509250925092565b60006020828403121561195357600080fd5b600061196184828501611898565b91505092915050565b6000806040838503121561197d57600080fd5b600061198b85828601611883565b925050602061199c85828601611859565b9150509250929050565b6000806000606084860312156119bb57600080fd5b60006119c986828701611883565b93505060206119da86828701611883565b92505060406119eb86828701611859565b9150509250925092565b6119fe81611d4b565b82525050565b6000611a108385611d29565b93507f07ffffffffffffffffffffffffffffffffffffffffffffffffffffffffffffff831115611a3f57600080fd5b602083029250611a50838584611d91565b82840190509392505050565b611a6581611d5d565b82525050565b6000611a78602283611d3a565b91507f4669656c643a20536f77696e672062656c6f77206d696e206f72203020706f6460008301527f732e0000000000000000000000000000000000000000000000000000000000006020830152604082019050919050565b6000611ade601583611d3a565b91507f4669656c643a20506c6f7420697320656d7074792e00000000000000000000006000830152602082019050919050565b6000611b1e601c83611d3a565b91507f4669656c643a20506c6f74206e6f74204861727665737461626c652e000000006000830152602082019050919050565b6000611b5e602683611d3a565b91507f42616c616e63653a20496e73756666696369656e7420696e7465726e616c206260008301527f616c616e636500000000000000000000000000000000000000000000000000006020830152604082019050919050565b611bc081611d87565b82525050565b6000602082019050611bdb60008301846119f5565b92915050565b6000604082019050611bf660008301856119f5565b611c036020830184611bb7565b9392505050565b60006040820190508181036000830152611c25818587611a04565b9050611c346020830184611bb7565b949350505050565b6000602082019050611c516000830184611a5c565b92915050565b60006020820190508181036000830152611c7081611a6b565b9050919050565b60006020820190508181036000830152611c9081611ad1565b9050919050565b60006020820190508181036000830152611cb081611b11565b9050919050565b60006020820190508181036000830152611cd081611b51565b9050919050565b6000602082019050611cec6000830184611bb7565b92915050565b6000606082019050611d076000830186611bb7565b611d146020830185611bb7565b611d216040830184611bb7565b949350505050565b600082825260208201905092915050565b600082825260208201905092915050565b6000611d5682611d67565b9050919050565b6000819050919050565b600073ffffffffffffffffffffffffffffffffffffffff82169050919050565b6000819050919050565b82818337600083830152505050565b611da981611d4b565b8114611db457600080fd5b50565b60048110611dc457600080fd5b50565b60028110611dd457600080fd5b50565b611de081611d87565b8114611deb57600080fd5b5056fe416464726573733a20696e73756666696369656e742062616c616e636520666f722063616c6c536166654d6174683a206d756c7469706c69636174696f6e206f766572666c6f7753616665436173743a2076616c756520646f65736e27742066697420696e20616e20696e743235365361666545524332303a204552433230206f7065726174696f6e20646964206e6f742073756363656564a264697066735822122059a4217e882f515b9d2ce17ac042083e50f5d174c50437195bd6989f3d02813464736f6c63430007060033",
  "linkReferences": {},
  "deployedLinkReferences": {}
}