{
  "_format": "hh-sol-artifact-1",
  "contractName": "InitFundraiser",
  "sourceName": "contracts/farm/init/InitFundraiser.sol",
  "abi": [
    {
      "inputs": [
        {
          "internalType": "address",
          "name": "fundraiser",
          "type": "address"
        },
        {
          "internalType": "address",
          "name": "token",
          "type": "address"
        },
        {
          "internalType": "uint256",
          "name": "amount",
          "type": "uint256"
        }
      ],
      "name": "init",
      "outputs": [],
      "stateMutability": "nonpayable",
      "type": "function"
    }
  ],
  "bytecode": "0x608060405234801561001057600080fd5b5061022e806100206000396000f3fe608060405234801561001057600080fd5b506004361061002b5760003560e01c806386863ec614610030575b600080fd5b61004a600480360381019061004591906100ea565b61004c565b005b3073ffffffffffffffffffffffffffffffffffffffff16634b4e8d9a8484846040518463ffffffff1660e01b815260040161008993929190610157565b600060405180830381600087803b1580156100a357600080fd5b505af11580156100b7573d6000803e3d6000fd5b50505050505050565b6000813590506100cf816101ca565b92915050565b6000813590506100e4816101e1565b92915050565b6000806000606084860312156100ff57600080fd5b600061010d868287016100c0565b935050602061011e868287016100c0565b925050604061012f868287016100d5565b9150509250925092565b6101428161018e565b82525050565b610151816101c0565b82525050565b600060608201905061016c6000830186610139565b6101796020830185610139565b6101866040830184610148565b949350505050565b6000610199826101a0565b9050919050565b600073ffffffffffffffffffffffffffffffffffffffff82169050919050565b6000819050919050565b6101d38161018e565b81146101de57600080fd5b50565b6101ea816101c0565b81146101f557600080fd5b5056fea2646970667358221220f1aa34cae869732b80e33f8f23fb4972047c0591631e34246c8af4ce31acae8664736f6c63430007060033",
  "linkReferences": {},
  "deployedLinkReferences": {}
}