{
  "_format": "hh-sol-artifact-1",
  "contractName": "BeanstalkERC20",
  "sourceName": "contracts/pool/UNRIPE_LP.sol",
  "abi": [
    {
      "inputs": [
        {
          "internalType": "address",
          "name": "admin",
          "type": "address"
        },
        {
          "internalType": "string",
          "name": "name",
          "type": "string"
        },
        {
          "internalType": "string",
          "name": "symbol",
          "type": "string"
        }
      ],
      "stateMutability": "nonpayable",
      "type": "constructor"
    },
    {
      "anonymous": false,
      "inputs": [
        {
          "indexed": true,
          "internalType": "address",
          "name": "owner",
          "type": "address"
        },
        {
          "indexed": true,
          "internalType": "address",
          "name": "spender",
          "type": "address"
        },
        {
          "indexed": false,
          "internalType": "uint256",
          "name": "value",
          "type": "uint256"
        }
      ],
      "name": "Approval",
      "type": "event"
    },
    {
      "anonymous": false,
      "inputs": [
        {
          "indexed": true,
          "internalType": "bytes32",
          "name": "role",
          "type": "bytes32"
        },
        {
          "indexed": true,
          "internalType": "bytes32",
          "name": "previousAdminRole",
          "type": "bytes32"
        },
        {
          "indexed": true,
          "internalType": "bytes32",
          "name": "newAdminRole",
          "type": "bytes32"
        }
      ],
      "name": "RoleAdminChanged",
      "type": "event"
    },
    {
      "anonymous": false,
      "inputs": [
        {
          "indexed": true,
          "internalType": "bytes32",
          "name": "role",
          "type": "bytes32"
        },
        {
          "indexed": true,
          "internalType": "address",
          "name": "account",
          "type": "address"
        },
        {
          "indexed": true,
          "internalType": "address",
          "name": "sender",
          "type": "address"
        }
      ],
      "name": "RoleGranted",
      "type": "event"
    },
    {
      "anonymous": false,
      "inputs": [
        {
          "indexed": true,
          "internalType": "bytes32",
          "name": "role",
          "type": "bytes32"
        },
        {
          "indexed": true,
          "internalType": "address",
          "name": "account",
          "type": "address"
        },
        {
          "indexed": true,
          "internalType": "address",
          "name": "sender",
          "type": "address"
        }
      ],
      "name": "RoleRevoked",
      "type": "event"
    },
    {
      "anonymous": false,
      "inputs": [
        {
          "indexed": true,
          "internalType": "address",
          "name": "from",
          "type": "address"
        },
        {
          "indexed": true,
          "internalType": "address",
          "name": "to",
          "type": "address"
        },
        {
          "indexed": false,
          "internalType": "uint256",
          "name": "value",
          "type": "uint256"
        }
      ],
      "name": "Transfer",
      "type": "event"
    },
    {
      "inputs": [],
      "name": "DEFAULT_ADMIN_ROLE",
      "outputs": [
        {
          "internalType": "bytes32",
          "name": "",
          "type": "bytes32"
        }
      ],
      "stateMutability": "view",
      "type": "function"
    },
    {
      "inputs": [],
      "name": "DOMAIN_SEPARATOR",
      "outputs": [
        {
          "internalType": "bytes32",
          "name": "",
          "type": "bytes32"
        }
      ],
      "stateMutability": "view",
      "type": "function"
    },
    {
      "inputs": [],
      "name": "MINTER_ROLE",
      "outputs": [
        {
          "internalType": "bytes32",
          "name": "",
          "type": "bytes32"
        }
      ],
      "stateMutability": "view",
      "type": "function"
    },
    {
      "inputs": [
        {
          "internalType": "address",
          "name": "owner",
          "type": "address"
        },
        {
          "internalType": "address",
          "name": "spender",
          "type": "address"
        }
      ],
      "name": "allowance",
      "outputs": [
        {
          "internalType": "uint256",
          "name": "",
          "type": "uint256"
        }
      ],
      "stateMutability": "view",
      "type": "function"
    },
    {
      "inputs": [
        {
          "internalType": "address",
          "name": "spender",
          "type": "address"
        },
        {
          "internalType": "uint256",
          "name": "amount",
          "type": "uint256"
        }
      ],
      "name": "approve",
      "outputs": [
        {
          "internalType": "bool",
          "name": "",
          "type": "bool"
        }
      ],
      "stateMutability": "nonpayable",
      "type": "function"
    },
    {
      "inputs": [
        {
          "internalType": "address",
          "name": "account",
          "type": "address"
        }
      ],
      "name": "balanceOf",
      "outputs": [
        {
          "internalType": "uint256",
          "name": "",
          "type": "uint256"
        }
      ],
      "stateMutability": "view",
      "type": "function"
    },
    {
      "inputs": [
        {
          "internalType": "uint256",
          "name": "amount",
          "type": "uint256"
        }
      ],
      "name": "burn",
      "outputs": [],
      "stateMutability": "nonpayable",
      "type": "function"
    },
    {
      "inputs": [
        {
          "internalType": "address",
          "name": "account",
          "type": "address"
        },
        {
          "internalType": "uint256",
          "name": "amount",
          "type": "uint256"
        }
      ],
      "name": "burnFrom",
      "outputs": [],
      "stateMutability": "nonpayable",
      "type": "function"
    },
    {
      "inputs": [],
      "name": "decimals",
      "outputs": [
        {
          "internalType": "uint8",
          "name": "",
          "type": "uint8"
        }
      ],
      "stateMutability": "view",
      "type": "function"
    },
    {
      "inputs": [
        {
          "internalType": "address",
          "name": "spender",
          "type": "address"
        },
        {
          "internalType": "uint256",
          "name": "subtractedValue",
          "type": "uint256"
        }
      ],
      "name": "decreaseAllowance",
      "outputs": [
        {
          "internalType": "bool",
          "name": "",
          "type": "bool"
        }
      ],
      "stateMutability": "nonpayable",
      "type": "function"
    },
    {
      "inputs": [
        {
          "internalType": "bytes32",
          "name": "role",
          "type": "bytes32"
        }
      ],
      "name": "getRoleAdmin",
      "outputs": [
        {
          "internalType": "bytes32",
          "name": "",
          "type": "bytes32"
        }
      ],
      "stateMutability": "view",
      "type": "function"
    },
    {
      "inputs": [
        {
          "internalType": "bytes32",
          "name": "role",
          "type": "bytes32"
        },
        {
          "internalType": "uint256",
          "name": "index",
          "type": "uint256"
        }
      ],
      "name": "getRoleMember",
      "outputs": [
        {
          "internalType": "address",
          "name": "",
          "type": "address"
        }
      ],
      "stateMutability": "view",
      "type": "function"
    },
    {
      "inputs": [
        {
          "internalType": "bytes32",
          "name": "role",
          "type": "bytes32"
        }
      ],
      "name": "getRoleMemberCount",
      "outputs": [
        {
          "internalType": "uint256",
          "name": "",
          "type": "uint256"
        }
      ],
      "stateMutability": "view",
      "type": "function"
    },
    {
      "inputs": [
        {
          "internalType": "bytes32",
          "name": "role",
          "type": "bytes32"
        },
        {
          "internalType": "address",
          "name": "account",
          "type": "address"
        }
      ],
      "name": "grantRole",
      "outputs": [],
      "stateMutability": "nonpayable",
      "type": "function"
    },
    {
      "inputs": [
        {
          "internalType": "bytes32",
          "name": "role",
          "type": "bytes32"
        },
        {
          "internalType": "address",
          "name": "account",
          "type": "address"
        }
      ],
      "name": "hasRole",
      "outputs": [
        {
          "internalType": "bool",
          "name": "",
          "type": "bool"
        }
      ],
      "stateMutability": "view",
      "type": "function"
    },
    {
      "inputs": [
        {
          "internalType": "address",
          "name": "spender",
          "type": "address"
        },
        {
          "internalType": "uint256",
          "name": "addedValue",
          "type": "uint256"
        }
      ],
      "name": "increaseAllowance",
      "outputs": [
        {
          "internalType": "bool",
          "name": "",
          "type": "bool"
        }
      ],
      "stateMutability": "nonpayable",
      "type": "function"
    },
    {
      "inputs": [
        {
          "internalType": "address",
          "name": "to",
          "type": "address"
        },
        {
          "internalType": "uint256",
          "name": "amount",
          "type": "uint256"
        }
      ],
      "name": "mint",
      "outputs": [],
      "stateMutability": "nonpayable",
      "type": "function"
    },
    {
      "inputs": [],
      "name": "name",
      "outputs": [
        {
          "internalType": "string",
          "name": "",
          "type": "string"
        }
      ],
      "stateMutability": "view",
      "type": "function"
    },
    {
      "inputs": [
        {
          "internalType": "address",
          "name": "owner",
          "type": "address"
        }
      ],
      "name": "nonces",
      "outputs": [
        {
          "internalType": "uint256",
          "name": "",
          "type": "uint256"
        }
      ],
      "stateMutability": "view",
      "type": "function"
    },
    {
      "inputs": [
        {
          "internalType": "address",
          "name": "owner",
          "type": "address"
        },
        {
          "internalType": "address",
          "name": "spender",
          "type": "address"
        },
        {
          "internalType": "uint256",
          "name": "value",
          "type": "uint256"
        },
        {
          "internalType": "uint256",
          "name": "deadline",
          "type": "uint256"
        },
        {
          "internalType": "uint8",
          "name": "v",
          "type": "uint8"
        },
        {
          "internalType": "bytes32",
          "name": "r",
          "type": "bytes32"
        },
        {
          "internalType": "bytes32",
          "name": "s",
          "type": "bytes32"
        }
      ],
      "name": "permit",
      "outputs": [],
      "stateMutability": "nonpayable",
      "type": "function"
    },
    {
      "inputs": [
        {
          "internalType": "bytes32",
          "name": "role",
          "type": "bytes32"
        },
        {
          "internalType": "address",
          "name": "account",
          "type": "address"
        }
      ],
      "name": "renounceRole",
      "outputs": [],
      "stateMutability": "nonpayable",
      "type": "function"
    },
    {
      "inputs": [
        {
          "internalType": "bytes32",
          "name": "role",
          "type": "bytes32"
        },
        {
          "internalType": "address",
          "name": "account",
          "type": "address"
        }
      ],
      "name": "revokeRole",
      "outputs": [],
      "stateMutability": "nonpayable",
      "type": "function"
    },
    {
      "inputs": [],
      "name": "symbol",
      "outputs": [
        {
          "internalType": "string",
          "name": "",
          "type": "string"
        }
      ],
      "stateMutability": "view",
      "type": "function"
    },
    {
      "inputs": [],
      "name": "totalSupply",
      "outputs": [
        {
          "internalType": "uint256",
          "name": "",
          "type": "uint256"
        }
      ],
      "stateMutability": "view",
      "type": "function"
    },
    {
      "inputs": [
        {
          "internalType": "address",
          "name": "recipient",
          "type": "address"
        },
        {
          "internalType": "uint256",
          "name": "amount",
          "type": "uint256"
        }
      ],
      "name": "transfer",
      "outputs": [
        {
          "internalType": "bool",
          "name": "",
          "type": "bool"
        }
      ],
      "stateMutability": "nonpayable",
      "type": "function"
    },
    {
      "inputs": [
        {
          "internalType": "address",
          "name": "sender",
          "type": "address"
        },
        {
          "internalType": "address",
          "name": "recipient",
          "type": "address"
        },
        {
          "internalType": "uint256",
          "name": "amount",
          "type": "uint256"
        }
      ],
      "name": "transferFrom",
      "outputs": [
        {
          "internalType": "bool",
          "name": "",
          "type": "bool"
        }
      ],
      "stateMutability": "nonpayable",
      "type": "function"
    }
  ],
  "bytecode": "0x6101206040523480156200001257600080fd5b5060405162003120380380620031208339818101604052810190620000389190620004f4565b81806040518060400160405280600181526020017f3100000000000000000000000000000000000000000000000000000000000000815250848481600390805190602001906200008a929190620003b5565b508060049080519060200190620000a3929190620003b5565b506012600560006101000a81548160ff021916908360ff160217905550505060008280519060200120905060008280519060200120905060007f8b73c3c69bb8fe3d512ecc4cf759cc79239f7b179b0ffacaa9a75d522b39400f90508260c081815250508160e081815250506200011f6200019f60201b60201c565b60a0818152505062000139818484620001a760201b60201c565b60808181525050806101008181525050505050505050620001646000801b846200021e60201b60201c565b620001967f9f2df0fed2c77648de5860a4cc508cd0818c85b8b8a1ab4ceeef8d981c8956a6846200021e60201b60201c565b50505062000669565b600046905090565b6000838383620001bc6200019f60201b60201c565b30604051602001808681526020018581526020018481526020018381526020018273ffffffffffffffffffffffffffffffffffffffff168152602001955050505050506040516020818303038152906040528051906020012090509392505050565b6200023082826200023460201b60201c565b5050565b620002638160086000858152602001908152602001600020600001620002d860201b62000f3c1790919060201c565b15620002d457620002796200031060201b60201c565b73ffffffffffffffffffffffffffffffffffffffff168173ffffffffffffffffffffffffffffffffffffffff16837f2f8788117e7eff1d82e926ec794901d17c78024a50270940304540a733656f0d60405160405180910390a45b5050565b600062000308836000018373ffffffffffffffffffffffffffffffffffffffff1660001b6200031860201b60201c565b905092915050565b600033905090565b60006200032c83836200039260201b60201c565b620003875782600001829080600181540180825580915050600190039060005260206000200160009091909190915055826000018054905083600101600084815260200190815260200160002081905550600190506200038c565b600090505b92915050565b600080836001016000848152602001908152602001600020541415905092915050565b828054600181600116156101000203166002900490600052602060002090601f016020900481019282620003ed576000855562000439565b82601f106200040857805160ff191683800117855562000439565b8280016001018555821562000439579182015b82811115620004385782518255916020019190600101906200041b565b5b5090506200044891906200044c565b5090565b5b80821115620004675760008160009055506001016200044d565b5090565b6000620004826200047c84620005b0565b6200057c565b9050828152602081018484840111156200049b57600080fd5b620004a884828562000617565b509392505050565b600081519050620004c1816200064f565b92915050565b600082601f830112620004d957600080fd5b8151620004eb8482602086016200046b565b91505092915050565b6000806000606084860312156200050a57600080fd5b60006200051a86828701620004b0565b935050602084015167ffffffffffffffff8111156200053857600080fd5b6200054686828701620004c7565b925050604084015167ffffffffffffffff8111156200056457600080fd5b6200057286828701620004c7565b9150509250925092565b6000604051905081810181811067ffffffffffffffff82111715620005a657620005a56200064d565b5b8060405250919050565b600067ffffffffffffffff821115620005ce57620005cd6200064d565b5b601f19601f8301169050602081019050919050565b6000620005f082620005f7565b9050919050565b600073ffffffffffffffffffffffffffffffffffffffff82169050919050565b60005b83811015620006375780820151818401526020810190506200061a565b8381111562000647576000848401525b50505050565bfe5b6200065a81620005e3565b81146200066657600080fd5b50565b60805160a05160c05160e05161010051612a77620006a9600039806115d852508061161a5250806115f952508061157e5250806115ad5250612a776000f3fe608060405234801561001057600080fd5b506004361061018e5760003560e01c806379cc6790116100de578063a457c2d711610097578063d505accf11610071578063d505accf146104e3578063d5391393146104ff578063d547741f1461051d578063dd62ed3e146105395761018e565b8063a457c2d714610453578063a9059cbb14610483578063ca15c873146104b35761018e565b806379cc67901461036b5780637ecebe00146103875780639010d07c146103b757806391d14854146103e757806395d89b4114610417578063a217fddf146104355761018e565b8063313ce5671161014b578063395093511161012557806339509351146102d357806340c10f191461030357806342966c681461031f57806370a082311461033b5761018e565b8063313ce5671461027b5780633644e5151461029957806336568abe146102b75761018e565b806306fdde0314610193578063095ea7b3146101b157806318160ddd146101e157806323b872dd146101ff578063248a9ca31461022f5780632f2ff15d1461025f575b600080fd5b61019b610569565b6040516101a89190612612565b60405180910390f35b6101cb60048036038101906101c69190612316565b61060b565b6040516101d8919061257b565b60405180910390f35b6101e9610629565b6040516101f69190612694565b60405180910390f35b61021960048036038101906102149190612229565b610633565b604051610226919061257b565b60405180910390f35b61024960048036038101906102449190612352565b61070c565b6040516102569190612596565b60405180910390f35b6102796004803603810190610274919061237b565b61072c565b005b6102836107b6565b60405161029091906126af565b60405180910390f35b6102a16107bf565b6040516102ae9190612596565b60405180910390f35b6102d160048036038101906102cc919061237b565b6107ce565b005b6102ed60048036038101906102e89190612316565b610867565b6040516102fa919061257b565b60405180910390f35b61031d60048036038101906103189190612316565b61091a565b005b610339600480360381019061033491906123f3565b610998565b005b610355600480360381019061035091906121c4565b6109ac565b6040516103629190612694565b60405180910390f35b61038560048036038101906103809190612316565b6109f4565b005b6103a1600480360381019061039c91906121c4565b610a56565b6040516103ae9190612694565b60405180910390f35b6103d160048036038101906103cc91906123b7565b610aa6565b6040516103de9190612560565b60405180910390f35b61040160048036038101906103fc919061237b565b610ad8565b60405161040e919061257b565b60405180910390f35b61041f610b0a565b60405161042c9190612612565b60405180910390f35b61043d610bac565b60405161044a9190612596565b60405180910390f35b61046d60048036038101906104689190612316565b610bb3565b60405161047a919061257b565b60405180910390f35b61049d60048036038101906104989190612316565b610c80565b6040516104aa919061257b565b60405180910390f35b6104cd60048036038101906104c89190612352565b610c9e565b6040516104da9190612694565b60405180910390f35b6104fd60048036038101906104f89190612278565b610cc5565b005b610507610e07565b6040516105149190612596565b60405180910390f35b6105376004803603810190610532919061237b565b610e2b565b005b610553600480360381019061054e91906121ed565b610eb5565b6040516105609190612694565b60405180910390f35b606060038054600181600116156101000203166002900480601f0160208091040260200160405190810160405280929190818152602001828054600181600116156101000203166002900480156106015780601f106105d657610100808354040283529160200191610601565b820191906000526020600020905b8154815290600101906020018083116105e457829003601f168201915b5050505050905090565b600061061f610618610f6c565b8484610f74565b6001905092915050565b6000600254905090565b600061064084848461116b565b6107018461064c610f6c565b6106fc8560405180606001604052806028815260200161293860289139600160008b73ffffffffffffffffffffffffffffffffffffffff1673ffffffffffffffffffffffffffffffffffffffff16815260200190815260200160002060006106b2610f6c565b73ffffffffffffffffffffffffffffffffffffffff1673ffffffffffffffffffffffffffffffffffffffff1681526020019081526020016000205461142c9092919063ffffffff16565b610f74565b600190509392505050565b600060086000838152602001908152602001600020600201549050919050565b610753600860008481526020019081526020016000206002015461074e610f6c565b610ad8565b6107a8576040517f08c379a000000000000000000000000000000000000000000000000000000000815260040180806020018281038252602f81526020018061282b602f913960400191505060405180910390fd5b6107b282826114e6565b5050565b60006006905090565b60006107c961157a565b905090565b6107d6610f6c565b73ffffffffffffffffffffffffffffffffffffffff168173ffffffffffffffffffffffffffffffffffffffff1614610859576040517f08c379a000000000000000000000000000000000000000000000000000000000815260040180806020018281038252602f815260200180612a13602f913960400191505060405180910390fd5b6108638282611644565b5050565b6000610910610874610f6c565b8461090b8560016000610885610f6c565b73ffffffffffffffffffffffffffffffffffffffff1673ffffffffffffffffffffffffffffffffffffffff16815260200190815260200160002060008973ffffffffffffffffffffffffffffffffffffffff1673ffffffffffffffffffffffffffffffffffffffff168152602001908152602001600020546116d890919063ffffffff16565b610f74565b6001905092915050565b61094b7f9f2df0fed2c77648de5860a4cc508cd0818c85b8b8a1ab4ceeef8d981c8956a6610946610f6c565b610ad8565b61098a576040517f08c379a000000000000000000000000000000000000000000000000000000000815260040161098190612634565b60405180910390fd5b6109948282611760565b5050565b6109a96109a3610f6c565b82611927565b50565b60008060008373ffffffffffffffffffffffffffffffffffffffff1673ffffffffffffffffffffffffffffffffffffffff168152602001908152602001600020549050919050565b6000610a338260405180606001604052806024815260200161296060249139610a2486610a1f610f6c565b610eb5565b61142c9092919063ffffffff16565b9050610a4783610a41610f6c565b83610f74565b610a518383611927565b505050565b6000610a9f600660008473ffffffffffffffffffffffffffffffffffffffff1673ffffffffffffffffffffffffffffffffffffffff168152602001908152602001600020611aeb565b9050919050565b6000610ad08260086000868152602001908152602001600020600001611af990919063ffffffff16565b905092915050565b6000610b028260086000868152602001908152602001600020600001611b1390919063ffffffff16565b905092915050565b606060048054600181600116156101000203166002900480601f016020809104026020016040519081016040528092919081815260200182805460018160011615610100020316600290048015610ba25780601f10610b7757610100808354040283529160200191610ba2565b820191906000526020600020905b815481529060010190602001808311610b8557829003601f168201915b5050505050905090565b6000801b81565b6000610c76610bc0610f6c565b84610c71856040518060600160405280602581526020016129ee6025913960016000610bea610f6c565b73ffffffffffffffffffffffffffffffffffffffff1673ffffffffffffffffffffffffffffffffffffffff16815260200190815260200160002060008a73ffffffffffffffffffffffffffffffffffffffff1673ffffffffffffffffffffffffffffffffffffffff1681526020019081526020016000205461142c9092919063ffffffff16565b610f74565b6001905092915050565b6000610c94610c8d610f6c565b848461116b565b6001905092915050565b6000610cbe60086000848152602001908152602001600020600001611b43565b9050919050565b83421115610d08576040517f08c379a0000000000000000000000000000000000000000000000000000000008152600401610cff90612654565b60405180910390fd5b60007f6e71edae12b1b97f4d1f60370fef10105fa2faae0126114a169c64845d6126c9888888610d378c611b58565b89604051602001610d4d969594939291906125b1565b6040516020818303038152906040528051906020012090506000610d7082611bb6565b90506000610d8082878787611c1d565b90508973ffffffffffffffffffffffffffffffffffffffff168173ffffffffffffffffffffffffffffffffffffffff1614610df0576040517f08c379a0000000000000000000000000000000000000000000000000000000008152600401610de790612674565b60405180910390fd5b610dfb8a8a8a610f74565b50505050505050505050565b7f9f2df0fed2c77648de5860a4cc508cd0818c85b8b8a1ab4ceeef8d981c8956a681565b610e526008600084815260200190815260200160002060020154610e4d610f6c565b610ad8565b610ea7576040517f08c379a00000000000000000000000000000000000000000000000000000000081526004018080602001828103825260308152602001806128e66030913960400191505060405180910390fd5b610eb18282611644565b5050565b6000600160008473ffffffffffffffffffffffffffffffffffffffff1673ffffffffffffffffffffffffffffffffffffffff16815260200190815260200160002060008373ffffffffffffffffffffffffffffffffffffffff1673ffffffffffffffffffffffffffffffffffffffff16815260200190815260200160002054905092915050565b6000610f64836000018373ffffffffffffffffffffffffffffffffffffffff1660001b611e1c565b905092915050565b600033905090565b600073ffffffffffffffffffffffffffffffffffffffff168373ffffffffffffffffffffffffffffffffffffffff161415610ffa576040517f08c379a00000000000000000000000000000000000000000000000000000000081526004018080602001828103825260248152602001806129ca6024913960400191505060405180910390fd5b600073ffffffffffffffffffffffffffffffffffffffff168273ffffffffffffffffffffffffffffffffffffffff161415611080576040517f08c379a000000000000000000000000000000000000000000000000000000000815260040180806020018281038252602281526020018061287c6022913960400191505060405180910390fd5b80600160008573ffffffffffffffffffffffffffffffffffffffff1673ffffffffffffffffffffffffffffffffffffffff16815260200190815260200160002060008473ffffffffffffffffffffffffffffffffffffffff1673ffffffffffffffffffffffffffffffffffffffff168152602001908152602001600020819055508173ffffffffffffffffffffffffffffffffffffffff168373ffffffffffffffffffffffffffffffffffffffff167f8c5be1e5ebec7d5bd14f71427d1e84f3dd0314c0f7b2291e5b200ac8c7c3b925836040518082815260200191505060405180910390a3505050565b600073ffffffffffffffffffffffffffffffffffffffff168373ffffffffffffffffffffffffffffffffffffffff1614156111f1576040517f08c379a00000000000000000000000000000000000000000000000000000000081526004018080602001828103825260258152602001806129a56025913960400191505060405180910390fd5b600073ffffffffffffffffffffffffffffffffffffffff168273ffffffffffffffffffffffffffffffffffffffff161415611277576040517f08c379a00000000000000000000000000000000000000000000000000000000081526004018080602001828103825260238152602001806128086023913960400191505060405180910390fd5b611282838383611e8c565b6112ed8160405180606001604052806026815260200161289e602691396000808773ffffffffffffffffffffffffffffffffffffffff1673ffffffffffffffffffffffffffffffffffffffff1681526020019081526020016000205461142c9092919063ffffffff16565b6000808573ffffffffffffffffffffffffffffffffffffffff1673ffffffffffffffffffffffffffffffffffffffff16815260200190815260200160002081905550611380816000808573ffffffffffffffffffffffffffffffffffffffff1673ffffffffffffffffffffffffffffffffffffffff168152602001908152602001600020546116d890919063ffffffff16565b6000808473ffffffffffffffffffffffffffffffffffffffff1673ffffffffffffffffffffffffffffffffffffffff168152602001908152602001600020819055508173ffffffffffffffffffffffffffffffffffffffff168373ffffffffffffffffffffffffffffffffffffffff167fddf252ad1be2c89b69c2b068fc378daa952ba7f163c4a11628f55a4df523b3ef836040518082815260200191505060405180910390a3505050565b60008383111582906114d9576040517f08c379a00000000000000000000000000000000000000000000000000000000081526004018080602001828103825283818151815260200191508051906020019080838360005b8381101561149e578082015181840152602081019050611483565b50505050905090810190601f1680156114cb5780820380516001836020036101000a031916815260200191505b509250505060405180910390fd5b5082840390509392505050565b61150e8160086000858152602001908152602001600020600001610f3c90919063ffffffff16565b156115765761151b610f6c565b73ffffffffffffffffffffffffffffffffffffffff168173ffffffffffffffffffffffffffffffffffffffff16837f2f8788117e7eff1d82e926ec794901d17c78024a50270940304540a733656f0d60405160405180910390a45b5050565b60007f00000000000000000000000000000000000000000000000000000000000000006115a5611e91565b14156115d3577f00000000000000000000000000000000000000000000000000000000000000009050611641565b61163e7f00000000000000000000000000000000000000000000000000000000000000007f00000000000000000000000000000000000000000000000000000000000000007f0000000000000000000000000000000000000000000000000000000000000000611e99565b90505b90565b61166c8160086000858152602001908152602001600020600001611f0890919063ffffffff16565b156116d457611679610f6c565b73ffffffffffffffffffffffffffffffffffffffff168173ffffffffffffffffffffffffffffffffffffffff16837ff6391f5c32d9c69d2a47ea670b442974b53935d1edc7fd64eb21e047a839171b60405160405180910390a45b5050565b600080828401905083811015611756576040517f08c379a000000000000000000000000000000000000000000000000000000000815260040180806020018281038252601b8152602001807f536166654d6174683a206164646974696f6e206f766572666c6f77000000000081525060200191505060405180910390fd5b8091505092915050565b600073ffffffffffffffffffffffffffffffffffffffff168273ffffffffffffffffffffffffffffffffffffffff161415611803576040517f08c379a000000000000000000000000000000000000000000000000000000000815260040180806020018281038252601f8152602001807f45524332303a206d696e7420746f20746865207a65726f20616464726573730081525060200191505060405180910390fd5b61180f60008383611e8c565b611824816002546116d890919063ffffffff16565b60028190555061187b816000808573ffffffffffffffffffffffffffffffffffffffff1673ffffffffffffffffffffffffffffffffffffffff168152602001908152602001600020546116d890919063ffffffff16565b6000808473ffffffffffffffffffffffffffffffffffffffff1673ffffffffffffffffffffffffffffffffffffffff168152602001908152602001600020819055508173ffffffffffffffffffffffffffffffffffffffff16600073ffffffffffffffffffffffffffffffffffffffff167fddf252ad1be2c89b69c2b068fc378daa952ba7f163c4a11628f55a4df523b3ef836040518082815260200191505060405180910390a35050565b600073ffffffffffffffffffffffffffffffffffffffff168273ffffffffffffffffffffffffffffffffffffffff1614156119ad576040517f08c379a00000000000000000000000000000000000000000000000000000000081526004018080602001828103825260218152602001806129846021913960400191505060405180910390fd5b6119b982600083611e8c565b611a248160405180606001604052806022815260200161285a602291396000808673ffffffffffffffffffffffffffffffffffffffff1673ffffffffffffffffffffffffffffffffffffffff1681526020019081526020016000205461142c9092919063ffffffff16565b6000808473ffffffffffffffffffffffffffffffffffffffff1673ffffffffffffffffffffffffffffffffffffffff16815260200190815260200160002081905550611a7b81600254611f3890919063ffffffff16565b600281905550600073ffffffffffffffffffffffffffffffffffffffff168273ffffffffffffffffffffffffffffffffffffffff167fddf252ad1be2c89b69c2b068fc378daa952ba7f163c4a11628f55a4df523b3ef836040518082815260200191505060405180910390a35050565b600081600001549050919050565b6000611b088360000183611fbb565b60001c905092915050565b6000611b3b836000018373ffffffffffffffffffffffffffffffffffffffff1660001b61203e565b905092915050565b6000611b5182600001612061565b9050919050565b600080600660008473ffffffffffffffffffffffffffffffffffffffff1673ffffffffffffffffffffffffffffffffffffffff1681526020019081526020016000209050611ba581611aeb565b9150611bb081612072565b50919050565b6000611bc061157a565b8260405160200180807f190100000000000000000000000000000000000000000000000000000000000081525060020183815260200182815260200192505050604051602081830303815290604052805190602001209050919050565b60007f7fffffffffffffffffffffffffffffff5d576e7357a4501ddfe92f46681b20a08260001c1115611c9b576040517f08c379a00000000000000000000000000000000000000000000000000000000081526004018080602001828103825260228152602001806128c46022913960400191505060405180910390fd5b601b8460ff161480611cb05750601c8460ff16145b611d05576040517f08c379a00000000000000000000000000000000000000000000000000000000081526004018080602001828103825260228152602001806129166022913960400191505060405180910390fd5b600060018686868660405160008152602001604052604051808581526020018460ff1681526020018381526020018281526020019450505050506020604051602081039080840390855afa158015611d61573d6000803e3d6000fd5b505050602060405103519050600073ffffffffffffffffffffffffffffffffffffffff168173ffffffffffffffffffffffffffffffffffffffff161415611e10576040517f08c379a00000000000000000000000000000000000000000000000000000000081526004018080602001828103825260188152602001807f45434453413a20696e76616c6964207369676e6174757265000000000000000081525060200191505060405180910390fd5b80915050949350505050565b6000611e28838361203e565b611e81578260000182908060018154018082558091505060019003906000526020600020016000909190919091505582600001805490508360010160008481526020019081526020016000208190555060019050611e86565b600090505b92915050565b505050565b600046905090565b6000838383611ea6611e91565b30604051602001808681526020018581526020018481526020018381526020018273ffffffffffffffffffffffffffffffffffffffff168152602001955050505050506040516020818303038152906040528051906020012090509392505050565b6000611f30836000018373ffffffffffffffffffffffffffffffffffffffff1660001b612088565b905092915050565b600082821115611fb0576040517f08c379a000000000000000000000000000000000000000000000000000000000815260040180806020018281038252601e8152602001807f536166654d6174683a207375627472616374696f6e206f766572666c6f77000081525060200191505060405180910390fd5b818303905092915050565b60008183600001805490501161201c576040517f08c379a00000000000000000000000000000000000000000000000000000000081526004018080602001828103825260228152602001806127e66022913960400191505060405180910390fd5b82600001828154811061202b57fe5b9060005260206000200154905092915050565b600080836001016000848152602001908152602001600020541415905092915050565b600081600001805490509050919050565b6001816000016000828254019250508190555050565b6000808360010160008481526020019081526020016000205490506000811461216457600060018203905060006001866000018054905003905060008660000182815481106120d357fe5b90600052602060002001549050808760000184815481106120f057fe5b906000526020600020018190555060018301876001016000838152602001908152602001600020819055508660000180548061212857fe5b6001900381819060005260206000200160009055905586600101600087815260200190815260200160002060009055600194505050505061216a565b60009150505b92915050565b60008135905061217f81612789565b92915050565b600081359050612194816127a0565b92915050565b6000813590506121a9816127b7565b92915050565b6000813590506121be816127ce565b92915050565b6000602082840312156121d657600080fd5b60006121e484828501612170565b91505092915050565b6000806040838503121561220057600080fd5b600061220e85828601612170565b925050602061221f85828601612170565b9150509250929050565b60008060006060848603121561223e57600080fd5b600061224c86828701612170565b935050602061225d86828701612170565b925050604061226e8682870161219a565b9150509250925092565b600080600080600080600060e0888a03121561229357600080fd5b60006122a18a828b01612170565b97505060206122b28a828b01612170565b96505060406122c38a828b0161219a565b95505060606122d48a828b0161219a565b94505060806122e58a828b016121af565b93505060a06122f68a828b01612185565b92505060c06123078a828b01612185565b91505092959891949750929550565b6000806040838503121561232957600080fd5b600061233785828601612170565b92505060206123488582860161219a565b9150509250929050565b60006020828403121561236457600080fd5b600061237284828501612185565b91505092915050565b6000806040838503121561238e57600080fd5b600061239c85828601612185565b92505060206123ad85828601612170565b9150509250929050565b600080604083850312156123ca57600080fd5b60006123d885828601612185565b92505060206123e98582860161219a565b9150509250929050565b60006020828403121561240557600080fd5b60006124138482850161219a565b91505092915050565b612425816126e6565b82525050565b612434816126f8565b82525050565b61244381612704565b82525050565b6000612454826126ca565b61245e81856126d5565b935061246e818560208601612745565b61247781612778565b840191505092915050565b600061248f6007836126d5565b91507f214d696e746572000000000000000000000000000000000000000000000000006000830152602082019050919050565b60006124cf601d836126d5565b91507f45524332305065726d69743a206578706972656420646561646c696e650000006000830152602082019050919050565b600061250f601e836126d5565b91507f45524332305065726d69743a20696e76616c6964207369676e617475726500006000830152602082019050919050565b61254b8161272e565b82525050565b61255a81612738565b82525050565b6000602082019050612575600083018461241c565b92915050565b6000602082019050612590600083018461242b565b92915050565b60006020820190506125ab600083018461243a565b92915050565b600060c0820190506125c6600083018961243a565b6125d3602083018861241c565b6125e0604083018761241c565b6125ed6060830186612542565b6125fa6080830185612542565b61260760a0830184612542565b979650505050505050565b6000602082019050818103600083015261262c8184612449565b905092915050565b6000602082019050818103600083015261264d81612482565b9050919050565b6000602082019050818103600083015261266d816124c2565b9050919050565b6000602082019050818103600083015261268d81612502565b9050919050565b60006020820190506126a96000830184612542565b92915050565b60006020820190506126c46000830184612551565b92915050565b600081519050919050565b600082825260208201905092915050565b60006126f18261270e565b9050919050565b60008115159050919050565b6000819050919050565b600073ffffffffffffffffffffffffffffffffffffffff82169050919050565b6000819050919050565b600060ff82169050919050565b60005b83811015612763578082015181840152602081019050612748565b83811115612772576000848401525b50505050565b6000601f19601f8301169050919050565b612792816126e6565b811461279d57600080fd5b50565b6127a981612704565b81146127b457600080fd5b50565b6127c08161272e565b81146127cb57600080fd5b50565b6127d781612738565b81146127e257600080fd5b5056fe456e756d657261626c655365743a20696e646578206f7574206f6620626f756e647345524332303a207472616e7366657220746f20746865207a65726f2061646472657373416363657373436f6e74726f6c3a2073656e646572206d75737420626520616e2061646d696e20746f206772616e7445524332303a206275726e20616d6f756e7420657863656564732062616c616e636545524332303a20617070726f766520746f20746865207a65726f206164647265737345524332303a207472616e7366657220616d6f756e7420657863656564732062616c616e636545434453413a20696e76616c6964207369676e6174757265202773272076616c7565416363657373436f6e74726f6c3a2073656e646572206d75737420626520616e2061646d696e20746f207265766f6b6545434453413a20696e76616c6964207369676e6174757265202776272076616c756545524332303a207472616e7366657220616d6f756e74206578636565647320616c6c6f77616e636545524332303a206275726e20616d6f756e74206578636565647320616c6c6f77616e636545524332303a206275726e2066726f6d20746865207a65726f206164647265737345524332303a207472616e736665722066726f6d20746865207a65726f206164647265737345524332303a20617070726f76652066726f6d20746865207a65726f206164647265737345524332303a2064656372656173656420616c6c6f77616e63652062656c6f77207a65726f416363657373436f6e74726f6c3a2063616e206f6e6c792072656e6f756e636520726f6c657320666f722073656c66a26469706673582212202a0f2e29b79e17313114bd816b060eeda906abe5ec95e84761c5773936a7952c64736f6c63430007060033",
  "linkReferences": {},
  "deployedLinkReferences": {}
}