{
  "_format": "hh-sol-artifact-1",
  "contractName": "UnripeFacet",
  "sourceName": "contracts/farm/facets/UnripeFacet.sol",
  "abi": [
    {
      "anonymous": false,
      "inputs": [
        {
          "indexed": true,
          "internalType": "address",
          "name": "unripeToken",
          "type": "address"
        },
        {
          "indexed": true,
          "internalType": "address",
          "name": "underlyingToken",
          "type": "address"
        },
        {
          "indexed": false,
          "internalType": "bytes32",
          "name": "merkleRoot",
          "type": "bytes32"
        }
      ],
      "name": "AddUnripeToken",
      "type": "event"
    },
    {
      "anonymous": false,
      "inputs": [
        {
          "indexed": true,
          "internalType": "address",
          "name": "token",
          "type": "address"
        },
        {
          "indexed": false,
          "internalType": "int256",
          "name": "underlying",
          "type": "int256"
        }
      ],
      "name": "ChangeUnderlying",
      "type": "event"
    },
    {
      "anonymous": false,
      "inputs": [
        {
          "indexed": true,
          "internalType": "address",
          "name": "account",
          "type": "address"
        },
        {
          "indexed": true,
          "internalType": "address",
          "name": "token",
          "type": "address"
        },
        {
          "indexed": false,
          "internalType": "uint256",
          "name": "amount",
          "type": "uint256"
        },
        {
          "indexed": false,
          "internalType": "uint256",
          "name": "underlying",
          "type": "uint256"
        }
      ],
      "name": "Chop",
      "type": "event"
    },
    {
      "anonymous": false,
      "inputs": [
        {
          "indexed": true,
          "internalType": "address",
          "name": "account",
          "type": "address"
        },
        {
          "indexed": true,
          "internalType": "address",
          "name": "token",
          "type": "address"
        },
        {
          "indexed": false,
          "internalType": "uint256",
          "name": "amount",
          "type": "uint256"
        }
      ],
      "name": "Pick",
      "type": "event"
    },
    {
      "inputs": [
        {
          "internalType": "address",
          "name": "unripeToken",
          "type": "address"
        },
        {
          "internalType": "address",
          "name": "underlyingToken",
          "type": "address"
        },
        {
          "internalType": "bytes32",
          "name": "root",
          "type": "bytes32"
        }
      ],
      "name": "addUnripeToken",
      "outputs": [],
      "stateMutability": "payable",
      "type": "function"
    },
    {
      "inputs": [
        {
          "internalType": "address",
          "name": "unripeToken",
          "type": "address"
        },
        {
          "internalType": "address",
          "name": "account",
          "type": "address"
        }
      ],
      "name": "balanceOfPenalizedUnderlying",
      "outputs": [
        {
          "internalType": "uint256",
          "name": "underlying",
          "type": "uint256"
        }
      ],
      "stateMutability": "view",
      "type": "function"
    },
    {
      "inputs": [
        {
          "internalType": "address",
          "name": "unripeToken",
          "type": "address"
        },
        {
          "internalType": "address",
          "name": "account",
          "type": "address"
        }
      ],
      "name": "balanceOfUnderlying",
      "outputs": [
        {
          "internalType": "uint256",
          "name": "underlying",
          "type": "uint256"
        }
      ],
      "stateMutability": "view",
      "type": "function"
    },
    {
      "inputs": [
        {
          "internalType": "address",
          "name": "unripeToken",
          "type": "address"
        },
        {
          "internalType": "uint256",
          "name": "amount",
          "type": "uint256"
        },
        {
          "internalType": "enum LibTransfer.From",
          "name": "fromMode",
          "type": "uint8"
        },
        {
          "internalType": "enum LibTransfer.To",
          "name": "toMode",
          "type": "uint8"
        }
      ],
      "name": "chop",
      "outputs": [
        {
          "internalType": "uint256",
          "name": "underlyingAmount",
          "type": "uint256"
        }
      ],
      "stateMutability": "payable",
      "type": "function"
    },
    {
      "inputs": [
        {
          "internalType": "address",
          "name": "unripeToken",
          "type": "address"
        },
        {
          "internalType": "uint256",
          "name": "amount",
          "type": "uint256"
        }
      ],
      "name": "getPenalizedUnderlying",
      "outputs": [
        {
          "internalType": "uint256",
          "name": "redeem",
          "type": "uint256"
        }
      ],
      "stateMutability": "view",
      "type": "function"
    },
    {
      "inputs": [
        {
          "internalType": "address",
          "name": "unripeToken",
          "type": "address"
        }
      ],
      "name": "getPenalty",
      "outputs": [
        {
          "internalType": "uint256",
          "name": "penalty",
          "type": "uint256"
        }
      ],
      "stateMutability": "view",
      "type": "function"
    },
    {
      "inputs": [
        {
          "internalType": "address",
          "name": "unripeToken",
          "type": "address"
        }
      ],
      "name": "getPercentPenalty",
      "outputs": [
        {
          "internalType": "uint256",
          "name": "penalty",
          "type": "uint256"
        }
      ],
      "stateMutability": "view",
      "type": "function"
    },
    {
      "inputs": [
        {
          "internalType": "address",
          "name": "unripeToken",
          "type": "address"
        }
      ],
      "name": "getRecapFundedPercent",
      "outputs": [
        {
          "internalType": "uint256",
          "name": "percent",
          "type": "uint256"
        }
      ],
      "stateMutability": "view",
      "type": "function"
    },
    {
      "inputs": [],
      "name": "getRecapPaidPercent",
      "outputs": [
        {
          "internalType": "uint256",
          "name": "penalty",
          "type": "uint256"
        }
      ],
      "stateMutability": "view",
      "type": "function"
    },
    {
      "inputs": [
        {
          "internalType": "address",
          "name": "unripeToken",
          "type": "address"
        }
      ],
      "name": "getTotalUnderlying",
      "outputs": [
        {
          "internalType": "uint256",
          "name": "underlying",
          "type": "uint256"
        }
      ],
      "stateMutability": "view",
      "type": "function"
    },
    {
      "inputs": [
        {
          "internalType": "address",
          "name": "unripeToken",
          "type": "address"
        },
        {
          "internalType": "uint256",
          "name": "amount",
          "type": "uint256"
        }
      ],
      "name": "getUnderlying",
      "outputs": [
        {
          "internalType": "uint256",
          "name": "redeem",
          "type": "uint256"
        }
      ],
      "stateMutability": "view",
      "type": "function"
    },
    {
      "inputs": [
        {
          "internalType": "address",
          "name": "unripeToken",
          "type": "address"
        }
      ],
      "name": "getUnderlyingPerUnripeToken",
      "outputs": [
        {
          "internalType": "uint256",
          "name": "underlyingPerToken",
          "type": "uint256"
        }
      ],
      "stateMutability": "view",
      "type": "function"
    },
    {
      "inputs": [
        {
          "internalType": "address",
          "name": "unripeToken",
          "type": "address"
        }
      ],
      "name": "getUnderlyingToken",
      "outputs": [
        {
          "internalType": "address",
          "name": "underlyingToken",
          "type": "address"
        }
      ],
      "stateMutability": "view",
      "type": "function"
    },
    {
      "inputs": [
        {
          "internalType": "address",
          "name": "unripeToken",
          "type": "address"
        }
      ],
      "name": "isUnripe",
      "outputs": [
        {
          "internalType": "bool",
          "name": "unripe",
          "type": "bool"
        }
      ],
      "stateMutability": "view",
      "type": "function"
    },
    {
      "inputs": [
        {
          "internalType": "address",
          "name": "token",
          "type": "address"
        },
        {
          "internalType": "uint256",
          "name": "amount",
          "type": "uint256"
        },
        {
          "internalType": "bytes32[]",
          "name": "proof",
          "type": "bytes32[]"
        },
        {
          "internalType": "enum LibTransfer.To",
          "name": "mode",
          "type": "uint8"
        }
      ],
      "name": "pick",
      "outputs": [],
      "stateMutability": "payable",
      "type": "function"
    },
    {
      "inputs": [
        {
          "internalType": "address",
          "name": "account",
          "type": "address"
        },
        {
          "internalType": "address",
          "name": "token",
          "type": "address"
        }
      ],
      "name": "picked",
      "outputs": [
        {
          "internalType": "bool",
          "name": "",
          "type": "bool"
        }
      ],
      "stateMutability": "view",
      "type": "function"
    }
  ],
  "bytecode": "0x608060405234801561001057600080fd5b50612d64806100206000396000f3fe6080604052600436106100f35760003560e01c80639f06b3fa1161008a578063bb7de47811610059578063bb7de47814610394578063d3c73ec8146103d1578063fa3455691461040e578063fc6a19df1461042a576100f3565b80639f06b3fa146102b2578063ab434eb7146102ef578063adef45331461031a578063b8a04d1b14610357576100f3565b806343cc4ee0116100c657806343cc4ee0146101cb578063691bcc88146102085780636de45df2146102455780639a516cad14610282576100f3565b8063014a8a49146100f857806313ed3cea146101355780631acc0a47146101515780631be655e81461018e575b600080fd5b34801561010457600080fd5b5061011f600480360381019061011a91906124b6565b610467565b60405161012c9190612ad3565b60405180910390f35b61014f600480360381019061014a91906125a6565b61047d565b005b34801561015d57600080fd5b50610178600480360381019061017391906124df565b61073d565b6040516101859190612ad3565b60405180910390f35b34801561019a57600080fd5b506101b560048036038101906101b091906124df565b6107d9565b6040516101c29190612ad3565b60405180910390f35b3480156101d757600080fd5b506101f260048036038101906101ed91906124b6565b610875565b6040516101ff9190612ad3565b60405180910390f35b34801561021457600080fd5b5061022f600480360381019061022a91906124b6565b61094b565b60405161023c919061295e565b60405180910390f35b34801561025157600080fd5b5061026c6004803603810190610267919061256a565b6109b9565b6040516102799190612ad3565b60405180910390f35b61029c60048036038101906102979190612621565b610a23565b6040516102a99190612ad3565b60405180910390f35b3480156102be57600080fd5b506102d960048036038101906102d4919061256a565b610bad565b6040516102e69190612ad3565b60405180910390f35b3480156102fb57600080fd5b50610304610c9e565b6040516103119190612ad3565b60405180910390f35b34801561032657600080fd5b50610341600480360381019061033c91906124b6565b610cb1565b60405161034e9190612ad3565b60405180910390f35b34801561036357600080fd5b5061037e600480360381019061037991906124b6565b610cff565b60405161038b9190612ad3565b60405180910390f35b3480156103a057600080fd5b506103bb60048036038101906103b691906124b6565b610df2565b6040516103c89190612ad3565b60405180910390f35b3480156103dd57600080fd5b506103f860048036038101906103f391906124df565b610e0c565b60405161040591906129a2565b60405180910390f35b6104286004803603810190610423919061251b565b610ea2565b005b34801561043657600080fd5b50610451600480360381019061044c91906124b6565b611041565b60405161045e91906129a2565b60405180910390f35b600061047682620f42406109b9565b9050919050565b60026000601e015414156104c6576040517f08c379a00000000000000000000000000000000000000000000000000000000081526004016104bd90612ab3565b60405180910390fd5b60026000601e018190555060008060400160008673ffffffffffffffffffffffffffffffffffffffff1673ffffffffffffffffffffffffffffffffffffffff1681526020019081526020016000206002015490506000801b811415610560576040517f08c379a000000000000000000000000000000000000000000000000000000000815260040161055790612a93565b60405180910390fd5b61056a3386610e0c565b156105aa576040517f08c379a00000000000000000000000000000000000000000000000000000000081526004016105a190612a13565b60405180910390fd5b600033856040516020016105bf929190612932565b6040516020818303038152906040528051906020012090506105e28483836110df565b610621576040517f08c379a000000000000000000000000000000000000000000000000000000000815260040161061890612a53565b60405180910390fd5b60016000603f0160008873ffffffffffffffffffffffffffffffffffffffff1673ffffffffffffffffffffffffffffffffffffffff16815260200190815260200160002060003373ffffffffffffffffffffffffffffffffffffffff1673ffffffffffffffffffffffffffffffffffffffff16815260200190815260200160002060006101000a81548160ff0219169083151502179055506106c586863386611194565b8573ffffffffffffffffffffffffffffffffffffffff163373ffffffffffffffffffffffffffffffffffffffff167fdc6e80374e6b4cbb90273b4695905da8b544ee27396217c184d3366aaffb2d5d876040516107229190612ad3565b60405180910390a3505060016000601e018190555050505050565b60006107d1838473ffffffffffffffffffffffffffffffffffffffff166370a08231856040518263ffffffff1660e01b815260040161077c919061295e565b60206040518083038186803b15801561079457600080fd5b505afa1580156107a8573d6000803e3d6000fd5b505050506040513d601f19601f820116820180604052508101906107cc9190612684565b6109b9565b905092915050565b600061086d838473ffffffffffffffffffffffffffffffffffffffff166370a08231856040518263ffffffff1660e01b8152600401610818919061295e565b60206040518083038186803b15801561083057600080fd5b505afa158015610844573d6000803e3d6000fd5b505050506040513d601f19601f820116820180604052508101906108689190612684565b610bad565b905092915050565b600061087f611203565b73ffffffffffffffffffffffffffffffffffffffff168273ffffffffffffffffffffffffffffffffffffffff1614156108c1576108ba61121f565b9050610946565b6108c9611329565b73ffffffffffffffffffffffffffffffffffffffff168273ffffffffffffffffffffffffffffffffffffffff16141561090b57610904611345565b9050610946565b6040517f08c379a000000000000000000000000000000000000000000000000000000000815260040161093d90612a33565b60405180910390fd5b919050565b60008060400160008373ffffffffffffffffffffffffffffffffffffffff1673ffffffffffffffffffffffffffffffffffffffff16815260200190815260200160002060000160009054906101000a900473ffffffffffffffffffffffffffffffffffffffff169050919050565b60006109c483611041565b610a03576040517f08c379a00000000000000000000000000000000000000000000000000000000081526004016109fa90612a33565b60405180910390fd5b6000610a0e8361140c565b9050610a1a8482610bad565b91505092915050565b600060026000601e01541415610a6e576040517f08c379a0000000000000000000000000000000000000000000000000000000008152600401610a6590612ab3565b60405180910390fd5b60026000601e0181905550610a8385856109b9565b9050610a8f8582611444565b610a9b85853386611545565b5060008060400160008773ffffffffffffffffffffffffffffffffffffffff1673ffffffffffffffffffffffffffffffffffffffff16815260200190815260200160002060000160009054906101000a900473ffffffffffffffffffffffffffffffffffffffff169050610b328233858473ffffffffffffffffffffffffffffffffffffffff16611194909392919063ffffffff16565b8573ffffffffffffffffffffffffffffffffffffffff163373ffffffffffffffffffffffffffffffffffffffff167fbfce502c8876f12c944f30c1601a8778f8e2f12dde13a70487d6c3baff9adb588785604051610b91929190612aee565b60405180910390a35060016000601e0181905550949350505050565b6000610c968373ffffffffffffffffffffffffffffffffffffffff166318160ddd6040518163ffffffff1660e01b815260040160206040518083038186803b158015610bf857600080fd5b505afa158015610c0c573d6000803e3d6000fd5b505050506040513d601f19601f82011682018060405250810190610c309190612684565b610c8884600060400160008873ffffffffffffffffffffffffffffffffffffffff1673ffffffffffffffffffffffffffffffffffffffff1681526020019081526020016000206001015461165c90919063ffffffff16565b6116e290919063ffffffff16565b905092915050565b6000610cac620f424061140c565b905090565b60008060400160008373ffffffffffffffffffffffffffffffffffffffff1673ffffffffffffffffffffffffffffffffffffffff168152602001908152602001600020600101549050919050565b6000610deb8273ffffffffffffffffffffffffffffffffffffffff166318160ddd6040518163ffffffff1660e01b815260040160206040518083038186803b158015610d4a57600080fd5b505afa158015610d5e573d6000803e3d6000fd5b505050506040513d601f19601f82011682018060405250810190610d829190612684565b610ddd620f4240600060400160008773ffffffffffffffffffffffffffffffffffffffff1673ffffffffffffffffffffffffffffffffffffffff1681526020019081526020016000206001015461165c90919063ffffffff16565b6116e290919063ffffffff16565b9050919050565b6000610e05610e0083610875565b61140c565b9050919050565b600080603f0160008373ffffffffffffffffffffffffffffffffffffffff1673ffffffffffffffffffffffffffffffffffffffff16815260200190815260200160002060008473ffffffffffffffffffffffffffffffffffffffff1673ffffffffffffffffffffffffffffffffffffffff16815260200190815260200160002060009054906101000a900460ff16905092915050565b60026000601e01541415610eeb576040517f08c379a0000000000000000000000000000000000000000000000000000000008152600401610ee290612ab3565b60405180910390fd5b60026000601e0181905550610efe61176b565b81600060400160008573ffffffffffffffffffffffffffffffffffffffff1673ffffffffffffffffffffffffffffffffffffffff16815260200190815260200160002060000160006101000a81548173ffffffffffffffffffffffffffffffffffffffff021916908373ffffffffffffffffffffffffffffffffffffffff16021790555080600060400160008573ffffffffffffffffffffffffffffffffffffffff1673ffffffffffffffffffffffffffffffffffffffff168152602001908152602001600020600201819055508173ffffffffffffffffffffffffffffffffffffffff168373ffffffffffffffffffffffffffffffffffffffff167f9e4bbdd426652b910b64cc7b9607bf5abc4dcb37f44e6a0ba7d15ef2d10412058360405161102991906129bd565b60405180910390a360016000601e0181905550505050565b60008073ffffffffffffffffffffffffffffffffffffffff16600060400160008473ffffffffffffffffffffffffffffffffffffffff1673ffffffffffffffffffffffffffffffffffffffff16815260200190815260200160002060000160009054906101000a900473ffffffffffffffffffffffffffffffffffffffff1673ffffffffffffffffffffffffffffffffffffffff1614159050919050565b60008082905060005b85518110156111865760008682815181106110ff57fe5b602002602001015190508083116111465782816040516020018083815260200182815260200192505050604051602081830303815290604052805190602001209250611178565b808360405160200180838152602001828152602001925050506040516020818303038152906040528051906020012092505b5080806001019150506110e8565b508381149150509392505050565b60008314156111a2576111fd565b6001808111156111ae57fe5b8160018111156111ba57fe5b14156111d0576111cb82858561183c565b6111fc565b6111fb82848673ffffffffffffffffffffffffffffffffffffffff1661187c9092919063ffffffff16565b5b5b50505050565b6000731bea0050e63e05fbb5d8ba2f10cf5800b6224449905090565b60008061122a61191e565b9050611323611237611923565b73ffffffffffffffffffffffffffffffffffffffff166318160ddd6040518163ffffffff1660e01b815260040160206040518083038186803b15801561127c57600080fd5b505afa158015611290573d6000803e3d6000fd5b505050506040513d601f19601f820116820180604052508101906112b49190612684565b611315620f42408460400160006112c9611203565b73ffffffffffffffffffffffffffffffffffffffff1673ffffffffffffffffffffffffffffffffffffffff1681526020019081526020016000206001015461165c90919063ffffffff16565b6116e290919063ffffffff16565b91505090565b6000731bea3ccd22f4ebd3d37d731ba31eeca95713716d905090565b60008061135061191e565b905061140661135d61193f565b73ffffffffffffffffffffffffffffffffffffffff166318160ddd6040518163ffffffff1660e01b815260040160206040518083038186803b1580156113a257600080fd5b505afa1580156113b6573d6000803e3d6000fd5b505050506040513d601f19601f820116820180604052508101906113da9190612684565b6113f883604801546113ea61195b565b61165c90919063ffffffff16565b6116e290919063ffffffff16565b91505090565b600061143d60006045015461142f8460006044015461165c90919063ffffffff16565b6116e290919063ffffffff16565b9050919050565b600061144e61191e565b90506114a7828260400160008673ffffffffffffffffffffffffffffffffffffffff1673ffffffffffffffffffffffffffffffffffffffff1681526020019081526020016000206001015461196690919063ffffffff16565b8160400160008573ffffffffffffffffffffffffffffffffffffffff1673ffffffffffffffffffffffffffffffffffffffff168152602001908152602001600020600101819055508273ffffffffffffffffffffffffffffffffffffffff167f034be0cb985c00ed623355853288b175a6c0bd25ed03d64e9895ccec774af9e78360000360405161153891906129d8565b60405180910390a2505050565b600080600381111561155357fe5b82600381111561155f57fe5b14156115da578473ffffffffffffffffffffffffffffffffffffffff166379cc679084866040518363ffffffff1660e01b81526004016115a0929190612979565b600060405180830381600087803b1580156115ba57600080fd5b505af11580156115ce573d6000803e3d6000fd5b50505050839050611654565b6115e6858585856119e9565b90508473ffffffffffffffffffffffffffffffffffffffff166342966c68826040518263ffffffff1660e01b81526004016116219190612ad3565b600060405180830381600087803b15801561163b57600080fd5b505af115801561164f573d6000803e3d6000fd5b505050505b949350505050565b60008083141561166f57600090506116dc565b600082840290508284828161168057fe5b04146116d7576040517f08c379a0000000000000000000000000000000000000000000000000000000008152600401808060200182810382526021815260200180612cbc6021913960400191505060405180910390fd5b809150505b92915050565b6000808211611759576040517f08c379a000000000000000000000000000000000000000000000000000000000815260040180806020018281038252601a8152602001807f536166654d6174683a206469766973696f6e206279207a65726f00000000000081525060200191505060405180910390fd5b81838161176257fe5b04905092915050565b611773611be5565b60040160009054906101000a900473ffffffffffffffffffffffffffffffffffffffff1673ffffffffffffffffffffffffffffffffffffffff163373ffffffffffffffffffffffffffffffffffffffff1614806117fb57503073ffffffffffffffffffffffffffffffffffffffff163373ffffffffffffffffffffffffffffffffffffffff16145b61183a576040517f08c379a000000000000000000000000000000000000000000000000000000000815260040161183190612a73565b60405180910390fd5b565b60006118488484611c12565b9050600061185f8383611ca790919063ffffffff16565b905061187585858361187087611d2f565b611db1565b5050505050565b6119198363a9059cbb60e01b8484604051602401808373ffffffffffffffffffffffffffffffffffffffff16815260200182815260200192505050604051602081830303815290604052907bffffffffffffffffffffffffffffffffffffffffffffffffffffffff19166020820180517bffffffffffffffffffffffffffffffffffffffffffffffffffffffff8381831617835250505050611eac565b505050565b600090565b6000731bea0050e63e05fbb5d8ba2f10cf5800b6224449905090565b6000731bea3ccd22f4ebd3d37d731ba31eeca95713716d905090565b6000621cc1b0905090565b6000828211156119de576040517f08c379a000000000000000000000000000000000000000000000000000000000815260040180806020018281038252601e8152602001807f536166654d6174683a207375627472616374696f6e206f766572666c6f77000081525060200191505060405180910390fd5b818303905092915050565b6000808414156119fc5760009050611bdd565b60006003811115611a0957fe5b826003811115611a1557fe5b14611a7057611a4083868660016003811115611a2d57fe5b866003811115611a3957fe5b1415611f9b565b905080841480611a655750600380811115611a5757fe5b826003811115611a6357fe5b145b15611a6f57611bdd565b5b60008573ffffffffffffffffffffffffffffffffffffffff166370a08231306040518263ffffffff1660e01b8152600401611aab919061295e565b60206040518083038186803b158015611ac357600080fd5b505afa158015611ad7573d6000803e3d6000fd5b505050506040513d601f19601f82011682018060405250810190611afb9190612684565b9050611b2c84308488038973ffffffffffffffffffffffffffffffffffffffff16612029909392919063ffffffff16565b611bd9611bca828873ffffffffffffffffffffffffffffffffffffffff166370a08231306040518263ffffffff1660e01b8152600401611b6c919061295e565b60206040518083038186803b158015611b8457600080fd5b505afa158015611b98573d6000803e3d6000fd5b505050506040513d601f19601f82011682018060405250810190611bbc9190612684565b61196690919063ffffffff16565b83611ca790919063ffffffff16565b9150505b949350505050565b6000807fc8fcad8db84d3cc18b4c41d551ea0ee66dd599cde068d998e57d5e09332c131c90508091505090565b600080611c1d61191e565b905080603e0160008573ffffffffffffffffffffffffffffffffffffffff1673ffffffffffffffffffffffffffffffffffffffff16815260200190815260200160002060008473ffffffffffffffffffffffffffffffffffffffff1673ffffffffffffffffffffffffffffffffffffffff1681526020019081526020016000205491505092915050565b600080828401905083811015611d25576040517f08c379a000000000000000000000000000000000000000000000000000000000815260040180806020018281038252601b8152602001807f536166654d6174683a206164646974696f6e206f766572666c6f77000000000081525060200191505060405180910390fd5b8091505092915050565b60007f80000000000000000000000000000000000000000000000000000000000000008210611da9576040517f08c379a0000000000000000000000000000000000000000000000000000000008152600401808060200182810382526028815260200180612cdd6028913960400191505060405180910390fd5b819050919050565b6000611dbb61191e565b90508281603e0160008773ffffffffffffffffffffffffffffffffffffffff1673ffffffffffffffffffffffffffffffffffffffff16815260200190815260200160002060008673ffffffffffffffffffffffffffffffffffffffff1673ffffffffffffffffffffffffffffffffffffffff168152602001908152602001600020819055508373ffffffffffffffffffffffffffffffffffffffff168573ffffffffffffffffffffffffffffffffffffffff167f18e1ea4139e68413d7d08aa752e71568e36b2c5bf940893314c2c5b01eaa0c4284604051611e9d91906129d8565b60405180910390a35050505050565b6000611f0e826040518060400160405280602081526020017f5361666545524332303a206c6f772d6c6576656c2063616c6c206661696c65648152508573ffffffffffffffffffffffffffffffffffffffff166120ea9092919063ffffffff16565b9050600081511115611f9657808060200190516020811015611f2f57600080fd5b8101908080519060200190929190505050611f95576040517f08c379a000000000000000000000000000000000000000000000000000000000815260040180806020018281038252602a815260200180612d05602a913960400191505060405180910390fd5b5b505050565b600080611fa88686611c12565b90508280611fb65750838110155b611ff5576040517f08c379a0000000000000000000000000000000000000000000000000000000008152600401611fec906129f3565b60405180910390fd5b611fff8185612102565b91506000828203905061201f87878361201787611d2f565b600003611db1565b5050949350505050565b6120e4846323b872dd60e01b858585604051602401808473ffffffffffffffffffffffffffffffffffffffff1681526020018373ffffffffffffffffffffffffffffffffffffffff1681526020018281526020019350505050604051602081830303815290604052907bffffffffffffffffffffffffffffffffffffffffffffffffffffffff19166020820180517bffffffffffffffffffffffffffffffffffffffffffffffffffffffff8381831617835250505050611eac565b50505050565b60606120f9848460008561211b565b90509392505050565b60008183106121115781612113565b825b905092915050565b606082471015612176576040517f08c379a0000000000000000000000000000000000000000000000000000000008152600401808060200182810382526026815260200180612c966026913960400191505060405180910390fd5b61217f856122c3565b6121f1576040517f08c379a000000000000000000000000000000000000000000000000000000000815260040180806020018281038252601d8152602001807f416464726573733a2063616c6c20746f206e6f6e2d636f6e747261637400000081525060200191505060405180910390fd5b6000808673ffffffffffffffffffffffffffffffffffffffff1685876040518082805190602001908083835b60208310612240578051825260208201915060208101905060208303925061221d565b6001836020036101000a03801982511681845116808217855250505050505090500191505060006040518083038185875af1925050503d80600081146122a2576040519150601f19603f3d011682016040523d82523d6000602084013e6122a7565b606091505b50915091506122b78282866122d6565b92505050949350505050565b600080823b905060008111915050919050565b606083156122e65782905061239b565b6000835111156122f95782518084602001fd5b816040517f08c379a00000000000000000000000000000000000000000000000000000000081526004018080602001828103825283818151815260200191508051906020019080838360005b83811015612360578082015181840152602081019050612345565b50505050905090810190601f16801561238d5780820380516001836020036101000a031916815260200191505b509250505060405180910390fd5b9392505050565b60006123b56123b084612b48565b612b17565b905080838252602082019050828560208602820111156123d457600080fd5b60005b8581101561240457816123ea888261244d565b8452602084019350602083019250506001810190506123d7565b5050509392505050565b60008135905061241d81612c30565b92915050565b600082601f83011261243457600080fd5b81356124448482602086016123a2565b91505092915050565b60008135905061245c81612c47565b92915050565b60008135905061247181612c5e565b92915050565b60008135905061248681612c6e565b92915050565b60008135905061249b81612c7e565b92915050565b6000815190506124b081612c7e565b92915050565b6000602082840312156124c857600080fd5b60006124d68482850161240e565b91505092915050565b600080604083850312156124f257600080fd5b60006125008582860161240e565b92505060206125118582860161240e565b9150509250929050565b60008060006060848603121561253057600080fd5b600061253e8682870161240e565b935050602061254f8682870161240e565b92505060406125608682870161244d565b9150509250925092565b6000806040838503121561257d57600080fd5b600061258b8582860161240e565b925050602061259c8582860161248c565b9150509250929050565b600080600080608085870312156125bc57600080fd5b60006125ca8782880161240e565b94505060206125db8782880161248c565b935050604085013567ffffffffffffffff8111156125f857600080fd5b61260487828801612423565b925050606061261587828801612477565b91505092959194509250565b6000806000806080858703121561263757600080fd5b60006126458782880161240e565b94505060206126568782880161248c565b935050604061266787828801612462565b925050606061267887828801612477565b91505092959194509250565b60006020828403121561269657600080fd5b60006126a4848285016124a1565b91505092915050565b6126be6126b982612b97565b612bf3565b82525050565b6126cd81612b85565b82525050565b6126dc81612ba9565b82525050565b6126eb81612bb5565b82525050565b6126fa81612bbf565b82525050565b600061270d602683612b74565b91507f42616c616e63653a20496e73756666696369656e7420696e7465726e616c206260008301527f616c616e636500000000000000000000000000000000000000000000000000006020830152604082019050919050565b6000612773601b83612b74565b91507f556e72697065436c61696d3a20616c7265616479207069636b656400000000006000830152602082019050919050565b60006127b3600b83612b74565b91507f6e6f742076657374696e670000000000000000000000000000000000000000006000830152602082019050919050565b60006127f3601a83612b74565b91507f556e72697065436c61696d3a20696e76616c69642070726f6f660000000000006000830152602082019050919050565b6000612833602583612b74565b91507f4c69624469616d6f6e643a204d75737420626520636f6e7472616374206f722060008301527f6f776e65720000000000000000000000000000000000000000000000000000006020830152604082019050919050565b6000612899601a83612b74565b91507f556e72697065436c61696d3a20696e76616c696420746f6b656e0000000000006000830152602082019050919050565b60006128d9601f83612b74565b91507f5265656e7472616e637947756172643a207265656e7472616e742063616c6c006000830152602082019050919050565b61291581612be9565b82525050565b61292c61292782612be9565b612c17565b82525050565b600061293e82856126ad565b60148201915061294e828461291b565b6020820191508190509392505050565b600060208201905061297360008301846126c4565b92915050565b600060408201905061298e60008301856126c4565b61299b602083018461290c565b9392505050565b60006020820190506129b760008301846126d3565b92915050565b60006020820190506129d260008301846126e2565b92915050565b60006020820190506129ed60008301846126f1565b92915050565b60006020820190508181036000830152612a0c81612700565b9050919050565b60006020820190508181036000830152612a2c81612766565b9050919050565b60006020820190508181036000830152612a4c816127a6565b9050919050565b60006020820190508181036000830152612a6c816127e6565b9050919050565b60006020820190508181036000830152612a8c81612826565b9050919050565b60006020820190508181036000830152612aac8161288c565b9050919050565b60006020820190508181036000830152612acc816128cc565b9050919050565b6000602082019050612ae8600083018461290c565b92915050565b6000604082019050612b03600083018561290c565b612b10602083018461290c565b9392505050565b6000604051905081810181811067ffffffffffffffff82111715612b3e57612b3d612c21565b5b8060405250919050565b600067ffffffffffffffff821115612b6357612b62612c21565b5b602082029050602081019050919050565b600082825260208201905092915050565b6000612b9082612bc9565b9050919050565b6000612ba282612bc9565b9050919050565b60008115159050919050565b6000819050919050565b6000819050919050565b600073ffffffffffffffffffffffffffffffffffffffff82169050919050565b6000819050919050565b6000612bfe82612c05565b9050919050565b6000612c1082612c23565b9050919050565b6000819050919050565bfe5b60008160601b9050919050565b612c3981612b85565b8114612c4457600080fd5b50565b612c5081612bb5565b8114612c5b57600080fd5b50565b60048110612c6b57600080fd5b50565b60028110612c7b57600080fd5b50565b612c8781612be9565b8114612c9257600080fd5b5056fe416464726573733a20696e73756666696369656e742062616c616e636520666f722063616c6c536166654d6174683a206d756c7469706c69636174696f6e206f766572666c6f7753616665436173743a2076616c756520646f65736e27742066697420696e20616e20696e743235365361666545524332303a204552433230206f7065726174696f6e20646964206e6f742073756363656564a26469706673582212208fae0d872373585a9edb16d01010325e5cababaa31e6b4e42565c8611b56ed7064736f6c63430007060033",
  "linkReferences": {},
  "deployedLinkReferences": {}
}