{
  "_format": "hh-sol-artifact-1",
  "contractName": "Fertilizer",
  "sourceName": "contracts/pool/Fertilizer.sol",
  "abi": [
    {
      "anonymous": false,
      "inputs": [
        {
          "indexed": true,
          "internalType": "address",
          "name": "account",
          "type": "address"
        },
        {
          "indexed": true,
          "internalType": "address",
          "name": "operator",
          "type": "address"
        },
        {
          "indexed": false,
          "internalType": "bool",
          "name": "approved",
          "type": "bool"
        }
      ],
      "name": "ApprovalForAll",
      "type": "event"
    },
    {
      "anonymous": false,
      "inputs": [
        {
          "indexed": false,
          "internalType": "uint256[]",
          "name": "ids",
          "type": "uint256[]"
        },
        {
          "indexed": false,
          "internalType": "uint256",
          "name": "beans",
          "type": "uint256"
        }
      ],
      "name": "ClaimFertilizer",
      "type": "event"
    },
    {
      "anonymous": false,
      "inputs": [
        {
          "indexed": true,
          "internalType": "address",
          "name": "previousOwner",
          "type": "address"
        },
        {
          "indexed": true,
          "internalType": "address",
          "name": "newOwner",
          "type": "address"
        }
      ],
      "name": "OwnershipTransferred",
      "type": "event"
    },
    {
      "anonymous": false,
      "inputs": [
        {
          "indexed": true,
          "internalType": "address",
          "name": "operator",
          "type": "address"
        },
        {
          "indexed": true,
          "internalType": "address",
          "name": "from",
          "type": "address"
        },
        {
          "indexed": true,
          "internalType": "address",
          "name": "to",
          "type": "address"
        },
        {
          "indexed": false,
          "internalType": "uint256[]",
          "name": "ids",
          "type": "uint256[]"
        },
        {
          "indexed": false,
          "internalType": "uint256[]",
          "name": "values",
          "type": "uint256[]"
        }
      ],
      "name": "TransferBatch",
      "type": "event"
    },
    {
      "anonymous": false,
      "inputs": [
        {
          "indexed": true,
          "internalType": "address",
          "name": "operator",
          "type": "address"
        },
        {
          "indexed": true,
          "internalType": "address",
          "name": "from",
          "type": "address"
        },
        {
          "indexed": true,
          "internalType": "address",
          "name": "to",
          "type": "address"
        },
        {
          "indexed": false,
          "internalType": "uint256",
          "name": "id",
          "type": "uint256"
        },
        {
          "indexed": false,
          "internalType": "uint256",
          "name": "value",
          "type": "uint256"
        }
      ],
      "name": "TransferSingle",
      "type": "event"
    },
    {
      "anonymous": false,
      "inputs": [
        {
          "indexed": false,
          "internalType": "string",
          "name": "value",
          "type": "string"
        },
        {
          "indexed": true,
          "internalType": "uint256",
          "name": "id",
          "type": "uint256"
        }
      ],
      "name": "URI",
      "type": "event"
    },
    {
      "inputs": [
        {
          "internalType": "address",
          "name": "account",
          "type": "address"
        },
        {
          "internalType": "uint256",
          "name": "id",
          "type": "uint256"
        }
      ],
      "name": "balanceOf",
      "outputs": [
        {
          "internalType": "uint256",
          "name": "",
          "type": "uint256"
        }
      ],
      "stateMutability": "view",
      "type": "function"
    },
    {
      "inputs": [
        {
          "internalType": "address[]",
          "name": "accounts",
          "type": "address[]"
        },
        {
          "internalType": "uint256[]",
          "name": "ids",
          "type": "uint256[]"
        }
      ],
      "name": "balanceOfBatch",
      "outputs": [
        {
          "internalType": "uint256[]",
          "name": "",
          "type": "uint256[]"
        }
      ],
      "stateMutability": "view",
      "type": "function"
    },
    {
      "inputs": [
        {
          "internalType": "address",
          "name": "account",
          "type": "address"
        },
        {
          "internalType": "uint256[]",
          "name": "ids",
          "type": "uint256[]"
        }
      ],
      "name": "balanceOfFertilized",
      "outputs": [
        {
          "internalType": "uint256",
          "name": "beans",
          "type": "uint256"
        }
      ],
      "stateMutability": "view",
      "type": "function"
    },
    {
      "inputs": [
        {
          "internalType": "address",
          "name": "account",
          "type": "address"
        },
        {
          "internalType": "uint256[]",
          "name": "ids",
          "type": "uint256[]"
        }
      ],
      "name": "balanceOfUnfertilized",
      "outputs": [
        {
          "internalType": "uint256",
          "name": "beans",
          "type": "uint256"
        }
      ],
      "stateMutability": "view",
      "type": "function"
    },
    {
      "inputs": [
        {
          "internalType": "address",
          "name": "account",
          "type": "address"
        },
        {
          "internalType": "uint256",
          "name": "id",
          "type": "uint256"
        },
        {
          "internalType": "uint128",
          "name": "amount",
          "type": "uint128"
        },
        {
          "internalType": "uint128",
          "name": "bpf",
          "type": "uint128"
        }
      ],
      "name": "beanstalkMint",
      "outputs": [],
      "stateMutability": "nonpayable",
      "type": "function"
    },
    {
      "inputs": [
        {
          "internalType": "address",
          "name": "account",
          "type": "address"
        },
        {
          "internalType": "uint256[]",
          "name": "ids",
          "type": "uint256[]"
        },
        {
          "internalType": "uint128",
          "name": "bpf",
          "type": "uint128"
        }
      ],
      "name": "beanstalkUpdate",
      "outputs": [
        {
          "internalType": "uint256",
          "name": "",
          "type": "uint256"
        }
      ],
      "stateMutability": "nonpayable",
      "type": "function"
    },
    {
      "inputs": [],
      "name": "getMintId",
      "outputs": [
        {
          "internalType": "uint256",
          "name": "",
          "type": "uint256"
        }
      ],
      "stateMutability": "view",
      "type": "function"
    },
    {
      "inputs": [
        {
          "internalType": "address",
          "name": "account",
          "type": "address"
        },
        {
          "internalType": "address",
          "name": "operator",
          "type": "address"
        }
      ],
      "name": "isApprovedForAll",
      "outputs": [
        {
          "internalType": "bool",
          "name": "",
          "type": "bool"
        }
      ],
      "stateMutability": "view",
      "type": "function"
    },
    {
      "inputs": [
        {
          "internalType": "address",
          "name": "account",
          "type": "address"
        },
        {
          "internalType": "uint256",
          "name": "id",
          "type": "uint256"
        }
      ],
      "name": "lastBalanceOf",
      "outputs": [
        {
          "components": [
            {
              "internalType": "uint128",
              "name": "amount",
              "type": "uint128"
            },
            {
              "internalType": "uint128",
              "name": "lastBpf",
              "type": "uint128"
            }
          ],
          "internalType": "struct Internalizer.Balance",
          "name": "",
          "type": "tuple"
        }
      ],
      "stateMutability": "view",
      "type": "function"
    },
    {
      "inputs": [
        {
          "internalType": "address[]",
          "name": "accounts",
          "type": "address[]"
        },
        {
          "internalType": "uint256[]",
          "name": "ids",
          "type": "uint256[]"
        }
      ],
      "name": "lastBalanceOfBatch",
      "outputs": [
        {
          "components": [
            {
              "internalType": "uint128",
              "name": "amount",
              "type": "uint128"
            },
            {
              "internalType": "uint128",
              "name": "lastBpf",
              "type": "uint128"
            }
          ],
          "internalType": "struct Internalizer.Balance[]",
          "name": "balances",
          "type": "tuple[]"
        }
      ],
      "stateMutability": "view",
      "type": "function"
    },
    {
      "inputs": [],
      "name": "name",
      "outputs": [
        {
          "internalType": "string",
          "name": "",
          "type": "string"
        }
      ],
      "stateMutability": "pure",
      "type": "function"
    },
    {
      "inputs": [],
      "name": "owner",
      "outputs": [
        {
          "internalType": "address",
          "name": "",
          "type": "address"
        }
      ],
      "stateMutability": "view",
      "type": "function"
    },
    {
      "inputs": [],
      "name": "remaining",
      "outputs": [
        {
          "internalType": "uint256",
          "name": "",
          "type": "uint256"
        }
      ],
      "stateMutability": "view",
      "type": "function"
    },
    {
      "inputs": [],
      "name": "renounceOwnership",
      "outputs": [],
      "stateMutability": "nonpayable",
      "type": "function"
    },
    {
      "inputs": [
        {
          "internalType": "address",
          "name": "from",
          "type": "address"
        },
        {
          "internalType": "address",
          "name": "to",
          "type": "address"
        },
        {
          "internalType": "uint256[]",
          "name": "ids",
          "type": "uint256[]"
        },
        {
          "internalType": "uint256[]",
          "name": "amounts",
          "type": "uint256[]"
        },
        {
          "internalType": "bytes",
          "name": "data",
          "type": "bytes"
        }
      ],
      "name": "safeBatchTransferFrom",
      "outputs": [],
      "stateMutability": "nonpayable",
      "type": "function"
    },
    {
      "inputs": [
        {
          "internalType": "address",
          "name": "from",
          "type": "address"
        },
        {
          "internalType": "address",
          "name": "to",
          "type": "address"
        },
        {
          "internalType": "uint256",
          "name": "id",
          "type": "uint256"
        },
        {
          "internalType": "uint256",
          "name": "amount",
          "type": "uint256"
        },
        {
          "internalType": "bytes",
          "name": "data",
          "type": "bytes"
        }
      ],
      "name": "safeTransferFrom",
      "outputs": [],
      "stateMutability": "nonpayable",
      "type": "function"
    },
    {
      "inputs": [
        {
          "internalType": "address",
          "name": "operator",
          "type": "address"
        },
        {
          "internalType": "bool",
          "name": "approved",
          "type": "bool"
        }
      ],
      "name": "setApprovalForAll",
      "outputs": [],
      "stateMutability": "nonpayable",
      "type": "function"
    },
    {
      "inputs": [
        {
          "internalType": "string",
          "name": "newuri",
          "type": "string"
        }
      ],
      "name": "setURI",
      "outputs": [],
      "stateMutability": "nonpayable",
      "type": "function"
    },
    {
      "inputs": [
        {
          "internalType": "bytes4",
          "name": "interfaceId",
          "type": "bytes4"
        }
      ],
      "name": "supportsInterface",
      "outputs": [
        {
          "internalType": "bool",
          "name": "",
          "type": "bool"
        }
      ],
      "stateMutability": "view",
      "type": "function"
    },
    {
      "inputs": [],
      "name": "symbol",
      "outputs": [
        {
          "internalType": "string",
          "name": "",
          "type": "string"
        }
      ],
      "stateMutability": "pure",
      "type": "function"
    },
    {
      "inputs": [
        {
          "internalType": "address",
          "name": "newOwner",
          "type": "address"
        }
      ],
      "name": "transferOwnership",
      "outputs": [],
      "stateMutability": "nonpayable",
      "type": "function"
    },
    {
      "inputs": [
        {
          "internalType": "uint256",
          "name": "_id",
          "type": "uint256"
        }
      ],
      "name": "uri",
      "outputs": [
        {
          "internalType": "string",
          "name": "",
          "type": "string"
        }
      ],
      "stateMutability": "view",
      "type": "function"
    }
  ],
  "bytecode": "0x608060405234801561001057600080fd5b50614307806100206000396000f3fe608060405234801561001057600080fd5b50600436106101415760003560e01c80638da5cb5b116100b8578063a22cb4651161007c578063a22cb4651461038a578063b6f42085146103a6578063bf02d309146103d6578063e985e9c514610406578063f242432a14610436578063f2fde38b1461045257610141565b80638da5cb5b146102d257806391b7301f146102f057806395d89b411461032057806397e6e4671461033e5780639a9a18a21461036e57610141565b80631edb6be11161010a5780631edb6be114610210578063246c0d87146102405780632eb2c2d61461025e5780634e1273f41461027a57806355234ec0146102aa578063715018a6146102c857610141565b8062fdd58e1461014657806301ffc9a71461017657806302fe5305146101a657806306fdde03146101c25780630e89341c146101e0575b600080fd5b610160600480360381019061015b9190613290565b61046e565b60405161016d9190613e56565b60405180910390f35b610190600480360381019061018b919061339b565b610569565b60405161019d9190613cde565b60405180910390f35b6101c060048036038101906101bb91906133ed565b6105d1565b005b6101ca610696565b6040516101d79190613cf9565b60405180910390f35b6101fa60048036038101906101f5919061345b565b6106d3565b6040516102079190613cf9565b60405180910390f35b61022a60048036038101906102259190613199565b610707565b6040516102379190613e56565b60405180910390f35b6102486108be565b6040516102559190613e56565b60405180910390f35b6102786004803603810190610273919061304b565b61095c565b005b610294600480360381019061028f919061332f565b610b95565b6040516102a19190613c55565b60405180910390f35b6102b2610ca7565b6040516102bf9190613e56565b60405180910390f35b6102d0610d33565b005b6102da610ea3565b6040516102e79190613b2d565b60405180910390f35b61030a60048036038101906103059190613290565b610ecd565b6040516103179190613e3b565b60405180910390f35b61032861103c565b6040516103359190613cf9565b60405180910390f35b610358600480360381019061035391906131ed565b611079565b6040516103659190613e56565b60405180910390f35b610388600480360381019061038391906132cc565b611150565b005b6103a4600480360381019061039f9190613254565b6113f1565b005b6103c060048036038101906103bb9190613199565b61158a565b6040516103cd9190613e56565b60405180910390f35b6103f060048036038101906103eb919061332f565b6117d6565b6040516103fd9190613c33565b60405180910390f35b610420600480360381019061041b919061300f565b611892565b60405161042d9190613cde565b60405180910390f35b610450600480360381019061044b919061310a565b611926565b005b61046c60048036038101906104679190612fe6565b611aed565b005b60008073ffffffffffffffffffffffffffffffffffffffff168373ffffffffffffffffffffffffffffffffffffffff1614156104df576040517f08c379a00000000000000000000000000000000000000000000000000000000081526004016104d690613d5b565b60405180910390fd5b60fb600083815260200190815260200160002060008473ffffffffffffffffffffffffffffffffffffffff1673ffffffffffffffffffffffffffffffffffffffff16815260200190815260200160002060000160009054906101000a90046fffffffffffffffffffffffffffffffff166fffffffffffffffffffffffffffffffff16905092915050565b600060976000837bffffffffffffffffffffffffffffffffffffffffffffffffffffffff19167bffffffffffffffffffffffffffffffffffffffffffffffffffffffff1916815260200190815260200160002060009054906101000a900460ff169050919050565b6105d9611ce2565b73ffffffffffffffffffffffffffffffffffffffff166105f7610ea3565b73ffffffffffffffffffffffffffffffffffffffff1614610680576040517f08c379a00000000000000000000000000000000000000000000000000000000081526004018080602001828103825260208152602001807f4f776e61626c653a2063616c6c6572206973206e6f7420746865206f776e657281525060200191505060405180910390fd5b818160fc9190610691929190612c77565b505050565b60606040518060400160405280600a81526020017f46657274696c697a657200000000000000000000000000000000000000000000815250905090565b606060fc6106e083611cea565b6040516020016106f1929190613b09565b6040516020818303038152906040529050919050565b600080610712610ea3565b73ffffffffffffffffffffffffffffffffffffffff16639bb4e35a6040518163ffffffff1660e01b815260040160206040518083038186803b15801561075757600080fd5b505afa15801561076b573d6000803e3d6000fd5b505050506040513d601f19601f8201168201806040525081019061078f9190613432565b6fffffffffffffffffffffffffffffffff16905060005b83518110156108b657818482815181106107bc57fe5b602002602001015111156108ab576108a861089960fb60008785815181106107e057fe5b6020026020010151815260200190815260200160002060008873ffffffffffffffffffffffffffffffffffffffff1673ffffffffffffffffffffffffffffffffffffffff16815260200190815260200160002060000160009054906101000a90046fffffffffffffffffffffffffffffffff166fffffffffffffffffffffffffffffffff1661088b8588868151811061087557fe5b6020026020010151611e3190919063ffffffff16565b611eb490919063ffffffff16565b84611f3a90919063ffffffff16565b92505b8060010190506107a6565b505092915050565b60006108c8610ea3565b73ffffffffffffffffffffffffffffffffffffffff1663c85951a16040518163ffffffff1660e01b815260040160206040518083038186803b15801561090d57600080fd5b505afa158015610921573d6000803e3d6000fd5b505050506040513d601f19601f820116820180604052508101906109459190613432565b6fffffffffffffffffffffffffffffffff16905090565b81518351146109a0576040517f08c379a000000000000000000000000000000000000000000000000000000000815260040161099790613dfb565b60405180910390fd5b600073ffffffffffffffffffffffffffffffffffffffff168473ffffffffffffffffffffffffffffffffffffffff161415610a10576040517f08c379a0000000000000000000000000000000000000000000000000000000008152600401610a0790613d9b565b60405180910390fd5b610a18611ce2565b73ffffffffffffffffffffffffffffffffffffffff168573ffffffffffffffffffffffffffffffffffffffff161480610a5e5750610a5d85610a58611ce2565b611892565b5b610a9d576040517f08c379a0000000000000000000000000000000000000000000000000000000008152600401610a9490613dbb565b60405180910390fd5b6000610aa7611ce2565b9050610ab7818787878787611fc2565b60005b8451811015610b0057610af58787878481518110610ad457fe5b6020026020010151878581518110610ae857fe5b60200260200101516120b1565b806001019050610aba565b508473ffffffffffffffffffffffffffffffffffffffff168673ffffffffffffffffffffffffffffffffffffffff168273ffffffffffffffffffffffffffffffffffffffff167f4a39dc06d4c0dbc64b70af90fd698a233a518aa5d07e595d983b8c0526c8f7fb8787604051610b77929190613c77565b60405180910390a4610b8d818787878787612365565b505050505050565b60608151835114610bf1576040517f08c379a00000000000000000000000000000000000000000000000000000000081526004018080602001828103825260298152602001806142a96029913960400191505060405180910390fd5b6000835167ffffffffffffffff81118015610c0b57600080fd5b50604051908082528060200260200182016040528015610c3a5781602001602082028036833780820191505090505b50905060005b8451811015610c9c57610c79858281518110610c5857fe5b6020026020010151858381518110610c6c57fe5b602002602001015161046e565b828281518110610c8557fe5b602002602001018181525050806001019050610c40565b508091505092915050565b6000610cb1610ea3565b73ffffffffffffffffffffffffffffffffffffffff16634a16607c6040518163ffffffff1660e01b815260040160206040518083038186803b158015610cf657600080fd5b505afa158015610d0a573d6000803e3d6000fd5b505050506040513d601f19601f82011682018060405250810190610d2e9190613484565b905090565b610d3b611ce2565b73ffffffffffffffffffffffffffffffffffffffff16610d59610ea3565b73ffffffffffffffffffffffffffffffffffffffff1614610de2576040517f08c379a00000000000000000000000000000000000000000000000000000000081526004018080602001828103825260208152602001807f4f776e61626c653a2063616c6c6572206973206e6f7420746865206f776e657281525060200191505060405180910390fd5b600073ffffffffffffffffffffffffffffffffffffffff16603360009054906101000a900473ffffffffffffffffffffffffffffffffffffffff1673ffffffffffffffffffffffffffffffffffffffff167f8be0079c531659141344cd1fd0a4f28419497f9722a3daafe3b4186f6b6457e060405160405180910390a36000603360006101000a81548173ffffffffffffffffffffffffffffffffffffffff021916908373ffffffffffffffffffffffffffffffffffffffff160217905550565b6000603360009054906101000a900473ffffffffffffffffffffffffffffffffffffffff16905090565b610ed5612d05565b600073ffffffffffffffffffffffffffffffffffffffff168373ffffffffffffffffffffffffffffffffffffffff161415610f45576040517f08c379a0000000000000000000000000000000000000000000000000000000008152600401610f3c90613d5b565b60405180910390fd5b60fb600083815260200190815260200160002060008473ffffffffffffffffffffffffffffffffffffffff1673ffffffffffffffffffffffffffffffffffffffff1681526020019081526020016000206040518060400160405290816000820160009054906101000a90046fffffffffffffffffffffffffffffffff166fffffffffffffffffffffffffffffffff166fffffffffffffffffffffffffffffffff1681526020016000820160109054906101000a90046fffffffffffffffffffffffffffffffff166fffffffffffffffffffffffffffffffff166fffffffffffffffffffffffffffffffff1681525050905092915050565b60606040518060400160405280600481526020017f4645525400000000000000000000000000000000000000000000000000000000815250905090565b6000611083611ce2565b73ffffffffffffffffffffffffffffffffffffffff166110a1610ea3565b73ffffffffffffffffffffffffffffffffffffffff161461112a576040517f08c379a00000000000000000000000000000000000000000000000000000000081526004018080602001828103825260208152602001807f4f776e61626c653a2063616c6c6572206973206e6f7420746865206f776e657281525060200191505060405180910390fd5b6111478484846fffffffffffffffffffffffffffffffff16612535565b90509392505050565b611158611ce2565b73ffffffffffffffffffffffffffffffffffffffff16611176610ea3565b73ffffffffffffffffffffffffffffffffffffffff16146111ff576040517f08c379a00000000000000000000000000000000000000000000000000000000081526004018080602001828103825260208152602001807f4f776e61626c653a2063616c6c6572206973206e6f7420746865206f776e657281525060200191505060405180910390fd5b600060fb600085815260200190815260200160002060008673ffffffffffffffffffffffffffffffffffffffff1673ffffffffffffffffffffffffffffffffffffffff16815260200190815260200160002060000160009054906101000a90046fffffffffffffffffffffffffffffffff166fffffffffffffffffffffffffffffffff16111561130e576000600167ffffffffffffffff811180156112a357600080fd5b506040519080825280602002602001820160405280156112d25781602001602082028036833780820191505090505b50905083816000815181106112e357fe5b60200260200101818152505061130c8582846fffffffffffffffffffffffffffffffff166127c6565b505b8060fb600085815260200190815260200160002060008673ffffffffffffffffffffffffffffffffffffffff1673ffffffffffffffffffffffffffffffffffffffff16815260200190815260200160002060000160106101000a8154816fffffffffffffffffffffffffffffffff02191690836fffffffffffffffffffffffffffffffff1602179055506113eb8484846fffffffffffffffffffffffffffffffff166040518060400160405280600181526020017f3000000000000000000000000000000000000000000000000000000000000000815250612859565b50505050565b8173ffffffffffffffffffffffffffffffffffffffff16611410611ce2565b73ffffffffffffffffffffffffffffffffffffffff16141561147d576040517f08c379a00000000000000000000000000000000000000000000000000000000081526004018080602001828103825260298152602001806142806029913960400191505060405180910390fd5b8060ca600061148a611ce2565b73ffffffffffffffffffffffffffffffffffffffff1673ffffffffffffffffffffffffffffffffffffffff16815260200190815260200160002060008473ffffffffffffffffffffffffffffffffffffffff1673ffffffffffffffffffffffffffffffffffffffff16815260200190815260200160002060006101000a81548160ff0219169083151502179055508173ffffffffffffffffffffffffffffffffffffffff16611537611ce2565b73ffffffffffffffffffffffffffffffffffffffff167f17307eab39ab6107e8899845ad3d59bd9653f200f220920489ca2b5937696c318360405180821515815260200191505060405180910390a35050565b600080611595610ea3565b73ffffffffffffffffffffffffffffffffffffffff16639bb4e35a6040518163ffffffff1660e01b815260040160206040518083038186803b1580156115da57600080fd5b505afa1580156115ee573d6000803e3d6000fd5b505050506040513d601f19601f820116820180604052508101906116129190613432565b6fffffffffffffffffffffffffffffffff16905060005b83518110156117ce57600084828151811061164057fe5b602002602001015183106116675784828151811061165a57fe5b6020026020010151611669565b825b9050600060fb600087858151811061167d57fe5b6020026020010151815260200190815260200160002060008873ffffffffffffffffffffffffffffffffffffffff1673ffffffffffffffffffffffffffffffffffffffff16815260200190815260200160002060000160109054906101000a90046fffffffffffffffffffffffffffffffff166fffffffffffffffffffffffffffffffff16820390506117bf6117b060fb600089878151811061171c57fe5b6020026020010151815260200190815260200160002060008a73ffffffffffffffffffffffffffffffffffffffff1673ffffffffffffffffffffffffffffffffffffffff16815260200190815260200160002060000160009054906101000a90046fffffffffffffffffffffffffffffffff166fffffffffffffffffffffffffffffffff1683611eb490919063ffffffff16565b86611f3a90919063ffffffff16565b94505050806001019050611629565b505092915050565b6060825167ffffffffffffffff811180156117f057600080fd5b5060405190808252806020026020018201604052801561182a57816020015b611817612d05565b81526020019060019003908161180f5790505b50905060005b835181101561188b5761186984828151811061184857fe5b602002602001015184838151811061185c57fe5b6020026020010151610ecd565b82828151811061187557fe5b6020026020010181905250806001019050611830565b5092915050565b600060ca60008473ffffffffffffffffffffffffffffffffffffffff1673ffffffffffffffffffffffffffffffffffffffff16815260200190815260200160002060008373ffffffffffffffffffffffffffffffffffffffff1673ffffffffffffffffffffffffffffffffffffffff16815260200190815260200160002060009054906101000a900460ff16905092915050565b600073ffffffffffffffffffffffffffffffffffffffff168473ffffffffffffffffffffffffffffffffffffffff161415611996576040517f08c379a000000000000000000000000000000000000000000000000000000000815260040161198d90613d9b565b60405180910390fd5b61199e611ce2565b73ffffffffffffffffffffffffffffffffffffffff168573ffffffffffffffffffffffffffffffffffffffff1614806119e457506119e3856119de611ce2565b611892565b5b611a23576040517f08c379a0000000000000000000000000000000000000000000000000000000008152600401611a1a90613d7b565b60405180910390fd5b6000611a2d611ce2565b9050611a4d818787611a3e88612977565b611a4788612977565b87611fc2565b611a59868686866120b1565b8473ffffffffffffffffffffffffffffffffffffffff168673ffffffffffffffffffffffffffffffffffffffff168273ffffffffffffffffffffffffffffffffffffffff167fc3d58168c5ae7397731d063d5bbf3d657854427343f4c083240f7aacaa2d0f628787604051611acf929190613e71565b60405180910390a4611ae58187878787876129e8565b505050505050565b611af5611ce2565b73ffffffffffffffffffffffffffffffffffffffff16611b13610ea3565b73ffffffffffffffffffffffffffffffffffffffff1614611b9c576040517f08c379a00000000000000000000000000000000000000000000000000000000081526004018080602001828103825260208152602001807f4f776e61626c653a2063616c6c6572206973206e6f7420746865206f776e657281525060200191505060405180910390fd5b600073ffffffffffffffffffffffffffffffffffffffff168173ffffffffffffffffffffffffffffffffffffffff161415611c22576040517f08c379a00000000000000000000000000000000000000000000000000000000081526004018080602001828103825260268152602001806142396026913960400191505060405180910390fd5b8073ffffffffffffffffffffffffffffffffffffffff16603360009054906101000a900473ffffffffffffffffffffffffffffffffffffffff1673ffffffffffffffffffffffffffffffffffffffff167f8be0079c531659141344cd1fd0a4f28419497f9722a3daafe3b4186f6b6457e060405160405180910390a380603360006101000a81548173ffffffffffffffffffffffffffffffffffffffff021916908373ffffffffffffffffffffffffffffffffffffffff16021790555050565b600033905090565b60606000821415611d32576040518060400160405280600181526020017f30000000000000000000000000000000000000000000000000000000000000008152509050611e2c565b600082905060005b60008214611d5c578080600101915050600a8281611d5457fe5b049150611d3a565b60008167ffffffffffffffff81118015611d7557600080fd5b506040519080825280601f01601f191660200182016040528015611da85781602001600182028036833780820191505090505b50905060006001830390508593505b60008414611e2457600a8481611dc957fe5b0660300160f81b82828060019003935081518110611de357fe5b60200101907effffffffffffffffffffffffffffffffffffffffffffffffffffffffffffff1916908160001a905350600a8481611e1c57fe5b049350611db7565b819450505050505b919050565b600082821115611ea9576040517f08c379a000000000000000000000000000000000000000000000000000000000815260040180806020018281038252601e8152602001807f536166654d6174683a207375627472616374696f6e206f766572666c6f77000081525060200191505060405180910390fd5b818303905092915050565b600080831415611ec75760009050611f34565b6000828402905082848281611ed857fe5b0414611f2f576040517f08c379a000000000000000000000000000000000000000000000000000000000815260040180806020018281038252602181526020018061425f6021913960400191505060405180910390fd5b809150505b92915050565b600080828401905083811015611fb8576040517f08c379a000000000000000000000000000000000000000000000000000000000815260040180806020018281038252601b8152602001807f536166654d6174683a206164646974696f6e206f766572666c6f77000000000081525060200191505060405180910390fd5b8091505092915050565b6000611fcc610ea3565b73ffffffffffffffffffffffffffffffffffffffff16639bb4e35a6040518163ffffffff1660e01b815260040160206040518083038186803b15801561201157600080fd5b505afa158015612025573d6000803e3d6000fd5b505050506040513d601f19601f820116820180604052508101906120499190613432565b6fffffffffffffffffffffffffffffffff169050600073ffffffffffffffffffffffffffffffffffffffff168673ffffffffffffffffffffffffffffffffffffffff161461209d5761209c8685836127c6565b5b6120a88585836127c6565b50505050505050565b6000819050600073ffffffffffffffffffffffffffffffffffffffff168573ffffffffffffffffffffffffffffffffffffffff161461224157600060fb600085815260200190815260200160002060008773ffffffffffffffffffffffffffffffffffffffff1673ffffffffffffffffffffffffffffffffffffffff16815260200190815260200160002060000160009054906101000a90046fffffffffffffffffffffffffffffffff16905082816fffffffffffffffffffffffffffffffff1610156121b3576040517f08c379a00000000000000000000000000000000000000000000000000000000081526004016121aa90613ddb565b60405180910390fd5b81810360fb600086815260200190815260200160002060008873ffffffffffffffffffffffffffffffffffffffff1673ffffffffffffffffffffffffffffffffffffffff16815260200190815260200160002060000160006101000a8154816fffffffffffffffffffffffffffffffff02191690836fffffffffffffffffffffffffffffffff160217905550505b6122d58160fb600086815260200190815260200160002060008773ffffffffffffffffffffffffffffffffffffffff1673ffffffffffffffffffffffffffffffffffffffff16815260200190815260200160002060000160009054906101000a90046fffffffffffffffffffffffffffffffff166fffffffffffffffffffffffffffffffff16612bb890919063ffffffff16565b60fb600085815260200190815260200160002060008673ffffffffffffffffffffffffffffffffffffffff1673ffffffffffffffffffffffffffffffffffffffff16815260200190815260200160002060000160006101000a8154816fffffffffffffffffffffffffffffffff02191690836fffffffffffffffffffffffffffffffff1602179055505050505050565b6123848473ffffffffffffffffffffffffffffffffffffffff16612c64565b1561252d578373ffffffffffffffffffffffffffffffffffffffff1663bc197c8187878686866040518663ffffffff1660e01b81526004016123ca959493929190613b48565b602060405180830381600087803b1580156123e457600080fd5b505af192505050801561241557506040513d601f19601f8201168201806040525081019061241291906133c4565b60015b6124a45761242161410f565b8061242c5750612469565b806040517f08c379a00000000000000000000000000000000000000000000000000000000081526004016124609190613cf9565b60405180910390fd5b6040517f08c379a000000000000000000000000000000000000000000000000000000000815260040161249b90613d1b565b60405180910390fd5b63bc197c8160e01b7bffffffffffffffffffffffffffffffffffffffffffffffffffffffff1916817bffffffffffffffffffffffffffffffffffffffffffffffffffffffff19161461252b576040517f08c379a000000000000000000000000000000000000000000000000000000000815260040161252290613d3b565b60405180910390fd5b505b505050505050565b6000805b835181101561278557600084828151811061255057fe5b602002602001015184106125775784828151811061256a57fe5b6020026020010151612579565b835b9050600060fb600087858151811061258d57fe5b6020026020010151815260200190815260200160002060008873ffffffffffffffffffffffffffffffffffffffff1673ffffffffffffffffffffffffffffffffffffffff16815260200190815260200160002060000160109054906101000a90046fffffffffffffffffffffffffffffffff166fffffffffffffffffffffffffffffffff16820390506000811115612778576126d86126c960fb600089878151811061263557fe5b6020026020010151815260200190815260200160002060008a73ffffffffffffffffffffffffffffffffffffffff1673ffffffffffffffffffffffffffffffffffffffff16815260200190815260200160002060000160009054906101000a90046fffffffffffffffffffffffffffffffff166fffffffffffffffffffffffffffffffff1683611eb490919063ffffffff16565b85611f3a90919063ffffffff16565b93508160fb60008886815181106126eb57fe5b6020026020010151815260200190815260200160002060008973ffffffffffffffffffffffffffffffffffffffff1673ffffffffffffffffffffffffffffffffffffffff16815260200190815260200160002060000160106101000a8154816fffffffffffffffffffffffffffffffff02191690836fffffffffffffffffffffffffffffffff1602179055505b5050806001019050612539565b507f96f98c54750e4481bfa3aaac1e279e22f034f6bb3fbe5a79cb28d63ac2db367c83826040516127b7929190613cae565b60405180910390a19392505050565b60006127d3848484612535565b90506000811115612853576127e6610ea3565b73ffffffffffffffffffffffffffffffffffffffff1663d47aee5985836040518363ffffffff1660e01b8152600401612820929190613c0a565b600060405180830381600087803b15801561283a57600080fd5b505af115801561284e573d6000803e3d6000fd5b505050505b50505050565b600073ffffffffffffffffffffffffffffffffffffffff168473ffffffffffffffffffffffffffffffffffffffff1614156128c9576040517f08c379a00000000000000000000000000000000000000000000000000000000081526004016128c090613e1b565b60405180910390fd5b60006128d3611ce2565b90506128e260008686866120b1565b8473ffffffffffffffffffffffffffffffffffffffff16600073ffffffffffffffffffffffffffffffffffffffff168273ffffffffffffffffffffffffffffffffffffffff167fc3d58168c5ae7397731d063d5bbf3d657854427343f4c083240f7aacaa2d0f628787604051612959929190613e71565b60405180910390a4612970816000878787876129e8565b5050505050565b60606000600167ffffffffffffffff8111801561299357600080fd5b506040519080825280602002602001820160405280156129c25781602001602082028036833780820191505090505b50905082816000815181106129d357fe5b60200260200101818152505080915050919050565b612a078473ffffffffffffffffffffffffffffffffffffffff16612c64565b15612bb0578373ffffffffffffffffffffffffffffffffffffffff1663f23a6e6187878686866040518663ffffffff1660e01b8152600401612a4d959493929190613bb0565b602060405180830381600087803b158015612a6757600080fd5b505af1925050508015612a9857506040513d601f19601f82011682018060405250810190612a9591906133c4565b60015b612b2757612aa461410f565b80612aaf5750612aec565b806040517f08c379a0000000000000000000000000000000000000000000000000000000008152600401612ae39190613cf9565b60405180910390fd5b6040517f08c379a0000000000000000000000000000000000000000000000000000000008152600401612b1e90613d1b565b60405180910390fd5b63f23a6e6160e01b7bffffffffffffffffffffffffffffffffffffffffffffffffffffffff1916817bffffffffffffffffffffffffffffffffffffffffffffffffffffffff191614612bae576040517f08c379a0000000000000000000000000000000000000000000000000000000008152600401612ba590613d3b565b60405180910390fd5b505b505050505050565b6000808284019050836fffffffffffffffffffffffffffffffff16816fffffffffffffffffffffffffffffffff161015612c5a576040517f08c379a000000000000000000000000000000000000000000000000000000000815260040180806020018281038252601b8152602001807f536166654d6174683a206164646974696f6e206f766572666c6f77000000000081525060200191505060405180910390fd5b8091505092915050565b600080823b905060008111915050919050565b828054600181600116156101000203166002900490600052602060002090601f016020900481019282612cad5760008555612cf4565b82601f10612cc657803560ff1916838001178555612cf4565b82800160010185558215612cf4579182015b82811115612cf3578235825591602001919060010190612cd8565b5b509050612d019190612d43565b5090565b604051806040016040528060006fffffffffffffffffffffffffffffffff16815260200160006fffffffffffffffffffffffffffffffff1681525090565b5b80821115612d5c576000816000905550600101612d44565b5090565b6000612d73612d6e84613ecb565b613e9a565b90508083825260208201905082856020860282011115612d9257600080fd5b60005b85811015612dc25781612da88882612e76565b845260208401935060208301925050600181019050612d95565b5050509392505050565b6000612ddf612dda84613ef7565b613e9a565b90508083825260208201905082856020860282011115612dfe57600080fd5b60005b85811015612e2e5781612e148882612fbc565b845260208401935060208301925050600181019050612e01565b5050509392505050565b6000612e4b612e4684613f23565b613e9a565b905082815260208101848484011115612e6357600080fd5b612e6e8482856140ad565b509392505050565b600081359050612e85816141c5565b92915050565b600082601f830112612e9c57600080fd5b8135612eac848260208601612d60565b91505092915050565b600082601f830112612ec657600080fd5b8135612ed6848260208601612dcc565b91505092915050565b600081359050612eee816141dc565b92915050565b600081359050612f03816141f3565b92915050565b600081519050612f18816141f3565b92915050565b600082601f830112612f2f57600080fd5b8135612f3f848260208601612e38565b91505092915050565b60008083601f840112612f5a57600080fd5b8235905067ffffffffffffffff811115612f7357600080fd5b602083019150836001820283011115612f8b57600080fd5b9250929050565b600081359050612fa18161420a565b92915050565b600081519050612fb68161420a565b92915050565b600081359050612fcb81614221565b92915050565b600081519050612fe081614221565b92915050565b600060208284031215612ff857600080fd5b600061300684828501612e76565b91505092915050565b6000806040838503121561302257600080fd5b600061303085828601612e76565b925050602061304185828601612e76565b9150509250929050565b600080600080600060a0868803121561306357600080fd5b600061307188828901612e76565b955050602061308288828901612e76565b945050604086013567ffffffffffffffff81111561309f57600080fd5b6130ab88828901612eb5565b935050606086013567ffffffffffffffff8111156130c857600080fd5b6130d488828901612eb5565b925050608086013567ffffffffffffffff8111156130f157600080fd5b6130fd88828901612f1e565b9150509295509295909350565b600080600080600060a0868803121561312257600080fd5b600061313088828901612e76565b955050602061314188828901612e76565b945050604061315288828901612fbc565b935050606061316388828901612fbc565b925050608086013567ffffffffffffffff81111561318057600080fd5b61318c88828901612f1e565b9150509295509295909350565b600080604083850312156131ac57600080fd5b60006131ba85828601612e76565b925050602083013567ffffffffffffffff8111156131d757600080fd5b6131e385828601612eb5565b9150509250929050565b60008060006060848603121561320257600080fd5b600061321086828701612e76565b935050602084013567ffffffffffffffff81111561322d57600080fd5b61323986828701612eb5565b925050604061324a86828701612f92565b9150509250925092565b6000806040838503121561326757600080fd5b600061327585828601612e76565b925050602061328685828601612edf565b9150509250929050565b600080604083850312156132a357600080fd5b60006132b185828601612e76565b92505060206132c285828601612fbc565b9150509250929050565b600080600080608085870312156132e257600080fd5b60006132f087828801612e76565b945050602061330187828801612fbc565b935050604061331287828801612f92565b925050606061332387828801612f92565b91505092959194509250565b6000806040838503121561334257600080fd5b600083013567ffffffffffffffff81111561335c57600080fd5b61336885828601612e8b565b925050602083013567ffffffffffffffff81111561338557600080fd5b61339185828601612eb5565b9150509250929050565b6000602082840312156133ad57600080fd5b60006133bb84828501612ef4565b91505092915050565b6000602082840312156133d657600080fd5b60006133e484828501612f09565b91505092915050565b6000806020838503121561340057600080fd5b600083013567ffffffffffffffff81111561341a57600080fd5b61342685828601612f48565b92509250509250929050565b60006020828403121561344457600080fd5b600061345284828501612fa7565b91505092915050565b60006020828403121561346d57600080fd5b600061347b84828501612fbc565b91505092915050565b60006020828403121561349657600080fd5b60006134a484828501612fd1565b91505092915050565b60006134b98383613a7e565b60408301905092915050565b60006134d18383613aeb565b60208301905092915050565b6134e68161401d565b82525050565b60006134f782613f88565b6135018185613fce565b935061350c83613f53565b8060005b8381101561353d57815161352488826134ad565b975061352f83613fb4565b925050600181019050613510565b5085935050505092915050565b600061355582613f93565b61355f8185613fdf565b935061356a83613f63565b8060005b8381101561359b57815161358288826134c5565b975061358d83613fc1565b92505060018101905061356e565b5085935050505092915050565b6135b18161402f565b82525050565b60006135c282613f9e565b6135cc8185613ff0565b93506135dc8185602086016140bc565b6135e5816140f1565b840191505092915050565b60006135fb82613fa9565b6136058185614001565b93506136158185602086016140bc565b61361e816140f1565b840191505092915050565b600061363482613fa9565b61363e8185614012565b935061364e8185602086016140bc565b80840191505092915050565b600081546001811660008114613677576001811461369c576136e0565b607f60028304166136888187614012565b955060ff19831686528086019350506136e0565b600282046136aa8187614012565b95506136b585613f73565b60005b828110156136d7578154818901526001820191506020810190506136b8565b82880195505050505b505092915050565b60006136f5603483614001565b91507f455243313135353a207472616e7366657220746f206e6f6e204552433131353560008301527f526563656976657220696d706c656d656e7465720000000000000000000000006020830152604082019050919050565b600061375b602883614001565b91507f455243313135353a204552433131353552656365697665722072656a6563746560008301527f6420746f6b656e730000000000000000000000000000000000000000000000006020830152604082019050919050565b60006137c1602b83614001565b91507f455243313135353a2062616c616e636520717565727920666f7220746865207a60008301527f65726f20616464726573730000000000000000000000000000000000000000006020830152604082019050919050565b6000613827602983614001565b91507f455243313135353a2063616c6c6572206973206e6f74206f776e6572206e6f7260008301527f20617070726f76656400000000000000000000000000000000000000000000006020830152604082019050919050565b600061388d602583614001565b91507f455243313135353a207472616e7366657220746f20746865207a65726f20616460008301527f64726573730000000000000000000000000000000000000000000000000000006020830152604082019050919050565b60006138f3603283614001565b91507f455243313135353a207472616e736665722063616c6c6572206973206e6f742060008301527f6f776e6572206e6f7220617070726f76656400000000000000000000000000006020830152604082019050919050565b6000613959602a83614001565b91507f455243313135353a20696e73756666696369656e742062616c616e636520666f60008301527f72207472616e73666572000000000000000000000000000000000000000000006020830152604082019050919050565b60006139bf602883614001565b91507f455243313135353a2069647320616e6420616d6f756e7473206c656e6774682060008301527f6d69736d617463680000000000000000000000000000000000000000000000006020830152604082019050919050565b6000613a25602183614001565b91507f455243313135353a206d696e7420746f20746865207a65726f2061646472657360008301527f73000000000000000000000000000000000000000000000000000000000000006020830152604082019050919050565b604082016000820151613a946000850182613adc565b506020820151613aa76020850182613adc565b50505050565b604082016000820151613ac36000850182613adc565b506020820151613ad66020850182613adc565b50505050565b613ae581614067565b82525050565b613af4816140a3565b82525050565b613b03816140a3565b82525050565b6000613b15828561365a565b9150613b218284613629565b91508190509392505050565b6000602082019050613b4260008301846134dd565b92915050565b600060a082019050613b5d60008301886134dd565b613b6a60208301876134dd565b8181036040830152613b7c818661354a565b90508181036060830152613b90818561354a565b90508181036080830152613ba481846135b7565b90509695505050505050565b600060a082019050613bc560008301886134dd565b613bd260208301876134dd565b613bdf6040830186613afa565b613bec6060830185613afa565b8181036080830152613bfe81846135b7565b90509695505050505050565b6000604082019050613c1f60008301856134dd565b613c2c6020830184613afa565b9392505050565b60006020820190508181036000830152613c4d81846134ec565b905092915050565b60006020820190508181036000830152613c6f818461354a565b905092915050565b60006040820190508181036000830152613c91818561354a565b90508181036020830152613ca5818461354a565b90509392505050565b60006040820190508181036000830152613cc8818561354a565b9050613cd76020830184613afa565b9392505050565b6000602082019050613cf360008301846135a8565b92915050565b60006020820190508181036000830152613d1381846135f0565b905092915050565b60006020820190508181036000830152613d34816136e8565b9050919050565b60006020820190508181036000830152613d548161374e565b9050919050565b60006020820190508181036000830152613d74816137b4565b9050919050565b60006020820190508181036000830152613d948161381a565b9050919050565b60006020820190508181036000830152613db481613880565b9050919050565b60006020820190508181036000830152613dd4816138e6565b9050919050565b60006020820190508181036000830152613df48161394c565b9050919050565b60006020820190508181036000830152613e14816139b2565b9050919050565b60006020820190508181036000830152613e3481613a18565b9050919050565b6000604082019050613e506000830184613aad565b92915050565b6000602082019050613e6b6000830184613afa565b92915050565b6000604082019050613e866000830185613afa565b613e936020830184613afa565b9392505050565b6000604051905081810181811067ffffffffffffffff82111715613ec157613ec06140ef565b5b8060405250919050565b600067ffffffffffffffff821115613ee657613ee56140ef565b5b602082029050602081019050919050565b600067ffffffffffffffff821115613f1257613f116140ef565b5b602082029050602081019050919050565b600067ffffffffffffffff821115613f3e57613f3d6140ef565b5b601f19601f8301169050602081019050919050565b6000819050602082019050919050565b6000819050602082019050919050565b60008190508160005260206000209050919050565b600081519050919050565b600081519050919050565b600081519050919050565b600081519050919050565b6000602082019050919050565b6000602082019050919050565b600082825260208201905092915050565b600082825260208201905092915050565b600082825260208201905092915050565b600082825260208201905092915050565b600081905092915050565b600061402882614083565b9050919050565b60008115159050919050565b60007fffffffff0000000000000000000000000000000000000000000000000000000082169050919050565b60006fffffffffffffffffffffffffffffffff82169050919050565b600073ffffffffffffffffffffffffffffffffffffffff82169050919050565b6000819050919050565b82818337600083830152505050565b60005b838110156140da5780820151818401526020810190506140bf565b838111156140e9576000848401525b50505050565bfe5b6000601f19601f8301169050919050565b60008160e01c9050919050565b600060443d101561411f576141c2565b60046000803e614130600051614102565b6308c379a0811461414157506141c2565b60405160043d036004823e80513d602482011167ffffffffffffffff8211171561416d575050506141c2565b808201805167ffffffffffffffff81111561418c5750505050506141c2565b8060208301013d85018111156141a7575050505050506141c2565b6141b0826140f1565b60208401016040528296505050505050505b90565b6141ce8161401d565b81146141d957600080fd5b50565b6141e58161402f565b81146141f057600080fd5b50565b6141fc8161403b565b811461420757600080fd5b50565b61421381614067565b811461421e57600080fd5b50565b61422a816140a3565b811461423557600080fd5b5056fe4f776e61626c653a206e6577206f776e657220697320746865207a65726f2061646472657373536166654d6174683a206d756c7469706c69636174696f6e206f766572666c6f77455243313135353a2073657474696e6720617070726f76616c2073746174757320666f722073656c66455243313135353a206163636f756e747320616e6420696473206c656e677468206d69736d61746368a26469706673582212203f69f362850b03b6d1f5be23e65148af6d99eb3be95f2ff9bceccc173e1ab3c964736f6c63430007060033",
  "linkReferences": {},
  "deployedLinkReferences": {}
}