{
  "_format": "hh-sol-artifact-1",
  "contractName": "Replant6",
  "sourceName": "contracts/farm/init/replant/Replant6.sol",
  "abi": [
    {
      "anonymous": false,
      "inputs": [
        {
          "indexed": true,
          "internalType": "address",
          "name": "account",
          "type": "address"
        },
        {
          "indexed": true,
          "internalType": "address",
          "name": "token",
          "type": "address"
        },
        {
          "indexed": false,
          "internalType": "uint32",
          "name": "season",
          "type": "uint32"
        },
        {
          "indexed": false,
          "internalType": "uint256",
          "name": "amount",
          "type": "uint256"
        },
        {
          "indexed": false,
          "internalType": "uint256",
          "name": "bdv",
          "type": "uint256"
        }
      ],
      "name": "AddDeposit",
      "type": "event"
    },
    {
      "anonymous": false,
      "inputs": [
        {
          "indexed": true,
          "internalType": "address",
          "name": "account",
          "type": "address"
        },
        {
          "indexed": false,
          "internalType": "uint32[]",
          "name": "crates",
          "type": "uint32[]"
        },
        {
          "indexed": false,
          "internalType": "uint256[]",
          "name": "crateLP",
          "type": "uint256[]"
        },
        {
          "indexed": false,
          "internalType": "uint256",
          "name": "lp",
          "type": "uint256"
        }
      ],
      "name": "LPRemove",
      "type": "event"
    },
    {
      "anonymous": false,
      "inputs": [
        {
          "indexed": true,
          "internalType": "address",
          "name": "account",
          "type": "address"
        },
        {
          "indexed": true,
          "internalType": "address",
          "name": "token",
          "type": "address"
        },
        {
          "indexed": false,
          "internalType": "uint32",
          "name": "season",
          "type": "uint32"
        },
        {
          "indexed": false,
          "internalType": "uint256",
          "name": "amount",
          "type": "uint256"
        }
      ],
      "name": "RemoveSeason",
      "type": "event"
    },
    {
      "anonymous": false,
      "inputs": [
        {
          "indexed": true,
          "internalType": "address",
          "name": "account",
          "type": "address"
        },
        {
          "indexed": true,
          "internalType": "address",
          "name": "token",
          "type": "address"
        },
        {
          "indexed": false,
          "internalType": "uint32[]",
          "name": "seasons",
          "type": "uint32[]"
        },
        {
          "indexed": false,
          "internalType": "uint256[]",
          "name": "amounts",
          "type": "uint256[]"
        },
        {
          "indexed": false,
          "internalType": "uint256",
          "name": "amount",
          "type": "uint256"
        }
      ],
      "name": "RemoveSeasons",
      "type": "event"
    },
    {
      "inputs": [
        {
          "components": [
            {
              "internalType": "address",
              "name": "account",
              "type": "address"
            },
            {
              "internalType": "address",
              "name": "token",
              "type": "address"
            },
            {
              "internalType": "uint32[]",
              "name": "seasons",
              "type": "uint32[]"
            },
            {
              "internalType": "uint256[]",
              "name": "amounts",
              "type": "uint256[]"
            },
            {
              "internalType": "uint256[]",
              "name": "bdv",
              "type": "uint256[]"
            },
            {
              "internalType": "uint256",
              "name": "amount",
              "type": "uint256"
            }
          ],
          "internalType": "struct Replant6.Deposit[]",
          "name": "ds",
          "type": "tuple[]"
        }
      ],
      "name": "init",
      "outputs": [],
      "stateMutability": "nonpayable",
      "type": "function"
    },
    {
      "inputs": [],
      "name": "init2",
      "outputs": [],
      "stateMutability": "nonpayable",
      "type": "function"
    }
  ],
  "bytecode": "0x608060405234801561001057600080fd5b50610b31806100206000396000f3fe608060405234801561001057600080fd5b50600436106100365760003560e01c806301fffd681461003b578063069489a214610057575b600080fd5b61005560048036038101906100509190610747565b610061565b005b61005f61039f565b005b60005b8282905081101561039a573683838381811061007c57fe5b905060200281019061008e91906109dd565b90507387898263b6c5babe34b4ec53f22d98430b91e37173ffffffffffffffffffffffffffffffffffffffff168160200160208101906100ce919061071e565b73ffffffffffffffffffffffffffffffffffffffff161415610177578060000160208101906100fd919061071e565b73ffffffffffffffffffffffffffffffffffffffff167fc27a4f3117dea0e9c70f5883ded460a4e52566f21c5aecaa68d609744e6771068280604001906101449190610986565b848060600190610154919061092f565b8660a0013560405161016a9594939291906108af565b60405180910390a2610229565b80602001602081019061018a919061071e565b73ffffffffffffffffffffffffffffffffffffffff168160000160208101906101b3919061071e565b73ffffffffffffffffffffffffffffffffffffffff167f881860be412877fda68f8ce8d200a64b4f9f28efd239c01245c9f5c70e7d194e8380604001906101fa9190610986565b85806060019061020a919061092f565b8760a001356040516102209594939291906108af565b60405180910390a35b60005b81806040019061023c9190610986565b905081101561038d5761024d610443565b73ffffffffffffffffffffffffffffffffffffffff16826000016020810190610276919061071e565b73ffffffffffffffffffffffffffffffffffffffff167fdbe49eaf5c2a8a7f65920c200ca5d47395540b884f6a1886fdb2611624f9981b8480604001906102bd9190610986565b858181106102c757fe5b90506020020160208101906102dc919061078c565b6103188660200160208101906102f2919061071e565b878060600190610302919061092f565b8881811061030c57fe5b9050602002013561045f565b61036b610323610543565b61035d61032e610553565b8a806080019061033e919061092f565b8b81811061034857fe5b9050602002013561056390919063ffffffff16565b6105e990919063ffffffff16565b60405161037a939291906108f8565b60405180910390a380600101905061022c565b5050806001019050610064565b505050565b60008060380160006103af610672565b73ffffffffffffffffffffffffffffffffffffffff1673ffffffffffffffffffffffffffffffffffffffff16815260200190815260200160002060000181905550600080603801600061040061068e565b73ffffffffffffffffffffffffffffffffffffffff1673ffffffffffffffffffffffffffffffffffffffff16815260200190815260200160002060000181905550565b6000731bea3ccd22f4ebd3d37d731ba31eeca95713716d905090565b60007387898263b6c5babe34b4ec53f22d98430b91e37173ffffffffffffffffffffffffffffffffffffffff168373ffffffffffffffffffffffffffffffffffffffff1614156104ca57670de0b6b3a7640000656d0b2f18424d8302816104c257fe5b04905061053d565b6104d2610672565b73ffffffffffffffffffffffffffffffffffffffff168373ffffffffffffffffffffffffffffffffffffffff16141561052357670de0b6b3a7640000620f232383028161051b57fe5b04905061053d565b670de0b6b3a7640000620f004483028161053957fe5b0490505b92915050565b6000670de0b6b3a7640000905090565b600067029342191969bfcd905090565b60008083141561057657600090506105e3565b600082840290508284828161058757fe5b04146105de576040517f08c379a0000000000000000000000000000000000000000000000000000000008152600401808060200182810382526021815260200180610adb6021913960400191505060405180910390fd5b809150505b92915050565b6000808211610660576040517f08c379a000000000000000000000000000000000000000000000000000000000815260040180806020018281038252601a8152602001807f536166654d6174683a206469766973696f6e206279207a65726f00000000000081525060200191505060405180910390fd5b81838161066957fe5b04905092915050565b6000733a70dfa7d2262988064a2d051dd47521e43c9bdd905090565b600073d652c40fbb3f06d6b58cb9aa9cff063ee63d465d905090565b6000813590506106b981610aac565b92915050565b60008083601f8401126106d157600080fd5b8235905067ffffffffffffffff8111156106ea57600080fd5b60208301915083602082028301111561070257600080fd5b9250929050565b60008135905061071881610ac3565b92915050565b60006020828403121561073057600080fd5b600061073e848285016106aa565b91505092915050565b6000806020838503121561075a57600080fd5b600083013567ffffffffffffffff81111561077457600080fd5b610780858286016106bf565b92509250509250929050565b60006020828403121561079e57600080fd5b60006107ac84828501610709565b91505092915050565b60006107c18383610891565b60208301905092915050565b60006107d98385610a18565b93507f07ffffffffffffffffffffffffffffffffffffffffffffffffffffffffffffff83111561080857600080fd5b602083029250610819838584610a9d565b82840190509392505050565b60006108318385610a29565b935061083c82610a01565b8060005b85811015610875576108528284610a3a565b61085c88826107b5565b975061086783610a0b565b925050600181019050610840565b5085925050509392505050565b61088b81610a83565b82525050565b61089a81610a8d565b82525050565b6108a981610a8d565b82525050565b600060608201905081810360008301526108ca818789610825565b905081810360208301526108df8185876107cd565b90506108ee6040830184610882565b9695505050505050565b600060608201905061090d60008301866108a0565b61091a6020830185610882565b6109276040830184610882565b949350505050565b6000808335600160200384360303811261094857600080fd5b80840192508235915067ffffffffffffffff82111561096657600080fd5b60208301925060208202360383131561097e57600080fd5b509250929050565b6000808335600160200384360303811261099f57600080fd5b80840192508235915067ffffffffffffffff8211156109bd57600080fd5b6020830192506020820236038313156109d557600080fd5b509250929050565b60008235600160c0038336030381126109f557600080fd5b80830191505092915050565b6000819050919050565b6000602082019050919050565b600082825260208201905092915050565b600082825260208201905092915050565b6000610a496020840184610709565b905092915050565b6000610a5c82610a63565b9050919050565b600073ffffffffffffffffffffffffffffffffffffffff82169050919050565b6000819050919050565b600063ffffffff82169050919050565b82818337600083830152505050565b610ab581610a51565b8114610ac057600080fd5b50565b610acc81610a8d565b8114610ad757600080fd5b5056fe536166654d6174683a206d756c7469706c69636174696f6e206f766572666c6f77a2646970667358221220c77836918662e07f8e5f22222cbf24089f9a0f9c6a75ee3c6da310c1d298b19464736f6c63430007060033",
  "linkReferences": {},
  "deployedLinkReferences": {}
}