{
  "_format": "hh-sol-artifact-1",
  "contractName": "Weather",
  "sourceName": "contracts/farm/facets/SeasonFacet/Weather.sol",
  "abi": [
    {
      "anonymous": false,
      "inputs": [
        {
          "indexed": true,
          "internalType": "uint32",
          "name": "season",
          "type": "uint32"
        },
        {
          "indexed": false,
          "internalType": "int256",
          "name": "deltaB",
          "type": "int256"
        },
        {
          "indexed": false,
          "internalType": "uint256[2]",
          "name": "balances",
          "type": "uint256[2]"
        }
      ],
      "name": "MetapoolOracle",
      "type": "event"
    },
    {
      "anonymous": false,
      "inputs": [
        {
          "indexed": true,
          "internalType": "uint32",
          "name": "season",
          "type": "uint32"
        },
        {
          "indexed": false,
          "internalType": "uint256",
          "name": "toField",
          "type": "uint256"
        },
        {
          "indexed": false,
          "internalType": "uint256",
          "name": "toSilo",
          "type": "uint256"
        },
        {
          "indexed": false,
          "internalType": "uint256",
          "name": "toFertilizer",
          "type": "uint256"
        }
      ],
      "name": "Reward",
      "type": "event"
    },
    {
      "anonymous": false,
      "inputs": [
        {
          "indexed": true,
          "internalType": "uint256",
          "name": "season",
          "type": "uint256"
        },
        {
          "indexed": false,
          "internalType": "uint256",
          "name": "amount",
          "type": "uint256"
        },
        {
          "indexed": false,
          "internalType": "uint256",
          "name": "toField",
          "type": "uint256"
        }
      ],
      "name": "SeasonOfPlenty",
      "type": "event"
    },
    {
      "anonymous": false,
      "inputs": [
        {
          "indexed": true,
          "internalType": "uint32",
          "name": "season",
          "type": "uint32"
        },
        {
          "indexed": false,
          "internalType": "uint256",
          "name": "soil",
          "type": "uint256"
        }
      ],
      "name": "Soil",
      "type": "event"
    },
    {
      "anonymous": false,
      "inputs": [
        {
          "indexed": true,
          "internalType": "uint256",
          "name": "season",
          "type": "uint256"
        },
        {
          "indexed": false,
          "internalType": "uint256",
          "name": "caseId",
          "type": "uint256"
        },
        {
          "indexed": false,
          "internalType": "int8",
          "name": "change",
          "type": "int8"
        }
      ],
      "name": "WeatherChange",
      "type": "event"
    },
    {
      "inputs": [
        {
          "internalType": "uint32",
          "name": "season",
          "type": "uint32"
        }
      ],
      "name": "plentyPerRoot",
      "outputs": [
        {
          "internalType": "uint256",
          "name": "",
          "type": "uint256"
        }
      ],
      "stateMutability": "view",
      "type": "function"
    },
    {
      "inputs": [
        {
          "internalType": "address",
          "name": "pool",
          "type": "address"
        }
      ],
      "name": "poolDeltaB",
      "outputs": [
        {
          "internalType": "int256",
          "name": "deltaB",
          "type": "int256"
        }
      ],
      "stateMutability": "view",
      "type": "function"
    },
    {
      "inputs": [],
      "name": "rain",
      "outputs": [
        {
          "components": [
            {
              "internalType": "uint256",
              "name": "depreciated",
              "type": "uint256"
            },
            {
              "internalType": "uint256",
              "name": "pods",
              "type": "uint256"
            },
            {
              "internalType": "uint256",
              "name": "roots",
              "type": "uint256"
            }
          ],
          "internalType": "struct Storage.Rain",
          "name": "",
          "type": "tuple"
        }
      ],
      "stateMutability": "view",
      "type": "function"
    },
    {
      "inputs": [],
      "name": "totalDeltaB",
      "outputs": [
        {
          "internalType": "int256",
          "name": "deltaB",
          "type": "int256"
        }
      ],
      "stateMutability": "view",
      "type": "function"
    },
    {
      "inputs": [],
      "name": "weather",
      "outputs": [
        {
          "components": [
            {
              "internalType": "uint256",
              "name": "startSoil",
              "type": "uint256"
            },
            {
              "internalType": "uint256",
              "name": "lastDSoil",
              "type": "uint256"
            },
            {
              "internalType": "uint96",
              "name": "lastSoilPercent",
              "type": "uint96"
            },
            {
              "internalType": "uint32",
              "name": "lastSowTime",
              "type": "uint32"
            },
            {
              "internalType": "uint32",
              "name": "nextSowTime",
              "type": "uint32"
            },
            {
              "internalType": "uint32",
              "name": "yield",
              "type": "uint32"
            },
            {
              "internalType": "bool",
              "name": "didSowBelowMin",
              "type": "bool"
            },
            {
              "internalType": "bool",
              "name": "didSowFaster",
              "type": "bool"
            }
          ],
          "internalType": "struct Storage.Weather",
          "name": "",
          "type": "tuple"
        }
      ],
      "stateMutability": "view",
      "type": "function"
    },
    {
      "inputs": [],
      "name": "yield",
      "outputs": [
        {
          "internalType": "uint32",
          "name": "",
          "type": "uint32"
        }
      ],
      "stateMutability": "view",
      "type": "function"
    }
  ],
  "bytecode": "0x608060405234801561001057600080fd5b50611496806100206000396000f3fe608060405234801561001057600080fd5b50600436106100625760003560e01c806306c499d814610067578063285939841461008557806343def26e146100a3578063471bcdbe146100c1578063686b6159146100f1578063e60d7a831461010f575b600080fd5b61006f61013f565b60405161007c919061124e565b60405180910390f35b61008d61014e565b60405161009a91906112fb565b60405180910390f35b6100ab61016d565b6040516100b891906112a9565b60405180910390f35b6100db60048036038101906100d69190610fdd565b6101a8565b6040516100e8919061124e565b60405180910390f35b6100f961023b565b60405161010691906112c4565b60405180910390f35b61012960048036038101906101249190611058565b610353565b60405161013691906112e0565b60405180910390f35b600061014961037e565b905090565b600080601f0160020160149054906101000a900463ffffffff16905090565b610175610e68565b60006018016040518060600160405290816000820154815260200160018201548152602001600282015481525050905090565b60006101b2610436565b73ffffffffffffffffffffffffffffffffffffffff168273ffffffffffffffffffffffffffffffffffffffff1614156101f4576101ed61037e565b9050610236565b6000610235576040517f08c379a000000000000000000000000000000000000000000000000000000000815260040161022c90611269565b60405180910390fd5b5b919050565b610243610e89565b6000601f016040518061010001604052908160008201548152602001600182015481526020016002820160009054906101000a90046bffffffffffffffffffffffff166bffffffffffffffffffffffff166bffffffffffffffffffffffff16815260200160028201600c9054906101000a900463ffffffff1663ffffffff1663ffffffff1681526020016002820160109054906101000a900463ffffffff1663ffffffff1663ffffffff1681526020016002820160149054906101000a900463ffffffff1663ffffffff1663ffffffff1681526020016002820160189054906101000a900460ff161515151581526020016002820160199054906101000a900460ff161515151581525050905090565b600080603d0160008363ffffffff1663ffffffff168152602001908152602001600020549050919050565b600080610389610452565b90508060140160000160009054906101000a900460ff161561042d5760006103af610457565b50905060006103fb8360140160000160019054906101000a900463ffffffff168460030160000160009054906101000a900463ffffffff1663ffffffff166104a990919063ffffffff16565b63ffffffff169050606481136104115780610414565b60645b905060648183028161042257fe5b059350505050610433565b60009150505b90565b600073c9c32cd16bf7efb85ff14e0c8603cc90f6f2ee49905090565b600090565b6000610461610ef2565b610469610ef2565b610471610538565b80935081925050506000610484826108ac565b90506104a18260006002811061049657fe5b6020020151826108cc565b935050509091565b60008263ffffffff168263ffffffff16111561052d576040517f08c379a000000000000000000000000000000000000000000000000000000000815260040180806020018281038252601e8152602001807f536166654d6174683a207375627472616374696f6e206f766572666c6f77000081525060200191505060405180910390fd5b818303905092915050565b610540610ef2565b610548610ef2565b610550610436565b73ffffffffffffffffffffffffffffffffffffffff16634469e30e6040518163ffffffff1660e01b8152600401604080518083038186803b15801561059457600080fd5b505afa1580156105a8573d6000803e3d6000fd5b505050506040513d601f19601f820116820180604052508101906105cc9190611006565b90506105d6610436565b73ffffffffffffffffffffffffffffffffffffffff166314f059796040518163ffffffff1660e01b8152600401604080518083038186803b15801561061a57600080fd5b505afa15801561062e573d6000803e3d6000fd5b505050506040513d601f19601f820116820180604052508101906106529190611006565b9150600061065e610436565b73ffffffffffffffffffffffffffffffffffffffff166363543f066040518163ffffffff1660e01b815260040160206040518083038186803b1580156106a357600080fd5b505afa1580156106b7573d6000803e3d6000fd5b505050506040513d601f19601f820116820180604052508101906106db919061102f565b90506107366107166106f683426108f690919063ffffffff16565b8560006002811061070357fe5b602002015161097990919063ffffffff16565b8360006002811061072357fe5b60200201516109ff90919063ffffffff16565b8260006002811061074357fe5b6020020181815250506107a561078561076583426108f690919063ffffffff16565b8560016002811061077257fe5b602002015161097990919063ffffffff16565b8360016002811061079257fe5b60200201516109ff90919063ffffffff16565b826001600281106107b257fe5b60200201818152505060006107c5610452565b9050600081601401905060006107e88260030154426108f690919063ffffffff16565b9050610831816108238460010160006002811061080157fe5b01548860006002811061081057fe5b60200201516108f690919063ffffffff16565b610a8790919063ffffffff16565b8660006002811061083e57fe5b60200201818152505061088e816108808460010160016002811061085e57fe5b01548860016002811061086d57fe5b60200201516108f690919063ffffffff16565b610a8790919063ffffffff16565b8660016002811061089b57fe5b602002018181525050505050509091565b60006108c56108b9610436565b8364e8d4a51000610b10565b9050919050565b60008064e8d4a51000600284816108df57fe5b04816108e757fe5b04905083810391505092915050565b60008282111561096e576040517f08c379a000000000000000000000000000000000000000000000000000000000815260040180806020018281038252601e8152602001807f536166654d6174683a207375627472616374696f6e206f766572666c6f77000081525060200191505060405180910390fd5b818303905092915050565b60008083141561098c57600090506109f9565b600082840290508284828161099d57fe5b04146109f4576040517f08c379a00000000000000000000000000000000000000000000000000000000081526004018080602001828103825260218152602001806114406021913960400191505060405180910390fd5b809150505b92915050565b600080828401905083811015610a7d576040517f08c379a000000000000000000000000000000000000000000000000000000000815260040180806020018281038252601b8152602001807f536166654d6174683a206164646974696f6e206f766572666c6f77000000000081525060200191505060405180910390fd5b8091505092915050565b6000808211610afe576040517f08c379a000000000000000000000000000000000000000000000000000000000815260040180806020018281038252601a8152602001807f536166654d6174683a206469766973696f6e206279207a65726f00000000000081525060200191505060405180910390fd5b818381610b0757fe5b04905092915050565b6000610ba2610b1f8484610bab565b8573ffffffffffffffffffffffffffffffffffffffff166376a2f0f06040518163ffffffff1660e01b815260040160206040518083038186803b158015610b6557600080fd5b505afa158015610b79573d6000803e3d6000fd5b505050506040513d601f19601f82011682018060405250810190610b9d919061102f565b610c4a565b90509392505050565b610bb3610ef2565b610c428383610bc0610daf565b73ffffffffffffffffffffffffffffffffffffffff1663bb7b8b806040518163ffffffff1660e01b815260040160206040518083038186803b158015610c0557600080fd5b505afa158015610c19573d6000803e3d6000fd5b505050506040513d601f19601f82011682018060405250810190610c3d919061102f565b610dcb565b905092915050565b6000806000805b6002811015610c7a57858160028110610c6657fe5b602002015183019250806001019050610c51565b506000821415610c8f57600092505050610da9565b819250600060028502905060005b610100811015610d5f57600085905060005b6002811015610ce4576002898260028110610cc657fe5b60200201510287830281610cd657fe5b049150806001019050610caf565b5085935080600160020102606487606486030281610cfe57fe5b04018660028302606488870281610d1157fe5b04010281610d1b57fe5b0495508386118015610d305750600184870311155b15610d3f575050505050610da9565b600186850311610d53575050505050610da9565b50806001019050610c9d565b506000610da1576040517f08c379a0000000000000000000000000000000000000000000000000000000008152600401610d9890611289565b60405180910390fd5b600093505050505b92915050565b600073bebc44782c7db0a1a60cb6fe97d0b483032ff1c7905090565b610dd3610ef2565b610df78385600060028110610de457fe5b602002015161097990919063ffffffff16565b81600060028110610e0457fe5b602002018181525050610e4b670de0b6b3a7640000610e3d8487600160028110610e2a57fe5b602002015161097990919063ffffffff16565b610a8790919063ffffffff16565b81600160028110610e5857fe5b6020020181815250509392505050565b60405180606001604052806000815260200160008152602001600081525090565b604051806101000160405280600081526020016000815260200160006bffffffffffffffffffffffff168152602001600063ffffffff168152602001600063ffffffff168152602001600063ffffffff1681526020016000151581526020016000151581525090565b6040518060400160405280600290602082028036833780820191505090505090565b6000610f27610f2284611347565b611316565b90508082856020860282011115610f3d57600080fd5b60005b85811015610f6d5781610f538882610fb3565b845260208401935060208301925050600181019050610f40565b5050509392505050565b600081359050610f86816113fa565b92915050565b600082601f830112610f9d57600080fd5b6002610faa848285610f14565b91505092915050565b600081519050610fc281611411565b92915050565b600081359050610fd781611428565b92915050565b600060208284031215610fef57600080fd5b6000610ffd84828501610f77565b91505092915050565b60006040828403121561101857600080fd5b600061102684828501610f8c565b91505092915050565b60006020828403121561104157600080fd5b600061104f84828501610fb3565b91505092915050565b60006020828403121561106a57600080fd5b600061107884828501610fc8565b91505092915050565b61108a81611390565b82525050565b6110998161139c565b82525050565b60006110ac601a8361136d565b91507f4f7261636c653a20506f6f6c206e6f7420737570706f727465640000000000006000830152602082019050919050565b60006110ec60188361136d565b91507f50726963653a20436f6e76657267656e63652066616c736500000000000000006000830152602082019050919050565b6060820160008201516111356000850182611203565b5060208201516111486020850182611203565b50604082015161115b6040850182611203565b50505050565b610100820160008201516111786000850182611203565b50602082015161118b6020850182611203565b50604082015161119e604085018261123f565b5060608201516111b16060850182611221565b5060808201516111c46080850182611221565b5060a08201516111d760a0850182611221565b5060c08201516111ea60c0850182611081565b5060e08201516111fd60e0850182611081565b50505050565b61120c816113c6565b82525050565b61121b816113c6565b82525050565b61122a816113d0565b82525050565b611239816113d0565b82525050565b611248816113e0565b82525050565b60006020820190506112636000830184611090565b92915050565b600060208201905081810360008301526112828161109f565b9050919050565b600060208201905081810360008301526112a2816110df565b9050919050565b60006060820190506112be600083018461111f565b92915050565b6000610100820190506112da6000830184611161565b92915050565b60006020820190506112f56000830184611212565b92915050565b60006020820190506113106000830184611230565b92915050565b6000604051905081810181811067ffffffffffffffff8211171561133d5761133c6113f8565b5b8060405250919050565b600067ffffffffffffffff821115611362576113616113f8565b5b602082029050919050565b600082825260208201905092915050565b6000611389826113a6565b9050919050565b60008115159050919050565b6000819050919050565b600073ffffffffffffffffffffffffffffffffffffffff82169050919050565b6000819050919050565b600063ffffffff82169050919050565b60006bffffffffffffffffffffffff82169050919050565bfe5b6114038161137e565b811461140e57600080fd5b50565b61141a816113c6565b811461142557600080fd5b50565b611431816113d0565b811461143c57600080fd5b5056fe536166654d6174683a206d756c7469706c69636174696f6e206f766572666c6f77a26469706673582212207a4d0ba65569d66a296769f3ae181187c02b6ba8a454e4bccc0d58206f95ba4964736f6c63430007060033",
  "linkReferences": {},
  "deployedLinkReferences": {}
}