{
  "_format": "hh-sol-artifact-1",
  "contractName": "ConvertFacet",
  "sourceName": "contracts/farm/facets/ConvertFacet.sol",
  "abi": [
    {
      "anonymous": false,
      "inputs": [
        {
          "indexed": true,
          "internalType": "address",
          "name": "account",
          "type": "address"
        },
        {
          "indexed": false,
          "internalType": "address",
          "name": "fromToken",
          "type": "address"
        },
        {
          "indexed": false,
          "internalType": "address",
          "name": "toToken",
          "type": "address"
        },
        {
          "indexed": false,
          "internalType": "uint256",
          "name": "fromAmount",
          "type": "uint256"
        },
        {
          "indexed": false,
          "internalType": "uint256",
          "name": "toAmount",
          "type": "uint256"
        }
      ],
      "name": "Convert",
      "type": "event"
    },
    {
      "anonymous": false,
      "inputs": [
        {
          "indexed": true,
          "internalType": "address",
          "name": "account",
          "type": "address"
        },
        {
          "indexed": true,
          "internalType": "address",
          "name": "token",
          "type": "address"
        },
        {
          "indexed": false,
          "internalType": "uint32[]",
          "name": "seasons",
          "type": "uint32[]"
        },
        {
          "indexed": false,
          "internalType": "uint256[]",
          "name": "amounts",
          "type": "uint256[]"
        },
        {
          "indexed": false,
          "internalType": "uint256",
          "name": "amount",
          "type": "uint256"
        }
      ],
      "name": "RemoveDeposits",
      "type": "event"
    },
    {
      "inputs": [
        {
          "internalType": "bytes",
          "name": "convertData",
          "type": "bytes"
        },
        {
          "internalType": "uint32[]",
          "name": "crates",
          "type": "uint32[]"
        },
        {
          "internalType": "uint256[]",
          "name": "amounts",
          "type": "uint256[]"
        }
      ],
      "name": "convert",
      "outputs": [],
      "stateMutability": "payable",
      "type": "function"
    },
    {
      "inputs": [
        {
          "internalType": "address",
          "name": "tokenIn",
          "type": "address"
        },
        {
          "internalType": "address",
          "name": "tokenOut",
          "type": "address"
        },
        {
          "internalType": "uint256",
          "name": "amountIn",
          "type": "uint256"
        }
      ],
      "name": "getAmountOut",
      "outputs": [
        {
          "internalType": "uint256",
          "name": "amountOut",
          "type": "uint256"
        }
      ],
      "stateMutability": "view",
      "type": "function"
    },
    {
      "inputs": [
        {
          "internalType": "address",
          "name": "tokenIn",
          "type": "address"
        },
        {
          "internalType": "address",
          "name": "tokenOut",
          "type": "address"
        }
      ],
      "name": "getMaxAmountIn",
      "outputs": [
        {
          "internalType": "uint256",
          "name": "amountIn",
          "type": "uint256"
        }
      ],
      "stateMutability": "view",
      "type": "function"
    }
  ],
  "bytecode": "0x608060405234801561001057600080fd5b50616f4680620000216000396000f3fe6080604052600436106100345760003560e01c806324dd285c146100395780633b2a1b28146100765780634aa0665214610092575b600080fd5b34801561004557600080fd5b50610060600480360381019061005b9190616087565b6100cf565b60405161006d9190616b94565b60405180910390f35b610090600480360381019061008b919061613b565b6100e3565b005b34801561009e57600080fd5b506100b960048036038101906100b491906160c3565b610205565b6040516100c69190616b94565b60405180910390f35b60006100db838361021b565b905092915050565b60026000601e0154141561012c576040517f08c379a000000000000000000000000000000000000000000000000000000000815260040161012390616b34565b60405180910390fd5b60026000601e018190555061014033610495565b600080600080610150888861066d565b93509350935093506000806101678589898661090f565b9150915060006101778786610d99565b90506000828211610188578261018a565b815b905061019888878387610f09565b3373ffffffffffffffffffffffffffffffffffffffff167f3f7117900f070f33613da64255c3e8a5b791ff071197653712e53fde9c3dab3d888a888a6040516101e494939291906168ab565b60405180910390a2505050505050505060016000601e018190555050505050565b600061021284848461106a565b90509392505050565b60006102256112e9565b73ffffffffffffffffffffffffffffffffffffffff168373ffffffffffffffffffffffffffffffffffffffff161480156102915750610262611305565b73ffffffffffffffffffffffffffffffffffffffff168273ffffffffffffffffffffffffffffffffffffffff16145b156102ad576102a66102a16112e9565b611321565b905061048f565b6102b5611305565b73ffffffffffffffffffffffffffffffffffffffff168373ffffffffffffffffffffffffffffffffffffffff1614801561032157506102f26112e9565b73ffffffffffffffffffffffffffffffffffffffff168273ffffffffffffffffffffffffffffffffffffffff16145b1561033d576103366103316112e9565b6113e8565b905061048f565b6103456114c9565b73ffffffffffffffffffffffffffffffffffffffff168373ffffffffffffffffffffffffffffffffffffffff161480156103b157506103826114e5565b73ffffffffffffffffffffffffffffffffffffffff168273ffffffffffffffffffffffffffffffffffffffff16145b156103c5576103be611501565b905061048f565b6103cd6114e5565b73ffffffffffffffffffffffffffffffffffffffff168373ffffffffffffffffffffffffffffffffffffffff16148015610439575061040a6114c9565b73ffffffffffffffffffffffffffffffffffffffff168273ffffffffffffffffffffffffffffffffffffffff16145b1561044d5761044661152d565b905061048f565b600061048e576040517f08c379a000000000000000000000000000000000000000000000000000000000815260040161048590616af4565b60405180910390fd5b5b92915050565b6000807fc8fcad8db84d3cc18b4c41d551ea0ee66dd599cde068d998e57d5e09332c131c90508091506000826000016000631c1b877260e01b7bffffffffffffffffffffffffffffffffffffffffffffffffffffffff19167bffffffffffffffffffffffffffffffffffffffffffffffffffffffff1916815260200190815260200160002060000160009054906101000a900473ffffffffffffffffffffffffffffffffffffffff1690506000631c1b877260e01b8560405160240161055b9190616890565b604051602081830303815290604052907bffffffffffffffffffffffffffffffffffffffffffffffffffffffff19166020820180517bffffffffffffffffffffffffffffffffffffffffffffffffffffffff8381831617835250505050905060008273ffffffffffffffffffffffffffffffffffffffff16826040516105e19190616879565b600060405180830381855af49150503d806000811461061c576040519150601f19603f3d011682016040523d82523d6000602084013e610621565b606091505b5050905080610665576040517f08c379a000000000000000000000000000000000000000000000000000000000815260040161065c90616a54565b60405180910390fd5b505050505050565b60008060008060006106c287878080601f016020809104026020016040519081016040528093929190818152602001838380828437600081840152601f19601f82011690508083019250505050505050611559565b9050600060038111156106d157fe5b8160038111156106dd57fe5b14156107455761073087878080601f016020809104026020016040519081016040528093929190818152602001838380828437600081840152601f19601f82011690508083019250505050505050611576565b80955081965082975083985050505050610905565b6001600381111561075257fe5b81600381111561075e57fe5b14156107c6576107b187878080601f016020809104026020016040519081016040528093929190818152602001838380828437600081840152601f19601f820116905080830192505050505050506115ba565b80955081965082975083985050505050610904565b600260038111156107d357fe5b8160038111156107df57fe5b14156108475761083287878080601f016020809104026020016040519081016040528093929190818152602001838380828437600081840152601f19601f820116905080830192505050505050506115fe565b80955081965082975083985050505050610903565b60038081111561085357fe5b81600381111561085f57fe5b14156108c7576108b287878080601f016020809104026020016040519081016040528093929190818152602001838380828437600081840152601f19601f820116905080830192505050505050506117cc565b80955081965082975083985050505050610902565b6040517f08c379a00000000000000000000000000000000000000000000000000000000081526004016108f990616ad4565b60405180910390fd5b5b5b5b5092959194509250565b6000808351855114610956576040517f08c379a000000000000000000000000000000000000000000000000000000000815260040161094d90616a34565b60405180910390fd5b61095e615dc6565b600080600090505b8751811080156109795750858360000151105b15610b1157856109a988838151811061098e57fe5b6020026020010151856000015161199a90919063ffffffff16565b10156109e8576109e1338a8a84815181106109c057fe5b60200260200101518a85815181106109d457fe5b6020026020010151611a22565b9150610a4c565b6109ff8360000151876121f890919063ffffffff16565b878281518110610a0b57fe5b602002602001018181525050610a49338a8a8481518110610a2857fe5b60200260200101518a8581518110610a3c57fe5b6020026020010151611a22565b91505b610a76878281518110610a5b57fe5b6020026020010151846000015161199a90919063ffffffff16565b836000018181525050610a9682846040015161199a90919063ffffffff16565b836040018181525050610afb610ae8898381518110610ab157fe5b6020026020010151600060030160000160009054906101000a900463ffffffff160363ffffffff168461227b90919063ffffffff16565b846020015161199a90919063ffffffff16565b8360200181815250508080600101915050610966565b5b8751811015610b40576000878281518110610b2957fe5b602002602001018181525050806001019050610b12565b8873ffffffffffffffffffffffffffffffffffffffff163373ffffffffffffffffffffffffffffffffffffffff167f5546b2ec4df884f6457f3f55f277a96bceff5c3d163925fd706cfc65c3bc5bc38a8a8760000151604051610ba59392919061696b565b60405180910390a385836000015114610bf3576040517f08c379a0000000000000000000000000000000000000000000000000000000008152600401610bea90616a74565b60405180910390fd5b610c65600060390160008b73ffffffffffffffffffffffffffffffffffffffff1673ffffffffffffffffffffffffffffffffffffffff16815260200190815260200160002060000160049054906101000a900463ffffffff1663ffffffff16846020015161227b90919063ffffffff16565b836020018181525050610c7c898460000151612301565b610d7f33610cf2600060390160008d73ffffffffffffffffffffffffffffffffffffffff1673ffffffffffffffffffffffffffffffffffffffff16815260200190815260200160002060000160049054906101000a900463ffffffff1663ffffffff16866040015161227b90919063ffffffff16565b610d7a610d67600060390160008f73ffffffffffffffffffffffffffffffffffffffff1673ffffffffffffffffffffffffffffffffffffffff16815260200190815260200160002060000160089054906101000a900463ffffffff1663ffffffff16886040015161227b90919063ffffffff16565b876020015161199a90919063ffffffff16565b6123b1565b826020015183604001519450945050505094509492505050565b600080610da46123ca565b905060008160390160008673ffffffffffffffffffffffffffffffffffffffff1673ffffffffffffffffffffffffffffffffffffffff16815260200190815260200160002060000160009054906101000a900460e01b84604051602401610e0b9190616b94565b604051602081830303815290604052907bffffffffffffffffffffffffffffffffffffffffffffffffffffffff19166020820180517bffffffffffffffffffffffffffffffffffffffffffffffffffffffff838183161783525050505090506000803073ffffffffffffffffffffffffffffffffffffffff1683604051610e929190616879565b6000604051808303816000865af19150503d8060008114610ecf576040519150601f19603f3d011682016040523d82523d6000602084013e610ed4565b606091505b509150915081610ef557600081511415610eed57600080fd5b805181602001fd5b600060200181015194505050505092915050565b600082118015610f195750600083115b610f58576040517f08c379a0000000000000000000000000000000000000000000000000000000008152600401610f4f90616b74565b60405180910390fd5b6000610f75610f66866123cf565b8461227b90919063ffffffff16565b9050600080831115610ff257610f94828461243f90919063ffffffff16565b905060008060030160000160009054906101000a900463ffffffff1690508063ffffffff168263ffffffff1610610fcc576001810391505b610fe5838363ffffffff1661227b90919063ffffffff16565b935081810391505061100e565b600060030160000160009054906101000a900463ffffffff1690505b600061103d8461102f6110208a6124c8565b8861227b90919063ffffffff16565b61199a90919063ffffffff16565b905061104a338483612538565b6110548787612551565b6110613388848989612601565b50505050505050565b60006110746112e9565b73ffffffffffffffffffffffffffffffffffffffff168473ffffffffffffffffffffffffffffffffffffffff161480156110e057506110b1611305565b73ffffffffffffffffffffffffffffffffffffffff168373ffffffffffffffffffffffffffffffffffffffff16145b156110fd576110f66110f06112e9565b83612870565b90506112e2565b611105611305565b73ffffffffffffffffffffffffffffffffffffffff168473ffffffffffffffffffffffffffffffffffffffff1614801561117157506111426112e9565b73ffffffffffffffffffffffffffffffffffffffff168373ffffffffffffffffffffffffffffffffffffffff16145b1561118e576111876111816112e9565b83612906565b90506112e2565b6111966114c9565b73ffffffffffffffffffffffffffffffffffffffff168473ffffffffffffffffffffffffffffffffffffffff1614801561120257506111d36114e5565b73ffffffffffffffffffffffffffffffffffffffff168373ffffffffffffffffffffffffffffffffffffffff16145b1561121757611210826129b1565b90506112e2565b61121f6114e5565b73ffffffffffffffffffffffffffffffffffffffff168473ffffffffffffffffffffffffffffffffffffffff1614801561128b575061125c6114c9565b73ffffffffffffffffffffffffffffffffffffffff168373ffffffffffffffffffffffffffffffffffffffff16145b156112a05761129982612a25565b90506112e2565b60006112e1576040517f08c379a00000000000000000000000000000000000000000000000000000000081526004016112d890616af4565b60405180910390fd5b5b9392505050565b600073c9c32cd16bf7efb85ff14e0c8603cc90f6f2ee49905090565b600073bea0000029ad1c77d3d5d23ba2d8893db9d1efab905090565b6000808273ffffffffffffffffffffffffffffffffffffffff166314f059796040518163ffffffff1660e01b8152600401604080518083038186803b15801561136957600080fd5b505afa15801561137d573d6000803e3d6000fd5b505050506040513d601f19601f820116820180604052508101906113a19190616112565b905060006113af8483612a99565b905080826000600281106113bf57fe5b6020020151116113d4576000925050506113e3565b6113de8282612b27565b925050505b919050565b6000808273ffffffffffffffffffffffffffffffffffffffff166314f059796040518163ffffffff1660e01b8152600401604080518083038186803b15801561143057600080fd5b505afa158015611444573d6000803e3d6000fd5b505050506040513d601f19601f820116820180604052508101906114689190616112565b905060006114768483612a99565b90508160006002811061148557fe5b6020020151811161149b576000925050506114c4565b6114bf826000600281106114ab57fe5b6020020151826121f890919063ffffffff16565b925050505b919050565b6000731bea3ccd22f4ebd3d37d731ba31eeca95713716d905090565b6000731bea0050e63e05fbb5d8ba2f10cf5800b6224449905090565b60008061151461150f6112e9565b611321565b90506115276115216114c9565b82612c1a565b91505090565b60008061154061153b6112e9565b6113e8565b905061155361154d6114e5565b82612c1a565b91505090565b60008180602001905181019061156f91906161d7565b9050919050565b600080600080600080600061158a88612d16565b92509250925061159b838383612d46565b80955081965050508096506115ae611305565b95505050509193509193565b60008060008060008060006115ce88612d16565b9250925092506115df838383612e57565b80955081965050506115ef611305565b96508095505050509193509193565b60008060008061160c6114e5565b92506116166114c9565b935060008061162487612f56565b915091506000611666611635612f7d565b611658611640613044565b61164a8b8761314e565b61227b90919063ffffffff16565b61243f90919063ffffffff16565b9050600080611686611678898761314e565b846116816112e9565b612d46565b915091506116948882612c1a565b95506116a0888261324a565b8773ffffffffffffffffffffffffffffffffffffffff166342966c68876040518263ffffffff1660e01b81526004016116d99190616b94565b600060405180830381600087803b1580156116f357600080fd5b505af1158015611707573d6000803e3d6000fd5b50505050611747611716613044565b611739611721612f7d565b61172b8d87612c1a565b61227b90919063ffffffff16565b61243f90919063ffffffff16565b96506117538983613339565b8873ffffffffffffffffffffffffffffffffffffffff166340c10f1930896040518363ffffffff1660e01b815260040161178e9291906168f0565b600060405180830381600087803b1580156117a857600080fd5b505af11580156117bc573d6000803e3d6000fd5b5050505050505050509193509193565b6000806000806117da6114e5565b93506117e46114c9565b92506000806117f287612f56565b915091506000611834611803613044565b61182661180e612f7d565b6118188b8761314e565b61227b90919063ffffffff16565b61243f90919063ffffffff16565b9050600080611854611846898761314e565b8461184f6112e9565b612e57565b915091506118628882612c1a565b955061186e888261324a565b8773ffffffffffffffffffffffffffffffffffffffff166342966c68876040518263ffffffff1660e01b81526004016118a79190616b94565b600060405180830381600087803b1580156118c157600080fd5b505af11580156118d5573d6000803e3d6000fd5b505050506119156118e4612f7d565b6119076118ef613044565b6118f98d87612c1a565b61227b90919063ffffffff16565b61243f90919063ffffffff16565b96506119218983613339565b8873ffffffffffffffffffffffffffffffffffffffff166340c10f1930896040518363ffffffff1660e01b815260040161195c9291906168f0565b600060405180830381600087803b15801561197657600080fd5b505af115801561198a573d6000803e3d6000fd5b5050505050505050509193509193565b600080828401905083811015611a18576040517f08c379a000000000000000000000000000000000000000000000000000000000815260040180806020018281038252601b8152602001807f536166654d6174683a206164646974696f6e206f766572666c6f77000000000081525060200191505060405180910390fd5b8091505092915050565b600080611a2d6123ca565b905060008160310160008873ffffffffffffffffffffffffffffffffffffffff1673ffffffffffffffffffffffffffffffffffffffff16815260200190815260200160002060100160008773ffffffffffffffffffffffffffffffffffffffff1673ffffffffffffffffffffffffffffffffffffffff16815260200190815260200160002060008663ffffffff1663ffffffff16815260200190815260200160002060000160009054906101000a90046fffffffffffffffffffffffffffffffff168260310160008973ffffffffffffffffffffffffffffffffffffffff1673ffffffffffffffffffffffffffffffffffffffff16815260200190815260200160002060100160008873ffffffffffffffffffffffffffffffffffffffff1673ffffffffffffffffffffffffffffffffffffffff16815260200190815260200160002060008763ffffffff1663ffffffff16815260200190815260200160002060000160109054906101000a90046fffffffffffffffffffffffffffffffff16816fffffffffffffffffffffffffffffffff169150806fffffffffffffffffffffffffffffffff16905080945081925050508084101561204c576000611c0e82611c00868861227b90919063ffffffff16565b61243f90919063ffffffff16565b90506000611cf4828560310160008c73ffffffffffffffffffffffffffffffffffffffff1673ffffffffffffffffffffffffffffffffffffffff16815260200190815260200160002060100160008b73ffffffffffffffffffffffffffffffffffffffff1673ffffffffffffffffffffffffffffffffffffffff16815260200190815260200160002060008a63ffffffff1663ffffffff16815260200190815260200160002060000160109054906101000a90046fffffffffffffffffffffffffffffffff166fffffffffffffffffffffffffffffffff166121f890919063ffffffff16565b90506000611dda878660310160008d73ffffffffffffffffffffffffffffffffffffffff1673ffffffffffffffffffffffffffffffffffffffff16815260200190815260200160002060100160008c73ffffffffffffffffffffffffffffffffffffffff1673ffffffffffffffffffffffffffffffffffffffff16815260200190815260200160002060008b63ffffffff1663ffffffff16815260200190815260200160002060000160009054906101000a90046fffffffffffffffffffffffffffffffff166fffffffffffffffffffffffffffffffff166121f890919063ffffffff16565b90507fffffffffffffffffffffffffffffffffffffffffffffffffffffffffffffffff6fffffffffffffffffffffffffffffffff168211158015611e5057507fffffffffffffffffffffffffffffffffffffffffffffffffffffffffffffffff6fffffffffffffffffffffffffffffffff168111155b611e8f576040517f08c379a0000000000000000000000000000000000000000000000000000000008152600401611e8690616a14565b60405180910390fd5b808560310160008c73ffffffffffffffffffffffffffffffffffffffff1673ffffffffffffffffffffffffffffffffffffffff16815260200190815260200160002060100160008b73ffffffffffffffffffffffffffffffffffffffff1673ffffffffffffffffffffffffffffffffffffffff16815260200190815260200160002060008a63ffffffff1663ffffffff16815260200190815260200160002060000160006101000a8154816fffffffffffffffffffffffffffffffff02191690836fffffffffffffffffffffffffffffffff160217905550818560310160008c73ffffffffffffffffffffffffffffffffffffffff1673ffffffffffffffffffffffffffffffffffffffff16815260200190815260200160002060100160008b73ffffffffffffffffffffffffffffffffffffffff1673ffffffffffffffffffffffffffffffffffffffff16815260200190815260200160002060008a63ffffffff1663ffffffff16815260200190815260200160002060000160106101000a8154816fffffffffffffffffffffffffffffffff02191690836fffffffffffffffffffffffffffffffff16021790555082955050505050506121f0565b600081111561213d578160310160008873ffffffffffffffffffffffffffffffffffffffff1673ffffffffffffffffffffffffffffffffffffffff16815260200190815260200160002060100160008773ffffffffffffffffffffffffffffffffffffffff1673ffffffffffffffffffffffffffffffffffffffff16815260200190815260200160002060008663ffffffff1663ffffffff168152602001908152602001600020600080820160006101000a8154906fffffffffffffffffffffffffffffffff02191690556000820160106101000a8154906fffffffffffffffffffffffffffffffff021916905550505b808411156121ed57808403935061215386613428565b1561217e57612175612166888787613467565b8461199a90919063ffffffff16565b925050506121f0565b612187866134b1565b156121b2576121a961219a8887876134f0565b8461199a90919063ffffffff16565b925050506121f0565b6040517f08c379a00000000000000000000000000000000000000000000000000000000081526004016121e490616ab4565b60405180910390fd5b50505b949350505050565b600082821115612270576040517f08c379a000000000000000000000000000000000000000000000000000000000815260040180806020018281038252601e8152602001807f536166654d6174683a207375627472616374696f6e206f766572666c6f77000081525060200191505060405180910390fd5b818303905092915050565b60008083141561228e57600090506122fb565b600082840290508284828161229f57fe5b04146122f6576040517f08c379a0000000000000000000000000000000000000000000000000000000008152600401808060200182810382526021815260200180616ef06021913960400191505060405180910390fd5b809150505b92915050565b600061230b6123ca565b9050612364828260380160008673ffffffffffffffffffffffffffffffffffffffff1673ffffffffffffffffffffffffffffffffffffffff168152602001908152602001600020600001546121f890919063ffffffff16565b8160380160008573ffffffffffffffffffffffffffffffffffffffff1673ffffffffffffffffffffffffffffffffffffffff16815260200190815260200160002060000181905550505050565b6123bb838261353c565b6123c583836138dd565b505050565b600090565b6000806123da6123ca565b90508060390160008473ffffffffffffffffffffffffffffffffffffffff1673ffffffffffffffffffffffffffffffffffffffff16815260200190815260200160002060000160049054906101000a900463ffffffff1663ffffffff16915050919050565b60008082116124b6576040517f08c379a000000000000000000000000000000000000000000000000000000000815260040180806020018281038252601a8152602001807f536166654d6174683a206469766973696f6e206279207a65726f00000000000081525060200191505060405180910390fd5b8183816124bf57fe5b04905092915050565b6000806124d36123ca565b90508060390160008473ffffffffffffffffffffffffffffffffffffffff1673ffffffffffffffffffffffffffffffffffffffff16815260200190815260200160002060000160089054906101000a900463ffffffff1663ffffffff16915050919050565b6125428382613a09565b61254c8383613c61565b505050565b600061255b6123ca565b90506125b4828260380160008673ffffffffffffffffffffffffffffffffffffffff1673ffffffffffffffffffffffffffffffffffffffff1681526020019081526020016000206000015461199a90919063ffffffff16565b8160380160008573ffffffffffffffffffffffffffffffffffffffff1673ffffffffffffffffffffffffffffffffffffffff16815260200190815260200160002060000181905550505050565b600061260b6123ca565b9050828160310160008873ffffffffffffffffffffffffffffffffffffffff1673ffffffffffffffffffffffffffffffffffffffff16815260200190815260200160002060100160008773ffffffffffffffffffffffffffffffffffffffff1673ffffffffffffffffffffffffffffffffffffffff16815260200190815260200160002060008663ffffffff1663ffffffff16815260200190815260200160002060000160008282829054906101000a90046fffffffffffffffffffffffffffffffff160192506101000a8154816fffffffffffffffffffffffffffffffff02191690836fffffffffffffffffffffffffffffffff160217905550818160310160008873ffffffffffffffffffffffffffffffffffffffff1673ffffffffffffffffffffffffffffffffffffffff16815260200190815260200160002060100160008773ffffffffffffffffffffffffffffffffffffffff1673ffffffffffffffffffffffffffffffffffffffff16815260200190815260200160002060008663ffffffff1663ffffffff16815260200190815260200160002060000160108282829054906101000a90046fffffffffffffffffffffffffffffffff160192506101000a8154816fffffffffffffffffffffffffffffffff02191690836fffffffffffffffffffffffffffffffff1602179055508473ffffffffffffffffffffffffffffffffffffffff168673ffffffffffffffffffffffffffffffffffffffff167fdbe49eaf5c2a8a7f65920c200ca5d47395540b884f6a1886fdb2611624f9981b86868660405161286093929190616c0f565b60405180910390a3505050505050565b60008273ffffffffffffffffffffffffffffffffffffffff1663cc2b27d78360006040518363ffffffff1660e01b81526004016128ae929190616baf565b60206040518083038186803b1580156128c657600080fd5b505afa1580156128da573d6000803e3d6000fd5b505050506040513d601f19601f820116820180604052508101906128fe91906162b2565b905092915050565b60008273ffffffffffffffffffffffffffffffffffffffff1663ed8e84f36040518060400160405280858152602001600081525060016040518363ffffffff1660e01b8152600401612959929190616919565b60206040518083038186803b15801561297157600080fd5b505afa158015612985573d6000803e3d6000fd5b505050506040513d601f19601f820116820180604052508101906129a991906162b2565b905092915050565b6000806129c56129bf6114c9565b8461314e565b90506129d86129d26112e9565b82612870565b9150612a1d6129e5612f7d565b612a0f6129f0613044565b612a016129fb6114e5565b87612c1a565b61227b90919063ffffffff16565b61243f90919063ffffffff16565b915050919050565b600080612a39612a336114e5565b8461314e565b9050612a4c612a466112e9565b82612906565b9150612a91612a59613044565b612a83612a64612f7d565b612a75612a6f6114c9565b87612c1a565b61227b90919063ffffffff16565b61243f90919063ffffffff16565b915050919050565b6000612aa36112e9565b73ffffffffffffffffffffffffffffffffffffffff168373ffffffffffffffffffffffffffffffffffffffff161415612ae657612adf82613d8a565b9050612b21565b6040517f08c379a0000000000000000000000000000000000000000000000000000000008152600401612b18906169f4565b60405180910390fd5b92915050565b600080612b32613e5a565b73ffffffffffffffffffffffffffffffffffffffff166376a2f0f06040518163ffffffff1660e01b815260040160206040518083038186803b158015612b7757600080fd5b505afa158015612b8b573d6000803e3d6000fd5b505050506040513d601f19601f82011682018060405250810190612baf91906162b2565b90506000612bbc85613e76565b90506000612bca8284613e94565b90506000612bf28688600060028110612bdf57fe5b60200201516121f890919063ffffffff16565b9050612c0081888487613ff9565b9050612c0e818884876142bf565b94505050505092915050565b600080612c256123ca565b9050612d0d8160400160008673ffffffffffffffffffffffffffffffffffffffff1673ffffffffffffffffffffffffffffffffffffffff16815260200190815260200160002060010154612cff858773ffffffffffffffffffffffffffffffffffffffff166318160ddd6040518163ffffffff1660e01b815260040160206040518083038186803b158015612cb957600080fd5b505afa158015612ccd573d6000803e3d6000fd5b505050506040513d601f19601f82011682018060405250810190612cf191906162b2565b61227b90919063ffffffff16565b61243f90919063ffffffff16565b91505092915050565b600080600083806020019051810190612d2f919061624f565b909192508093508194508295505050509193909250565b6000806000612d54846113e8565b905060008111612d99576040517f08c379a0000000000000000000000000000000000000000000000000000000008152600401612d9090616b14565b60405180910390fd5b808611612da65785612da8565b805b91508373ffffffffffffffffffffffffffffffffffffffff16630b4c7e4d60405180604001604052808581526020016000815250876040518363ffffffff1660e01b8152600401612dfa929190616942565b602060405180830381600087803b158015612e1457600080fd5b505af1158015612e28573d6000803e3d6000fd5b505050506040513d601f19601f82011682018060405250810190612e4c91906162b2565b925050935093915050565b6000806000612e6584611321565b905060008111612eaa576040517f08c379a0000000000000000000000000000000000000000000000000000000008152600401612ea190616a94565b60405180910390fd5b808611612eb75785612eb9565b805b91508373ffffffffffffffffffffffffffffffffffffffff16631a4d01d2836000886040518463ffffffff1660e01b8152600401612ef993929190616bd8565b602060405180830381600087803b158015612f1357600080fd5b505af1158015612f27573d6000803e3d6000fd5b505050506040513d601f19601f82011682018060405250810190612f4b91906162b2565b925050935093915050565b60008082806020019051810190612f6d9190616200565b9091508092508193505050915091565b600080612f886123ca565b905061303e612f956143e3565b73ffffffffffffffffffffffffffffffffffffffff166318160ddd6040518163ffffffff1660e01b815260040160206040518083038186803b158015612fda57600080fd5b505afa158015612fee573d6000803e3d6000fd5b505050506040513d601f19601f8201168201806040525081019061301291906162b2565b61303083604801546130226143ff565b61227b90919063ffffffff16565b61243f90919063ffffffff16565b91505090565b60008061304f6123ca565b905061314861305c61440a565b73ffffffffffffffffffffffffffffffffffffffff166318160ddd6040518163ffffffff1660e01b815260040160206040518083038186803b1580156130a157600080fd5b505afa1580156130b5573d6000803e3d6000fd5b505050506040513d601f19601f820116820180604052508101906130d991906162b2565b61313a620f42408460400160006130ee6114e5565b73ffffffffffffffffffffffffffffffffffffffff1673ffffffffffffffffffffffffffffffffffffffff1681526020019081526020016000206001015461227b90919063ffffffff16565b61243f90919063ffffffff16565b91505090565b6000806131596123ca565b90506132418473ffffffffffffffffffffffffffffffffffffffff166318160ddd6040518163ffffffff1660e01b815260040160206040518083038186803b1580156131a457600080fd5b505afa1580156131b8573d6000803e3d6000fd5b505050506040513d601f19601f820116820180604052508101906131dc91906162b2565b613233858460400160008973ffffffffffffffffffffffffffffffffffffffff1673ffffffffffffffffffffffffffffffffffffffff1681526020019081526020016000206001015461227b90919063ffffffff16565b61243f90919063ffffffff16565b91505092915050565b60006132546123ca565b905061325e6114c9565b73ffffffffffffffffffffffffffffffffffffffff168373ffffffffffffffffffffffffffffffffffffffff16141561332a5760006133078260400160006132a46114c9565b73ffffffffffffffffffffffffffffffffffffffff1673ffffffffffffffffffffffffffffffffffffffff168152602001908152602001600020600101546132f984604801548661227b90919063ffffffff16565b61243f90919063ffffffff16565b90506133208183604801546121f890919063ffffffff16565b8260480181905550505b6133348383614426565b505050565b60006133436123ca565b905061334d6114c9565b73ffffffffffffffffffffffffffffffffffffffff168373ffffffffffffffffffffffffffffffffffffffff1614156134195760006133f68260400160006133936114c9565b73ffffffffffffffffffffffffffffffffffffffff1673ffffffffffffffffffffffffffffffffffffffff168152602001908152602001600020600101546133e884604801548661227b90919063ffffffff16565b61243f90919063ffffffff16565b905061340f81836048015461199a90919063ffffffff16565b8260480181905550505b6134238383614527565b505050565b60006134326114e5565b73ffffffffffffffffffffffffffffffffffffffff168273ffffffffffffffffffffffffffffffffffffffff16149050919050565b6000613474848484614625565b6134a8670de0b6b3a764000061349a61348b61474d565b8561227b90919063ffffffff16565b61243f90919063ffffffff16565b90509392505050565b60006134bb6114c9565b73ffffffffffffffffffffffffffffffffffffffff168273ffffffffffffffffffffffffffffffffffffffff16149050919050565b60006134fd84848461475d565b9050613533670de0b6b3a764000061352561351661474d565b8461227b90919063ffffffff16565b61243f90919063ffffffff16565b90509392505050565b60006135466123ca565b9050600082141561355757506138d9565b600061358c82601b016000015461357e8585601b016002015461227b90919063ffffffff16565b61243f90919063ffffffff16565b90508160310160008573ffffffffffffffffffffffffffffffffffffffff1673ffffffffffffffffffffffffffffffffffffffff168152602001908152602001600020600e0154811115613622578160310160008573ffffffffffffffffffffffffffffffffffffffff1673ffffffffffffffffffffffffffffffffffffffff168152602001908152602001600020600e015490505b61363c8383601b01600001546121f890919063ffffffff16565b82601b01600001819055506136a1838360310160008773ffffffffffffffffffffffffffffffffffffffff1673ffffffffffffffffffffffffffffffffffffffff168152602001908152602001600020600801600001546121f890919063ffffffff16565b8260310160008673ffffffffffffffffffffffffffffffffffffffff1673ffffffffffffffffffffffffffffffffffffffff168152602001908152602001600020600801600001819055506137068183601b01600201546121f890919063ffffffff16565b82601b0160020181905550613768818360310160008773ffffffffffffffffffffffffffffffffffffffff1673ffffffffffffffffffffffffffffffffffffffff168152602001908152602001600020600e01546121f890919063ffffffff16565b8260310160008673ffffffffffffffffffffffffffffffffffffffff1673ffffffffffffffffffffffffffffffffffffffff168152602001908152602001600020600e01819055508160030160000160119054906101000a900460ff1615613880576137e48183601801600201546121f890919063ffffffff16565b82601801600201819055508160310160008573ffffffffffffffffffffffffffffffffffffffff1673ffffffffffffffffffffffffffffffffffffffff168152602001908152602001600020600e01548260310160008673ffffffffffffffffffffffffffffffffffffffff1673ffffffffffffffffffffffffffffffffffffffff168152602001908152602001600020601201600001819055505b8373ffffffffffffffffffffffffffffffffffffffff167fb2d61db64b8ad7535308d2111c78934bc32baf9b7cd3a2e58cba25730003cd5884600003836000036040516138ce9291906169cb565b60405180910390a250505b5050565b60006138e76123ca565b90506139038282601b01600101546121f890919063ffffffff16565b81601b0160010181905550613968828260310160008673ffffffffffffffffffffffffffffffffffffffff1673ffffffffffffffffffffffffffffffffffffffff168152602001908152602001600020600801600101546121f890919063ffffffff16565b8160310160008573ffffffffffffffffffffffffffffffffffffffff1673ffffffffffffffffffffffffffffffffffffffff168152602001908152602001600020600801600101819055508273ffffffffffffffffffffffffffffffffffffffff167f8a9b067b02389729b43ff012ea79fec02744ec108317c48accb631af39a86a3c836000036040516139fc91906169b0565b60405180910390a2505050565b6000613a136123ca565b905060008082601b01600201541415613a4757613a40613a3161540f565b8461227b90919063ffffffff16565b9050613a7d565b613a7a82601b0160000154613a6c8585601b016002015461227b90919063ffffffff16565b61243f90919063ffffffff16565b90505b613a978383601b016000015461199a90919063ffffffff16565b82601b0160000181905550613afc838360310160008773ffffffffffffffffffffffffffffffffffffffff1673ffffffffffffffffffffffffffffffffffffffff1681526020019081526020016000206008016000015461199a90919063ffffffff16565b8260310160008673ffffffffffffffffffffffffffffffffffffffff1673ffffffffffffffffffffffffffffffffffffffff16815260200190815260200160002060080160000181905550613b618183601b016002015461199a90919063ffffffff16565b82601b0160020181905550613bc3818360310160008773ffffffffffffffffffffffffffffffffffffffff1673ffffffffffffffffffffffffffffffffffffffff168152602001908152602001600020600e015461199a90919063ffffffff16565b8260310160008673ffffffffffffffffffffffffffffffffffffffff1673ffffffffffffffffffffffffffffffffffffffff168152602001908152602001600020600e01819055508373ffffffffffffffffffffffffffffffffffffffff167fb2d61db64b8ad7535308d2111c78934bc32baf9b7cd3a2e58cba25730003cd588483604051613c539291906169cb565b60405180910390a250505050565b6000613c6b6123ca565b9050613c878282601b016001015461199a90919063ffffffff16565b81601b0160010181905550613cec828260310160008673ffffffffffffffffffffffffffffffffffffffff1673ffffffffffffffffffffffffffffffffffffffff1681526020019081526020016000206008016001015461199a90919063ffffffff16565b8160310160008573ffffffffffffffffffffffffffffffffffffffff1673ffffffffffffffffffffffffffffffffffffffff168152602001908152602001600020600801600101819055508273ffffffffffffffffffffffffffffffffffffffff167f8a9b067b02389729b43ff012ea79fec02744ec108317c48accb631af39a86a3c83604051613d7d91906169b0565b60405180910390a2505050565b6000613e536c0c9f2c9cd04674edea40000000613e45613da861541c565b73ffffffffffffffffffffffffffffffffffffffff1663bb7b8b806040518163ffffffff1660e01b815260040160206040518083038186803b158015613ded57600080fd5b505afa158015613e01573d6000803e3d6000fd5b505050506040513d601f19601f82011682018060405250810190613e2591906162b2565b85600160028110613e3257fe5b602002015161227b90919063ffffffff16565b61243f90919063ffffffff16565b9050919050565b600073c9c32cd16bf7efb85ff14e0c8603cc90f6f2ee49905090565b613e7e615de7565b613e8d8264e8d4a51000615438565b9050919050565b6000806000805b6002811015613ec457858160028110613eb057fe5b602002015183019250806001019050613e9b565b506000821415613ed957600092505050613ff3565b819250600060028502905060005b610100811015613fa957600085905060005b6002811015613f2e576002898260028110613f1057fe5b60200201510287830281613f2057fe5b049150806001019050613ef9565b5085935080600160020102606487606486030281613f4857fe5b04018660028302606488870281613f5b57fe5b04010281613f6557fe5b0495508386118015613f7a5750600184870311155b15613f89575050505050613ff3565b600186850311613f9d575050505050613ff3565b50806001019050613ee7565b506000613feb576040517f08c379a0000000000000000000000000000000000000000000000000000000008152600401613fe290616b54565b60405180910390fd5b600093505050505b92915050565b60008061400585613e76565b90506000614035614030888860006002811061401d57fe5b60200201516121f890919063ffffffff16565b6154d7565b9050600061406860405180604001604052808481526020018560016002811061405a57fe5b602002015181525086613e94565b9050614072615de7565b60006140bc846140ae8a6140a0878a60006002811061408d57fe5b602002015161227b90919063ffffffff16565b61243f90919063ffffffff16565b6121f890919063ffffffff16565b90506141056402540be4006140dd83621e848061227b90919063ffffffff16565b816140e457fe5b04866000600281106140f257fe5b60200201516121f890919063ffffffff16565b8260006002811061411257fe5b60200201818152505061417461415489614146868960016002811061413357fe5b602002015161227b90919063ffffffff16565b61243f90919063ffffffff16565b8660016002811061416157fe5b60200201516121f890919063ffffffff16565b90506141bd6402540be40061419583621e848061227b90919063ffffffff16565b8161419c57fe5b04866001600281106141aa57fe5b60200201516121f890919063ffffffff16565b826001600281106141ca57fe5b60200201818152505060006141e288600085876154f8565b9050600061420a82856000600281106141f757fe5b60200201516121f890919063ffffffff16565b90506142286142236001836121f890919063ffffffff16565b615647565b90506000614258614253888a60006002811061424057fe5b60200201516121f890919063ffffffff16565b615647565b90506142ad61429e6402540be40061429064012a05f20061428287876121f890919063ffffffff16565b61227b90919063ffffffff16565b61243f90919063ffffffff16565b8261199a90919063ffffffff16565b98505050505050505050949350505050565b60006142e585856000600281106142d257fe5b60200201516121f890919063ffffffff16565b846000600281106142f257fe5b602002018181525050600061430685613e76565b905060006143148285613e94565b9050600061432b82876121f890919063ffffffff16565b90506143d6866143c861433c613e5a565b73ffffffffffffffffffffffffffffffffffffffff166318160ddd6040518163ffffffff1660e01b815260040160206040518083038186803b15801561438157600080fd5b505afa158015614395573d6000803e3d6000fd5b505050506040513d601f19601f820116820180604052508101906143b991906162b2565b8461227b90919063ffffffff16565b61243f90919063ffffffff16565b9350505050949350505050565b6000731bea3ccd22f4ebd3d37d731ba31eeca95713716d905090565b6000621cc1b0905090565b6000731bea0050e63e05fbb5d8ba2f10cf5800b6224449905090565b60006144306123ca565b9050614489828260400160008673ffffffffffffffffffffffffffffffffffffffff1673ffffffffffffffffffffffffffffffffffffffff168152602001908152602001600020600101546121f890919063ffffffff16565b8160400160008573ffffffffffffffffffffffffffffffffffffffff1673ffffffffffffffffffffffffffffffffffffffff168152602001908152602001600020600101819055508273ffffffffffffffffffffffffffffffffffffffff167f034be0cb985c00ed623355853288b175a6c0bd25ed03d64e9895ccec774af9e78360000360405161451a91906169b0565b60405180910390a2505050565b60006145316123ca565b905061458a828260400160008673ffffffffffffffffffffffffffffffffffffffff1673ffffffffffffffffffffffffffffffffffffffff1681526020019081526020016000206001015461199a90919063ffffffff16565b8160400160008573ffffffffffffffffffffffffffffffffffffffff1673ffffffffffffffffffffffffffffffffffffffff168152602001908152602001600020600101819055508273ffffffffffffffffffffffffffffffffffffffff167f034be0cb985c00ed623355853288b175a6c0bd25ed03d64e9895ccec774af9e78360405161461891906169b0565b60405180910390a2505050565b600061462f6123ca565b90506146df826040518060400160405280601c81526020017f53696c6f3a2043726174652062616c616e636520746f6f206c6f772e000000008152508360310160008873ffffffffffffffffffffffffffffffffffffffff1673ffffffffffffffffffffffffffffffffffffffff16815260200190815260200160002060020160010160008763ffffffff1663ffffffff168152602001908152602001600020546156689092919063ffffffff16565b8160310160008673ffffffffffffffffffffffffffffffffffffffff1673ffffffffffffffffffffffffffffffffffffffff16815260200190815260200160002060020160010160008563ffffffff1663ffffffff1681526020019081526020016000208190555050505050565b600067029342191969bfcd905090565b6000806147686123ca565b90506000806147778787615722565b91509150848210614a1357600061480d836147ff8660310160008c73ffffffffffffffffffffffffffffffffffffffff1673ffffffffffffffffffffffffffffffffffffffff16815260200190815260200160002060050160010160008b63ffffffff1663ffffffff168152602001908152602001600020548961227b90919063ffffffff16565b61243f90919063ffffffff16565b9050614886818560310160008b73ffffffffffffffffffffffffffffffffffffffff1673ffffffffffffffffffffffffffffffffffffffff16815260200190815260200160002060050160010160008a63ffffffff1663ffffffff168152602001908152602001600020546121f890919063ffffffff16565b8460310160008a73ffffffffffffffffffffffffffffffffffffffff1673ffffffffffffffffffffffffffffffffffffffff16815260200190815260200160002060050160010160008963ffffffff1663ffffffff1681526020019081526020016000208190555061491383614905848961227b90919063ffffffff16565b61243f90919063ffffffff16565b905061499f61492c60048361227b90919063ffffffff16565b8560310160008b73ffffffffffffffffffffffffffffffffffffffff1673ffffffffffffffffffffffffffffffffffffffff16815260200190815260200160002060050160020160008a63ffffffff1663ffffffff168152602001908152602001600020546121f890919063ffffffff16565b8460310160008a73ffffffffffffffffffffffffffffffffffffffff1673ffffffffffffffffffffffffffffffffffffffff16815260200190815260200160002060050160020160008963ffffffff1663ffffffff1681526020019081526020016000208190555080945050505050615408565b81850394508093508260310160008873ffffffffffffffffffffffffffffffffffffffff1673ffffffffffffffffffffffffffffffffffffffff16815260200190815260200160002060050160020160008763ffffffff1663ffffffff168152602001908152602001600020600090558260310160008873ffffffffffffffffffffffffffffffffffffffff1673ffffffffffffffffffffffffffffffffffffffff16815260200190815260200160002060050160010160008763ffffffff1663ffffffff16815260200190815260200160002060009055614af5878761584c565b8092508193505050848210614ed85760008360310160008973ffffffffffffffffffffffffffffffffffffffff1673ffffffffffffffffffffffffffffffffffffffff1681526020019081526020016000206010016000614b54615a43565b73ffffffffffffffffffffffffffffffffffffffff1673ffffffffffffffffffffffffffffffffffffffff16815260200190815260200160002060008863ffffffff1663ffffffff16815260200190815260200160002090506000614c0684614bf88460000160009054906101000a90046fffffffffffffffffffffffffffffffff166fffffffffffffffffffffffffffffffff168a61227b90919063ffffffff16565b61243f90919063ffffffff16565b9050614c4d818360000160009054906101000a90046fffffffffffffffffffffffffffffffff166fffffffffffffffffffffffffffffffff16615a5f90919063ffffffff16565b8560310160008b73ffffffffffffffffffffffffffffffffffffffff1673ffffffffffffffffffffffffffffffffffffffff1681526020019081526020016000206010016000614c9b615a43565b73ffffffffffffffffffffffffffffffffffffffff1673ffffffffffffffffffffffffffffffffffffffff16815260200190815260200160002060008a63ffffffff1663ffffffff16815260200190815260200160002060000160006101000a8154816fffffffffffffffffffffffffffffffff02191690836fffffffffffffffffffffffffffffffff160217905550614d8284614d748460000160109054906101000a90046fffffffffffffffffffffffffffffffff166fffffffffffffffffffffffffffffffff168a61227b90919063ffffffff16565b61243f90919063ffffffff16565b9050614dc9818360000160109054906101000a90046fffffffffffffffffffffffffffffffff166fffffffffffffffffffffffffffffffff16615a5f90919063ffffffff16565b8560310160008b73ffffffffffffffffffffffffffffffffffffffff1673ffffffffffffffffffffffffffffffffffffffff1681526020019081526020016000206010016000614e17615a43565b73ffffffffffffffffffffffffffffffffffffffff1673ffffffffffffffffffffffffffffffffffffffff16815260200190815260200160002060008a63ffffffff1663ffffffff16815260200190815260200160002060000160106101000a8154816fffffffffffffffffffffffffffffffff02191690836fffffffffffffffffffffffffffffffff160217905550614ecc816fffffffffffffffffffffffffffffffff168761199a90919063ffffffff16565b95505050505050615408565b8185039450614ef0818561199a90919063ffffffff16565b93508260310160008873ffffffffffffffffffffffffffffffffffffffff1673ffffffffffffffffffffffffffffffffffffffff1681526020019081526020016000206010016000614f40615a43565b73ffffffffffffffffffffffffffffffffffffffff1673ffffffffffffffffffffffffffffffffffffffff16815260200190815260200160002060008763ffffffff1663ffffffff168152602001908152602001600020600080820160006101000a8154906fffffffffffffffffffffffffffffffff02191690556000820160106101000a8154906fffffffffffffffffffffffffffffffff02191690555050614fea8787615b06565b80925081935050508482106153cd5760008360310160008973ffffffffffffffffffffffffffffffffffffffff1673ffffffffffffffffffffffffffffffffffffffff1681526020019081526020016000206010016000615049615cfd565b73ffffffffffffffffffffffffffffffffffffffff1673ffffffffffffffffffffffffffffffffffffffff16815260200190815260200160002060008863ffffffff1663ffffffff168152602001908152602001600020905060006150fb846150ed8460000160009054906101000a90046fffffffffffffffffffffffffffffffff166fffffffffffffffffffffffffffffffff168a61227b90919063ffffffff16565b61243f90919063ffffffff16565b9050615142818360000160009054906101000a90046fffffffffffffffffffffffffffffffff166fffffffffffffffffffffffffffffffff16615a5f90919063ffffffff16565b8560310160008b73ffffffffffffffffffffffffffffffffffffffff1673ffffffffffffffffffffffffffffffffffffffff1681526020019081526020016000206010016000615190615cfd565b73ffffffffffffffffffffffffffffffffffffffff1673ffffffffffffffffffffffffffffffffffffffff16815260200190815260200160002060008a63ffffffff1663ffffffff16815260200190815260200160002060000160006101000a8154816fffffffffffffffffffffffffffffffff02191690836fffffffffffffffffffffffffffffffff160217905550615277846152698460000160109054906101000a90046fffffffffffffffffffffffffffffffff166fffffffffffffffffffffffffffffffff168a61227b90919063ffffffff16565b61243f90919063ffffffff16565b90506152be818360000160109054906101000a90046fffffffffffffffffffffffffffffffff166fffffffffffffffffffffffffffffffff16615a5f90919063ffffffff16565b8560310160008b73ffffffffffffffffffffffffffffffffffffffff1673ffffffffffffffffffffffffffffffffffffffff168152602001908152602001600020601001600061530c615cfd565b73ffffffffffffffffffffffffffffffffffffffff1673ffffffffffffffffffffffffffffffffffffffff16815260200190815260200160002060008a63ffffffff1663ffffffff16815260200190815260200160002060000160106101000a8154816fffffffffffffffffffffffffffffffff02191690836fffffffffffffffffffffffffffffffff1602179055506153c1816fffffffffffffffffffffffffffffffff168761199a90919063ffffffff16565b95505050505050615408565b6040517f08c379a00000000000000000000000000000000000000000000000000000000081526004016153ff90616ab4565b60405180910390fd5b9392505050565b600064e8d4a51000905090565b600073bebc44782c7db0a1a60cb6fe97d0b483032ff1c7905090565b615440615de7565b6154cf838361544d61541c565b73ffffffffffffffffffffffffffffffffffffffff1663bb7b8b806040518163ffffffff1660e01b815260040160206040518083038186803b15801561549257600080fd5b505afa1580156154a6573d6000803e3d6000fd5b505050506040513d601f19601f820116820180604052508101906154ca91906162b2565b615d19565b905092915050565b60006154f164e8d4a510008361227b90919063ffffffff16565b9050919050565b600080600090506000806000859050600060028a02905060005b60028110156155615789811461553a5788816002811061552e57fe5b6020020151945061553f565b615556565b8486019550600285028884028161555257fe5b0492505b806001019050615512565b50600281026064888402028161557357fe5b049150600081606489028161558457fe5b048601905087965060005b60ff8110156155f657879450888289600202010384898a0201816155af57fe5b04975084881180156155c45750600185890311155b156155d5575050505050505061563f565b6001888603116155eb575050505050505061563f565b80600101905061558f565b506000615638576040517f08c379a000000000000000000000000000000000000000000000000000000000815260040161562f90616b54565b60405180910390fd5b5050505050505b949350505050565b600061566164e8d4a510008361243f90919063ffffffff16565b9050919050565b6000838311158290615715576040517f08c379a00000000000000000000000000000000000000000000000000000000081526004018080602001828103825283818151815260200191508051906020019080838360005b838110156156da5780820151818401526020810190506156bf565b50505050905090810190601f1680156157075780820380516001836020036101000a031916815260200191505b509250505060405180910390fd5b5082840390509392505050565b600080600061572f6123ca565b90506157a960048260310160008873ffffffffffffffffffffffffffffffffffffffff1673ffffffffffffffffffffffffffffffffffffffff16815260200190815260200160002060050160020160008763ffffffff1663ffffffff1681526020019081526020016000205461243f90919063ffffffff16565b9150615842670de0b6b3a7640000615834656d0b2f18424d8460310160008a73ffffffffffffffffffffffffffffffffffffffff1673ffffffffffffffffffffffffffffffffffffffff16815260200190815260200160002060050160010160008963ffffffff1663ffffffff1681526020019081526020016000205461227b90919063ffffffff16565b61243f90919063ffffffff16565b9250509250929050565b60008060006158596123ca565b90508060310160008673ffffffffffffffffffffffffffffffffffffffff1673ffffffffffffffffffffffffffffffffffffffff16815260200190815260200160002060100160006158a9615a43565b73ffffffffffffffffffffffffffffffffffffffff1673ffffffffffffffffffffffffffffffffffffffff16815260200190815260200160002060008563ffffffff1663ffffffff16815260200190815260200160002060000160109054906101000a90046fffffffffffffffffffffffffffffffff166fffffffffffffffffffffffffffffffff169150615a3961593f615db6565b615a2b620f23238460310160008a73ffffffffffffffffffffffffffffffffffffffff1673ffffffffffffffffffffffffffffffffffffffff1681526020019081526020016000206010016000615994615a43565b73ffffffffffffffffffffffffffffffffffffffff1673ffffffffffffffffffffffffffffffffffffffff16815260200190815260200160002060008963ffffffff1663ffffffff16815260200190815260200160002060000160009054906101000a90046fffffffffffffffffffffffffffffffff166fffffffffffffffffffffffffffffffff1661227b90919063ffffffff16565b61243f90919063ffffffff16565b9250509250929050565b6000733a70dfa7d2262988064a2d051dd47521e43c9bdd905090565b6000826fffffffffffffffffffffffffffffffff16826fffffffffffffffffffffffffffffffff161115615afb576040517f08c379a000000000000000000000000000000000000000000000000000000000815260040180806020018281038252601e8152602001807f536166654d6174683a207375627472616374696f6e206f766572666c6f77000081525060200191505060405180910390fd5b818303905092915050565b6000806000615b136123ca565b90508060310160008673ffffffffffffffffffffffffffffffffffffffff1673ffffffffffffffffffffffffffffffffffffffff1681526020019081526020016000206010016000615b63615cfd565b73ffffffffffffffffffffffffffffffffffffffff1673ffffffffffffffffffffffffffffffffffffffff16815260200190815260200160002060008563ffffffff1663ffffffff16815260200190815260200160002060000160109054906101000a90046fffffffffffffffffffffffffffffffff166fffffffffffffffffffffffffffffffff169150615cf3615bf9615db6565b615ce5620f00448460310160008a73ffffffffffffffffffffffffffffffffffffffff1673ffffffffffffffffffffffffffffffffffffffff1681526020019081526020016000206010016000615c4e615cfd565b73ffffffffffffffffffffffffffffffffffffffff1673ffffffffffffffffffffffffffffffffffffffff16815260200190815260200160002060008963ffffffff1663ffffffff16815260200190815260200160002060000160009054906101000a90046fffffffffffffffffffffffffffffffff166fffffffffffffffffffffffffffffffff1661227b90919063ffffffff16565b61243f90919063ffffffff16565b9250509250929050565b600073d652c40fbb3f06d6b58cb9aa9cff063ee63d465d905090565b615d21615de7565b615d458385600060028110615d3257fe5b602002015161227b90919063ffffffff16565b81600060028110615d5257fe5b602002018181525050615d99670de0b6b3a7640000615d8b8487600160028110615d7857fe5b602002015161227b90919063ffffffff16565b61243f90919063ffffffff16565b81600160028110615da657fe5b6020020181815250509392505050565b6000670de0b6b3a7640000905090565b60405180606001604052806000815260200160008152602001600081525090565b6040518060400160405280600290602082028036833780820191505090505090565b6000615e1c615e1784616c77565b616c46565b90508082856020860282011115615e3257600080fd5b60005b85811015615e625781615e48888261605d565b845260208401935060208301925050600181019050615e35565b5050509392505050565b6000615e7f615e7a84616c9d565b616c46565b90508083825260208201905082856020860282011115615e9e57600080fd5b60005b85811015615ece5781615eb48882616048565b845260208401935060208301925050600181019050615ea1565b5050509392505050565b6000615eeb615ee684616cc9565b616c46565b90508083825260208201905082856020860282011115615f0a57600080fd5b60005b85811015615f3a5781615f208882616072565b845260208401935060208301925050600181019050615f0d565b5050509392505050565b600081359050615f5381616e83565b92915050565b600081519050615f6881616e9a565b92915050565b600082601f830112615f7f57600080fd5b6002615f8c848285615e09565b91505092915050565b600082601f830112615fa657600080fd5b8135615fb6848260208601615e6c565b91505092915050565b600082601f830112615fd057600080fd5b8135615fe0848260208601615ed8565b91505092915050565b60008083601f840112615ffb57600080fd5b8235905067ffffffffffffffff81111561601457600080fd5b60208301915083600182028301111561602c57600080fd5b9250929050565b60008151905061604281616eb1565b92915050565b60008135905061605781616ec1565b92915050565b60008151905061606c81616ec1565b92915050565b60008135905061608181616ed8565b92915050565b6000806040838503121561609a57600080fd5b60006160a885828601615f44565b92505060206160b985828601615f44565b9150509250929050565b6000806000606084860312156160d857600080fd5b60006160e686828701615f44565b93505060206160f786828701615f44565b925050604061610886828701616048565b9150509250925092565b60006040828403121561612457600080fd5b600061613284828501615f6e565b91505092915050565b6000806000806060858703121561615157600080fd5b600085013567ffffffffffffffff81111561616b57600080fd5b61617787828801615fe9565b9450945050602085013567ffffffffffffffff81111561619657600080fd5b6161a287828801615fbf565b925050604085013567ffffffffffffffff8111156161bf57600080fd5b6161cb87828801615f95565b91505092959194509250565b6000602082840312156161e957600080fd5b60006161f784828501616033565b91505092915050565b60008060006060848603121561621557600080fd5b600061622386828701616033565b93505060206162348682870161605d565b92505060406162458682870161605d565b9150509250925092565b6000806000806080858703121561626557600080fd5b600061627387828801616033565b94505060206162848782880161605d565b93505060406162958782880161605d565b92505060606162a687828801615f59565b91505092959194509250565b6000602082840312156162c457600080fd5b60006162d28482850161605d565b91505092915050565b60006162e7838361683d565b60208301905092915050565b60006162ff838361685b565b60208301905092915050565b61631481616dbb565b82525050565b61632381616d1f565b61632d8184616d72565b925061633882616cf5565b8060005b8381101561636957815161635087826162db565b965061635b83616d4b565b92505060018101905061633c565b505050505050565b600061637c82616d2a565b6163868185616d7d565b935061639183616cff565b8060005b838110156163c25781516163a988826162db565b97506163b483616d58565b925050600181019050616395565b5085935050505092915050565b60006163da82616d35565b6163e48185616d8e565b93506163ef83616d0f565b8060005b8381101561642057815161640788826162f3565b975061641283616d65565b9250506001810190506163f3565b5085935050505092915050565b61643681616ddf565b82525050565b600061644782616d40565b6164518185616d9f565b9350616461818560208601616e4e565b80840191505092915050565b61647681616df8565b82525050565b61648581616e3c565b82525050565b6000616498602683616daa565b91507f436f6e766572743a204e6f7420612077686974656c697374656420437572766560008301527f20706f6f6c2e00000000000000000000000000000000000000000000000000006020830152604082019050919050565b60006164fe601783616daa565b91507f53696c6f3a2075696e74313238206f766572666c6f772e0000000000000000006000830152602082019050919050565b600061653e602b83616daa565b91507f436f6e766572743a20736561736f6e732c20616d6f756e74732061726520646960008301527f6666206c656e677468732e0000000000000000000000000000000000000000006020830152604082019050919050565b60006165a4601483616daa565b91507f53696c6f3a20757064617465206661696c65642e0000000000000000000000006000830152602082019050919050565b60006165e4602383616daa565b91507f436f6e766572743a204e6f7420656e6f75676820746f6b656e732072656d6f7660008301527f65642e00000000000000000000000000000000000000000000000000000000006020830152604082019050919050565b600061664a601783616daa565b91507f436f6e766572743a2050206d757374206265203c20312e0000000000000000006000830152602082019050919050565b600061668a601c83616daa565b91507f53696c6f3a2043726174652062616c616e636520746f6f206c6f772e000000006000830152602082019050919050565b60006166ca601883616daa565b91507f436f6e766572743a20496e76616c6964207061796c6f616400000000000000006000830152602082019050919050565b600061670a601d83616daa565b91507f436f6e766572743a20546f6b656e73206e6f7420737570706f727465640000006000830152602082019050919050565b600061674a601883616daa565b91507f436f6e766572743a2050206d757374206265203e3d20312e00000000000000006000830152602082019050919050565b600061678a601f83616daa565b91507f5265656e7472616e637947756172643a207265656e7472616e742063616c6c006000830152602082019050919050565b60006167ca601883616daa565b91507f50726963653a20436f6e76657267656e63652066616c736500000000000000006000830152602082019050919050565b600061680a601c83616daa565b91507f436f6e766572743a20424456206f7220616d6f756e7420697320302e000000006000830152602082019050919050565b61684681616e22565b82525050565b61685581616e22565b82525050565b61686481616e2c565b82525050565b61687381616e2c565b82525050565b6000616885828461643c565b915081905092915050565b60006020820190506168a5600083018461630b565b92915050565b60006080820190506168c0600083018761630b565b6168cd602083018661630b565b6168da604083018561684c565b6168e7606083018461684c565b95945050505050565b6000604082019050616905600083018561630b565b616912602083018461684c565b9392505050565b600060608201905061692e600083018561631a565b61693b604083018461642d565b9392505050565b6000606082019050616957600083018561631a565b616964604083018461684c565b9392505050565b6000606082019050818103600083015261698581866163cf565b905081810360208301526169998185616371565b90506169a8604083018461684c565b949350505050565b60006020820190506169c5600083018461646d565b92915050565b60006040820190506169e0600083018561646d565b6169ed602083018461646d565b9392505050565b60006020820190508181036000830152616a0d8161648b565b9050919050565b60006020820190508181036000830152616a2d816164f1565b9050919050565b60006020820190508181036000830152616a4d81616531565b9050919050565b60006020820190508181036000830152616a6d81616597565b9050919050565b60006020820190508181036000830152616a8d816165d7565b9050919050565b60006020820190508181036000830152616aad8161663d565b9050919050565b60006020820190508181036000830152616acd8161667d565b9050919050565b60006020820190508181036000830152616aed816166bd565b9050919050565b60006020820190508181036000830152616b0d816166fd565b9050919050565b60006020820190508181036000830152616b2d8161673d565b9050919050565b60006020820190508181036000830152616b4d8161677d565b9050919050565b60006020820190508181036000830152616b6d816167bd565b9050919050565b60006020820190508181036000830152616b8d816167fd565b9050919050565b6000602082019050616ba9600083018461684c565b92915050565b6000604082019050616bc4600083018561684c565b616bd1602083018461647c565b9392505050565b6000606082019050616bed600083018661684c565b616bfa602083018561647c565b616c07604083018461684c565b949350505050565b6000606082019050616c24600083018661686a565b616c31602083018561684c565b616c3e604083018461684c565b949350505050565b6000604051905081810181811067ffffffffffffffff82111715616c6d57616c6c616e81565b5b8060405250919050565b600067ffffffffffffffff821115616c9257616c91616e81565b5b602082029050919050565b600067ffffffffffffffff821115616cb857616cb7616e81565b5b602082029050602081019050919050565b600067ffffffffffffffff821115616ce457616ce3616e81565b5b602082029050602081019050919050565b6000819050919050565b6000819050602082019050919050565b6000819050602082019050919050565b600060029050919050565b600081519050919050565b600081519050919050565b600081519050919050565b6000602082019050919050565b6000602082019050919050565b6000602082019050919050565b600081905092915050565b600082825260208201905092915050565b600082825260208201905092915050565b600081905092915050565b600082825260208201905092915050565b6000616dc682616e02565b9050919050565b6000616dd882616e02565b9050919050565b60008115159050919050565b600081600f0b9050919050565b6000819050919050565b600073ffffffffffffffffffffffffffffffffffffffff82169050919050565b6000819050919050565b600063ffffffff82169050919050565b6000616e4782616deb565b9050919050565b60005b83811015616e6c578082015181840152602081019050616e51565b83811115616e7b576000848401525b50505050565bfe5b616e8c81616dbb565b8114616e9757600080fd5b50565b616ea381616dcd565b8114616eae57600080fd5b50565b60048110616ebe57600080fd5b50565b616eca81616e22565b8114616ed557600080fd5b50565b616ee181616e2c565b8114616eec57600080fd5b5056fe536166654d6174683a206d756c7469706c69636174696f6e206f766572666c6f77a2646970667358221220ad1a3f578823f4647881650b2578f3cfa1b72e10d7d6ed4058f251948569696764736f6c63430007060033",
  "linkReferences": {},
  "deployedLinkReferences": {}
}