{
  "_format": "hh-sol-artifact-1",
  "contractName": "Replant7",
  "sourceName": "contracts/farm/init/replant/Replant7.sol",
  "abi": [
    {
      "anonymous": false,
      "inputs": [
        {
          "indexed": true,
          "internalType": "address",
          "name": "account",
          "type": "address"
        },
        {
          "indexed": false,
          "internalType": "int256",
          "name": "delta",
          "type": "int256"
        }
      ],
      "name": "SeedsBalanceChanged",
      "type": "event"
    },
    {
      "anonymous": false,
      "inputs": [
        {
          "indexed": true,
          "internalType": "address",
          "name": "account",
          "type": "address"
        },
        {
          "indexed": false,
          "internalType": "int256",
          "name": "delta",
          "type": "int256"
        },
        {
          "indexed": false,
          "internalType": "int256",
          "name": "deltaRoots",
          "type": "int256"
        }
      ],
      "name": "StalkBalanceChanged",
      "type": "event"
    },
    {
      "inputs": [
        {
          "components": [
            {
              "internalType": "address",
              "name": "account",
              "type": "address"
            },
            {
              "internalType": "uint256",
              "name": "earnedBeans",
              "type": "uint256"
            },
            {
              "internalType": "uint256",
              "name": "stalk",
              "type": "uint256"
            },
            {
              "internalType": "uint256",
              "name": "seeds",
              "type": "uint256"
            }
          ],
          "internalType": "struct Replant7.Earned[]",
          "name": "earned",
          "type": "tuple[]"
        }
      ],
      "name": "init",
      "outputs": [],
      "stateMutability": "nonpayable",
      "type": "function"
    },
    {
      "inputs": [
        {
          "internalType": "uint256",
          "name": "stalk",
          "type": "uint256"
        },
        {
          "internalType": "uint256",
          "name": "seeds",
          "type": "uint256"
        }
      ],
      "name": "init2",
      "outputs": [],
      "stateMutability": "nonpayable",
      "type": "function"
    }
  ],
  "bytecode": "0x608060405234801561001057600080fd5b50610bc8806100206000396000f3fe608060405234801561001057600080fd5b50600436106100365760003560e01c8063599c05f41461003b578063991e179214610057575b600080fd5b610055600480360381019061005091906109c4565b610073565b005b610071600480360381019061006c9190610a09565b6101c9565b005b60005b828290508110156101c457600083838381811061008f57fe5b90506080020160200135905060008484848181106100a957fe5b90506080020160000160208101906100c1919061099b565b9050600060030160000160009054906101000a900463ffffffff16600060310160008373ffffffffffffffffffffffffffffffffffffffff1673ffffffffffffffffffffffffffffffffffffffff168152602001908152602001600020600a0160046101000a81548163ffffffff021916908363ffffffff16021790555061019d8161014b610215565b6117ba88888881811061015a57fe5b90506080020160200135610198670de0b6b3a764000061018a61017b610231565b8a61024190919063ffffffff16565b6102c790919063ffffffff16565b610350565b6101b78585858181106101ac57fe5b9050608002016105bf565b5050806001019050610076565b505050565b60008060220181905550806000601b0160010181905550816000601b016000018190555061020564e8d4a510008361024190919063ffffffff16565b6000601b01600201819055505050565b6000731bea0050e63e05fbb5d8ba2f10cf5800b6224449905090565b600067029342191969bfcd905090565b60008083141561025457600090506102c1565b600082840290508284828161026557fe5b04146102bc576040517f08c379a0000000000000000000000000000000000000000000000000000000008152600401808060200182810382526021815260200180610b726021913960400191505060405180910390fd5b809150505b92915050565b600080821161033e576040517f08c379a000000000000000000000000000000000000000000000000000000000815260040180806020018281038252601a8152602001807f536166654d6174683a206469766973696f6e206279207a65726f00000000000081525060200191505060405180910390fd5b81838161034757fe5b04905092915050565b600061035a610922565b9050828160310160008873ffffffffffffffffffffffffffffffffffffffff1673ffffffffffffffffffffffffffffffffffffffff16815260200190815260200160002060100160008773ffffffffffffffffffffffffffffffffffffffff1673ffffffffffffffffffffffffffffffffffffffff16815260200190815260200160002060008663ffffffff1663ffffffff16815260200190815260200160002060000160008282829054906101000a90046fffffffffffffffffffffffffffffffff160192506101000a8154816fffffffffffffffffffffffffffffffff02191690836fffffffffffffffffffffffffffffffff160217905550818160310160008873ffffffffffffffffffffffffffffffffffffffff1673ffffffffffffffffffffffffffffffffffffffff16815260200190815260200160002060100160008773ffffffffffffffffffffffffffffffffffffffff1673ffffffffffffffffffffffffffffffffffffffff16815260200190815260200160002060008663ffffffff1663ffffffff16815260200190815260200160002060000160108282829054906101000a90046fffffffffffffffffffffffffffffffff160192506101000a8154816fffffffffffffffffffffffffffffffff02191690836fffffffffffffffffffffffffffffffff1602179055508473ffffffffffffffffffffffffffffffffffffffff168673ffffffffffffffffffffffffffffffffffffffff167fdbe49eaf5c2a8a7f65920c200ca5d47395540b884f6a1886fdb2611624f9981b8686866040516105af93929190610ab6565b60405180910390a3505050505050565b8060400135600060310160008360000160208101906105de919061099b565b73ffffffffffffffffffffffffffffffffffffffff1673ffffffffffffffffffffffffffffffffffffffff16815260200190815260200160002060080160000181905550806060013560006031016000836000016020810190610641919061099b565b73ffffffffffffffffffffffffffffffffffffffff1673ffffffffffffffffffffffffffffffffffffffff168152602001908152602001600020600801600101819055506106f764e8d4a51000600060310160008460000160208101906106a8919061099b565b73ffffffffffffffffffffffffffffffffffffffff1673ffffffffffffffffffffffffffffffffffffffff1681526020019081526020016000206008016000015461024190919063ffffffff16565b60006031016000836000016020810190610711919061099b565b73ffffffffffffffffffffffffffffffffffffffff1673ffffffffffffffffffffffffffffffffffffffff168152602001908152602001600020600e0181905550806000016020810190610765919061099b565b73ffffffffffffffffffffffffffffffffffffffff167f8a9b067b02389729b43ff012ea79fec02744ec108317c48accb631af39a86a3c600060310160008460000160208101906107b6919061099b565b73ffffffffffffffffffffffffffffffffffffffff1673ffffffffffffffffffffffffffffffffffffffff168152602001908152602001600020600801600101546040516108049190610a72565b60405180910390a280600001602081019061081f919061099b565b73ffffffffffffffffffffffffffffffffffffffff167fb2d61db64b8ad7535308d2111c78934bc32baf9b7cd3a2e58cba25730003cd5860006031016000846000016020810190610870919061099b565b73ffffffffffffffffffffffffffffffffffffffff1673ffffffffffffffffffffffffffffffffffffffff16815260200190815260200160002060080160000154600060310160008560000160208101906108cb919061099b565b73ffffffffffffffffffffffffffffffffffffffff1673ffffffffffffffffffffffffffffffffffffffff168152602001908152602001600020600e0154604051610917929190610a8d565b60405180910390a250565b600090565b60008135905061093681610b43565b92915050565b60008083601f84011261094e57600080fd5b8235905067ffffffffffffffff81111561096757600080fd5b60208301915083608082028301111561097f57600080fd5b9250929050565b60008135905061099581610b5a565b92915050565b6000602082840312156109ad57600080fd5b60006109bb84828501610927565b91505092915050565b600080602083850312156109d757600080fd5b600083013567ffffffffffffffff8111156109f157600080fd5b6109fd8582860161093c565b92509250509250929050565b60008060408385031215610a1c57600080fd5b6000610a2a85828601610986565b9250506020610a3b85828601610986565b9150509250929050565b610a4e81610aff565b82525050565b610a5d81610b29565b82525050565b610a6c81610b33565b82525050565b6000602082019050610a876000830184610a45565b92915050565b6000604082019050610aa26000830185610a45565b610aaf6020830184610a45565b9392505050565b6000606082019050610acb6000830186610a63565b610ad86020830185610a54565b610ae56040830184610a54565b949350505050565b6000610af882610b09565b9050919050565b6000819050919050565b600073ffffffffffffffffffffffffffffffffffffffff82169050919050565b6000819050919050565b600063ffffffff82169050919050565b610b4c81610aed565b8114610b5757600080fd5b50565b610b6381610b29565b8114610b6e57600080fd5b5056fe536166654d6174683a206d756c7469706c69636174696f6e206f766572666c6f77a26469706673582212200493e3cd8b2d28903792af48d1fb1d171b9cb1a327a73096235502bc5d07415d64736f6c63430007060033",
  "linkReferences": {},
  "deployedLinkReferences": {}
}