{
  "_format": "hh-sol-artifact-1",
  "contractName": "TokenFacet",
  "sourceName": "contracts/farm/facets/TokenFacet.sol",
  "abi": [
    {
      "anonymous": false,
      "inputs": [
        {
          "indexed": true,
          "internalType": "address",
          "name": "user",
          "type": "address"
        },
        {
          "indexed": true,
          "internalType": "contract IERC20",
          "name": "token",
          "type": "address"
        },
        {
          "indexed": false,
          "internalType": "int256",
          "name": "delta",
          "type": "int256"
        }
      ],
      "name": "InternalBalanceChanged",
      "type": "event"
    },
    {
      "inputs": [
        {
          "internalType": "address",
          "name": "account",
          "type": "address"
        },
        {
          "internalType": "contract IERC20",
          "name": "token",
          "type": "address"
        }
      ],
      "name": "getAllBalance",
      "outputs": [
        {
          "components": [
            {
              "internalType": "uint256",
              "name": "internalBalance",
              "type": "uint256"
            },
            {
              "internalType": "uint256",
              "name": "externalBalance",
              "type": "uint256"
            },
            {
              "internalType": "uint256",
              "name": "totalBalance",
              "type": "uint256"
            }
          ],
          "internalType": "struct TokenFacet.Balance",
          "name": "b",
          "type": "tuple"
        }
      ],
      "stateMutability": "view",
      "type": "function"
    },
    {
      "inputs": [
        {
          "internalType": "address",
          "name": "account",
          "type": "address"
        },
        {
          "internalType": "contract IERC20[]",
          "name": "tokens",
          "type": "address[]"
        }
      ],
      "name": "getAllBalances",
      "outputs": [
        {
          "components": [
            {
              "internalType": "uint256",
              "name": "internalBalance",
              "type": "uint256"
            },
            {
              "internalType": "uint256",
              "name": "externalBalance",
              "type": "uint256"
            },
            {
              "internalType": "uint256",
              "name": "totalBalance",
              "type": "uint256"
            }
          ],
          "internalType": "struct TokenFacet.Balance[]",
          "name": "balances",
          "type": "tuple[]"
        }
      ],
      "stateMutability": "view",
      "type": "function"
    },
    {
      "inputs": [
        {
          "internalType": "address",
          "name": "account",
          "type": "address"
        },
        {
          "internalType": "contract IERC20",
          "name": "token",
          "type": "address"
        }
      ],
      "name": "getBalance",
      "outputs": [
        {
          "internalType": "uint256",
          "name": "balance",
          "type": "uint256"
        }
      ],
      "stateMutability": "view",
      "type": "function"
    },
    {
      "inputs": [
        {
          "internalType": "address",
          "name": "account",
          "type": "address"
        },
        {
          "internalType": "contract IERC20[]",
          "name": "tokens",
          "type": "address[]"
        }
      ],
      "name": "getBalances",
      "outputs": [
        {
          "internalType": "uint256[]",
          "name": "balances",
          "type": "uint256[]"
        }
      ],
      "stateMutability": "view",
      "type": "function"
    },
    {
      "inputs": [
        {
          "internalType": "address",
          "name": "account",
          "type": "address"
        },
        {
          "internalType": "contract IERC20",
          "name": "token",
          "type": "address"
        }
      ],
      "name": "getExternalBalance",
      "outputs": [
        {
          "internalType": "uint256",
          "name": "balance",
          "type": "uint256"
        }
      ],
      "stateMutability": "view",
      "type": "function"
    },
    {
      "inputs": [
        {
          "internalType": "address",
          "name": "account",
          "type": "address"
        },
        {
          "internalType": "contract IERC20[]",
          "name": "tokens",
          "type": "address[]"
        }
      ],
      "name": "getExternalBalances",
      "outputs": [
        {
          "internalType": "uint256[]",
          "name": "balances",
          "type": "uint256[]"
        }
      ],
      "stateMutability": "view",
      "type": "function"
    },
    {
      "inputs": [
        {
          "internalType": "address",
          "name": "account",
          "type": "address"
        },
        {
          "internalType": "contract IERC20",
          "name": "token",
          "type": "address"
        }
      ],
      "name": "getInternalBalance",
      "outputs": [
        {
          "internalType": "uint256",
          "name": "balance",
          "type": "uint256"
        }
      ],
      "stateMutability": "view",
      "type": "function"
    },
    {
      "inputs": [
        {
          "internalType": "address",
          "name": "account",
          "type": "address"
        },
        {
          "internalType": "contract IERC20[]",
          "name": "tokens",
          "type": "address[]"
        }
      ],
      "name": "getInternalBalances",
      "outputs": [
        {
          "internalType": "uint256[]",
          "name": "balances",
          "type": "uint256[]"
        }
      ],
      "stateMutability": "view",
      "type": "function"
    },
    {
      "inputs": [
        {
          "internalType": "contract IERC20",
          "name": "token",
          "type": "address"
        },
        {
          "internalType": "address",
          "name": "recipient",
          "type": "address"
        },
        {
          "internalType": "uint256",
          "name": "amount",
          "type": "uint256"
        },
        {
          "internalType": "enum LibTransfer.From",
          "name": "fromMode",
          "type": "uint8"
        },
        {
          "internalType": "enum LibTransfer.To",
          "name": "toMode",
          "type": "uint8"
        }
      ],
      "name": "transferToken",
      "outputs": [],
      "stateMutability": "payable",
      "type": "function"
    },
    {
      "inputs": [
        {
          "internalType": "uint256",
          "name": "amount",
          "type": "uint256"
        },
        {
          "internalType": "enum LibTransfer.From",
          "name": "mode",
          "type": "uint8"
        }
      ],
      "name": "unwrapEth",
      "outputs": [],
      "stateMutability": "payable",
      "type": "function"
    },
    {
      "inputs": [
        {
          "internalType": "uint256",
          "name": "amount",
          "type": "uint256"
        },
        {
          "internalType": "enum LibTransfer.To",
          "name": "mode",
          "type": "uint8"
        }
      ],
      "name": "wrapEth",
      "outputs": [],
      "stateMutability": "payable",
      "type": "function"
    }
  ],
  "bytecode": "0x608060405234801561001057600080fd5b50612159806100206000396000f3fe60806040526004361061009c5760003560e01c8063a98edb1711610064578063a98edb1714610190578063b6fc38f9146101cd578063bd32fac31461020a578063c371472314610226578063d4fac45d14610263578063fdb28811146102a05761009c565b80631c059365146100a15780634667fa3d146100bd5780636204aa43146100fa5780636a385ae9146101165780638a65d2e014610153575b600080fd5b6100bb60048036038101906100b69190611a9d565b6102dd565b005b3480156100c957600080fd5b506100e460048036038101906100df9190611985565b6102f3565b6040516100f19190611ea8565b60405180910390f35b610114600480360381019061010f91906119c1565b610386565b005b34801561012257600080fd5b5061013d60048036038101906101389190611931565b61039b565b60405161014a9190611df0565b60405180910390f35b34801561015f57600080fd5b5061017a60048036038101906101759190611985565b61043a565b6040516101879190611ea8565b60405180910390f35b34801561019c57600080fd5b506101b760048036038101906101b29190611931565b61044e565b6040516101c49190611df0565b60405180910390f35b3480156101d957600080fd5b506101f460048036038101906101ef9190611931565b6104ed565b6040516102019190611dce565b60405180910390f35b610224600480360381019061021f9190611a61565b610596565b005b34801561023257600080fd5b5061024d60048036038101906102489190611931565b6105a4565b60405161025a9190611df0565b60405180910390f35b34801561026f57600080fd5b5061028a60048036038101906102859190611985565b610643565b6040516102979190611ea8565b60405180910390f35b3480156102ac57600080fd5b506102c760048036038101906102c29190611985565b610657565b6040516102d49190611e8d565b60405180910390f35b6102e782826106af565b6102ef6106dc565b5050565b60008173ffffffffffffffffffffffffffffffffffffffff166370a08231846040518263ffffffff1660e01b815260040161032e9190611db3565b60206040518083038186803b15801561034657600080fd5b505afa15801561035a573d6000803e3d6000fd5b505050506040513d601f19601f8201168201806040525081019061037e9190611a38565b905092915050565b6103938585858585610800565b505050505050565b6060815167ffffffffffffffff811180156103b557600080fd5b506040519080825280602002602001820160405280156103e45781602001602082028036833780820191505090505b50905060005b8251811015610433576104108484838151811061040357fe5b6020026020010151610643565b82828151811061041c57fe5b6020026020010181815250508060010190506103ea565b5092915050565b600061044683836109c6565b905092915050565b6060815167ffffffffffffffff8111801561046857600080fd5b506040519080825280602002602001820160405280156104975781602001602082028036833780820191505090505b50905060005b82518110156104e6576104c3848483815181106104b657fe5b602002602001015161043a565b8282815181106104cf57fe5b60200260200101818152505080600101905061049d565b5092915050565b6060815167ffffffffffffffff8111801561050757600080fd5b5060405190808252806020026020018201604052801561054157816020015b61052e6117fc565b8152602001906001900390816105265790505b50905060005b825181101561058f5761056d8484838151811061056057fe5b6020026020010151610657565b82828151811061057957fe5b6020026020010181905250806001019050610547565b5092915050565b6105a08282610a5b565b5050565b6060815167ffffffffffffffff811180156105be57600080fd5b506040519080825280602002602001820160405280156105ed5781602001602082028036833780820191505090505b50905060005b825181101561063c576106198484838151811061060c57fe5b60200260200101516102f3565b82828151811061062557fe5b6020026020010181815250508060010190506105f3565b5092915050565b600061064f8383610b84565b905092915050565b61065f6117fc565b610669838361043a565b81600001818152505061067c83836102f3565b8160200181815250506106a081602001518260000151610c3290919063ffffffff16565b81604001818152505092915050565b6106b882610cba565b6106d873c02aaa39b223fe8d0a0e5c4f27ead9083c756cc2833384610d32565b5050565b60006106e6610da1565b90506000471180156106fd57506002816049015414155b156107fd5760003373ffffffffffffffffffffffffffffffffffffffff1647600067ffffffffffffffff8111801561073457600080fd5b506040519080825280601f01601f1916602001820160405280156107675781602001600182028036833780820191505090505b506040516107759190611d9c565b60006040518083038185875af1925050503d80600081146107b2576040519150601f19603f3d011682016040523d82523d6000602084013e6107b7565b606091505b50509050806107fb576040517f08c379a00000000000000000000000000000000000000000000000000000000081526004016107f290611e4d565b60405180910390fd5b505b50565b600080600381111561080e57fe5b83600381111561081a57fe5b14801561083d57506000600181111561082f57fe5b82600181111561083b57fe5b145b1561099f5760008673ffffffffffffffffffffffffffffffffffffffff166370a08231876040518263ffffffff1660e01b815260040161087d9190611db3565b60206040518083038186803b15801561089557600080fd5b505afa1580156108a9573d6000803e3d6000fd5b505050506040513d601f19601f820116820180604052508101906108cd9190611a38565b90506108fc3387878a73ffffffffffffffffffffffffffffffffffffffff16610da6909392919063ffffffff16565b610997818873ffffffffffffffffffffffffffffffffffffffff166370a08231896040518263ffffffff1660e01b81526004016109399190611db3565b60206040518083038186803b15801561095157600080fd5b505afa158015610965573d6000803e3d6000fd5b505050506040513d601f19601f820116820180604052508101906109899190611a38565b610e6790919063ffffffff16565b9150506109bd565b6109ab86853386610eea565b93506109b986858785610d32565b8390505b95945050505050565b6000806109d1610da1565b905080603e0160008573ffffffffffffffffffffffffffffffffffffffff1673ffffffffffffffffffffffffffffffffffffffff16815260200190815260200160002060008473ffffffffffffffffffffffffffffffffffffffff1673ffffffffffffffffffffffffffffffffffffffff1681526020019081526020016000205491505092915050565b610a7b73c02aaa39b223fe8d0a0e5c4f27ead9083c756cc2833384610eea565b9150610a86826110e6565b60003373ffffffffffffffffffffffffffffffffffffffff1683600067ffffffffffffffff81118015610ab857600080fd5b506040519080825280601f01601f191660200182016040528015610aeb5781602001600182028036833780820191505090505b50604051610af99190611d9c565b60006040518083038185875af1925050503d8060008114610b36576040519150601f19603f3d011682016040523d82523d6000602084013e610b3b565b606091505b5050905080610b7f576040517f08c379a0000000000000000000000000000000000000000000000000000000008152600401610b7690611e6d565b60405180910390fd5b505050565b6000610c2a610b9384846109c6565b8373ffffffffffffffffffffffffffffffffffffffff166370a08231866040518263ffffffff1660e01b8152600401610bcc9190611db3565b60206040518083038186803b158015610be457600080fd5b505afa158015610bf8573d6000803e3d6000fd5b505050506040513d601f19601f82011682018060405250810190610c1c9190611a38565b610c3290919063ffffffff16565b905092915050565b600080828401905083811015610cb0576040517f08c379a000000000000000000000000000000000000000000000000000000000815260040180806020018281038252601b8152602001807f536166654d6174683a206164646974696f6e206f766572666c6f77000000000081525060200191505060405180910390fd5b8091505092915050565b73c02aaa39b223fe8d0a0e5c4f27ead9083c756cc273ffffffffffffffffffffffffffffffffffffffff1663d0e30db0826040518263ffffffff1660e01b81526004016000604051808303818588803b158015610d1657600080fd5b505af1158015610d2a573d6000803e3d6000fd5b505050505050565b6000831415610d4057610d9b565b600180811115610d4c57fe5b816001811115610d5857fe5b1415610d6e57610d69828585611168565b610d9a565b610d9982848673ffffffffffffffffffffffffffffffffffffffff166111a89092919063ffffffff16565b5b5b50505050565b600090565b610e61846323b872dd60e01b858585604051602401808473ffffffffffffffffffffffffffffffffffffffff1681526020018373ffffffffffffffffffffffffffffffffffffffff1681526020018281526020019350505050604051602081830303815290604052907bffffffffffffffffffffffffffffffffffffffffffffffffffffffff19166020820180517bffffffffffffffffffffffffffffffffffffffffffffffffffffffff838183161783525050505061124a565b50505050565b600082821115610edf576040517f08c379a000000000000000000000000000000000000000000000000000000000815260040180806020018281038252601e8152602001807f536166654d6174683a207375627472616374696f6e206f766572666c6f77000081525060200191505060405180910390fd5b818303905092915050565b600080841415610efd57600090506110de565b60006003811115610f0a57fe5b826003811115610f1657fe5b14610f7157610f4183868660016003811115610f2e57fe5b866003811115610f3a57fe5b1415611339565b905080841480610f665750600380811115610f5857fe5b826003811115610f6457fe5b145b15610f70576110de565b5b60008573ffffffffffffffffffffffffffffffffffffffff166370a08231306040518263ffffffff1660e01b8152600401610fac9190611db3565b60206040518083038186803b158015610fc457600080fd5b505afa158015610fd8573d6000803e3d6000fd5b505050506040513d601f19601f82011682018060405250810190610ffc9190611a38565b905061102d84308488038973ffffffffffffffffffffffffffffffffffffffff16610da6909392919063ffffffff16565b6110da6110cb828873ffffffffffffffffffffffffffffffffffffffff166370a08231306040518263ffffffff1660e01b815260040161106d9190611db3565b60206040518083038186803b15801561108557600080fd5b505afa158015611099573d6000803e3d6000fd5b505050506040513d601f19601f820116820180604052508101906110bd9190611a38565b610e6790919063ffffffff16565b83610c3290919063ffffffff16565b9150505b949350505050565b73c02aaa39b223fe8d0a0e5c4f27ead9083c756cc273ffffffffffffffffffffffffffffffffffffffff16632e1a7d4d826040518263ffffffff1660e01b81526004016111339190611ea8565b600060405180830381600087803b15801561114d57600080fd5b505af1158015611161573d6000803e3d6000fd5b5050505050565b600061117484846109c6565b9050600061118b8383610c3290919063ffffffff16565b90506111a185858361119c876113c7565b611449565b5050505050565b6112458363a9059cbb60e01b8484604051602401808373ffffffffffffffffffffffffffffffffffffffff16815260200182815260200192505050604051602081830303815290604052907bffffffffffffffffffffffffffffffffffffffffffffffffffffffff19166020820180517bffffffffffffffffffffffffffffffffffffffffffffffffffffffff838183161783525050505061124a565b505050565b60006112ac826040518060400160405280602081526020017f5361666545524332303a206c6f772d6c6576656c2063616c6c206661696c65648152508573ffffffffffffffffffffffffffffffffffffffff166115449092919063ffffffff16565b9050600081511115611334578080602001905160208110156112cd57600080fd5b8101908080519060200190929190505050611333576040517f08c379a000000000000000000000000000000000000000000000000000000000815260040180806020018281038252602a8152602001806120fa602a913960400191505060405180910390fd5b5b505050565b60008061134686866109c6565b905082806113545750838110155b611393576040517f08c379a000000000000000000000000000000000000000000000000000000000815260040161138a90611e2d565b60405180910390fd5b61139d818561155c565b9150600082820390506113bd8787836113b5876113c7565b600003611449565b5050949350505050565b60007f80000000000000000000000000000000000000000000000000000000000000008210611441576040517f08c379a00000000000000000000000000000000000000000000000000000000081526004018080602001828103825260288152602001806120d26028913960400191505060405180910390fd5b819050919050565b6000611453610da1565b90508281603e0160008773ffffffffffffffffffffffffffffffffffffffff1673ffffffffffffffffffffffffffffffffffffffff16815260200190815260200160002060008673ffffffffffffffffffffffffffffffffffffffff1673ffffffffffffffffffffffffffffffffffffffff168152602001908152602001600020819055508373ffffffffffffffffffffffffffffffffffffffff168573ffffffffffffffffffffffffffffffffffffffff167f18e1ea4139e68413d7d08aa752e71568e36b2c5bf940893314c2c5b01eaa0c42846040516115359190611e12565b60405180910390a35050505050565b60606115538484600085611575565b90509392505050565b600081831061156b578161156d565b825b905092915050565b6060824710156115d0576040517f08c379a00000000000000000000000000000000000000000000000000000000081526004018080602001828103825260268152602001806120ac6026913960400191505060405180910390fd5b6115d98561171d565b61164b576040517f08c379a000000000000000000000000000000000000000000000000000000000815260040180806020018281038252601d8152602001807f416464726573733a2063616c6c20746f206e6f6e2d636f6e747261637400000081525060200191505060405180910390fd5b6000808673ffffffffffffffffffffffffffffffffffffffff1685876040518082805190602001908083835b6020831061169a5780518252602082019150602081019050602083039250611677565b6001836020036101000a03801982511681845116808217855250505050505090500191505060006040518083038185875af1925050503d80600081146116fc576040519150601f19603f3d011682016040523d82523d6000602084013e611701565b606091505b5091509150611711828286611730565b92505050949350505050565b600080823b905060008111915050919050565b60608315611740578290506117f5565b6000835111156117535782518084602001fd5b816040517f08c379a00000000000000000000000000000000000000000000000000000000081526004018080602001828103825283818151815260200191508051906020019080838360005b838110156117ba57808201518184015260208101905061179f565b50505050905090810190601f1680156117e75780820380516001836020036101000a031916815260200191505b509250505060405180910390fd5b9392505050565b60405180606001604052806000815260200160008152602001600081525090565b600061183061182b84611ef4565b611ec3565b9050808382526020820190508285602086028201111561184f57600080fd5b60005b8581101561187f578161186588826118c8565b845260208401935060208301925050600181019050611852565b5050509392505050565b60008135905061189881612046565b92915050565b600082601f8301126118af57600080fd5b81356118bf84826020860161181d565b91505092915050565b6000813590506118d78161205d565b92915050565b6000813590506118ec81612074565b92915050565b60008135905061190181612084565b92915050565b60008135905061191681612094565b92915050565b60008151905061192b81612094565b92915050565b6000806040838503121561194457600080fd5b600061195285828601611889565b925050602083013567ffffffffffffffff81111561196f57600080fd5b61197b8582860161189e565b9150509250929050565b6000806040838503121561199857600080fd5b60006119a685828601611889565b92505060206119b7858286016118c8565b9150509250929050565b600080600080600060a086880312156119d957600080fd5b60006119e7888289016118c8565b95505060206119f888828901611889565b9450506040611a0988828901611907565b9350506060611a1a888289016118dd565b9250506080611a2b888289016118f2565b9150509295509295909350565b600060208284031215611a4a57600080fd5b6000611a588482850161191c565b91505092915050565b60008060408385031215611a7457600080fd5b6000611a8285828601611907565b9250506020611a93858286016118dd565b9150509250929050565b60008060408385031215611ab057600080fd5b6000611abe85828601611907565b9250506020611acf858286016118f2565b9150509250929050565b6000611ae58383611cfa565b60608301905092915050565b6000611afd8383611d7e565b60208301905092915050565b611b1281611fb9565b82525050565b6000611b2382611f40565b611b2d8185611f7b565b9350611b3883611f20565b8060005b83811015611b69578151611b508882611ad9565b9750611b5b83611f61565b925050600181019050611b3c565b5085935050505092915050565b6000611b8182611f4b565b611b8b8185611f8c565b9350611b9683611f30565b8060005b83811015611bc7578151611bae8882611af1565b9750611bb983611f6e565b925050600181019050611b9a565b5085935050505092915050565b6000611bdf82611f56565b611be98185611f9d565b9350611bf9818560208601612011565b80840191505092915050565b611c0e81611fdd565b82525050565b6000611c21602683611fa8565b91507f42616c616e63653a20496e73756666696369656e7420696e7465726e616c206260008301527f616c616e636500000000000000000000000000000000000000000000000000006020830152604082019050919050565b6000611c87601483611fa8565b91507f457468207472616e73666572204661696c65642e0000000000000000000000006000830152602082019050919050565b6000611cc7601383611fa8565b91507f576574683a20756e77726170206661696c6564000000000000000000000000006000830152602082019050919050565b606082016000820151611d106000850182611d7e565b506020820151611d236020850182611d7e565b506040820151611d366040850182611d7e565b50505050565b606082016000820151611d526000850182611d7e565b506020820151611d656020850182611d7e565b506040820151611d786040850182611d7e565b50505050565b611d8781612007565b82525050565b611d9681612007565b82525050565b6000611da88284611bd4565b915081905092915050565b6000602082019050611dc86000830184611b09565b92915050565b60006020820190508181036000830152611de88184611b18565b905092915050565b60006020820190508181036000830152611e0a8184611b76565b905092915050565b6000602082019050611e276000830184611c05565b92915050565b60006020820190508181036000830152611e4681611c14565b9050919050565b60006020820190508181036000830152611e6681611c7a565b9050919050565b60006020820190508181036000830152611e8681611cba565b9050919050565b6000606082019050611ea26000830184611d3c565b92915050565b6000602082019050611ebd6000830184611d8d565b92915050565b6000604051905081810181811067ffffffffffffffff82111715611eea57611ee9612044565b5b8060405250919050565b600067ffffffffffffffff821115611f0f57611f0e612044565b5b602082029050602081019050919050565b6000819050602082019050919050565b6000819050602082019050919050565b600081519050919050565b600081519050919050565b600081519050919050565b6000602082019050919050565b6000602082019050919050565b600082825260208201905092915050565b600082825260208201905092915050565b600081905092915050565b600082825260208201905092915050565b6000611fc482611fe7565b9050919050565b6000611fd682611fb9565b9050919050565b6000819050919050565b600073ffffffffffffffffffffffffffffffffffffffff82169050919050565b6000819050919050565b60005b8381101561202f578082015181840152602081019050612014565b8381111561203e576000848401525b50505050565bfe5b61204f81611fb9565b811461205a57600080fd5b50565b61206681611fcb565b811461207157600080fd5b50565b6004811061208157600080fd5b50565b6002811061209157600080fd5b50565b61209d81612007565b81146120a857600080fd5b5056fe416464726573733a20696e73756666696369656e742062616c616e636520666f722063616c6c53616665436173743a2076616c756520646f65736e27742066697420696e20616e20696e743235365361666545524332303a204552433230206f7065726174696f6e20646964206e6f742073756363656564a26469706673582212207782bfcb626e453e3307956b06e51a87c8782f5c9f2cc09f77b43e6bc5365d5764736f6c63430007060033",
  "linkReferences": {},
  "deployedLinkReferences": {}
}