{
  "_format": "hh-sol-artifact-1",
  "contractName": "WhitelistFacet",
  "sourceName": "contracts/farm/facets/WhitelistFacet.sol",
  "abi": [
    {
      "anonymous": false,
      "inputs": [
        {
          "indexed": true,
          "internalType": "address",
          "name": "token",
          "type": "address"
        }
      ],
      "name": "DewhitelistToken",
      "type": "event"
    },
    {
      "anonymous": false,
      "inputs": [
        {
          "indexed": true,
          "internalType": "address",
          "name": "token",
          "type": "address"
        },
        {
          "indexed": false,
          "internalType": "bytes4",
          "name": "selector",
          "type": "bytes4"
        },
        {
          "indexed": false,
          "internalType": "uint256",
          "name": "seeds",
          "type": "uint256"
        },
        {
          "indexed": false,
          "internalType": "uint256",
          "name": "stalk",
          "type": "uint256"
        }
      ],
      "name": "WhitelistToken",
      "type": "event"
    },
    {
      "inputs": [
        {
          "internalType": "address",
          "name": "token",
          "type": "address"
        }
      ],
      "name": "dewhitelistToken",
      "outputs": [],
      "stateMutability": "payable",
      "type": "function"
    },
    {
      "inputs": [
        {
          "internalType": "address",
          "name": "token",
          "type": "address"
        },
        {
          "internalType": "bytes4",
          "name": "selector",
          "type": "bytes4"
        },
        {
          "internalType": "uint32",
          "name": "stalk",
          "type": "uint32"
        },
        {
          "internalType": "uint32",
          "name": "seeds",
          "type": "uint32"
        }
      ],
      "name": "whitelistToken",
      "outputs": [],
      "stateMutability": "payable",
      "type": "function"
    }
  ],
  "bytecode": "0x608060405234801561001057600080fd5b506106b0806100206000396000f3fe6080604052600436106100295760003560e01c806386b40a1b1461002e578063d8a6aafe1461004a575b600080fd5b6100486004803603810190610043919061043d565b610066565b005b610064600480360381019061005f9190610466565b61007a565b005b61006e610094565b61007781610165565b50565b610082610094565b61008e84848484610241565b50505050565b61009c6103cc565b60040160009054906101000a900473ffffffffffffffffffffffffffffffffffffffff1673ffffffffffffffffffffffffffffffffffffffff163373ffffffffffffffffffffffffffffffffffffffff16148061012457503073ffffffffffffffffffffffffffffffffffffffff163373ffffffffffffffffffffffffffffffffffffffff16145b610163576040517f08c379a000000000000000000000000000000000000000000000000000000000815260040161015a90610584565b60405180910390fd5b565b600061016f6103f9565b90508060390160008373ffffffffffffffffffffffffffffffffffffffff1673ffffffffffffffffffffffffffffffffffffffff168152602001908152602001600020600080820160006101000a81549063ffffffff02191690556000820160046101000a81549063ffffffff02191690556000820160086101000a81549063ffffffff021916905550508173ffffffffffffffffffffffffffffffffffffffff167fc9cc738906f64d4a4d9521d856f5a985c4451514612d425061c01cdab7e60e9960405160405180910390a25050565b600061024b6103f9565b9050838160390160008773ffffffffffffffffffffffffffffffffffffffff1673ffffffffffffffffffffffffffffffffffffffff16815260200190815260200160002060000160006101000a81548163ffffffff021916908360e01c0217905550828160390160008773ffffffffffffffffffffffffffffffffffffffff1673ffffffffffffffffffffffffffffffffffffffff16815260200190815260200160002060000160086101000a81548163ffffffff021916908363ffffffff160217905550818160390160008773ffffffffffffffffffffffffffffffffffffffff1673ffffffffffffffffffffffffffffffffffffffff16815260200190815260200160002060000160046101000a81548163ffffffff021916908363ffffffff1602179055508473ffffffffffffffffffffffffffffffffffffffff167fa6ad0c5d2655b6d07da53e1db16cac1f11cf2a5f810fb1d16cdfa364cd7e698f8585856040516103bd9392919061054d565b60405180910390a25050505050565b6000807fc8fcad8db84d3cc18b4c41d551ea0ee66dd599cde068d998e57d5e09332c131c90508091505090565b600090565b60008135905061040d81610635565b92915050565b6000813590506104228161064c565b92915050565b60008135905061043781610663565b92915050565b60006020828403121561044f57600080fd5b600061045d848285016103fe565b91505092915050565b6000806000806080858703121561047c57600080fd5b600061048a878288016103fe565b945050602061049b87828801610413565b93505060406104ac87828801610428565b92505060606104bd87828801610428565b91505092959194509250565b6104d2816105c7565b82525050565b60006104e56025836105a4565b91507f4c69624469616d6f6e643a204d75737420626520636f6e7472616374206f722060008301527f6f776e65720000000000000000000000000000000000000000000000000000006020830152604082019050919050565b61054781610623565b82525050565b600060608201905061056260008301866104c9565b61056f602083018561053e565b61057c604083018461053e565b949350505050565b6000602082019050818103600083015261059d816104d8565b9050919050565b600082825260208201905092915050565b60006105c0826105f3565b9050919050565b60007fffffffff0000000000000000000000000000000000000000000000000000000082169050919050565b600073ffffffffffffffffffffffffffffffffffffffff82169050919050565b600063ffffffff82169050919050565b600061062e82610613565b9050919050565b61063e816105b5565b811461064957600080fd5b50565b610655816105c7565b811461066057600080fd5b50565b61066c81610613565b811461067757600080fd5b5056fea2646970667358221220ad2109676cb95666e6adb834e3b1facbcc8984f2777f6ccaf1a5fdb7d777810364736f6c63430007060033",
  "linkReferences": {},
  "deployedLinkReferences": {}
}