{
  "_format": "hh-sol-artifact-1",
  "contractName": "SeasonFacet",
  "sourceName": "contracts/farm/facets/SeasonFacet/SeasonFacet.sol",
  "abi": [
    {
      "anonymous": false,
      "inputs": [
        {
          "indexed": true,
          "internalType": "address",
          "name": "account",
          "type": "address"
        },
        {
          "indexed": false,
          "internalType": "uint256",
          "name": "beans",
          "type": "uint256"
        }
      ],
      "name": "Incentivization",
      "type": "event"
    },
    {
      "anonymous": false,
      "inputs": [
        {
          "indexed": true,
          "internalType": "uint32",
          "name": "season",
          "type": "uint32"
        },
        {
          "indexed": false,
          "internalType": "int256",
          "name": "deltaB",
          "type": "int256"
        },
        {
          "indexed": false,
          "internalType": "uint256[2]",
          "name": "balances",
          "type": "uint256[2]"
        }
      ],
      "name": "MetapoolOracle",
      "type": "event"
    },
    {
      "anonymous": false,
      "inputs": [
        {
          "indexed": true,
          "internalType": "uint32",
          "name": "season",
          "type": "uint32"
        },
        {
          "indexed": false,
          "internalType": "uint256",
          "name": "toField",
          "type": "uint256"
        },
        {
          "indexed": false,
          "internalType": "uint256",
          "name": "toSilo",
          "type": "uint256"
        },
        {
          "indexed": false,
          "internalType": "uint256",
          "name": "toFertilizer",
          "type": "uint256"
        }
      ],
      "name": "Reward",
      "type": "event"
    },
    {
      "anonymous": false,
      "inputs": [
        {
          "indexed": true,
          "internalType": "uint256",
          "name": "season",
          "type": "uint256"
        },
        {
          "indexed": false,
          "internalType": "uint256",
          "name": "amount",
          "type": "uint256"
        },
        {
          "indexed": false,
          "internalType": "uint256",
          "name": "toField",
          "type": "uint256"
        }
      ],
      "name": "SeasonOfPlenty",
      "type": "event"
    },
    {
      "anonymous": false,
      "inputs": [
        {
          "indexed": true,
          "internalType": "uint32",
          "name": "season",
          "type": "uint32"
        },
        {
          "indexed": false,
          "internalType": "uint256",
          "name": "soil",
          "type": "uint256"
        }
      ],
      "name": "Soil",
      "type": "event"
    },
    {
      "anonymous": false,
      "inputs": [
        {
          "indexed": true,
          "internalType": "uint256",
          "name": "season",
          "type": "uint256"
        }
      ],
      "name": "Sunrise",
      "type": "event"
    },
    {
      "anonymous": false,
      "inputs": [
        {
          "indexed": true,
          "internalType": "uint256",
          "name": "season",
          "type": "uint256"
        },
        {
          "indexed": false,
          "internalType": "uint256",
          "name": "caseId",
          "type": "uint256"
        },
        {
          "indexed": false,
          "internalType": "int8",
          "name": "change",
          "type": "int8"
        }
      ],
      "name": "WeatherChange",
      "type": "event"
    },
    {
      "inputs": [],
      "name": "paused",
      "outputs": [
        {
          "internalType": "bool",
          "name": "",
          "type": "bool"
        }
      ],
      "stateMutability": "view",
      "type": "function"
    },
    {
      "inputs": [
        {
          "internalType": "uint32",
          "name": "season",
          "type": "uint32"
        }
      ],
      "name": "plentyPerRoot",
      "outputs": [
        {
          "internalType": "uint256",
          "name": "",
          "type": "uint256"
        }
      ],
      "stateMutability": "view",
      "type": "function"
    },
    {
      "inputs": [
        {
          "internalType": "address",
          "name": "pool",
          "type": "address"
        }
      ],
      "name": "poolDeltaB",
      "outputs": [
        {
          "internalType": "int256",
          "name": "deltaB",
          "type": "int256"
        }
      ],
      "stateMutability": "view",
      "type": "function"
    },
    {
      "inputs": [],
      "name": "rain",
      "outputs": [
        {
          "components": [
            {
              "internalType": "uint256",
              "name": "depreciated",
              "type": "uint256"
            },
            {
              "internalType": "uint256",
              "name": "pods",
              "type": "uint256"
            },
            {
              "internalType": "uint256",
              "name": "roots",
              "type": "uint256"
            }
          ],
          "internalType": "struct Storage.Rain",
          "name": "",
          "type": "tuple"
        }
      ],
      "stateMutability": "view",
      "type": "function"
    },
    {
      "inputs": [],
      "name": "season",
      "outputs": [
        {
          "internalType": "uint32",
          "name": "",
          "type": "uint32"
        }
      ],
      "stateMutability": "view",
      "type": "function"
    },
    {
      "inputs": [],
      "name": "seasonTime",
      "outputs": [
        {
          "internalType": "uint32",
          "name": "",
          "type": "uint32"
        }
      ],
      "stateMutability": "view",
      "type": "function"
    },
    {
      "inputs": [],
      "name": "sunrise",
      "outputs": [],
      "stateMutability": "payable",
      "type": "function"
    },
    {
      "inputs": [],
      "name": "time",
      "outputs": [
        {
          "components": [
            {
              "internalType": "uint32",
              "name": "current",
              "type": "uint32"
            },
            {
              "internalType": "uint32",
              "name": "lastSop",
              "type": "uint32"
            },
            {
              "internalType": "uint8",
              "name": "withdrawSeasons",
              "type": "uint8"
            },
            {
              "internalType": "uint32",
              "name": "lastSopSeason",
              "type": "uint32"
            },
            {
              "internalType": "uint32",
              "name": "rainStart",
              "type": "uint32"
            },
            {
              "internalType": "bool",
              "name": "raining",
              "type": "bool"
            },
            {
              "internalType": "bool",
              "name": "fertilizing",
              "type": "bool"
            },
            {
              "internalType": "uint256",
              "name": "start",
              "type": "uint256"
            },
            {
              "internalType": "uint256",
              "name": "period",
              "type": "uint256"
            },
            {
              "internalType": "uint256",
              "name": "timestamp",
              "type": "uint256"
            }
          ],
          "internalType": "struct Storage.Season",
          "name": "",
          "type": "tuple"
        }
      ],
      "stateMutability": "view",
      "type": "function"
    },
    {
      "inputs": [],
      "name": "totalDeltaB",
      "outputs": [
        {
          "internalType": "int256",
          "name": "deltaB",
          "type": "int256"
        }
      ],
      "stateMutability": "view",
      "type": "function"
    },
    {
      "inputs": [],
      "name": "weather",
      "outputs": [
        {
          "components": [
            {
              "internalType": "uint256",
              "name": "startSoil",
              "type": "uint256"
            },
            {
              "internalType": "uint256",
              "name": "lastDSoil",
              "type": "uint256"
            },
            {
              "internalType": "uint96",
              "name": "lastSoilPercent",
              "type": "uint96"
            },
            {
              "internalType": "uint32",
              "name": "lastSowTime",
              "type": "uint32"
            },
            {
              "internalType": "uint32",
              "name": "nextSowTime",
              "type": "uint32"
            },
            {
              "internalType": "uint32",
              "name": "yield",
              "type": "uint32"
            },
            {
              "internalType": "bool",
              "name": "didSowBelowMin",
              "type": "bool"
            },
            {
              "internalType": "bool",
              "name": "didSowFaster",
              "type": "bool"
            }
          ],
          "internalType": "struct Storage.Weather",
          "name": "",
          "type": "tuple"
        }
      ],
      "stateMutability": "view",
      "type": "function"
    },
    {
      "inputs": [],
      "name": "yield",
      "outputs": [
        {
          "internalType": "uint32",
          "name": "",
          "type": "uint32"
        }
      ],
      "stateMutability": "view",
      "type": "function"
    }
  ],
  "bytecode": "0x608060405234801561001057600080fd5b506142c8806100206000396000f3fe60806040526004361061009c5760003560e01c80635c975abb116100645780635c975abb1461018a578063686b6159146101b5578063c50b0fb0146101e0578063ca7b7d7b1461020b578063e60d7a8314610236578063fc06d2a6146102735761009c565b806306c499d8146100a157806316ada547146100cc57806328593984146100f757806343def26e14610122578063471bcdbe1461014d575b600080fd5b3480156100ad57600080fd5b506100b661027d565b6040516100c39190613e1f565b60405180910390f35b3480156100d857600080fd5b506100e161028c565b6040516100ee9190613f83565b60405180910390f35b34801561010357600080fd5b5061010c6103b3565b604051610119919061405f565b60405180910390f35b34801561012e57600080fd5b506101376103d2565b6040516101449190613f68565b60405180910390f35b34801561015957600080fd5b50610174600480360381019061016f91906138bf565b61040d565b6040516101819190613e1f565b60405180910390f35b34801561019657600080fd5b5061019f6104a0565b6040516101ac9190613e04565b60405180910390f35b3480156101c157600080fd5b506101ca6104b9565b6040516101d79190613f9f565b60405180910390f35b3480156101ec57600080fd5b506101f56105d1565b604051610202919061405f565b60405180910390f35b34801561021757600080fd5b506102206105f0565b60405161022d919061405f565b60405180910390f35b34801561024257600080fd5b5061025d6004803603810190610258919061393a565b610648565b60405161026a9190613fbb565b60405180910390f35b61027b610673565b005b6000610287610757565b905090565b610294613668565b6000600301604051806101400160405290816000820160009054906101000a900463ffffffff1663ffffffff1663ffffffff1681526020016000820160049054906101000a900463ffffffff1663ffffffff1663ffffffff1681526020016000820160089054906101000a900460ff1660ff1660ff1681526020016000820160099054906101000a900463ffffffff1663ffffffff1663ffffffff16815260200160008201600d9054906101000a900463ffffffff1663ffffffff1663ffffffff1681526020016000820160119054906101000a900460ff161515151581526020016000820160129054906101000a900460ff161515151581526020016001820154815260200160028201548152602001600382015481525050905090565b600080601f0160020160149054906101000a900463ffffffff16905090565b6103da6136da565b60006018016040518060600160405290816000820154815260200160018201548152602001600282015481525050905090565b600061041761080f565b73ffffffffffffffffffffffffffffffffffffffff168273ffffffffffffffffffffffffffffffffffffffff16141561045957610452610757565b905061049b565b600061049a576040517f08c379a000000000000000000000000000000000000000000000000000000000815260040161049190613ea8565b60405180910390fd5b5b919050565b60008060020160009054906101000a900460ff16905090565b6104c16136fb565b6000601f016040518061010001604052908160008201548152602001600182015481526020016002820160009054906101000a90046bffffffffffffffffffffffff166bffffffffffffffffffffffff166bffffffffffffffffffffffff16815260200160028201600c9054906101000a900463ffffffff1663ffffffff1663ffffffff1681526020016002820160109054906101000a900463ffffffff1663ffffffff1663ffffffff1681526020016002820160149054906101000a900463ffffffff1663ffffffff1663ffffffff1681526020016002820160189054906101000a900460ff161515151581526020016002820160199054906101000a900460ff161515151581525050905090565b60008060030160000160009054906101000a900463ffffffff16905090565b6000806003016001015442101561060a5760009050610645565b6000806003016002015414156106265763ffffffff9050610645565b60006003016002015460006003016001015442038161064157fe5b0490505b90565b600080603d0160008363ffffffff1663ffffffff168152602001908152602001600020549050919050565b61067b6104a0565b156106bb576040517f08c379a00000000000000000000000000000000000000000000000000000000081526004016106b290613f08565b60405180910390fd5b6106c36105d1565b63ffffffff166106d16105f0565b63ffffffff1611610717576040517f08c379a000000000000000000000000000000000000000000000000000000000815260040161070e90613ec8565b60405180910390fd5b61071f61082b565b60006107296108b1565b90506000610736826108c0565b90506107428282610de9565b6107533361074e610e20565b610e2c565b5050565b600080610762610f6e565b90508060140160000160009054906101000a900460ff1615610806576000610788610f73565b50905060006107d48360140160000160019054906101000a900463ffffffff168460030160000160009054906101000a900463ffffffff1663ffffffff16610fc590919063ffffffff16565b63ffffffff169050606481136107ea57806107ed565b60645b90506064818302816107fb57fe5b05935050505061080c565b60009150505b90565b600073c9c32cd16bf7efb85ff14e0c8603cc90f6f2ee49905090565b426000600301600301819055506001600060030160000160008282829054906101000a900463ffffffff160192506101000a81548163ffffffff021916908363ffffffff16021790555061087d6105d1565b63ffffffff167fb360bcf4b60112f485fd94b599df45181250ef0e80538be7b334728ab0990b1a60405160405180910390a2565b60006108bb611054565b905090565b6000806000600b0160000154905060006108d861110d565b73ffffffffffffffffffffffffffffffffffffffff166318160ddd6040518163ffffffff1660e01b815260040160206040518083038186803b15801561091d57600080fd5b505afa158015610931573d6000803e3d6000fd5b505050506040513d601f19601f820116820180604052508101906109559190613911565b905060008114156109935760016000601f0160020160146101000a81548163ffffffff021916908363ffffffff160217905550600892505050610de4565b60006109c16109bb6000600b01600301546000600b016001015461112990919063ffffffff16565b836111ac565b905060006109e0846000601f016000015461112990919063ffffffff16565b90506109ea613764565b63ffffffff80166000601f0160020160109054906101000a900463ffffffff1663ffffffff161015610c0b5763ffffffff80166000601f01600201600c9054906101000a900463ffffffff1663ffffffff161480610a67575061012c6000601f0160020160109054906101000a900463ffffffff1663ffffffff16105b80610b025750610a756111dd565b63ffffffff166000601f01600201600c9054906101000a900463ffffffff1663ffffffff16118015610b015750610ada610aad6111dd565b6000601f01600201600c9054906101000a900463ffffffff1663ffffffff16610fc590919063ffffffff16565b63ffffffff166000601f0160020160109054906101000a900463ffffffff1663ffffffff16105b5b15610b1f57610b18670de0b6b3a76400006111e6565b9050610b9c565b610b57610b2a6111dd565b6000601f01600201600c9054906101000a900463ffffffff1663ffffffff1661121e90919063ffffffff16565b63ffffffff166000601f0160020160109054906101000a900463ffffffff1663ffffffff1611610b9057610b896112b2565b9050610b9b565b610b986112d6565b90505b5b6000601f0160020160109054906101000a900463ffffffff166000601f01600201600c6101000a81548163ffffffff021916908363ffffffff16021790555063ffffffff6000601f0160020160106101000a81548163ffffffff021916908363ffffffff160217905550610cb7565b600080601f016001015490506000831415610c2f57610c286112d6565b9150610c5e565b6000811415610c5057610c49670de0b6b3a76400006111e6565b9150610c5d565b610c5a83826111ac565b91505b5b63ffffffff80166000601f01600201600c9054906101000a900463ffffffff1663ffffffff1614610cb55763ffffffff6000601f01600201600c6101000a81548163ffffffff021916908363ffffffff1602179055505b505b60009550610cd5610cc66112f3565b8461131a90919063ffffffff16565b15610ce35760189550610d31565b610cfd610cee611330565b8461131a90919063ffffffff16565b15610d0b5760109550610d30565b610d25610d16611357565b8461131a90919063ffffffff16565b15610d2f57600895505b5b5b6000871380610d625750600087148015610d615750610d60610d51611330565b8461137d90919063ffffffff16565b5b5b15610d6e576004860195505b610d88610d79611394565b8261131a90919063ffffffff16565b15610d9857600286019550610dbf565b610db2610da36113bb565b8261131a90919063ffffffff16565b15610dbe576001860195505b5b816000601f0160010181905550610dd5866113e2565b610dde8661153d565b50505050505b919050565b6000821315610e0f576000610dfd83611747565b9050610e09818361189c565b50610e1c565b610e1b82600003611977565b5b5050565b60006305f5e100905090565b6000610e82610e73610e5c610e3f6105d1565b63ffffffff166000600301600201546119ea90919063ffffffff16565b600060030160010154611a7090919063ffffffff16565b4261112990919063ffffffff16565b905061012c811115610e945761012c90505b6000610ea4836064846001611af8565b9050610eae61110d565b73ffffffffffffffffffffffffffffffffffffffff166340c10f1985836040518363ffffffff1660e01b8152600401610ee8929190613ddb565b600060405180830381600087803b158015610f0257600080fd5b505af1158015610f16573d6000803e3d6000fd5b505050508373ffffffffffffffffffffffffffffffffffffffff167fbb4f656853bc420ad6e4321622c07eefb4ed40e3f91b35553ce14a6dff4c098182604051610f609190613fbb565b60405180910390a250505050565b600090565b6000610f7d613777565b610f85613777565b610f8d611b6e565b80935081925050506000610fa082611ee2565b9050610fbd82600060028110610fb257fe5b602002015182611f02565b935050509091565b60008263ffffffff168263ffffffff161115611049576040517f08c379a000000000000000000000000000000000000000000000000000000000815260040180806020018281038252601e8152602001807f536166654d6174683a207375627472616374696f6e206f766572666c6f77000081525060200191505060405180910390fd5b818303905092915050565b60008061105f610f6e565b90508060140160000160009054906101000a900460ff16156110fc5760006110c48260140160000160019054906101000a900463ffffffff168360030160000160009054906101000a900463ffffffff1663ffffffff16610fc590919063ffffffff16565b63ffffffff169050606481136110da57806110dd565b60645b90506064816110ea611f2c565b02816110f257fe5b059250505061110a565b611104611fcf565b60009150505b90565b600073bea0000029ad1c77d3d5d23ba2d8893db9d1efab905090565b6000828211156111a1576040517f08c379a000000000000000000000000000000000000000000000000000000000815260040180806020018281038252601e8152602001807f536166654d6174683a207375627472616374696f6e206f766572666c6f77000081525060200191505060405180910390fd5b818303905092915050565b6111b4613764565b60405180602001604052806111d285670de0b6b3a76400008661218c565b815250905092915050565b6000603c905090565b6111ee613764565b6040518060200160405280611214670de0b6b3a7640000856119ea90919063ffffffff16565b8152509050919050565b60008082840190508363ffffffff168163ffffffff1610156112a8576040517f08c379a000000000000000000000000000000000000000000000000000000000815260040180806020018281038252601b8152602001807f536166654d6174683a206164646974696f6e206f766572666c6f77000000000081525060200191505060405180910390fd5b8091505092915050565b6112ba613764565b6040518060200160405280670de0b6b3a7640000815250905090565b6112de613764565b60405180602001604052806000815250905090565b6112fb613764565b6113156703782dace9d90000670de0b6b3a76400006111ac565b905090565b60008061132784846121bc565b11905092915050565b611338613764565b611352670214e8348c4f0000670de0b6b3a76400006111ac565b905090565b61135f613764565b61137866b1a2bc2ec50000670de0b6b3a76400006111ac565b905090565b6000600261138b84846121bc565b10905092915050565b61139c613764565b6113b6670e92596fd6290000670de0b6b3a76400006111ac565b905090565b6113c3613764565b6113dd670d2f13f7789f0000670de0b6b3a76400006111ac565b905090565b60008060010182602081106113f357fe5b602091828204019190069054906101000a900460000b905060008160000b12156114ad578060000360000b63ffffffff1661142c6103b3565b63ffffffff16116114715761143f6103b3565b600103905060016000601f0160020160146101000a81548163ffffffff021916908363ffffffff1602179055506114a8565b8060000360000b6114806103b3565b036000601f0160020160146101000a81548163ffffffff021916908363ffffffff1602179055505b6114e1565b8060000b6114b96103b3565b016000601f0160020160146101000a81548163ffffffff021916908363ffffffff1602179055505b600060030160000160009054906101000a900463ffffffff1663ffffffff167f0a45556f9791e291dc4f0b1ef18464f43f40ed88e389ebc91d42435adb0b46e78383604051611531929190613fd6565b60405180910390a25050565b600481108061154c5750600781115b1561159257600060030160000160119054906101000a900460ff161561158d5760008060030160000160116101000a81548160ff0219169083151502179055505b611744565b600060030160000160119054906101000a900460ff166116b2576001600060030160000160116101000a81548160ff0219169083151502179055506000603d01600080600301600001600d9054906101000a900463ffffffff1663ffffffff1663ffffffff168152602001908152602001600020546000603d0160008060030160000160009054906101000a900463ffffffff1663ffffffff1663ffffffff16815260200190815260200160002081905550600060030160000160009054906101000a900463ffffffff166000600301600001600d6101000a81548163ffffffff021916908363ffffffff1602179055506000600b01600101546000601801600101819055506000601b0160020154600060180160020181905550611743565b6116fe6001600060030160000160089054906101000a900460ff160360ff166000600301600001600d9054906101000a900463ffffffff1663ffffffff1661121e90919063ffffffff16565b63ffffffff16600060030160000160009054906101000a900463ffffffff1663ffffffff161061174257600080601801600201541115611741576117406121fc565b5b5b5b5b50565b60008061175261110d565b73ffffffffffffffffffffffffffffffffffffffff166340c10f1930856040518363ffffffff1660e01b815260040161178c929190613ddb565b600060405180830381600087803b1580156117a657600080fd5b505af11580156117ba573d6000803e3d6000fd5b50505050600060030160000160129054906101000a900460ff16156117fa576117e283612477565b90506117f7818461112990919063ffffffff16565b92505b6000600b01600101546000600b016003015410156118335761181b83612752565b9150611830828461112990919063ffffffff16565b92505b61183c836127c4565b600060030160000160009054906101000a900463ffffffff1663ffffffff167f037e6634327a51e2bae1af6cf38c4d1cc3f7c97706d4ffa1936e5bfc84201a4883858460405161188e93929190614028565b60405180910390a250919050565b60006118e56000601f0160020160149054906101000a900463ffffffff1660640163ffffffff166118d76064866119ea90919063ffffffff16565b6128d790919063ffffffff16565b905060188210611929576119226118fa612960565b611914611905612970565b846119ea90919063ffffffff16565b6128d790919063ffffffff16565b9050611969565b60088210156119685761196561193d612960565b611957611948612980565b846119ea90919063ffffffff16565b6128d790919063ffffffff16565b90505b5b61197281611977565b505050565b806000600b0160000181905550806000601f0160000181905550600060030160000160009054906101000a900463ffffffff1663ffffffff167f120fa8f6031fee45346a5c55083305b3840521c041af94971694219f7c26db8b826040516119df9190613fbb565b60405180910390a250565b6000808314156119fd5760009050611a6a565b6000828402905082848281611a0e57fe5b0414611a65576040517f08c379a00000000000000000000000000000000000000000000000000000000081526004018080602001828103825260218152602001806142726021913960400191505060405180910390fd5b809150505b92915050565b600080828401905083811015611aee576040517f08c379a000000000000000000000000000000000000000000000000000000000815260040180806020018281038252601b8152602001807f536166654d6174683a206164646974696f6e206f766572666c6f77000000000081525060200191505060405180910390fd5b8091505092915050565b6000808484840281611b0657fe5b046001611b1286612990565b0101905060006001905060006001905060005b83811015611b625780880a82848b0281611b3b57fe5b0481611b4357fe5b0485019450808703830292506001810182029150806001019050611b25565b50505050949350505050565b611b76613777565b611b7e613777565b611b8661080f565b73ffffffffffffffffffffffffffffffffffffffff16634469e30e6040518163ffffffff1660e01b8152600401604080518083038186803b158015611bca57600080fd5b505afa158015611bde573d6000803e3d6000fd5b505050506040513d601f19601f82011682018060405250810190611c0291906138e8565b9050611c0c61080f565b73ffffffffffffffffffffffffffffffffffffffff166314f059796040518163ffffffff1660e01b8152600401604080518083038186803b158015611c5057600080fd5b505afa158015611c64573d6000803e3d6000fd5b505050506040513d601f19601f82011682018060405250810190611c8891906138e8565b91506000611c9461080f565b73ffffffffffffffffffffffffffffffffffffffff166363543f066040518163ffffffff1660e01b815260040160206040518083038186803b158015611cd957600080fd5b505afa158015611ced573d6000803e3d6000fd5b505050506040513d601f19601f82011682018060405250810190611d119190613911565b9050611d6c611d4c611d2c834261112990919063ffffffff16565b85600060028110611d3957fe5b60200201516119ea90919063ffffffff16565b83600060028110611d5957fe5b6020020151611a7090919063ffffffff16565b82600060028110611d7957fe5b602002018181525050611ddb611dbb611d9b834261112990919063ffffffff16565b85600160028110611da857fe5b60200201516119ea90919063ffffffff16565b83600160028110611dc857fe5b6020020151611a7090919063ffffffff16565b82600160028110611de857fe5b6020020181815250506000611dfb610f6e565b905060008160140190506000611e1e82600301544261112990919063ffffffff16565b9050611e6781611e5984600101600060028110611e3757fe5b015488600060028110611e4657fe5b602002015161112990919063ffffffff16565b6128d790919063ffffffff16565b86600060028110611e7457fe5b602002018181525050611ec481611eb684600101600160028110611e9457fe5b015488600160028110611ea357fe5b602002015161112990919063ffffffff16565b6128d790919063ffffffff16565b86600160028110611ed157fe5b602002018181525050505050509091565b6000611efb611eef61080f565b8364e8d4a51000612bbc565b9050919050565b60008064e8d4a5100060028481611f1557fe5b0481611f1d57fe5b04905083810391505092915050565b600080611f37610f6e565b9050611f41610f73565b82601401600101600082919050906002611f5c929190613799565b5081935050508060030160000160009054906101000a900463ffffffff1663ffffffff167f0e0c101fa6afb12838450cfd752d904d70198349367ff256b1460f10bcbd19048383601401600101604051611fb7929190613e3a565b60405180910390a24281601401600301819055505090565b6000611fd9610f6e565b905060008160140190506000611fed61080f565b73ffffffffffffffffffffffffffffffffffffffff16634469e30e6040518163ffffffff1660e01b8152600401604080518083038186803b15801561203157600080fd5b505afa158015612045573d6000803e3d6000fd5b505050506040513d601f19601f8201168201806040525081019061206991906138e8565b9050600061207561080f565b73ffffffffffffffffffffffffffffffffffffffff166363543f066040518163ffffffff1660e01b815260040160206040518083038186803b1580156120ba57600080fd5b505afa1580156120ce573d6000803e3d6000fd5b505050506040513d601f19601f820116820180604052508101906120f29190613911565b905060008260006002811061210357fe5b602002015114158015612128575060008260016002811061212057fe5b602002015114155b8015612135575060008114155b1561218657612142612c57565b846001016000866003016000849190505583919050906002612165929190613799565b50505060018360000160006101000a81548160ff0219169083151502179055505b50505050565b60006121b3826121a585876119ea90919063ffffffff16565b6128d790919063ffffffff16565b90509392505050565b60008160000151836000015114156121d757600190506121f6565b81600001518360000151116121ed5760006121f0565b60025b60ff1690505b92915050565b6000612206612edc565b9050600081136122165750612475565b6000819050600080601801600101546000600b016003015410156122fb576000600b0160030154600060180160010154039050612264816000600b0160030154611a7090919063ffffffff16565b6000600b016003018190555061227861110d565b73ffffffffffffffffffffffffffffffffffffffff166340c10f19306122a78585611a7090919063ffffffff16565b6040518363ffffffff1660e01b81526004016122c4929190613ddb565b600060405180830381600087803b1580156122de57600080fd5b505af11580156122f2573d6000803e3d6000fd5b50505050612370565b61230361110d565b73ffffffffffffffffffffffffffffffffffffffff166340c10f1930846040518363ffffffff1660e01b815260040161233d929190613ddb565b600060405180830381600087803b15801561235757600080fd5b505af115801561236b573d6000803e3d6000fd5b505050505b600061237a612f94565b73ffffffffffffffffffffffffffffffffffffffff16633df02124600060018660006040518563ffffffff1660e01b81526004016123bb9493929190613e63565b602060405180830381600087803b1580156123d557600080fd5b505af11580156123e9573d6000803e3d6000fd5b505050506040513d601f19601f8201168201806040525081019061240d9190613911565b905061241881612fb0565b600060030160000160009054906101000a900463ffffffff1663ffffffff167f197f686c11daefde9cd3a4b8a2494b7405fd240b540fca948ab00a0d2dcc17588284604051612468929190613fff565b60405180910390a2505050505b565b6000806124946124856130ed565b846128d790919063ffffffff16565b905060006124b0600060430154836128d790919063ffffffff16565b905060008060470160009054906101000a90046fffffffffffffffffffffffffffffffff166fffffffffffffffffffffffffffffffff16905060006124fe8383611a7090919063ffffffff16565b905060008060460160009054906101000a90046fffffffffffffffffffffffffffffffff166fffffffffffffffffffffffffffffffff1690505b8082106126be57612552838261112990919063ffffffff16565b935061257e61256f600060430154866119ea90919063ffffffff16565b87611a7090919063ffffffff16565b95506125886130f6565b61263f5780600060470160006101000a8154816fffffffffffffffffffffffffffffffff02191690836fffffffffffffffffffffffffffffffff1602179055506125e086600060440154611a7090919063ffffffff16565b60006044018190555060006045015460006044015414612635576040517f08c379a000000000000000000000000000000000000000000000000000000000815260040161262c90613ee8565b60405180910390fd5b505050505061274d565b61266960006043015461265b888861112990919063ffffffff16565b6128d790919063ffffffff16565b93508092506126818484611a7090919063ffffffff16565b9150600060460160009054906101000a90046fffffffffffffffffffffffffffffffff166fffffffffffffffffffffffffffffffff169050612538565b81600060470160006101000a8154816fffffffffffffffffffffffffffffffff02191690836fffffffffffffffffffffffffffffffff160217905550612724612715600060430154866119ea90919063ffffffff16565b87611a7090919063ffffffff16565b955061273e86600060440154611a7090919063ffffffff16565b60006044018190555050505050505b919050565b6000806000600b01600301546000600b01600101540390506127846127756132b0565b846128d790919063ffffffff16565b91508082116127935781612795565b805b91506127b2826000600b0160030154611a7090919063ffffffff16565b6000600b016003018190555050919050565b6127f86127e16127d26132b9565b836119ea90919063ffffffff16565b6000601b0160000154611a7090919063ffffffff16565b6000601b016000018190555061281c81600060220154611a7090919063ffffffff16565b60006022018190555061288481600060380160006128386132c3565b73ffffffffffffffffffffffffffffffffffffffff1673ffffffffffffffffffffffffffffffffffffffff16815260200190815260200160002060000154611a7090919063ffffffff16565b600060380160006128936132c3565b73ffffffffffffffffffffffffffffffffffffffff1673ffffffffffffffffffffffffffffffffffffffff1681526020019081526020016000206000018190555050565b600080821161294e576040517f08c379a000000000000000000000000000000000000000000000000000000000815260040180806020018281038252601a8152602001807f536166654d6174683a206469766973696f6e206279207a65726f00000000000081525060200191505060405180910390fd5b81838161295757fe5b04905092915050565b6000670de0b6b3a7640000905090565b60006706f05b59d3b20000905090565b60006714d1120d7b160000905090565b60008160018303925060028304831792506004830483179250601083048317925061010083048317925062010000830483179250640100000000830483179250680100000000000000008304831792507001000000000000000000000000000000008304831792506001830192506040517ff8f9cbfae6cc78fbefe7cdc3a1793dfcf4f0e8bbd8cec470b6a28a7a5a3e1efd81527ff5ecf1b3e9debc68e1d9cfabc5997135bfb7a7a3938b7b606b5b4b3f2f1f0ffe60208201527ff6e4ed9ff2d6b458eadcdf97bd91692de2d4da8fd2d0ac50c6ae9a827252361660408201527fc8c0b887b0a8a4489c948c7f847c6125746c645c544c444038302820181008ff60608201527ff7cae577eec2a03cf3bad76fb589591debb2dd67e0aa9834bea6925f6a4a2e0e60808201527fe39ed557db96902cd38ed14fad815115c786af479b7e8324736353433727170760a08201527fc976c13bb96e881cb166a933a55e490d9d56952b8d4e801485467d236242260660c08201527f753a6d1b65325d0c552a4d1345224105391a310b29122104190a11030902010060e082015261010081016040527e818283848586878898a8b8c8d8e8f929395969799a9b9d9e9faaeb6bedeeff7f01000000000000000000000000000000000000000000000000000000000000008082870204818160ff038501510495507f8000000000000000000000000000000000000000000000000000000000000000851161010002860195505050505050919050565b6000612c4e612bcb84846132df565b8573ffffffffffffffffffffffffffffffffffffffff166376a2f0f06040518163ffffffff1660e01b815260040160206040518083038186803b158015612c1157600080fd5b505afa158015612c25573d6000803e3d6000fd5b505050506040513d601f19601f82011682018060405250810190612c499190613911565b61337e565b90509392505050565b612c5f613777565b6000612c6961080f565b73ffffffffffffffffffffffffffffffffffffffff16634469e30e6040518163ffffffff1660e01b8152600401604080518083038186803b158015612cad57600080fd5b505afa158015612cc1573d6000803e3d6000fd5b505050506040513d601f19601f82011682018060405250810190612ce591906138e8565b91506000612cf161080f565b73ffffffffffffffffffffffffffffffffffffffff166314f059796040518163ffffffff1660e01b8152600401604080518083038186803b158015612d3557600080fd5b505afa158015612d49573d6000803e3d6000fd5b505050506040513d601f19601f82011682018060405250810190612d6d91906138e8565b9050612d7761080f565b73ffffffffffffffffffffffffffffffffffffffff166363543f066040518163ffffffff1660e01b815260040160206040518083038186803b158015612dbc57600080fd5b505afa158015612dd0573d6000803e3d6000fd5b505050506040513d601f19601f82011682018060405250810190612df49190613911565b9150612e4f612e2f612e0f844261112990919063ffffffff16565b83600060028110612e1c57fe5b60200201516119ea90919063ffffffff16565b84600060028110612e3c57fe5b6020020151611a7090919063ffffffff16565b83600060028110612e5c57fe5b602002018181525050612ebe612e9e612e7e844261112990919063ffffffff16565b83600160028110612e8b57fe5b60200201516119ea90919063ffffffff16565b84600160028110612eab57fe5b6020020151611a7090919063ffffffff16565b83600160028110612ecb57fe5b602002018181525050429150509091565b600080612ee7612f94565b73ffffffffffffffffffffffffffffffffffffffff166314f059796040518163ffffffff1660e01b8152600401604080518083038186803b158015612f2b57600080fd5b505afa158015612f3f573d6000803e3d6000fd5b505050506040513d601f19601f82011682018060405250810190612f6391906138e8565b90506000612f7082611ee2565b9050612f8d82600060028110612f8257fe5b602002015182611f02565b9250505090565b600073c9c32cd16bf7efb85ff14e0c8603cc90f6f2ee49905090565b61302f612fe7600060180160020154612fd9612fca6134e3565b856119ea90919063ffffffff16565b6128d790919063ffffffff16565b6000603d0160008060030160000160049054906101000a900463ffffffff1663ffffffff1663ffffffff16815260200190815260200160002054611a7090919063ffffffff16565b6000603d01600080600301600001600d9054906101000a900463ffffffff1663ffffffff1663ffffffff168152602001908152602001600020819055506000600301600001600d9054906101000a900463ffffffff16600060030160000160046101000a81548163ffffffff021916908363ffffffff160217905550600060030160000160009054906101000a900463ffffffff16600060030160000160096101000a81548163ffffffff021916908363ffffffff16021790555050565b60006003905090565b600080613101610f6e565b905060008160460160009054906101000a90046fffffffffffffffffffffffffffffffff169050613147613134826134f5565b836043015461112990919063ffffffff16565b8260430181905550600061315a82613544565b90506000816fffffffffffffffffffffffffffffffff1614156132625760008360430154146131be576040517f08c379a00000000000000000000000000000000000000000000000000000000081526004016131b590613f28565b60405180910390fd5b60008360460160006101000a8154816fffffffffffffffffffffffffffffffff02191690836fffffffffffffffffffffffffffffffff16021790555060008360460160106101000a8154816fffffffffffffffffffffffffffffffff02191690836fffffffffffffffffffffffffffffffff16021790555060008360030160000160126101000a81548160ff021916908315150217905550600093505050506132ad565b61326b82613544565b8360460160006101000a8154816fffffffffffffffffffffffffffffffff02191690836fffffffffffffffffffffffffffffffff160217905550600193505050505b90565b60006002905090565b6000612710905090565b600073bea0000029ad1c77d3d5d23ba2d8893db9d1efab905090565b6132e7613777565b61337683836132f46135af565b73ffffffffffffffffffffffffffffffffffffffff1663bb7b8b806040518163ffffffff1660e01b815260040160206040518083038186803b15801561333957600080fd5b505afa15801561334d573d6000803e3d6000fd5b505050506040513d601f19601f820116820180604052508101906133719190613911565b6135cb565b905092915050565b6000806000805b60028110156133ae5785816002811061339a57fe5b602002015183019250806001019050613385565b5060008214156133c3576000925050506134dd565b819250600060028502905060005b61010081101561349357600085905060005b60028110156134185760028982600281106133fa57fe5b6020020151028783028161340a57fe5b0491508060010190506133e3565b508593508060016002010260648760648603028161343257fe5b0401866002830260648887028161344557fe5b0401028161344f57fe5b04955083861180156134645750600184870311155b156134735750505050506134dd565b6001868503116134875750505050506134dd565b508060010190506133d1565b5060006134d5576040517f08c379a00000000000000000000000000000000000000000000000000000000081526004016134cc90613f48565b60405180910390fd5b600093505050505b92915050565b600069d3c21bcecceda1000000905090565b600080613500610f6e565b9050806041016000846fffffffffffffffffffffffffffffffff166fffffffffffffffffffffffffffffffff16815260200190815260200160002054915050919050565b60008061354f610f6e565b9050806042016000846fffffffffffffffffffffffffffffffff166fffffffffffffffffffffffffffffffff16815260200190815260200160002060009054906101000a90046fffffffffffffffffffffffffffffffff16915050919050565b600073bebc44782c7db0a1a60cb6fe97d0b483032ff1c7905090565b6135d3613777565b6135f783856000600281106135e457fe5b60200201516119ea90919063ffffffff16565b8160006002811061360457fe5b60200201818152505061364b670de0b6b3a764000061363d848760016002811061362a57fe5b60200201516119ea90919063ffffffff16565b6128d790919063ffffffff16565b8160016002811061365857fe5b6020020181815250509392505050565b604051806101400160405280600063ffffffff168152602001600063ffffffff168152602001600060ff168152602001600063ffffffff168152602001600063ffffffff1681526020016000151581526020016000151581526020016000815260200160008152602001600081525090565b60405180606001604052806000815260200160008152602001600081525090565b604051806101000160405280600081526020016000815260200160006bffffffffffffffffffffffff168152602001600063ffffffff168152602001600063ffffffff168152602001600063ffffffff1681526020016000151581526020016000151581525090565b6040518060200160405280600081525090565b6040518060400160405280600290602082028036833780820191505090505090565b82600281019282156137c8579160200282015b828111156137c75782518255916020019190600101906137ac565b5b5090506137d591906137d9565b5090565b5b808211156137f25760008160009055506001016137da565b5090565b6000613809613804846140ab565b61407a565b9050808285602086028201111561381f57600080fd5b60005b8581101561384f57816138358882613895565b845260208401935060208301925050600181019050613822565b5050509392505050565b6000813590506138688161422c565b92915050565b600082601f83011261387f57600080fd5b600261388c8482856137f6565b91505092915050565b6000815190506138a481614243565b92915050565b6000813590506138b98161425a565b92915050565b6000602082840312156138d157600080fd5b60006138df84828501613859565b91505092915050565b6000604082840312156138fa57600080fd5b60006139088482850161386e565b91505092915050565b60006020828403121561392357600080fd5b600061393184828501613895565b91505092915050565b60006020828403121561394c57600080fd5b600061395a848285016138aa565b91505092915050565b600061396f8383613d81565b60208301905092915050565b61398481614119565b82525050565b613993816140db565b61399d81846140f3565b92506139a8826140d1565b8060005b838110156139e0576139bd8261420c565b6139c78782613963565b96506139d2836140e6565b9250506001810190506139ac565b505050505050565b6139f18161412b565b82525050565b613a008161412b565b82525050565b613a0f81614144565b82525050565b613a1e8161414e565b82525050565b613a2d816141ba565b82525050565b613a3c816141cc565b82525050565b613a4b816141de565b82525050565b6000613a5e601a836140fe565b91507f4f7261636c653a20506f6f6c206e6f7420737570706f727465640000000000006000830152602082019050919050565b6000613a9e601d836140fe565b91507f536561736f6e3a205374696c6c2063757272656e7420536561736f6e2e0000006000830152602082019050919050565b6000613ade600c836140fe565b91507f5061696420213d206f77656400000000000000000000000000000000000000006000830152602082019050919050565b6000613b1e600f836140fe565b91507f536561736f6e3a205061757365642e00000000000000000000000000000000006000830152602082019050919050565b6000613b5e6017836140fe565b91507f5374696c6c206163746976652066657274696c697a65720000000000000000006000830152602082019050919050565b6000613b9e6018836140fe565b91507f50726963653a20436f6e76657267656e63652066616c736500000000000000006000830152602082019050919050565b606082016000820151613be76000850182613d81565b506020820151613bfa6020850182613d81565b506040820151613c0d6040850182613d81565b50505050565b61014082016000820151613c2a6000850182613d9f565b506020820151613c3d6020850182613d9f565b506040820151613c506040850182613dbd565b506060820151613c636060850182613d9f565b506080820151613c766080850182613d9f565b5060a0820151613c8960a08501826139e8565b5060c0820151613c9c60c08501826139e8565b5060e0820151613caf60e0850182613d81565b50610100820151613cc4610100850182613d81565b50610120820151613cd9610120850182613d81565b50505050565b61010082016000820151613cf66000850182613d81565b506020820151613d096020850182613d81565b506040820151613d1c6040850182613dcc565b506060820151613d2f6060850182613d9f565b506080820151613d426080850182613d9f565b5060a0820151613d5560a0850182613d9f565b5060c0820151613d6860c08501826139e8565b5060e0820151613d7b60e08501826139e8565b50505050565b613d8a8161417b565b82525050565b613d998161417b565b82525050565b613da881614185565b82525050565b613db781614185565b82525050565b613dc681614195565b82525050565b613dd5816141a2565b82525050565b6000604082019050613df0600083018561397b565b613dfd6020830184613d90565b9392505050565b6000602082019050613e1960008301846139f7565b92915050565b6000602082019050613e346000830184613a06565b92915050565b6000606082019050613e4f6000830185613a06565b613e5c602083018461398a565b9392505050565b6000608082019050613e786000830187613a24565b613e856020830186613a42565b613e926040830185613d90565b613e9f6060830184613a33565b95945050505050565b60006020820190508181036000830152613ec181613a51565b9050919050565b60006020820190508181036000830152613ee181613a91565b9050919050565b60006020820190508181036000830152613f0181613ad1565b9050919050565b60006020820190508181036000830152613f2181613b11565b9050919050565b60006020820190508181036000830152613f4181613b51565b9050919050565b60006020820190508181036000830152613f6181613b91565b9050919050565b6000606082019050613f7d6000830184613bd1565b92915050565b600061014082019050613f996000830184613c13565b92915050565b600061010082019050613fb56000830184613cdf565b92915050565b6000602082019050613fd06000830184613d90565b92915050565b6000604082019050613feb6000830185613d90565b613ff86020830184613a15565b9392505050565b60006040820190506140146000830185613d90565b6140216020830184613d90565b9392505050565b600060608201905061403d6000830186613d90565b61404a6020830185613d90565b6140576040830184613d90565b949350505050565b60006020820190506140746000830184613dae565b92915050565b6000604051905081810181811067ffffffffffffffff821117156140a1576140a061420a565b5b8060405250919050565b600067ffffffffffffffff8211156140c6576140c561420a565b5b602082029050919050565b6000819050919050565b600060029050919050565b6000600182019050919050565b600081905092915050565b600082825260208201905092915050565b6000819050919050565b60006141248261415b565b9050919050565b60008115159050919050565b600081600f0b9050919050565b6000819050919050565b60008160000b9050919050565b600073ffffffffffffffffffffffffffffffffffffffff82169050919050565b6000819050919050565b600063ffffffff82169050919050565b600060ff82169050919050565b60006bffffffffffffffffffffffff82169050919050565b60006141c582614137565b9050919050565b60006141d78261417b565b9050919050565b60006141e982614137565b9050919050565b60006142036141fe8361421f565b61410f565b9050919050565bfe5b600061421882546141f0565b9050919050565b60008160001c9050919050565b61423581614119565b811461424057600080fd5b50565b61424c8161417b565b811461425757600080fd5b50565b61426381614185565b811461426e57600080fd5b5056fe536166654d6174683a206d756c7469706c69636174696f6e206f766572666c6f77a26469706673582212204e8b801247ebf93571ee0a4b8264bc056a2d58dd61fe43d243f5a60df71d208064736f6c63430007060033",
  "linkReferences": {},
  "deployedLinkReferences": {}
}