{
  "_format": "hh-sol-artifact-1",
  "contractName": "Replant4",
  "sourceName": "contracts/farm/init/replant/Replant4.sol",
  "abi": [
    {
      "anonymous": false,
      "inputs": [
        {
          "indexed": true,
          "internalType": "address",
          "name": "account",
          "type": "address"
        },
        {
          "indexed": true,
          "internalType": "address",
          "name": "token",
          "type": "address"
        },
        {
          "indexed": false,
          "internalType": "uint32",
          "name": "season",
          "type": "uint32"
        },
        {
          "indexed": false,
          "internalType": "uint256",
          "name": "amount",
          "type": "uint256"
        }
      ],
      "name": "ClaimSeason",
      "type": "event"
    },
    {
      "anonymous": false,
      "inputs": [
        {
          "indexed": true,
          "internalType": "address",
          "name": "account",
          "type": "address"
        },
        {
          "indexed": true,
          "internalType": "address",
          "name": "token",
          "type": "address"
        },
        {
          "indexed": false,
          "internalType": "uint32[]",
          "name": "seasons",
          "type": "uint32[]"
        },
        {
          "indexed": false,
          "internalType": "uint256",
          "name": "amount",
          "type": "uint256"
        }
      ],
      "name": "ClaimSeasons",
      "type": "event"
    },
    {
      "anonymous": false,
      "inputs": [
        {
          "indexed": true,
          "internalType": "address",
          "name": "account",
          "type": "address"
        },
        {
          "indexed": false,
          "internalType": "uint32[]",
          "name": "withdrawals",
          "type": "uint32[]"
        },
        {
          "indexed": false,
          "internalType": "uint256",
          "name": "lp",
          "type": "uint256"
        }
      ],
      "name": "LPClaim",
      "type": "event"
    },
    {
      "inputs": [
        {
          "components": [
            {
              "internalType": "address",
              "name": "account",
              "type": "address"
            },
            {
              "internalType": "uint32[]",
              "name": "seasons",
              "type": "uint32[]"
            },
            {
              "internalType": "uint256",
              "name": "amount",
              "type": "uint256"
            }
          ],
          "internalType": "struct Replant4.LPWithdrawals[]",
          "name": "lpWithdrawals",
          "type": "tuple[]"
        },
        {
          "components": [
            {
              "internalType": "address",
              "name": "account",
              "type": "address"
            },
            {
              "internalType": "address",
              "name": "token",
              "type": "address"
            },
            {
              "internalType": "uint32[]",
              "name": "seasons",
              "type": "uint32[]"
            },
            {
              "internalType": "uint256",
              "name": "amount",
              "type": "uint256"
            }
          ],
          "internalType": "struct Replant4.Withdrawals[]",
          "name": "withdrawals",
          "type": "tuple[]"
        }
      ],
      "name": "init",
      "outputs": [],
      "stateMutability": "nonpayable",
      "type": "function"
    }
  ],
  "bytecode": "0x608060405234801561001057600080fd5b506108c7806100206000396000f3fe608060405234801561001057600080fd5b506004361061002b5760003560e01c8063328cb9e114610030575b600080fd5b61004a600480360381019061004591906105d6565b61004c565b005b6100568484610108565b61006082826101f3565b60008060380160006100706104b7565b73ffffffffffffffffffffffffffffffffffffffff1673ffffffffffffffffffffffffffffffffffffffff1681526020019081526020016000206001018190555060008060380160006100c16104d3565b73ffffffffffffffffffffffffffffffffffffffff1673ffffffffffffffffffffffffffffffffffffffff1681526020019081526020016000206001018190555050505050565b60005b828290508110156101ee5782828281811061012257fe5b90506020028101906101349190610790565b600001602081019061014691906105ad565b73ffffffffffffffffffffffffffffffffffffffff167f4cc24bb47d349c3f6f323a4b3bb25a5e7af02fc0fa92c561bb81c7d8b61cccd284848481811061018957fe5b905060200281019061019b9190610790565b80602001906101aa9190610739565b8686868181106101b657fe5b90506020028101906101c89190610790565b604001356040516101db93929190610707565b60405180910390a280600101905061010b565b505050565b60005b828290508110156104b25760005b83838381811061021057fe5b905060200281019061022291906107b4565b80604001906102319190610739565b9050811015610393576000603101600085858581811061024d57fe5b905060200281019061025f91906107b4565b600001602081019061027191906105ad565b73ffffffffffffffffffffffffffffffffffffffff1673ffffffffffffffffffffffffffffffffffffffff16815260200190815260200160002060110160008585858181106102bc57fe5b90506020028101906102ce91906107b4565b60200160208101906102e091906105ad565b73ffffffffffffffffffffffffffffffffffffffff1673ffffffffffffffffffffffffffffffffffffffff168152602001908152602001600020600085858581811061032857fe5b905060200281019061033a91906107b4565b80604001906103499190610739565b8481811061035357fe5b9050602002016020810190610368919061064b565b63ffffffff1663ffffffff168152602001908152602001600020600090558080600101915050610204565b508282828181106103a057fe5b90506020028101906103b291906107b4565b60200160208101906103c491906105ad565b73ffffffffffffffffffffffffffffffffffffffff168383838181106103e657fe5b90506020028101906103f891906107b4565b600001602081019061040a91906105ad565b73ffffffffffffffffffffffffffffffffffffffff167f0ec1656f234edd141e7fe3024543ed2abc77d44dca5407da815edb9ebc18ec0185858581811061044d57fe5b905060200281019061045f91906107b4565b806040019061046e9190610739565b87878781811061047a57fe5b905060200281019061048c91906107b4565b6060013560405161049f93929190610707565b60405180910390a38060010190506101f6565b505050565b6000733a70dfa7d2262988064a2d051dd47521e43c9bdd905090565b600073d652c40fbb3f06d6b58cb9aa9cff063ee63d465d905090565b6000813590506104fe81610863565b92915050565b60008083601f84011261051657600080fd5b8235905067ffffffffffffffff81111561052f57600080fd5b60208301915083602082028301111561054757600080fd5b9250929050565b60008083601f84011261056057600080fd5b8235905067ffffffffffffffff81111561057957600080fd5b60208301915083602082028301111561059157600080fd5b9250929050565b6000813590506105a78161087a565b92915050565b6000602082840312156105bf57600080fd5b60006105cd848285016104ef565b91505092915050565b600080600080604085870312156105ec57600080fd5b600085013567ffffffffffffffff81111561060657600080fd5b61061287828801610504565b9450945050602085013567ffffffffffffffff81111561063157600080fd5b61063d8782880161054e565b925092505092959194509250565b60006020828403121561065d57600080fd5b600061066b84828501610598565b91505092915050565b600061068083836106f8565b60208301905092915050565b600061069883856107ef565b93506106a3826107d8565b8060005b858110156106dc576106b98284610800565b6106c38882610674565b97506106ce836107e2565b9250506001810190506106a7565b5085925050509392505050565b6106f281610849565b82525050565b61070181610853565b82525050565b6000604082019050818103600083015261072281858761068c565b905061073160208301846106e9565b949350505050565b6000808335600160200384360303811261075257600080fd5b80840192508235915067ffffffffffffffff82111561077057600080fd5b60208301925060208202360383131561078857600080fd5b509250929050565b6000823560016060038336030381126107a857600080fd5b80830191505092915050565b6000823560016080038336030381126107cc57600080fd5b80830191505092915050565b6000819050919050565b6000602082019050919050565b600082825260208201905092915050565b600061080f6020840184610598565b905092915050565b600061082282610829565b9050919050565b600073ffffffffffffffffffffffffffffffffffffffff82169050919050565b6000819050919050565b600063ffffffff82169050919050565b61086c81610817565b811461087757600080fd5b50565b61088381610853565b811461088e57600080fd5b5056fea264697066735822122039493857bf99055d7a6d102dfc3f333c1be75a033ca6ba1809e472db8e63e30464736f6c63430007060033",
  "linkReferences": {},
  "deployedLinkReferences": {}
}