{
  "_format": "hh-sol-artifact-1",
  "contractName": "JoeRouter02",
  "sourceName": "contracts/joe/JoeRouter02.sol",
  "abi": [
    {
      "inputs": [
        {
          "internalType": "address",
          "name": "_factory",
          "type": "address"
        },
        {
          "internalType": "address",
          "name": "_WAVAX",
          "type": "address"
        }
      ],
      "stateMutability": "nonpayable",
      "type": "constructor"
    },
    {
      "inputs": [],
      "name": "WAVAX",
      "outputs": [
        {
          "internalType": "address",
          "name": "",
          "type": "address"
        }
      ],
      "stateMutability": "view",
      "type": "function"
    },
    {
      "inputs": [
        {
          "internalType": "address",
          "name": "tokenA",
          "type": "address"
        },
        {
          "internalType": "address",
          "name": "tokenB",
          "type": "address"
        },
        {
          "internalType": "uint256",
          "name": "amountADesired",
          "type": "uint256"
        },
        {
          "internalType": "uint256",
          "name": "amountBDesired",
          "type": "uint256"
        },
        {
          "internalType": "uint256",
          "name": "amountAMin",
          "type": "uint256"
        },
        {
          "internalType": "uint256",
          "name": "amountBMin",
          "type": "uint256"
        },
        {
          "internalType": "address",
          "name": "to",
          "type": "address"
        },
        {
          "internalType": "uint256",
          "name": "deadline",
          "type": "uint256"
        }
      ],
      "name": "addLiquidity",
      "outputs": [
        {
          "internalType": "uint256",
          "name": "amountA",
          "type": "uint256"
        },
        {
          "internalType": "uint256",
          "name": "amountB",
          "type": "uint256"
        },
        {
          "internalType": "uint256",
          "name": "liquidity",
          "type": "uint256"
        }
      ],
      "stateMutability": "nonpayable",
      "type": "function"
    },
    {
      "inputs": [
        {
          "internalType": "address",
          "name": "token",
          "type": "address"
        },
        {
          "internalType": "uint256",
          "name": "amountTokenDesired",
          "type": "uint256"
        },
        {
          "internalType": "uint256",
          "name": "amountTokenMin",
          "type": "uint256"
        },
        {
          "internalType": "uint256",
          "name": "amountAVAXMin",
          "type": "uint256"
        },
        {
          "internalType": "address",
          "name": "to",
          "type": "address"
        },
        {
          "internalType": "uint256",
          "name": "deadline",
          "type": "uint256"
        }
      ],
      "name": "addLiquidityAVAX",
      "outputs": [
        {
          "internalType": "uint256",
          "name": "amountToken",
          "type": "uint256"
        },
        {
          "internalType": "uint256",
          "name": "amountAVAX",
          "type": "uint256"
        },
        {
          "internalType": "uint256",
          "name": "liquidity",
          "type": "uint256"
        }
      ],
      "stateMutability": "payable",
      "type": "function"
    },
    {
      "inputs": [],
      "name": "factory",
      "outputs": [
        {
          "internalType": "address",
          "name": "",
          "type": "address"
        }
      ],
      "stateMutability": "view",
      "type": "function"
    },
    {
      "inputs": [
        {
          "internalType": "uint256",
          "name": "amountOut",
          "type": "uint256"
        },
        {
          "internalType": "uint256",
          "name": "reserveIn",
          "type": "uint256"
        },
        {
          "internalType": "uint256",
          "name": "reserveOut",
          "type": "uint256"
        }
      ],
      "name": "getAmountIn",
      "outputs": [
        {
          "internalType": "uint256",
          "name": "amountIn",
          "type": "uint256"
        }
      ],
      "stateMutability": "pure",
      "type": "function"
    },
    {
      "inputs": [
        {
          "internalType": "uint256",
          "name": "amountIn",
          "type": "uint256"
        },
        {
          "internalType": "uint256",
          "name": "reserveIn",
          "type": "uint256"
        },
        {
          "internalType": "uint256",
          "name": "reserveOut",
          "type": "uint256"
        }
      ],
      "name": "getAmountOut",
      "outputs": [
        {
          "internalType": "uint256",
          "name": "amountOut",
          "type": "uint256"
        }
      ],
      "stateMutability": "pure",
      "type": "function"
    },
    {
      "inputs": [
        {
          "internalType": "uint256",
          "name": "amountOut",
          "type": "uint256"
        },
        {
          "internalType": "address[]",
          "name": "path",
          "type": "address[]"
        }
      ],
      "name": "getAmountsIn",
      "outputs": [
        {
          "internalType": "uint256[]",
          "name": "amounts",
          "type": "uint256[]"
        }
      ],
      "stateMutability": "view",
      "type": "function"
    },
    {
      "inputs": [
        {
          "internalType": "uint256",
          "name": "amountIn",
          "type": "uint256"
        },
        {
          "internalType": "address[]",
          "name": "path",
          "type": "address[]"
        }
      ],
      "name": "getAmountsOut",
      "outputs": [
        {
          "internalType": "uint256[]",
          "name": "amounts",
          "type": "uint256[]"
        }
      ],
      "stateMutability": "view",
      "type": "function"
    },
    {
      "inputs": [
        {
          "internalType": "uint256",
          "name": "amountA",
          "type": "uint256"
        },
        {
          "internalType": "uint256",
          "name": "reserveA",
          "type": "uint256"
        },
        {
          "internalType": "uint256",
          "name": "reserveB",
          "type": "uint256"
        }
      ],
      "name": "quote",
      "outputs": [
        {
          "internalType": "uint256",
          "name": "amountB",
          "type": "uint256"
        }
      ],
      "stateMutability": "pure",
      "type": "function"
    },
    {
      "inputs": [
        {
          "internalType": "address",
          "name": "tokenA",
          "type": "address"
        },
        {
          "internalType": "address",
          "name": "tokenB",
          "type": "address"
        },
        {
          "internalType": "uint256",
          "name": "liquidity",
          "type": "uint256"
        },
        {
          "internalType": "uint256",
          "name": "amountAMin",
          "type": "uint256"
        },
        {
          "internalType": "uint256",
          "name": "amountBMin",
          "type": "uint256"
        },
        {
          "internalType": "address",
          "name": "to",
          "type": "address"
        },
        {
          "internalType": "uint256",
          "name": "deadline",
          "type": "uint256"
        }
      ],
      "name": "removeLiquidity",
      "outputs": [
        {
          "internalType": "uint256",
          "name": "amountA",
          "type": "uint256"
        },
        {
          "internalType": "uint256",
          "name": "amountB",
          "type": "uint256"
        }
      ],
      "stateMutability": "nonpayable",
      "type": "function"
    },
    {
      "inputs": [
        {
          "internalType": "address",
          "name": "token",
          "type": "address"
        },
        {
          "internalType": "uint256",
          "name": "liquidity",
          "type": "uint256"
        },
        {
          "internalType": "uint256",
          "name": "amountTokenMin",
          "type": "uint256"
        },
        {
          "internalType": "uint256",
          "name": "amountAVAXMin",
          "type": "uint256"
        },
        {
          "internalType": "address",
          "name": "to",
          "type": "address"
        },
        {
          "internalType": "uint256",
          "name": "deadline",
          "type": "uint256"
        }
      ],
      "name": "removeLiquidityAVAX",
      "outputs": [
        {
          "internalType": "uint256",
          "name": "amountToken",
          "type": "uint256"
        },
        {
          "internalType": "uint256",
          "name": "amountAVAX",
          "type": "uint256"
        }
      ],
      "stateMutability": "nonpayable",
      "type": "function"
    },
    {
      "inputs": [
        {
          "internalType": "address",
          "name": "token",
          "type": "address"
        },
        {
          "internalType": "uint256",
          "name": "liquidity",
          "type": "uint256"
        },
        {
          "internalType": "uint256",
          "name": "amountTokenMin",
          "type": "uint256"
        },
        {
          "internalType": "uint256",
          "name": "amountAVAXMin",
          "type": "uint256"
        },
        {
          "internalType": "address",
          "name": "to",
          "type": "address"
        },
        {
          "internalType": "uint256",
          "name": "deadline",
          "type": "uint256"
        }
      ],
      "name": "removeLiquidityAVAXSupportingFeeOnTransferTokens",
      "outputs": [
        {
          "internalType": "uint256",
          "name": "amountAVAX",
          "type": "uint256"
        }
      ],
      "stateMutability": "nonpayable",
      "type": "function"
    },
    {
      "inputs": [
        {
          "internalType": "address",
          "name": "token",
          "type": "address"
        },
        {
          "internalType": "uint256",
          "name": "liquidity",
          "type": "uint256"
        },
        {
          "internalType": "uint256",
          "name": "amountTokenMin",
          "type": "uint256"
        },
        {
          "internalType": "uint256",
          "name": "amountAVAXMin",
          "type": "uint256"
        },
        {
          "internalType": "address",
          "name": "to",
          "type": "address"
        },
        {
          "internalType": "uint256",
          "name": "deadline",
          "type": "uint256"
        },
        {
          "internalType": "bool",
          "name": "approveMax",
          "type": "bool"
        },
        {
          "internalType": "uint8",
          "name": "v",
          "type": "uint8"
        },
        {
          "internalType": "bytes32",
          "name": "r",
          "type": "bytes32"
        },
        {
          "internalType": "bytes32",
          "name": "s",
          "type": "bytes32"
        }
      ],
      "name": "removeLiquidityAVAXWithPermit",
      "outputs": [
        {
          "internalType": "uint256",
          "name": "amountToken",
          "type": "uint256"
        },
        {
          "internalType": "uint256",
          "name": "amountAVAX",
          "type": "uint256"
        }
      ],
      "stateMutability": "nonpayable",
      "type": "function"
    },
    {
      "inputs": [
        {
          "internalType": "address",
          "name": "token",
          "type": "address"
        },
        {
          "internalType": "uint256",
          "name": "liquidity",
          "type": "uint256"
        },
        {
          "internalType": "uint256",
          "name": "amountTokenMin",
          "type": "uint256"
        },
        {
          "internalType": "uint256",
          "name": "amountAVAXMin",
          "type": "uint256"
        },
        {
          "internalType": "address",
          "name": "to",
          "type": "address"
        },
        {
          "internalType": "uint256",
          "name": "deadline",
          "type": "uint256"
        },
        {
          "internalType": "bool",
          "name": "approveMax",
          "type": "bool"
        },
        {
          "internalType": "uint8",
          "name": "v",
          "type": "uint8"
        },
        {
          "internalType": "bytes32",
          "name": "r",
          "type": "bytes32"
        },
        {
          "internalType": "bytes32",
          "name": "s",
          "type": "bytes32"
        }
      ],
      "name": "removeLiquidityAVAXWithPermitSupportingFeeOnTransferTokens",
      "outputs": [
        {
          "internalType": "uint256",
          "name": "amountAVAX",
          "type": "uint256"
        }
      ],
      "stateMutability": "nonpayable",
      "type": "function"
    },
    {
      "inputs": [
        {
          "internalType": "address",
          "name": "tokenA",
          "type": "address"
        },
        {
          "internalType": "address",
          "name": "tokenB",
          "type": "address"
        },
        {
          "internalType": "uint256",
          "name": "liquidity",
          "type": "uint256"
        },
        {
          "internalType": "uint256",
          "name": "amountAMin",
          "type": "uint256"
        },
        {
          "internalType": "uint256",
          "name": "amountBMin",
          "type": "uint256"
        },
        {
          "internalType": "address",
          "name": "to",
          "type": "address"
        },
        {
          "internalType": "uint256",
          "name": "deadline",
          "type": "uint256"
        },
        {
          "internalType": "bool",
          "name": "approveMax",
          "type": "bool"
        },
        {
          "internalType": "uint8",
          "name": "v",
          "type": "uint8"
        },
        {
          "internalType": "bytes32",
          "name": "r",
          "type": "bytes32"
        },
        {
          "internalType": "bytes32",
          "name": "s",
          "type": "bytes32"
        }
      ],
      "name": "removeLiquidityWithPermit",
      "outputs": [
        {
          "internalType": "uint256",
          "name": "amountA",
          "type": "uint256"
        },
        {
          "internalType": "uint256",
          "name": "amountB",
          "type": "uint256"
        }
      ],
      "stateMutability": "nonpayable",
      "type": "function"
    },
    {
      "inputs": [
        {
          "internalType": "uint256",
          "name": "amountOut",
          "type": "uint256"
        },
        {
          "internalType": "address[]",
          "name": "path",
          "type": "address[]"
        },
        {
          "internalType": "address",
          "name": "to",
          "type": "address"
        },
        {
          "internalType": "uint256",
          "name": "deadline",
          "type": "uint256"
        }
      ],
      "name": "swapAVAXForExactTokens",
      "outputs": [
        {
          "internalType": "uint256[]",
          "name": "amounts",
          "type": "uint256[]"
        }
      ],
      "stateMutability": "payable",
      "type": "function"
    },
    {
      "inputs": [
        {
          "internalType": "uint256",
          "name": "amountOutMin",
          "type": "uint256"
        },
        {
          "internalType": "address[]",
          "name": "path",
          "type": "address[]"
        },
        {
          "internalType": "address",
          "name": "to",
          "type": "address"
        },
        {
          "internalType": "uint256",
          "name": "deadline",
          "type": "uint256"
        }
      ],
      "name": "swapExactAVAXForTokens",
      "outputs": [
        {
          "internalType": "uint256[]",
          "name": "amounts",
          "type": "uint256[]"
        }
      ],
      "stateMutability": "payable",
      "type": "function"
    },
    {
      "inputs": [
        {
          "internalType": "uint256",
          "name": "amountOutMin",
          "type": "uint256"
        },
        {
          "internalType": "address[]",
          "name": "path",
          "type": "address[]"
        },
        {
          "internalType": "address",
          "name": "to",
          "type": "address"
        },
        {
          "internalType": "uint256",
          "name": "deadline",
          "type": "uint256"
        }
      ],
      "name": "swapExactAVAXForTokensSupportingFeeOnTransferTokens",
      "outputs": [],
      "stateMutability": "payable",
      "type": "function"
    },
    {
      "inputs": [
        {
          "internalType": "uint256",
          "name": "amountIn",
          "type": "uint256"
        },
        {
          "internalType": "uint256",
          "name": "amountOutMin",
          "type": "uint256"
        },
        {
          "internalType": "address[]",
          "name": "path",
          "type": "address[]"
        },
        {
          "internalType": "address",
          "name": "to",
          "type": "address"
        },
        {
          "internalType": "uint256",
          "name": "deadline",
          "type": "uint256"
        }
      ],
      "name": "swapExactTokensForAVAX",
      "outputs": [
        {
          "internalType": "uint256[]",
          "name": "amounts",
          "type": "uint256[]"
        }
      ],
      "stateMutability": "nonpayable",
      "type": "function"
    },
    {
      "inputs": [
        {
          "internalType": "uint256",
          "name": "amountIn",
          "type": "uint256"
        },
        {
          "internalType": "uint256",
          "name": "amountOutMin",
          "type": "uint256"
        },
        {
          "internalType": "address[]",
          "name": "path",
          "type": "address[]"
        },
        {
          "internalType": "address",
          "name": "to",
          "type": "address"
        },
        {
          "internalType": "uint256",
          "name": "deadline",
          "type": "uint256"
        }
      ],
      "name": "swapExactTokensForAVAXSupportingFeeOnTransferTokens",
      "outputs": [],
      "stateMutability": "nonpayable",
      "type": "function"
    },
    {
      "inputs": [
        {
          "internalType": "uint256",
          "name": "amountIn",
          "type": "uint256"
        },
        {
          "internalType": "uint256",
          "name": "amountOutMin",
          "type": "uint256"
        },
        {
          "internalType": "address[]",
          "name": "path",
          "type": "address[]"
        },
        {
          "internalType": "address",
          "name": "to",
          "type": "address"
        },
        {
          "internalType": "uint256",
          "name": "deadline",
          "type": "uint256"
        }
      ],
      "name": "swapExactTokensForTokens",
      "outputs": [
        {
          "internalType": "uint256[]",
          "name": "amounts",
          "type": "uint256[]"
        }
      ],
      "stateMutability": "nonpayable",
      "type": "function"
    },
    {
      "inputs": [
        {
          "internalType": "uint256",
          "name": "amountIn",
          "type": "uint256"
        },
        {
          "internalType": "uint256",
          "name": "amountOutMin",
          "type": "uint256"
        },
        {
          "internalType": "address[]",
          "name": "path",
          "type": "address[]"
        },
        {
          "internalType": "address",
          "name": "to",
          "type": "address"
        },
        {
          "internalType": "uint256",
          "name": "deadline",
          "type": "uint256"
        }
      ],
      "name": "swapExactTokensForTokensSupportingFeeOnTransferTokens",
      "outputs": [],
      "stateMutability": "nonpayable",
      "type": "function"
    },
    {
      "inputs": [
        {
          "internalType": "uint256",
          "name": "amountOut",
          "type": "uint256"
        },
        {
          "internalType": "uint256",
          "name": "amountInMax",
          "type": "uint256"
        },
        {
          "internalType": "address[]",
          "name": "path",
          "type": "address[]"
        },
        {
          "internalType": "address",
          "name": "to",
          "type": "address"
        },
        {
          "internalType": "uint256",
          "name": "deadline",
          "type": "uint256"
        }
      ],
      "name": "swapTokensForExactAVAX",
      "outputs": [
        {
          "internalType": "uint256[]",
          "name": "amounts",
          "type": "uint256[]"
        }
      ],
      "stateMutability": "nonpayable",
      "type": "function"
    },
    {
      "inputs": [
        {
          "internalType": "uint256",
          "name": "amountOut",
          "type": "uint256"
        },
        {
          "internalType": "uint256",
          "name": "amountInMax",
          "type": "uint256"
        },
        {
          "internalType": "address[]",
          "name": "path",
          "type": "address[]"
        },
        {
          "internalType": "address",
          "name": "to",
          "type": "address"
        },
        {
          "internalType": "uint256",
          "name": "deadline",
          "type": "uint256"
        }
      ],
      "name": "swapTokensForExactTokens",
      "outputs": [
        {
          "internalType": "uint256[]",
          "name": "amounts",
          "type": "uint256[]"
        }
      ],
      "stateMutability": "nonpayable",
      "type": "function"
    },
    {
      "stateMutability": "payable",
      "type": "receive"
    }
  ],
  "bytecode": "0x60c06040523480156200001157600080fd5b50604051620067ea380380620067ea833981810160405260408110156200003757600080fd5b8101908080519060200190929190805190602001909291905050508173ffffffffffffffffffffffffffffffffffffffff1660808173ffffffffffffffffffffffffffffffffffffffff1660601b815250508073ffffffffffffffffffffffffffffffffffffffff1660a08173ffffffffffffffffffffffffffffffffffffffff1660601b81525050505060805160601c60a05160601c6165e162000209600039806101565280611695528061185d528061189b5280611fb35280612291528061235f528061240052806124dd52806125f452806127e152806128fe5280612a165280612cf152806130be52806132835280613318528061353552806136f152806138b9528061394e5280613f30528061401f52806140a0528061469552806146ee528061472252806147a35250806114e5528061151d528061167352806119b85280611ac45280611c5752806120a552806121b152806127145280612b085280612c115280612e515280612f5a52806131ab5280613357528061351352806137de528061398d5280613b9b5280613e9552806140df5280614456528061451d52806146cc528061546d52806154b1528061569052806158e15280615ef65280615ff252806160dc52506165e16000f3fe60806040526004361061014f5760003560e01c806385f8c259116100b6578063baa2abde1161006f578063baa2abde1461104e578063c45a015514611122578063c57559dd14611163578063d06ca61f14611210578063e8e3370014611334578063f91b3f721461141a576101ab565b806385f8c25914610b905780638803dbee14610bf35780638a657e6714610d0c5780639fc2722614610e0e578063a2a1623d14610ee9578063ad615dec14610feb576101ab565b80635c11d795116101085780635c11d795146106e8578063676528d1146107ac57806373b295c2146108c557806373bc79cf14610906578063762b1562146109b35780637a42416a14610a77576101ab565b8063054d50d4146101b05780631f00ca74146102135780632195995c146103375780632c4070241461043957806333c6b7251461051b57806338ed1739146105cf576101ab565b366101ab577f000000000000000000000000000000000000000000000000000000000000000073ffffffffffffffffffffffffffffffffffffffff163373ffffffffffffffffffffffffffffffffffffffff16146101a957fe5b005b600080fd5b3480156101bc57600080fd5b506101fd600480360360608110156101d357600080fd5b810190808035906020019092919080359060200190929190803590602001909291905050506114c8565b6040518082815260200191505060405180910390f35b34801561021f57600080fd5b506102e06004803603604081101561023657600080fd5b81019080803590602001909291908035906020019064010000000081111561025d57600080fd5b82018360208201111561026f57600080fd5b8035906020019184602083028401116401000000008311171561029157600080fd5b919080806020026020016040519081016040528093929190818152602001838360200280828437600081840152601f19601f8201169050808301925050505050505091929192905050506114de565b6040518080602001828103825283818151815260200191508051906020019060200280838360005b83811015610323578082015181840152602081019050610308565b505050509050019250505060405180910390f35b34801561034357600080fd5b5061041c600480360361016081101561035b57600080fd5b81019080803573ffffffffffffffffffffffffffffffffffffffff169060200190929190803573ffffffffffffffffffffffffffffffffffffffff169060200190929190803590602001909291908035906020019092919080359060200190929190803573ffffffffffffffffffffffffffffffffffffffff16906020019092919080359060200190929190803515159060200190929190803560ff1690602001909291908035906020019092919080359060200190929190505050611513565b604051808381526020018281526020019250505060405180910390f35b34801561044557600080fd5b506104fe600480360361014081101561045d57600080fd5b81019080803573ffffffffffffffffffffffffffffffffffffffff169060200190929190803590602001909291908035906020019092919080359060200190929190803573ffffffffffffffffffffffffffffffffffffffff16906020019092919080359060200190929190803515159060200190929190803560ff1690602001909291908035906020019092919080359060200190929190505050611669565b604051808381526020018281526020019250505060405180910390f35b34801561052757600080fd5b506105b2600480360360c081101561053e57600080fd5b81019080803573ffffffffffffffffffffffffffffffffffffffff169060200190929190803590602001909291908035906020019092919080359060200190929190803573ffffffffffffffffffffffffffffffffffffffff169060200190929190803590602001909291905050506117dd565b604051808381526020018281526020019250505060405180910390f35b3480156105db57600080fd5b50610691600480360360a08110156105f257600080fd5b8101908080359060200190929190803590602001909291908035906020019064010000000081111561062357600080fd5b82018360208201111561063557600080fd5b8035906020019184602083028401116401000000008311171561065757600080fd5b9091929391929390803573ffffffffffffffffffffffffffffffffffffffff1690602001909291908035906020019092919050505061193a565b6040518080602001828103825283818151815260200191508051906020019060200280838360005b838110156106d45780820151818401526020810190506106b9565b505050509050019250505060405180910390f35b3480156106f457600080fd5b506107aa600480360360a081101561070b57600080fd5b8101908080359060200190929190803590602001909291908035906020019064010000000081111561073c57600080fd5b82018360208201111561074e57600080fd5b8035906020019184602083028401116401000000008311171561077057600080fd5b9091929391929390803573ffffffffffffffffffffffffffffffffffffffff16906020019092919080359060200190929190505050611bad565b005b3480156107b857600080fd5b5061086e600480360360a08110156107cf57600080fd5b8101908080359060200190929190803590602001909291908035906020019064010000000081111561080057600080fd5b82018360208201111561081257600080fd5b8035906020019184602083028401116401000000008311171561083457600080fd5b9091929391929390803573ffffffffffffffffffffffffffffffffffffffff16906020019092919080359060200190929190505050611f38565b6040518080602001828103825283818151815260200191508051906020019060200280838360005b838110156108b1578082015181840152602081019050610896565b505050509050019250505060405180910390f35b3480156108d157600080fd5b506108da61235d565b604051808273ffffffffffffffffffffffffffffffffffffffff16815260200191505060405180910390f35b34801561091257600080fd5b5061099d600480360360c081101561092957600080fd5b81019080803573ffffffffffffffffffffffffffffffffffffffff169060200190929190803590602001909291908035906020019092919080359060200190929190803573ffffffffffffffffffffffffffffffffffffffff16906020019092919080359060200190929190505050612381565b6040518082815260200191505060405180910390f35b3480156109bf57600080fd5b50610a75600480360360a08110156109d657600080fd5b81019080803590602001909291908035906020019092919080359060200190640100000000811115610a0757600080fd5b820183602082011115610a1957600080fd5b80359060200191846020830284011164010000000083111715610a3b57600080fd5b9091929391929390803573ffffffffffffffffffffffffffffffffffffffff1690602001909291908035906020019092919050505061257b565b005b348015610a8357600080fd5b50610b39600480360360a0811015610a9a57600080fd5b81019080803590602001909291908035906020019092919080359060200190640100000000811115610acb57600080fd5b820183602082011115610add57600080fd5b80359060200191846020830284011164010000000083111715610aff57600080fd5b9091929391929390803573ffffffffffffffffffffffffffffffffffffffff1690602001909291908035906020019092919050505061299b565b6040518080602001828103825283818151815260200191508051906020019060200280838360005b83811015610b7c578082015181840152602081019050610b61565b505050509050019250505060405180910390f35b348015610b9c57600080fd5b50610bdd60048036036060811015610bb357600080fd5b81019080803590602001909291908035906020019092919080359060200190929190505050612dbd565b6040518082815260200191505060405180910390f35b348015610bff57600080fd5b50610cb5600480360360a0811015610c1657600080fd5b81019080803590602001909291908035906020019092919080359060200190640100000000811115610c4757600080fd5b820183602082011115610c5957600080fd5b80359060200191846020830284011164010000000083111715610c7b57600080fd5b9091929391929390803573ffffffffffffffffffffffffffffffffffffffff16906020019092919080359060200190929190505050612dd3565b6040518080602001828103825283818151815260200191508051906020019060200280838360005b83811015610cf8578082015181840152602081019050610cdd565b505050509050019250505060405180910390f35b610db760048036036080811015610d2257600080fd5b810190808035906020019092919080359060200190640100000000811115610d4957600080fd5b820183602082011115610d5b57600080fd5b80359060200191846020830284011164010000000083111715610d7d57600080fd5b9091929391929390803573ffffffffffffffffffffffffffffffffffffffff16906020019092919080359060200190929190505050613043565b6040518080602001828103825283818151815260200191508051906020019060200280838360005b83811015610dfa578082015181840152602081019050610ddf565b505050509050019250505060405180910390f35b348015610e1a57600080fd5b50610ed36004803603610140811015610e3257600080fd5b81019080803573ffffffffffffffffffffffffffffffffffffffff169060200190929190803590602001909291908035906020019092919080359060200190929190803573ffffffffffffffffffffffffffffffffffffffff16906020019092919080359060200190929190803515159060200190929190803560ff169060200190929190803590602001909291908035906020019092919050505061350b565b6040518082815260200191505060405180910390f35b610f9460048036036080811015610eff57600080fd5b810190808035906020019092919080359060200190640100000000811115610f2657600080fd5b820183602082011115610f3857600080fd5b80359060200191846020830284011164010000000083111715610f5a57600080fd5b9091929391929390803573ffffffffffffffffffffffffffffffffffffffff16906020019092919080359060200190929190505050613676565b6040518080602001828103825283818151815260200191508051906020019060200280838360005b83811015610fd7578082015181840152602081019050610fbc565b505050509050019250505060405180910390f35b348015610ff757600080fd5b506110386004803603606081101561100e57600080fd5b81019080803590602001909291908035906020019092919080359060200190929190505050613b04565b6040518082815260200191505060405180910390f35b34801561105a57600080fd5b50611105600480360360e081101561107157600080fd5b81019080803573ffffffffffffffffffffffffffffffffffffffff169060200190929190803573ffffffffffffffffffffffffffffffffffffffff169060200190929190803590602001909291908035906020019092919080359060200190929190803573ffffffffffffffffffffffffffffffffffffffff16906020019092919080359060200190929190505050613b1a565b604051808381526020018281526020019250505060405180910390f35b34801561112e57600080fd5b50611137613e93565b604051808273ffffffffffffffffffffffffffffffffffffffff16815260200191505060405180910390f35b61120e6004803603608081101561117957600080fd5b8101908080359060200190929190803590602001906401000000008111156111a057600080fd5b8201836020820111156111b257600080fd5b803590602001918460208302840111640100000000831117156111d457600080fd5b9091929391929390803573ffffffffffffffffffffffffffffffffffffffff16906020019092919080359060200190929190505050613eb7565b005b34801561121c57600080fd5b506112dd6004803603604081101561123357600080fd5b81019080803590602001909291908035906020019064010000000081111561125a57600080fd5b82018360208201111561126c57600080fd5b8035906020019184602083028401116401000000008311171561128e57600080fd5b919080806020026020016040519081016040528093929190818152602001838360200280828437600081840152601f19601f82011690508083019250505050505050919291929050505061444f565b6040518080602001828103825283818151815260200191508051906020019060200280838360005b83811015611320578082015181840152602081019050611305565b505050509050019250505060405180910390f35b34801561134057600080fd5b506113f6600480360361010081101561135857600080fd5b81019080803573ffffffffffffffffffffffffffffffffffffffff169060200190929190803573ffffffffffffffffffffffffffffffffffffffff16906020019092919080359060200190929190803590602001909291908035906020019092919080359060200190929190803573ffffffffffffffffffffffffffffffffffffffff16906020019092919080359060200190929190505050614484565b60405180848152602001838152602001828152602001935050505060405180910390f35b6114a4600480360360c081101561143057600080fd5b81019080803573ffffffffffffffffffffffffffffffffffffffff169060200190929190803590602001909291908035906020019092919080359060200190929190803573ffffffffffffffffffffffffffffffffffffffff16906020019092919080359060200190929190505050614613565b60405180848152602001838152602001828152602001935050505060405180910390f35b60006114d584848461493c565b90509392505050565b606061150b7f00000000000000000000000000000000000000000000000000000000000000008484614a6c565b905092915050565b60008060006115437f00000000000000000000000000000000000000000000000000000000000000008f8f614bec565b9050600087611552578c611574565b7fffffffffffffffffffffffffffffffffffffffffffffffffffffffffffffffff5b90508173ffffffffffffffffffffffffffffffffffffffff1663d505accf3330848d8c8c8c6040518863ffffffff1660e01b8152600401808873ffffffffffffffffffffffffffffffffffffffff1681526020018773ffffffffffffffffffffffffffffffffffffffff1681526020018681526020018581526020018460ff168152602001838152602001828152602001975050505050505050600060405180830381600087803b15801561162857600080fd5b505af115801561163c573d6000803e3d6000fd5b5050505061164f8f8f8f8f8f8f8f613b1a565b809450819550505050509b509b9950505050505050505050565b60008060006116b97f00000000000000000000000000000000000000000000000000000000000000008e7f0000000000000000000000000000000000000000000000000000000000000000614bec565b90506000876116c8578c6116ea565b7fffffffffffffffffffffffffffffffffffffffffffffffffffffffffffffffff5b90508173ffffffffffffffffffffffffffffffffffffffff1663d505accf3330848d8c8c8c6040518863ffffffff1660e01b8152600401808873ffffffffffffffffffffffffffffffffffffffff1681526020018773ffffffffffffffffffffffffffffffffffffffff1681526020018681526020018581526020018460ff168152602001838152602001828152602001975050505050505050600060405180830381600087803b15801561179e57600080fd5b505af11580156117b2573d6000803e3d6000fd5b505050506117c48e8e8e8e8e8e6117dd565b809450819550505050509a509a98505050505050505050565b6000808242811015611857576040517f08c379a00000000000000000000000000000000000000000000000000000000081526004018080602001828103825260128152602001807f4a6f65526f757465723a2045585049524544000000000000000000000000000081525060200191505060405180910390fd5b611886897f00000000000000000000000000000000000000000000000000000000000000008a8a8a308a613b1a565b8093508194505050611899898685614d05565b7f000000000000000000000000000000000000000000000000000000000000000073ffffffffffffffffffffffffffffffffffffffff16632e1a7d4d836040518263ffffffff1660e01b815260040180828152602001915050600060405180830381600087803b15801561190c57600080fd5b505af1158015611920573d6000803e3d6000fd5b5050505061192e8583614ee8565b50965096945050505050565b606081428110156119b3576040517f08c379a00000000000000000000000000000000000000000000000000000000081526004018080602001828103825260128152602001807f4a6f65526f757465723a2045585049524544000000000000000000000000000081525060200191505060405180910390fd5b611a1f7f000000000000000000000000000000000000000000000000000000000000000089888880806020026020016040519081016040528093929190818152602001838360200280828437600081840152601f19601f82011690508083019250505050505050615047565b91508682600184510381518110611a3257fe5b60200260200101511015611a91576040517f08c379a00000000000000000000000000000000000000000000000000000000081526004018080602001828103825260258152602001806165636025913960400191505060405180910390fd5b611b5686866000818110611aa157fe5b9050602002013573ffffffffffffffffffffffffffffffffffffffff1633611b3c7f00000000000000000000000000000000000000000000000000000000000000008a8a6000818110611af057fe5b9050602002013573ffffffffffffffffffffffffffffffffffffffff168b8b6001818110611b1a57fe5b9050602002013573ffffffffffffffffffffffffffffffffffffffff16614bec565b85600081518110611b4957fe5b60200260200101516151bf565b611ba282878780806020026020016040519081016040528093929190818152602001838360200280828437600081840152601f19601f82011690508083019250505050505050866153a4565b509695505050505050565b8042811015611c24576040517f08c379a00000000000000000000000000000000000000000000000000000000081526004018080602001828103825260128152602001807f4a6f65526f757465723a2045585049524544000000000000000000000000000081525060200191505060405180910390fd5b611cd585856000818110611c3457fe5b9050602002013573ffffffffffffffffffffffffffffffffffffffff1633611ccf7f000000000000000000000000000000000000000000000000000000000000000089896000818110611c8357fe5b9050602002013573ffffffffffffffffffffffffffffffffffffffff168a8a6001818110611cad57fe5b9050602002013573ffffffffffffffffffffffffffffffffffffffff16614bec565b8a6151bf565b6000858560018888905003818110611ce957fe5b9050602002013573ffffffffffffffffffffffffffffffffffffffff1673ffffffffffffffffffffffffffffffffffffffff166370a08231856040518263ffffffff1660e01b8152600401808273ffffffffffffffffffffffffffffffffffffffff16815260200191505060206040518083038186803b158015611d6c57600080fd5b505afa158015611d80573d6000803e3d6000fd5b505050506040513d6020811015611d9657600080fd5b81019080805190602001909291905050509050611df4868680806020026020016040519081016040528093929190818152602001838360200280828437600081840152601f19601f8201169050808301925050505050505085615639565b86611ed782888860018b8b905003818110611e0b57fe5b9050602002013573ffffffffffffffffffffffffffffffffffffffff1673ffffffffffffffffffffffffffffffffffffffff166370a08231886040518263ffffffff1660e01b8152600401808273ffffffffffffffffffffffffffffffffffffffff16815260200191505060206040518083038186803b158015611e8e57600080fd5b505afa158015611ea2573d6000803e3d6000fd5b505050506040513d6020811015611eb857600080fd5b8101908080519060200190929190505050615a8490919063ffffffff16565b1015611f2e576040517f08c379a00000000000000000000000000000000000000000000000000000000081526004018080602001828103825260258152602001806165636025913960400191505060405180910390fd5b5050505050505050565b60608142811015611fb1576040517f08c379a00000000000000000000000000000000000000000000000000000000081526004018080602001828103825260128152602001807f4a6f65526f757465723a2045585049524544000000000000000000000000000081525060200191505060405180910390fd5b7f000000000000000000000000000000000000000000000000000000000000000073ffffffffffffffffffffffffffffffffffffffff16868660018989905003818110611ffa57fe5b9050602002013573ffffffffffffffffffffffffffffffffffffffff1673ffffffffffffffffffffffffffffffffffffffff16146120a0576040517f08c379a00000000000000000000000000000000000000000000000000000000081526004018080602001828103825260178152602001807f4a6f65526f757465723a20494e56414c49445f5041544800000000000000000081525060200191505060405180910390fd5b61210c7f000000000000000000000000000000000000000000000000000000000000000089888880806020026020016040519081016040528093929190818152602001838360200280828437600081840152601f19601f82011690508083019250505050505050615047565b9150868260018451038151811061211f57fe5b6020026020010151101561217e576040517f08c379a00000000000000000000000000000000000000000000000000000000081526004018080602001828103825260258152602001806165636025913960400191505060405180910390fd5b6122438686600081811061218e57fe5b9050602002013573ffffffffffffffffffffffffffffffffffffffff16336122297f00000000000000000000000000000000000000000000000000000000000000008a8a60008181106121dd57fe5b9050602002013573ffffffffffffffffffffffffffffffffffffffff168b8b600181811061220757fe5b9050602002013573ffffffffffffffffffffffffffffffffffffffff16614bec565b8560008151811061223657fe5b60200260200101516151bf565b61228f82878780806020026020016040519081016040528093929190818152602001838360200280828437600081840152601f19601f82011690508083019250505050505050306153a4565b7f000000000000000000000000000000000000000000000000000000000000000073ffffffffffffffffffffffffffffffffffffffff16632e1a7d4d836001855103815181106122db57fe5b60200260200101516040518263ffffffff1660e01b815260040180828152602001915050600060405180830381600087803b15801561231957600080fd5b505af115801561232d573d6000803e3d6000fd5b50505050612352848360018551038151811061234557fe5b6020026020010151614ee8565b509695505050505050565b7f000000000000000000000000000000000000000000000000000000000000000081565b600081428110156123fa576040517f08c379a00000000000000000000000000000000000000000000000000000000081526004018080602001828103825260128152602001807f4a6f65526f757465723a2045585049524544000000000000000000000000000081525060200191505060405180910390fd5b612429887f00000000000000000000000000000000000000000000000000000000000000008989893089613b1a565b9050809250506124db88858a73ffffffffffffffffffffffffffffffffffffffff166370a08231306040518263ffffffff1660e01b8152600401808273ffffffffffffffffffffffffffffffffffffffff16815260200191505060206040518083038186803b15801561249b57600080fd5b505afa1580156124af573d6000803e3d6000fd5b505050506040513d60208110156124c557600080fd5b8101908080519060200190929190505050614d05565b7f000000000000000000000000000000000000000000000000000000000000000073ffffffffffffffffffffffffffffffffffffffff16632e1a7d4d836040518263ffffffff1660e01b815260040180828152602001915050600060405180830381600087803b15801561254e57600080fd5b505af1158015612562573d6000803e3d6000fd5b505050506125708483614ee8565b509695505050505050565b80428110156125f2576040517f08c379a00000000000000000000000000000000000000000000000000000000081526004018080602001828103825260128152602001807f4a6f65526f757465723a2045585049524544000000000000000000000000000081525060200191505060405180910390fd5b7f000000000000000000000000000000000000000000000000000000000000000073ffffffffffffffffffffffffffffffffffffffff1685856001888890500381811061263b57fe5b9050602002013573ffffffffffffffffffffffffffffffffffffffff1673ffffffffffffffffffffffffffffffffffffffff16146126e1576040517f08c379a00000000000000000000000000000000000000000000000000000000081526004018080602001828103825260178152602001807f4a6f65526f757465723a20494e56414c49445f5041544800000000000000000081525060200191505060405180910390fd5b612792858560008181106126f157fe5b9050602002013573ffffffffffffffffffffffffffffffffffffffff163361278c7f00000000000000000000000000000000000000000000000000000000000000008989600081811061274057fe5b9050602002013573ffffffffffffffffffffffffffffffffffffffff168a8a600181811061276a57fe5b9050602002013573ffffffffffffffffffffffffffffffffffffffff16614bec565b8a6151bf565b6127dd858580806020026020016040519081016040528093929190818152602001838360200280828437600081840152601f19601f8201169050808301925050505050505030615639565b60007f000000000000000000000000000000000000000000000000000000000000000073ffffffffffffffffffffffffffffffffffffffff166370a08231306040518263ffffffff1660e01b8152600401808273ffffffffffffffffffffffffffffffffffffffff16815260200191505060206040518083038186803b15801561286657600080fd5b505afa15801561287a573d6000803e3d6000fd5b505050506040513d602081101561289057600080fd5b81019080805190602001909291905050509050868110156128fc576040517f08c379a00000000000000000000000000000000000000000000000000000000081526004018080602001828103825260258152602001806165636025913960400191505060405180910390fd5b7f000000000000000000000000000000000000000000000000000000000000000073ffffffffffffffffffffffffffffffffffffffff16632e1a7d4d826040518263ffffffff1660e01b815260040180828152602001915050600060405180830381600087803b15801561296f57600080fd5b505af1158015612983573d6000803e3d6000fd5b505050506129918482614ee8565b5050505050505050565b60608142811015612a14576040517f08c379a00000000000000000000000000000000000000000000000000000000081526004018080602001828103825260128152602001807f4a6f65526f757465723a2045585049524544000000000000000000000000000081525060200191505060405180910390fd5b7f000000000000000000000000000000000000000000000000000000000000000073ffffffffffffffffffffffffffffffffffffffff16868660018989905003818110612a5d57fe5b9050602002013573ffffffffffffffffffffffffffffffffffffffff1673ffffffffffffffffffffffffffffffffffffffff1614612b03576040517f08c379a00000000000000000000000000000000000000000000000000000000081526004018080602001828103825260178152602001807f4a6f65526f757465723a20494e56414c49445f5041544800000000000000000081525060200191505060405180910390fd5b612b6f7f000000000000000000000000000000000000000000000000000000000000000089888880806020026020016040519081016040528093929190818152602001838360200280828437600081840152601f19601f82011690508083019250505050505050614a6c565b91508682600081518110612b7f57fe5b60200260200101511115612bde576040517f08c379a00000000000000000000000000000000000000000000000000000000081526004018080602001828103825260218152602001806164f76021913960400191505060405180910390fd5b612ca386866000818110612bee57fe5b9050602002013573ffffffffffffffffffffffffffffffffffffffff1633612c897f00000000000000000000000000000000000000000000000000000000000000008a8a6000818110612c3d57fe5b9050602002013573ffffffffffffffffffffffffffffffffffffffff168b8b6001818110612c6757fe5b9050602002013573ffffffffffffffffffffffffffffffffffffffff16614bec565b85600081518110612c9657fe5b60200260200101516151bf565b612cef82878780806020026020016040519081016040528093929190818152602001838360200280828437600081840152601f19601f82011690508083019250505050505050306153a4565b7f000000000000000000000000000000000000000000000000000000000000000073ffffffffffffffffffffffffffffffffffffffff16632e1a7d4d83600185510381518110612d3b57fe5b60200260200101516040518263ffffffff1660e01b815260040180828152602001915050600060405180830381600087803b158015612d7957600080fd5b505af1158015612d8d573d6000803e3d6000fd5b50505050612db28483600185510381518110612da557fe5b6020026020010151614ee8565b509695505050505050565b6000612dca848484615b07565b90509392505050565b60608142811015612e4c576040517f08c379a00000000000000000000000000000000000000000000000000000000081526004018080602001828103825260128152602001807f4a6f65526f757465723a2045585049524544000000000000000000000000000081525060200191505060405180910390fd5b612eb87f000000000000000000000000000000000000000000000000000000000000000089888880806020026020016040519081016040528093929190818152602001838360200280828437600081840152601f19601f82011690508083019250505050505050614a6c565b91508682600081518110612ec857fe5b60200260200101511115612f27576040517f08c379a00000000000000000000000000000000000000000000000000000000081526004018080602001828103825260218152602001806164f76021913960400191505060405180910390fd5b612fec86866000818110612f3757fe5b9050602002013573ffffffffffffffffffffffffffffffffffffffff1633612fd27f00000000000000000000000000000000000000000000000000000000000000008a8a6000818110612f8657fe5b9050602002013573ffffffffffffffffffffffffffffffffffffffff168b8b6001818110612fb057fe5b9050602002013573ffffffffffffffffffffffffffffffffffffffff16614bec565b85600081518110612fdf57fe5b60200260200101516151bf565b61303882878780806020026020016040519081016040528093929190818152602001838360200280828437600081840152601f19601f82011690508083019250505050505050866153a4565b509695505050505050565b606081428110156130bc576040517f08c379a00000000000000000000000000000000000000000000000000000000081526004018080602001828103825260128152602001807f4a6f65526f757465723a2045585049524544000000000000000000000000000081525060200191505060405180910390fd5b7f000000000000000000000000000000000000000000000000000000000000000073ffffffffffffffffffffffffffffffffffffffff168686600081811061310057fe5b9050602002013573ffffffffffffffffffffffffffffffffffffffff1673ffffffffffffffffffffffffffffffffffffffff16146131a6576040517f08c379a00000000000000000000000000000000000000000000000000000000081526004018080602001828103825260178152602001807f4a6f65526f757465723a20494e56414c49445f5041544800000000000000000081525060200191505060405180910390fd5b6132127f000000000000000000000000000000000000000000000000000000000000000088888880806020026020016040519081016040528093929190818152602001838360200280828437600081840152601f19601f82011690508083019250505050505050614a6c565b9150348260008151811061322257fe5b60200260200101511115613281576040517f08c379a00000000000000000000000000000000000000000000000000000000081526004018080602001828103825260218152602001806164f76021913960400191505060405180910390fd5b7f000000000000000000000000000000000000000000000000000000000000000073ffffffffffffffffffffffffffffffffffffffff1663d0e30db0836000815181106132ca57fe5b60200260200101516040518263ffffffff1660e01b81526004016000604051808303818588803b1580156132fd57600080fd5b505af1158015613311573d6000803e3d6000fd5b50505050507f000000000000000000000000000000000000000000000000000000000000000073ffffffffffffffffffffffffffffffffffffffff1663a9059cbb6133cf7f00000000000000000000000000000000000000000000000000000000000000008989600081811061338357fe5b9050602002013573ffffffffffffffffffffffffffffffffffffffff168a8a60018181106133ad57fe5b9050602002013573ffffffffffffffffffffffffffffffffffffffff16614bec565b846000815181106133dc57fe5b60200260200101516040518363ffffffff1660e01b8152600401808373ffffffffffffffffffffffffffffffffffffffff16815260200182815260200192505050602060405180830381600087803b15801561343757600080fd5b505af115801561344b573d6000803e3d6000fd5b505050506040513d602081101561346157600080fd5b810190808051906020019092919050505061347857fe5b6134c482878780806020026020016040519081016040528093929190818152602001838360200280828437600081840152601f19601f82011690508083019250505050505050866153a4565b816000815181106134d157fe5b60200260200101513411156135015761350033836000815181106134f157fe5b60200260200101513403614ee8565b5b5095945050505050565b6000806135597f00000000000000000000000000000000000000000000000000000000000000008d7f0000000000000000000000000000000000000000000000000000000000000000614bec565b9050600086613568578b61358a565b7fffffffffffffffffffffffffffffffffffffffffffffffffffffffffffffffff5b90508173ffffffffffffffffffffffffffffffffffffffff1663d505accf3330848c8b8b8b6040518863ffffffff1660e01b8152600401808873ffffffffffffffffffffffffffffffffffffffff1681526020018773ffffffffffffffffffffffffffffffffffffffff1681526020018681526020018581526020018460ff168152602001838152602001828152602001975050505050505050600060405180830381600087803b15801561363e57600080fd5b505af1158015613652573d6000803e3d6000fd5b505050506136648d8d8d8d8d8d612381565b925050509a9950505050505050505050565b606081428110156136ef576040517f08c379a00000000000000000000000000000000000000000000000000000000081526004018080602001828103825260128152602001807f4a6f65526f757465723a2045585049524544000000000000000000000000000081525060200191505060405180910390fd5b7f000000000000000000000000000000000000000000000000000000000000000073ffffffffffffffffffffffffffffffffffffffff168686600081811061373357fe5b9050602002013573ffffffffffffffffffffffffffffffffffffffff1673ffffffffffffffffffffffffffffffffffffffff16146137d9576040517f08c379a00000000000000000000000000000000000000000000000000000000081526004018080602001828103825260178152602001807f4a6f65526f757465723a20494e56414c49445f5041544800000000000000000081525060200191505060405180910390fd5b6138457f000000000000000000000000000000000000000000000000000000000000000034888880806020026020016040519081016040528093929190818152602001838360200280828437600081840152601f19601f82011690508083019250505050505050615047565b9150868260018451038151811061385857fe5b602002602001015110156138b7576040517f08c379a00000000000000000000000000000000000000000000000000000000081526004018080602001828103825260258152602001806165636025913960400191505060405180910390fd5b7f000000000000000000000000000000000000000000000000000000000000000073ffffffffffffffffffffffffffffffffffffffff1663d0e30db08360008151811061390057fe5b60200260200101516040518263ffffffff1660e01b81526004016000604051808303818588803b15801561393357600080fd5b505af1158015613947573d6000803e3d6000fd5b50505050507f000000000000000000000000000000000000000000000000000000000000000073ffffffffffffffffffffffffffffffffffffffff1663a9059cbb613a057f0000000000000000000000000000000000000000000000000000000000000000898960008181106139b957fe5b9050602002013573ffffffffffffffffffffffffffffffffffffffff168a8a60018181106139e357fe5b9050602002013573ffffffffffffffffffffffffffffffffffffffff16614bec565b84600081518110613a1257fe5b60200260200101516040518363ffffffff1660e01b8152600401808373ffffffffffffffffffffffffffffffffffffffff16815260200182815260200192505050602060405180830381600087803b158015613a6d57600080fd5b505af1158015613a81573d6000803e3d6000fd5b505050506040513d6020811015613a9757600080fd5b8101908080519060200190929190505050613aae57fe5b613afa82878780806020026020016040519081016040528093929190818152602001838360200280828437600081840152601f19601f82011690508083019250505050505050866153a4565b5095945050505050565b6000613b11848484615c44565b90509392505050565b6000808242811015613b94576040517f08c379a00000000000000000000000000000000000000000000000000000000081526004018080602001828103825260128152602001807f4a6f65526f757465723a2045585049524544000000000000000000000000000081525060200191505060405180910390fd5b6000613bc17f00000000000000000000000000000000000000000000000000000000000000008c8c614bec565b90508073ffffffffffffffffffffffffffffffffffffffff166323b872dd33838c6040518463ffffffff1660e01b8152600401808473ffffffffffffffffffffffffffffffffffffffff1681526020018373ffffffffffffffffffffffffffffffffffffffff1681526020018281526020019350505050602060405180830381600087803b158015613c5257600080fd5b505af1158015613c66573d6000803e3d6000fd5b505050506040513d6020811015613c7c57600080fd5b8101908080519060200190929190505050506000808273ffffffffffffffffffffffffffffffffffffffff166389afcb44896040518263ffffffff1660e01b8152600401808273ffffffffffffffffffffffffffffffffffffffff1681526020019150506040805180830381600087803b158015613cf957600080fd5b505af1158015613d0d573d6000803e3d6000fd5b505050506040513d6040811015613d2357600080fd5b810190808051906020019092919080519060200190929190505050915091506000613d4e8e8e615d45565b5090508073ffffffffffffffffffffffffffffffffffffffff168e73ffffffffffffffffffffffffffffffffffffffff1614613d8b578183613d8e565b82825b80975081985050508a871015613e0c576040517f08c379a00000000000000000000000000000000000000000000000000000000081526004018080602001828103825260208152602001807f4a6f65526f757465723a20494e53554646494349454e545f415f414d4f554e5481525060200191505060405180910390fd5b89861015613e82576040517f08c379a00000000000000000000000000000000000000000000000000000000081526004018080602001828103825260208152602001807f4a6f65526f757465723a20494e53554646494349454e545f425f414d4f554e5481525060200191505060405180910390fd5b505050505097509795505050505050565b7f000000000000000000000000000000000000000000000000000000000000000081565b8042811015613f2e576040517f08c379a00000000000000000000000000000000000000000000000000000000081526004018080602001828103825260128152602001807f4a6f65526f757465723a2045585049524544000000000000000000000000000081525060200191505060405180910390fd5b7f000000000000000000000000000000000000000000000000000000000000000073ffffffffffffffffffffffffffffffffffffffff1685856000818110613f7257fe5b9050602002013573ffffffffffffffffffffffffffffffffffffffff1673ffffffffffffffffffffffffffffffffffffffff1614614018576040517f08c379a00000000000000000000000000000000000000000000000000000000081526004018080602001828103825260178152602001807f4a6f65526f757465723a20494e56414c49445f5041544800000000000000000081525060200191505060405180910390fd5b60003490507f000000000000000000000000000000000000000000000000000000000000000073ffffffffffffffffffffffffffffffffffffffff1663d0e30db0826040518263ffffffff1660e01b81526004016000604051808303818588803b15801561408557600080fd5b505af1158015614099573d6000803e3d6000fd5b50505050507f000000000000000000000000000000000000000000000000000000000000000073ffffffffffffffffffffffffffffffffffffffff1663a9059cbb6141577f00000000000000000000000000000000000000000000000000000000000000008989600081811061410b57fe5b9050602002013573ffffffffffffffffffffffffffffffffffffffff168a8a600181811061413557fe5b9050602002013573ffffffffffffffffffffffffffffffffffffffff16614bec565b836040518363ffffffff1660e01b8152600401808373ffffffffffffffffffffffffffffffffffffffff16815260200182815260200192505050602060405180830381600087803b1580156141ab57600080fd5b505af11580156141bf573d6000803e3d6000fd5b505050506040513d60208110156141d557600080fd5b81019080805190602001909291905050506141ec57fe5b600086866001898990500381811061420057fe5b9050602002013573ffffffffffffffffffffffffffffffffffffffff1673ffffffffffffffffffffffffffffffffffffffff166370a08231866040518263ffffffff1660e01b8152600401808273ffffffffffffffffffffffffffffffffffffffff16815260200191505060206040518083038186803b15801561428357600080fd5b505afa158015614297573d6000803e3d6000fd5b505050506040513d60208110156142ad57600080fd5b8101908080519060200190929190505050905061430b878780806020026020016040519081016040528093929190818152602001838360200280828437600081840152601f19601f8201169050808301925050505050505086615639565b876143ee82898960018c8c90500381811061432257fe5b9050602002013573ffffffffffffffffffffffffffffffffffffffff1673ffffffffffffffffffffffffffffffffffffffff166370a08231896040518263ffffffff1660e01b8152600401808273ffffffffffffffffffffffffffffffffffffffff16815260200191505060206040518083038186803b1580156143a557600080fd5b505afa1580156143b9573d6000803e3d6000fd5b505050506040513d60208110156143cf57600080fd5b8101908080519060200190929190505050615a8490919063ffffffff16565b1015614445576040517f08c379a00000000000000000000000000000000000000000000000000000000081526004018080602001828103825260258152602001806165636025913960400191505060405180910390fd5b5050505050505050565b606061447c7f00000000000000000000000000000000000000000000000000000000000000008484615047565b905092915050565b60008060008342811015614500576040517f08c379a00000000000000000000000000000000000000000000000000000000081526004018080602001828103825260128152602001807f4a6f65526f757465723a2045585049524544000000000000000000000000000081525060200191505060405180910390fd5b61450e8c8c8c8c8c8c615ed9565b809450819550505060006145437f00000000000000000000000000000000000000000000000000000000000000008e8e614bec565b90506145518d3383886151bf565b61455d8c3383876151bf565b8073ffffffffffffffffffffffffffffffffffffffff16636a627842886040518263ffffffff1660e01b8152600401808273ffffffffffffffffffffffffffffffffffffffff168152602001915050602060405180830381600087803b1580156145c657600080fd5b505af11580156145da573d6000803e3d6000fd5b505050506040513d60208110156145f057600080fd5b810190808051906020019092919050505092505050985098509895505050505050565b6000806000834281101561468f576040517f08c379a00000000000000000000000000000000000000000000000000000000081526004018080602001828103825260128152602001807f4a6f65526f757465723a2045585049524544000000000000000000000000000081525060200191505060405180910390fd5b6146bd8a7f00000000000000000000000000000000000000000000000000000000000000008b348c8c615ed9565b809450819550505060006147127f00000000000000000000000000000000000000000000000000000000000000008c7f0000000000000000000000000000000000000000000000000000000000000000614bec565b90506147208b3383886151bf565b7f000000000000000000000000000000000000000000000000000000000000000073ffffffffffffffffffffffffffffffffffffffff1663d0e30db0856040518263ffffffff1660e01b81526004016000604051808303818588803b15801561478857600080fd5b505af115801561479c573d6000803e3d6000fd5b50505050507f000000000000000000000000000000000000000000000000000000000000000073ffffffffffffffffffffffffffffffffffffffff1663a9059cbb82866040518363ffffffff1660e01b8152600401808373ffffffffffffffffffffffffffffffffffffffff16815260200182815260200192505050602060405180830381600087803b15801561483257600080fd5b505af1158015614846573d6000803e3d6000fd5b505050506040513d602081101561485c57600080fd5b810190808051906020019092919050505061487357fe5b8073ffffffffffffffffffffffffffffffffffffffff16636a627842886040518263ffffffff1660e01b8152600401808273ffffffffffffffffffffffffffffffffffffffff168152602001915050602060405180830381600087803b1580156148dc57600080fd5b505af11580156148f0573d6000803e3d6000fd5b505050506040513d602081101561490657600080fd5b810190808051906020019092919050505092508334111561492e5761492d33853403614ee8565b5b505096509650969350505050565b6000808411614996576040517f08c379a000000000000000000000000000000000000000000000000000000000815260040180806020018281038252602581526020018061653e6025913960400191505060405180910390fd5b6000831180156149a65750600082115b6149fb576040517f08c379a00000000000000000000000000000000000000000000000000000000081526004018080602001828103825260228152602001806164b16022913960400191505060405180910390fd5b6000614a126103e58661626f90919063ffffffff16565b90506000614a29848361626f90919063ffffffff16565b90506000614a5483614a466103e88961626f90919063ffffffff16565b61630490919063ffffffff16565b9050808281614a5f57fe5b0493505050509392505050565b6060600282511015614ae6576040517f08c379a00000000000000000000000000000000000000000000000000000000081526004018080602001828103825260188152602001807f4a6f654c6962726172793a20494e56414c49445f50415448000000000000000081525060200191505060405180910390fd5b815167ffffffffffffffff81118015614afe57600080fd5b50604051908082528060200260200182016040528015614b2d5781602001602082028036833780820191505090505b5090508281600183510381518110614b4157fe5b6020026020010181815250506000600183510390505b6000811115614be457600080614b9787866001860381518110614b7657fe5b6020026020010151878681518110614b8a57fe5b6020026020010151616387565b91509150614bb9848481518110614baa57fe5b60200260200101518383615b07565b846001850381518110614bc857fe5b6020026020010181815250505050808060019003915050614b57565b509392505050565b6000806000614bfb8585615d45565b91509150858282604051602001808373ffffffffffffffffffffffffffffffffffffffff1660601b81526014018273ffffffffffffffffffffffffffffffffffffffff1660601b8152601401925050506040516020818303038152906040528051906020012060405160200180807fff000000000000000000000000000000000000000000000000000000000000008152506001018373ffffffffffffffffffffffffffffffffffffffff1660601b8152601401828152602001807f0bbca9af0511ad1a1da383135cf3a8d2ac620e549ef9f6ae3a4c33c2fed0af91815250602001925050506040516020818303038152906040528051906020012060001c925050509392505050565b600060608473ffffffffffffffffffffffffffffffffffffffff1663a9059cbb8585604051602401808373ffffffffffffffffffffffffffffffffffffffff168152602001828152602001925050506040516020818303038152906040529060e01b6020820180517bffffffffffffffffffffffffffffffffffffffffffffffffffffffff83818316178352505050506040518082805190602001908083835b60208310614dc85780518252602082019150602081019050602083039250614da5565b6001836020036101000a0380198251168184511680821785525050505050509050019150506000604051808303816000865af19150503d8060008114614e2a576040519150601f19603f3d011682016040523d82523d6000602084013e614e2f565b606091505b5091509150818015614e6f5750600081511480614e6e5750808060200190516020811015614e5c57600080fd5b81019080805190602001909291905050505b5b614ee1576040517f08c379a000000000000000000000000000000000000000000000000000000000815260040180806020018281038252601f8152602001807f5472616e7366657248656c7065723a205452414e534645525f4641494c45440081525060200191505060405180910390fd5b5050505050565b60008273ffffffffffffffffffffffffffffffffffffffff1682600067ffffffffffffffff81118015614f1a57600080fd5b506040519080825280601f01601f191660200182016040528015614f4d5781602001600182028036833780820191505090505b506040518082805190602001908083835b60208310614f815780518252602082019150602081019050602083039250614f5e565b6001836020036101000a03801982511681845116808217855250505050505090500191505060006040518083038185875af1925050503d8060008114614fe3576040519150601f19603f3d011682016040523d82523d6000602084013e614fe8565b606091505b5050905080615042576040517f08c379a00000000000000000000000000000000000000000000000000000000081526004018080602001828103825260248152602001806164d36024913960400191505060405180910390fd5b505050565b60606002825110156150c1576040517f08c379a00000000000000000000000000000000000000000000000000000000081526004018080602001828103825260188152602001807f4a6f654c6962726172793a20494e56414c49445f50415448000000000000000081525060200191505060405180910390fd5b815167ffffffffffffffff811180156150d957600080fd5b506040519080825280602002602001820160405280156151085781602001602082028036833780820191505090505b509050828160008151811061511957fe5b60200260200101818152505060005b60018351038110156151b75760008061516b8786858151811061514757fe5b602002602001015187600187018151811061515e57fe5b6020026020010151616387565b9150915061518d84848151811061517e57fe5b6020026020010151838361493c565b84600185018151811061519c57fe5b60200260200101818152505050508080600101915050615128565b509392505050565b600060608573ffffffffffffffffffffffffffffffffffffffff166323b872dd868686604051602401808473ffffffffffffffffffffffffffffffffffffffff1681526020018373ffffffffffffffffffffffffffffffffffffffff16815260200182815260200193505050506040516020818303038152906040529060e01b6020820180517bffffffffffffffffffffffffffffffffffffffffffffffffffffffff83818316178352505050506040518082805190602001908083835b602083106152a0578051825260208201915060208101905060208303925061527d565b6001836020036101000a0380198251168184511680821785525050505050509050019150506000604051808303816000865af19150503d8060008114615302576040519150601f19603f3d011682016040523d82523d6000602084013e615307565b606091505b50915091508180156153475750600081511480615346575080806020019051602081101561533457600080fd5b81019080805190602001909291905050505b5b61539c576040517f08c379a00000000000000000000000000000000000000000000000000000000081526004018080602001828103825260248152602001806165886024913960400191505060405180910390fd5b505050505050565b60005b6001835103811015615633576000808483815181106153c257fe5b60200260200101518560018501815181106153d957fe5b60200260200101519150915060006153f18383615d45565b509050600087600186018151811061540557fe5b602002602001015190506000808373ffffffffffffffffffffffffffffffffffffffff168673ffffffffffffffffffffffffffffffffffffffff161461544d57826000615451565b6000835b91509150600060028a5103881061546857886154aa565b6154a97f0000000000000000000000000000000000000000000000000000000000000000878c60028c018151811061549c57fe5b6020026020010151614bec565b5b90506154d77f00000000000000000000000000000000000000000000000000000000000000008888614bec565b73ffffffffffffffffffffffffffffffffffffffff1663022c0d9f848484600067ffffffffffffffff8111801561550d57600080fd5b506040519080825280601f01601f1916602001820160405280156155405781602001600182028036833780820191505090505b506040518563ffffffff1660e01b8152600401808581526020018481526020018373ffffffffffffffffffffffffffffffffffffffff16815260200180602001828103825283818151815260200191508051906020019080838360005b838110156155b857808201518184015260208101905061559d565b50505050905090810190601f1680156155e55780820380516001836020036101000a031916815260200191505b5095505050505050600060405180830381600087803b15801561560757600080fd5b505af115801561561b573d6000803e3d6000fd5b505050505050505050505080806001019150506153a7565b50505050565b60005b6001835103811015615a7f5760008084838151811061565757fe5b602002602001015185600185018151811061566e57fe5b60200260200101519150915060006156868383615d45565b50905060006156b67f00000000000000000000000000000000000000000000000000000000000000008585614bec565b90506000806000808473ffffffffffffffffffffffffffffffffffffffff16630902f1ac6040518163ffffffff1660e01b815260040160606040518083038186803b15801561570457600080fd5b505afa158015615718573d6000803e3d6000fd5b505050506040513d606081101561572e57600080fd5b81019080805190602001909291908051906020019092919080519060200190929190505050506dffffffffffffffffffffffffffff1691506dffffffffffffffffffffffffffff1691506000808773ffffffffffffffffffffffffffffffffffffffff168a73ffffffffffffffffffffffffffffffffffffffff16146157b55782846157b8565b83835b91509150615870828b73ffffffffffffffffffffffffffffffffffffffff166370a082318a6040518263ffffffff1660e01b8152600401808273ffffffffffffffffffffffffffffffffffffffff16815260200191505060206040518083038186803b15801561582757600080fd5b505afa15801561583b573d6000803e3d6000fd5b505050506040513d602081101561585157600080fd5b8101908080519060200190929190505050615a8490919063ffffffff16565b955061587d86838361493c565b9450505050506000808573ffffffffffffffffffffffffffffffffffffffff168873ffffffffffffffffffffffffffffffffffffffff16146158c1578260006158c5565b6000835b91509150600060028c51038a106158dc578a61591e565b61591d7f0000000000000000000000000000000000000000000000000000000000000000898e60028e018151811061591057fe5b6020026020010151614bec565b5b90508573ffffffffffffffffffffffffffffffffffffffff1663022c0d9f848484600067ffffffffffffffff8111801561595757600080fd5b506040519080825280601f01601f19166020018201604052801561598a5781602001600182028036833780820191505090505b506040518563ffffffff1660e01b8152600401808581526020018481526020018373ffffffffffffffffffffffffffffffffffffffff16815260200180602001828103825283818151815260200191508051906020019080838360005b83811015615a025780820151818401526020810190506159e7565b50505050905090810190601f168015615a2f5780820380516001836020036101000a031916815260200191505b5095505050505050600060405180830381600087803b158015615a5157600080fd5b505af1158015615a65573d6000803e3d6000fd5b50505050505050505050505050808060010191505061563c565b505050565b6000828284039150811115615b01576040517f08c379a00000000000000000000000000000000000000000000000000000000081526004018080602001828103825260158152602001807f64732d6d6174682d7375622d756e646572666c6f77000000000000000000000081525060200191505060405180910390fd5b92915050565b6000808411615b61576040517f08c379a00000000000000000000000000000000000000000000000000000000081526004018080602001828103825260268152602001806165186026913960400191505060405180910390fd5b600083118015615b715750600082115b615bc6576040517f08c379a00000000000000000000000000000000000000000000000000000000081526004018080602001828103825260228152602001806164b16022913960400191505060405180910390fd5b6000615bef6103e8615be1878761626f90919063ffffffff16565b61626f90919063ffffffff16565b90506000615c1a6103e5615c0c8887615a8490919063ffffffff16565b61626f90919063ffffffff16565b9050615c396001828481615c2a57fe5b0461630490919063ffffffff16565b925050509392505050565b6000808411615cbb576040517f08c379a000000000000000000000000000000000000000000000000000000000815260040180806020018281038252601f8152602001807f4a6f654c6962726172793a20494e53554646494349454e545f414d4f554e540081525060200191505060405180910390fd5b600083118015615ccb5750600082115b615d20576040517f08c379a00000000000000000000000000000000000000000000000000000000081526004018080602001828103825260228152602001806164b16022913960400191505060405180910390fd5b82615d34838661626f90919063ffffffff16565b81615d3b57fe5b0490509392505050565b6000808273ffffffffffffffffffffffffffffffffffffffff168473ffffffffffffffffffffffffffffffffffffffff161415615dea576040517f08c379a000000000000000000000000000000000000000000000000000000000815260040180806020018281038252601f8152602001807f4a6f654c6962726172793a204944454e544943414c5f4144445245535345530081525060200191505060405180910390fd5b8273ffffffffffffffffffffffffffffffffffffffff168473ffffffffffffffffffffffffffffffffffffffff1610615e24578284615e27565b83835b8092508193505050600073ffffffffffffffffffffffffffffffffffffffff168273ffffffffffffffffffffffffffffffffffffffff161415615ed2576040517f08c379a00000000000000000000000000000000000000000000000000000000081526004018080602001828103825260188152602001807f4a6f654c6962726172793a205a45524f5f41444452455353000000000000000081525060200191505060405180910390fd5b9250929050565b600080600073ffffffffffffffffffffffffffffffffffffffff167f000000000000000000000000000000000000000000000000000000000000000073ffffffffffffffffffffffffffffffffffffffff1663e6a439058a8a6040518363ffffffff1660e01b8152600401808373ffffffffffffffffffffffffffffffffffffffff1681526020018273ffffffffffffffffffffffffffffffffffffffff1681526020019250505060206040518083038186803b158015615f9957600080fd5b505afa158015615fad573d6000803e3d6000fd5b505050506040513d6020811015615fc357600080fd5b810190808051906020019092919050505073ffffffffffffffffffffffffffffffffffffffff1614156160d4577f000000000000000000000000000000000000000000000000000000000000000073ffffffffffffffffffffffffffffffffffffffff1663c9c6539689896040518363ffffffff1660e01b8152600401808373ffffffffffffffffffffffffffffffffffffffff1681526020018273ffffffffffffffffffffffffffffffffffffffff16815260200192505050602060405180830381600087803b15801561609757600080fd5b505af11580156160ab573d6000803e3d6000fd5b505050506040513d60208110156160c157600080fd5b8101908080519060200190929190505050505b6000806161027f00000000000000000000000000000000000000000000000000000000000000008b8b616387565b915091506000821480156161165750600081145b1561612a5787878094508195505050616262565b6000616137898484615c44565b90508781116161c557858110156161b6576040517f08c379a00000000000000000000000000000000000000000000000000000000081526004018080602001828103825260208152602001807f4a6f65526f757465723a20494e53554646494349454e545f425f414d4f554e5481525060200191505060405180910390fd5b88818095508196505050616260565b60006161d2898486615c44565b9050898111156161de57fe5b87811015616254576040517f08c379a00000000000000000000000000000000000000000000000000000000081526004018080602001828103825260208152602001807f4a6f65526f757465723a20494e53554646494349454e545f415f414d4f554e5481525060200191505060405180910390fd5b80898096508197505050505b505b5050965096945050505050565b60008082148061628c575082828385029250828161628957fe5b04145b6162fe576040517f08c379a00000000000000000000000000000000000000000000000000000000081526004018080602001828103825260148152602001807f64732d6d6174682d6d756c2d6f766572666c6f7700000000000000000000000081525060200191505060405180910390fd5b92915050565b6000828284019150811015616381576040517f08c379a00000000000000000000000000000000000000000000000000000000081526004018080602001828103825260148152602001807f64732d6d6174682d6164642d6f766572666c6f7700000000000000000000000081525060200191505060405180910390fd5b92915050565b60008060006163968585615d45565b5090506000806163a7888888614bec565b73ffffffffffffffffffffffffffffffffffffffff16630902f1ac6040518163ffffffff1660e01b815260040160606040518083038186803b1580156163ec57600080fd5b505afa158015616400573d6000803e3d6000fd5b505050506040513d606081101561641657600080fd5b81019080805190602001909291908051906020019092919080519060200190929190505050506dffffffffffffffffffffffffffff1691506dffffffffffffffffffffffffffff1691508273ffffffffffffffffffffffffffffffffffffffff168773ffffffffffffffffffffffffffffffffffffffff161461649a57808261649d565b81815b809550819650505050505093509391505056fe4a6f654c6962726172793a20494e53554646494349454e545f4c49515549444954595472616e7366657248656c7065723a20415641585f5452414e534645525f4641494c45444a6f65526f757465723a204558434553534956455f494e5055545f414d4f554e544a6f654c6962726172793a20494e53554646494349454e545f4f55545055545f414d4f554e544a6f654c6962726172793a20494e53554646494349454e545f494e5055545f414d4f554e544a6f65526f757465723a20494e53554646494349454e545f4f55545055545f414d4f554e545472616e7366657248656c7065723a205452414e534645525f46524f4d5f4641494c4544a26469706673582212207707bb2facec9b7930e2eac39c30babb258cc3c40bea1bb550edfd2cfcd95f7664736f6c634300060c0033",
  "linkReferences": {},
  "deployedLinkReferences": {}
}