{
  "_format": "hh-sol-artifact-1",
  "contractName": "MarketplaceFacet",
  "sourceName": "contracts/farm/facets/MarketplaceFacet/MarketplaceFacet.sol",
  "abi": [
    {
      "anonymous": false,
      "inputs": [
        {
          "indexed": true,
          "internalType": "address",
          "name": "from",
          "type": "address"
        },
        {
          "indexed": true,
          "internalType": "address",
          "name": "to",
          "type": "address"
        },
        {
          "indexed": true,
          "internalType": "uint256",
          "name": "id",
          "type": "uint256"
        },
        {
          "indexed": false,
          "internalType": "uint256",
          "name": "pods",
          "type": "uint256"
        }
      ],
      "name": "PlotTransfer",
      "type": "event"
    },
    {
      "anonymous": false,
      "inputs": [
        {
          "indexed": true,
          "internalType": "address",
          "name": "owner",
          "type": "address"
        },
        {
          "indexed": true,
          "internalType": "address",
          "name": "spender",
          "type": "address"
        },
        {
          "indexed": false,
          "internalType": "uint256",
          "name": "pods",
          "type": "uint256"
        }
      ],
      "name": "PodApproval",
      "type": "event"
    },
    {
      "anonymous": false,
      "inputs": [
        {
          "indexed": true,
          "internalType": "address",
          "name": "account",
          "type": "address"
        },
        {
          "indexed": false,
          "internalType": "uint256",
          "name": "index",
          "type": "uint256"
        }
      ],
      "name": "PodListingCancelled",
      "type": "event"
    },
    {
      "anonymous": false,
      "inputs": [
        {
          "indexed": true,
          "internalType": "address",
          "name": "account",
          "type": "address"
        },
        {
          "indexed": false,
          "internalType": "uint256",
          "name": "index",
          "type": "uint256"
        },
        {
          "indexed": false,
          "internalType": "uint256",
          "name": "start",
          "type": "uint256"
        },
        {
          "indexed": false,
          "internalType": "uint256",
          "name": "amount",
          "type": "uint256"
        },
        {
          "indexed": false,
          "internalType": "uint24",
          "name": "pricePerPod",
          "type": "uint24"
        },
        {
          "indexed": false,
          "internalType": "uint256",
          "name": "maxHarvestableIndex",
          "type": "uint256"
        },
        {
          "indexed": false,
          "internalType": "enum LibTransfer.To",
          "name": "mode",
          "type": "uint8"
        }
      ],
      "name": "PodListingCreated",
      "type": "event"
    },
    {
      "anonymous": false,
      "inputs": [
        {
          "indexed": true,
          "internalType": "address",
          "name": "from",
          "type": "address"
        },
        {
          "indexed": true,
          "internalType": "address",
          "name": "to",
          "type": "address"
        },
        {
          "indexed": false,
          "internalType": "uint256",
          "name": "index",
          "type": "uint256"
        },
        {
          "indexed": false,
          "internalType": "uint256",
          "name": "start",
          "type": "uint256"
        },
        {
          "indexed": false,
          "internalType": "uint256",
          "name": "amount",
          "type": "uint256"
        }
      ],
      "name": "PodListingFilled",
      "type": "event"
    },
    {
      "anonymous": false,
      "inputs": [
        {
          "indexed": true,
          "internalType": "address",
          "name": "account",
          "type": "address"
        },
        {
          "indexed": false,
          "internalType": "bytes32",
          "name": "id",
          "type": "bytes32"
        }
      ],
      "name": "PodOrderCancelled",
      "type": "event"
    },
    {
      "anonymous": false,
      "inputs": [
        {
          "indexed": true,
          "internalType": "address",
          "name": "account",
          "type": "address"
        },
        {
          "indexed": false,
          "internalType": "bytes32",
          "name": "id",
          "type": "bytes32"
        },
        {
          "indexed": false,
          "internalType": "uint256",
          "name": "amount",
          "type": "uint256"
        },
        {
          "indexed": false,
          "internalType": "uint24",
          "name": "pricePerPod",
          "type": "uint24"
        },
        {
          "indexed": false,
          "internalType": "uint256",
          "name": "maxPlaceInLine",
          "type": "uint256"
        }
      ],
      "name": "PodOrderCreated",
      "type": "event"
    },
    {
      "anonymous": false,
      "inputs": [
        {
          "indexed": true,
          "internalType": "address",
          "name": "from",
          "type": "address"
        },
        {
          "indexed": true,
          "internalType": "address",
          "name": "to",
          "type": "address"
        },
        {
          "indexed": false,
          "internalType": "bytes32",
          "name": "id",
          "type": "bytes32"
        },
        {
          "indexed": false,
          "internalType": "uint256",
          "name": "index",
          "type": "uint256"
        },
        {
          "indexed": false,
          "internalType": "uint256",
          "name": "start",
          "type": "uint256"
        },
        {
          "indexed": false,
          "internalType": "uint256",
          "name": "amount",
          "type": "uint256"
        }
      ],
      "name": "PodOrderFilled",
      "type": "event"
    },
    {
      "inputs": [
        {
          "internalType": "address",
          "name": "owner",
          "type": "address"
        },
        {
          "internalType": "address",
          "name": "spender",
          "type": "address"
        }
      ],
      "name": "allowancePods",
      "outputs": [
        {
          "internalType": "uint256",
          "name": "",
          "type": "uint256"
        }
      ],
      "stateMutability": "view",
      "type": "function"
    },
    {
      "inputs": [
        {
          "internalType": "address",
          "name": "spender",
          "type": "address"
        },
        {
          "internalType": "uint256",
          "name": "amount",
          "type": "uint256"
        }
      ],
      "name": "approvePods",
      "outputs": [],
      "stateMutability": "payable",
      "type": "function"
    },
    {
      "inputs": [
        {
          "internalType": "uint256",
          "name": "index",
          "type": "uint256"
        }
      ],
      "name": "cancelPodListing",
      "outputs": [],
      "stateMutability": "payable",
      "type": "function"
    },
    {
      "inputs": [
        {
          "internalType": "uint24",
          "name": "pricePerPod",
          "type": "uint24"
        },
        {
          "internalType": "uint256",
          "name": "maxPlaceInLine",
          "type": "uint256"
        },
        {
          "internalType": "enum LibTransfer.To",
          "name": "mode",
          "type": "uint8"
        }
      ],
      "name": "cancelPodOrder",
      "outputs": [],
      "stateMutability": "payable",
      "type": "function"
    },
    {
      "inputs": [
        {
          "internalType": "uint256",
          "name": "index",
          "type": "uint256"
        },
        {
          "internalType": "uint256",
          "name": "start",
          "type": "uint256"
        },
        {
          "internalType": "uint256",
          "name": "amount",
          "type": "uint256"
        },
        {
          "internalType": "uint24",
          "name": "pricePerPod",
          "type": "uint24"
        },
        {
          "internalType": "uint256",
          "name": "maxHarvestableIndex",
          "type": "uint256"
        },
        {
          "internalType": "enum LibTransfer.To",
          "name": "mode",
          "type": "uint8"
        }
      ],
      "name": "createPodListing",
      "outputs": [],
      "stateMutability": "payable",
      "type": "function"
    },
    {
      "inputs": [
        {
          "internalType": "uint256",
          "name": "beanAmount",
          "type": "uint256"
        },
        {
          "internalType": "uint24",
          "name": "pricePerPod",
          "type": "uint24"
        },
        {
          "internalType": "uint256",
          "name": "maxPlaceInLine",
          "type": "uint256"
        },
        {
          "internalType": "enum LibTransfer.From",
          "name": "mode",
          "type": "uint8"
        }
      ],
      "name": "createPodOrder",
      "outputs": [
        {
          "internalType": "bytes32",
          "name": "id",
          "type": "bytes32"
        }
      ],
      "stateMutability": "payable",
      "type": "function"
    },
    {
      "inputs": [
        {
          "components": [
            {
              "internalType": "address",
              "name": "account",
              "type": "address"
            },
            {
              "internalType": "uint256",
              "name": "index",
              "type": "uint256"
            },
            {
              "internalType": "uint256",
              "name": "start",
              "type": "uint256"
            },
            {
              "internalType": "uint256",
              "name": "amount",
              "type": "uint256"
            },
            {
              "internalType": "uint24",
              "name": "pricePerPod",
              "type": "uint24"
            },
            {
              "internalType": "uint256",
              "name": "maxHarvestableIndex",
              "type": "uint256"
            },
            {
              "internalType": "enum LibTransfer.To",
              "name": "mode",
              "type": "uint8"
            }
          ],
          "internalType": "struct Listing.PodListing",
          "name": "l",
          "type": "tuple"
        },
        {
          "internalType": "uint256",
          "name": "beanAmount",
          "type": "uint256"
        },
        {
          "internalType": "enum LibTransfer.From",
          "name": "mode",
          "type": "uint8"
        }
      ],
      "name": "fillPodListing",
      "outputs": [],
      "stateMutability": "payable",
      "type": "function"
    },
    {
      "inputs": [
        {
          "components": [
            {
              "internalType": "address",
              "name": "account",
              "type": "address"
            },
            {
              "internalType": "uint24",
              "name": "pricePerPod",
              "type": "uint24"
            },
            {
              "internalType": "uint256",
              "name": "maxPlaceInLine",
              "type": "uint256"
            }
          ],
          "internalType": "struct Order.PodOrder",
          "name": "o",
          "type": "tuple"
        },
        {
          "internalType": "uint256",
          "name": "index",
          "type": "uint256"
        },
        {
          "internalType": "uint256",
          "name": "start",
          "type": "uint256"
        },
        {
          "internalType": "uint256",
          "name": "amount",
          "type": "uint256"
        },
        {
          "internalType": "enum LibTransfer.To",
          "name": "mode",
          "type": "uint8"
        }
      ],
      "name": "fillPodOrder",
      "outputs": [],
      "stateMutability": "payable",
      "type": "function"
    },
    {
      "inputs": [
        {
          "internalType": "uint256",
          "name": "index",
          "type": "uint256"
        }
      ],
      "name": "podListing",
      "outputs": [
        {
          "internalType": "bytes32",
          "name": "",
          "type": "bytes32"
        }
      ],
      "stateMutability": "view",
      "type": "function"
    },
    {
      "inputs": [
        {
          "internalType": "address",
          "name": "account",
          "type": "address"
        },
        {
          "internalType": "uint24",
          "name": "pricePerPod",
          "type": "uint24"
        },
        {
          "internalType": "uint256",
          "name": "maxPlaceInLine",
          "type": "uint256"
        }
      ],
      "name": "podOrder",
      "outputs": [
        {
          "internalType": "uint256",
          "name": "",
          "type": "uint256"
        }
      ],
      "stateMutability": "view",
      "type": "function"
    },
    {
      "inputs": [
        {
          "internalType": "bytes32",
          "name": "id",
          "type": "bytes32"
        }
      ],
      "name": "podOrderById",
      "outputs": [
        {
          "internalType": "uint256",
          "name": "",
          "type": "uint256"
        }
      ],
      "stateMutability": "view",
      "type": "function"
    },
    {
      "inputs": [
        {
          "internalType": "address",
          "name": "sender",
          "type": "address"
        },
        {
          "internalType": "address",
          "name": "recipient",
          "type": "address"
        },
        {
          "internalType": "uint256",
          "name": "id",
          "type": "uint256"
        },
        {
          "internalType": "uint256",
          "name": "start",
          "type": "uint256"
        },
        {
          "internalType": "uint256",
          "name": "end",
          "type": "uint256"
        }
      ],
      "name": "transferPlot",
      "outputs": [],
      "stateMutability": "payable",
      "type": "function"
    }
  ],
  "bytecode": "0x608060405234801561001057600080fd5b50613a0e806100206000396000f3fe6080604052600436106100a75760003560e01c806372db799f1161006457806372db799f14610196578063b1719e59146101c6578063c5644a6014610203578063d6af17ab1461021f578063eb6fa84f1461025c578063ed778f8e14610278576100a7565b80630b385a85146100ac5780631aac9789146100e95780633260c49e1461010557806356e708111461012157806369d9120d1461015e5780636d6797751461017a575b600080fd5b3480156100b857600080fd5b506100d360048036038101906100ce91906128f0565b610294565b6040516100e091906136a7565b60405180910390f35b61010360048036038101906100fe9190612a80565b610323565b005b61011f600480360381019061011a9190612bc0565b61036c565b005b34801561012d57600080fd5b50610148600480360381019061014391906129a3565b610379565b60405161015591906136a7565b60405180910390f35b6101786004803603810190610173919061292c565b6103a4565b005b610194600480360381019061018f9190612ad1565b610655565b005b6101b060048036038101906101ab9190612c12565b610669565b6040516101bd91906133e7565b60405180910390f35b3480156101d257600080fd5b506101ed60048036038101906101e89190612a2e565b610695565b6040516101fa91906136a7565b60405180910390f35b61021d600480360381019061021891906129f2565b6106b4565b005b34801561022b57600080fd5b5061024660048036038101906102419190612bc0565b6107f7565b60405161025391906133e7565b60405180910390f35b61027660048036038101906102719190612b71565b610816565b005b610292600480360381019061028d9190612c75565b610826565b005b60008060310160008473ffffffffffffffffffffffffffffffffffffffff1673ffffffffffffffffffffffffffffffffffffffff16815260200190815260200160002060000160010160008373ffffffffffffffffffffffffffffffffffffffff1673ffffffffffffffffffffffffffffffffffffffff16815260200190815260200160002054905092915050565b61035b61032e61083c565b84600001602081019061034191906128c7565b84848760c00160208101906103569190612a57565b610858565b91506103678383610a1e565b505050565b6103763382610c62565b50565b600080603701600061038c868686610d69565b81526020019081526020016000205490509392505050565b60026000601e015414156103ed576040517f08c379a00000000000000000000000000000000000000000000000000000000081526004016103e490613667565b60405180910390fd5b60026000601e0181905550600073ffffffffffffffffffffffffffffffffffffffff168573ffffffffffffffffffffffffffffffffffffffff16141580156104625750600073ffffffffffffffffffffffffffffffffffffffff168473ffffffffffffffffffffffffffffffffffffffff1614155b6104a1576040517f08c379a0000000000000000000000000000000000000000000000000000000008152600401610498906134a7565b60405180910390fd5b60008060310160008773ffffffffffffffffffffffffffffffffffffffff1673ffffffffffffffffffffffffffffffffffffffff168152602001908152602001600020600001600001600085815260200190815260200160002054905060008111610541576040517f08c379a0000000000000000000000000000000000000000000000000000000008152600401610538906135e7565b60405180910390fd5b82821180156105505750818110155b61058f576040517f08c379a000000000000000000000000000000000000000000000000000000000815260040161058690613567565b60405180910390fd5b82820390508573ffffffffffffffffffffffffffffffffffffffff163373ffffffffffffffffffffffffffffffffffffffff16141580156105f957507fffffffffffffffffffffffffffffffffffffffffffffffffffffffffffffffff6105f68733610294565b14155b1561060a57610609863383610d9f565b5b6000801b600060360160008681526020019081526020016000205414610635576106348685610c62565b5b6106428686868685610e07565b5060016000601e01819055505050505050565b6106628585858585610f30565b5050505050565b600061067e61067661083c565b8633856111e8565b945061068b8585856113e4565b9050949350505050565b6000806037016000838152602001908152602001600020549050919050565b60026000601e015414156106fd576040517f08c379a00000000000000000000000000000000000000000000000000000000081526004016106f490613667565b60405180910390fd5b60026000601e0181905550600073ffffffffffffffffffffffffffffffffffffffff168273ffffffffffffffffffffffffffffffffffffffff161415610778576040517f08c379a000000000000000000000000000000000000000000000000000000000815260040161076f90613527565b60405180910390fd5b61078333838361145b565b8173ffffffffffffffffffffffffffffffffffffffff163373ffffffffffffffffffffffffffffffffffffffff167f2602b28af334328fb380d7416219c5cd9c3c8a0cacda4fb8e090c56557477d48836040516107e091906136a7565b60405180910390a360016000601e01819055505050565b6000806036016000838152602001908152602001600020549050919050565b6108218383836114ea565b505050565b6108348686868686866115a9565b505050505050565b600073bea0000029ad1c77d3d5d23ba2d8893db9d1efab905090565b600080600381111561086657fe5b83600381111561087257fe5b14801561089557506000600181111561088757fe5b82600181111561089357fe5b145b156109f75760008673ffffffffffffffffffffffffffffffffffffffff166370a08231876040518263ffffffff1660e01b81526004016108d591906133cc565b60206040518083038186803b1580156108ed57600080fd5b505afa158015610901573d6000803e3d6000fd5b505050506040513d601f19601f820116820180604052508101906109259190612be9565b90506109543387878a73ffffffffffffffffffffffffffffffffffffffff166117ad909392919063ffffffff16565b6109ef818873ffffffffffffffffffffffffffffffffffffffff166370a08231896040518263ffffffff1660e01b815260040161099191906133cc565b60206040518083038186803b1580156109a957600080fd5b505afa1580156109bd573d6000803e3d6000fd5b505050506040513d601f19601f820116820180604052508101906109e19190612be9565b61186e90919063ffffffff16565b915050610a15565b610a03868533866111e8565b9350610a11868587856118f1565b8390505b95945050505050565b6000610a5d83604001358460600135856080016020810190610a409190612b48565b8660a001358760c0016020810190610a589190612a57565b611960565b90508060006036016000856020013581526020019081526020016000205414610abb576040517f08c379a0000000000000000000000000000000000000000000000000000000008152600401610ab290613627565b60405180910390fd5b6000806031016000856000016020810190610ad691906128c7565b73ffffffffffffffffffffffffffffffffffffffff1673ffffffffffffffffffffffffffffffffffffffff16815260200190815260200160002060000160000160008560200135815260200190815260200160002054905083606001358460400135018110158015610b4c575060008460600135115b610b8b576040517f08c379a0000000000000000000000000000000000000000000000000000000008152600401610b8290613687565b60405180910390fd5b8360a001356000600b01600301541115610bda576040517f08c379a0000000000000000000000000000000000000000000000000000000008152600401610bd190613507565b60405180910390fd5b6000610c1b856080016020810190610bf29190612b48565b62ffffff16610c0d620f4240876119b590919063ffffffff16565b611a3b90919063ffffffff16565b9050610c278582611ac4565b9050610c34338683611b3c565b610c5b856000016020810190610c4a91906128c7565b338760200135886040013585610e07565b5050505050565b60008060310160008473ffffffffffffffffffffffffffffffffffffffff1673ffffffffffffffffffffffffffffffffffffffff16815260200190815260200160002060000160000160008381526020019081526020016000205411610cfd576040517f08c379a0000000000000000000000000000000000000000000000000000000008152600401610cf4906134c7565b60405180910390fd5b60006036016000828152602001908152602001600020600090558173ffffffffffffffffffffffffffffffffffffffff167fe9dc43fcbeb08ecb743b537fa98567049e3b77e283833f89ab216b22ede6ba0a82604051610d5d91906136a7565b60405180910390a25050565b6000838383604051602001610d8093929190613330565b6040516020818303038152906040528051906020012090509392505050565b6000610dab8484610294565b9050610e018484610dfc856040518060400160405280601d81526020017f4669656c643a20496e73756666696369656e7420617070726f76616c2e00000081525086611c819092919063ffffffff16565b61145b565b50505050565b8373ffffffffffffffffffffffffffffffffffffffff168573ffffffffffffffffffffffffffffffffffffffff161415610e76576040517f08c379a0000000000000000000000000000000000000000000000000000000008152600401610e6d90613607565b60405180910390fd5b610e9384610e8d8486611d3b90919063ffffffff16565b83611dc3565b610eb1858484610eac8686611d3b90919063ffffffff16565b611e26565b610ec48284611d3b90919063ffffffff16565b8473ffffffffffffffffffffffffffffffffffffffff168673ffffffffffffffffffffffffffffffffffffffff167fed4f3f107ad11834ddcfa24bee36362f72a9f0301995380177a0efb5b21c3d5984604051610f2191906136a7565b60405180910390a45050505050565b6000610f65866000016020810190610f4891906128c7565b876020016020810190610f5b9190612b48565b8860400135610d69565b9050610f9083600060370160008481526020019081526020016000205461186e90919063ffffffff16565b6000603701600083815260200190815260200160002081905550828401600060310160003373ffffffffffffffffffffffffffffffffffffffff1673ffffffffffffffffffffffffffffffffffffffff1681526020019081526020016000206000016000016000878152602001908152602001600020541015611048576040517f08c379a000000000000000000000000000000000000000000000000000000000815260040161103f906135a7565b60405180910390fd5b600080600b0160030154848688010103905086604001358111156110a1576040517f08c379a000000000000000000000000000000000000000000000000000000000815260040161109890613647565b60405180910390fd5b6000620f4240858960200160208101906110bb9190612b48565b62ffffff1602816110c857fe5b0490506110de6110d661083c565b8233876118f1565b6000801b600060360160008981526020019081526020016000205414611109576111083388610c62565b5b6111283389600001602081019061112091906128c7565b898989610e07565b60008060370160008581526020019081526020016000205414156111615760006037016000848152602001908152602001600020600090555b87600001602081019061117491906128c7565b73ffffffffffffffffffffffffffffffffffffffff163373ffffffffffffffffffffffffffffffffffffffff167fcde76f76bb5e9a4f97126b0428845b44e01404c9fc99ce9eeb029533f77e5ca9858a8a8a6040516111d69493929190613447565b60405180910390a35050505050505050565b6000808414156111fb57600090506113dc565b6000600381111561120857fe5b82600381111561121457fe5b1461126f5761123f8386866001600381111561122c57fe5b86600381111561123857fe5b1415611fde565b905080841480611264575060038081111561125657fe5b82600381111561126257fe5b145b1561126e576113dc565b5b60008573ffffffffffffffffffffffffffffffffffffffff166370a08231306040518263ffffffff1660e01b81526004016112aa91906133cc565b60206040518083038186803b1580156112c257600080fd5b505afa1580156112d6573d6000803e3d6000fd5b505050506040513d601f19601f820116820180604052508101906112fa9190612be9565b905061132b84308488038973ffffffffffffffffffffffffffffffffffffffff166117ad909392919063ffffffff16565b6113d86113c9828873ffffffffffffffffffffffffffffffffffffffff166370a08231306040518263ffffffff1660e01b815260040161136b91906133cc565b60206040518083038186803b15801561138357600080fd5b505afa158015611397573d6000803e3d6000fd5b505050506040513d601f19601f820116820180604052508101906113bb9190612be9565b61186e90919063ffffffff16565b83611d3b90919063ffffffff16565b9150505b949350505050565b60008262ffffff1660001061142e576040517f08c379a0000000000000000000000000000000000000000000000000000000008152600401611425906135c7565b60405180910390fd5b60008362ffffff16620f424086028161144357fe5b04905061145181858561206c565b9150509392505050565b80600060310160008573ffffffffffffffffffffffffffffffffffffffff1673ffffffffffffffffffffffffffffffffffffffff16815260200190815260200160002060000160010160008473ffffffffffffffffffffffffffffffffffffffff1673ffffffffffffffffffffffffffffffffffffffff16815260200190815260200160002081905550505050565b60006114f7338585610d69565b90506000620f424060006037016000848152602001908152602001600020548662ffffff16028161152457fe5b04905061153a61153261083c565b8233866118f1565b60006037016000838152602001908152602001600020600090553373ffffffffffffffffffffffffffffffffffffffff167f531180eb4d1153cb99f00e54fef0a473edc9e3e951f9a88468fec65988e9e4f88360405161159a91906133e7565b60405180910390a25050505050565b60008060310160003373ffffffffffffffffffffffffffffffffffffffff1673ffffffffffffffffffffffffffffffffffffffff16815260200190815260200160002060000160000160008881526020019081526020016000205490506116198587611d3b90919063ffffffff16565b81101580156116285750600085115b611667576040517f08c379a000000000000000000000000000000000000000000000000000000000815260040161165e90613687565b60405180910390fd5b60008462ffffff16116116af576040517f08c379a00000000000000000000000000000000000000000000000000000000081526004016116a6906135c7565b60405180910390fd5b826000600b016003015411156116fa576040517f08c379a00000000000000000000000000000000000000000000000000000000081526004016116f1906134e7565b60405180910390fd5b6000801b600060360160008981526020019081526020016000205414611725576117243388610c62565b5b6117328686868686611960565b60006036016000898152602001908152602001600020819055503373ffffffffffffffffffffffffffffffffffffffff167fc38b5cf4e9bfac3b902ca9208ff1ee87485ca2f5bd39b808cdfc621241e6310f88888888888860405161179c969594939291906136f9565b60405180910390a250505050505050565b611868846323b872dd60e01b858585604051602401808473ffffffffffffffffffffffffffffffffffffffff1681526020018373ffffffffffffffffffffffffffffffffffffffff1681526020018281526020019350505050604051602081830303815290604052907bffffffffffffffffffffffffffffffffffffffffffffffffffffffff19166020820180517bffffffffffffffffffffffffffffffffffffffffffffffffffffffff838183161783525050505061215e565b50505050565b6000828211156118e6576040517f08c379a000000000000000000000000000000000000000000000000000000000815260040180806020018281038252601e8152602001807f536166654d6174683a207375627472616374696f6e206f766572666c6f77000081525060200191505060405180910390fd5b818303905092915050565b60008314156118ff5761195a565b60018081111561190b57fe5b81600181111561191757fe5b141561192d5761192882858561224d565b611959565b61195882848673ffffffffffffffffffffffffffffffffffffffff1661228d9092919063ffffffff16565b5b5b50505050565b6000858585856000600181111561197357fe5b86600181111561197f57fe5b1460405160200161199495949392919061336d565b60405160208183030381529060405280519060200120905095945050505050565b6000808314156119c85760009050611a35565b60008284029050828482816119d957fe5b0414611a30576040517f08c379a000000000000000000000000000000000000000000000000000000000815260040180806020018281038252602181526020018061393f6021913960400191505060405180910390fd5b809150505b92915050565b6000808211611ab2576040517f08c379a000000000000000000000000000000000000000000000000000000000815260040180806020018281038252601a8152602001807f536166654d6174683a206469766973696f6e206279207a65726f00000000000081525060200191505060405180910390fd5b818381611abb57fe5b04905092915050565b600080611af883604051806060016040528060278152602001613960602791398660600135611c819092919063ffffffff16565b9050836080016020810190611b0d9190612b48565b62ffffff16620f424081611b1d57fe5b0462ffffff16811015611b3257836060013592505b8291505092915050565b8082606001351115611bdb57611b946000611b6483856060013561186e90919063ffffffff16565b846080016020810190611b779190612b48565b8560a001358660c0016020810190611b8f9190612a57565b611960565b60006036016000611bc88560400135611bba868860200135611d3b90919063ffffffff16565b611d3b90919063ffffffff16565b8152602001908152602001600020819055505b8273ffffffffffffffffffffffffffffffffffffffff16826000016020810190611c0591906128c7565b73ffffffffffffffffffffffffffffffffffffffff167f04747662e13fb76b3eed402e26661377c3ddf3b1fdaf2ebf22638037754677da8460200135856040013585604051611c56939291906136c2565b60405180910390a3600060360160008360200135815260200190815260200160002060009055505050565b6000838311158290611d2e576040517f08c379a00000000000000000000000000000000000000000000000000000000081526004018080602001828103825283818151815260200191508051906020019080838360005b83811015611cf3578082015181840152602081019050611cd8565b50505050905090810190601f168015611d205780820380516001836020036101000a031916815260200191505b509250505060405180910390fd5b5082840390509392505050565b600080828401905083811015611db9576040517f08c379a000000000000000000000000000000000000000000000000000000000815260040180806020018281038252601b8152602001807f536166654d6174683a206164646974696f6e206f766572666c6f77000000000081525060200191505060405180910390fd5b8091505092915050565b80600060310160008573ffffffffffffffffffffffffffffffffffffffff1673ffffffffffffffffffffffffffffffffffffffff168152602001908152602001600020600001600001600084815260200190815260200160002081905550505050565b60008060310160008673ffffffffffffffffffffffffffffffffffffffff1673ffffffffffffffffffffffffffffffffffffffff16815260200190815260200160002060000160000160008581526020019081526020016000205490506000831415611eee57600060310160008673ffffffffffffffffffffffffffffffffffffffff1673ffffffffffffffffffffffffffffffffffffffff168152602001908152602001600020600001600001600085815260200190815260200160002060009055611f4d565b82600060310160008773ffffffffffffffffffffffffffffffffffffffff1673ffffffffffffffffffffffffffffffffffffffff1681526020019081526020016000206000016000016000868152602001908152602001600020819055505b808214611fd757611f67828261186e90919063ffffffff16565b600060310160008773ffffffffffffffffffffffffffffffffffffffff1673ffffffffffffffffffffffffffffffffffffffff1681526020019081526020016000206000016000016000611fc48588611d3b90919063ffffffff16565b8152602001908152602001600020819055505b5050505050565b600080611feb868661232f565b90508280611ff95750838110155b612038576040517f08c379a000000000000000000000000000000000000000000000000000000000815260040161202f90613547565b60405180910390fd5b61204281856123c4565b91506000828203905061206287878361205a876123dd565b60000361245f565b5050949350505050565b60008084116120b0576040517f08c379a00000000000000000000000000000000000000000000000000000000081526004016120a790613587565b60405180910390fd5b6120bb338484610d69565b905060008060370160008381526020019081526020016000205411156120e8576120e7838360016114ea565b5b8360006037016000838152602001908152602001600020819055503373ffffffffffffffffffffffffffffffffffffffff167f9d0f352519bb87be0593a36adf8feb8ee677ef1b9932894db339a3537ca2df8b8286868660405161214f9493929190613402565b60405180910390a29392505050565b60006121c0826040518060400160405280602081526020017f5361666545524332303a206c6f772d6c6576656c2063616c6c206661696c65648152508573ffffffffffffffffffffffffffffffffffffffff1661255a9092919063ffffffff16565b9050600081511115612248578080602001905160208110156121e157600080fd5b8101908080519060200190929190505050612247576040517f08c379a000000000000000000000000000000000000000000000000000000000815260040180806020018281038252602a8152602001806139af602a913960400191505060405180910390fd5b5b505050565b6000612259848461232f565b905060006122708383611d3b90919063ffffffff16565b9050612286858583612281876123dd565b61245f565b5050505050565b61232a8363a9059cbb60e01b8484604051602401808373ffffffffffffffffffffffffffffffffffffffff16815260200182815260200192505050604051602081830303815290604052907bffffffffffffffffffffffffffffffffffffffffffffffffffffffff19166020820180517bffffffffffffffffffffffffffffffffffffffffffffffffffffffff838183161783525050505061215e565b505050565b60008061233a612572565b905080603e0160008573ffffffffffffffffffffffffffffffffffffffff1673ffffffffffffffffffffffffffffffffffffffff16815260200190815260200160002060008473ffffffffffffffffffffffffffffffffffffffff1673ffffffffffffffffffffffffffffffffffffffff1681526020019081526020016000205491505092915050565b60008183106123d357816123d5565b825b905092915050565b60007f80000000000000000000000000000000000000000000000000000000000000008210612457576040517f08c379a00000000000000000000000000000000000000000000000000000000081526004018080602001828103825260288152602001806139876028913960400191505060405180910390fd5b819050919050565b6000612469612572565b90508281603e0160008773ffffffffffffffffffffffffffffffffffffffff1673ffffffffffffffffffffffffffffffffffffffff16815260200190815260200160002060008673ffffffffffffffffffffffffffffffffffffffff1673ffffffffffffffffffffffffffffffffffffffff168152602001908152602001600020819055508373ffffffffffffffffffffffffffffffffffffffff168573ffffffffffffffffffffffffffffffffffffffff167f18e1ea4139e68413d7d08aa752e71568e36b2c5bf940893314c2c5b01eaa0c428460405161254b919061348c565b60405180910390a35050505050565b60606125698484600085612577565b90509392505050565b600090565b6060824710156125d2576040517f08c379a00000000000000000000000000000000000000000000000000000000081526004018080602001828103825260268152602001806139196026913960400191505060405180910390fd5b6125db8561271f565b61264d576040517f08c379a000000000000000000000000000000000000000000000000000000000815260040180806020018281038252601d8152602001807f416464726573733a2063616c6c20746f206e6f6e2d636f6e747261637400000081525060200191505060405180910390fd5b6000808673ffffffffffffffffffffffffffffffffffffffff1685876040518082805190602001908083835b6020831061269c5780518252602082019150602081019050602083039250612679565b6001836020036101000a03801982511681845116808217855250505050505090500191505060006040518083038185875af1925050503d80600081146126fe576040519150601f19603f3d011682016040523d82523d6000602084013e612703565b606091505b5091509150612713828286612732565b92505050949350505050565b600080823b905060008111915050919050565b60608315612742578290506127f7565b6000835111156127555782518084602001fd5b816040517f08c379a00000000000000000000000000000000000000000000000000000000081526004018080602001828103825283818151815260200191508051906020019080838360005b838110156127bc5780820151818401526020810190506127a1565b50505050905090810190601f1680156127e95780820380516001836020036101000a031916815260200191505b509250505060405180910390fd5b9392505050565b60008135905061280d8161389c565b92915050565b600081359050612822816138b3565b92915050565b600081359050612837816138ca565b92915050565b60008135905061284c816138da565b92915050565b600060e0828403121561286457600080fd5b81905092915050565b60006060828403121561287f57600080fd5b81905092915050565b600081359050612897816138ea565b92915050565b6000813590506128ac81613901565b92915050565b6000815190506128c181613901565b92915050565b6000602082840312156128d957600080fd5b60006128e7848285016127fe565b91505092915050565b6000806040838503121561290357600080fd5b6000612911858286016127fe565b9250506020612922858286016127fe565b9150509250929050565b600080600080600060a0868803121561294457600080fd5b6000612952888289016127fe565b9550506020612963888289016127fe565b94505060406129748882890161289d565b93505060606129858882890161289d565b92505060806129968882890161289d565b9150509295509295909350565b6000806000606084860312156129b857600080fd5b60006129c6868287016127fe565b93505060206129d786828701612888565b92505060406129e88682870161289d565b9150509250925092565b60008060408385031215612a0557600080fd5b6000612a13858286016127fe565b9250506020612a248582860161289d565b9150509250929050565b600060208284031215612a4057600080fd5b6000612a4e84828501612813565b91505092915050565b600060208284031215612a6957600080fd5b6000612a778482850161283d565b91505092915050565b60008060006101208486031215612a9657600080fd5b6000612aa486828701612852565b93505060e0612ab58682870161289d565b925050610100612ac786828701612828565b9150509250925092565b600080600080600060e08688031215612ae957600080fd5b6000612af78882890161286d565b9550506060612b088882890161289d565b9450506080612b198882890161289d565b93505060a0612b2a8882890161289d565b92505060c0612b3b8882890161283d565b9150509295509295909350565b600060208284031215612b5a57600080fd5b6000612b6884828501612888565b91505092915050565b600080600060608486031215612b8657600080fd5b6000612b9486828701612888565b9350506020612ba58682870161289d565b9250506040612bb68682870161283d565b9150509250925092565b600060208284031215612bd257600080fd5b6000612be08482850161289d565b91505092915050565b600060208284031215612bfb57600080fd5b6000612c09848285016128b2565b91505092915050565b60008060008060808587031215612c2857600080fd5b6000612c368782880161289d565b9450506020612c4787828801612888565b9350506040612c588782880161289d565b9250506060612c6987828801612828565b91505092959194509250565b60008060008060008060c08789031215612c8e57600080fd5b6000612c9c89828a0161289d565b9650506020612cad89828a0161289d565b9550506040612cbe89828a0161289d565b9450506060612ccf89828a01612888565b9350506080612ce089828a0161289d565b92505060a0612cf189828a0161283d565b9150509295509295509295565b612d078161376b565b82525050565b612d1e612d198261376b565b6137fb565b82525050565b612d35612d308261377d565b61380d565b82525050565b612d4481613789565b82525050565b612d53816137e9565b82525050565b612d62816137a6565b82525050565b6000612d7560228361375a565b91507f4669656c643a205472616e7366657220746f2f66726f6d20302061646472657360008301527f732e0000000000000000000000000000000000000000000000000000000000006020830152604082019050919050565b6000612ddb60298361375a565b91507f4d61726b6574706c6163653a204c697374696e67206e6f74206f776e6564206260008301527f792073656e6465722e00000000000000000000000000000000000000000000006020830152604082019050919050565b6000612e4160158361375a565b91507f4d61726b6574706c6163653a20457870697265642e00000000000000000000006000830152602082019050919050565b6000612e8160218361375a565b91507f4d61726b6574706c6163653a204c697374696e6720686173206578706972656460008301527f2e000000000000000000000000000000000000000000000000000000000000006020830152604082019050919050565b6000612ee760208361375a565b91507f4669656c643a20506f6420417070726f766520746f203020616464726573732e6000830152602082019050919050565b6000612f2760268361375a565b91507f42616c616e63653a20496e73756666696369656e7420696e7465726e616c206260008301527f616c616e636500000000000000000000000000000000000000000000000000006020830152604082019050919050565b6000612f8d60198361375a565b91507f4669656c643a20506f642072616e676520696e76616c69642e000000000000006000830152602082019050919050565b6000612fcd60268361375a565b91507f4d61726b6574706c6163653a204f7264657220616d6f756e74206d757374206260008301527f65203e20302e00000000000000000000000000000000000000000000000000006020830152604082019050919050565b6000613033601a8361375a565b91507f4d61726b6574706c6163653a20496e76616c696420506c6f742e0000000000006000830152602082019050919050565b6000613073602e8361375a565b91507f4d61726b6574706c6163653a20506f64207072696365206d757374206265206760008301527f726561746572207468616e20302e0000000000000000000000000000000000006020830152604082019050919050565b60006130d9601e8361375a565b91507f4669656c643a20506c6f74206e6f74206f776e656420627920757365722e00006000830152602082019050919050565b600061311960278361375a565b91507f4669656c643a2043616e6e6f74207472616e7366657220506f647320746f206f60008301527f6e6573656c662e000000000000000000000000000000000000000000000000006020830152604082019050919050565b600061317f60248361375a565b91507f4d61726b6574706c6163653a204c697374696e6720646f6573206e6f7420657860008301527f6973742e000000000000000000000000000000000000000000000000000000006020830152604082019050919050565b60006131e560228361375a565b91507f4d61726b6574706c6163653a20506c6f7420746f6f2066617220696e206c696e60008301527f652e0000000000000000000000000000000000000000000000000000000000006020830152604082019050919050565b600061324b601f8361375a565b91507f5265656e7472616e637947756172643a207265656e7472616e742063616c6c006000830152602082019050919050565b600061328b60218361375a565b91507f4d61726b6574706c6163653a20496e76616c696420506c6f742f416d6f756e7460008301527f2e000000000000000000000000000000000000000000000000000000000000006020830152604082019050919050565b6132ed816137d0565b82525050565b6133046132ff826137d0565b613831565b82525050565b613313816137df565b82525050565b61332a613325826137df565b613843565b82525050565b600061333c8286612d0d565b60148201915061334c82856132f3565b60038201915061335c8284613319565b602082019150819050949350505050565b60006133798288613319565b6020820191506133898287613319565b60208201915061339982866132f3565b6003820191506133a98285613319565b6020820191506133b98284612d24565b6001820191508190509695505050505050565b60006020820190506133e16000830184612cfe565b92915050565b60006020820190506133fc6000830184612d3b565b92915050565b60006080820190506134176000830187612d3b565b613424602083018661330a565b61343160408301856132e4565b61343e606083018461330a565b95945050505050565b600060808201905061345c6000830187612d3b565b613469602083018661330a565b613476604083018561330a565b613483606083018461330a565b95945050505050565b60006020820190506134a16000830184612d59565b92915050565b600060208201905081810360008301526134c081612d68565b9050919050565b600060208201905081810360008301526134e081612dce565b9050919050565b6000602082019050818103600083015261350081612e34565b9050919050565b6000602082019050818103600083015261352081612e74565b9050919050565b6000602082019050818103600083015261354081612eda565b9050919050565b6000602082019050818103600083015261356081612f1a565b9050919050565b6000602082019050818103600083015261358081612f80565b9050919050565b600060208201905081810360008301526135a081612fc0565b9050919050565b600060208201905081810360008301526135c081613026565b9050919050565b600060208201905081810360008301526135e081613066565b9050919050565b60006020820190508181036000830152613600816130cc565b9050919050565b600060208201905081810360008301526136208161310c565b9050919050565b6000602082019050818103600083015261364081613172565b9050919050565b60006020820190508181036000830152613660816131d8565b9050919050565b600060208201905081810360008301526136808161323e565b9050919050565b600060208201905081810360008301526136a08161327e565b9050919050565b60006020820190506136bc600083018461330a565b92915050565b60006060820190506136d7600083018661330a565b6136e4602083018561330a565b6136f1604083018461330a565b949350505050565b600060c08201905061370e600083018961330a565b61371b602083018861330a565b613728604083018761330a565b61373560608301866132e4565b613742608083018561330a565b61374f60a0830184612d4a565b979650505050505050565b600082825260208201905092915050565b6000613776826137b0565b9050919050565b60008115159050919050565b6000819050919050565b60008190506137a182613888565b919050565b6000819050919050565b600073ffffffffffffffffffffffffffffffffffffffff82169050919050565b600062ffffff82169050919050565b6000819050919050565b60006137f482613793565b9050919050565b60006138068261381f565b9050919050565b60006138188261384d565b9050919050565b600061382a8261387b565b9050919050565b600061383c82613861565b9050919050565b6000819050919050565b60006138588261386e565b9050919050565bfe5b60008160e81b9050919050565b60008160f81b9050919050565b60008160601b9050919050565b600281106138995761389861385f565b5b50565b6138a58161376b565b81146138b057600080fd5b50565b6138bc81613789565b81146138c757600080fd5b50565b600481106138d757600080fd5b50565b600281106138e757600080fd5b50565b6138f3816137d0565b81146138fe57600080fd5b50565b61390a816137df565b811461391557600080fd5b5056fe416464726573733a20696e73756666696369656e742062616c616e636520666f722063616c6c536166654d6174683a206d756c7469706c69636174696f6e206f766572666c6f774d61726b6574706c6163653a204e6f7420656e6f75676820706f647320696e204c697374696e6753616665436173743a2076616c756520646f65736e27742066697420696e20616e20696e743235365361666545524332303a204552433230206f7065726174696f6e20646964206e6f742073756363656564a264697066735822122002e2ca5972c30ec46c1e2457fcb79398743e431feabdd43a17f3f3cde268f90464736f6c63430007060033",
  "linkReferences": {},
  "deployedLinkReferences": {}
}