{
  "_format": "hh-sol-artifact-1",
  "contractName": "FertilizerPreMint",
  "sourceName": "contracts/pool/FertilizerPreMint.sol",
  "abi": [
    {
      "anonymous": false,
      "inputs": [
        {
          "indexed": true,
          "internalType": "address",
          "name": "account",
          "type": "address"
        },
        {
          "indexed": true,
          "internalType": "address",
          "name": "operator",
          "type": "address"
        },
        {
          "indexed": false,
          "internalType": "bool",
          "name": "approved",
          "type": "bool"
        }
      ],
      "name": "ApprovalForAll",
      "type": "event"
    },
    {
      "anonymous": false,
      "inputs": [
        {
          "indexed": true,
          "internalType": "address",
          "name": "previousOwner",
          "type": "address"
        },
        {
          "indexed": true,
          "internalType": "address",
          "name": "newOwner",
          "type": "address"
        }
      ],
      "name": "OwnershipTransferred",
      "type": "event"
    },
    {
      "anonymous": false,
      "inputs": [
        {
          "indexed": true,
          "internalType": "address",
          "name": "operator",
          "type": "address"
        },
        {
          "indexed": true,
          "internalType": "address",
          "name": "from",
          "type": "address"
        },
        {
          "indexed": true,
          "internalType": "address",
          "name": "to",
          "type": "address"
        },
        {
          "indexed": false,
          "internalType": "uint256[]",
          "name": "ids",
          "type": "uint256[]"
        },
        {
          "indexed": false,
          "internalType": "uint256[]",
          "name": "values",
          "type": "uint256[]"
        }
      ],
      "name": "TransferBatch",
      "type": "event"
    },
    {
      "anonymous": false,
      "inputs": [
        {
          "indexed": true,
          "internalType": "address",
          "name": "operator",
          "type": "address"
        },
        {
          "indexed": true,
          "internalType": "address",
          "name": "from",
          "type": "address"
        },
        {
          "indexed": true,
          "internalType": "address",
          "name": "to",
          "type": "address"
        },
        {
          "indexed": false,
          "internalType": "uint256",
          "name": "id",
          "type": "uint256"
        },
        {
          "indexed": false,
          "internalType": "uint256",
          "name": "value",
          "type": "uint256"
        }
      ],
      "name": "TransferSingle",
      "type": "event"
    },
    {
      "anonymous": false,
      "inputs": [
        {
          "indexed": false,
          "internalType": "string",
          "name": "value",
          "type": "string"
        },
        {
          "indexed": true,
          "internalType": "uint256",
          "name": "id",
          "type": "uint256"
        }
      ],
      "name": "URI",
      "type": "event"
    },
    {
      "inputs": [],
      "name": "USDC",
      "outputs": [
        {
          "internalType": "address",
          "name": "",
          "type": "address"
        }
      ],
      "stateMutability": "view",
      "type": "function"
    },
    {
      "inputs": [],
      "name": "WETH",
      "outputs": [
        {
          "internalType": "address",
          "name": "",
          "type": "address"
        }
      ],
      "stateMutability": "view",
      "type": "function"
    },
    {
      "inputs": [
        {
          "internalType": "address",
          "name": "account",
          "type": "address"
        },
        {
          "internalType": "uint256",
          "name": "id",
          "type": "uint256"
        }
      ],
      "name": "balanceOf",
      "outputs": [
        {
          "internalType": "uint256",
          "name": "",
          "type": "uint256"
        }
      ],
      "stateMutability": "view",
      "type": "function"
    },
    {
      "inputs": [
        {
          "internalType": "address[]",
          "name": "accounts",
          "type": "address[]"
        },
        {
          "internalType": "uint256[]",
          "name": "ids",
          "type": "uint256[]"
        }
      ],
      "name": "balanceOfBatch",
      "outputs": [
        {
          "internalType": "uint256[]",
          "name": "",
          "type": "uint256[]"
        }
      ],
      "stateMutability": "view",
      "type": "function"
    },
    {
      "inputs": [
        {
          "internalType": "uint256",
          "name": "minBuyAmount",
          "type": "uint256"
        }
      ],
      "name": "buyAndMint",
      "outputs": [],
      "stateMutability": "payable",
      "type": "function"
    },
    {
      "inputs": [],
      "name": "getMintId",
      "outputs": [
        {
          "internalType": "uint256",
          "name": "",
          "type": "uint256"
        }
      ],
      "stateMutability": "pure",
      "type": "function"
    },
    {
      "inputs": [
        {
          "internalType": "uint256",
          "name": "ethAmount",
          "type": "uint256"
        }
      ],
      "name": "getUsdcOut",
      "outputs": [
        {
          "internalType": "uint256",
          "name": "",
          "type": "uint256"
        }
      ],
      "stateMutability": "payable",
      "type": "function"
    },
    {
      "inputs": [
        {
          "internalType": "uint256",
          "name": "ethAmount",
          "type": "uint256"
        },
        {
          "internalType": "uint256",
          "name": "slippage",
          "type": "uint256"
        }
      ],
      "name": "getUsdcOutWithSlippage",
      "outputs": [
        {
          "internalType": "uint256",
          "name": "",
          "type": "uint256"
        }
      ],
      "stateMutability": "payable",
      "type": "function"
    },
    {
      "inputs": [
        {
          "internalType": "string",
          "name": "_uri",
          "type": "string"
        }
      ],
      "name": "initialize",
      "outputs": [],
      "stateMutability": "nonpayable",
      "type": "function"
    },
    {
      "inputs": [
        {
          "internalType": "address",
          "name": "account",
          "type": "address"
        },
        {
          "internalType": "address",
          "name": "operator",
          "type": "address"
        }
      ],
      "name": "isApprovedForAll",
      "outputs": [
        {
          "internalType": "bool",
          "name": "",
          "type": "bool"
        }
      ],
      "stateMutability": "view",
      "type": "function"
    },
    {
      "inputs": [
        {
          "internalType": "address",
          "name": "account",
          "type": "address"
        },
        {
          "internalType": "uint256",
          "name": "id",
          "type": "uint256"
        }
      ],
      "name": "lastBalanceOf",
      "outputs": [
        {
          "components": [
            {
              "internalType": "uint128",
              "name": "amount",
              "type": "uint128"
            },
            {
              "internalType": "uint128",
              "name": "lastBpf",
              "type": "uint128"
            }
          ],
          "internalType": "struct Internalizer.Balance",
          "name": "",
          "type": "tuple"
        }
      ],
      "stateMutability": "view",
      "type": "function"
    },
    {
      "inputs": [
        {
          "internalType": "address[]",
          "name": "accounts",
          "type": "address[]"
        },
        {
          "internalType": "uint256[]",
          "name": "ids",
          "type": "uint256[]"
        }
      ],
      "name": "lastBalanceOfBatch",
      "outputs": [
        {
          "components": [
            {
              "internalType": "uint128",
              "name": "amount",
              "type": "uint128"
            },
            {
              "internalType": "uint128",
              "name": "lastBpf",
              "type": "uint128"
            }
          ],
          "internalType": "struct Internalizer.Balance[]",
          "name": "balances",
          "type": "tuple[]"
        }
      ],
      "stateMutability": "view",
      "type": "function"
    },
    {
      "inputs": [
        {
          "internalType": "uint256",
          "name": "amount",
          "type": "uint256"
        }
      ],
      "name": "mint",
      "outputs": [],
      "stateMutability": "payable",
      "type": "function"
    },
    {
      "inputs": [],
      "name": "name",
      "outputs": [
        {
          "internalType": "string",
          "name": "",
          "type": "string"
        }
      ],
      "stateMutability": "pure",
      "type": "function"
    },
    {
      "inputs": [],
      "name": "owner",
      "outputs": [
        {
          "internalType": "address",
          "name": "",
          "type": "address"
        }
      ],
      "stateMutability": "view",
      "type": "function"
    },
    {
      "inputs": [],
      "name": "remaining",
      "outputs": [
        {
          "internalType": "uint256",
          "name": "",
          "type": "uint256"
        }
      ],
      "stateMutability": "view",
      "type": "function"
    },
    {
      "inputs": [],
      "name": "renounceOwnership",
      "outputs": [],
      "stateMutability": "nonpayable",
      "type": "function"
    },
    {
      "inputs": [
        {
          "internalType": "address",
          "name": "from",
          "type": "address"
        },
        {
          "internalType": "address",
          "name": "to",
          "type": "address"
        },
        {
          "internalType": "uint256[]",
          "name": "ids",
          "type": "uint256[]"
        },
        {
          "internalType": "uint256[]",
          "name": "amounts",
          "type": "uint256[]"
        },
        {
          "internalType": "bytes",
          "name": "data",
          "type": "bytes"
        }
      ],
      "name": "safeBatchTransferFrom",
      "outputs": [],
      "stateMutability": "nonpayable",
      "type": "function"
    },
    {
      "inputs": [
        {
          "internalType": "address",
          "name": "from",
          "type": "address"
        },
        {
          "internalType": "address",
          "name": "to",
          "type": "address"
        },
        {
          "internalType": "uint256",
          "name": "id",
          "type": "uint256"
        },
        {
          "internalType": "uint256",
          "name": "amount",
          "type": "uint256"
        },
        {
          "internalType": "bytes",
          "name": "data",
          "type": "bytes"
        }
      ],
      "name": "safeTransferFrom",
      "outputs": [],
      "stateMutability": "nonpayable",
      "type": "function"
    },
    {
      "inputs": [
        {
          "internalType": "address",
          "name": "operator",
          "type": "address"
        },
        {
          "internalType": "bool",
          "name": "approved",
          "type": "bool"
        }
      ],
      "name": "setApprovalForAll",
      "outputs": [],
      "stateMutability": "nonpayable",
      "type": "function"
    },
    {
      "inputs": [
        {
          "internalType": "string",
          "name": "newuri",
          "type": "string"
        }
      ],
      "name": "setURI",
      "outputs": [],
      "stateMutability": "nonpayable",
      "type": "function"
    },
    {
      "inputs": [],
      "name": "start",
      "outputs": [
        {
          "internalType": "uint256",
          "name": "",
          "type": "uint256"
        }
      ],
      "stateMutability": "pure",
      "type": "function"
    },
    {
      "inputs": [],
      "name": "started",
      "outputs": [
        {
          "internalType": "bool",
          "name": "",
          "type": "bool"
        }
      ],
      "stateMutability": "view",
      "type": "function"
    },
    {
      "inputs": [
        {
          "internalType": "bytes4",
          "name": "interfaceId",
          "type": "bytes4"
        }
      ],
      "name": "supportsInterface",
      "outputs": [
        {
          "internalType": "bool",
          "name": "",
          "type": "bool"
        }
      ],
      "stateMutability": "view",
      "type": "function"
    },
    {
      "inputs": [],
      "name": "symbol",
      "outputs": [
        {
          "internalType": "string",
          "name": "",
          "type": "string"
        }
      ],
      "stateMutability": "pure",
      "type": "function"
    },
    {
      "inputs": [
        {
          "internalType": "address",
          "name": "newOwner",
          "type": "address"
        }
      ],
      "name": "transferOwnership",
      "outputs": [],
      "stateMutability": "nonpayable",
      "type": "function"
    },
    {
      "inputs": [
        {
          "internalType": "uint256",
          "name": "_id",
          "type": "uint256"
        }
      ],
      "name": "uri",
      "outputs": [
        {
          "internalType": "string",
          "name": "",
          "type": "string"
        }
      ],
      "stateMutability": "view",
      "type": "function"
    }
  ],
  "bytecode": "0x608060405234801561001057600080fd5b50614e0a806100206000396000f3fe60806040526004361061019b5760003560e01c80638da5cb5b116100ec578063bc269be21161008a578063e985e9c511610064578063e985e9c5146105bb578063f242432a146105f8578063f2fde38b14610621578063f62d18881461064a5761019b565b8063bc269be214610523578063be9a655514610553578063bf02d3091461057e5761019b565b806395d89b41116100c657806395d89b4114610488578063a0712d68146104b3578063a22cb465146104cf578063ad5c4648146104f85761019b565b80638da5cb5b146104045780638f0976571461042f57806391b7301f1461044b5761019b565b8063246c0d871161015957806355234ec01161013357806355234ec0146103675780636e567aff14610392578063715018a6146103c257806389a30271146103d95761019b565b8063246c0d87146102d65780632eb2c2d6146103015780634e1273f41461032a5761019b565b8062fdd58e146101a057806301ffc9a7146101dd57806302fe53051461021a57806306fdde03146102435780630e89341c1461026e5780631f2698ab146102ab575b600080fd5b3480156101ac57600080fd5b506101c760048036038101906101c29190613aca565b610673565b6040516101d491906148dc565b60405180910390f35b3480156101e957600080fd5b5061020460048036038101906101ff9190613b9b565b61076e565b6040516102119190614708565b60405180910390f35b34801561022657600080fd5b50610241600480360381019061023c9190613bed565b6107d6565b005b34801561024f57600080fd5b5061025861089b565b6040516102659190614723565b60405180910390f35b34801561027a57600080fd5b5061029560048036038101906102909190613c73565b6108d8565b6040516102a29190614723565b60405180910390f35b3480156102b757600080fd5b506102c061090c565b6040516102cd9190614708565b60405180910390f35b3480156102e257600080fd5b506102eb61091e565b6040516102f891906148dc565b60405180910390f35b34801561030d57600080fd5b5061032860048036038101906103239190613940565b610929565b005b34801561033657600080fd5b50610351600480360381019061034c9190613b06565b610b62565b60405161035e91906146af565b60405180910390f35b34801561037357600080fd5b5061037c610c74565b60405161038991906148dc565b60405180910390f35b6103ac60048036038101906103a79190613cc5565b610d87565b6040516103b991906148dc565b60405180910390f35b3480156103ce57600080fd5b506103d7610dab565b005b3480156103e557600080fd5b506103ee610f1b565b6040516103fb91906144fd565b60405180910390f35b34801561041057600080fd5b50610419610f33565b60405161042691906144fd565b60405180910390f35b61044960048036038101906104449190613c73565b610f5d565b005b34801561045757600080fd5b50610472600480360381019061046d9190613aca565b61110b565b60405161047f91906148a5565b60405180910390f35b34801561049457600080fd5b5061049d61127a565b6040516104aa9190614723565b60405180910390f35b6104cd60048036038101906104c89190613c73565b6112b7565b005b3480156104db57600080fd5b506104f660048036038101906104f19190613a8e565b61141d565b005b34801561050457600080fd5b5061050d6115b6565b60405161051a91906144fd565b60405180910390f35b61053d60048036038101906105389190613c73565b6115ce565b60405161054a91906148dc565b60405180910390f35b34801561055f57600080fd5b506105686116a9565b60405161057591906148dc565b60405180910390f35b34801561058a57600080fd5b506105a560048036038101906105a09190613b06565b6116b5565b6040516105b2919061468d565b60405180910390f35b3480156105c757600080fd5b506105e260048036038101906105dd9190613904565b611771565b6040516105ef9190614708565b60405180910390f35b34801561060457600080fd5b5061061f600480360381019061061a91906139ff565b611805565b005b34801561062d57600080fd5b50610648600480360381019061064391906138db565b6119cc565b005b34801561065657600080fd5b50610671600480360381019061066c9190613c32565b611bc1565b005b60008073ffffffffffffffffffffffffffffffffffffffff168373ffffffffffffffffffffffffffffffffffffffff1614156106e4576040517f08c379a00000000000000000000000000000000000000000000000000000000081526004016106db90614785565b60405180910390fd5b60fb600083815260200190815260200160002060008473ffffffffffffffffffffffffffffffffffffffff1673ffffffffffffffffffffffffffffffffffffffff16815260200190815260200160002060000160009054906101000a90046fffffffffffffffffffffffffffffffff166fffffffffffffffffffffffffffffffff16905092915050565b600060976000837bffffffffffffffffffffffffffffffffffffffffffffffffffffffff19167bffffffffffffffffffffffffffffffffffffffffffffffffffffffff1916815260200190815260200160002060009054906101000a900460ff169050919050565b6107de611d9f565b73ffffffffffffffffffffffffffffffffffffffff166107fc610f33565b73ffffffffffffffffffffffffffffffffffffffff1614610885576040517f08c379a00000000000000000000000000000000000000000000000000000000081526004018080602001828103825260208152602001807f4f776e61626c653a2063616c6c6572206973206e6f7420746865206f776e657281525060200191505060405180910390fd5b818160fc919061089692919061348b565b505050565b60606040518060400160405280600a81526020017f46657274696c697a657200000000000000000000000000000000000000000000815250905090565b606060fc6108e583611da7565b6040516020016108f69291906144d9565b6040516020818303038152906040529050919050565b60006109166116a9565b421015905090565b6000625b8d80905090565b815183511461096d576040517f08c379a000000000000000000000000000000000000000000000000000000000815260040161096490614865565b60405180910390fd5b600073ffffffffffffffffffffffffffffffffffffffff168473ffffffffffffffffffffffffffffffffffffffff1614156109dd576040517f08c379a00000000000000000000000000000000000000000000000000000000081526004016109d4906147e5565b60405180910390fd5b6109e5611d9f565b73ffffffffffffffffffffffffffffffffffffffff168573ffffffffffffffffffffffffffffffffffffffff161480610a2b5750610a2a85610a25611d9f565b611771565b5b610a6a576040517f08c379a0000000000000000000000000000000000000000000000000000000008152600401610a6190614805565b60405180910390fd5b6000610a74611d9f565b9050610a84818787878787611eee565b60005b8451811015610acd57610ac28787878481518110610aa157fe5b6020026020010151878581518110610ab557fe5b6020026020010151611ef6565b806001019050610a87565b508473ffffffffffffffffffffffffffffffffffffffff168673ffffffffffffffffffffffffffffffffffffffff168273ffffffffffffffffffffffffffffffffffffffff167f4a39dc06d4c0dbc64b70af90fd698a233a518aa5d07e595d983b8c0526c8f7fb8787604051610b449291906146d1565b60405180910390a4610b5a8187878787876121aa565b505050505050565b60608151835114610bbe576040517f08c379a0000000000000000000000000000000000000000000000000000000008152600401808060200182810382526029815260200180614dac6029913960400191505060405180910390fd5b6000835167ffffffffffffffff81118015610bd857600080fd5b50604051908082528060200260200182016040528015610c075781602001602082028036833780820191505090505b50905060005b8451811015610c6957610c46858281518110610c2557fe5b6020026020010151858381518110610c3957fe5b6020026020010151610673565b828281518110610c5257fe5b602002602001018181525050806001019050610c0d565b508091505092915050565b60008073a0b86991c6218b36c1d19d4a2e9eb0ce3606eb4873ffffffffffffffffffffffffffffffffffffffff166370a0823173a9ba2c40b263843c04d344727b954a545c81d0436040518263ffffffff1660e01b8152600401610cd891906144fd565b60206040518083038186803b158015610cf057600080fd5b505afa158015610d04573d6000803e3d6000fd5b505050506040513d601f19601f82011682018060405250810190610d289190613c9c565b9050654607f5a5d0006fffffffffffffffffffffffffffffffff16816fffffffffffffffffffffffffffffffff1610610d65576000915050610d84565b80654607f5a5d000036fffffffffffffffffffffffffffffffff169150505b90565b60008161271001612710610d9a856115ce565b0281610da257fe5b04905092915050565b610db3611d9f565b73ffffffffffffffffffffffffffffffffffffffff16610dd1610f33565b73ffffffffffffffffffffffffffffffffffffffff1614610e5a576040517f08c379a00000000000000000000000000000000000000000000000000000000081526004018080602001828103825260208152602001807f4f776e61626c653a2063616c6c6572206973206e6f7420746865206f776e657281525060200191505060405180910390fd5b600073ffffffffffffffffffffffffffffffffffffffff16603360009054906101000a900473ffffffffffffffffffffffffffffffffffffffff1673ffffffffffffffffffffffffffffffffffffffff167f8be0079c531659141344cd1fd0a4f28419497f9722a3daafe3b4186f6b6457e060405160405180910390a36000603360006101000a81548173ffffffffffffffffffffffffffffffffffffffff021916908373ffffffffffffffffffffffffffffffffffffffff160217905550565b73a0b86991c6218b36c1d19d4a2e9eb0ce3606eb4881565b6000603360009054906101000a900473ffffffffffffffffffffffffffffffffffffffff16905090565b60026065541415610fd6576040517f08c379a000000000000000000000000000000000000000000000000000000000815260040180806020018281038252601f8152602001807f5265656e7472616e637947756172643a207265656e7472616e742063616c6c0081525060200191505060405180910390fd5b60026065819055506000610fe98261237a565b9050654607f5a5d0006fffffffffffffffffffffffffffffffff1673a0b86991c6218b36c1d19d4a2e9eb0ce3606eb4873ffffffffffffffffffffffffffffffffffffffff166370a0823173a9ba2c40b263843c04d344727b954a545c81d0436040518263ffffffff1660e01b815260040161106591906144fd565b60206040518083038186803b15801561107d57600080fd5b505afa158015611091573d6000803e3d6000fd5b505050506040513d601f19601f820116820180604052508101906110b59190613c9c565b11156110f6576040517f08c379a00000000000000000000000000000000000000000000000000000000081526004016110ed90614845565b60405180910390fd5b6110ff81612572565b50600160658190555050565b611113613519565b600073ffffffffffffffffffffffffffffffffffffffff168373ffffffffffffffffffffffffffffffffffffffff161415611183576040517f08c379a000000000000000000000000000000000000000000000000000000000815260040161117a90614785565b60405180910390fd5b60fb600083815260200190815260200160002060008473ffffffffffffffffffffffffffffffffffffffff1673ffffffffffffffffffffffffffffffffffffffff1681526020019081526020016000206040518060400160405290816000820160009054906101000a90046fffffffffffffffffffffffffffffffff166fffffffffffffffffffffffffffffffff166fffffffffffffffffffffffffffffffff1681526020016000820160109054906101000a90046fffffffffffffffffffffffffffffffff166fffffffffffffffffffffffffffffffff166fffffffffffffffffffffffffffffffff1681525050905092915050565b60606040518060400160405280600481526020017f4645525400000000000000000000000000000000000000000000000000000000815250905090565b60026065541415611330576040517f08c379a000000000000000000000000000000000000000000000000000000000815260040180806020018281038252601f8152602001807f5265656e7472616e637947756172643a207265656e7472616e742063616c6c0081525060200191505060405180910390fd5b60026065819055506000611342610c74565b905080821115611350578091505b61135982612572565b73a0b86991c6218b36c1d19d4a2e9eb0ce3606eb4873ffffffffffffffffffffffffffffffffffffffff166323b872dd3373a9ba2c40b263843c04d344727b954a545c81d043856040518463ffffffff1660e01b81526004016113be93929190614518565b602060405180830381600087803b1580156113d857600080fd5b505af11580156113ec573d6000803e3d6000fd5b505050506040513d601f19601f820116820180604052508101906114109190613b72565b5050600160658190555050565b8173ffffffffffffffffffffffffffffffffffffffff1661143c611d9f565b73ffffffffffffffffffffffffffffffffffffffff1614156114a9576040517f08c379a0000000000000000000000000000000000000000000000000000000008152600401808060200182810382526029815260200180614d836029913960400191505060405180910390fd5b8060ca60006114b6611d9f565b73ffffffffffffffffffffffffffffffffffffffff1673ffffffffffffffffffffffffffffffffffffffff16815260200190815260200160002060008473ffffffffffffffffffffffffffffffffffffffff1673ffffffffffffffffffffffffffffffffffffffff16815260200190815260200160002060006101000a81548160ff0219169083151502179055508173ffffffffffffffffffffffffffffffffffffffff16611563611d9f565b73ffffffffffffffffffffffffffffffffffffffff167f17307eab39ab6107e8899845ad3d59bd9653f200f220920489ca2b5937696c318360405180821515815260200191505060405180910390a35050565b73c02aaa39b223fe8d0a0e5c4f27ead9083c756cc281565b600073b27308f9f90d607463bb33ea1bebb41c27ce5ab673ffffffffffffffffffffffffffffffffffffffff1663f7729d4373c02aaa39b223fe8d0a0e5c4f27ead9083c756cc273a0b86991c6218b36c1d19d4a2e9eb0ce3606eb486101f48660006040518663ffffffff1660e01b81526004016116509594939291906145b7565b602060405180830381600087803b15801561166a57600080fd5b505af115801561167e573d6000803e3d6000fd5b505050506040513d601f19601f820116820180604052508101906116a29190613c9c565b9050919050565b600063629e2480905090565b6060825167ffffffffffffffff811180156116cf57600080fd5b5060405190808252806020026020018201604052801561170957816020015b6116f6613519565b8152602001906001900390816116ee5790505b50905060005b835181101561176a5761174884828151811061172757fe5b602002602001015184838151811061173b57fe5b602002602001015161110b565b82828151811061175457fe5b602002602001018190525080600101905061170f565b5092915050565b600060ca60008473ffffffffffffffffffffffffffffffffffffffff1673ffffffffffffffffffffffffffffffffffffffff16815260200190815260200160002060008373ffffffffffffffffffffffffffffffffffffffff1673ffffffffffffffffffffffffffffffffffffffff16815260200190815260200160002060009054906101000a900460ff16905092915050565b600073ffffffffffffffffffffffffffffffffffffffff168473ffffffffffffffffffffffffffffffffffffffff161415611875576040517f08c379a000000000000000000000000000000000000000000000000000000000815260040161186c906147e5565b60405180910390fd5b61187d611d9f565b73ffffffffffffffffffffffffffffffffffffffff168573ffffffffffffffffffffffffffffffffffffffff1614806118c357506118c2856118bd611d9f565b611771565b5b611902576040517f08c379a00000000000000000000000000000000000000000000000000000000081526004016118f9906147a5565b60405180910390fd5b600061190c611d9f565b905061192c81878761191d88612610565b61192688612610565b87611eee565b61193886868686611ef6565b8473ffffffffffffffffffffffffffffffffffffffff168673ffffffffffffffffffffffffffffffffffffffff168273ffffffffffffffffffffffffffffffffffffffff167fc3d58168c5ae7397731d063d5bbf3d657854427343f4c083240f7aacaa2d0f6287876040516119ae9291906148f7565b60405180910390a46119c4818787878787612681565b505050505050565b6119d4611d9f565b73ffffffffffffffffffffffffffffffffffffffff166119f2610f33565b73ffffffffffffffffffffffffffffffffffffffff1614611a7b576040517f08c379a00000000000000000000000000000000000000000000000000000000081526004018080602001828103825260208152602001807f4f776e61626c653a2063616c6c6572206973206e6f7420746865206f776e657281525060200191505060405180910390fd5b600073ffffffffffffffffffffffffffffffffffffffff168173ffffffffffffffffffffffffffffffffffffffff161415611b01576040517f08c379a0000000000000000000000000000000000000000000000000000000008152600401808060200182810382526026815260200180614d2f6026913960400191505060405180910390fd5b8073ffffffffffffffffffffffffffffffffffffffff16603360009054906101000a900473ffffffffffffffffffffffffffffffffffffffff1673ffffffffffffffffffffffffffffffffffffffff167f8be0079c531659141344cd1fd0a4f28419497f9722a3daafe3b4186f6b6457e060405160405180910390a380603360006101000a81548173ffffffffffffffffffffffffffffffffffffffff021916908373ffffffffffffffffffffffffffffffffffffffff16021790555050565b600060019054906101000a900460ff1680611be05750611bdf612851565b5b80611bf6575060008054906101000a900460ff16155b611c4b576040517f08c379a000000000000000000000000000000000000000000000000000000000815260040180806020018281038252602e815260200180614d55602e913960400191505060405180910390fd5b60008060019054906101000a900460ff161590508015611c9b576001600060016101000a81548160ff02191690831515021790555060016000806101000a81548160ff0219169083151502179055505b73c02aaa39b223fe8d0a0e5c4f27ead9083c756cc273ffffffffffffffffffffffffffffffffffffffff1663095ea7b373e592427a0aece92de3edee1f18e0157c058615647fffffffffffffffffffffffffffffffffffffffffffffffffffffffffffffffff6040518363ffffffff1660e01b8152600401611d1e929190614664565b602060405180830381600087803b158015611d3857600080fd5b505af1158015611d4c573d6000803e3d6000fd5b505050506040513d601f19601f82011682018060405250810190611d709190613b72565b50611d7a82612862565b8015611d9b5760008060016101000a81548160ff0219169083151502179055505b5050565b600033905090565b60606000821415611def576040518060400160405280600181526020017f30000000000000000000000000000000000000000000000000000000000000008152509050611ee9565b600082905060005b60008214611e19578080600101915050600a8281611e1157fe5b049150611df7565b60008167ffffffffffffffff81118015611e3257600080fd5b506040519080825280601f01601f191660200182016040528015611e655781602001600182028036833780820191505090505b50905060006001830390508593505b60008414611ee157600a8481611e8657fe5b0660300160f81b82828060019003935081518110611ea057fe5b60200101907effffffffffffffffffffffffffffffffffffffffffffffffffffffffffffff1916908160001a905350600a8481611ed957fe5b049350611e74565b819450505050505b919050565b505050505050565b6000819050600073ffffffffffffffffffffffffffffffffffffffff168573ffffffffffffffffffffffffffffffffffffffff161461208657600060fb600085815260200190815260200160002060008773ffffffffffffffffffffffffffffffffffffffff1673ffffffffffffffffffffffffffffffffffffffff16815260200190815260200160002060000160009054906101000a90046fffffffffffffffffffffffffffffffff16905082816fffffffffffffffffffffffffffffffff161015611ff8576040517f08c379a0000000000000000000000000000000000000000000000000000000008152600401611fef90614825565b60405180910390fd5b81810360fb600086815260200190815260200160002060008873ffffffffffffffffffffffffffffffffffffffff1673ffffffffffffffffffffffffffffffffffffffff16815260200190815260200160002060000160006101000a8154816fffffffffffffffffffffffffffffffff02191690836fffffffffffffffffffffffffffffffff160217905550505b61211a8160fb600086815260200190815260200160002060008773ffffffffffffffffffffffffffffffffffffffff1673ffffffffffffffffffffffffffffffffffffffff16815260200190815260200160002060000160009054906101000a90046fffffffffffffffffffffffffffffffff166fffffffffffffffffffffffffffffffff1661287e90919063ffffffff16565b60fb600085815260200190815260200160002060008673ffffffffffffffffffffffffffffffffffffffff1673ffffffffffffffffffffffffffffffffffffffff16815260200190815260200160002060000160006101000a8154816fffffffffffffffffffffffffffffffff02191690836fffffffffffffffffffffffffffffffff1602179055505050505050565b6121c98473ffffffffffffffffffffffffffffffffffffffff1661292a565b15612372578373ffffffffffffffffffffffffffffffffffffffff1663bc197c8187878686866040518663ffffffff1660e01b815260040161220f95949392919061454f565b602060405180830381600087803b15801561222957600080fd5b505af192505050801561225a57506040513d601f19601f820116820180604052508101906122579190613bc4565b60015b6122e957612266614c1c565b8061227157506122ae565b806040517f08c379a00000000000000000000000000000000000000000000000000000000081526004016122a59190614723565b60405180910390fd5b6040517f08c379a00000000000000000000000000000000000000000000000000000000081526004016122e090614745565b60405180910390fd5b63bc197c8160e01b7bffffffffffffffffffffffffffffffffffffffffffffffffffffffff1916817bffffffffffffffffffffffffffffffffffffffffffffffffffffffff191614612370576040517f08c379a000000000000000000000000000000000000000000000000000000000815260040161236790614765565b60405180910390fd5b505b505050505050565b600073c02aaa39b223fe8d0a0e5c4f27ead9083c756cc273ffffffffffffffffffffffffffffffffffffffff1663d0e30db0346040518263ffffffff1660e01b81526004016000604051808303818588803b1580156123d857600080fd5b505af11580156123ec573d6000803e3d6000fd5b5050505050600060405180610100016040528073c02aaa39b223fe8d0a0e5c4f27ead9083c756cc273ffffffffffffffffffffffffffffffffffffffff16815260200173a0b86991c6218b36c1d19d4a2e9eb0ce3606eb4873ffffffffffffffffffffffffffffffffffffffff1681526020016101f462ffffff16815260200173a9ba2c40b263843c04d344727b954a545c81d04373ffffffffffffffffffffffffffffffffffffffff168152602001428152602001348152602001848152602001600073ffffffffffffffffffffffffffffffffffffffff16815250905073e592427a0aece92de3edee1f18e0157c0586156473ffffffffffffffffffffffffffffffffffffffff1663414bf389826040518263ffffffff1660e01b815260040161251891906148c0565b602060405180830381600087803b15801561253257600080fd5b505af1158015612546573d6000803e3d6000fd5b505050506040513d601f19601f8201168201806040525081019061256a9190613c9c565b915050919050565b61257a61090c565b6125b9576040517f08c379a00000000000000000000000000000000000000000000000000000000081526004016125b0906147c5565b60405180910390fd5b61260d336125c561091e565b620f424084816125d157fe5b046040518060400160405280600181526020017f300000000000000000000000000000000000000000000000000000000000000081525061293d565b50565b60606000600167ffffffffffffffff8111801561262c57600080fd5b5060405190808252806020026020018201604052801561265b5781602001602082028036833780820191505090505b509050828160008151811061266c57fe5b60200260200101818152505080915050919050565b6126a08473ffffffffffffffffffffffffffffffffffffffff1661292a565b15612849578373ffffffffffffffffffffffffffffffffffffffff1663f23a6e6187878686866040518663ffffffff1660e01b81526004016126e695949392919061460a565b602060405180830381600087803b15801561270057600080fd5b505af192505050801561273157506040513d601f19601f8201168201806040525081019061272e9190613bc4565b60015b6127c05761273d614c1c565b806127485750612785565b806040517f08c379a000000000000000000000000000000000000000000000000000000000815260040161277c9190614723565b60405180910390fd5b6040517f08c379a00000000000000000000000000000000000000000000000000000000081526004016127b790614745565b60405180910390fd5b63f23a6e6160e01b7bffffffffffffffffffffffffffffffffffffffffffffffffffffffff1916817bffffffffffffffffffffffffffffffffffffffffffffffffffffffff191614612847576040517f08c379a000000000000000000000000000000000000000000000000000000000815260040161283e90614765565b60405180910390fd5b505b505050505050565b600061285c3061292a565b15905090565b61286a612a5b565b61287381612b69565b61287b612c81565b50565b6000808284019050836fffffffffffffffffffffffffffffffff16816fffffffffffffffffffffffffffffffff161015612920576040517f08c379a000000000000000000000000000000000000000000000000000000000815260040180806020018281038252601b8152602001807f536166654d6174683a206164646974696f6e206f766572666c6f77000000000081525060200191505060405180910390fd5b8091505092915050565b600080823b905060008111915050919050565b600073ffffffffffffffffffffffffffffffffffffffff168473ffffffffffffffffffffffffffffffffffffffff1614156129ad576040517f08c379a00000000000000000000000000000000000000000000000000000000081526004016129a490614885565b60405180910390fd5b60006129b7611d9f565b90506129c66000868686611ef6565b8473ffffffffffffffffffffffffffffffffffffffff16600073ffffffffffffffffffffffffffffffffffffffff168273ffffffffffffffffffffffffffffffffffffffff167fc3d58168c5ae7397731d063d5bbf3d657854427343f4c083240f7aacaa2d0f628787604051612a3d9291906148f7565b60405180910390a4612a5481600087878787612681565b5050505050565b600060019054906101000a900460ff1680612a7a5750612a79612851565b5b80612a90575060008054906101000a900460ff16155b612ae5576040517f08c379a000000000000000000000000000000000000000000000000000000000815260040180806020018281038252602e815260200180614d55602e913960400191505060405180910390fd5b60008060019054906101000a900460ff161590508015612b35576001600060016101000a81548160ff02191690831515021790555060016000806101000a81548160ff0219169083151502179055505b612b3d612d87565b612b45612e85565b8015612b665760008060016101000a81548160ff0219169083151502179055505b50565b600060019054906101000a900460ff1680612b885750612b87612851565b5b80612b9e575060008054906101000a900460ff16155b612bf3576040517f08c379a000000000000000000000000000000000000000000000000000000000815260040180806020018281038252602e815260200180614d55602e913960400191505060405180910390fd5b60008060019054906101000a900460ff161590508015612c43576001600060016101000a81548160ff02191690831515021790555060016000806101000a81548160ff0219169083151502179055505b612c4b612d87565b612c5361302c565b612c5c8261313a565b8015612c7d5760008060016101000a81548160ff0219169083151502179055505b5050565b600060019054906101000a900460ff1680612ca05750612c9f612851565b5b80612cb6575060008054906101000a900460ff16155b612d0b576040517f08c379a000000000000000000000000000000000000000000000000000000000815260040180806020018281038252602e815260200180614d55602e913960400191505060405180910390fd5b60008060019054906101000a900460ff161590508015612d5b576001600060016101000a81548160ff02191690831515021790555060016000806101000a81548160ff0219169083151502179055505b612d63613262565b8015612d845760008060016101000a81548160ff0219169083151502179055505b50565b600060019054906101000a900460ff1680612da65750612da5612851565b5b80612dbc575060008054906101000a900460ff16155b612e11576040517f08c379a000000000000000000000000000000000000000000000000000000000815260040180806020018281038252602e815260200180614d55602e913960400191505060405180910390fd5b60008060019054906101000a900460ff161590508015612e61576001600060016101000a81548160ff02191690831515021790555060016000806101000a81548160ff0219169083151502179055505b8015612e825760008060016101000a81548160ff0219169083151502179055505b50565b600060019054906101000a900460ff1680612ea45750612ea3612851565b5b80612eba575060008054906101000a900460ff16155b612f0f576040517f08c379a000000000000000000000000000000000000000000000000000000000815260040180806020018281038252602e815260200180614d55602e913960400191505060405180910390fd5b60008060019054906101000a900460ff161590508015612f5f576001600060016101000a81548160ff02191690831515021790555060016000806101000a81548160ff0219169083151502179055505b6000612f69611d9f565b905080603360006101000a81548173ffffffffffffffffffffffffffffffffffffffff021916908373ffffffffffffffffffffffffffffffffffffffff1602179055508073ffffffffffffffffffffffffffffffffffffffff16600073ffffffffffffffffffffffffffffffffffffffff167f8be0079c531659141344cd1fd0a4f28419497f9722a3daafe3b4186f6b6457e060405160405180910390a35080156130295760008060016101000a81548160ff0219169083151502179055505b50565b600060019054906101000a900460ff168061304b575061304a612851565b5b80613061575060008054906101000a900460ff16155b6130b6576040517f08c379a000000000000000000000000000000000000000000000000000000000815260040180806020018281038252602e815260200180614d55602e913960400191505060405180910390fd5b60008060019054906101000a900460ff161590508015613106576001600060016101000a81548160ff02191690831515021790555060016000806101000a81548160ff0219169083151502179055505b6131166301ffc9a760e01b613368565b80156131375760008060016101000a81548160ff0219169083151502179055505b50565b600060019054906101000a900460ff16806131595750613158612851565b5b8061316f575060008054906101000a900460ff16155b6131c4576040517f08c379a000000000000000000000000000000000000000000000000000000000815260040180806020018281038252602e815260200180614d55602e913960400191505060405180910390fd5b60008060019054906101000a900460ff161590508015613214576001600060016101000a81548160ff02191690831515021790555060016000806101000a81548160ff0219169083151502179055505b61321d82613471565b61322d63d9b67a2660e01b613368565b61323d630e89341c60e01b613368565b801561325e5760008060016101000a81548160ff0219169083151502179055505b5050565b600060019054906101000a900460ff16806132815750613280612851565b5b80613297575060008054906101000a900460ff16155b6132ec576040517f08c379a000000000000000000000000000000000000000000000000000000000815260040180806020018281038252602e815260200180614d55602e913960400191505060405180910390fd5b60008060019054906101000a900460ff16159050801561333c576001600060016101000a81548160ff02191690831515021790555060016000806101000a81548160ff0219169083151502179055505b600160658190555080156133655760008060016101000a81548160ff0219169083151502179055505b50565b63ffffffff60e01b817bffffffffffffffffffffffffffffffffffffffffffffffffffffffff19161415613404576040517f08c379a000000000000000000000000000000000000000000000000000000000815260040180806020018281038252601c8152602001807f4552433136353a20696e76616c696420696e746572666163652069640000000081525060200191505060405180910390fd5b600160976000837bffffffffffffffffffffffffffffffffffffffffffffffffffffffff19167bffffffffffffffffffffffffffffffffffffffffffffffffffffffff1916815260200190815260200160002060006101000a81548160ff02191690831515021790555050565b8060cb9080519060200190613487929190613557565b5050565b828054600181600116156101000203166002900490600052602060002090601f0160209004810192826134c15760008555613508565b82601f106134da57803560ff1916838001178555613508565b82800160010185558215613508579182015b828111156135075782358255916020019190600101906134ec565b5b50905061351591906135e5565b5090565b604051806040016040528060006fffffffffffffffffffffffffffffffff16815260200160006fffffffffffffffffffffffffffffffff1681525090565b828054600181600116156101000203166002900490600052602060002090601f01602090048101928261358d57600085556135d4565b82601f106135a657805160ff19168380011785556135d4565b828001600101855582156135d4579182015b828111156135d35782518255916020019190600101906135b8565b5b5090506135e191906135e5565b5090565b5b808211156135fe5760008160009055506001016135e6565b5090565b600061361561361084614951565b614920565b9050808382526020820190508285602086028201111561363457600080fd5b60005b85811015613664578161364a8882613756565b845260208401935060208301925050600181019050613637565b5050509392505050565b600061368161367c8461497d565b614920565b905080838252602082019050828560208602820111156136a057600080fd5b60005b858110156136d057816136b688826138b1565b8452602084019350602083019250506001810190506136a3565b5050509392505050565b60006136ed6136e8846149a9565b614920565b90508281526020810184848401111561370557600080fd5b613710848285614bba565b509392505050565b600061372b613726846149d9565b614920565b90508281526020810184848401111561374357600080fd5b61374e848285614bba565b509392505050565b60008135905061376581614cd2565b92915050565b600082601f83011261377c57600080fd5b813561378c848260208601613602565b91505092915050565b600082601f8301126137a657600080fd5b81356137b684826020860161366e565b91505092915050565b6000813590506137ce81614ce9565b92915050565b6000815190506137e381614ce9565b92915050565b6000813590506137f881614d00565b92915050565b60008151905061380d81614d00565b92915050565b600082601f83011261382457600080fd5b81356138348482602086016136da565b91505092915050565b60008083601f84011261384f57600080fd5b8235905067ffffffffffffffff81111561386857600080fd5b60208301915083600182028301111561388057600080fd5b9250929050565b600082601f83011261389857600080fd5b81356138a8848260208601613718565b91505092915050565b6000813590506138c081614d17565b92915050565b6000815190506138d581614d17565b92915050565b6000602082840312156138ed57600080fd5b60006138fb84828501613756565b91505092915050565b6000806040838503121561391757600080fd5b600061392585828601613756565b925050602061393685828601613756565b9150509250929050565b600080600080600060a0868803121561395857600080fd5b600061396688828901613756565b955050602061397788828901613756565b945050604086013567ffffffffffffffff81111561399457600080fd5b6139a088828901613795565b935050606086013567ffffffffffffffff8111156139bd57600080fd5b6139c988828901613795565b925050608086013567ffffffffffffffff8111156139e657600080fd5b6139f288828901613813565b9150509295509295909350565b600080600080600060a08688031215613a1757600080fd5b6000613a2588828901613756565b9550506020613a3688828901613756565b9450506040613a47888289016138b1565b9350506060613a58888289016138b1565b925050608086013567ffffffffffffffff811115613a7557600080fd5b613a8188828901613813565b9150509295509295909350565b60008060408385031215613aa157600080fd5b6000613aaf85828601613756565b9250506020613ac0858286016137bf565b9150509250929050565b60008060408385031215613add57600080fd5b6000613aeb85828601613756565b9250506020613afc858286016138b1565b9150509250929050565b60008060408385031215613b1957600080fd5b600083013567ffffffffffffffff811115613b3357600080fd5b613b3f8582860161376b565b925050602083013567ffffffffffffffff811115613b5c57600080fd5b613b6885828601613795565b9150509250929050565b600060208284031215613b8457600080fd5b6000613b92848285016137d4565b91505092915050565b600060208284031215613bad57600080fd5b6000613bbb848285016137e9565b91505092915050565b600060208284031215613bd657600080fd5b6000613be4848285016137fe565b91505092915050565b60008060208385031215613c0057600080fd5b600083013567ffffffffffffffff811115613c1a57600080fd5b613c268582860161383d565b92509250509250929050565b600060208284031215613c4457600080fd5b600082013567ffffffffffffffff811115613c5e57600080fd5b613c6a84828501613887565b91505092915050565b600060208284031215613c8557600080fd5b6000613c93848285016138b1565b91505092915050565b600060208284031215613cae57600080fd5b6000613cbc848285016138c6565b91505092915050565b60008060408385031215613cd857600080fd5b6000613ce6858286016138b1565b9250506020613cf7858286016138b1565b9150509250929050565b6000613d0d838361437f565b60408301905092915050565b6000613d2583836144bb565b60208301905092915050565b613d3a81614b72565b82525050565b613d4981614ad3565b82525050565b613d5881614ad3565b82525050565b6000613d6982614a3e565b613d738185614a84565b9350613d7e83614a09565b8060005b83811015613daf578151613d968882613d01565b9750613da183614a6a565b925050600181019050613d82565b5085935050505092915050565b6000613dc782614a49565b613dd18185614a95565b9350613ddc83614a19565b8060005b83811015613e0d578151613df48882613d19565b9750613dff83614a77565b925050600181019050613de0565b5085935050505092915050565b613e2381614ae5565b82525050565b6000613e3482614a54565b613e3e8185614aa6565b9350613e4e818560208601614bc9565b613e5781614bfe565b840191505092915050565b613e6b81614b84565b82525050565b6000613e7c82614a5f565b613e868185614ab7565b9350613e96818560208601614bc9565b613e9f81614bfe565b840191505092915050565b6000613eb582614a5f565b613ebf8185614ac8565b9350613ecf818560208601614bc9565b80840191505092915050565b600081546001811660008114613ef85760018114613f1d57613f61565b607f6002830416613f098187614ac8565b955060ff1983168652808601935050613f61565b60028204613f2b8187614ac8565b9550613f3685614a29565b60005b82811015613f5857815481890152600182019150602081019050613f39565b82880195505050505b505092915050565b6000613f76603483614ab7565b91507f455243313135353a207472616e7366657220746f206e6f6e204552433131353560008301527f526563656976657220696d706c656d656e7465720000000000000000000000006020830152604082019050919050565b6000613fdc602883614ab7565b91507f455243313135353a204552433131353552656365697665722072656a6563746560008301527f6420746f6b656e730000000000000000000000000000000000000000000000006020830152604082019050919050565b6000614042602b83614ab7565b91507f455243313135353a2062616c616e636520717565727920666f7220746865207a60008301527f65726f20616464726573730000000000000000000000000000000000000000006020830152604082019050919050565b60006140a8602983614ab7565b91507f455243313135353a2063616c6c6572206973206e6f74206f776e6572206e6f7260008301527f20617070726f76656400000000000000000000000000000000000000000000006020830152604082019050919050565b600061410e601783614ab7565b91507f46657274696c697a65723a204e6f7420737461727465640000000000000000006000830152602082019050919050565b600061414e602583614ab7565b91507f455243313135353a207472616e7366657220746f20746865207a65726f20616460008301527f64726573730000000000000000000000000000000000000000000000000000006020830152604082019050919050565b60006141b4603283614ab7565b91507f455243313135353a207472616e736665722063616c6c6572206973206e6f742060008301527f6f776e6572206e6f7220617070726f76656400000000000000000000000000006020830152604082019050919050565b600061421a602a83614ab7565b91507f455243313135353a20696e73756666696369656e742062616c616e636520666f60008301527f72207472616e73666572000000000000000000000000000000000000000000006020830152604082019050919050565b6000614280602083614ab7565b91507f46657274696c697a65723a204e6f7420656e6f7567682072656d61696e696e676000830152602082019050919050565b60006142c0602883614ab7565b91507f455243313135353a2069647320616e6420616d6f756e7473206c656e6774682060008301527f6d69736d617463680000000000000000000000000000000000000000000000006020830152604082019050919050565b6000614326602183614ab7565b91507f455243313135353a206d696e7420746f20746865207a65726f2061646472657360008301527f73000000000000000000000000000000000000000000000000000000000000006020830152604082019050919050565b604082016000820151614395600085018261447f565b5060208201516143a8602085018261447f565b50505050565b6040820160008201516143c4600085018261447f565b5060208201516143d7602085018261447f565b50505050565b610100820160008201516143f46000850182613d40565b5060208201516144076020850182613d40565b50604082015161441a604085018261449d565b50606082015161442d6060850182613d40565b50608082015161444060808501826144bb565b5060a082015161445360a08501826144bb565b5060c082015161446660c08501826144bb565b5060e082015161447960e085018261448e565b50505050565b61448881614b1d565b82525050565b61449781614b39565b82525050565b6144a681614b59565b82525050565b6144b581614b59565b82525050565b6144c481614b68565b82525050565b6144d381614b68565b82525050565b60006144e58285613edb565b91506144f18284613eaa565b91508190509392505050565b60006020820190506145126000830184613d4f565b92915050565b600060608201905061452d6000830186613d31565b61453a6020830185613d4f565b61454760408301846144ca565b949350505050565b600060a0820190506145646000830188613d4f565b6145716020830187613d4f565b81810360408301526145838186613dbc565b905081810360608301526145978185613dbc565b905081810360808301526145ab8184613e29565b90509695505050505050565b600060a0820190506145cc6000830188613d4f565b6145d96020830187613d4f565b6145e660408301866144ac565b6145f360608301856144ca565b6146006080830184613e62565b9695505050505050565b600060a08201905061461f6000830188613d4f565b61462c6020830187613d4f565b61463960408301866144ca565b61464660608301856144ca565b81810360808301526146588184613e29565b90509695505050505050565b60006040820190506146796000830185613d4f565b61468660208301846144ca565b9392505050565b600060208201905081810360008301526146a78184613d5e565b905092915050565b600060208201905081810360008301526146c98184613dbc565b905092915050565b600060408201905081810360008301526146eb8185613dbc565b905081810360208301526146ff8184613dbc565b90509392505050565b600060208201905061471d6000830184613e1a565b92915050565b6000602082019050818103600083015261473d8184613e71565b905092915050565b6000602082019050818103600083015261475e81613f69565b9050919050565b6000602082019050818103600083015261477e81613fcf565b9050919050565b6000602082019050818103600083015261479e81614035565b9050919050565b600060208201905081810360008301526147be8161409b565b9050919050565b600060208201905081810360008301526147de81614101565b9050919050565b600060208201905081810360008301526147fe81614141565b9050919050565b6000602082019050818103600083015261481e816141a7565b9050919050565b6000602082019050818103600083015261483e8161420d565b9050919050565b6000602082019050818103600083015261485e81614273565b9050919050565b6000602082019050818103600083015261487e816142b3565b9050919050565b6000602082019050818103600083015261489e81614319565b9050919050565b60006040820190506148ba60008301846143ae565b92915050565b6000610100820190506148d660008301846143dd565b92915050565b60006020820190506148f160008301846144ca565b92915050565b600060408201905061490c60008301856144ca565b61491960208301846144ca565b9392505050565b6000604051905081810181811067ffffffffffffffff8211171561494757614946614bfc565b5b8060405250919050565b600067ffffffffffffffff82111561496c5761496b614bfc565b5b602082029050602081019050919050565b600067ffffffffffffffff82111561499857614997614bfc565b5b602082029050602081019050919050565b600067ffffffffffffffff8211156149c4576149c3614bfc565b5b601f19601f8301169050602081019050919050565b600067ffffffffffffffff8211156149f4576149f3614bfc565b5b601f19601f8301169050602081019050919050565b6000819050602082019050919050565b6000819050602082019050919050565b60008190508160005260206000209050919050565b600081519050919050565b600081519050919050565b600081519050919050565b600081519050919050565b6000602082019050919050565b6000602082019050919050565b600082825260208201905092915050565b600082825260208201905092915050565b600082825260208201905092915050565b600082825260208201905092915050565b600081905092915050565b6000614ade82614b39565b9050919050565b60008115159050919050565b60007fffffffff0000000000000000000000000000000000000000000000000000000082169050919050565b60006fffffffffffffffffffffffffffffffff82169050919050565b600073ffffffffffffffffffffffffffffffffffffffff82169050919050565b600062ffffff82169050919050565b6000819050919050565b6000614b7d82614b96565b9050919050565b6000614b8f82614b39565b9050919050565b6000614ba182614ba8565b9050919050565b6000614bb382614b39565b9050919050565b82818337600083830152505050565b60005b83811015614be7578082015181840152602081019050614bcc565b83811115614bf6576000848401525b50505050565bfe5b6000601f19601f8301169050919050565b60008160e01c9050919050565b600060443d1015614c2c57614ccf565b60046000803e614c3d600051614c0f565b6308c379a08114614c4e5750614ccf565b60405160043d036004823e80513d602482011167ffffffffffffffff82111715614c7a57505050614ccf565b808201805167ffffffffffffffff811115614c99575050505050614ccf565b8060208301013d8501811115614cb457505050505050614ccf565b614cbd82614bfe565b60208401016040528296505050505050505b90565b614cdb81614ad3565b8114614ce657600080fd5b50565b614cf281614ae5565b8114614cfd57600080fd5b50565b614d0981614af1565b8114614d1457600080fd5b50565b614d2081614b68565b8114614d2b57600080fd5b5056fe4f776e61626c653a206e6577206f776e657220697320746865207a65726f2061646472657373496e697469616c697a61626c653a20636f6e747261637420697320616c726561647920696e697469616c697a6564455243313135353a2073657474696e6720617070726f76616c2073746174757320666f722073656c66455243313135353a206163636f756e747320616e6420696473206c656e677468206d69736d61746368a2646970667358221220819c41cadc660871aa644e4fc8ecc28cae57c4021e87726746b4e5f73b75175864736f6c63430007060033",
  "linkReferences": {},
  "deployedLinkReferences": {}
}