{
  "_format": "hh-sol-artifact-1",
  "contractName": "Oracle",
  "sourceName": "contracts/farm/facets/SeasonFacet/Oracle.sol",
  "abi": [
    {
      "anonymous": false,
      "inputs": [
        {
          "indexed": true,
          "internalType": "uint32",
          "name": "season",
          "type": "uint32"
        },
        {
          "indexed": false,
          "internalType": "int256",
          "name": "deltaB",
          "type": "int256"
        },
        {
          "indexed": false,
          "internalType": "uint256[2]",
          "name": "balances",
          "type": "uint256[2]"
        }
      ],
      "name": "MetapoolOracle",
      "type": "event"
    },
    {
      "inputs": [
        {
          "internalType": "address",
          "name": "pool",
          "type": "address"
        }
      ],
      "name": "poolDeltaB",
      "outputs": [
        {
          "internalType": "int256",
          "name": "deltaB",
          "type": "int256"
        }
      ],
      "stateMutability": "view",
      "type": "function"
    },
    {
      "inputs": [],
      "name": "totalDeltaB",
      "outputs": [
        {
          "internalType": "int256",
          "name": "deltaB",
          "type": "int256"
        }
      ],
      "stateMutability": "view",
      "type": "function"
    }
  ],
  "bytecode": "0x608060405234801561001057600080fd5b50610f85806100206000396000f3fe608060405234801561001057600080fd5b50600436106100365760003560e01c806306c499d81461003b578063471bcdbe14610059575b600080fd5b610043610089565b6040516100509190610df5565b60405180910390f35b610073600480360381019061006e9190610ceb565b610098565b6040516100809190610df5565b60405180910390f35b600061009361012b565b905090565b60006100a26101e3565b73ffffffffffffffffffffffffffffffffffffffff168273ffffffffffffffffffffffffffffffffffffffff1614156100e4576100dd61012b565b9050610126565b6000610125576040517f08c379a000000000000000000000000000000000000000000000000000000000815260040161011c90610e10565b60405180910390fd5b5b919050565b6000806101366101ff565b90508060140160000160009054906101000a900460ff16156101da57600061015c610204565b50905060006101a88360140160000160019054906101000a900463ffffffff168460030160000160009054906101000a900463ffffffff1663ffffffff1661025690919063ffffffff16565b63ffffffff169050606481136101be57806101c1565b60645b90506064818302816101cf57fe5b0593505050506101e0565b60009150505b90565b600073c9c32cd16bf7efb85ff14e0c8603cc90f6f2ee49905090565b600090565b600061020e610c15565b610216610c15565b61021e6102e5565b8093508192505050600061023182610659565b905061024e8260006002811061024357fe5b602002015182610679565b935050509091565b60008263ffffffff168263ffffffff1611156102da576040517f08c379a000000000000000000000000000000000000000000000000000000000815260040180806020018281038252601e8152602001807f536166654d6174683a207375627472616374696f6e206f766572666c6f77000081525060200191505060405180910390fd5b818303905092915050565b6102ed610c15565b6102f5610c15565b6102fd6101e3565b73ffffffffffffffffffffffffffffffffffffffff16634469e30e6040518163ffffffff1660e01b8152600401604080518083038186803b15801561034157600080fd5b505afa158015610355573d6000803e3d6000fd5b505050506040513d601f19601f820116820180604052508101906103799190610d14565b90506103836101e3565b73ffffffffffffffffffffffffffffffffffffffff166314f059796040518163ffffffff1660e01b8152600401604080518083038186803b1580156103c757600080fd5b505afa1580156103db573d6000803e3d6000fd5b505050506040513d601f19601f820116820180604052508101906103ff9190610d14565b9150600061040b6101e3565b73ffffffffffffffffffffffffffffffffffffffff166363543f066040518163ffffffff1660e01b815260040160206040518083038186803b15801561045057600080fd5b505afa158015610464573d6000803e3d6000fd5b505050506040513d601f19601f820116820180604052508101906104889190610d3d565b90506104e36104c36104a383426106a390919063ffffffff16565b856000600281106104b057fe5b602002015161072690919063ffffffff16565b836000600281106104d057fe5b60200201516107ac90919063ffffffff16565b826000600281106104f057fe5b60200201818152505061055261053261051283426106a390919063ffffffff16565b8560016002811061051f57fe5b602002015161072690919063ffffffff16565b8360016002811061053f57fe5b60200201516107ac90919063ffffffff16565b8260016002811061055f57fe5b60200201818152505060006105726101ff565b9050600081601401905060006105958260030154426106a390919063ffffffff16565b90506105de816105d0846001016000600281106105ae57fe5b0154886000600281106105bd57fe5b60200201516106a390919063ffffffff16565b61083490919063ffffffff16565b866000600281106105eb57fe5b60200201818152505061063b8161062d8460010160016002811061060b57fe5b01548860016002811061061a57fe5b60200201516106a390919063ffffffff16565b61083490919063ffffffff16565b8660016002811061064857fe5b602002018181525050505050509091565b60006106726106666101e3565b8364e8d4a510006108bd565b9050919050565b60008064e8d4a510006002848161068c57fe5b048161069457fe5b04905083810391505092915050565b60008282111561071b576040517f08c379a000000000000000000000000000000000000000000000000000000000815260040180806020018281038252601e8152602001807f536166654d6174683a207375627472616374696f6e206f766572666c6f77000081525060200191505060405180910390fd5b818303905092915050565b60008083141561073957600090506107a6565b600082840290508284828161074a57fe5b04146107a1576040517f08c379a0000000000000000000000000000000000000000000000000000000008152600401808060200182810382526021815260200180610f2f6021913960400191505060405180910390fd5b809150505b92915050565b60008082840190508381101561082a576040517f08c379a000000000000000000000000000000000000000000000000000000000815260040180806020018281038252601b8152602001807f536166654d6174683a206164646974696f6e206f766572666c6f77000000000081525060200191505060405180910390fd5b8091505092915050565b60008082116108ab576040517f08c379a000000000000000000000000000000000000000000000000000000000815260040180806020018281038252601a8152602001807f536166654d6174683a206469766973696f6e206279207a65726f00000000000081525060200191505060405180910390fd5b8183816108b457fe5b04905092915050565b600061094f6108cc8484610958565b8573ffffffffffffffffffffffffffffffffffffffff166376a2f0f06040518163ffffffff1660e01b815260040160206040518083038186803b15801561091257600080fd5b505afa158015610926573d6000803e3d6000fd5b505050506040513d601f19601f8201168201806040525081019061094a9190610d3d565b6109f7565b90509392505050565b610960610c15565b6109ef838361096d610b5c565b73ffffffffffffffffffffffffffffffffffffffff1663bb7b8b806040518163ffffffff1660e01b815260040160206040518083038186803b1580156109b257600080fd5b505afa1580156109c6573d6000803e3d6000fd5b505050506040513d601f19601f820116820180604052508101906109ea9190610d3d565b610b78565b905092915050565b6000806000805b6002811015610a2757858160028110610a1357fe5b6020020151830192508060010190506109fe565b506000821415610a3c57600092505050610b56565b819250600060028502905060005b610100811015610b0c57600085905060005b6002811015610a91576002898260028110610a7357fe5b60200201510287830281610a8357fe5b049150806001019050610a5c565b5085935080600160020102606487606486030281610aab57fe5b04018660028302606488870281610abe57fe5b04010281610ac857fe5b0495508386118015610add5750600184870311155b15610aec575050505050610b56565b600186850311610b00575050505050610b56565b50806001019050610a4a565b506000610b4e576040517f08c379a0000000000000000000000000000000000000000000000000000000008152600401610b4590610e30565b60405180910390fd5b600093505050505b92915050565b600073bebc44782c7db0a1a60cb6fe97d0b483032ff1c7905090565b610b80610c15565b610ba48385600060028110610b9157fe5b602002015161072690919063ffffffff16565b81600060028110610bb157fe5b602002018181525050610bf8670de0b6b3a7640000610bea8487600160028110610bd757fe5b602002015161072690919063ffffffff16565b61083490919063ffffffff16565b81600160028110610c0557fe5b6020020181815250509392505050565b6040518060400160405280600290602082028036833780820191505090505090565b6000610c4a610c4584610e81565b610e50565b90508082856020860282011115610c6057600080fd5b60005b85811015610c905781610c768882610cd6565b845260208401935060208301925050600181019050610c63565b5050509392505050565b600081359050610ca981610f00565b92915050565b600082601f830112610cc057600080fd5b6002610ccd848285610c37565b91505092915050565b600081519050610ce581610f17565b92915050565b600060208284031215610cfd57600080fd5b6000610d0b84828501610c9a565b91505092915050565b600060408284031215610d2657600080fd5b6000610d3484828501610caf565b91505092915050565b600060208284031215610d4f57600080fd5b6000610d5d84828501610cd6565b91505092915050565b610d6f81610eca565b82525050565b6000610d82601a83610ea7565b91507f4f7261636c653a20506f6f6c206e6f7420737570706f727465640000000000006000830152602082019050919050565b6000610dc2601883610ea7565b91507f50726963653a20436f6e76657267656e63652066616c736500000000000000006000830152602082019050919050565b6000602082019050610e0a6000830184610d66565b92915050565b60006020820190508181036000830152610e2981610d75565b9050919050565b60006020820190508181036000830152610e4981610db5565b9050919050565b6000604051905081810181811067ffffffffffffffff82111715610e7757610e76610efe565b5b8060405250919050565b600067ffffffffffffffff821115610e9c57610e9b610efe565b5b602082029050919050565b600082825260208201905092915050565b6000610ec382610ed4565b9050919050565b6000819050919050565b600073ffffffffffffffffffffffffffffffffffffffff82169050919050565b6000819050919050565bfe5b610f0981610eb8565b8114610f1457600080fd5b50565b610f2081610ef4565b8114610f2b57600080fd5b5056fe536166654d6174683a206d756c7469706c69636174696f6e206f766572666c6f77a2646970667358221220ca9b1e204c46f051684a36d7eab8b66a707e7343f69ca62d4cde3eb5857da38364736f6c63430007060033",
  "linkReferences": {},
  "deployedLinkReferences": {}
}