{
  "_format": "hh-sol-artifact-1",
  "contractName": "InitReplant",
  "sourceName": "contracts/farm/init/InitReplant.sol",
  "abi": [
    {
      "inputs": [
        {
          "internalType": "address",
          "name": "fertilizerImplementation",
          "type": "address"
        }
      ],
      "name": "init",
      "outputs": [],
      "stateMutability": "nonpayable",
      "type": "function"
    }
  ],
  "bytecode": "0x608060405234801561001057600080fd5b506103cd806100206000396000f3fe608060405234801561001057600080fd5b506004361061002b5760003560e01c806319ab453c14610030575b600080fd5b61004a6004803603810190610045919061027c565b61004c565b005b60008060030160000160046101000a81548163ffffffff021916908363ffffffff160217905550600160006049018190555060008060140160000160006101000a81548160ff0219169083151502179055506001600060030160000160009054906101000a900463ffffffff1601600060140160000160016101000a81548163ffffffff021916908363ffffffff1602179055506001600060030160000160086101000a81548160ff021916908360ff160217905550600080602201819055506138406000600301600101540160006003016001018190555061012d610213565b73ffffffffffffffffffffffffffffffffffffffff166399a88ec461015061022f565b836040518363ffffffff1660e01b815260040161016e9291906102f4565b600060405180830381600087803b15801561018857600080fd5b505af115801561019c573d6000803e3d6000fd5b505050506101a861024b565b73ffffffffffffffffffffffffffffffffffffffff166302fe53056040518163ffffffff1660e01b81526004016101de9061031d565b600060405180830381600087803b1580156101f857600080fd5b505af115801561020c573d6000803e3d6000fd5b5050505050565b600073fecb01359263c12aa9ed838f878a596f0064aa6e905090565b600073402c84de2ce49af88f5e2ef3710ff89bfed36cb6905090565b600073402c84de2ce49af88f5e2ef3710ff89bfed36cb6905090565b60008135905061027681610380565b92915050565b60006020828403121561028e57600080fd5b600061029c84828501610267565b91505092915050565b6102ae8161034e565b82525050565b60006102c160188361033d565b91507f68747470733a2f2f666572742e6265616e2e6d6f6e65792f00000000000000006000830152602082019050919050565b600060408201905061030960008301856102a5565b61031660208301846102a5565b9392505050565b60006020820190508181036000830152610336816102b4565b9050919050565b600082825260208201905092915050565b600061035982610360565b9050919050565b600073ffffffffffffffffffffffffffffffffffffffff82169050919050565b6103898161034e565b811461039457600080fd5b5056fea2646970667358221220ed69ea8dcb4e0c07c1d9ee7afaf47c7813766d97ea3ddca182aa6505161f6f2e64736f6c63430007060033",
  "linkReferences": {},
  "deployedLinkReferences": {}
}