{
  "_format": "hh-sol-artifact-1",
  "contractName": "BDVFacet",
  "sourceName": "contracts/farm/facets/BDVFacet.sol",
  "abi": [
    {
      "inputs": [
        {
          "internalType": "address",
          "name": "token",
          "type": "address"
        },
        {
          "internalType": "uint256",
          "name": "amount",
          "type": "uint256"
        }
      ],
      "name": "bdv",
      "outputs": [
        {
          "internalType": "uint256",
          "name": "",
          "type": "uint256"
        }
      ],
      "stateMutability": "view",
      "type": "function"
    },
    {
      "inputs": [
        {
          "internalType": "uint256",
          "name": "amount",
          "type": "uint256"
        }
      ],
      "name": "beanToBDV",
      "outputs": [
        {
          "internalType": "uint256",
          "name": "",
          "type": "uint256"
        }
      ],
      "stateMutability": "pure",
      "type": "function"
    },
    {
      "inputs": [
        {
          "internalType": "uint256",
          "name": "amount",
          "type": "uint256"
        }
      ],
      "name": "curveToBDV",
      "outputs": [
        {
          "internalType": "uint256",
          "name": "",
          "type": "uint256"
        }
      ],
      "stateMutability": "view",
      "type": "function"
    },
    {
      "inputs": [
        {
          "internalType": "uint256",
          "name": "amount",
          "type": "uint256"
        }
      ],
      "name": "unripeBeanToBDV",
      "outputs": [
        {
          "internalType": "uint256",
          "name": "",
          "type": "uint256"
        }
      ],
      "stateMutability": "view",
      "type": "function"
    },
    {
      "inputs": [
        {
          "internalType": "uint256",
          "name": "amount",
          "type": "uint256"
        }
      ],
      "name": "unripeLPToBDV",
      "outputs": [
        {
          "internalType": "uint256",
          "name": "",
          "type": "uint256"
        }
      ],
      "stateMutability": "view",
      "type": "function"
    }
  ],
  "bytecode": "0x608060405234801561001057600080fd5b506110f7806100206000396000f3fe608060405234801561001057600080fd5b50600436106100575760003560e01c80635a049a471461005c5780638c1e6f221461008c578063b0c22bb1146100bc578063c8cda2a0146100ec578063f984019b1461011c575b600080fd5b61007660048036038101906100719190610e90565b61014c565b6040516100839190610fb1565b60405180910390f35b6100a660048036038101906100a19190610e2b565b610156565b6040516100b39190610fb1565b60405180910390f35b6100d660048036038101906100d19190610e90565b6102c5565b6040516100e39190610fb1565b60405180910390f35b61010660048036038101906101019190610e90565b6102ed565b6040516101139190610fb1565b60405180910390f35b61013660048036038101906101319190610e90565b610307565b6040516101439190610fb1565b60405180910390f35b6000819050919050565b6000610160610319565b73ffffffffffffffffffffffffffffffffffffffff168373ffffffffffffffffffffffffffffffffffffffff1614156101a35761019c8261014c565b90506102bf565b6101ab610335565b73ffffffffffffffffffffffffffffffffffffffff168373ffffffffffffffffffffffffffffffffffffffff1614156101ee576101e782610307565b90506102bf565b6101f6610351565b73ffffffffffffffffffffffffffffffffffffffff168373ffffffffffffffffffffffffffffffffffffffff16141561023957610232826102ed565b90506102bf565b61024161036d565b73ffffffffffffffffffffffffffffffffffffffff168373ffffffffffffffffffffffffffffffffffffffff1614156102845761027d826102c5565b90506102bf565b6040517f08c379a00000000000000000000000000000000000000000000000000000000081526004016102b690610f71565b60405180910390fd5b92915050565b60006102d86102d261036d565b83610389565b91506102e382610485565b9150819050919050565b60006103006102fa610351565b83610389565b9050919050565b600061031282610485565b9050919050565b600073bea0000029ad1c77d3d5d23ba2d8893db9d1efab905090565b600073c9c32cd16bf7efb85ff14e0c8603cc90f6f2ee49905090565b6000731bea0050e63e05fbb5d8ba2f10cf5800b6224449905090565b6000731bea3ccd22f4ebd3d37d731ba31eeca95713716d905090565b600080610394610717565b905061047c8473ffffffffffffffffffffffffffffffffffffffff166318160ddd6040518163ffffffff1660e01b815260040160206040518083038186803b1580156103df57600080fd5b505afa1580156103f3573d6000803e3d6000fd5b505050506040513d601f19601f820116820180604052508101906104179190610eb9565b61046e858460400160008973ffffffffffffffffffffffffffffffffffffffff1673ffffffffffffffffffffffffffffffffffffffff1681526020019081526020016000206001015461071c90919063ffffffff16565b6107a290919063ffffffff16565b91505092915050565b600080610490610335565b73ffffffffffffffffffffffffffffffffffffffff1663d96c7fce6040518163ffffffff1660e01b8152600401604080518083038186803b1580156104d457600080fd5b505afa1580156104e8573d6000803e3d6000fd5b505050506040513d601f19601f8201168201806040525081019061050c9190610e67565b9050600061051861082b565b73ffffffffffffffffffffffffffffffffffffffff1663bb7b8b806040518163ffffffff1660e01b815260040160206040518083038186803b15801561055d57600080fd5b505afa158015610571573d6000803e3d6000fd5b505050506040513d601f19601f820116820180604052508101906105959190610eb9565b905060006105a88364e8d4a51000610847565b905060006105b461082b565b73ffffffffffffffffffffffffffffffffffffffff166376a2f0f06040518163ffffffff1660e01b815260040160206040518083038186803b1580156105f957600080fd5b505afa15801561060d573d6000803e3d6000fd5b505050506040513d601f19601f820116820180604052508101906106319190610eb9565b9050600061063f83836108e6565b9050600061065484848464e8d4a51000610a4b565b9050600085670de0b6b3a764000084028161066b57fe5b04905060006106a6826106988c8b60006002811061068557fe5b602002015161071c90919063ffffffff16565b6107a290919063ffffffff16565b905060006106f2846106e4856106d68f8c6001600281106106c357fe5b602002015161071c90919063ffffffff16565b6107a290919063ffffffff16565b6107a290919063ffffffff16565b90506107078183610a9d90919063ffffffff16565b9950505050505050505050919050565b600090565b60008083141561072f576000905061079c565b600082840290508284828161074057fe5b0414610797576040517f08c379a00000000000000000000000000000000000000000000000000000000081526004018080602001828103825260218152602001806110a16021913960400191505060405180910390fd5b809150505b92915050565b6000808211610819576040517f08c379a000000000000000000000000000000000000000000000000000000000815260040180806020018281038252601a8152602001807f536166654d6174683a206469766973696f6e206279207a65726f00000000000081525060200191505060405180910390fd5b81838161082257fe5b04905092915050565b600073c9c32cd16bf7efb85ff14e0c8603cc90f6f2ee49905090565b61084f610d40565b6108de838361085c610b25565b73ffffffffffffffffffffffffffffffffffffffff1663bb7b8b806040518163ffffffff1660e01b815260040160206040518083038186803b1580156108a157600080fd5b505afa1580156108b5573d6000803e3d6000fd5b505050506040513d601f19601f820116820180604052508101906108d99190610eb9565b610b41565b905092915050565b6000806000805b60028110156109165785816002811061090257fe5b6020020151830192508060010190506108ed565b50600082141561092b57600092505050610a45565b819250600060028502905060005b6101008110156109fb57600085905060005b600281101561098057600289826002811061096257fe5b6020020151028783028161097257fe5b04915080600101905061094b565b508593508060016002010260648760648603028161099a57fe5b040186600283026064888702816109ad57fe5b040102816109b757fe5b04955083861180156109cc5750600184870311155b156109db575050505050610a45565b6001868503116109ef575050505050610a45565b50806001019050610939565b506000610a3d576040517f08c379a0000000000000000000000000000000000000000000000000000000008152600401610a3490610f91565b60405180910390fd5b600093505050505b92915050565b6000808286600060028110610a5c57fe5b60200201510190506000610a7282888888610bde565b9050600060018289600160028110610a8657fe5b602002015103039050809350505050949350505050565b600080828401905083811015610b1b576040517f08c379a000000000000000000000000000000000000000000000000000000000815260040180806020018281038252601b8152602001807f536166654d6174683a206164646974696f6e206f766572666c6f77000000000081525060200191505060405180910390fd5b8091505092915050565b600073bebc44782c7db0a1a60cb6fe97d0b483032ff1c7905090565b610b49610d40565b610b6d8385600060028110610b5a57fe5b602002015161071c90919063ffffffff16565b81600060028110610b7a57fe5b602002018181525050610bc1670de0b6b3a7640000610bb38487600160028110610ba057fe5b602002015161071c90919063ffffffff16565b6107a290919063ffffffff16565b81600160028110610bce57fe5b6020020181815250509392505050565b600080600090506000806000859050600060028802905060005b6002811015610c5a576000811415610c12578a9450610c38565b60018114610c3257898160028110610c2657fe5b60200201519450610c37565b610c4f565b5b84860195506002850288840281610c4b57fe5b0492505b806001019050610bf8565b506002810260648884020281610c6c57fe5b0491506000816064890281610c7d57fe5b048601905087965060005b60ff811015610cef57879450888289600202010384898a020181610ca857fe5b0497508488118015610cbd5750600185890311155b15610cce5750505050505050610d38565b600188860311610ce45750505050505050610d38565b806001019050610c88565b506000610d31576040517f08c379a0000000000000000000000000000000000000000000000000000000008152600401610d2890610f91565b60405180910390fd5b5050505050505b949350505050565b6040518060400160405280600290602082028036833780820191505090505090565b6000610d75610d7084610ffd565b610fcc565b90508082856020860282011115610d8b57600080fd5b60005b85811015610dbb5781610da18882610e16565b845260208401935060208301925050600181019050610d8e565b5050509392505050565b600081359050610dd481611072565b92915050565b600082601f830112610deb57600080fd5b6002610df8848285610d62565b91505092915050565b600081359050610e1081611089565b92915050565b600081519050610e2581611089565b92915050565b60008060408385031215610e3e57600080fd5b6000610e4c85828601610dc5565b9250506020610e5d85828601610e01565b9150509250929050565b600060408284031215610e7957600080fd5b6000610e8784828501610dda565b91505092915050565b600060208284031215610ea257600080fd5b6000610eb084828501610e01565b91505092915050565b600060208284031215610ecb57600080fd5b6000610ed984828501610e16565b91505092915050565b6000610eef601a83611023565b91507f4244563a20546f6b656e206e6f742077686974656c69737465640000000000006000830152602082019050919050565b6000610f2f601883611023565b91507f50726963653a20436f6e76657267656e63652066616c736500000000000000006000830152602082019050919050565b610f6b81611066565b82525050565b60006020820190508181036000830152610f8a81610ee2565b9050919050565b60006020820190508181036000830152610faa81610f22565b9050919050565b6000602082019050610fc66000830184610f62565b92915050565b6000604051905081810181811067ffffffffffffffff82111715610ff357610ff2611070565b5b8060405250919050565b600067ffffffffffffffff82111561101857611017611070565b5b602082029050919050565b600082825260208201905092915050565b600061103f82611046565b9050919050565b600073ffffffffffffffffffffffffffffffffffffffff82169050919050565b6000819050919050565bfe5b61107b81611034565b811461108657600080fd5b50565b61109281611066565b811461109d57600080fd5b5056fe536166654d6174683a206d756c7469706c69636174696f6e206f766572666c6f77a2646970667358221220efbfb685858d8416485035bec8a680af7ad850cabe33e27bb7628e56089e5bf264736f6c63430007060033",
  "linkReferences": {},
  "deployedLinkReferences": {}
}