{
  "_format": "hh-sol-artifact-1",
  "contractName": "FundraiserFacet",
  "sourceName": "contracts/farm/facets/FundraiserFacet.sol",
  "abi": [
    {
      "anonymous": false,
      "inputs": [
        {
          "indexed": true,
          "internalType": "uint32",
          "name": "id",
          "type": "uint32"
        }
      ],
      "name": "CompleteFundraiser",
      "type": "event"
    },
    {
      "anonymous": false,
      "inputs": [
        {
          "indexed": true,
          "internalType": "uint32",
          "name": "id",
          "type": "uint32"
        },
        {
          "indexed": false,
          "internalType": "address",
          "name": "fundraiser",
          "type": "address"
        },
        {
          "indexed": false,
          "internalType": "address",
          "name": "token",
          "type": "address"
        },
        {
          "indexed": false,
          "internalType": "uint256",
          "name": "amount",
          "type": "uint256"
        }
      ],
      "name": "CreateFundraiser",
      "type": "event"
    },
    {
      "anonymous": false,
      "inputs": [
        {
          "indexed": true,
          "internalType": "address",
          "name": "account",
          "type": "address"
        },
        {
          "indexed": true,
          "internalType": "uint32",
          "name": "id",
          "type": "uint32"
        },
        {
          "indexed": false,
          "internalType": "uint256",
          "name": "amount",
          "type": "uint256"
        }
      ],
      "name": "FundFundraiser",
      "type": "event"
    },
    {
      "inputs": [
        {
          "internalType": "address",
          "name": "payee",
          "type": "address"
        },
        {
          "internalType": "address",
          "name": "token",
          "type": "address"
        },
        {
          "internalType": "uint256",
          "name": "amount",
          "type": "uint256"
        }
      ],
      "name": "createFundraiser",
      "outputs": [],
      "stateMutability": "payable",
      "type": "function"
    },
    {
      "inputs": [
        {
          "internalType": "uint32",
          "name": "id",
          "type": "uint32"
        },
        {
          "internalType": "uint256",
          "name": "amount",
          "type": "uint256"
        },
        {
          "internalType": "enum LibTransfer.From",
          "name": "mode",
          "type": "uint8"
        }
      ],
      "name": "fund",
      "outputs": [
        {
          "internalType": "uint256",
          "name": "",
          "type": "uint256"
        }
      ],
      "stateMutability": "payable",
      "type": "function"
    },
    {
      "inputs": [
        {
          "internalType": "uint32",
          "name": "id",
          "type": "uint32"
        }
      ],
      "name": "fundingToken",
      "outputs": [
        {
          "internalType": "address",
          "name": "",
          "type": "address"
        }
      ],
      "stateMutability": "view",
      "type": "function"
    },
    {
      "inputs": [
        {
          "internalType": "uint32",
          "name": "id",
          "type": "uint32"
        }
      ],
      "name": "fundraiser",
      "outputs": [
        {
          "components": [
            {
              "internalType": "address",
              "name": "payee",
              "type": "address"
            },
            {
              "internalType": "address",
              "name": "token",
              "type": "address"
            },
            {
              "internalType": "uint256",
              "name": "total",
              "type": "uint256"
            },
            {
              "internalType": "uint256",
              "name": "remaining",
              "type": "uint256"
            },
            {
              "internalType": "uint256",
              "name": "start",
              "type": "uint256"
            }
          ],
          "internalType": "struct Storage.Fundraiser",
          "name": "",
          "type": "tuple"
        }
      ],
      "stateMutability": "view",
      "type": "function"
    },
    {
      "inputs": [],
      "name": "numberOfFundraisers",
      "outputs": [
        {
          "internalType": "uint32",
          "name": "",
          "type": "uint32"
        }
      ],
      "stateMutability": "view",
      "type": "function"
    },
    {
      "inputs": [
        {
          "internalType": "uint32",
          "name": "id",
          "type": "uint32"
        }
      ],
      "name": "remainingFunding",
      "outputs": [
        {
          "internalType": "uint256",
          "name": "",
          "type": "uint256"
        }
      ],
      "stateMutability": "view",
      "type": "function"
    },
    {
      "inputs": [
        {
          "internalType": "uint32",
          "name": "id",
          "type": "uint32"
        }
      ],
      "name": "totalFunding",
      "outputs": [
        {
          "internalType": "uint256",
          "name": "",
          "type": "uint256"
        }
      ],
      "stateMutability": "view",
      "type": "function"
    }
  ],
  "bytecode": "0x608060405234801561001057600080fd5b50612022806100206000396000f3fe6080604052600436106100705760003560e01c80636299a9af1161004e5780636299a9af146100fe5780636ee66ddf14610129578063c869c1eb14610166578063ce133450146101a357610070565b80630d1a844c1461007557806343c5198e146100b25780634b4e8d9a146100e2575b600080fd5b34801561008157600080fd5b5061009c60048036038101906100979190611a13565b6101e0565b6040516100a99190611e2a565b60405180910390f35b6100cc60048036038101906100c79190611a3c565b61020e565b6040516100d99190611e2a565b60405180910390f35b6100fc60048036038101906100f7919061199b565b610478565b005b34801561010a57600080fd5b506101136106c2565b6040516101209190611e7c565b60405180910390f35b34801561013557600080fd5b50610150600480360381019061014b9190611a13565b6106de565b60405161015d9190611e2a565b60405180910390f35b34801561017257600080fd5b5061018d60048036038101906101889190611a13565b61070c565b60405161019a9190611cd9565b60405180910390f35b3480156101af57600080fd5b506101ca60048036038101906101c59190611a13565b61075a565b6040516101d79190611e0f565b60405180910390f35b60008060330160008363ffffffff1663ffffffff168152602001908152602001600020600301549050919050565b600060026000601e01541415610259576040517f08c379a000000000000000000000000000000000000000000000000000000000815260040161025090611def565b60405180910390fd5b60026000601e018190555060008060330160008663ffffffff1663ffffffff168152602001908152602001600020600301549050600081116102d0576040517f08c379a00000000000000000000000000000000000000000000000000000000081526004016102c790611d6f565b60405180910390fd5b808411156102dc578093505b61032d600060330160008763ffffffff1663ffffffff16815260200190815260200160002060010160009054906101000a900473ffffffffffffffffffffffffffffffffffffffff16853386610860565b9350838103600060330160008763ffffffff1663ffffffff168152602001908152602001600020600301819055508463ffffffff163373ffffffffffffffffffffffffffffffffffffffff167f0732068624b5f40cc36085611c431b9a34adef5d80fece81346a83443da7043c866040516103a89190611e2a565b60405180910390a360008060330160008763ffffffff1663ffffffff1681526020019081526020016000206003015414156103e7576103e685610a5c565b5b6103ef610bd4565b73ffffffffffffffffffffffffffffffffffffffff166342966c68856040518263ffffffff1660e01b81526004016104279190611e2a565b600060405180830381600087803b15801561044157600080fd5b505af1158015610455573d6000803e3d6000fd5b505050506104638433610bf0565b91505060016000601e01819055509392505050565b610480610c6b565b60008060340160009054906101000a900463ffffffff16905082600060330160008363ffffffff1663ffffffff16815260200190815260200160002060010160006101000a81548173ffffffffffffffffffffffffffffffffffffffff021916908373ffffffffffffffffffffffffffffffffffffffff16021790555081600060330160008363ffffffff1663ffffffff1681526020019081526020016000206003018190555081600060330160008363ffffffff1663ffffffff1681526020019081526020016000206002018190555083600060330160008363ffffffff1663ffffffff16815260200190815260200160002060000160006101000a81548173ffffffffffffffffffffffffffffffffffffffff021916908373ffffffffffffffffffffffffffffffffffffffff16021790555042600060330160008363ffffffff1663ffffffff1681526020019081526020016000206004018190555060018101600060340160006101000a81548163ffffffff021916908363ffffffff16021790555061060e610bd4565b73ffffffffffffffffffffffffffffffffffffffff166340c10f1930846040518363ffffffff1660e01b8152600401610648929190611d2b565b600060405180830381600087803b15801561066257600080fd5b505af1158015610676573d6000803e3d6000fd5b505050508063ffffffff167f7f6fdd0882a7f121793589a4089ca6d86b3107600a207ad033ba89b6f3aa706f8585856040516106b493929190611cf4565b60405180910390a250505050565b60008060340160009054906101000a900463ffffffff16905090565b60008060330160008363ffffffff1663ffffffff168152602001908152602001600020600201549050919050565b60008060330160008363ffffffff1663ffffffff16815260200190815260200160002060010160009054906101000a900473ffffffffffffffffffffffffffffffffffffffff169050919050565b6107626118d7565b600060330160008363ffffffff1663ffffffff1681526020019081526020016000206040518060a00160405290816000820160009054906101000a900473ffffffffffffffffffffffffffffffffffffffff1673ffffffffffffffffffffffffffffffffffffffff1673ffffffffffffffffffffffffffffffffffffffff1681526020016001820160009054906101000a900473ffffffffffffffffffffffffffffffffffffffff1673ffffffffffffffffffffffffffffffffffffffff1673ffffffffffffffffffffffffffffffffffffffff16815260200160028201548152602001600382015481526020016004820154815250509050919050565b6000808414156108735760009050610a54565b6000600381111561088057fe5b82600381111561088c57fe5b146108e7576108b7838686600160038111156108a457fe5b8660038111156108b057fe5b1415610d3c565b9050808414806108dc57506003808111156108ce57fe5b8260038111156108da57fe5b145b156108e657610a54565b5b60008573ffffffffffffffffffffffffffffffffffffffff166370a08231306040518263ffffffff1660e01b81526004016109229190611cd9565b60206040518083038186803b15801561093a57600080fd5b505afa15801561094e573d6000803e3d6000fd5b505050506040513d601f19601f8201168201806040525081019061097291906119ea565b90506109a384308488038973ffffffffffffffffffffffffffffffffffffffff16610dca909392919063ffffffff16565b610a50610a41828873ffffffffffffffffffffffffffffffffffffffff166370a08231306040518263ffffffff1660e01b81526004016109e39190611cd9565b60206040518083038186803b1580156109fb57600080fd5b505afa158015610a0f573d6000803e3d6000fd5b505050506040513d601f19601f82011682018060405250810190610a3391906119ea565b610e8b90919063ffffffff16565b83610f0e90919063ffffffff16565b9150505b949350505050565b600060330160008263ffffffff1663ffffffff16815260200190815260200160002060040154421415610ac4576040517f08c379a0000000000000000000000000000000000000000000000000000000008152600401610abb90611d8f565b60405180910390fd5b610b9e600060330160008363ffffffff1663ffffffff16815260200190815260200160002060000160009054906101000a900473ffffffffffffffffffffffffffffffffffffffff16600060330160008463ffffffff1663ffffffff16815260200190815260200160002060020154600060330160008563ffffffff1663ffffffff16815260200190815260200160002060010160009054906101000a900473ffffffffffffffffffffffffffffffffffffffff1673ffffffffffffffffffffffffffffffffffffffff16610f969092919063ffffffff16565b8063ffffffff167faef32fba4284db9121bdeec336159a5ad32b3a693af5451cd3231c7d41fefba260405160405180910390a250565b600073bea0000029ad1c77d3d5d23ba2d8893db9d1efab905090565b600080610bfb611038565b90506000610c268583601f0160020160149054906101000a900463ffffffff1663ffffffff1661103d565b9050610c3384868361107f565b610c4d8183600b0160010154610f0e90919063ffffffff16565b82600b0160010181905550610c6061114e565b809250505092915050565b610c736111e2565b60040160009054906101000a900473ffffffffffffffffffffffffffffffffffffffff1673ffffffffffffffffffffffffffffffffffffffff163373ffffffffffffffffffffffffffffffffffffffff161480610cfb57503073ffffffffffffffffffffffffffffffffffffffff163373ffffffffffffffffffffffffffffffffffffffff16145b610d3a576040517f08c379a0000000000000000000000000000000000000000000000000000000008152600401610d3190611dcf565b60405180910390fd5b565b600080610d49868661120f565b90508280610d575750838110155b610d96576040517f08c379a0000000000000000000000000000000000000000000000000000000008152600401610d8d90611daf565b60405180910390fd5b610da081856112a4565b915060008282039050610dc0878783610db8876112bd565b60000361133f565b5050949350505050565b610e85846323b872dd60e01b858585604051602401808473ffffffffffffffffffffffffffffffffffffffff1681526020018373ffffffffffffffffffffffffffffffffffffffff1681526020018281526020019350505050604051602081830303815290604052907bffffffffffffffffffffffffffffffffffffffffffffffffffffffff19166020820180517bffffffffffffffffffffffffffffffffffffffffffffffffffffffff838183161783525050505061143a565b50505050565b600082821115610f03576040517f08c379a000000000000000000000000000000000000000000000000000000000815260040180806020018281038252601e8152602001807f536166654d6174683a207375627472616374696f6e206f766572666c6f77000081525060200191505060405180910390fd5b818303905092915050565b600080828401905083811015610f8c576040517f08c379a000000000000000000000000000000000000000000000000000000000815260040180806020018281038252601b8152602001807f536166654d6174683a206164646974696f6e206f766572666c6f77000000000081525060200191505060405180910390fd5b8091505092915050565b6110338363a9059cbb60e01b8484604051602401808373ffffffffffffffffffffffffffffffffffffffff16815260200182815260200192505050604051602081830303815290604052907bffffffffffffffffffffffffffffffffffffffffffffffffffffffff19166020820180517bffffffffffffffffffffffffffffffffffffffffffffffffffffffff838183161783525050505061143a565b505050565b600090565b6000611077611068606461105a858761152990919063ffffffff16565b6115af90919063ffffffff16565b84610f0e90919063ffffffff16565b905092915050565b6000611089611038565b9050818160310160008673ffffffffffffffffffffffffffffffffffffffff1673ffffffffffffffffffffffffffffffffffffffff168152602001908152602001600020600001600001600083600b01600101548152602001908152602001600020819055508373ffffffffffffffffffffffffffffffffffffffff167fdd43b982e9a6350577cad86db14e254b658fb741d7864a6860409c4526bcc64182600b0160010154858560405161114093929190611e45565b60405180910390a250505050565b6000611158611038565b9050620f424081600b01600001541180611194575063ffffffff801681601f0160020160109054906101000a900463ffffffff1663ffffffff16105b1561119f57506111e0565b6111b9816003016003015442610e8b90919063ffffffff16565b81601f0160020160106101000a81548163ffffffff021916908363ffffffff160217905550505b565b6000807fc8fcad8db84d3cc18b4c41d551ea0ee66dd599cde068d998e57d5e09332c131c90508091505090565b60008061121a611038565b905080603e0160008573ffffffffffffffffffffffffffffffffffffffff1673ffffffffffffffffffffffffffffffffffffffff16815260200190815260200160002060008473ffffffffffffffffffffffffffffffffffffffff1673ffffffffffffffffffffffffffffffffffffffff1681526020019081526020016000205491505092915050565b60008183106112b357816112b5565b825b905092915050565b60007f80000000000000000000000000000000000000000000000000000000000000008210611337576040517f08c379a0000000000000000000000000000000000000000000000000000000008152600401808060200182810382526028815260200180611f9b6028913960400191505060405180910390fd5b819050919050565b6000611349611038565b90508281603e0160008773ffffffffffffffffffffffffffffffffffffffff1673ffffffffffffffffffffffffffffffffffffffff16815260200190815260200160002060008673ffffffffffffffffffffffffffffffffffffffff1673ffffffffffffffffffffffffffffffffffffffff168152602001908152602001600020819055508373ffffffffffffffffffffffffffffffffffffffff168573ffffffffffffffffffffffffffffffffffffffff167f18e1ea4139e68413d7d08aa752e71568e36b2c5bf940893314c2c5b01eaa0c428460405161142b9190611d54565b60405180910390a35050505050565b600061149c826040518060400160405280602081526020017f5361666545524332303a206c6f772d6c6576656c2063616c6c206661696c65648152508573ffffffffffffffffffffffffffffffffffffffff166116389092919063ffffffff16565b9050600081511115611524578080602001905160208110156114bd57600080fd5b8101908080519060200190929190505050611523576040517f08c379a000000000000000000000000000000000000000000000000000000000815260040180806020018281038252602a815260200180611fc3602a913960400191505060405180910390fd5b5b505050565b60008083141561153c57600090506115a9565b600082840290508284828161154d57fe5b04146115a4576040517f08c379a0000000000000000000000000000000000000000000000000000000008152600401808060200182810382526021815260200180611f7a6021913960400191505060405180910390fd5b809150505b92915050565b6000808211611626576040517f08c379a000000000000000000000000000000000000000000000000000000000815260040180806020018281038252601a8152602001807f536166654d6174683a206469766973696f6e206279207a65726f00000000000081525060200191505060405180910390fd5b81838161162f57fe5b04905092915050565b60606116478484600085611650565b90509392505050565b6060824710156116ab576040517f08c379a0000000000000000000000000000000000000000000000000000000008152600401808060200182810382526026815260200180611f546026913960400191505060405180910390fd5b6116b4856117f8565b611726576040517f08c379a000000000000000000000000000000000000000000000000000000000815260040180806020018281038252601d8152602001807f416464726573733a2063616c6c20746f206e6f6e2d636f6e747261637400000081525060200191505060405180910390fd5b6000808673ffffffffffffffffffffffffffffffffffffffff1685876040518082805190602001908083835b602083106117755780518252602082019150602081019050602083039250611752565b6001836020036101000a03801982511681845116808217855250505050505090500191505060006040518083038185875af1925050503d80600081146117d7576040519150601f19603f3d011682016040523d82523d6000602084013e6117dc565b606091505b50915091506117ec82828661180b565b92505050949350505050565b600080823b905060008111915050919050565b6060831561181b578290506118d0565b60008351111561182e5782518084602001fd5b816040517f08c379a00000000000000000000000000000000000000000000000000000000081526004018080602001828103825283818151815260200191508051906020019080838360005b8381101561189557808201518184015260208101905061187a565b50505050905090810190601f1680156118c25780820380516001836020036101000a031916815260200191505b509250505060405180910390fd5b9392505050565b6040518060a00160405280600073ffffffffffffffffffffffffffffffffffffffff168152602001600073ffffffffffffffffffffffffffffffffffffffff1681526020016000815260200160008152602001600081525090565b60008135905061194181611efe565b92915050565b60008135905061195681611f15565b92915050565b60008135905061196b81611f25565b92915050565b60008151905061198081611f25565b92915050565b60008135905061199581611f3c565b92915050565b6000806000606084860312156119b057600080fd5b60006119be86828701611932565b93505060206119cf86828701611932565b92505060406119e08682870161195c565b9150509250925092565b6000602082840312156119fc57600080fd5b6000611a0a84828501611971565b91505092915050565b600060208284031215611a2557600080fd5b6000611a3384828501611986565b91505092915050565b600080600060608486031215611a5157600080fd5b6000611a5f86828701611986565b9350506020611a708682870161195c565b9250506040611a8186828701611947565b9150509250925092565b611a9481611ea8565b82525050565b611aa381611ea8565b82525050565b611ab281611eba565b82525050565b6000611ac5601e83611e97565b91507f46756e647261697365723a20616c726561647920636f6d706c657465642e00006000830152602082019050919050565b6000611b05601783611e97565b91507f46756e647261697365723a20737461727420626c6f636b0000000000000000006000830152602082019050919050565b6000611b45602683611e97565b91507f42616c616e63653a20496e73756666696369656e7420696e7465726e616c206260008301527f616c616e636500000000000000000000000000000000000000000000000000006020830152604082019050919050565b6000611bab602583611e97565b91507f4c69624469616d6f6e643a204d75737420626520636f6e7472616374206f722060008301527f6f776e65720000000000000000000000000000000000000000000000000000006020830152604082019050919050565b6000611c11601f83611e97565b91507f5265656e7472616e637947756172643a207265656e7472616e742063616c6c006000830152602082019050919050565b60a082016000820151611c5a6000850182611a8b565b506020820151611c6d6020850182611a8b565b506040820151611c806040850182611cac565b506060820151611c936060850182611cac565b506080820151611ca66080850182611cac565b50505050565b611cb581611ee4565b82525050565b611cc481611ee4565b82525050565b611cd381611eee565b82525050565b6000602082019050611cee6000830184611a9a565b92915050565b6000606082019050611d096000830186611a9a565b611d166020830185611a9a565b611d236040830184611cbb565b949350505050565b6000604082019050611d406000830185611a9a565b611d4d6020830184611cbb565b9392505050565b6000602082019050611d696000830184611aa9565b92915050565b60006020820190508181036000830152611d8881611ab8565b9050919050565b60006020820190508181036000830152611da881611af8565b9050919050565b60006020820190508181036000830152611dc881611b38565b9050919050565b60006020820190508181036000830152611de881611b9e565b9050919050565b60006020820190508181036000830152611e0881611c04565b9050919050565b600060a082019050611e246000830184611c44565b92915050565b6000602082019050611e3f6000830184611cbb565b92915050565b6000606082019050611e5a6000830186611cbb565b611e676020830185611cbb565b611e746040830184611cbb565b949350505050565b6000602082019050611e916000830184611cca565b92915050565b600082825260208201905092915050565b6000611eb382611ec4565b9050919050565b6000819050919050565b600073ffffffffffffffffffffffffffffffffffffffff82169050919050565b6000819050919050565b600063ffffffff82169050919050565b611f0781611ea8565b8114611f1257600080fd5b50565b60048110611f2257600080fd5b50565b611f2e81611ee4565b8114611f3957600080fd5b50565b611f4581611eee565b8114611f5057600080fd5b5056fe416464726573733a20696e73756666696369656e742062616c616e636520666f722063616c6c536166654d6174683a206d756c7469706c69636174696f6e206f766572666c6f7753616665436173743a2076616c756520646f65736e27742066697420696e20616e20696e743235365361666545524332303a204552433230206f7065726174696f6e20646964206e6f742073756363656564a2646970667358221220c9b4c2d1277646e5da161c6038e64d9d9d1534e4125075f4c6a29c2636eaad9064736f6c63430007060033",
  "linkReferences": {},
  "deployedLinkReferences": {}
}