{
  "_format": "hh-sol-artifact-1",
  "contractName": "Replant3",
  "sourceName": "contracts/farm/init/replant/Replant3.sol",
  "abi": [
    {
      "anonymous": false,
      "inputs": [
        {
          "indexed": true,
          "internalType": "address",
          "name": "account",
          "type": "address"
        },
        {
          "indexed": false,
          "internalType": "uint32[]",
          "name": "withdrawals",
          "type": "uint32[]"
        },
        {
          "indexed": false,
          "internalType": "uint256",
          "name": "beans",
          "type": "uint256"
        }
      ],
      "name": "BeanClaim",
      "type": "event"
    },
    {
      "anonymous": false,
      "inputs": [
        {
          "indexed": true,
          "internalType": "address",
          "name": "account",
          "type": "address"
        },
        {
          "indexed": false,
          "internalType": "uint256[]",
          "name": "plots",
          "type": "uint256[]"
        },
        {
          "indexed": false,
          "internalType": "uint256",
          "name": "beans",
          "type": "uint256"
        }
      ],
      "name": "Harvest",
      "type": "event"
    },
    {
      "anonymous": false,
      "inputs": [
        {
          "indexed": true,
          "internalType": "address",
          "name": "account",
          "type": "address"
        },
        {
          "indexed": true,
          "internalType": "uint256",
          "name": "index",
          "type": "uint256"
        }
      ],
      "name": "PodListingCancelled",
      "type": "event"
    },
    {
      "anonymous": false,
      "inputs": [
        {
          "indexed": true,
          "internalType": "address",
          "name": "account",
          "type": "address"
        },
        {
          "indexed": false,
          "internalType": "bytes32",
          "name": "id",
          "type": "bytes32"
        }
      ],
      "name": "PodOrderCancelled",
      "type": "event"
    },
    {
      "inputs": [
        {
          "components": [
            {
              "internalType": "address",
              "name": "account",
              "type": "address"
            },
            {
              "internalType": "uint256[]",
              "name": "plots",
              "type": "uint256[]"
            },
            {
              "internalType": "uint256",
              "name": "amount",
              "type": "uint256"
            }
          ],
          "internalType": "struct Replant3.Plots[]",
          "name": "harvests",
          "type": "tuple[]"
        },
        {
          "components": [
            {
              "internalType": "address",
              "name": "account",
              "type": "address"
            },
            {
              "internalType": "uint256",
              "name": "plot",
              "type": "uint256"
            }
          ],
          "internalType": "struct Replant3.Listing[]",
          "name": "podListings",
          "type": "tuple[]"
        },
        {
          "internalType": "address",
          "name": "partialAddress",
          "type": "address"
        },
        {
          "internalType": "uint256",
          "name": "partialIndex",
          "type": "uint256"
        },
        {
          "components": [
            {
              "internalType": "address",
              "name": "account",
              "type": "address"
            },
            {
              "internalType": "bytes32",
              "name": "order",
              "type": "bytes32"
            }
          ],
          "internalType": "struct Replant3.Order[]",
          "name": "podOrders",
          "type": "tuple[]"
        },
        {
          "components": [
            {
              "internalType": "address",
              "name": "account",
              "type": "address"
            },
            {
              "internalType": "uint32[]",
              "name": "seasons",
              "type": "uint32[]"
            },
            {
              "internalType": "uint256",
              "name": "amount",
              "type": "uint256"
            }
          ],
          "internalType": "struct Replant3.Withdrawals[]",
          "name": "withdrawals",
          "type": "tuple[]"
        }
      ],
      "name": "init",
      "outputs": [],
      "stateMutability": "nonpayable",
      "type": "function"
    }
  ],
  "bytecode": "0x608060405234801561001057600080fd5b50610ea3806100206000396000f3fe608060405234801561001057600080fd5b506004361061002b5760003560e01c80631cb967eb14610030575b600080fd5b61004a6004803603810190610045919061092b565b61004c565b005b60005b8a8a90508110156100ec576100e18b8b8381811061006957fe5b905060200281019061007b9190610d03565b600001602081019061008d9190610902565b8c8c8481811061009957fe5b90506020028101906100ab9190610d03565b80602001906100ba9190610c55565b8e8e868181106100c657fe5b90506020028101906100d89190610d03565b60400135610271565b80600101905061004f565b506100f78686610352565b6000600b01600301546000600b016002018190555060005b888890508110156101675761015c89898381811061012957fe5b90506040020160000160208101906101419190610902565b8a8a8481811061014d57fe5b9050604002016020013561056a565b80600101905061010f565b5060005b848490508110156101c3576101b885858381811061018557fe5b905060400201600001602081019061019d9190610902565b8686848181106101a957fe5b905060400201602001356105cc565b80600101905061016b565b5060005b82829050811015610264576102598383838181106101e157fe5b90506020028101906101f39190610d27565b60000160208101906102059190610902565b84848481811061021157fe5b90506020028101906102239190610d27565b80602001906102329190610cac565b86868681811061023e57fe5b90506020028101906102509190610d27565b60400135610638565b8060010190506101c7565b5050505050505050505050565b60005b838390508110156102f957600060310160008673ffffffffffffffffffffffffffffffffffffffff1673ffffffffffffffffffffffffffffffffffffffff16815260200190815260200160002060000160000160008585848181106102d557fe5b90506020020135815260200190815260200160002060009055806001019050610274565b508373ffffffffffffffffffffffffffffffffffffffff167f2250a3497055c8a54223a5ea64f100a209e9c1c4ab39d3cae64c64a493065fa184848460405161034493929190610ba6565b60405180910390a250505050565b60008060310160008473ffffffffffffffffffffffffffffffffffffffff1673ffffffffffffffffffffffffffffffffffffffff168152602001908152602001600020600001600001600083815260200190815260200160002054905060006103cc836000600b016003015461069090919063ffffffff16565b9050600060310160008573ffffffffffffffffffffffffffffffffffffffff1673ffffffffffffffffffffffffffffffffffffffff16815260200190815260200160002060000160000160008481526020019081526020016000206000905561043e818361069090919063ffffffff16565b600060310160008673ffffffffffffffffffffffffffffffffffffffff1673ffffffffffffffffffffffffffffffffffffffff168152602001908152602001600020600001600001600061049b848761071390919063ffffffff16565b8152602001908152602001600020819055506000600167ffffffffffffffff811180156104c757600080fd5b506040519080825280602002602001820160405280156104f65781602001602082028036833780820191505090505b509050838160008151811061050757fe5b6020026020010181815250508473ffffffffffffffffffffffffffffffffffffffff167f2250a3497055c8a54223a5ea64f100a209e9c1c4ab39d3cae64c64a493065fa1828460405161055b929190610bd8565b60405180910390a25050505050565b6000603601600082815260200190815260200160002060009055808273ffffffffffffffffffffffffffffffffffffffff167fe9dc43fcbeb08ecb743b537fa98567049e3b77e283833f89ab216b22ede6ba0a60405160405180910390a35050565b60006037016000828152602001908152602001600020600090558173ffffffffffffffffffffffffffffffffffffffff167f531180eb4d1153cb99f00e54fef0a473edc9e3e951f9a88468fec65988e9e4f88260405161062c9190610c3a565b60405180910390a25050565b8373ffffffffffffffffffffffffffffffffffffffff167f503209672d7e537ea94ab300c8bc7f9df06fb5b074f199307bb1e232968b921084848460405161068293929190610c08565b60405180910390a250505050565b600082821115610708576040517f08c379a000000000000000000000000000000000000000000000000000000000815260040180806020018281038252601e8152602001807f536166654d6174683a207375627472616374696f6e206f766572666c6f77000081525060200191505060405180910390fd5b818303905092915050565b600080828401905083811015610791576040517f08c379a000000000000000000000000000000000000000000000000000000000815260040180806020018281038252601b8152602001807f536166654d6174683a206164646974696f6e206f766572666c6f77000000000081525060200191505060405180910390fd5b8091505092915050565b6000813590506107aa81610e28565b92915050565b60008083601f8401126107c257600080fd5b8235905067ffffffffffffffff8111156107db57600080fd5b6020830191508360408202830111156107f357600080fd5b9250929050565b60008083601f84011261080c57600080fd5b8235905067ffffffffffffffff81111561082557600080fd5b60208301915083604082028301111561083d57600080fd5b9250929050565b60008083601f84011261085657600080fd5b8235905067ffffffffffffffff81111561086f57600080fd5b60208301915083602082028301111561088757600080fd5b9250929050565b60008083601f8401126108a057600080fd5b8235905067ffffffffffffffff8111156108b957600080fd5b6020830191508360208202830111156108d157600080fd5b9250929050565b6000813590506108e781610e3f565b92915050565b6000813590506108fc81610e56565b92915050565b60006020828403121561091457600080fd5b60006109228482850161079b565b91505092915050565b60008060008060008060008060008060c08b8d03121561094a57600080fd5b60008b013567ffffffffffffffff81111561096457600080fd5b6109708d828e01610844565b9a509a505060208b013567ffffffffffffffff81111561098f57600080fd5b61099b8d828e016107b0565b985098505060406109ae8d828e0161079b565b96505060606109bf8d828e016108d8565b95505060808b013567ffffffffffffffff8111156109dc57600080fd5b6109e88d828e016107fa565b945094505060a08b013567ffffffffffffffff811115610a0757600080fd5b610a138d828e0161088e565b92509250509295989b9194979a5092959850565b6000610a338383610b79565b60208301905092915050565b6000610a4b8383610b97565b60208301905092915050565b6000610a638385610d8a565b93507f07ffffffffffffffffffffffffffffffffffffffffffffffffffffffffffffff831115610a9257600080fd5b602083029250610aa3838584610e19565b82840190509392505050565b6000610aba82610d65565b610ac48185610d8a565b9350610acf83610d4b565b8060005b83811015610b00578151610ae78882610a27565b9750610af283610d70565b925050600181019050610ad3565b5085935050505092915050565b6000610b198385610d9b565b9350610b2482610d5b565b8060005b85811015610b5d57610b3a8284610dac565b610b448882610a3f565b9750610b4f83610d7d565b925050600181019050610b28565b5085925050509392505050565b610b7381610dd5565b82525050565b610b8281610dff565b82525050565b610b9181610dff565b82525050565b610ba081610e09565b82525050565b60006040820190508181036000830152610bc1818587610a57565b9050610bd06020830184610b88565b949350505050565b60006040820190508181036000830152610bf28185610aaf565b9050610c016020830184610b88565b9392505050565b60006040820190508181036000830152610c23818587610b0d565b9050610c326020830184610b88565b949350505050565b6000602082019050610c4f6000830184610b6a565b92915050565b60008083356001602003843603038112610c6e57600080fd5b80840192508235915067ffffffffffffffff821115610c8c57600080fd5b602083019250602082023603831315610ca457600080fd5b509250929050565b60008083356001602003843603038112610cc557600080fd5b80840192508235915067ffffffffffffffff821115610ce357600080fd5b602083019250602082023603831315610cfb57600080fd5b509250929050565b600082356001606003833603038112610d1b57600080fd5b80830191505092915050565b600082356001606003833603038112610d3f57600080fd5b80830191505092915050565b6000819050602082019050919050565b6000819050919050565b600081519050919050565b6000602082019050919050565b6000602082019050919050565b600082825260208201905092915050565b600082825260208201905092915050565b6000610dbb60208401846108ed565b905092915050565b6000610dce82610ddf565b9050919050565b6000819050919050565b600073ffffffffffffffffffffffffffffffffffffffff82169050919050565b6000819050919050565b600063ffffffff82169050919050565b82818337600083830152505050565b610e3181610dc3565b8114610e3c57600080fd5b50565b610e4881610dff565b8114610e5357600080fd5b50565b610e5f81610e09565b8114610e6a57600080fd5b5056fea2646970667358221220df0d55a26f5fd5daa6cb808ddb9595dadf4d319d759ede1fd39b778225949db064736f6c63430007060033",
  "linkReferences": {},
  "deployedLinkReferences": {}
}