{
  "_format": "hh-sol-artifact-1",
  "contractName": "FarmFacet",
  "sourceName": "contracts/farm/facets/FarmFacet.sol",
  "abi": [
    {
      "inputs": [
        {
          "internalType": "bytes[]",
          "name": "data",
          "type": "bytes[]"
        }
      ],
      "name": "farm",
      "outputs": [],
      "stateMutability": "payable",
      "type": "function"
    }
  ],
  "bytecode": "0x608060405234801561001057600080fd5b50610658806100206000396000f3fe60806040526004361061001e5760003560e01c8063300dd6cf14610023575b600080fd5b61003d600480360381019061003891906103d7565b61003f565b005b60003411156100545760026000604901819055505b60005b828290508110156100935761008883838381811061007157fe5b90506020028101906100839190610562565b6100b5565b806001019050610057565b5060003411156100b15760016000604901819055506100b0610264565b5b5050565b6000807fc8fcad8db84d3cc18b4c41d551ea0ee66dd599cde068d998e57d5e09332c131c90508091506000843590506000836000016000837bffffffffffffffffffffffffffffffffffffffffffffffffffffffff19167bffffffffffffffffffffffffffffffffffffffffffffffffffffffff1916815260200190815260200160002060000160009054906101000a900473ffffffffffffffffffffffffffffffffffffffff169050600073ffffffffffffffffffffffffffffffffffffffff168173ffffffffffffffffffffffffffffffffffffffff1614156101cf576040517f08c379a00000000000000000000000000000000000000000000000000000000081526004016101c690610522565b60405180910390fd5b6000808273ffffffffffffffffffffffffffffffffffffffff1688886040516101f99291906104f2565b600060405180830381855af49150503d8060008114610234576040519150601f19603f3d011682016040523d82523d6000602084013e610239565b606091505b50915091508161025a5760008151141561025257600080fd5b805181602001fd5b5050505050505050565b600061026e610388565b905060004711801561028557506002816049015414155b156103855760003373ffffffffffffffffffffffffffffffffffffffff1647600067ffffffffffffffff811180156102bc57600080fd5b506040519080825280601f01601f1916602001820160405280156102ef5781602001600182028036833780820191505090505b506040516102fd919061050b565b60006040518083038185875af1925050503d806000811461033a576040519150601f19603f3d011682016040523d82523d6000602084013e61033f565b606091505b5050905080610383576040517f08c379a000000000000000000000000000000000000000000000000000000000815260040161037a90610542565b60405180910390fd5b505b50565b600090565b60008083601f84011261039f57600080fd5b8235905067ffffffffffffffff8111156103b857600080fd5b6020830191508360208202830111156103d057600080fd5b9250929050565b600080602083850312156103ea57600080fd5b600083013567ffffffffffffffff81111561040457600080fd5b6104108582860161038d565b92509250509250929050565b600061042883856105c4565b93506104358385846105e0565b82840190509392505050565b600061044c826105b9565b61045681856105c4565b93506104668185602086016105ef565b80840191505092915050565b600061047f6020836105cf565b91507f4469616d6f6e643a2046756e6374696f6e20646f6573206e6f742065786973746000830152602082019050919050565b60006104bf6014836105cf565b91507f457468207472616e73666572204661696c65642e0000000000000000000000006000830152602082019050919050565b60006104ff82848661041c565b91508190509392505050565b60006105178284610441565b915081905092915050565b6000602082019050818103600083015261053b81610472565b9050919050565b6000602082019050818103600083015261055b816104b2565b9050919050565b6000808335600160200384360303811261057b57600080fd5b80840192508235915067ffffffffffffffff82111561059957600080fd5b6020830192506001820236038313156105b157600080fd5b509250929050565b600081519050919050565b600081905092915050565b600082825260208201905092915050565b82818337600083830152505050565b60005b8381101561060d5780820151818401526020810190506105f2565b8381111561061c576000848401525b5050505056fea2646970667358221220dd7a3824afcb99242445639b4176830f5cacb66efbe1161206218154a8c07d7864736f6c63430007060033",
  "linkReferences": {},
  "deployedLinkReferences": {}
}