{
  "_format": "hh-sol-artifact-1",
  "contractName": "EIP712Domain",
  "sourceName": "contracts/pool/USDC.sol",
  "abi": [
    {
      "inputs": [],
      "name": "DOMAIN_SEPARATOR",
      "outputs": [
        {
          "internalType": "bytes32",
          "name": "",
          "type": "bytes32"
        }
      ],
      "stateMutability": "view",
      "type": "function"
    }
  ],
  "bytecode": "0x6080604052348015600f57600080fd5b5060858061001e6000396000f3fe6080604052348015600f57600080fd5b506004361060285760003560e01c80633644e51514602d575b600080fd5b60336049565b6040518082815260200191505060405180910390f35b6000548156fea2646970667358221220387628a3851e440d609dbde08743a686649277145ef24b3959218ceabeb9c1ff64736f6c634300060c0033",
  "linkReferences": {},
  "deployedLinkReferences": {}
}