{
  "_format": "hh-sol-artifact-1",
  "contractName": "FiatTokenV1",
  "sourceName": "contracts/pool/USDC.sol",
  "abi": [
    {
      "anonymous": false,
      "inputs": [
        {
          "indexed": true,
          "internalType": "address",
          "name": "owner",
          "type": "address"
        },
        {
          "indexed": true,
          "internalType": "address",
          "name": "spender",
          "type": "address"
        },
        {
          "indexed": false,
          "internalType": "uint256",
          "name": "value",
          "type": "uint256"
        }
      ],
      "name": "Approval",
      "type": "event"
    },
    {
      "anonymous": false,
      "inputs": [
        {
          "indexed": true,
          "internalType": "address",
          "name": "_account",
          "type": "address"
        }
      ],
      "name": "Blacklisted",
      "type": "event"
    },
    {
      "anonymous": false,
      "inputs": [
        {
          "indexed": true,
          "internalType": "address",
          "name": "newBlacklister",
          "type": "address"
        }
      ],
      "name": "BlacklisterChanged",
      "type": "event"
    },
    {
      "anonymous": false,
      "inputs": [
        {
          "indexed": true,
          "internalType": "address",
          "name": "burner",
          "type": "address"
        },
        {
          "indexed": false,
          "internalType": "uint256",
          "name": "amount",
          "type": "uint256"
        }
      ],
      "name": "Burn",
      "type": "event"
    },
    {
      "anonymous": false,
      "inputs": [
        {
          "indexed": true,
          "internalType": "address",
          "name": "newMasterMinter",
          "type": "address"
        }
      ],
      "name": "MasterMinterChanged",
      "type": "event"
    },
    {
      "anonymous": false,
      "inputs": [
        {
          "indexed": true,
          "internalType": "address",
          "name": "minter",
          "type": "address"
        },
        {
          "indexed": true,
          "internalType": "address",
          "name": "to",
          "type": "address"
        },
        {
          "indexed": false,
          "internalType": "uint256",
          "name": "amount",
          "type": "uint256"
        }
      ],
      "name": "Mint",
      "type": "event"
    },
    {
      "anonymous": false,
      "inputs": [
        {
          "indexed": true,
          "internalType": "address",
          "name": "minter",
          "type": "address"
        },
        {
          "indexed": false,
          "internalType": "uint256",
          "name": "minterAllowedAmount",
          "type": "uint256"
        }
      ],
      "name": "MinterConfigured",
      "type": "event"
    },
    {
      "anonymous": false,
      "inputs": [
        {
          "indexed": true,
          "internalType": "address",
          "name": "oldMinter",
          "type": "address"
        }
      ],
      "name": "MinterRemoved",
      "type": "event"
    },
    {
      "anonymous": false,
      "inputs": [
        {
          "indexed": false,
          "internalType": "address",
          "name": "previousOwner",
          "type": "address"
        },
        {
          "indexed": false,
          "internalType": "address",
          "name": "newOwner",
          "type": "address"
        }
      ],
      "name": "OwnershipTransferred",
      "type": "event"
    },
    {
      "anonymous": false,
      "inputs": [],
      "name": "Pause",
      "type": "event"
    },
    {
      "anonymous": false,
      "inputs": [
        {
          "indexed": true,
          "internalType": "address",
          "name": "newAddress",
          "type": "address"
        }
      ],
      "name": "PauserChanged",
      "type": "event"
    },
    {
      "anonymous": false,
      "inputs": [
        {
          "indexed": true,
          "internalType": "address",
          "name": "from",
          "type": "address"
        },
        {
          "indexed": true,
          "internalType": "address",
          "name": "to",
          "type": "address"
        },
        {
          "indexed": false,
          "internalType": "uint256",
          "name": "value",
          "type": "uint256"
        }
      ],
      "name": "Transfer",
      "type": "event"
    },
    {
      "anonymous": false,
      "inputs": [
        {
          "indexed": true,
          "internalType": "address",
          "name": "_account",
          "type": "address"
        }
      ],
      "name": "UnBlacklisted",
      "type": "event"
    },
    {
      "anonymous": false,
      "inputs": [],
      "name": "Unpause",
      "type": "event"
    },
    {
      "inputs": [
        {
          "internalType": "address",
          "name": "owner",
          "type": "address"
        },
        {
          "internalType": "address",
          "name": "spender",
          "type": "address"
        }
      ],
      "name": "allowance",
      "outputs": [
        {
          "internalType": "uint256",
          "name": "",
          "type": "uint256"
        }
      ],
      "stateMutability": "view",
      "type": "function"
    },
    {
      "inputs": [
        {
          "internalType": "address",
          "name": "spender",
          "type": "address"
        },
        {
          "internalType": "uint256",
          "name": "value",
          "type": "uint256"
        }
      ],
      "name": "approve",
      "outputs": [
        {
          "internalType": "bool",
          "name": "",
          "type": "bool"
        }
      ],
      "stateMutability": "nonpayable",
      "type": "function"
    },
    {
      "inputs": [
        {
          "internalType": "address",
          "name": "account",
          "type": "address"
        }
      ],
      "name": "balanceOf",
      "outputs": [
        {
          "internalType": "uint256",
          "name": "",
          "type": "uint256"
        }
      ],
      "stateMutability": "view",
      "type": "function"
    },
    {
      "inputs": [
        {
          "internalType": "address",
          "name": "_account",
          "type": "address"
        }
      ],
      "name": "blacklist",
      "outputs": [],
      "stateMutability": "nonpayable",
      "type": "function"
    },
    {
      "inputs": [],
      "name": "blacklister",
      "outputs": [
        {
          "internalType": "address",
          "name": "",
          "type": "address"
        }
      ],
      "stateMutability": "view",
      "type": "function"
    },
    {
      "inputs": [
        {
          "internalType": "uint256",
          "name": "_amount",
          "type": "uint256"
        }
      ],
      "name": "burn",
      "outputs": [],
      "stateMutability": "nonpayable",
      "type": "function"
    },
    {
      "inputs": [
        {
          "internalType": "address",
          "name": "minter",
          "type": "address"
        },
        {
          "internalType": "uint256",
          "name": "minterAllowedAmount",
          "type": "uint256"
        }
      ],
      "name": "configureMinter",
      "outputs": [
        {
          "internalType": "bool",
          "name": "",
          "type": "bool"
        }
      ],
      "stateMutability": "nonpayable",
      "type": "function"
    },
    {
      "inputs": [],
      "name": "currency",
      "outputs": [
        {
          "internalType": "string",
          "name": "",
          "type": "string"
        }
      ],
      "stateMutability": "view",
      "type": "function"
    },
    {
      "inputs": [],
      "name": "decimals",
      "outputs": [
        {
          "internalType": "uint8",
          "name": "",
          "type": "uint8"
        }
      ],
      "stateMutability": "view",
      "type": "function"
    },
    {
      "inputs": [
        {
          "internalType": "string",
          "name": "tokenName",
          "type": "string"
        },
        {
          "internalType": "string",
          "name": "tokenSymbol",
          "type": "string"
        },
        {
          "internalType": "string",
          "name": "tokenCurrency",
          "type": "string"
        },
        {
          "internalType": "uint8",
          "name": "tokenDecimals",
          "type": "uint8"
        },
        {
          "internalType": "address",
          "name": "newMasterMinter",
          "type": "address"
        },
        {
          "internalType": "address",
          "name": "newPauser",
          "type": "address"
        },
        {
          "internalType": "address",
          "name": "newBlacklister",
          "type": "address"
        },
        {
          "internalType": "address",
          "name": "newOwner",
          "type": "address"
        }
      ],
      "name": "initialize",
      "outputs": [],
      "stateMutability": "nonpayable",
      "type": "function"
    },
    {
      "inputs": [
        {
          "internalType": "address",
          "name": "_account",
          "type": "address"
        }
      ],
      "name": "isBlacklisted",
      "outputs": [
        {
          "internalType": "bool",
          "name": "",
          "type": "bool"
        }
      ],
      "stateMutability": "view",
      "type": "function"
    },
    {
      "inputs": [
        {
          "internalType": "address",
          "name": "account",
          "type": "address"
        }
      ],
      "name": "isMinter",
      "outputs": [
        {
          "internalType": "bool",
          "name": "",
          "type": "bool"
        }
      ],
      "stateMutability": "view",
      "type": "function"
    },
    {
      "inputs": [],
      "name": "masterMinter",
      "outputs": [
        {
          "internalType": "address",
          "name": "",
          "type": "address"
        }
      ],
      "stateMutability": "view",
      "type": "function"
    },
    {
      "inputs": [
        {
          "internalType": "address",
          "name": "_to",
          "type": "address"
        },
        {
          "internalType": "uint256",
          "name": "_amount",
          "type": "uint256"
        }
      ],
      "name": "mint",
      "outputs": [
        {
          "internalType": "bool",
          "name": "",
          "type": "bool"
        }
      ],
      "stateMutability": "nonpayable",
      "type": "function"
    },
    {
      "inputs": [
        {
          "internalType": "address",
          "name": "minter",
          "type": "address"
        }
      ],
      "name": "minterAllowance",
      "outputs": [
        {
          "internalType": "uint256",
          "name": "",
          "type": "uint256"
        }
      ],
      "stateMutability": "view",
      "type": "function"
    },
    {
      "inputs": [],
      "name": "name",
      "outputs": [
        {
          "internalType": "string",
          "name": "",
          "type": "string"
        }
      ],
      "stateMutability": "view",
      "type": "function"
    },
    {
      "inputs": [],
      "name": "owner",
      "outputs": [
        {
          "internalType": "address",
          "name": "",
          "type": "address"
        }
      ],
      "stateMutability": "view",
      "type": "function"
    },
    {
      "inputs": [],
      "name": "pause",
      "outputs": [],
      "stateMutability": "nonpayable",
      "type": "function"
    },
    {
      "inputs": [],
      "name": "paused",
      "outputs": [
        {
          "internalType": "bool",
          "name": "",
          "type": "bool"
        }
      ],
      "stateMutability": "view",
      "type": "function"
    },
    {
      "inputs": [],
      "name": "pauser",
      "outputs": [
        {
          "internalType": "address",
          "name": "",
          "type": "address"
        }
      ],
      "stateMutability": "view",
      "type": "function"
    },
    {
      "inputs": [
        {
          "internalType": "address",
          "name": "minter",
          "type": "address"
        }
      ],
      "name": "removeMinter",
      "outputs": [
        {
          "internalType": "bool",
          "name": "",
          "type": "bool"
        }
      ],
      "stateMutability": "nonpayable",
      "type": "function"
    },
    {
      "inputs": [],
      "name": "symbol",
      "outputs": [
        {
          "internalType": "string",
          "name": "",
          "type": "string"
        }
      ],
      "stateMutability": "view",
      "type": "function"
    },
    {
      "inputs": [],
      "name": "totalSupply",
      "outputs": [
        {
          "internalType": "uint256",
          "name": "",
          "type": "uint256"
        }
      ],
      "stateMutability": "view",
      "type": "function"
    },
    {
      "inputs": [
        {
          "internalType": "address",
          "name": "to",
          "type": "address"
        },
        {
          "internalType": "uint256",
          "name": "value",
          "type": "uint256"
        }
      ],
      "name": "transfer",
      "outputs": [
        {
          "internalType": "bool",
          "name": "",
          "type": "bool"
        }
      ],
      "stateMutability": "nonpayable",
      "type": "function"
    },
    {
      "inputs": [
        {
          "internalType": "address",
          "name": "from",
          "type": "address"
        },
        {
          "internalType": "address",
          "name": "to",
          "type": "address"
        },
        {
          "internalType": "uint256",
          "name": "value",
          "type": "uint256"
        }
      ],
      "name": "transferFrom",
      "outputs": [
        {
          "internalType": "bool",
          "name": "",
          "type": "bool"
        }
      ],
      "stateMutability": "nonpayable",
      "type": "function"
    },
    {
      "inputs": [
        {
          "internalType": "address",
          "name": "newOwner",
          "type": "address"
        }
      ],
      "name": "transferOwnership",
      "outputs": [],
      "stateMutability": "nonpayable",
      "type": "function"
    },
    {
      "inputs": [
        {
          "internalType": "address",
          "name": "_account",
          "type": "address"
        }
      ],
      "name": "unBlacklist",
      "outputs": [],
      "stateMutability": "nonpayable",
      "type": "function"
    },
    {
      "inputs": [],
      "name": "unpause",
      "outputs": [],
      "stateMutability": "nonpayable",
      "type": "function"
    },
    {
      "inputs": [
        {
          "internalType": "address",
          "name": "_newBlacklister",
          "type": "address"
        }
      ],
      "name": "updateBlacklister",
      "outputs": [],
      "stateMutability": "nonpayable",
      "type": "function"
    },
    {
      "inputs": [
        {
          "internalType": "address",
          "name": "_newMasterMinter",
          "type": "address"
        }
      ],
      "name": "updateMasterMinter",
      "outputs": [],
      "stateMutability": "nonpayable",
      "type": "function"
    },
    {
      "inputs": [
        {
          "internalType": "address",
          "name": "_newPauser",
          "type": "address"
        }
      ],
      "name": "updatePauser",
      "outputs": [],
      "stateMutability": "nonpayable",
      "type": "function"
    }
  ],
  "bytecode": "0x60806040526000600160146101000a81548160ff0219169083151502179055506000600b553480156200003157600080fd5b5062000043336200004960201b60201c565b6200008c565b806000806101000a81548173ffffffffffffffffffffffffffffffffffffffff021916908373ffffffffffffffffffffffffffffffffffffffff16021790555050565b6142b2806200009c6000396000f3fe608060405234801561001057600080fd5b50600436106101e55760003560e01c806370a082311161010f578063aa271e1a116100a2578063e5a6b10f11610071578063e5a6b10f14610bd8578063f2fde38b14610c5b578063f9f92be414610c9f578063fe575a8714610ce3576101e5565b8063aa271e1a14610a8e578063ad38bf2214610ae8578063bd10243014610b2c578063dd62ed3e14610b60576101e5565b806395d89b41116100de57806395d89b411461092f5780639fd0506d146109b2578063a9059cbb146109e6578063aa20e1e414610a4a576101e5565b806370a08231146108415780638456cb59146108995780638a6db9c3146108a35780638da5cb5b146108fb576101e5565b80633357162b1161018757806342966c681161015657806342966c681461074b5780634e44d95614610779578063554bab3c146107dd5780635c975abb14610821576101e5565b80633357162b1461043257806335d99f35146106a95780633f4ba83a146106dd57806340c10f19146106e7576101e5565b80631a895266116101c35780631a895266146102ef57806323b872dd146103335780633092afd5146103b7578063313ce56714610411576101e5565b806306fdde03146101ea578063095ea7b31461026d57806318160ddd146102d1575b600080fd5b6101f2610d3d565b6040518080602001828103825283818151815260200191508051906020019080838360005b83811015610232578082015181840152602081019050610217565b50505050905090810190601f16801561025f5780820380516001836020036101000a031916815260200191505b509250505060405180910390f35b6102b96004803603604081101561028357600080fd5b81019080803573ffffffffffffffffffffffffffffffffffffffff16906020019092919080359060200190929190505050610ddb565b60405180821515815260200191505060405180910390f35b6102d9610fbf565b6040518082815260200191505060405180910390f35b6103316004803603602081101561030557600080fd5b81019080803573ffffffffffffffffffffffffffffffffffffffff169060200190929190505050610fc9565b005b61039f6004803603606081101561034957600080fd5b81019080803573ffffffffffffffffffffffffffffffffffffffff169060200190929190803573ffffffffffffffffffffffffffffffffffffffff1690602001909291908035906020019092919050505061110d565b60405180821515815260200191505060405180910390f35b6103f9600480360360208110156103cd57600080fd5b81019080803573ffffffffffffffffffffffffffffffffffffffff16906020019092919050505061157b565b60405180821515815260200191505060405180910390f35b61041961170c565b604051808260ff16815260200191505060405180910390f35b6106a7600480360361010081101561044957600080fd5b810190808035906020019064010000000081111561046657600080fd5b82018360208201111561047857600080fd5b8035906020019184600183028401116401000000008311171561049a57600080fd5b91908080601f016020809104026020016040519081016040528093929190818152602001838380828437600081840152601f19601f820116905080830192505050505050509192919290803590602001906401000000008111156104fd57600080fd5b82018360208201111561050f57600080fd5b8035906020019184600183028401116401000000008311171561053157600080fd5b91908080601f016020809104026020016040519081016040528093929190818152602001838380828437600081840152601f19601f8201169050808301925050505050505091929192908035906020019064010000000081111561059457600080fd5b8201836020820111156105a657600080fd5b803590602001918460018302840111640100000000831117156105c857600080fd5b91908080601f016020809104026020016040519081016040528093929190818152602001838380828437600081840152601f19601f820116905080830192505050505050509192919290803560ff169060200190929190803573ffffffffffffffffffffffffffffffffffffffff169060200190929190803573ffffffffffffffffffffffffffffffffffffffff169060200190929190803573ffffffffffffffffffffffffffffffffffffffff169060200190929190803573ffffffffffffffffffffffffffffffffffffffff16906020019092919050505061171f565b005b6106b1611aee565b604051808273ffffffffffffffffffffffffffffffffffffffff16815260200191505060405180910390f35b6106e5611b14565b005b610733600480360360408110156106fd57600080fd5b81019080803573ffffffffffffffffffffffffffffffffffffffff16906020019092919080359060200190929190505050611c03565b60405180821515815260200191505060405180910390f35b6107776004803603602081101561076157600080fd5b81019080803590602001909291905050506121cc565b005b6107c56004803603604081101561078f57600080fd5b81019080803573ffffffffffffffffffffffffffffffffffffffff169060200190929190803590602001909291905050506125b5565b60405180821515815260200191505060405180910390f35b61081f600480360360208110156107f357600080fd5b81019080803573ffffffffffffffffffffffffffffffffffffffff1690602001909291905050506127d4565b005b6108296129c4565b60405180821515815260200191505060405180910390f35b6108836004803603602081101561085757600080fd5b81019080803573ffffffffffffffffffffffffffffffffffffffff1690602001909291905050506129d7565b6040518082815260200191505060405180910390f35b6108a1612a20565b005b6108e5600480360360208110156108b957600080fd5b81019080803573ffffffffffffffffffffffffffffffffffffffff169060200190929190505050612b0e565b6040518082815260200191505060405180910390f35b610903612b57565b604051808273ffffffffffffffffffffffffffffffffffffffff16815260200191505060405180910390f35b610937612b80565b6040518080602001828103825283818151815260200191508051906020019080838360005b8381101561097757808201518184015260208101905061095c565b50505050905090810190601f1680156109a45780820380516001836020036101000a031916815260200191505b509250505060405180910390f35b6109ba612c1e565b604051808273ffffffffffffffffffffffffffffffffffffffff16815260200191505060405180910390f35b610a32600480360360408110156109fc57600080fd5b81019080803573ffffffffffffffffffffffffffffffffffffffff16906020019092919080359060200190929190505050612c44565b60405180821515815260200191505060405180910390f35b610a8c60048036036020811015610a6057600080fd5b81019080803573ffffffffffffffffffffffffffffffffffffffff169060200190929190505050612e28565b005b610ad060048036036020811015610aa457600080fd5b81019080803573ffffffffffffffffffffffffffffffffffffffff169060200190929190505050613018565b60405180821515815260200191505060405180910390f35b610b2a60048036036020811015610afe57600080fd5b81019080803573ffffffffffffffffffffffffffffffffffffffff16906020019092919050505061306e565b005b610b3461325e565b604051808273ffffffffffffffffffffffffffffffffffffffff16815260200191505060405180910390f35b610bc260048036036040811015610b7657600080fd5b81019080803573ffffffffffffffffffffffffffffffffffffffff169060200190929190803573ffffffffffffffffffffffffffffffffffffffff169060200190929190505050613284565b6040518082815260200191505060405180910390f35b610be061330b565b6040518080602001828103825283818151815260200191508051906020019080838360005b83811015610c20578082015181840152602081019050610c05565b50505050905090810190601f168015610c4d5780820380516001836020036101000a031916815260200191505b509250505060405180910390f35b610c9d60048036036020811015610c7157600080fd5b81019080803573ffffffffffffffffffffffffffffffffffffffff1690602001909291905050506133a9565b005b610ce160048036036020811015610cb557600080fd5b81019080803573ffffffffffffffffffffffffffffffffffffffff169060200190929190505050613587565b005b610d2560048036036020811015610cf957600080fd5b81019080803573ffffffffffffffffffffffffffffffffffffffff1690602001909291905050506136cb565b60405180821515815260200191505060405180910390f35b60048054600181600116156101000203166002900480601f016020809104026020016040519081016040528092919081815260200182805460018160011615610100020316600290048015610dd35780601f10610da857610100808354040283529160200191610dd3565b820191906000526020600020905b815481529060010190602001808311610db657829003601f168201915b505050505081565b6000600160149054906101000a900460ff1615610e60576040517f08c379a00000000000000000000000000000000000000000000000000000000081526004018080602001828103825260108152602001807f5061757361626c653a207061757365640000000000000000000000000000000081525060200191505060405180910390fd5b33600360008273ffffffffffffffffffffffffffffffffffffffff1673ffffffffffffffffffffffffffffffffffffffff16815260200190815260200160002060009054906101000a900460ff1615610f04576040517f08c379a00000000000000000000000000000000000000000000000000000000081526004018080602001828103825260258152602001806142586025913960400191505060405180910390fd5b83600360008273ffffffffffffffffffffffffffffffffffffffff1673ffffffffffffffffffffffffffffffffffffffff16815260200190815260200160002060009054906101000a900460ff1615610fa8576040517f08c379a00000000000000000000000000000000000000000000000000000000081526004018080602001828103825260258152602001806142586025913960400191505060405180910390fd5b610fb3338686613721565b60019250505092915050565b6000600b54905090565b600260009054906101000a900473ffffffffffffffffffffffffffffffffffffffff1673ffffffffffffffffffffffffffffffffffffffff163373ffffffffffffffffffffffffffffffffffffffff161461106f576040517f08c379a000000000000000000000000000000000000000000000000000000000815260040180806020018281038252602c815260200180614043602c913960400191505060405180910390fd5b6000600360008373ffffffffffffffffffffffffffffffffffffffff1673ffffffffffffffffffffffffffffffffffffffff16815260200190815260200160002060006101000a81548160ff0219169083151502179055508073ffffffffffffffffffffffffffffffffffffffff167f117e3210bb9aa7d9baff172026820255c6f6c30ba8999d1c2fd88e2848137c4e60405160405180910390a250565b6000600160149054906101000a900460ff1615611192576040517f08c379a00000000000000000000000000000000000000000000000000000000081526004018080602001828103825260108152602001807f5061757361626c653a207061757365640000000000000000000000000000000081525060200191505060405180910390fd5b33600360008273ffffffffffffffffffffffffffffffffffffffff1673ffffffffffffffffffffffffffffffffffffffff16815260200190815260200160002060009054906101000a900460ff1615611236576040517f08c379a00000000000000000000000000000000000000000000000000000000081526004018080602001828103825260258152602001806142586025913960400191505060405180910390fd5b84600360008273ffffffffffffffffffffffffffffffffffffffff1673ffffffffffffffffffffffffffffffffffffffff16815260200190815260200160002060009054906101000a900460ff16156112da576040517f08c379a00000000000000000000000000000000000000000000000000000000081526004018080602001828103825260258152602001806142586025913960400191505060405180910390fd5b84600360008273ffffffffffffffffffffffffffffffffffffffff1673ffffffffffffffffffffffffffffffffffffffff16815260200190815260200160002060009054906101000a900460ff161561137e576040517f08c379a00000000000000000000000000000000000000000000000000000000081526004018080602001828103825260258152602001806142586025913960400191505060405180910390fd5b600a60008873ffffffffffffffffffffffffffffffffffffffff1673ffffffffffffffffffffffffffffffffffffffff16815260200190815260200160002060003373ffffffffffffffffffffffffffffffffffffffff1673ffffffffffffffffffffffffffffffffffffffff16815260200190815260200160002054851115611453576040517f08c379a00000000000000000000000000000000000000000000000000000000081526004018080602001828103825260288152602001806140e56028913960400191505060405180910390fd5b61145e878787613918565b6114ed85600a60008a73ffffffffffffffffffffffffffffffffffffffff1673ffffffffffffffffffffffffffffffffffffffff16815260200190815260200160002060003373ffffffffffffffffffffffffffffffffffffffff1673ffffffffffffffffffffffffffffffffffffffff16815260200190815260200160002054613c5090919063ffffffff16565b600a60008973ffffffffffffffffffffffffffffffffffffffff1673ffffffffffffffffffffffffffffffffffffffff16815260200190815260200160002060003373ffffffffffffffffffffffffffffffffffffffff1673ffffffffffffffffffffffffffffffffffffffff16815260200190815260200160002081905550600193505050509392505050565b6000600860009054906101000a900473ffffffffffffffffffffffffffffffffffffffff1673ffffffffffffffffffffffffffffffffffffffff163373ffffffffffffffffffffffffffffffffffffffff1614611623576040517f08c379a000000000000000000000000000000000000000000000000000000000815260040180806020018281038252602981526020018061401a6029913960400191505060405180910390fd5b6000600c60008473ffffffffffffffffffffffffffffffffffffffff1673ffffffffffffffffffffffffffffffffffffffff16815260200190815260200160002060006101000a81548160ff0219169083151502179055506000600d60008473ffffffffffffffffffffffffffffffffffffffff1673ffffffffffffffffffffffffffffffffffffffff168152602001908152602001600020819055508173ffffffffffffffffffffffffffffffffffffffff167fe94479a9f7e1952cc78f2d6baab678adc1b772d936c6583def489e524cb6669260405160405180910390a260019050919050565b600660009054906101000a900460ff1681565b600860149054906101000a900460ff1615611785576040517f08c379a000000000000000000000000000000000000000000000000000000000815260040180806020018281038252602a81526020018061413b602a913960400191505060405180910390fd5b600073ffffffffffffffffffffffffffffffffffffffff168473ffffffffffffffffffffffffffffffffffffffff16141561180b576040517f08c379a000000000000000000000000000000000000000000000000000000000815260040180806020018281038252602f8152602001806140b6602f913960400191505060405180910390fd5b600073ffffffffffffffffffffffffffffffffffffffff168373ffffffffffffffffffffffffffffffffffffffff161415611891576040517f08c379a0000000000000000000000000000000000000000000000000000000008152600401808060200182810382526029815260200180613fa26029913960400191505060405180910390fd5b600073ffffffffffffffffffffffffffffffffffffffff168273ffffffffffffffffffffffffffffffffffffffff161415611917576040517f08c379a000000000000000000000000000000000000000000000000000000000815260040180806020018281038252602e81526020018061410d602e913960400191505060405180910390fd5b600073ffffffffffffffffffffffffffffffffffffffff168173ffffffffffffffffffffffffffffffffffffffff16141561199d576040517f08c379a00000000000000000000000000000000000000000000000000000000081526004018080602001828103825260288152602001806141fe6028913960400191505060405180910390fd5b87600490805190602001906119b3929190613e25565b5086600590805190602001906119ca929190613e25565b5085600790805190602001906119e1929190613e25565b5084600660006101000a81548160ff021916908360ff16021790555083600860006101000a81548173ffffffffffffffffffffffffffffffffffffffff021916908373ffffffffffffffffffffffffffffffffffffffff16021790555082600160006101000a81548173ffffffffffffffffffffffffffffffffffffffff021916908373ffffffffffffffffffffffffffffffffffffffff16021790555081600260006101000a81548173ffffffffffffffffffffffffffffffffffffffff021916908373ffffffffffffffffffffffffffffffffffffffff160217905550611ac981613c9a565b6001600860146101000a81548160ff0219169083151502179055505050505050505050565b600860009054906101000a900473ffffffffffffffffffffffffffffffffffffffff1681565b600160009054906101000a900473ffffffffffffffffffffffffffffffffffffffff1673ffffffffffffffffffffffffffffffffffffffff163373ffffffffffffffffffffffffffffffffffffffff1614611bba576040517f08c379a00000000000000000000000000000000000000000000000000000000081526004018080602001828103825260228152602001806141dc6022913960400191505060405180910390fd5b6000600160146101000a81548160ff0219169083151502179055507f7805862f689e2f13df9f062ff482ad3ad112aca9e0847911ed832e158c525b3360405160405180910390a1565b6000600160149054906101000a900460ff1615611c88576040517f08c379a00000000000000000000000000000000000000000000000000000000081526004018080602001828103825260108152602001807f5061757361626c653a207061757365640000000000000000000000000000000081525060200191505060405180910390fd5b600c60003373ffffffffffffffffffffffffffffffffffffffff1673ffffffffffffffffffffffffffffffffffffffff16815260200190815260200160002060009054906101000a900460ff16611d2a576040517f08c379a00000000000000000000000000000000000000000000000000000000081526004018080602001828103825260218152602001806140956021913960400191505060405180910390fd5b33600360008273ffffffffffffffffffffffffffffffffffffffff1673ffffffffffffffffffffffffffffffffffffffff16815260200190815260200160002060009054906101000a900460ff1615611dce576040517f08c379a00000000000000000000000000000000000000000000000000000000081526004018080602001828103825260258152602001806142586025913960400191505060405180910390fd5b83600360008273ffffffffffffffffffffffffffffffffffffffff1673ffffffffffffffffffffffffffffffffffffffff16815260200190815260200160002060009054906101000a900460ff1615611e72576040517f08c379a00000000000000000000000000000000000000000000000000000000081526004018080602001828103825260258152602001806142586025913960400191505060405180910390fd5b600073ffffffffffffffffffffffffffffffffffffffff168573ffffffffffffffffffffffffffffffffffffffff161415611ef8576040517f08c379a0000000000000000000000000000000000000000000000000000000008152600401808060200182810382526023815260200180613f376023913960400191505060405180910390fd5b60008411611f51576040517f08c379a0000000000000000000000000000000000000000000000000000000008152600401808060200182810382526029815260200180613fcb6029913960400191505060405180910390fd5b6000600d60003373ffffffffffffffffffffffffffffffffffffffff1673ffffffffffffffffffffffffffffffffffffffff16815260200190815260200160002054905080851115611fee576040517f08c379a000000000000000000000000000000000000000000000000000000000815260040180806020018281038252602e8152602001806141ae602e913960400191505060405180910390fd5b61200385600b54613cdd90919063ffffffff16565b600b8190555061205b85600960008973ffffffffffffffffffffffffffffffffffffffff1673ffffffffffffffffffffffffffffffffffffffff16815260200190815260200160002054613cdd90919063ffffffff16565b600960008873ffffffffffffffffffffffffffffffffffffffff1673ffffffffffffffffffffffffffffffffffffffff168152602001908152602001600020819055506120b18582613c5090919063ffffffff16565b600d60003373ffffffffffffffffffffffffffffffffffffffff1673ffffffffffffffffffffffffffffffffffffffff168152602001908152602001600020819055508573ffffffffffffffffffffffffffffffffffffffff163373ffffffffffffffffffffffffffffffffffffffff167fab8530f87dc9b59234c4623bf917212bb2536d647574c8e7e5da92c2ede0c9f8876040518082815260200191505060405180910390a38573ffffffffffffffffffffffffffffffffffffffff16600073ffffffffffffffffffffffffffffffffffffffff167fddf252ad1be2c89b69c2b068fc378daa952ba7f163c4a11628f55a4df523b3ef876040518082815260200191505060405180910390a36001935050505092915050565b600160149054906101000a900460ff161561224f576040517f08c379a00000000000000000000000000000000000000000000000000000000081526004018080602001828103825260108152602001807f5061757361626c653a207061757365640000000000000000000000000000000081525060200191505060405180910390fd5b600c60003373ffffffffffffffffffffffffffffffffffffffff1673ffffffffffffffffffffffffffffffffffffffff16815260200190815260200160002060009054906101000a900460ff166122f1576040517f08c379a00000000000000000000000000000000000000000000000000000000081526004018080602001828103825260218152602001806140956021913960400191505060405180910390fd5b33600360008273ffffffffffffffffffffffffffffffffffffffff1673ffffffffffffffffffffffffffffffffffffffff16815260200190815260200160002060009054906101000a900460ff1615612395576040517f08c379a00000000000000000000000000000000000000000000000000000000081526004018080602001828103825260258152602001806142586025913960400191505060405180910390fd5b6000600960003373ffffffffffffffffffffffffffffffffffffffff1673ffffffffffffffffffffffffffffffffffffffff16815260200190815260200160002054905060008311612432576040517f08c379a0000000000000000000000000000000000000000000000000000000008152600401808060200182810382526029815260200180613f0e6029913960400191505060405180910390fd5b8281101561248b576040517f08c379a000000000000000000000000000000000000000000000000000000000815260040180806020018281038252602681526020018061406f6026913960400191505060405180910390fd5b6124a083600b54613c5090919063ffffffff16565b600b819055506124b98382613c5090919063ffffffff16565b600960003373ffffffffffffffffffffffffffffffffffffffff1673ffffffffffffffffffffffffffffffffffffffff168152602001908152602001600020819055503373ffffffffffffffffffffffffffffffffffffffff167fcc16f5dbb4873280815c1ee09dbd06736cffcc184412cf7a71a0fdb75d397ca5846040518082815260200191505060405180910390a2600073ffffffffffffffffffffffffffffffffffffffff163373ffffffffffffffffffffffffffffffffffffffff167fddf252ad1be2c89b69c2b068fc378daa952ba7f163c4a11628f55a4df523b3ef856040518082815260200191505060405180910390a3505050565b6000600160149054906101000a900460ff161561263a576040517f08c379a00000000000000000000000000000000000000000000000000000000081526004018080602001828103825260108152602001807f5061757361626c653a207061757365640000000000000000000000000000000081525060200191505060405180910390fd5b600860009054906101000a900473ffffffffffffffffffffffffffffffffffffffff1673ffffffffffffffffffffffffffffffffffffffff163373ffffffffffffffffffffffffffffffffffffffff16146126e0576040517f08c379a000000000000000000000000000000000000000000000000000000000815260040180806020018281038252602981526020018061401a6029913960400191505060405180910390fd5b6001600c60008573ffffffffffffffffffffffffffffffffffffffff1673ffffffffffffffffffffffffffffffffffffffff16815260200190815260200160002060006101000a81548160ff02191690831515021790555081600d60008573ffffffffffffffffffffffffffffffffffffffff1673ffffffffffffffffffffffffffffffffffffffff168152602001908152602001600020819055508273ffffffffffffffffffffffffffffffffffffffff167f46980fca912ef9bcdbd36877427b6b90e860769f604e89c0e67720cece530d20836040518082815260200191505060405180910390a26001905092915050565b60008054906101000a900473ffffffffffffffffffffffffffffffffffffffff1673ffffffffffffffffffffffffffffffffffffffff163373ffffffffffffffffffffffffffffffffffffffff1614612895576040517f08c379a00000000000000000000000000000000000000000000000000000000081526004018080602001828103825260208152602001807f4f776e61626c653a2063616c6c6572206973206e6f7420746865206f776e657281525060200191505060405180910390fd5b600073ffffffffffffffffffffffffffffffffffffffff168173ffffffffffffffffffffffffffffffffffffffff16141561291b576040517f08c379a0000000000000000000000000000000000000000000000000000000008152600401808060200182810382526028815260200180613ee66028913960400191505060405180910390fd5b80600160006101000a81548173ffffffffffffffffffffffffffffffffffffffff021916908373ffffffffffffffffffffffffffffffffffffffff160217905550600160009054906101000a900473ffffffffffffffffffffffffffffffffffffffff1673ffffffffffffffffffffffffffffffffffffffff167fb80482a293ca2e013eda8683c9bd7fc8347cfdaeea5ede58cba46df502c2a60460405160405180910390a250565b600160149054906101000a900460ff1681565b6000600960008373ffffffffffffffffffffffffffffffffffffffff1673ffffffffffffffffffffffffffffffffffffffff168152602001908152602001600020549050919050565b600160009054906101000a900473ffffffffffffffffffffffffffffffffffffffff1673ffffffffffffffffffffffffffffffffffffffff163373ffffffffffffffffffffffffffffffffffffffff1614612ac6576040517f08c379a00000000000000000000000000000000000000000000000000000000081526004018080602001828103825260228152602001806141dc6022913960400191505060405180910390fd5b60018060146101000a81548160ff0219169083151502179055507f6985a02210a168e66602d3235cb6db0e70f92b3ba4d376a33c0f3d9434bff62560405160405180910390a1565b6000600d60008373ffffffffffffffffffffffffffffffffffffffff1673ffffffffffffffffffffffffffffffffffffffff168152602001908152602001600020549050919050565b60008060009054906101000a900473ffffffffffffffffffffffffffffffffffffffff16905090565b60058054600181600116156101000203166002900480601f016020809104026020016040519081016040528092919081815260200182805460018160011615610100020316600290048015612c165780601f10612beb57610100808354040283529160200191612c16565b820191906000526020600020905b815481529060010190602001808311612bf957829003601f168201915b505050505081565b600160009054906101000a900473ffffffffffffffffffffffffffffffffffffffff1681565b6000600160149054906101000a900460ff1615612cc9576040517f08c379a00000000000000000000000000000000000000000000000000000000081526004018080602001828103825260108152602001807f5061757361626c653a207061757365640000000000000000000000000000000081525060200191505060405180910390fd5b33600360008273ffffffffffffffffffffffffffffffffffffffff1673ffffffffffffffffffffffffffffffffffffffff16815260200190815260200160002060009054906101000a900460ff1615612d6d576040517f08c379a00000000000000000000000000000000000000000000000000000000081526004018080602001828103825260258152602001806142586025913960400191505060405180910390fd5b83600360008273ffffffffffffffffffffffffffffffffffffffff1673ffffffffffffffffffffffffffffffffffffffff16815260200190815260200160002060009054906101000a900460ff1615612e11576040517f08c379a00000000000000000000000000000000000000000000000000000000081526004018080602001828103825260258152602001806142586025913960400191505060405180910390fd5b612e1c338686613918565b60019250505092915050565b60008054906101000a900473ffffffffffffffffffffffffffffffffffffffff1673ffffffffffffffffffffffffffffffffffffffff163373ffffffffffffffffffffffffffffffffffffffff1614612ee9576040517f08c379a00000000000000000000000000000000000000000000000000000000081526004018080602001828103825260208152602001807f4f776e61626c653a2063616c6c6572206973206e6f7420746865206f776e657281525060200191505060405180910390fd5b600073ffffffffffffffffffffffffffffffffffffffff168173ffffffffffffffffffffffffffffffffffffffff161415612f6f576040517f08c379a000000000000000000000000000000000000000000000000000000000815260040180806020018281038252602f8152602001806140b6602f913960400191505060405180910390fd5b80600860006101000a81548173ffffffffffffffffffffffffffffffffffffffff021916908373ffffffffffffffffffffffffffffffffffffffff160217905550600860009054906101000a900473ffffffffffffffffffffffffffffffffffffffff1673ffffffffffffffffffffffffffffffffffffffff167fdb66dfa9c6b8f5226fe9aac7e51897ae8ee94ac31dc70bb6c9900b2574b707e660405160405180910390a250565b6000600c60008373ffffffffffffffffffffffffffffffffffffffff1673ffffffffffffffffffffffffffffffffffffffff16815260200190815260200160002060009054906101000a900460ff169050919050565b60008054906101000a900473ffffffffffffffffffffffffffffffffffffffff1673ffffffffffffffffffffffffffffffffffffffff163373ffffffffffffffffffffffffffffffffffffffff161461312f576040517f08c379a00000000000000000000000000000000000000000000000000000000081526004018080602001828103825260208152602001807f4f776e61626c653a2063616c6c6572206973206e6f7420746865206f776e657281525060200191505060405180910390fd5b600073ffffffffffffffffffffffffffffffffffffffff168173ffffffffffffffffffffffffffffffffffffffff1614156131b5576040517f08c379a00000000000000000000000000000000000000000000000000000000081526004018080602001828103825260328152602001806142266032913960400191505060405180910390fd5b80600260006101000a81548173ffffffffffffffffffffffffffffffffffffffff021916908373ffffffffffffffffffffffffffffffffffffffff160217905550600260009054906101000a900473ffffffffffffffffffffffffffffffffffffffff1673ffffffffffffffffffffffffffffffffffffffff167fc67398012c111ce95ecb7429b933096c977380ee6c421175a71a4a4c6c88c06e60405160405180910390a250565b600260009054906101000a900473ffffffffffffffffffffffffffffffffffffffff1681565b6000600a60008473ffffffffffffffffffffffffffffffffffffffff1673ffffffffffffffffffffffffffffffffffffffff16815260200190815260200160002060008373ffffffffffffffffffffffffffffffffffffffff1673ffffffffffffffffffffffffffffffffffffffff16815260200190815260200160002054905092915050565b60078054600181600116156101000203166002900480601f0160208091040260200160405190810160405280929190818152602001828054600181600116156101000203166002900480156133a15780601f10613376576101008083540402835291602001916133a1565b820191906000526020600020905b81548152906001019060200180831161338457829003601f168201915b505050505081565b60008054906101000a900473ffffffffffffffffffffffffffffffffffffffff1673ffffffffffffffffffffffffffffffffffffffff163373ffffffffffffffffffffffffffffffffffffffff161461346a576040517f08c379a00000000000000000000000000000000000000000000000000000000081526004018080602001828103825260208152602001807f4f776e61626c653a2063616c6c6572206973206e6f7420746865206f776e657281525060200191505060405180910390fd5b600073ffffffffffffffffffffffffffffffffffffffff168173ffffffffffffffffffffffffffffffffffffffff1614156134f0576040517f08c379a0000000000000000000000000000000000000000000000000000000008152600401808060200182810382526026815260200180613f5a6026913960400191505060405180910390fd5b7f8be0079c531659141344cd1fd0a4f28419497f9722a3daafe3b4186f6b6457e060008054906101000a900473ffffffffffffffffffffffffffffffffffffffff1682604051808373ffffffffffffffffffffffffffffffffffffffff1681526020018273ffffffffffffffffffffffffffffffffffffffff1681526020019250505060405180910390a161358481613c9a565b50565b600260009054906101000a900473ffffffffffffffffffffffffffffffffffffffff1673ffffffffffffffffffffffffffffffffffffffff163373ffffffffffffffffffffffffffffffffffffffff161461362d576040517f08c379a000000000000000000000000000000000000000000000000000000000815260040180806020018281038252602c815260200180614043602c913960400191505060405180910390fd5b6001600360008373ffffffffffffffffffffffffffffffffffffffff1673ffffffffffffffffffffffffffffffffffffffff16815260200190815260200160002060006101000a81548160ff0219169083151502179055508073ffffffffffffffffffffffffffffffffffffffff167fffa4e6181777692565cf28528fc88fd1516ea86b56da075235fa575af6a4b85560405160405180910390a250565b6000600360008373ffffffffffffffffffffffffffffffffffffffff1673ffffffffffffffffffffffffffffffffffffffff16815260200190815260200160002060009054906101000a900460ff169050919050565b600073ffffffffffffffffffffffffffffffffffffffff168373ffffffffffffffffffffffffffffffffffffffff1614156137a7576040517f08c379a000000000000000000000000000000000000000000000000000000000815260040180806020018281038252602481526020018061418a6024913960400191505060405180910390fd5b600073ffffffffffffffffffffffffffffffffffffffff168273ffffffffffffffffffffffffffffffffffffffff16141561382d576040517f08c379a0000000000000000000000000000000000000000000000000000000008152600401808060200182810382526022815260200180613f806022913960400191505060405180910390fd5b80600a60008573ffffffffffffffffffffffffffffffffffffffff1673ffffffffffffffffffffffffffffffffffffffff16815260200190815260200160002060008473ffffffffffffffffffffffffffffffffffffffff1673ffffffffffffffffffffffffffffffffffffffff168152602001908152602001600020819055508173ffffffffffffffffffffffffffffffffffffffff168373ffffffffffffffffffffffffffffffffffffffff167f8c5be1e5ebec7d5bd14f71427d1e84f3dd0314c0f7b2291e5b200ac8c7c3b925836040518082815260200191505060405180910390a3505050565b600073ffffffffffffffffffffffffffffffffffffffff168373ffffffffffffffffffffffffffffffffffffffff16141561399e576040517f08c379a00000000000000000000000000000000000000000000000000000000081526004018080602001828103825260258152602001806141656025913960400191505060405180910390fd5b600073ffffffffffffffffffffffffffffffffffffffff168273ffffffffffffffffffffffffffffffffffffffff161415613a24576040517f08c379a0000000000000000000000000000000000000000000000000000000008152600401808060200182810382526023815260200180613ec36023913960400191505060405180910390fd5b600960008473ffffffffffffffffffffffffffffffffffffffff1673ffffffffffffffffffffffffffffffffffffffff16815260200190815260200160002054811115613abc576040517f08c379a0000000000000000000000000000000000000000000000000000000008152600401808060200182810382526026815260200180613ff46026913960400191505060405180910390fd5b613b0e81600960008673ffffffffffffffffffffffffffffffffffffffff1673ffffffffffffffffffffffffffffffffffffffff16815260200190815260200160002054613c5090919063ffffffff16565b600960008573ffffffffffffffffffffffffffffffffffffffff1673ffffffffffffffffffffffffffffffffffffffff16815260200190815260200160002081905550613ba381600960008573ffffffffffffffffffffffffffffffffffffffff1673ffffffffffffffffffffffffffffffffffffffff16815260200190815260200160002054613cdd90919063ffffffff16565b600960008473ffffffffffffffffffffffffffffffffffffffff1673ffffffffffffffffffffffffffffffffffffffff168152602001908152602001600020819055508173ffffffffffffffffffffffffffffffffffffffff168373ffffffffffffffffffffffffffffffffffffffff167fddf252ad1be2c89b69c2b068fc378daa952ba7f163c4a11628f55a4df523b3ef836040518082815260200191505060405180910390a3505050565b6000613c9283836040518060400160405280601e81526020017f536166654d6174683a207375627472616374696f6e206f766572666c6f770000815250613d65565b905092915050565b806000806101000a81548173ffffffffffffffffffffffffffffffffffffffff021916908373ffffffffffffffffffffffffffffffffffffffff16021790555050565b600080828401905083811015613d5b576040517f08c379a000000000000000000000000000000000000000000000000000000000815260040180806020018281038252601b8152602001807f536166654d6174683a206164646974696f6e206f766572666c6f77000000000081525060200191505060405180910390fd5b8091505092915050565b6000838311158290613e12576040517f08c379a00000000000000000000000000000000000000000000000000000000081526004018080602001828103825283818151815260200191508051906020019080838360005b83811015613dd7578082015181840152602081019050613dbc565b50505050905090810190601f168015613e045780820380516001836020036101000a031916815260200191505b509250505060405180910390fd5b5060008385039050809150509392505050565b828054600181600116156101000203166002900490600052602060002090601f016020900481019282601f10613e6657805160ff1916838001178555613e94565b82800160010185558215613e94579182015b82811115613e93578251825591602001919060010190613e78565b5b509050613ea19190613ea5565b5090565b5b80821115613ebe576000816000905550600101613ea6565b509056fe45524332303a207472616e7366657220746f20746865207a65726f20616464726573735061757361626c653a206e65772070617573657220697320746865207a65726f206164647265737346696174546f6b656e3a206275726e20616d6f756e74206e6f742067726561746572207468616e203046696174546f6b656e3a206d696e7420746f20746865207a65726f20616464726573734f776e61626c653a206e6577206f776e657220697320746865207a65726f206164647265737345524332303a20617070726f766520746f20746865207a65726f206164647265737346696174546f6b656e3a206e65772070617573657220697320746865207a65726f206164647265737346696174546f6b656e3a206d696e7420616d6f756e74206e6f742067726561746572207468616e203045524332303a207472616e7366657220616d6f756e7420657863656564732062616c616e636546696174546f6b656e3a2063616c6c6572206973206e6f7420746865206d61737465724d696e746572426c61636b6c69737461626c653a2063616c6c6572206973206e6f742074686520626c61636b6c697374657246696174546f6b656e3a206275726e20616d6f756e7420657863656564732062616c616e636546696174546f6b656e3a2063616c6c6572206973206e6f742061206d696e74657246696174546f6b656e3a206e6577206d61737465724d696e74657220697320746865207a65726f206164647265737345524332303a207472616e7366657220616d6f756e74206578636565647320616c6c6f77616e636546696174546f6b656e3a206e657720626c61636b6c697374657220697320746865207a65726f206164647265737346696174546f6b656e3a20636f6e747261637420697320616c726561647920696e697469616c697a656445524332303a207472616e736665722066726f6d20746865207a65726f206164647265737345524332303a20617070726f76652066726f6d20746865207a65726f206164647265737346696174546f6b656e3a206d696e7420616d6f756e742065786365656473206d696e746572416c6c6f77616e63655061757361626c653a2063616c6c6572206973206e6f74207468652070617573657246696174546f6b656e3a206e6577206f776e657220697320746865207a65726f2061646472657373426c61636b6c69737461626c653a206e657720626c61636b6c697374657220697320746865207a65726f2061646472657373426c61636b6c69737461626c653a206163636f756e7420697320626c61636b6c6973746564a26469706673582212203208f453872b2375a62564cc051028d531225c771cd6b85228d44730633906ce64736f6c634300060c0033",
  "linkReferences": {},
  "deployedLinkReferences": {}
}