{
  "_format": "hh-sol-artifact-1",
  "contractName": "FiatTokenV2_1",
  "sourceName": "contracts/pool/USDC.sol",
  "abi": [
    {
      "anonymous": false,
      "inputs": [
        {
          "indexed": true,
          "internalType": "address",
          "name": "owner",
          "type": "address"
        },
        {
          "indexed": true,
          "internalType": "address",
          "name": "spender",
          "type": "address"
        },
        {
          "indexed": false,
          "internalType": "uint256",
          "name": "value",
          "type": "uint256"
        }
      ],
      "name": "Approval",
      "type": "event"
    },
    {
      "anonymous": false,
      "inputs": [
        {
          "indexed": true,
          "internalType": "address",
          "name": "authorizer",
          "type": "address"
        },
        {
          "indexed": true,
          "internalType": "bytes32",
          "name": "nonce",
          "type": "bytes32"
        }
      ],
      "name": "AuthorizationCanceled",
      "type": "event"
    },
    {
      "anonymous": false,
      "inputs": [
        {
          "indexed": true,
          "internalType": "address",
          "name": "authorizer",
          "type": "address"
        },
        {
          "indexed": true,
          "internalType": "bytes32",
          "name": "nonce",
          "type": "bytes32"
        }
      ],
      "name": "AuthorizationUsed",
      "type": "event"
    },
    {
      "anonymous": false,
      "inputs": [
        {
          "indexed": true,
          "internalType": "address",
          "name": "_account",
          "type": "address"
        }
      ],
      "name": "Blacklisted",
      "type": "event"
    },
    {
      "anonymous": false,
      "inputs": [
        {
          "indexed": true,
          "internalType": "address",
          "name": "newBlacklister",
          "type": "address"
        }
      ],
      "name": "BlacklisterChanged",
      "type": "event"
    },
    {
      "anonymous": false,
      "inputs": [
        {
          "indexed": true,
          "internalType": "address",
          "name": "burner",
          "type": "address"
        },
        {
          "indexed": false,
          "internalType": "uint256",
          "name": "amount",
          "type": "uint256"
        }
      ],
      "name": "Burn",
      "type": "event"
    },
    {
      "anonymous": false,
      "inputs": [
        {
          "indexed": true,
          "internalType": "address",
          "name": "newMasterMinter",
          "type": "address"
        }
      ],
      "name": "MasterMinterChanged",
      "type": "event"
    },
    {
      "anonymous": false,
      "inputs": [
        {
          "indexed": true,
          "internalType": "address",
          "name": "minter",
          "type": "address"
        },
        {
          "indexed": true,
          "internalType": "address",
          "name": "to",
          "type": "address"
        },
        {
          "indexed": false,
          "internalType": "uint256",
          "name": "amount",
          "type": "uint256"
        }
      ],
      "name": "Mint",
      "type": "event"
    },
    {
      "anonymous": false,
      "inputs": [
        {
          "indexed": true,
          "internalType": "address",
          "name": "minter",
          "type": "address"
        },
        {
          "indexed": false,
          "internalType": "uint256",
          "name": "minterAllowedAmount",
          "type": "uint256"
        }
      ],
      "name": "MinterConfigured",
      "type": "event"
    },
    {
      "anonymous": false,
      "inputs": [
        {
          "indexed": true,
          "internalType": "address",
          "name": "oldMinter",
          "type": "address"
        }
      ],
      "name": "MinterRemoved",
      "type": "event"
    },
    {
      "anonymous": false,
      "inputs": [
        {
          "indexed": false,
          "internalType": "address",
          "name": "previousOwner",
          "type": "address"
        },
        {
          "indexed": false,
          "internalType": "address",
          "name": "newOwner",
          "type": "address"
        }
      ],
      "name": "OwnershipTransferred",
      "type": "event"
    },
    {
      "anonymous": false,
      "inputs": [],
      "name": "Pause",
      "type": "event"
    },
    {
      "anonymous": false,
      "inputs": [
        {
          "indexed": true,
          "internalType": "address",
          "name": "newAddress",
          "type": "address"
        }
      ],
      "name": "PauserChanged",
      "type": "event"
    },
    {
      "anonymous": false,
      "inputs": [
        {
          "indexed": true,
          "internalType": "address",
          "name": "newRescuer",
          "type": "address"
        }
      ],
      "name": "RescuerChanged",
      "type": "event"
    },
    {
      "anonymous": false,
      "inputs": [
        {
          "indexed": true,
          "internalType": "address",
          "name": "from",
          "type": "address"
        },
        {
          "indexed": true,
          "internalType": "address",
          "name": "to",
          "type": "address"
        },
        {
          "indexed": false,
          "internalType": "uint256",
          "name": "value",
          "type": "uint256"
        }
      ],
      "name": "Transfer",
      "type": "event"
    },
    {
      "anonymous": false,
      "inputs": [
        {
          "indexed": true,
          "internalType": "address",
          "name": "_account",
          "type": "address"
        }
      ],
      "name": "UnBlacklisted",
      "type": "event"
    },
    {
      "anonymous": false,
      "inputs": [],
      "name": "Unpause",
      "type": "event"
    },
    {
      "inputs": [],
      "name": "CANCEL_AUTHORIZATION_TYPEHASH",
      "outputs": [
        {
          "internalType": "bytes32",
          "name": "",
          "type": "bytes32"
        }
      ],
      "stateMutability": "view",
      "type": "function"
    },
    {
      "inputs": [],
      "name": "DOMAIN_SEPARATOR",
      "outputs": [
        {
          "internalType": "bytes32",
          "name": "",
          "type": "bytes32"
        }
      ],
      "stateMutability": "view",
      "type": "function"
    },
    {
      "inputs": [],
      "name": "PERMIT_TYPEHASH",
      "outputs": [
        {
          "internalType": "bytes32",
          "name": "",
          "type": "bytes32"
        }
      ],
      "stateMutability": "view",
      "type": "function"
    },
    {
      "inputs": [],
      "name": "RECEIVE_WITH_AUTHORIZATION_TYPEHASH",
      "outputs": [
        {
          "internalType": "bytes32",
          "name": "",
          "type": "bytes32"
        }
      ],
      "stateMutability": "view",
      "type": "function"
    },
    {
      "inputs": [],
      "name": "TRANSFER_WITH_AUTHORIZATION_TYPEHASH",
      "outputs": [
        {
          "internalType": "bytes32",
          "name": "",
          "type": "bytes32"
        }
      ],
      "stateMutability": "view",
      "type": "function"
    },
    {
      "inputs": [
        {
          "internalType": "address",
          "name": "owner",
          "type": "address"
        },
        {
          "internalType": "address",
          "name": "spender",
          "type": "address"
        }
      ],
      "name": "allowance",
      "outputs": [
        {
          "internalType": "uint256",
          "name": "",
          "type": "uint256"
        }
      ],
      "stateMutability": "view",
      "type": "function"
    },
    {
      "inputs": [
        {
          "internalType": "address",
          "name": "spender",
          "type": "address"
        },
        {
          "internalType": "uint256",
          "name": "value",
          "type": "uint256"
        }
      ],
      "name": "approve",
      "outputs": [
        {
          "internalType": "bool",
          "name": "",
          "type": "bool"
        }
      ],
      "stateMutability": "nonpayable",
      "type": "function"
    },
    {
      "inputs": [
        {
          "internalType": "address",
          "name": "authorizer",
          "type": "address"
        },
        {
          "internalType": "bytes32",
          "name": "nonce",
          "type": "bytes32"
        }
      ],
      "name": "authorizationState",
      "outputs": [
        {
          "internalType": "bool",
          "name": "",
          "type": "bool"
        }
      ],
      "stateMutability": "view",
      "type": "function"
    },
    {
      "inputs": [
        {
          "internalType": "address",
          "name": "account",
          "type": "address"
        }
      ],
      "name": "balanceOf",
      "outputs": [
        {
          "internalType": "uint256",
          "name": "",
          "type": "uint256"
        }
      ],
      "stateMutability": "view",
      "type": "function"
    },
    {
      "inputs": [
        {
          "internalType": "address",
          "name": "_account",
          "type": "address"
        }
      ],
      "name": "blacklist",
      "outputs": [],
      "stateMutability": "nonpayable",
      "type": "function"
    },
    {
      "inputs": [],
      "name": "blacklister",
      "outputs": [
        {
          "internalType": "address",
          "name": "",
          "type": "address"
        }
      ],
      "stateMutability": "view",
      "type": "function"
    },
    {
      "inputs": [
        {
          "internalType": "uint256",
          "name": "_amount",
          "type": "uint256"
        }
      ],
      "name": "burn",
      "outputs": [],
      "stateMutability": "nonpayable",
      "type": "function"
    },
    {
      "inputs": [
        {
          "internalType": "address",
          "name": "authorizer",
          "type": "address"
        },
        {
          "internalType": "bytes32",
          "name": "nonce",
          "type": "bytes32"
        },
        {
          "internalType": "uint8",
          "name": "v",
          "type": "uint8"
        },
        {
          "internalType": "bytes32",
          "name": "r",
          "type": "bytes32"
        },
        {
          "internalType": "bytes32",
          "name": "s",
          "type": "bytes32"
        }
      ],
      "name": "cancelAuthorization",
      "outputs": [],
      "stateMutability": "nonpayable",
      "type": "function"
    },
    {
      "inputs": [
        {
          "internalType": "address",
          "name": "minter",
          "type": "address"
        },
        {
          "internalType": "uint256",
          "name": "minterAllowedAmount",
          "type": "uint256"
        }
      ],
      "name": "configureMinter",
      "outputs": [
        {
          "internalType": "bool",
          "name": "",
          "type": "bool"
        }
      ],
      "stateMutability": "nonpayable",
      "type": "function"
    },
    {
      "inputs": [],
      "name": "currency",
      "outputs": [
        {
          "internalType": "string",
          "name": "",
          "type": "string"
        }
      ],
      "stateMutability": "view",
      "type": "function"
    },
    {
      "inputs": [],
      "name": "decimals",
      "outputs": [
        {
          "internalType": "uint8",
          "name": "",
          "type": "uint8"
        }
      ],
      "stateMutability": "view",
      "type": "function"
    },
    {
      "inputs": [
        {
          "internalType": "address",
          "name": "spender",
          "type": "address"
        },
        {
          "internalType": "uint256",
          "name": "decrement",
          "type": "uint256"
        }
      ],
      "name": "decreaseAllowance",
      "outputs": [
        {
          "internalType": "bool",
          "name": "",
          "type": "bool"
        }
      ],
      "stateMutability": "nonpayable",
      "type": "function"
    },
    {
      "inputs": [
        {
          "internalType": "address",
          "name": "spender",
          "type": "address"
        },
        {
          "internalType": "uint256",
          "name": "increment",
          "type": "uint256"
        }
      ],
      "name": "increaseAllowance",
      "outputs": [
        {
          "internalType": "bool",
          "name": "",
          "type": "bool"
        }
      ],
      "stateMutability": "nonpayable",
      "type": "function"
    },
    {
      "inputs": [
        {
          "internalType": "string",
          "name": "tokenName",
          "type": "string"
        },
        {
          "internalType": "string",
          "name": "tokenSymbol",
          "type": "string"
        },
        {
          "internalType": "string",
          "name": "tokenCurrency",
          "type": "string"
        },
        {
          "internalType": "uint8",
          "name": "tokenDecimals",
          "type": "uint8"
        },
        {
          "internalType": "address",
          "name": "newMasterMinter",
          "type": "address"
        },
        {
          "internalType": "address",
          "name": "newPauser",
          "type": "address"
        },
        {
          "internalType": "address",
          "name": "newBlacklister",
          "type": "address"
        },
        {
          "internalType": "address",
          "name": "newOwner",
          "type": "address"
        }
      ],
      "name": "initialize",
      "outputs": [],
      "stateMutability": "nonpayable",
      "type": "function"
    },
    {
      "inputs": [
        {
          "internalType": "string",
          "name": "newName",
          "type": "string"
        }
      ],
      "name": "initializeV2",
      "outputs": [],
      "stateMutability": "nonpayable",
      "type": "function"
    },
    {
      "inputs": [
        {
          "internalType": "address",
          "name": "lostAndFound",
          "type": "address"
        }
      ],
      "name": "initializeV2_1",
      "outputs": [],
      "stateMutability": "nonpayable",
      "type": "function"
    },
    {
      "inputs": [
        {
          "internalType": "address",
          "name": "_account",
          "type": "address"
        }
      ],
      "name": "isBlacklisted",
      "outputs": [
        {
          "internalType": "bool",
          "name": "",
          "type": "bool"
        }
      ],
      "stateMutability": "view",
      "type": "function"
    },
    {
      "inputs": [
        {
          "internalType": "address",
          "name": "account",
          "type": "address"
        }
      ],
      "name": "isMinter",
      "outputs": [
        {
          "internalType": "bool",
          "name": "",
          "type": "bool"
        }
      ],
      "stateMutability": "view",
      "type": "function"
    },
    {
      "inputs": [],
      "name": "masterMinter",
      "outputs": [
        {
          "internalType": "address",
          "name": "",
          "type": "address"
        }
      ],
      "stateMutability": "view",
      "type": "function"
    },
    {
      "inputs": [
        {
          "internalType": "address",
          "name": "_to",
          "type": "address"
        },
        {
          "internalType": "uint256",
          "name": "_amount",
          "type": "uint256"
        }
      ],
      "name": "mint",
      "outputs": [
        {
          "internalType": "bool",
          "name": "",
          "type": "bool"
        }
      ],
      "stateMutability": "nonpayable",
      "type": "function"
    },
    {
      "inputs": [
        {
          "internalType": "address",
          "name": "minter",
          "type": "address"
        }
      ],
      "name": "minterAllowance",
      "outputs": [
        {
          "internalType": "uint256",
          "name": "",
          "type": "uint256"
        }
      ],
      "stateMutability": "view",
      "type": "function"
    },
    {
      "inputs": [],
      "name": "name",
      "outputs": [
        {
          "internalType": "string",
          "name": "",
          "type": "string"
        }
      ],
      "stateMutability": "view",
      "type": "function"
    },
    {
      "inputs": [
        {
          "internalType": "address",
          "name": "owner",
          "type": "address"
        }
      ],
      "name": "nonces",
      "outputs": [
        {
          "internalType": "uint256",
          "name": "",
          "type": "uint256"
        }
      ],
      "stateMutability": "view",
      "type": "function"
    },
    {
      "inputs": [],
      "name": "owner",
      "outputs": [
        {
          "internalType": "address",
          "name": "",
          "type": "address"
        }
      ],
      "stateMutability": "view",
      "type": "function"
    },
    {
      "inputs": [],
      "name": "pause",
      "outputs": [],
      "stateMutability": "nonpayable",
      "type": "function"
    },
    {
      "inputs": [],
      "name": "paused",
      "outputs": [
        {
          "internalType": "bool",
          "name": "",
          "type": "bool"
        }
      ],
      "stateMutability": "view",
      "type": "function"
    },
    {
      "inputs": [],
      "name": "pauser",
      "outputs": [
        {
          "internalType": "address",
          "name": "",
          "type": "address"
        }
      ],
      "stateMutability": "view",
      "type": "function"
    },
    {
      "inputs": [
        {
          "internalType": "address",
          "name": "owner",
          "type": "address"
        },
        {
          "internalType": "address",
          "name": "spender",
          "type": "address"
        },
        {
          "internalType": "uint256",
          "name": "value",
          "type": "uint256"
        },
        {
          "internalType": "uint256",
          "name": "deadline",
          "type": "uint256"
        },
        {
          "internalType": "uint8",
          "name": "v",
          "type": "uint8"
        },
        {
          "internalType": "bytes32",
          "name": "r",
          "type": "bytes32"
        },
        {
          "internalType": "bytes32",
          "name": "s",
          "type": "bytes32"
        }
      ],
      "name": "permit",
      "outputs": [],
      "stateMutability": "nonpayable",
      "type": "function"
    },
    {
      "inputs": [
        {
          "internalType": "address",
          "name": "from",
          "type": "address"
        },
        {
          "internalType": "address",
          "name": "to",
          "type": "address"
        },
        {
          "internalType": "uint256",
          "name": "value",
          "type": "uint256"
        },
        {
          "internalType": "uint256",
          "name": "validAfter",
          "type": "uint256"
        },
        {
          "internalType": "uint256",
          "name": "validBefore",
          "type": "uint256"
        },
        {
          "internalType": "bytes32",
          "name": "nonce",
          "type": "bytes32"
        },
        {
          "internalType": "uint8",
          "name": "v",
          "type": "uint8"
        },
        {
          "internalType": "bytes32",
          "name": "r",
          "type": "bytes32"
        },
        {
          "internalType": "bytes32",
          "name": "s",
          "type": "bytes32"
        }
      ],
      "name": "receiveWithAuthorization",
      "outputs": [],
      "stateMutability": "nonpayable",
      "type": "function"
    },
    {
      "inputs": [
        {
          "internalType": "address",
          "name": "minter",
          "type": "address"
        }
      ],
      "name": "removeMinter",
      "outputs": [
        {
          "internalType": "bool",
          "name": "",
          "type": "bool"
        }
      ],
      "stateMutability": "nonpayable",
      "type": "function"
    },
    {
      "inputs": [
        {
          "internalType": "contract IERC20",
          "name": "tokenContract",
          "type": "address"
        },
        {
          "internalType": "address",
          "name": "to",
          "type": "address"
        },
        {
          "internalType": "uint256",
          "name": "amount",
          "type": "uint256"
        }
      ],
      "name": "rescueERC20",
      "outputs": [],
      "stateMutability": "nonpayable",
      "type": "function"
    },
    {
      "inputs": [],
      "name": "rescuer",
      "outputs": [
        {
          "internalType": "address",
          "name": "",
          "type": "address"
        }
      ],
      "stateMutability": "view",
      "type": "function"
    },
    {
      "inputs": [],
      "name": "symbol",
      "outputs": [
        {
          "internalType": "string",
          "name": "",
          "type": "string"
        }
      ],
      "stateMutability": "view",
      "type": "function"
    },
    {
      "inputs": [],
      "name": "totalSupply",
      "outputs": [
        {
          "internalType": "uint256",
          "name": "",
          "type": "uint256"
        }
      ],
      "stateMutability": "view",
      "type": "function"
    },
    {
      "inputs": [
        {
          "internalType": "address",
          "name": "to",
          "type": "address"
        },
        {
          "internalType": "uint256",
          "name": "value",
          "type": "uint256"
        }
      ],
      "name": "transfer",
      "outputs": [
        {
          "internalType": "bool",
          "name": "",
          "type": "bool"
        }
      ],
      "stateMutability": "nonpayable",
      "type": "function"
    },
    {
      "inputs": [
        {
          "internalType": "address",
          "name": "from",
          "type": "address"
        },
        {
          "internalType": "address",
          "name": "to",
          "type": "address"
        },
        {
          "internalType": "uint256",
          "name": "value",
          "type": "uint256"
        }
      ],
      "name": "transferFrom",
      "outputs": [
        {
          "internalType": "bool",
          "name": "",
          "type": "bool"
        }
      ],
      "stateMutability": "nonpayable",
      "type": "function"
    },
    {
      "inputs": [
        {
          "internalType": "address",
          "name": "newOwner",
          "type": "address"
        }
      ],
      "name": "transferOwnership",
      "outputs": [],
      "stateMutability": "nonpayable",
      "type": "function"
    },
    {
      "inputs": [
        {
          "internalType": "address",
          "name": "from",
          "type": "address"
        },
        {
          "internalType": "address",
          "name": "to",
          "type": "address"
        },
        {
          "internalType": "uint256",
          "name": "value",
          "type": "uint256"
        },
        {
          "internalType": "uint256",
          "name": "validAfter",
          "type": "uint256"
        },
        {
          "internalType": "uint256",
          "name": "validBefore",
          "type": "uint256"
        },
        {
          "internalType": "bytes32",
          "name": "nonce",
          "type": "bytes32"
        },
        {
          "internalType": "uint8",
          "name": "v",
          "type": "uint8"
        },
        {
          "internalType": "bytes32",
          "name": "r",
          "type": "bytes32"
        },
        {
          "internalType": "bytes32",
          "name": "s",
          "type": "bytes32"
        }
      ],
      "name": "transferWithAuthorization",
      "outputs": [],
      "stateMutability": "nonpayable",
      "type": "function"
    },
    {
      "inputs": [
        {
          "internalType": "address",
          "name": "_account",
          "type": "address"
        }
      ],
      "name": "unBlacklist",
      "outputs": [],
      "stateMutability": "nonpayable",
      "type": "function"
    },
    {
      "inputs": [],
      "name": "unpause",
      "outputs": [],
      "stateMutability": "nonpayable",
      "type": "function"
    },
    {
      "inputs": [
        {
          "internalType": "address",
          "name": "_newBlacklister",
          "type": "address"
        }
      ],
      "name": "updateBlacklister",
      "outputs": [],
      "stateMutability": "nonpayable",
      "type": "function"
    },
    {
      "inputs": [
        {
          "internalType": "address",
          "name": "_newMasterMinter",
          "type": "address"
        }
      ],
      "name": "updateMasterMinter",
      "outputs": [],
      "stateMutability": "nonpayable",
      "type": "function"
    },
    {
      "inputs": [
        {
          "internalType": "address",
          "name": "_newPauser",
          "type": "address"
        }
      ],
      "name": "updatePauser",
      "outputs": [],
      "stateMutability": "nonpayable",
      "type": "function"
    },
    {
      "inputs": [
        {
          "internalType": "address",
          "name": "newRescuer",
          "type": "address"
        }
      ],
      "name": "updateRescuer",
      "outputs": [],
      "stateMutability": "nonpayable",
      "type": "function"
    },
    {
      "inputs": [],
      "name": "version",
      "outputs": [
        {
          "internalType": "string",
          "name": "",
          "type": "string"
        }
      ],
      "stateMutability": "view",
      "type": "function"
    }
  ],
  "bytecode": "0x60806040526000600160146101000a81548160ff0219169083151502179055506000600b553480156200003157600080fd5b5062000043336200004960201b60201c565b6200008c565b806000806101000a81548173ffffffffffffffffffffffffffffffffffffffff021916908373ffffffffffffffffffffffffffffffffffffffff16021790555050565b616eb9806200009c6000396000f3fe608060405234801561001057600080fd5b50600436106102d65760003560e01c80637f2eecc311610182578063b2118a8d116100e9578063e3ee160e116100a2578063ef55bec61161007c578063ef55bec614611342578063f2fde38b146113f0578063f9f92be414611434578063fe575a8714611478576102d6565b8063e3ee160e146111ad578063e5a6b10f1461125b578063e94a0102146112de576102d6565b8063b2118a8d14610f63578063bd10243014610fd1578063d505accf14611005578063d608ea641461109e578063d916948714611117578063dd62ed3e14611135576102d6565b8063a0cc6a681161013b578063a0cc6a6814610d9b578063a457c2d714610db9578063a9059cbb14610e1d578063aa20e1e414610e81578063aa271e1a14610ec5578063ad38bf2214610f1f576102d6565b80637f2eecc314610c305780638456cb5914610c4e5780638a6db9c314610c585780638da5cb5b14610cb057806395d89b4114610ce45780639fd0506d14610d67576102d6565b80633644e515116102415780634e44d956116101fa5780635a049a70116101d45780635a049a7014610af15780635c975abb14610b6057806370a0823114610b805780637ecebe0014610bd8576102d6565b80634e44d956146109c657806354fd4d5014610a2a578063554bab3c14610aad576102d6565b80633644e5151461087457806338a631831461089257806339509351146108c65780633f4ba83a1461092a57806340c10f191461093457806342966c6814610998576102d6565b80632fc81e09116102935780632fc81e09146104ec5780633092afd51461053057806330adf81f1461058a578063313ce567146105a85780633357162b146105c957806335d99f3514610840576102d6565b806306fdde03146102db578063095ea7b31461035e57806318160ddd146103c25780631a895266146103e057806323b872dd146104245780632ab60045146104a8575b600080fd5b6102e36114d2565b6040518080602001828103825283818151815260200191508051906020019080838360005b83811015610323578082015181840152602081019050610308565b50505050905090810190601f1680156103505780820380516001836020036101000a031916815260200191505b509250505060405180910390f35b6103aa6004803603604081101561037457600080fd5b81019080803573ffffffffffffffffffffffffffffffffffffffff16906020019092919080359060200190929190505050611570565b60405180821515815260200191505060405180910390f35b6103ca611754565b6040518082815260200191505060405180910390f35b610422600480360360208110156103f657600080fd5b81019080803573ffffffffffffffffffffffffffffffffffffffff16906020019092919050505061175e565b005b6104906004803603606081101561043a57600080fd5b81019080803573ffffffffffffffffffffffffffffffffffffffff169060200190929190803573ffffffffffffffffffffffffffffffffffffffff169060200190929190803590602001909291905050506118a2565b60405180821515815260200191505060405180910390f35b6104ea600480360360208110156104be57600080fd5b81019080803573ffffffffffffffffffffffffffffffffffffffff169060200190929190505050611d10565b005b61052e6004803603602081101561050257600080fd5b81019080803573ffffffffffffffffffffffffffffffffffffffff169060200190929190505050611ede565b005b6105726004803603602081101561054657600080fd5b81019080803573ffffffffffffffffffffffffffffffffffffffff169060200190929190505050611fce565b60405180821515815260200191505060405180910390f35b61059261215f565b6040518082815260200191505060405180910390f35b6105b0612186565b604051808260ff16815260200191505060405180910390f35b61083e60048036036101008110156105e057600080fd5b81019080803590602001906401000000008111156105fd57600080fd5b82018360208201111561060f57600080fd5b8035906020019184600183028401116401000000008311171561063157600080fd5b91908080601f016020809104026020016040519081016040528093929190818152602001838380828437600081840152601f19601f8201169050808301925050505050505091929192908035906020019064010000000081111561069457600080fd5b8201836020820111156106a657600080fd5b803590602001918460018302840111640100000000831117156106c857600080fd5b91908080601f016020809104026020016040519081016040528093929190818152602001838380828437600081840152601f19601f8201169050808301925050505050505091929192908035906020019064010000000081111561072b57600080fd5b82018360208201111561073d57600080fd5b8035906020019184600183028401116401000000008311171561075f57600080fd5b91908080601f016020809104026020016040519081016040528093929190818152602001838380828437600081840152601f19601f820116905080830192505050505050509192919290803560ff169060200190929190803573ffffffffffffffffffffffffffffffffffffffff169060200190929190803573ffffffffffffffffffffffffffffffffffffffff169060200190929190803573ffffffffffffffffffffffffffffffffffffffff169060200190929190803573ffffffffffffffffffffffffffffffffffffffff169060200190929190505050612199565b005b610848612568565b604051808273ffffffffffffffffffffffffffffffffffffffff16815260200191505060405180910390f35b61087c61258e565b6040518082815260200191505060405180910390f35b61089a612594565b604051808273ffffffffffffffffffffffffffffffffffffffff16815260200191505060405180910390f35b610912600480360360408110156108dc57600080fd5b81019080803573ffffffffffffffffffffffffffffffffffffffff169060200190929190803590602001909291905050506125be565b60405180821515815260200191505060405180910390f35b6109326127a2565b005b6109806004803603604081101561094a57600080fd5b81019080803573ffffffffffffffffffffffffffffffffffffffff16906020019092919080359060200190929190505050612891565b60405180821515815260200191505060405180910390f35b6109c4600480360360208110156109ae57600080fd5b8101908080359060200190929190505050612e5a565b005b610a12600480360360408110156109dc57600080fd5b81019080803573ffffffffffffffffffffffffffffffffffffffff16906020019092919080359060200190929190505050613243565b60405180821515815260200191505060405180910390f35b610a32613462565b6040518080602001828103825283818151815260200191508051906020019080838360005b83811015610a72578082015181840152602081019050610a57565b50505050905090810190601f168015610a9f5780820380516001836020036101000a031916815260200191505b509250505060405180910390f35b610aef60048036036020811015610ac357600080fd5b81019080803573ffffffffffffffffffffffffffffffffffffffff16906020019092919050505061349f565b005b610b5e600480360360a0811015610b0757600080fd5b81019080803573ffffffffffffffffffffffffffffffffffffffff16906020019092919080359060200190929190803560ff169060200190929190803590602001909291908035906020019092919050505061368f565b005b610b68613726565b60405180821515815260200191505060405180910390f35b610bc260048036036020811015610b9657600080fd5b81019080803573ffffffffffffffffffffffffffffffffffffffff169060200190929190505050613739565b6040518082815260200191505060405180910390f35b610c1a60048036036020811015610bee57600080fd5b81019080803573ffffffffffffffffffffffffffffffffffffffff169060200190929190505050613782565b6040518082815260200191505060405180910390f35b610c386137cb565b6040518082815260200191505060405180910390f35b610c566137f2565b005b610c9a60048036036020811015610c6e57600080fd5b81019080803573ffffffffffffffffffffffffffffffffffffffff1690602001909291905050506138e0565b6040518082815260200191505060405180910390f35b610cb8613929565b604051808273ffffffffffffffffffffffffffffffffffffffff16815260200191505060405180910390f35b610cec613952565b6040518080602001828103825283818151815260200191508051906020019080838360005b83811015610d2c578082015181840152602081019050610d11565b50505050905090810190601f168015610d595780820380516001836020036101000a031916815260200191505b509250505060405180910390f35b610d6f6139f0565b604051808273ffffffffffffffffffffffffffffffffffffffff16815260200191505060405180910390f35b610da3613a16565b6040518082815260200191505060405180910390f35b610e0560048036036040811015610dcf57600080fd5b81019080803573ffffffffffffffffffffffffffffffffffffffff16906020019092919080359060200190929190505050613a3d565b60405180821515815260200191505060405180910390f35b610e6960048036036040811015610e3357600080fd5b81019080803573ffffffffffffffffffffffffffffffffffffffff16906020019092919080359060200190929190505050613c21565b60405180821515815260200191505060405180910390f35b610ec360048036036020811015610e9757600080fd5b81019080803573ffffffffffffffffffffffffffffffffffffffff169060200190929190505050613e05565b005b610f0760048036036020811015610edb57600080fd5b81019080803573ffffffffffffffffffffffffffffffffffffffff169060200190929190505050613ff5565b60405180821515815260200191505060405180910390f35b610f6160048036036020811015610f3557600080fd5b81019080803573ffffffffffffffffffffffffffffffffffffffff16906020019092919050505061404b565b005b610fcf60048036036060811015610f7957600080fd5b81019080803573ffffffffffffffffffffffffffffffffffffffff169060200190929190803573ffffffffffffffffffffffffffffffffffffffff1690602001909291908035906020019092919050505061423b565b005b610fd9614311565b604051808273ffffffffffffffffffffffffffffffffffffffff16815260200191505060405180910390f35b61109c600480360360e081101561101b57600080fd5b81019080803573ffffffffffffffffffffffffffffffffffffffff169060200190929190803573ffffffffffffffffffffffffffffffffffffffff1690602001909291908035906020019092919080359060200190929190803560ff1690602001909291908035906020019092919080359060200190929190505050614337565b005b611115600480360360208110156110b457600080fd5b81019080803590602001906401000000008111156110d157600080fd5b8201836020820111156110e357600080fd5b8035906020019184600183028401116401000000008311171561110557600080fd5b909192939192939050505061451c565b005b61111f61460e565b6040518082815260200191505060405180910390f35b6111976004803603604081101561114b57600080fd5b81019080803573ffffffffffffffffffffffffffffffffffffffff169060200190929190803573ffffffffffffffffffffffffffffffffffffffff169060200190929190505050614635565b6040518082815260200191505060405180910390f35b61125960048036036101208110156111c457600080fd5b81019080803573ffffffffffffffffffffffffffffffffffffffff169060200190929190803573ffffffffffffffffffffffffffffffffffffffff16906020019092919080359060200190929190803590602001909291908035906020019092919080359060200190929190803560ff16906020019092919080359060200190929190803590602001909291905050506146bc565b005b6112636148a5565b6040518080602001828103825283818151815260200191508051906020019080838360005b838110156112a3578082015181840152602081019050611288565b50505050905090810190601f1680156112d05780820380516001836020036101000a031916815260200191505b509250505060405180910390f35b61132a600480360360408110156112f457600080fd5b81019080803573ffffffffffffffffffffffffffffffffffffffff16906020019092919080359060200190929190505050614943565b60405180821515815260200191505060405180910390f35b6113ee600480360361012081101561135957600080fd5b81019080803573ffffffffffffffffffffffffffffffffffffffff169060200190929190803573ffffffffffffffffffffffffffffffffffffffff16906020019092919080359060200190929190803590602001909291908035906020019092919080359060200190929190803560ff16906020019092919080359060200190929190803590602001909291905050506149ab565b005b6114326004803603602081101561140657600080fd5b81019080803573ffffffffffffffffffffffffffffffffffffffff169060200190929190505050614b94565b005b6114766004803603602081101561144a57600080fd5b81019080803573ffffffffffffffffffffffffffffffffffffffff169060200190929190505050614d72565b005b6114ba6004803603602081101561148e57600080fd5b81019080803573ffffffffffffffffffffffffffffffffffffffff169060200190929190505050614eb6565b60405180821515815260200191505060405180910390f35b60048054600181600116156101000203166002900480601f0160208091040260200160405190810160405280929190818152602001828054600181600116156101000203166002900480156115685780601f1061153d57610100808354040283529160200191611568565b820191906000526020600020905b81548152906001019060200180831161154b57829003601f168201915b505050505081565b6000600160149054906101000a900460ff16156115f5576040517f08c379a00000000000000000000000000000000000000000000000000000000081526004018080602001828103825260108152602001807f5061757361626c653a207061757365640000000000000000000000000000000081525060200191505060405180910390fd5b33600360008273ffffffffffffffffffffffffffffffffffffffff1673ffffffffffffffffffffffffffffffffffffffff16815260200190815260200160002060009054906101000a900460ff1615611699576040517f08c379a0000000000000000000000000000000000000000000000000000000008152600401808060200182810382526025815260200180616e156025913960400191505060405180910390fd5b83600360008273ffffffffffffffffffffffffffffffffffffffff1673ffffffffffffffffffffffffffffffffffffffff16815260200190815260200160002060009054906101000a900460ff161561173d576040517f08c379a0000000000000000000000000000000000000000000000000000000008152600401808060200182810382526025815260200180616e156025913960400191505060405180910390fd5b611748338686614f0c565b60019250505092915050565b6000600b54905090565b600260009054906101000a900473ffffffffffffffffffffffffffffffffffffffff1673ffffffffffffffffffffffffffffffffffffffff163373ffffffffffffffffffffffffffffffffffffffff1614611804576040517f08c379a000000000000000000000000000000000000000000000000000000000815260040180806020018281038252602c815260200180616b39602c913960400191505060405180910390fd5b6000600360008373ffffffffffffffffffffffffffffffffffffffff1673ffffffffffffffffffffffffffffffffffffffff16815260200190815260200160002060006101000a81548160ff0219169083151502179055508073ffffffffffffffffffffffffffffffffffffffff167f117e3210bb9aa7d9baff172026820255c6f6c30ba8999d1c2fd88e2848137c4e60405160405180910390a250565b6000600160149054906101000a900460ff1615611927576040517f08c379a00000000000000000000000000000000000000000000000000000000081526004018080602001828103825260108152602001807f5061757361626c653a207061757365640000000000000000000000000000000081525060200191505060405180910390fd5b33600360008273ffffffffffffffffffffffffffffffffffffffff1673ffffffffffffffffffffffffffffffffffffffff16815260200190815260200160002060009054906101000a900460ff16156119cb576040517f08c379a0000000000000000000000000000000000000000000000000000000008152600401808060200182810382526025815260200180616e156025913960400191505060405180910390fd5b84600360008273ffffffffffffffffffffffffffffffffffffffff1673ffffffffffffffffffffffffffffffffffffffff16815260200190815260200160002060009054906101000a900460ff1615611a6f576040517f08c379a0000000000000000000000000000000000000000000000000000000008152600401808060200182810382526025815260200180616e156025913960400191505060405180910390fd5b84600360008273ffffffffffffffffffffffffffffffffffffffff1673ffffffffffffffffffffffffffffffffffffffff16815260200190815260200160002060009054906101000a900460ff1615611b13576040517f08c379a0000000000000000000000000000000000000000000000000000000008152600401808060200182810382526025815260200180616e156025913960400191505060405180910390fd5b600a60008873ffffffffffffffffffffffffffffffffffffffff1673ffffffffffffffffffffffffffffffffffffffff16815260200190815260200160002060003373ffffffffffffffffffffffffffffffffffffffff1673ffffffffffffffffffffffffffffffffffffffff16815260200190815260200160002054851115611be8576040517f08c379a0000000000000000000000000000000000000000000000000000000008152600401808060200182810382526028815260200180616bff6028913960400191505060405180910390fd5b611bf3878787615103565b611c8285600a60008a73ffffffffffffffffffffffffffffffffffffffff1673ffffffffffffffffffffffffffffffffffffffff16815260200190815260200160002060003373ffffffffffffffffffffffffffffffffffffffff1673ffffffffffffffffffffffffffffffffffffffff1681526020019081526020016000205461543b90919063ffffffff16565b600a60008973ffffffffffffffffffffffffffffffffffffffff1673ffffffffffffffffffffffffffffffffffffffff16815260200190815260200160002060003373ffffffffffffffffffffffffffffffffffffffff1673ffffffffffffffffffffffffffffffffffffffff16815260200190815260200160002081905550600193505050509392505050565b60008054906101000a900473ffffffffffffffffffffffffffffffffffffffff1673ffffffffffffffffffffffffffffffffffffffff163373ffffffffffffffffffffffffffffffffffffffff1614611dd1576040517f08c379a00000000000000000000000000000000000000000000000000000000081526004018080602001828103825260208152602001807f4f776e61626c653a2063616c6c6572206973206e6f7420746865206f776e657281525060200191505060405180910390fd5b600073ffffffffffffffffffffffffffffffffffffffff168173ffffffffffffffffffffffffffffffffffffffff161415611e57576040517f08c379a000000000000000000000000000000000000000000000000000000000815260040180806020018281038252602a815260200180616a97602a913960400191505060405180910390fd5b80600e60006101000a81548173ffffffffffffffffffffffffffffffffffffffff021916908373ffffffffffffffffffffffffffffffffffffffff1602179055508073ffffffffffffffffffffffffffffffffffffffff167fe475e580d85111348e40d8ca33cfdd74c30fe1655c2d8537a13abc10065ffa5a60405160405180910390a250565b6001601260009054906101000a900460ff1660ff1614611efd57600080fd5b6000600960003073ffffffffffffffffffffffffffffffffffffffff1673ffffffffffffffffffffffffffffffffffffffff1681526020019081526020016000205490506000811115611f5657611f55308383615103565b5b6001600360003073ffffffffffffffffffffffffffffffffffffffff1673ffffffffffffffffffffffffffffffffffffffff16815260200190815260200160002060006101000a81548160ff0219169083151502179055506002601260006101000a81548160ff021916908360ff1602179055505050565b6000600860009054906101000a900473ffffffffffffffffffffffffffffffffffffffff1673ffffffffffffffffffffffffffffffffffffffff163373ffffffffffffffffffffffffffffffffffffffff1614612076576040517f08c379a0000000000000000000000000000000000000000000000000000000008152600401808060200182810382526029815260200180616b106029913960400191505060405180910390fd5b6000600c60008473ffffffffffffffffffffffffffffffffffffffff1673ffffffffffffffffffffffffffffffffffffffff16815260200190815260200160002060006101000a81548160ff0219169083151502179055506000600d60008473ffffffffffffffffffffffffffffffffffffffff1673ffffffffffffffffffffffffffffffffffffffff168152602001908152602001600020819055508173ffffffffffffffffffffffffffffffffffffffff167fe94479a9f7e1952cc78f2d6baab678adc1b772d936c6583def489e524cb6669260405160405180910390a260019050919050565b7f6e71edae12b1b97f4d1f60370fef10105fa2faae0126114a169c64845d6126c960001b81565b600660009054906101000a900460ff1681565b600860149054906101000a900460ff16156121ff576040517f08c379a000000000000000000000000000000000000000000000000000000000815260040180806020018281038252602a815260200180616c7a602a913960400191505060405180910390fd5b600073ffffffffffffffffffffffffffffffffffffffff168473ffffffffffffffffffffffffffffffffffffffff161415612285576040517f08c379a000000000000000000000000000000000000000000000000000000000815260040180806020018281038252602f815260200180616bac602f913960400191505060405180910390fd5b600073ffffffffffffffffffffffffffffffffffffffff168373ffffffffffffffffffffffffffffffffffffffff16141561230b576040517f08c379a0000000000000000000000000000000000000000000000000000000008152600401808060200182810382526029815260200180616a6e6029913960400191505060405180910390fd5b600073ffffffffffffffffffffffffffffffffffffffff168273ffffffffffffffffffffffffffffffffffffffff161415612391576040517f08c379a000000000000000000000000000000000000000000000000000000000815260040180806020018281038252602e815260200180616c27602e913960400191505060405180910390fd5b600073ffffffffffffffffffffffffffffffffffffffff168173ffffffffffffffffffffffffffffffffffffffff161415612417576040517f08c379a0000000000000000000000000000000000000000000000000000000008152600401808060200182810382526028815260200180616d8d6028913960400191505060405180910390fd5b876004908051906020019061242d929190616820565b508660059080519060200190612444929190616820565b50856007908051906020019061245b929190616820565b5084600660006101000a81548160ff021916908360ff16021790555083600860006101000a81548173ffffffffffffffffffffffffffffffffffffffff021916908373ffffffffffffffffffffffffffffffffffffffff16021790555082600160006101000a81548173ffffffffffffffffffffffffffffffffffffffff021916908373ffffffffffffffffffffffffffffffffffffffff16021790555081600260006101000a81548173ffffffffffffffffffffffffffffffffffffffff021916908373ffffffffffffffffffffffffffffffffffffffff16021790555061254381615485565b6001600860146101000a81548160ff0219169083151502179055505050505050505050565b600860009054906101000a900473ffffffffffffffffffffffffffffffffffffffff1681565b600f5481565b6000600e60009054906101000a900473ffffffffffffffffffffffffffffffffffffffff16905090565b6000600160149054906101000a900460ff1615612643576040517f08c379a00000000000000000000000000000000000000000000000000000000081526004018080602001828103825260108152602001807f5061757361626c653a207061757365640000000000000000000000000000000081525060200191505060405180910390fd5b33600360008273ffffffffffffffffffffffffffffffffffffffff1673ffffffffffffffffffffffffffffffffffffffff16815260200190815260200160002060009054906101000a900460ff16156126e7576040517f08c379a0000000000000000000000000000000000000000000000000000000008152600401808060200182810382526025815260200180616e156025913960400191505060405180910390fd5b83600360008273ffffffffffffffffffffffffffffffffffffffff1673ffffffffffffffffffffffffffffffffffffffff16815260200190815260200160002060009054906101000a900460ff161561278b576040517f08c379a0000000000000000000000000000000000000000000000000000000008152600401808060200182810382526025815260200180616e156025913960400191505060405180910390fd5b6127963386866154c8565b60019250505092915050565b600160009054906101000a900473ffffffffffffffffffffffffffffffffffffffff1673ffffffffffffffffffffffffffffffffffffffff163373ffffffffffffffffffffffffffffffffffffffff1614612848576040517f08c379a0000000000000000000000000000000000000000000000000000000008152600401808060200182810382526022815260200180616d1b6022913960400191505060405180910390fd5b6000600160146101000a81548160ff0219169083151502179055507f7805862f689e2f13df9f062ff482ad3ad112aca9e0847911ed832e158c525b3360405160405180910390a1565b6000600160149054906101000a900460ff1615612916576040517f08c379a00000000000000000000000000000000000000000000000000000000081526004018080602001828103825260108152602001807f5061757361626c653a207061757365640000000000000000000000000000000081525060200191505060405180910390fd5b600c60003373ffffffffffffffffffffffffffffffffffffffff1673ffffffffffffffffffffffffffffffffffffffff16815260200190815260200160002060009054906101000a900460ff166129b8576040517f08c379a0000000000000000000000000000000000000000000000000000000008152600401808060200182810382526021815260200180616b8b6021913960400191505060405180910390fd5b33600360008273ffffffffffffffffffffffffffffffffffffffff1673ffffffffffffffffffffffffffffffffffffffff16815260200190815260200160002060009054906101000a900460ff1615612a5c576040517f08c379a0000000000000000000000000000000000000000000000000000000008152600401808060200182810382526025815260200180616e156025913960400191505060405180910390fd5b83600360008273ffffffffffffffffffffffffffffffffffffffff1673ffffffffffffffffffffffffffffffffffffffff16815260200190815260200160002060009054906101000a900460ff1615612b00576040517f08c379a0000000000000000000000000000000000000000000000000000000008152600401808060200182810382526025815260200180616e156025913960400191505060405180910390fd5b600073ffffffffffffffffffffffffffffffffffffffff168573ffffffffffffffffffffffffffffffffffffffff161415612b86576040517f08c379a00000000000000000000000000000000000000000000000000000000081526004018080602001828103825260238152602001806169dd6023913960400191505060405180910390fd5b60008411612bdf576040517f08c379a0000000000000000000000000000000000000000000000000000000008152600401808060200182810382526029815260200180616ac16029913960400191505060405180910390fd5b6000600d60003373ffffffffffffffffffffffffffffffffffffffff1673ffffffffffffffffffffffffffffffffffffffff16815260200190815260200160002054905080851115612c7c576040517f08c379a000000000000000000000000000000000000000000000000000000000815260040180806020018281038252602e815260200180616ced602e913960400191505060405180910390fd5b612c9185600b5461556690919063ffffffff16565b600b81905550612ce985600960008973ffffffffffffffffffffffffffffffffffffffff1673ffffffffffffffffffffffffffffffffffffffff1681526020019081526020016000205461556690919063ffffffff16565b600960008873ffffffffffffffffffffffffffffffffffffffff1673ffffffffffffffffffffffffffffffffffffffff16815260200190815260200160002081905550612d3f858261543b90919063ffffffff16565b600d60003373ffffffffffffffffffffffffffffffffffffffff1673ffffffffffffffffffffffffffffffffffffffff168152602001908152602001600020819055508573ffffffffffffffffffffffffffffffffffffffff163373ffffffffffffffffffffffffffffffffffffffff167fab8530f87dc9b59234c4623bf917212bb2536d647574c8e7e5da92c2ede0c9f8876040518082815260200191505060405180910390a38573ffffffffffffffffffffffffffffffffffffffff16600073ffffffffffffffffffffffffffffffffffffffff167fddf252ad1be2c89b69c2b068fc378daa952ba7f163c4a11628f55a4df523b3ef876040518082815260200191505060405180910390a36001935050505092915050565b600160149054906101000a900460ff1615612edd576040517f08c379a00000000000000000000000000000000000000000000000000000000081526004018080602001828103825260108152602001807f5061757361626c653a207061757365640000000000000000000000000000000081525060200191505060405180910390fd5b600c60003373ffffffffffffffffffffffffffffffffffffffff1673ffffffffffffffffffffffffffffffffffffffff16815260200190815260200160002060009054906101000a900460ff16612f7f576040517f08c379a0000000000000000000000000000000000000000000000000000000008152600401808060200182810382526021815260200180616b8b6021913960400191505060405180910390fd5b33600360008273ffffffffffffffffffffffffffffffffffffffff1673ffffffffffffffffffffffffffffffffffffffff16815260200190815260200160002060009054906101000a900460ff1615613023576040517f08c379a0000000000000000000000000000000000000000000000000000000008152600401808060200182810382526025815260200180616e156025913960400191505060405180910390fd5b6000600960003373ffffffffffffffffffffffffffffffffffffffff1673ffffffffffffffffffffffffffffffffffffffff168152602001908152602001600020549050600083116130c0576040517f08c379a00000000000000000000000000000000000000000000000000000000081526004018080602001828103825260298152602001806169b46029913960400191505060405180910390fd5b82811015613119576040517f08c379a0000000000000000000000000000000000000000000000000000000008152600401808060200182810382526026815260200180616b656026913960400191505060405180910390fd5b61312e83600b5461543b90919063ffffffff16565b600b81905550613147838261543b90919063ffffffff16565b600960003373ffffffffffffffffffffffffffffffffffffffff1673ffffffffffffffffffffffffffffffffffffffff168152602001908152602001600020819055503373ffffffffffffffffffffffffffffffffffffffff167fcc16f5dbb4873280815c1ee09dbd06736cffcc184412cf7a71a0fdb75d397ca5846040518082815260200191505060405180910390a2600073ffffffffffffffffffffffffffffffffffffffff163373ffffffffffffffffffffffffffffffffffffffff167fddf252ad1be2c89b69c2b068fc378daa952ba7f163c4a11628f55a4df523b3ef856040518082815260200191505060405180910390a3505050565b6000600160149054906101000a900460ff16156132c8576040517f08c379a00000000000000000000000000000000000000000000000000000000081526004018080602001828103825260108152602001807f5061757361626c653a207061757365640000000000000000000000000000000081525060200191505060405180910390fd5b600860009054906101000a900473ffffffffffffffffffffffffffffffffffffffff1673ffffffffffffffffffffffffffffffffffffffff163373ffffffffffffffffffffffffffffffffffffffff161461336e576040517f08c379a0000000000000000000000000000000000000000000000000000000008152600401808060200182810382526029815260200180616b106029913960400191505060405180910390fd5b6001600c60008573ffffffffffffffffffffffffffffffffffffffff1673ffffffffffffffffffffffffffffffffffffffff16815260200190815260200160002060006101000a81548160ff02191690831515021790555081600d60008573ffffffffffffffffffffffffffffffffffffffff1673ffffffffffffffffffffffffffffffffffffffff168152602001908152602001600020819055508273ffffffffffffffffffffffffffffffffffffffff167f46980fca912ef9bcdbd36877427b6b90e860769f604e89c0e67720cece530d20836040518082815260200191505060405180910390a26001905092915050565b60606040518060400160405280600181526020017f3200000000000000000000000000000000000000000000000000000000000000815250905090565b60008054906101000a900473ffffffffffffffffffffffffffffffffffffffff1673ffffffffffffffffffffffffffffffffffffffff163373ffffffffffffffffffffffffffffffffffffffff1614613560576040517f08c379a00000000000000000000000000000000000000000000000000000000081526004018080602001828103825260208152602001807f4f776e61626c653a2063616c6c6572206973206e6f7420746865206f776e657281525060200191505060405180910390fd5b600073ffffffffffffffffffffffffffffffffffffffff168173ffffffffffffffffffffffffffffffffffffffff1614156135e6576040517f08c379a00000000000000000000000000000000000000000000000000000000081526004018080602001828103825260288152602001806169616028913960400191505060405180910390fd5b80600160006101000a81548173ffffffffffffffffffffffffffffffffffffffff021916908373ffffffffffffffffffffffffffffffffffffffff160217905550600160009054906101000a900473ffffffffffffffffffffffffffffffffffffffff1673ffffffffffffffffffffffffffffffffffffffff167fb80482a293ca2e013eda8683c9bd7fc8347cfdaeea5ede58cba46df502c2a60460405160405180910390a250565b600160149054906101000a900460ff1615613712576040517f08c379a00000000000000000000000000000000000000000000000000000000081526004018080602001828103825260108152602001807f5061757361626c653a207061757365640000000000000000000000000000000081525060200191505060405180910390fd5b61371f85858585856155ee565b5050505050565b600160149054906101000a900460ff1681565b6000600960008373ffffffffffffffffffffffffffffffffffffffff1673ffffffffffffffffffffffffffffffffffffffff168152602001908152602001600020549050919050565b6000601160008373ffffffffffffffffffffffffffffffffffffffff1673ffffffffffffffffffffffffffffffffffffffff168152602001908152602001600020549050919050565b7fd099cc98ef71107a616c4f0f941f04c322d8e254fe26b3c6668db87aae413de860001b81565b600160009054906101000a900473ffffffffffffffffffffffffffffffffffffffff1673ffffffffffffffffffffffffffffffffffffffff163373ffffffffffffffffffffffffffffffffffffffff1614613898576040517f08c379a0000000000000000000000000000000000000000000000000000000008152600401808060200182810382526022815260200180616d1b6022913960400191505060405180910390fd5b60018060146101000a81548160ff0219169083151502179055507f6985a02210a168e66602d3235cb6db0e70f92b3ba4d376a33c0f3d9434bff62560405160405180910390a1565b6000600d60008373ffffffffffffffffffffffffffffffffffffffff1673ffffffffffffffffffffffffffffffffffffffff168152602001908152602001600020549050919050565b60008060009054906101000a900473ffffffffffffffffffffffffffffffffffffffff16905090565b60058054600181600116156101000203166002900480601f0160208091040260200160405190810160405280929190818152602001828054600181600116156101000203166002900480156139e85780601f106139bd576101008083540402835291602001916139e8565b820191906000526020600020905b8154815290600101906020018083116139cb57829003601f168201915b505050505081565b600160009054906101000a900473ffffffffffffffffffffffffffffffffffffffff1681565b7f7c7c6cdb67a18743f49ec6fa9b35f50d52ed05cbed4cc592e13b44501c1a226760001b81565b6000600160149054906101000a900460ff1615613ac2576040517f08c379a00000000000000000000000000000000000000000000000000000000081526004018080602001828103825260108152602001807f5061757361626c653a207061757365640000000000000000000000000000000081525060200191505060405180910390fd5b33600360008273ffffffffffffffffffffffffffffffffffffffff1673ffffffffffffffffffffffffffffffffffffffff16815260200190815260200160002060009054906101000a900460ff1615613b66576040517f08c379a0000000000000000000000000000000000000000000000000000000008152600401808060200182810382526025815260200180616e156025913960400191505060405180910390fd5b83600360008273ffffffffffffffffffffffffffffffffffffffff1673ffffffffffffffffffffffffffffffffffffffff16815260200190815260200160002060009054906101000a900460ff1615613c0a576040517f08c379a0000000000000000000000000000000000000000000000000000000008152600401808060200182810382526025815260200180616e156025913960400191505060405180910390fd5b613c153386866157c9565b60019250505092915050565b6000600160149054906101000a900460ff1615613ca6576040517f08c379a00000000000000000000000000000000000000000000000000000000081526004018080602001828103825260108152602001807f5061757361626c653a207061757365640000000000000000000000000000000081525060200191505060405180910390fd5b33600360008273ffffffffffffffffffffffffffffffffffffffff1673ffffffffffffffffffffffffffffffffffffffff16815260200190815260200160002060009054906101000a900460ff1615613d4a576040517f08c379a0000000000000000000000000000000000000000000000000000000008152600401808060200182810382526025815260200180616e156025913960400191505060405180910390fd5b83600360008273ffffffffffffffffffffffffffffffffffffffff1673ffffffffffffffffffffffffffffffffffffffff16815260200190815260200160002060009054906101000a900460ff1615613dee576040517f08c379a0000000000000000000000000000000000000000000000000000000008152600401808060200182810382526025815260200180616e156025913960400191505060405180910390fd5b613df9338686615103565b60019250505092915050565b60008054906101000a900473ffffffffffffffffffffffffffffffffffffffff1673ffffffffffffffffffffffffffffffffffffffff163373ffffffffffffffffffffffffffffffffffffffff1614613ec6576040517f08c379a00000000000000000000000000000000000000000000000000000000081526004018080602001828103825260208152602001807f4f776e61626c653a2063616c6c6572206973206e6f7420746865206f776e657281525060200191505060405180910390fd5b600073ffffffffffffffffffffffffffffffffffffffff168173ffffffffffffffffffffffffffffffffffffffff161415613f4c576040517f08c379a000000000000000000000000000000000000000000000000000000000815260040180806020018281038252602f815260200180616bac602f913960400191505060405180910390fd5b80600860006101000a81548173ffffffffffffffffffffffffffffffffffffffff021916908373ffffffffffffffffffffffffffffffffffffffff160217905550600860009054906101000a900473ffffffffffffffffffffffffffffffffffffffff1673ffffffffffffffffffffffffffffffffffffffff167fdb66dfa9c6b8f5226fe9aac7e51897ae8ee94ac31dc70bb6c9900b2574b707e660405160405180910390a250565b6000600c60008373ffffffffffffffffffffffffffffffffffffffff1673ffffffffffffffffffffffffffffffffffffffff16815260200190815260200160002060009054906101000a900460ff169050919050565b60008054906101000a900473ffffffffffffffffffffffffffffffffffffffff1673ffffffffffffffffffffffffffffffffffffffff163373ffffffffffffffffffffffffffffffffffffffff161461410c576040517f08c379a00000000000000000000000000000000000000000000000000000000081526004018080602001828103825260208152602001807f4f776e61626c653a2063616c6c6572206973206e6f7420746865206f776e657281525060200191505060405180910390fd5b600073ffffffffffffffffffffffffffffffffffffffff168173ffffffffffffffffffffffffffffffffffffffff161415614192576040517f08c379a0000000000000000000000000000000000000000000000000000000008152600401808060200182810382526032815260200180616de36032913960400191505060405180910390fd5b80600260006101000a81548173ffffffffffffffffffffffffffffffffffffffff021916908373ffffffffffffffffffffffffffffffffffffffff160217905550600260009054906101000a900473ffffffffffffffffffffffffffffffffffffffff1673ffffffffffffffffffffffffffffffffffffffff167fc67398012c111ce95ecb7429b933096c977380ee6c421175a71a4a4c6c88c06e60405160405180910390a250565b600e60009054906101000a900473ffffffffffffffffffffffffffffffffffffffff1673ffffffffffffffffffffffffffffffffffffffff163373ffffffffffffffffffffffffffffffffffffffff16146142e1576040517f08c379a0000000000000000000000000000000000000000000000000000000008152600401808060200182810382526024815260200180616bdb6024913960400191505060405180910390fd5b61430c82828573ffffffffffffffffffffffffffffffffffffffff166158819092919063ffffffff16565b505050565b600260009054906101000a900473ffffffffffffffffffffffffffffffffffffffff1681565b600160149054906101000a900460ff16156143ba576040517f08c379a00000000000000000000000000000000000000000000000000000000081526004018080602001828103825260108152602001807f5061757361626c653a207061757365640000000000000000000000000000000081525060200191505060405180910390fd5b86600360008273ffffffffffffffffffffffffffffffffffffffff1673ffffffffffffffffffffffffffffffffffffffff16815260200190815260200160002060009054906101000a900460ff161561445e576040517f08c379a0000000000000000000000000000000000000000000000000000000008152600401808060200182810382526025815260200180616e156025913960400191505060405180910390fd5b86600360008273ffffffffffffffffffffffffffffffffffffffff1673ffffffffffffffffffffffffffffffffffffffff16815260200190815260200160002060009054906101000a900460ff1615614502576040517f08c379a0000000000000000000000000000000000000000000000000000000008152600401808060200182810382526025815260200180616e156025913960400191505060405180910390fd5b61451189898989898989615923565b505050505050505050565b600860149054906101000a900460ff16801561454a57506000601260009054906101000a900460ff1660ff16145b61455357600080fd5b8181600491906145649291906168a0565b506145e882828080601f016020809104026020016040519081016040528093929190818152602001838380828437600081840152601f19601f820116905080830192505050505050506040518060400160405280600181526020017f3200000000000000000000000000000000000000000000000000000000000000815250615b45565b600f819055506001601260006101000a81548160ff021916908360ff1602179055505050565b7f158b0a9edf7a828aad02f63cd515c68ef2f50ba807396f6d12842833a159742960001b81565b6000600a60008473ffffffffffffffffffffffffffffffffffffffff1673ffffffffffffffffffffffffffffffffffffffff16815260200190815260200160002060008373ffffffffffffffffffffffffffffffffffffffff1673ffffffffffffffffffffffffffffffffffffffff16815260200190815260200160002054905092915050565b600160149054906101000a900460ff161561473f576040517f08c379a00000000000000000000000000000000000000000000000000000000081526004018080602001828103825260108152602001807f5061757361626c653a207061757365640000000000000000000000000000000081525060200191505060405180910390fd5b88600360008273ffffffffffffffffffffffffffffffffffffffff1673ffffffffffffffffffffffffffffffffffffffff16815260200190815260200160002060009054906101000a900460ff16156147e3576040517f08c379a0000000000000000000000000000000000000000000000000000000008152600401808060200182810382526025815260200180616e156025913960400191505060405180910390fd5b88600360008273ffffffffffffffffffffffffffffffffffffffff1673ffffffffffffffffffffffffffffffffffffffff16815260200190815260200160002060009054906101000a900460ff1615614887576040517f08c379a0000000000000000000000000000000000000000000000000000000008152600401808060200182810382526025815260200180616e156025913960400191505060405180910390fd5b6148988b8b8b8b8b8b8b8b8b615bdf565b5050505050505050505050565b60078054600181600116156101000203166002900480601f01602080910402602001604051908101604052809291908181526020018280546001816001161561010002031660029004801561493b5780601f106149105761010080835404028352916020019161493b565b820191906000526020600020905b81548152906001019060200180831161491e57829003601f168201915b505050505081565b6000601060008473ffffffffffffffffffffffffffffffffffffffff1673ffffffffffffffffffffffffffffffffffffffff168152602001908152602001600020600083815260200190815260200160002060009054906101000a900460ff16905092915050565b600160149054906101000a900460ff1615614a2e576040517f08c379a00000000000000000000000000000000000000000000000000000000081526004018080602001828103825260108152602001807f5061757361626c653a207061757365640000000000000000000000000000000081525060200191505060405180910390fd5b88600360008273ffffffffffffffffffffffffffffffffffffffff1673ffffffffffffffffffffffffffffffffffffffff16815260200190815260200160002060009054906101000a900460ff1615614ad2576040517f08c379a0000000000000000000000000000000000000000000000000000000008152600401808060200182810382526025815260200180616e156025913960400191505060405180910390fd5b88600360008273ffffffffffffffffffffffffffffffffffffffff1673ffffffffffffffffffffffffffffffffffffffff16815260200190815260200160002060009054906101000a900460ff1615614b76576040517f08c379a0000000000000000000000000000000000000000000000000000000008152600401808060200182810382526025815260200180616e156025913960400191505060405180910390fd5b614b878b8b8b8b8b8b8b8b8b615d5e565b5050505050505050505050565b60008054906101000a900473ffffffffffffffffffffffffffffffffffffffff1673ffffffffffffffffffffffffffffffffffffffff163373ffffffffffffffffffffffffffffffffffffffff1614614c55576040517f08c379a00000000000000000000000000000000000000000000000000000000081526004018080602001828103825260208152602001807f4f776e61626c653a2063616c6c6572206973206e6f7420746865206f776e657281525060200191505060405180910390fd5b600073ffffffffffffffffffffffffffffffffffffffff168173ffffffffffffffffffffffffffffffffffffffff161415614cdb576040517f08c379a0000000000000000000000000000000000000000000000000000000008152600401808060200182810382526026815260200180616a266026913960400191505060405180910390fd5b7f8be0079c531659141344cd1fd0a4f28419497f9722a3daafe3b4186f6b6457e060008054906101000a900473ffffffffffffffffffffffffffffffffffffffff1682604051808373ffffffffffffffffffffffffffffffffffffffff1681526020018273ffffffffffffffffffffffffffffffffffffffff1681526020019250505060405180910390a1614d6f81615485565b50565b600260009054906101000a900473ffffffffffffffffffffffffffffffffffffffff1673ffffffffffffffffffffffffffffffffffffffff163373ffffffffffffffffffffffffffffffffffffffff1614614e18576040517f08c379a000000000000000000000000000000000000000000000000000000000815260040180806020018281038252602c815260200180616b39602c913960400191505060405180910390fd5b6001600360008373ffffffffffffffffffffffffffffffffffffffff1673ffffffffffffffffffffffffffffffffffffffff16815260200190815260200160002060006101000a81548160ff0219169083151502179055508073ffffffffffffffffffffffffffffffffffffffff167fffa4e6181777692565cf28528fc88fd1516ea86b56da075235fa575af6a4b85560405160405180910390a250565b6000600360008373ffffffffffffffffffffffffffffffffffffffff1673ffffffffffffffffffffffffffffffffffffffff16815260200190815260200160002060009054906101000a900460ff169050919050565b600073ffffffffffffffffffffffffffffffffffffffff168373ffffffffffffffffffffffffffffffffffffffff161415614f92576040517f08c379a0000000000000000000000000000000000000000000000000000000008152600401808060200182810382526024815260200180616cc96024913960400191505060405180910390fd5b600073ffffffffffffffffffffffffffffffffffffffff168273ffffffffffffffffffffffffffffffffffffffff161415615018576040517f08c379a0000000000000000000000000000000000000000000000000000000008152600401808060200182810382526022815260200180616a4c6022913960400191505060405180910390fd5b80600a60008573ffffffffffffffffffffffffffffffffffffffff1673ffffffffffffffffffffffffffffffffffffffff16815260200190815260200160002060008473ffffffffffffffffffffffffffffffffffffffff1673ffffffffffffffffffffffffffffffffffffffff168152602001908152602001600020819055508173ffffffffffffffffffffffffffffffffffffffff168373ffffffffffffffffffffffffffffffffffffffff167f8c5be1e5ebec7d5bd14f71427d1e84f3dd0314c0f7b2291e5b200ac8c7c3b925836040518082815260200191505060405180910390a3505050565b600073ffffffffffffffffffffffffffffffffffffffff168373ffffffffffffffffffffffffffffffffffffffff161415615189576040517f08c379a0000000000000000000000000000000000000000000000000000000008152600401808060200182810382526025815260200180616ca46025913960400191505060405180910390fd5b600073ffffffffffffffffffffffffffffffffffffffff168273ffffffffffffffffffffffffffffffffffffffff16141561520f576040517f08c379a000000000000000000000000000000000000000000000000000000000815260040180806020018281038252602381526020018061693e6023913960400191505060405180910390fd5b600960008473ffffffffffffffffffffffffffffffffffffffff1673ffffffffffffffffffffffffffffffffffffffff168152602001908152602001600020548111156152a7576040517f08c379a0000000000000000000000000000000000000000000000000000000008152600401808060200182810382526026815260200180616aea6026913960400191505060405180910390fd5b6152f981600960008673ffffffffffffffffffffffffffffffffffffffff1673ffffffffffffffffffffffffffffffffffffffff1681526020019081526020016000205461543b90919063ffffffff16565b600960008573ffffffffffffffffffffffffffffffffffffffff1673ffffffffffffffffffffffffffffffffffffffff1681526020019081526020016000208190555061538e81600960008573ffffffffffffffffffffffffffffffffffffffff1673ffffffffffffffffffffffffffffffffffffffff1681526020019081526020016000205461556690919063ffffffff16565b600960008473ffffffffffffffffffffffffffffffffffffffff1673ffffffffffffffffffffffffffffffffffffffff168152602001908152602001600020819055508173ffffffffffffffffffffffffffffffffffffffff168373ffffffffffffffffffffffffffffffffffffffff167fddf252ad1be2c89b69c2b068fc378daa952ba7f163c4a11628f55a4df523b3ef836040518082815260200191505060405180910390a3505050565b600061547d83836040518060400160405280601e81526020017f536166654d6174683a207375627472616374696f6e206f766572666c6f770000815250615f61565b905092915050565b806000806101000a81548173ffffffffffffffffffffffffffffffffffffffff021916908373ffffffffffffffffffffffffffffffffffffffff16021790555050565b615561838361555c84600a60008973ffffffffffffffffffffffffffffffffffffffff1673ffffffffffffffffffffffffffffffffffffffff16815260200190815260200160002060008873ffffffffffffffffffffffffffffffffffffffff1673ffffffffffffffffffffffffffffffffffffffff1681526020019081526020016000205461556690919063ffffffff16565b614f0c565b505050565b6000808284019050838110156155e4576040517f08c379a000000000000000000000000000000000000000000000000000000000815260040180806020018281038252601b8152602001807f536166654d6174683a206164646974696f6e206f766572666c6f77000000000081525060200191505060405180910390fd5b8091505092915050565b6155f88585616021565b60607f158b0a9edf7a828aad02f63cd515c68ef2f50ba807396f6d12842833a159742960001b8686604051602001808481526020018373ffffffffffffffffffffffffffffffffffffffff168152602001828152602001935050505060405160208183030381529060405290508573ffffffffffffffffffffffffffffffffffffffff1661568b600f54868686866160d9565b73ffffffffffffffffffffffffffffffffffffffff1614615714576040517f08c379a000000000000000000000000000000000000000000000000000000000815260040180806020018281038252601e8152602001807f46696174546f6b656e56323a20696e76616c6964207369676e6174757265000081525060200191505060405180910390fd5b6001601060008873ffffffffffffffffffffffffffffffffffffffff1673ffffffffffffffffffffffffffffffffffffffff168152602001908152602001600020600087815260200190815260200160002060006101000a81548160ff021916908315150217905550848673ffffffffffffffffffffffffffffffffffffffff167f1cdd46ff242716cdaa72d159d339a485b3438398348d68f09d7c8c0a59353d8160405160405180910390a3505050505050565b61587c838361587784604051806060016040528060258152602001616e5f60259139600a60008a73ffffffffffffffffffffffffffffffffffffffff1673ffffffffffffffffffffffffffffffffffffffff16815260200190815260200160002060008973ffffffffffffffffffffffffffffffffffffffff1673ffffffffffffffffffffffffffffffffffffffff16815260200190815260200160002054615f619092919063ffffffff16565b614f0c565b505050565b61591e8363a9059cbb60e01b8484604051602401808373ffffffffffffffffffffffffffffffffffffffff16815260200182815260200192505050604051602081830303815290604052907bffffffffffffffffffffffffffffffffffffffffffffffffffffffff19166020820180517bffffffffffffffffffffffffffffffffffffffffffffffffffffffff8381831617835250505050616154565b505050565b42841015615999576040517f08c379a000000000000000000000000000000000000000000000000000000000815260040180806020018281038252601e8152602001807f46696174546f6b656e56323a207065726d69742069732065787069726564000081525060200191505060405180910390fd5b60607f6e71edae12b1b97f4d1f60370fef10105fa2faae0126114a169c64845d6126c960001b888888601160008d73ffffffffffffffffffffffffffffffffffffffff1673ffffffffffffffffffffffffffffffffffffffff16815260200190815260200160002060008154809291906001019190505589604051602001808781526020018673ffffffffffffffffffffffffffffffffffffffff1681526020018573ffffffffffffffffffffffffffffffffffffffff168152602001848152602001838152602001828152602001965050505050505060405160208183030381529060405290508773ffffffffffffffffffffffffffffffffffffffff16615aa7600f54868686866160d9565b73ffffffffffffffffffffffffffffffffffffffff1614615b30576040517f08c379a000000000000000000000000000000000000000000000000000000000815260040180806020018281038252601a8152602001807f454950323631323a20696e76616c6964207369676e617475726500000000000081525060200191505060405180910390fd5b615b3b888888614f0c565b5050505050505050565b6000804690507f8b73c3c69bb8fe3d512ecc4cf759cc79239f7b179b0ffacaa9a75d522b39400f848051906020012084805190602001208330604051602001808681526020018581526020018481526020018381526020018273ffffffffffffffffffffffffffffffffffffffff168152602001955050505050506040516020818303038152906040528051906020012091505092915050565b615beb89858888616243565b60607f7c7c6cdb67a18743f49ec6fa9b35f50d52ed05cbed4cc592e13b44501c1a226760001b8a8a8a8a8a8a604051602001808881526020018773ffffffffffffffffffffffffffffffffffffffff1681526020018673ffffffffffffffffffffffffffffffffffffffff16815260200185815260200184815260200183815260200182815260200197505050505050505060405160208183030381529060405290508973ffffffffffffffffffffffffffffffffffffffff16615cb4600f54868686866160d9565b73ffffffffffffffffffffffffffffffffffffffff1614615d3d576040517f08c379a000000000000000000000000000000000000000000000000000000000815260040180806020018281038252601e8152602001807f46696174546f6b656e56323a20696e76616c6964207369676e6174757265000081525060200191505060405180910390fd5b615d478a86616303565b615d528a8a8a615103565b50505050505050505050565b3373ffffffffffffffffffffffffffffffffffffffff168873ffffffffffffffffffffffffffffffffffffffff1614615de2576040517f08c379a0000000000000000000000000000000000000000000000000000000008152600401808060200182810382526025815260200180616c556025913960400191505060405180910390fd5b615dee89858888616243565b60607fd099cc98ef71107a616c4f0f941f04c322d8e254fe26b3c6668db87aae413de860001b8a8a8a8a8a8a604051602001808881526020018773ffffffffffffffffffffffffffffffffffffffff1681526020018673ffffffffffffffffffffffffffffffffffffffff16815260200185815260200184815260200183815260200182815260200197505050505050505060405160208183030381529060405290508973ffffffffffffffffffffffffffffffffffffffff16615eb7600f54868686866160d9565b73ffffffffffffffffffffffffffffffffffffffff1614615f40576040517f08c379a000000000000000000000000000000000000000000000000000000000815260040180806020018281038252601e8152602001807f46696174546f6b656e56323a20696e76616c6964207369676e6174757265000081525060200191505060405180910390fd5b615f4a8a86616303565b615f558a8a8a615103565b50505050505050505050565b600083831115829061600e576040517f08c379a00000000000000000000000000000000000000000000000000000000081526004018080602001828103825283818151815260200191508051906020019080838360005b83811015615fd3578082015181840152602081019050615fb8565b50505050905090810190601f1680156160005780820380516001836020036101000a031916815260200191505b509250505060405180910390fd5b5060008385039050809150509392505050565b601060008373ffffffffffffffffffffffffffffffffffffffff1673ffffffffffffffffffffffffffffffffffffffff168152602001908152602001600020600082815260200190815260200160002060009054906101000a900460ff16156160d5576040517f08c379a000000000000000000000000000000000000000000000000000000000815260040180806020018281038252602e815260200180616db5602e913960400191505060405180910390fd5b5050565b60008086838051906020012060405160200180807f190100000000000000000000000000000000000000000000000000000000000081525060020183815260200182815260200192505050604051602081830303815290604052805190602001209050616148818787876163b4565b91505095945050505050565b60606161b6826040518060400160405280602081526020017f5361666545524332303a206c6f772d6c6576656c2063616c6c206661696c65648152508573ffffffffffffffffffffffffffffffffffffffff166165b79092919063ffffffff16565b905060008151111561623e578080602001905160208110156161d757600080fd5b810190808051906020019092919050505061623d576040517f08c379a000000000000000000000000000000000000000000000000000000000815260040180806020018281038252602a815260200180616d63602a913960400191505060405180910390fd5b5b505050565b81421161629b576040517f08c379a000000000000000000000000000000000000000000000000000000000815260040180806020018281038252602b815260200180616989602b913960400191505060405180910390fd5b8042106162f3576040517f08c379a0000000000000000000000000000000000000000000000000000000008152600401808060200182810382526025815260200180616e3a6025913960400191505060405180910390fd5b6162fd8484616021565b50505050565b6001601060008473ffffffffffffffffffffffffffffffffffffffff1673ffffffffffffffffffffffffffffffffffffffff168152602001908152602001600020600083815260200190815260200160002060006101000a81548160ff021916908315150217905550808273ffffffffffffffffffffffffffffffffffffffff167f98de503528ee59b575ef0c0a2576a82497bfc029a5685b209e9ec333479b10a560405160405180910390a35050565b60007f7fffffffffffffffffffffffffffffff5d576e7357a4501ddfe92f46681b20a08260001c1115616432576040517f08c379a0000000000000000000000000000000000000000000000000000000008152600401808060200182810382526026815260200180616d3d6026913960400191505060405180910390fd5b601b8460ff161415801561644a5750601c8460ff1614155b156164a0576040517f08c379a0000000000000000000000000000000000000000000000000000000008152600401808060200182810382526026815260200180616a006026913960400191505060405180910390fd5b600060018686868660405160008152602001604052604051808581526020018460ff1681526020018381526020018281526020019450505050506020604051602081039080840390855afa1580156164fc573d6000803e3d6000fd5b505050602060405103519050600073ffffffffffffffffffffffffffffffffffffffff168173ffffffffffffffffffffffffffffffffffffffff1614156165ab576040517f08c379a000000000000000000000000000000000000000000000000000000000815260040180806020018281038252601c8152602001807f45435265636f7665723a20696e76616c6964207369676e61747572650000000081525060200191505060405180910390fd5b80915050949350505050565b60606165c684846000856165cf565b90509392505050565b60606165da856167d5565b61664c576040517f08c379a000000000000000000000000000000000000000000000000000000000815260040180806020018281038252601d8152602001807f416464726573733a2063616c6c20746f206e6f6e2d636f6e747261637400000081525060200191505060405180910390fd5b600060608673ffffffffffffffffffffffffffffffffffffffff1685876040518082805190602001908083835b6020831061669c5780518252602082019150602081019050602083039250616679565b6001836020036101000a03801982511681845116808217855250505050505090500191505060006040518083038185875af1925050503d80600081146166fe576040519150601f19603f3d011682016040523d82523d6000602084013e616703565b606091505b509150915081156167185780925050506167cd565b60008151111561672b5780518082602001fd5b836040517f08c379a00000000000000000000000000000000000000000000000000000000081526004018080602001828103825283818151815260200191508051906020019080838360005b83811015616792578082015181840152602081019050616777565b50505050905090810190601f1680156167bf5780820380516001836020036101000a031916815260200191505b509250505060405180910390fd5b949350505050565b60008060007fc5d2460186f7233c927e7db2dcc703c0e500b653ca82273b7bfad8045d85a47060001b9050833f915080821415801561681757506000801b8214155b92505050919050565b828054600181600116156101000203166002900490600052602060002090601f016020900481019282601f1061686157805160ff191683800117855561688f565b8280016001018555821561688f579182015b8281111561688e578251825591602001919060010190616873565b5b50905061689c9190616920565b5090565b828054600181600116156101000203166002900490600052602060002090601f016020900481019282601f106168e157803560ff191683800117855561690f565b8280016001018555821561690f579182015b8281111561690e5782358255916020019190600101906168f3565b5b50905061691c9190616920565b5090565b5b80821115616939576000816000905550600101616921565b509056fe45524332303a207472616e7366657220746f20746865207a65726f20616464726573735061757361626c653a206e65772070617573657220697320746865207a65726f206164647265737346696174546f6b656e56323a20617574686f72697a6174696f6e206973206e6f74207965742076616c696446696174546f6b656e3a206275726e20616d6f756e74206e6f742067726561746572207468616e203046696174546f6b656e3a206d696e7420746f20746865207a65726f206164647265737345435265636f7665723a20696e76616c6964207369676e6174757265202776272076616c75654f776e61626c653a206e6577206f776e657220697320746865207a65726f206164647265737345524332303a20617070726f766520746f20746865207a65726f206164647265737346696174546f6b656e3a206e65772070617573657220697320746865207a65726f2061646472657373526573637561626c653a206e6577207265736375657220697320746865207a65726f206164647265737346696174546f6b656e3a206d696e7420616d6f756e74206e6f742067726561746572207468616e203045524332303a207472616e7366657220616d6f756e7420657863656564732062616c616e636546696174546f6b656e3a2063616c6c6572206973206e6f7420746865206d61737465724d696e746572426c61636b6c69737461626c653a2063616c6c6572206973206e6f742074686520626c61636b6c697374657246696174546f6b656e3a206275726e20616d6f756e7420657863656564732062616c616e636546696174546f6b656e3a2063616c6c6572206973206e6f742061206d696e74657246696174546f6b656e3a206e6577206d61737465724d696e74657220697320746865207a65726f2061646472657373526573637561626c653a2063616c6c6572206973206e6f7420746865207265736375657245524332303a207472616e7366657220616d6f756e74206578636565647320616c6c6f77616e636546696174546f6b656e3a206e657720626c61636b6c697374657220697320746865207a65726f206164647265737346696174546f6b656e56323a2063616c6c6572206d7573742062652074686520706179656546696174546f6b656e3a20636f6e747261637420697320616c726561647920696e697469616c697a656445524332303a207472616e736665722066726f6d20746865207a65726f206164647265737345524332303a20617070726f76652066726f6d20746865207a65726f206164647265737346696174546f6b656e3a206d696e7420616d6f756e742065786365656473206d696e746572416c6c6f77616e63655061757361626c653a2063616c6c6572206973206e6f74207468652070617573657245435265636f7665723a20696e76616c6964207369676e6174757265202773272076616c75655361666545524332303a204552433230206f7065726174696f6e20646964206e6f74207375636365656446696174546f6b656e3a206e6577206f776e657220697320746865207a65726f206164647265737346696174546f6b656e56323a20617574686f72697a6174696f6e2069732075736564206f722063616e63656c6564426c61636b6c69737461626c653a206e657720626c61636b6c697374657220697320746865207a65726f2061646472657373426c61636b6c69737461626c653a206163636f756e7420697320626c61636b6c697374656446696174546f6b656e56323a20617574686f72697a6174696f6e206973206578706972656445524332303a2064656372656173656420616c6c6f77616e63652062656c6f77207a65726fa26469706673582212208e3f8907c3a3059b398867622605957a3f0c9326b696fe2b608f0954f2495b7064736f6c634300060c0033",
  "linkReferences": {},
  "deployedLinkReferences": {}
}