{
  "_format": "hh-sol-artifact-1",
  "contractName": "InitSiloToken",
  "sourceName": "contracts/farm/init/InitSiloToken.sol",
  "abi": [
    {
      "inputs": [
        {
          "internalType": "address",
          "name": "token",
          "type": "address"
        },
        {
          "internalType": "bytes4",
          "name": "selector",
          "type": "bytes4"
        },
        {
          "internalType": "uint32",
          "name": "stalk",
          "type": "uint32"
        },
        {
          "internalType": "uint32",
          "name": "seeds",
          "type": "uint32"
        }
      ],
      "name": "init",
      "outputs": [],
      "stateMutability": "nonpayable",
      "type": "function"
    }
  ],
  "bytecode": "0x608060405234801561001057600080fd5b506102c0806100206000396000f3fe608060405234801561001057600080fd5b506004361061002b5760003560e01c8063c6cec33a14610030575b600080fd5b61004a60048036038101906100459190610102565b61004c565b005b3073ffffffffffffffffffffffffffffffffffffffff1663d8a6aafe858585856040518563ffffffff1660e01b815260040161008b9493929190610192565b600060405180830381600087803b1580156100a557600080fd5b505af11580156100b9573d6000803e3d6000fd5b5050505050505050565b6000813590506100d281610245565b92915050565b6000813590506100e78161025c565b92915050565b6000813590506100fc81610273565b92915050565b6000806000806080858703121561011857600080fd5b6000610126878288016100c3565b9450506020610137878288016100d8565b9350506040610148878288016100ed565b9250506060610159878288016100ed565b91505092959194509250565b61016e816101d7565b82525050565b61017d816101e9565b82525050565b61018c81610235565b82525050565b60006080820190506101a76000830187610165565b6101b46020830186610174565b6101c16040830185610183565b6101ce6060830184610183565b95945050505050565b60006101e282610215565b9050919050565b60007fffffffff0000000000000000000000000000000000000000000000000000000082169050919050565b600073ffffffffffffffffffffffffffffffffffffffff82169050919050565b600063ffffffff82169050919050565b61024e816101d7565b811461025957600080fd5b50565b610265816101e9565b811461027057600080fd5b50565b61027c81610235565b811461028757600080fd5b5056fea2646970667358221220d8e8b7491444ac40a43f7c07679bda756fcdb043defe8b132866405bc146989b64736f6c63430007060033",
  "linkReferences": {},
  "deployedLinkReferences": {}
}