{
  "_format": "hh-sol-artifact-1",
  "contractName": "Replant5",
  "sourceName": "contracts/farm/init/replant/Replant5.sol",
  "abi": [
    {
      "anonymous": false,
      "inputs": [
        {
          "indexed": true,
          "internalType": "address",
          "name": "account",
          "type": "address"
        },
        {
          "indexed": true,
          "internalType": "address",
          "name": "token",
          "type": "address"
        },
        {
          "indexed": false,
          "internalType": "uint32",
          "name": "season",
          "type": "uint32"
        },
        {
          "indexed": false,
          "internalType": "uint256",
          "name": "amounts",
          "type": "uint256"
        },
        {
          "indexed": false,
          "internalType": "uint256",
          "name": "bdv",
          "type": "uint256"
        }
      ],
      "name": "AddDeposit",
      "type": "event"
    },
    {
      "anonymous": false,
      "inputs": [
        {
          "indexed": true,
          "internalType": "address",
          "name": "account",
          "type": "address"
        },
        {
          "indexed": false,
          "internalType": "uint32[]",
          "name": "crates",
          "type": "uint32[]"
        },
        {
          "indexed": false,
          "internalType": "uint256[]",
          "name": "crateBeans",
          "type": "uint256[]"
        },
        {
          "indexed": false,
          "internalType": "uint256",
          "name": "beans",
          "type": "uint256"
        }
      ],
      "name": "BeanRemove",
      "type": "event"
    },
    {
      "inputs": [
        {
          "components": [
            {
              "internalType": "address",
              "name": "account",
              "type": "address"
            },
            {
              "internalType": "uint32[]",
              "name": "seasons",
              "type": "uint32[]"
            },
            {
              "internalType": "uint256[]",
              "name": "amounts",
              "type": "uint256[]"
            },
            {
              "internalType": "uint256",
              "name": "amount",
              "type": "uint256"
            }
          ],
          "internalType": "struct Replant5.V1Deposit[]",
          "name": "beanDeposits",
          "type": "tuple[]"
        }
      ],
      "name": "init",
      "outputs": [],
      "stateMutability": "nonpayable",
      "type": "function"
    }
  ],
  "bytecode": "0x608060405234801561001057600080fd5b5061083e806100206000396000f3fe608060405234801561001057600080fd5b506004361061002b5760003560e01c806382a559aa14610030575b600080fd5b61004a60048036038101906100459190610454565b61004c565b005b610056828261005a565b5050565b60005b82829050811015610267573683838381811061007557fe5b905060200281019061008791906106ea565b905080600001602081019061009c919061042b565b73ffffffffffffffffffffffffffffffffffffffff167fb1511f53c8c8020440892bf35427efcc4bdf15b8aae2a6f49294e94e2b3267e08280602001906100e39190610693565b8480604001906100f3919061063c565b86606001356040516101099594939291906105bc565b60405180910390a260005b8180602001906101249190610693565b905081101561025a5761013561026c565b73ffffffffffffffffffffffffffffffffffffffff1682600001602081019061015e919061042b565b73ffffffffffffffffffffffffffffffffffffffff167fdbe49eaf5c2a8a7f65920c200ca5d47395540b884f6a1886fdb2611624f9981b8480602001906101a59190610693565b858181106101af57fe5b90506020020160208101906101c49190610499565b8580604001906101d4919061063c565b868181106101de57fe5b905060200201356102386101f0610288565b61022a6101fb610298565b8a806040019061020b919061063c565b8b81811061021557fe5b905060200201356102a890919063ffffffff16565b61032e90919063ffffffff16565b60405161024793929190610605565b60405180910390a3806001019050610114565b505080600101905061005d565b505050565b6000731bea0050e63e05fbb5d8ba2f10cf5800b6224449905090565b6000670de0b6b3a7640000905090565b600067029342191969bfcd905090565b6000808314156102bb5760009050610328565b60008284029050828482816102cc57fe5b0414610323576040517f08c379a00000000000000000000000000000000000000000000000000000000081526004018080602001828103825260218152602001806107e86021913960400191505060405180910390fd5b809150505b92915050565b60008082116103a5576040517f08c379a000000000000000000000000000000000000000000000000000000000815260040180806020018281038252601a8152602001807f536166654d6174683a206469766973696f6e206279207a65726f00000000000081525060200191505060405180910390fd5b8183816103ae57fe5b04905092915050565b6000813590506103c6816107b9565b92915050565b60008083601f8401126103de57600080fd5b8235905067ffffffffffffffff8111156103f757600080fd5b60208301915083602082028301111561040f57600080fd5b9250929050565b600081359050610425816107d0565b92915050565b60006020828403121561043d57600080fd5b600061044b848285016103b7565b91505092915050565b6000806020838503121561046757600080fd5b600083013567ffffffffffffffff81111561048157600080fd5b61048d858286016103cc565b92509250509250929050565b6000602082840312156104ab57600080fd5b60006104b984828501610416565b91505092915050565b60006104ce838361059e565b60208301905092915050565b60006104e68385610725565b93507f07ffffffffffffffffffffffffffffffffffffffffffffffffffffffffffffff83111561051557600080fd5b6020830292506105268385846107aa565b82840190509392505050565b600061053e8385610736565b93506105498261070e565b8060005b858110156105825761055f8284610747565b61056988826104c2565b975061057483610718565b92505060018101905061054d565b5085925050509392505050565b61059881610790565b82525050565b6105a78161079a565b82525050565b6105b68161079a565b82525050565b600060608201905081810360008301526105d7818789610532565b905081810360208301526105ec8185876104da565b90506105fb604083018461058f565b9695505050505050565b600060608201905061061a60008301866105ad565b610627602083018561058f565b610634604083018461058f565b949350505050565b6000808335600160200384360303811261065557600080fd5b80840192508235915067ffffffffffffffff82111561067357600080fd5b60208301925060208202360383131561068b57600080fd5b509250929050565b600080833560016020038436030381126106ac57600080fd5b80840192508235915067ffffffffffffffff8211156106ca57600080fd5b6020830192506020820236038313156106e257600080fd5b509250929050565b60008235600160800383360303811261070257600080fd5b80830191505092915050565b6000819050919050565b6000602082019050919050565b600082825260208201905092915050565b600082825260208201905092915050565b60006107566020840184610416565b905092915050565b600061076982610770565b9050919050565b600073ffffffffffffffffffffffffffffffffffffffff82169050919050565b6000819050919050565b600063ffffffff82169050919050565b82818337600083830152505050565b6107c28161075e565b81146107cd57600080fd5b50565b6107d98161079a565b81146107e457600080fd5b5056fe536166654d6174683a206d756c7469706c69636174696f6e206f766572666c6f77a2646970667358221220632f513d3d1dde7324d33973e911cb4fc3e9d158c5a8928650963a0e5512368e64736f6c63430007060033",
  "linkReferences": {},
  "deployedLinkReferences": {}
}