{
  "_format": "hh-sol-artifact-1",
  "contractName": "CurveFacet",
  "sourceName": "contracts/farm/facets/CurveFacet.sol",
  "abi": [
    {
      "inputs": [
        {
          "internalType": "address",
          "name": "pool",
          "type": "address"
        },
        {
          "internalType": "address",
          "name": "registry",
          "type": "address"
        },
        {
          "internalType": "uint256[]",
          "name": "amounts",
          "type": "uint256[]"
        },
        {
          "internalType": "uint256",
          "name": "minAmountOut",
          "type": "uint256"
        },
        {
          "internalType": "enum LibTransfer.From",
          "name": "fromMode",
          "type": "uint8"
        },
        {
          "internalType": "enum LibTransfer.To",
          "name": "toMode",
          "type": "uint8"
        }
      ],
      "name": "addLiquidity",
      "outputs": [],
      "stateMutability": "payable",
      "type": "function"
    },
    {
      "inputs": [
        {
          "internalType": "address",
          "name": "pool",
          "type": "address"
        },
        {
          "internalType": "address",
          "name": "registry",
          "type": "address"
        },
        {
          "internalType": "address",
          "name": "fromToken",
          "type": "address"
        },
        {
          "internalType": "address",
          "name": "toToken",
          "type": "address"
        },
        {
          "internalType": "uint256",
          "name": "amountIn",
          "type": "uint256"
        },
        {
          "internalType": "uint256",
          "name": "minAmountOut",
          "type": "uint256"
        },
        {
          "internalType": "enum LibTransfer.From",
          "name": "fromMode",
          "type": "uint8"
        },
        {
          "internalType": "enum LibTransfer.To",
          "name": "toMode",
          "type": "uint8"
        }
      ],
      "name": "exchange",
      "outputs": [],
      "stateMutability": "payable",
      "type": "function"
    },
    {
      "inputs": [
        {
          "internalType": "address",
          "name": "pool",
          "type": "address"
        },
        {
          "internalType": "address",
          "name": "fromToken",
          "type": "address"
        },
        {
          "internalType": "address",
          "name": "toToken",
          "type": "address"
        },
        {
          "internalType": "uint256",
          "name": "amountIn",
          "type": "uint256"
        },
        {
          "internalType": "uint256",
          "name": "minAmountOut",
          "type": "uint256"
        },
        {
          "internalType": "enum LibTransfer.From",
          "name": "fromMode",
          "type": "uint8"
        },
        {
          "internalType": "enum LibTransfer.To",
          "name": "toMode",
          "type": "uint8"
        }
      ],
      "name": "exchangeUnderlying",
      "outputs": [],
      "stateMutability": "payable",
      "type": "function"
    },
    {
      "inputs": [
        {
          "internalType": "address",
          "name": "pool",
          "type": "address"
        },
        {
          "internalType": "address",
          "name": "registry",
          "type": "address"
        },
        {
          "internalType": "uint256",
          "name": "amountIn",
          "type": "uint256"
        },
        {
          "internalType": "uint256[]",
          "name": "minAmountsOut",
          "type": "uint256[]"
        },
        {
          "internalType": "enum LibTransfer.From",
          "name": "fromMode",
          "type": "uint8"
        },
        {
          "internalType": "enum LibTransfer.To",
          "name": "toMode",
          "type": "uint8"
        }
      ],
      "name": "removeLiquidity",
      "outputs": [],
      "stateMutability": "payable",
      "type": "function"
    },
    {
      "inputs": [
        {
          "internalType": "address",
          "name": "pool",
          "type": "address"
        },
        {
          "internalType": "address",
          "name": "registry",
          "type": "address"
        },
        {
          "internalType": "uint256[]",
          "name": "amountsOut",
          "type": "uint256[]"
        },
        {
          "internalType": "uint256",
          "name": "maxAmountIn",
          "type": "uint256"
        },
        {
          "internalType": "enum LibTransfer.From",
          "name": "fromMode",
          "type": "uint8"
        },
        {
          "internalType": "enum LibTransfer.To",
          "name": "toMode",
          "type": "uint8"
        }
      ],
      "name": "removeLiquidityImbalance",
      "outputs": [],
      "stateMutability": "payable",
      "type": "function"
    },
    {
      "inputs": [
        {
          "internalType": "address",
          "name": "pool",
          "type": "address"
        },
        {
          "internalType": "address",
          "name": "registry",
          "type": "address"
        },
        {
          "internalType": "address",
          "name": "toToken",
          "type": "address"
        },
        {
          "internalType": "uint256",
          "name": "amountIn",
          "type": "uint256"
        },
        {
          "internalType": "uint256",
          "name": "minAmountOut",
          "type": "uint256"
        },
        {
          "internalType": "enum LibTransfer.From",
          "name": "fromMode",
          "type": "uint8"
        },
        {
          "internalType": "enum LibTransfer.To",
          "name": "toMode",
          "type": "uint8"
        }
      ],
      "name": "removeLiquidityOneToken",
      "outputs": [],
      "stateMutability": "payable",
      "type": "function"
    }
  ],
  "bytecode": "0x608060405234801561001057600080fd5b50614f00806100206000396000f3fe6080604052600436106100555760003560e01c80630e4c2e311461005a578063548d873a14610076578063567af763146100925780637579e160146100ae578063bc18a8c4146100ca578063cc77c379146100e6575b600080fd5b610074600480360381019061006f9190614320565b610102565b005b610090600480360381019061008b919061413a565b610960565b005b6100ac60048036038101906100a791906141d8565b610bb0565b005b6100c860048036038101906100c39190614088565b6112e3565b005b6100e460048036038101906100df919061427f565b61180f565b005b61010060048036038101906100fb919061413a565b611edf565b005b60026000601e0154141561014b576040517f08c379a0000000000000000000000000000000000000000000000000000000008152600401610142906149e0565b60405180910390fd5b60026000601e018190555060006101618861234f565b90506101908633858473ffffffffffffffffffffffffffffffffffffffff166123ee909392919063ffffffff16565b955060008585905090506101a3896125ea565b15610491576000806101b58b8b612666565b905060008367ffffffffffffffff811180156101d057600080fd5b506040519080825280602002602001820160405280156101ff5781602001602082028036833780820191505090505b50905060005b848110156102c95782816008811061021957fe5b602002015173ffffffffffffffffffffffffffffffffffffffff166370a08231306040518263ffffffff1660e01b8152600401610256919061479b565b60206040518083038186803b15801561026e57600080fd5b505afa158015610282573d6000803e3d6000fd5b505050506040513d601f19601f820116820180604052508101906102a69190614495565b8282815181106102b257fe5b602002602001018181525050806001019050610205565b508b73ffffffffffffffffffffffffffffffffffffffff1663ecb586a58b60405180606001604052808d8d60008181106102ff57fe5b9050602002013581526020018d8d600181811061031857fe5b9050602002013581526020018d8d600281811061033157fe5b905060200201358152506040518363ffffffff1660e01b8152600401610358929190614a37565b600060405180830381600087803b15801561037257600080fd5b505af1158015610386573d6000803e3d6000fd5b5050505060005b84811015610486576104538282815181106103a457fe5b60200260200101518483600881106103b857fe5b602002015173ffffffffffffffffffffffffffffffffffffffff166370a08231306040518263ffffffff1660e01b81526004016103f5919061479b565b60206040518083038186803b15801561040d57600080fd5b505afa158015610421573d6000803e3d6000fd5b505050506040513d601f19601f820116820180604052508101906104459190614495565b612a8c90919063ffffffff16565b9350600084111561047b5761047a83826008811061046d57fe5b602002015185338a612b0f565b5b80600101905061038d565b50505050505061094c565b600080600181111561049f57fe5b8460018111156104ab57fe5b146104b657306104b8565b335b905060008267ffffffffffffffff811180156104d357600080fd5b506040519080825280602002602001820160405280156105025781602001602082028036833780820191505090505b50905060028314156106205760008b73ffffffffffffffffffffffffffffffffffffffff16633eb1719f8b60405180604001604052808d8d600081811061054557fe5b9050602002013581526020018d8d600181811061055e57fe5b90506020020135815250866040518463ffffffff1660e01b815260040161058793929190614a00565b6040805180830381600087803b1580156105a057600080fd5b505af11580156105b4573d6000803e3d6000fd5b505050506040513d601f19601f820116820180604052508101906105d8919061441a565b905060005b84811015610619578181600281106105f157fe5b602002015183828151811061060257fe5b6020026020010181815250508060010190506105dd565b5050610897565b60038314156107555760008b73ffffffffffffffffffffffffffffffffffffffff16632da5dc218b60405180606001604052808d8d600081811061066057fe5b9050602002013581526020018d8d600181811061067957fe5b9050602002013581526020018d8d600281811061069257fe5b90506020020135815250866040518463ffffffff1660e01b81526004016106bb93929190614a60565b606060405180830381600087803b1580156106d557600080fd5b505af11580156106e9573d6000803e3d6000fd5b505050506040513d601f19601f8201168201806040525081019061070d9190614443565b905060005b8481101561074e5781816003811061072657fe5b602002015183828151811061073757fe5b602002602001018181525050806001019050610712565b5050610896565b60008b73ffffffffffffffffffffffffffffffffffffffff1663b2fdb76f8b60405180608001604052808d8d600081811061078c57fe5b9050602002013581526020018d8d60018181106107a557fe5b9050602002013581526020018d8d60028181106107be57fe5b9050602002013581526020018d8d60038181106107d757fe5b90506020020135815250866040518463ffffffff1660e01b815260040161080093929190614a97565b608060405180830381600087803b15801561081a57600080fd5b505af115801561082e573d6000803e3d6000fd5b505050506040513d601f19601f82011682018060405250810190610852919061446c565b905060005b848110156108935781816004811061086b57fe5b602002015183828151811061087c57fe5b602002602001018181525050806001019050610857565b50505b5b6001808111156108a357fe5b8560018111156108af57fe5b14156109475760006108c18c8c612666565b905060005b848110156109445760008382815181106108dc57fe5b60200260200101511115610939576109388282600881106108f957fe5b602002015184838151811061090a57fe5b60200260200101513373ffffffffffffffffffffffffffffffffffffffff16612b7e9092919063ffffffff16565b5b8060010190506108c6565b50505b505050505b60016000601e018190555050505050505050565b60026000601e015414156109a9576040517f08c379a00000000000000000000000000000000000000000000000000000000081526004016109a0906149e0565b60405180910390fd5b60026000601e01819055506000806109c288888b612bbe565b915091506109f38633868b73ffffffffffffffffffffffffffffffffffffffff166123ee909392919063ffffffff16565b9550610a2089878a73ffffffffffffffffffffffffffffffffffffffff16612dcb9092919063ffffffff16565b60006001811115610a2d57fe5b836001811115610a3957fe5b1415610ad8578873ffffffffffffffffffffffffffffffffffffffff166344ee198683838989336040518663ffffffff1660e01b8152600401610a809594939291906148f2565b602060405180830381600087803b158015610a9a57600080fd5b505af1158015610aae573d6000803e3d6000fd5b505050506040513d601f19601f82011682018060405250810190610ad29190614495565b50610b9a565b60008973ffffffffffffffffffffffffffffffffffffffff1663a6417ed684848a8a6040518563ffffffff1660e01b8152600401610b1994939291906148ad565b602060405180830381600087803b158015610b3357600080fd5b505af1158015610b47573d6000803e3d6000fd5b505050506040513d601f19601f82011682018060405250810190610b6b9190614495565b9050610b9888823373ffffffffffffffffffffffffffffffffffffffff16612b7e9092919063ffffffff16565b505b505060016000601e018190555050505050505050565b60026000601e01541415610bf9576040517f08c379a0000000000000000000000000000000000000000000000000000000008152600401610bf0906149e0565b60405180910390fd5b60026000601e01819055506000610c0f8861234f565b9050610c3e8433858473ffffffffffffffffffffffffffffffffffffffff166123ee909392919063ffffffff16565b935060008686905090506000610c538a6125ea565b15610f1d57610c618a612eb3565b610ca0576040517f08c379a0000000000000000000000000000000000000000000000000000000008152600401610c9790614960565b60405180910390fd5b6000610cac8b8b612666565b90506000610cb98c61234f565b905060008173ffffffffffffffffffffffffffffffffffffffff166370a08231306040518263ffffffff1660e01b8152600401610cf6919061479b565b60206040518083038186803b158015610d0e57600080fd5b505afa158015610d22573d6000803e3d6000fd5b505050506040513d601f19601f82011682018060405250810190610d469190614495565b90508c73ffffffffffffffffffffffffffffffffffffffff16639fdaea0c60405180606001604052808e8e6000818110610d7c57fe5b9050602002013581526020018e8e6001818110610d9557fe5b9050602002013581526020018e8e6002818110610dae57fe5b905060200201358152508b6040518363ffffffff1660e01b8152600401610dd6929190614816565b600060405180830381600087803b158015610df057600080fd5b505af1158015610e04573d6000803e3d6000fd5b5050505060005b85811015610e685760008c8c83818110610e2157fe5b905060200201351115610e5d57610e5c848260088110610e3d57fe5b60200201518d8d84818110610e4e57fe5b90506020020135338b612b0f565b5b806001019050610e0b565b50610f048273ffffffffffffffffffffffffffffffffffffffff166370a08231306040518263ffffffff1660e01b8152600401610ea5919061479b565b60206040518083038186803b158015610ebd57600080fd5b505afa158015610ed1573d6000803e3d6000fd5b505050506040513d601f19601f82011682018060405250810190610ef59190614495565b82612a8c90919063ffffffff16565b9350610f12868a868b612ef2565b5050505050506112cf565b6000806001811115610f2b57fe5b856001811115610f3757fe5b14610f425730610f44565b335b9050600283141561101f578a73ffffffffffffffffffffffffffffffffffffffff166352d2cfdd60405180604001604052808c8c6000818110610f8357fe5b9050602002013581526020018c8c6001818110610f9c57fe5b9050602002013581525089846040518463ffffffff1660e01b8152600401610fc6939291906147df565b602060405180830381600087803b158015610fe057600080fd5b505af1158015610ff4573d6000803e3d6000fd5b505050506040513d601f19601f820116820180604052508101906110189190614495565b9150611210565b6003831415611111578a73ffffffffffffffffffffffffffffffffffffffff16639504fae860405180606001604052808c8c600081811061105c57fe5b9050602002013581526020018c8c600181811061107557fe5b9050602002013581526020018c8c600281811061108e57fe5b9050602002013581525089846040518463ffffffff1660e01b81526004016110b89392919061483f565b602060405180830381600087803b1580156110d257600080fd5b505af11580156110e6573d6000803e3d6000fd5b505050506040513d601f19601f8201168201806040525081019061110a9190614495565b915061120f565b8a73ffffffffffffffffffffffffffffffffffffffff16634ab3a82b60405180608001604052808c8c600081811061114557fe5b9050602002013581526020018c8c600181811061115e57fe5b9050602002013581526020018c8c600281811061117757fe5b9050602002013581526020018c8c600381811061119057fe5b9050602002013581525089846040518463ffffffff1660e01b81526004016111ba93929190614876565b602060405180830381600087803b1580156111d457600080fd5b505af11580156111e8573d6000803e3d6000fd5b505050506040513d601f19601f8201168201806040525081019061120c9190614495565b91505b5b61121c84888489612ef2565b60018081111561122857fe5b85600181111561123457fe5b14156112ca5760006112468c8c612666565b905060005b848110156112c75760008b8b8381811061126157fe5b9050602002013511156112bc576112bb82826008811061127d57fe5b60200201518c8c8481811061128e57fe5b905060200201353373ffffffffffffffffffffffffffffffffffffffff16612b7e9092919063ffffffff16565b5b80600101905061124b565b50505b505050505b60016000601e018190555050505050505050565b60026000601e0154141561132c576040517f08c379a0000000000000000000000000000000000000000000000000000000008152600401611323906149e0565b60405180910390fd5b60026000601e018190555060008061134688888c8c612f5c565b915091506113778633868b73ffffffffffffffffffffffffffffffffffffffff166123ee909392919063ffffffff16565b95506113a48a878a73ffffffffffffffffffffffffffffffffffffffff16612dcb9092919063ffffffff16565b600060018111156113b157fe5b8360018111156113bd57fe5b1480156113cf57506113ce896130d6565b5b1561146d578973ffffffffffffffffffffffffffffffffffffffff1663ddc1f59d83838989336040518663ffffffff1660e01b81526004016114159594939291906148f2565b602060405180830381600087803b15801561142f57600080fd5b505af1158015611443573d6000803e3d6000fd5b505050506040513d601f19601f820116820180604052508101906114679190614495565b506117f8565b60006114788b6125ea565b156116a95760008873ffffffffffffffffffffffffffffffffffffffff166370a08231306040518263ffffffff1660e01b81526004016114b8919061479b565b60206040518083038186803b1580156114d057600080fd5b505afa1580156114e4573d6000803e3d6000fd5b505050506040513d601f19601f820116820180604052508101906115089190614495565b90506115138c612eb3565b1561158e578b73ffffffffffffffffffffffffffffffffffffffff16633df0212485858b8b6040518563ffffffff1660e01b815260040161155794939291906148ad565b600060405180830381600087803b15801561157157600080fd5b505af1158015611585573d6000803e3d6000fd5b50505050611606565b8b73ffffffffffffffffffffffffffffffffffffffff16635b41b90885600f0b85600f0b8b8b6040518563ffffffff1660e01b81526004016115d39493929190614b81565b600060405180830381600087803b1580156115ed57600080fd5b505af1158015611601573d6000803e3d6000fd5b505050505b6116a1818a73ffffffffffffffffffffffffffffffffffffffff166370a08231306040518263ffffffff1660e01b8152600401611643919061479b565b60206040518083038186803b15801561165b57600080fd5b505afa15801561166f573d6000803e3d6000fd5b505050506040513d601f19601f820116820180604052508101906116939190614495565b612a8c90919063ffffffff16565b9150506117ea565b6116b28a6130d6565b1561174f578a73ffffffffffffffffffffffffffffffffffffffff16633df0212484848a8a6040518563ffffffff1660e01b81526004016116f694939291906148ad565b602060405180830381600087803b15801561171057600080fd5b505af1158015611724573d6000803e3d6000fd5b505050506040513d601f19601f820116820180604052508101906117489190614495565b90506117e9565b8a73ffffffffffffffffffffffffffffffffffffffff16635b41b90884600f0b84600f0b8a8a6040518563ffffffff1660e01b81526004016117949493929190614b81565b602060405180830381600087803b1580156117ae57600080fd5b505af11580156117c2573d6000803e3d6000fd5b505050506040513d601f19601f820116820180604052508101906117e69190614495565b90505b5b6117f688823387612b0f565b505b505060016000601e01819055505050505050505050565b60026000601e01541415611858576040517f08c379a000000000000000000000000000000000000000000000000000000000815260040161184f906149e0565b60405180910390fd5b60026000601e0181905550600061186f8787612666565b905060008551905060005b8181101561196057600087828151811061189057fe5b60200260200101511115611955576118ee8782815181106118ad57fe5b602002602001015133878685600881106118c357fe5b602002015173ffffffffffffffffffffffffffffffffffffffff166123ee909392919063ffffffff16565b8782815181106118fa57fe5b6020026020010181815250506119548988838151811061191657fe5b602002602001015185846008811061192a57fe5b602002015173ffffffffffffffffffffffffffffffffffffffff16612dcb9092919063ffffffff16565b5b80600101905061187a565b50600061196c896125ea565b15611b8157600061197c8a61234f565b905060008173ffffffffffffffffffffffffffffffffffffffff166370a08231306040518263ffffffff1660e01b81526004016119b9919061479b565b60206040518083038186803b1580156119d157600080fd5b505afa1580156119e5573d6000803e3d6000fd5b505050506040513d601f19601f82011682018060405250810190611a099190614495565b90508a73ffffffffffffffffffffffffffffffffffffffff16634515cef360405180606001604052808c600081518110611a3f57fe5b602002602001015181526020018c600181518110611a5957fe5b602002602001015181526020018c600281518110611a7357fe5b60200260200101518152508a6040518363ffffffff1660e01b8152600401611a9c929190614816565b600060405180830381600087803b158015611ab657600080fd5b505af1158015611aca573d6000803e3d6000fd5b50505050611b69818373ffffffffffffffffffffffffffffffffffffffff166370a08231306040518263ffffffff1660e01b8152600401611b0b919061479b565b60206040518083038186803b158015611b2357600080fd5b505afa158015611b37573d6000803e3d6000fd5b505050506040513d601f19601f82011682018060405250810190611b5b9190614495565b612a8c90919063ffffffff16565b9250611b7782843389612b0f565b5050505050611ecc565b6000806001811115611b8f57fe5b856001811115611b9b57fe5b14611ba65730611ba8565b335b90506002831415611c85578973ffffffffffffffffffffffffffffffffffffffff16630c3e4b5460405180604001604052808b600081518110611be757fe5b602002602001015181526020018b600181518110611c0157fe5b602002602001015181525089846040518463ffffffff1660e01b8152600401611c2c939291906147df565b602060405180830381600087803b158015611c4657600080fd5b505af1158015611c5a573d6000803e3d6000fd5b505050506040513d601f19601f82011682018060405250810190611c7e9190614495565b9150611e7d565b6003831415611d7a578973ffffffffffffffffffffffffffffffffffffffff166375b96abc60405180606001604052808b600081518110611cc257fe5b602002602001015181526020018b600181518110611cdc57fe5b602002602001015181526020018b600281518110611cf657fe5b602002602001015181525089846040518463ffffffff1660e01b8152600401611d219392919061483f565b602060405180830381600087803b158015611d3b57600080fd5b505af1158015611d4f573d6000803e3d6000fd5b505050506040513d601f19601f82011682018060405250810190611d739190614495565b9150611e7c565b8973ffffffffffffffffffffffffffffffffffffffff1663cb49506460405180608001604052808b600081518110611dae57fe5b602002602001015181526020018b600181518110611dc857fe5b602002602001015181526020018b600281518110611de257fe5b602002602001015181526020018b600381518110611dfc57fe5b602002602001015181525089846040518463ffffffff1660e01b8152600401611e2793929190614876565b602060405180830381600087803b158015611e4157600080fd5b505af1158015611e55573d6000803e3d6000fd5b505050506040513d601f19601f82011682018060405250810190611e799190614495565b91505b5b600180811115611e8957fe5b856001811115611e9557fe5b1415611ec757611ec68a833373ffffffffffffffffffffffffffffffffffffffff16612b7e9092919063ffffffff16565b5b505050505b60016000601e0181905550505050505050565b60026000601e01541415611f28576040517f08c379a0000000000000000000000000000000000000000000000000000000008152600401611f1f906149e0565b60405180910390fd5b60026000601e01819055506000611f3e8861234f565b9050611f6d8533858473ffffffffffffffffffffffffffffffffffffffff166123ee909392919063ffffffff16565b94506000611f7c878a8a613122565b9050611f87896125ea565b156121c25760008773ffffffffffffffffffffffffffffffffffffffff166370a08231306040518263ffffffff1660e01b8152600401611fc7919061479b565b60206040518083038186803b158015611fdf57600080fd5b505afa158015611ff3573d6000803e3d6000fd5b505050506040513d601f19601f820116820180604052508101906120179190614495565b90506120228a612eb3565b1561209b578973ffffffffffffffffffffffffffffffffffffffff16631a4d01d28884896040518463ffffffff1660e01b815260040161206493929190614ace565b600060405180830381600087803b15801561207e57600080fd5b505af1158015612092573d6000803e3d6000fd5b5050505061210e565b8973ffffffffffffffffffffffffffffffffffffffff1663f1dc3cc98884600f0b896040518463ffffffff1660e01b81526004016120db93929190614b4a565b600060405180830381600087803b1580156120f557600080fd5b505af1158015612109573d6000803e3d6000fd5b505050505b60006121ab828a73ffffffffffffffffffffffffffffffffffffffff166370a08231306040518263ffffffff1660e01b815260040161214d919061479b565b60206040518083038186803b15801561216557600080fd5b505afa158015612179573d6000803e3d6000fd5b505050506040513d601f19601f8201168201806040525081019061219d9190614495565b612a8c90919063ffffffff16565b90506121b989823388612b0f565b5050505061233b565b600060018111156121cf57fe5b8360018111156121db57fe5b1415612278578873ffffffffffffffffffffffffffffffffffffffff1663081579a5878388336040518563ffffffff1660e01b81526004016122209493929190614b05565b602060405180830381600087803b15801561223a57600080fd5b505af115801561224e573d6000803e3d6000fd5b505050506040513d601f19601f820116820180604052508101906122729190614495565b50612338565b60008973ffffffffffffffffffffffffffffffffffffffff16631a4d01d28884896040518463ffffffff1660e01b81526004016122b793929190614ace565b602060405180830381600087803b1580156122d157600080fd5b505af11580156122e5573d6000803e3d6000fd5b505050506040513d601f19601f820116820180604052508101906123099190614495565b905061233688823373ffffffffffffffffffffffffffffffffffffffff16612b7e9092919063ffffffff16565b505b50505b60016000601e018190555050505050505050565b6000612359613235565b73ffffffffffffffffffffffffffffffffffffffff168273ffffffffffffffffffffffffffffffffffffffff16141561239b57612394613251565b90506123e9565b6123a361326d565b73ffffffffffffffffffffffffffffffffffffffff168273ffffffffffffffffffffffffffffffffffffffff1614156123e5576123de613289565b90506123e9565b8190505b919050565b60008084141561240157600090506125e2565b6000600381111561240e57fe5b82600381111561241a57fe5b14612475576124458386866001600381111561243257fe5b86600381111561243e57fe5b14156132a5565b90508084148061246a575060038081111561245c57fe5b82600381111561246857fe5b145b15612474576125e2565b5b60008573ffffffffffffffffffffffffffffffffffffffff166370a08231306040518263ffffffff1660e01b81526004016124b0919061479b565b60206040518083038186803b1580156124c857600080fd5b505afa1580156124dc573d6000803e3d6000fd5b505050506040513d601f19601f820116820180604052508101906125009190614495565b905061253184308488038973ffffffffffffffffffffffffffffffffffffffff16613333909392919063ffffffff16565b6125de6125cf828873ffffffffffffffffffffffffffffffffffffffff166370a08231306040518263ffffffff1660e01b8152600401612571919061479b565b60206040518083038186803b15801561258957600080fd5b505afa15801561259d573d6000803e3d6000fd5b505050506040513d601f19601f820116820180604052508101906125c19190614495565b612a8c90919063ffffffff16565b836133f490919063ffffffff16565b9150505b949350505050565b60006125f461326d565b73ffffffffffffffffffffffffffffffffffffffff168273ffffffffffffffffffffffffffffffffffffffff16148061265f5750612630613235565b73ffffffffffffffffffffffffffffffffffffffff168273ffffffffffffffffffffffffffffffffffffffff16145b9050919050565b61266e613c55565b73b9fc157394af804a3578134a6585c0dc9cc990d473ffffffffffffffffffffffffffffffffffffffff168273ffffffffffffffffffffffffffffffffffffffff16141561292d5760008273ffffffffffffffffffffffffffffffffffffffff16639ac90d3d856040518263ffffffff1660e01b81526004016126f1919061479b565b60806040518083038186803b15801561270957600080fd5b505afa15801561271d573d6000803e3d6000fd5b505050506040513d601f19601f8201168201806040525081019061274191906143c7565b90506040518061010001604052808260006004811061275c57fe5b602002015173ffffffffffffffffffffffffffffffffffffffff1673ffffffffffffffffffffffffffffffffffffffff1681526020018260016004811061279f57fe5b602002015173ffffffffffffffffffffffffffffffffffffffff1673ffffffffffffffffffffffffffffffffffffffff168152602001826002600481106127e257fe5b602002015173ffffffffffffffffffffffffffffffffffffffff1673ffffffffffffffffffffffffffffffffffffffff1681526020018260036004811061282557fe5b602002015173ffffffffffffffffffffffffffffffffffffffff1673ffffffffffffffffffffffffffffffffffffffff168152602001600073ffffffffffffffffffffffffffffffffffffffff1673ffffffffffffffffffffffffffffffffffffffff168152602001600073ffffffffffffffffffffffffffffffffffffffff1673ffffffffffffffffffffffffffffffffffffffff168152602001600073ffffffffffffffffffffffffffffffffffffffff1673ffffffffffffffffffffffffffffffffffffffff168152602001600073ffffffffffffffffffffffffffffffffffffffff1673ffffffffffffffffffffffffffffffffffffffff16815250915050612a86565b7390e00ace148ca3b23ac1bc8c240c2a7dd9c2d7f573ffffffffffffffffffffffffffffffffffffffff168273ffffffffffffffffffffffffffffffffffffffff1614806129ba5750738f942c20d02befc377d41445793068908e2250d073ffffffffffffffffffffffffffffffffffffffff168273ffffffffffffffffffffffffffffffffffffffff16145b6129f9576040517f08c379a00000000000000000000000000000000000000000000000000000000081526004016129f0906149c0565b60405180910390fd5b8173ffffffffffffffffffffffffffffffffffffffff16639ac90d3d846040518263ffffffff1660e01b8152600401612a32919061479b565b6101006040518083038186803b158015612a4b57600080fd5b505afa158015612a5f573d6000803e3d6000fd5b505050506040513d601f19601f82011682018060405250810190612a8391906143f0565b90505b92915050565b600082821115612b04576040517f08c379a000000000000000000000000000000000000000000000000000000000815260040180806020018281038252601e8152602001807f536166654d6174683a207375627472616374696f6e206f766572666c6f77000081525060200191505060405180910390fd5b818303905092915050565b6000831415612b1d57612b78565b600180811115612b2957fe5b816001811115612b3557fe5b1415612b4b57612b46828585612b7e565b612b77565b612b7682848673ffffffffffffffffffffffffffffffffffffffff1661347c9092919063ffffffff16565b5b5b50505050565b6000612b8a848461351e565b90506000612ba183836133f490919063ffffffff16565b9050612bb7858583612bb2876135b3565b613635565b5050505050565b600080600073b9fc157394af804a3578134a6585c0dc9cc990d473ffffffffffffffffffffffffffffffffffffffff1663a77576ef856040518263ffffffff1660e01b8152600401612c10919061479b565b6101006040518083038186803b158015612c2957600080fd5b505afa158015612c3d573d6000803e3d6000fd5b505050506040513d601f19601f82011682018060405250810190612c6191906143f0565b9050600892506008915060005b6008811015612d66578673ffffffffffffffffffffffffffffffffffffffff16828260088110612c9a57fe5b602002015173ffffffffffffffffffffffffffffffffffffffff161415612cc357809350612d5b565b8573ffffffffffffffffffffffffffffffffffffffff16828260088110612ce657fe5b602002015173ffffffffffffffffffffffffffffffffffffffff161415612d0f57809250612d5a565b600073ffffffffffffffffffffffffffffffffffffffff16828260088110612d3357fe5b602002015173ffffffffffffffffffffffffffffffffffffffff161415612d5957612d66565b5b5b806001019050612c6e565b506008600f0b83600f0b128015612d8357506008600f0b82600f0b125b612dc2576040517f08c379a0000000000000000000000000000000000000000000000000000000008152600401612db9906149a0565b60405180910390fd5b50935093915050565b7fffffffffffffffffffffffffffffffffffffffffffffffffffffffffffffffff8373ffffffffffffffffffffffffffffffffffffffff1663dd62ed3e30856040518363ffffffff1660e01b8152600401612e279291906147b6565b60206040518083038186803b158015612e3f57600080fd5b505afa158015612e53573d6000803e3d6000fd5b505050506040513d601f19601f82011682018060405250810190612e779190614495565b1415612e8257612eae565b612ead82828573ffffffffffffffffffffffffffffffffffffffff166137309092919063ffffffff16565b5b505050565b6000612ebd613235565b73ffffffffffffffffffffffffffffffffffffffff168273ffffffffffffffffffffffffffffffffffffffff16149050919050565b82821015612f56576000806003811115612f0857fe5b826003811115612f1457fe5b14612f20576001612f23565b60005b9050612f5483850333838873ffffffffffffffffffffffffffffffffffffffff16612b0f909392919063ffffffff16565b505b50505050565b6000806000612f6b8585612666565b9050600892506008915060005b6008811015613070578773ffffffffffffffffffffffffffffffffffffffff16828260088110612fa457fe5b602002015173ffffffffffffffffffffffffffffffffffffffff161415612fcd57809350613065565b8673ffffffffffffffffffffffffffffffffffffffff16828260088110612ff057fe5b602002015173ffffffffffffffffffffffffffffffffffffffff16141561301957809250613064565b600073ffffffffffffffffffffffffffffffffffffffff1682826008811061303d57fe5b602002015173ffffffffffffffffffffffffffffffffffffffff16141561306357613070565b5b5b806001019050612f78565b506008600f0b83600f0b12801561308d57506008600f0b82600f0b125b6130cc576040517f08c379a00000000000000000000000000000000000000000000000000000000081526004016130c3906149a0565b60405180910390fd5b5094509492505050565b600073b9fc157394af804a3578134a6585c0dc9cc990d473ffffffffffffffffffffffffffffffffffffffff168273ffffffffffffffffffffffffffffffffffffffff16149050919050565b60008061312f8484612666565b90506008915060005b60088110156131e3578573ffffffffffffffffffffffffffffffffffffffff1682826008811061316457fe5b602002015173ffffffffffffffffffffffffffffffffffffffff16141561318d578092506131d8565b600073ffffffffffffffffffffffffffffffffffffffff168282600881106131b157fe5b602002015173ffffffffffffffffffffffffffffffffffffffff1614156131d7576131e3565b5b806001019050613138565b506008600f0b82600f0b1261322d576040517f08c379a0000000000000000000000000000000000000000000000000000000008152600401613224906149a0565b60405180910390fd5b509392505050565b600073bebc44782c7db0a1a60cb6fe97d0b483032ff1c7905090565b6000736c3f90f043a72fa612cbac8115ee7e52bde6e490905090565b600073d51a44d3fae010294c616388b506acda1bfaae46905090565b600073c4ad29ba4b3c580e6d59105fff484999997675ff905090565b6000806132b2868661351e565b905082806132c05750838110155b6132ff576040517f08c379a00000000000000000000000000000000000000000000000000000000081526004016132f690614980565b60405180910390fd5b61330981856138a9565b915060008282039050613329878783613321876135b3565b600003613635565b5050949350505050565b6133ee846323b872dd60e01b858585604051602401808473ffffffffffffffffffffffffffffffffffffffff1681526020018373ffffffffffffffffffffffffffffffffffffffff1681526020018281526020019350505050604051602081830303815290604052907bffffffffffffffffffffffffffffffffffffffffffffffffffffffff19166020820180517bffffffffffffffffffffffffffffffffffffffffffffffffffffffff83818316178352505050506138c2565b50505050565b600080828401905083811015613472576040517f08c379a000000000000000000000000000000000000000000000000000000000815260040180806020018281038252601b8152602001807f536166654d6174683a206164646974696f6e206f766572666c6f77000000000081525060200191505060405180910390fd5b8091505092915050565b6135198363a9059cbb60e01b8484604051602401808373ffffffffffffffffffffffffffffffffffffffff16815260200182815260200192505050604051602081830303815290604052907bffffffffffffffffffffffffffffffffffffffffffffffffffffffff19166020820180517bffffffffffffffffffffffffffffffffffffffffffffffffffffffff83818316178352505050506138c2565b505050565b6000806135296139b1565b905080603e0160008573ffffffffffffffffffffffffffffffffffffffff1673ffffffffffffffffffffffffffffffffffffffff16815260200190815260200160002060008473ffffffffffffffffffffffffffffffffffffffff1673ffffffffffffffffffffffffffffffffffffffff1681526020019081526020016000205491505092915050565b60007f8000000000000000000000000000000000000000000000000000000000000000821061362d576040517f08c379a0000000000000000000000000000000000000000000000000000000008152600401808060200182810382526028815260200180614e796028913960400191505060405180910390fd5b819050919050565b600061363f6139b1565b90508281603e0160008773ffffffffffffffffffffffffffffffffffffffff1673ffffffffffffffffffffffffffffffffffffffff16815260200190815260200160002060008673ffffffffffffffffffffffffffffffffffffffff1673ffffffffffffffffffffffffffffffffffffffff168152602001908152602001600020819055508373ffffffffffffffffffffffffffffffffffffffff168573ffffffffffffffffffffffffffffffffffffffff167f18e1ea4139e68413d7d08aa752e71568e36b2c5bf940893314c2c5b01eaa0c42846040516137219190614945565b60405180910390a35050505050565b6000613804828573ffffffffffffffffffffffffffffffffffffffff1663dd62ed3e30876040518363ffffffff1660e01b8152600401808373ffffffffffffffffffffffffffffffffffffffff1681526020018273ffffffffffffffffffffffffffffffffffffffff1681526020019250505060206040518083038186803b1580156137bb57600080fd5b505afa1580156137cf573d6000803e3d6000fd5b505050506040513d60208110156137e557600080fd5b81019080805190602001909291905050506133f490919063ffffffff16565b90506138a38463095ea7b360e01b8584604051602401808373ffffffffffffffffffffffffffffffffffffffff16815260200182815260200192505050604051602081830303815290604052907bffffffffffffffffffffffffffffffffffffffffffffffffffffffff19166020820180517bffffffffffffffffffffffffffffffffffffffffffffffffffffffff83818316178352505050506138c2565b50505050565b60008183106138b857816138ba565b825b905092915050565b6000613924826040518060400160405280602081526020017f5361666545524332303a206c6f772d6c6576656c2063616c6c206661696c65648152508573ffffffffffffffffffffffffffffffffffffffff166139b69092919063ffffffff16565b90506000815111156139ac5780806020019051602081101561394557600080fd5b81019080805190602001909291905050506139ab576040517f08c379a000000000000000000000000000000000000000000000000000000000815260040180806020018281038252602a815260200180614ea1602a913960400191505060405180910390fd5b5b505050565b600090565b60606139c584846000856139ce565b90509392505050565b606082471015613a29576040517f08c379a0000000000000000000000000000000000000000000000000000000008152600401808060200182810382526026815260200180614e536026913960400191505060405180910390fd5b613a3285613b76565b613aa4576040517f08c379a000000000000000000000000000000000000000000000000000000000815260040180806020018281038252601d8152602001807f416464726573733a2063616c6c20746f206e6f6e2d636f6e747261637400000081525060200191505060405180910390fd5b6000808673ffffffffffffffffffffffffffffffffffffffff1685876040518082805190602001908083835b60208310613af35780518252602082019150602081019050602083039250613ad0565b6001836020036101000a03801982511681845116808217855250505050505090500191505060006040518083038185875af1925050503d8060008114613b55576040519150601f19603f3d011682016040523d82523d6000602084013e613b5a565b606091505b5091509150613b6a828286613b89565b92505050949350505050565b600080823b905060008111915050919050565b60608315613b9957829050613c4e565b600083511115613bac5782518084602001fd5b816040517f08c379a00000000000000000000000000000000000000000000000000000000081526004018080602001828103825283818151815260200191508051906020019080838360005b83811015613c13578082015181840152602081019050613bf8565b50505050905090810190601f168015613c405780820380516001836020036101000a031916815260200191505b509250505060405180910390fd5b9392505050565b604051806101000160405280600890602082028036833780820191505090505090565b6000613c8b613c8684614bf7565b614bc6565b90508082856020860282011115613ca157600080fd5b60005b85811015613cd15781613cb78882613ee8565b845260208401935060208301925050600181019050613ca4565b5050509392505050565b6000613cee613ce984614c1d565b614bc6565b90508082856020860282011115613d0457600080fd5b60005b85811015613d345781613d1a8882613ee8565b845260208401935060208301925050600181019050613d07565b5050509392505050565b6000613d51613d4c84614c43565b614bc6565b90508082856020860282011115613d6757600080fd5b60005b85811015613d975781613d7d8882614073565b845260208401935060208301925050600181019050613d6a565b5050509392505050565b6000613db4613daf84614c69565b614bc6565b90508082856020860282011115613dca57600080fd5b60005b85811015613dfa5781613de08882614073565b845260208401935060208301925050600181019050613dcd565b5050509392505050565b6000613e17613e1284614c8f565b614bc6565b90508082856020860282011115613e2d57600080fd5b60005b85811015613e5d5781613e438882614073565b845260208401935060208301925050600181019050613e30565b5050509392505050565b6000613e7a613e7584614cb5565b614bc6565b90508083825260208201905082856020860282011115613e9957600080fd5b60005b85811015613ec95781613eaf888261405e565b845260208401935060208301925050600181019050613e9c565b5050509392505050565b600081359050613ee281614e04565b92915050565b600081519050613ef781614e04565b92915050565b600082601f830112613f0e57600080fd5b6004613f1b848285613c78565b91505092915050565b600082601f830112613f3557600080fd5b6008613f42848285613cdb565b91505092915050565b600082601f830112613f5c57600080fd5b6002613f69848285613d3e565b91505092915050565b600082601f830112613f8357600080fd5b6003613f90848285613da1565b91505092915050565b600082601f830112613faa57600080fd5b6004613fb7848285613e04565b91505092915050565b60008083601f840112613fd257600080fd5b8235905067ffffffffffffffff811115613feb57600080fd5b60208301915083602082028301111561400357600080fd5b9250929050565b600082601f83011261401b57600080fd5b813561402b848260208601613e67565b91505092915050565b60008135905061404381614e1b565b92915050565b60008135905061405881614e2b565b92915050565b60008135905061406d81614e3b565b92915050565b60008151905061408281614e3b565b92915050565b600080600080600080600080610100898b0312156140a557600080fd5b60006140b38b828c01613ed3565b98505060206140c48b828c01613ed3565b97505060406140d58b828c01613ed3565b96505060606140e68b828c01613ed3565b95505060806140f78b828c0161405e565b94505060a06141088b828c0161405e565b93505060c06141198b828c01614034565b92505060e061412a8b828c01614049565b9150509295985092959890939650565b600080600080600080600060e0888a03121561415557600080fd5b60006141638a828b01613ed3565b97505060206141748a828b01613ed3565b96505060406141858a828b01613ed3565b95505060606141968a828b0161405e565b94505060806141a78a828b0161405e565b93505060a06141b88a828b01614034565b92505060c06141c98a828b01614049565b91505092959891949750929550565b600080600080600080600060c0888a0312156141f357600080fd5b60006142018a828b01613ed3565b97505060206142128a828b01613ed3565b965050604088013567ffffffffffffffff81111561422f57600080fd5b61423b8a828b01613fc0565b9550955050606061424e8a828b0161405e565b935050608061425f8a828b01614034565b92505060a06142708a828b01614049565b91505092959891949750929550565b60008060008060008060c0878903121561429857600080fd5b60006142a689828a01613ed3565b96505060206142b789828a01613ed3565b955050604087013567ffffffffffffffff8111156142d457600080fd5b6142e089828a0161400a565b94505060606142f189828a0161405e565b935050608061430289828a01614034565b92505060a061431389828a01614049565b9150509295509295509295565b600080600080600080600060c0888a03121561433b57600080fd5b60006143498a828b01613ed3565b975050602061435a8a828b01613ed3565b965050604061436b8a828b0161405e565b955050606088013567ffffffffffffffff81111561438857600080fd5b6143948a828b01613fc0565b945094505060806143a78a828b01614034565b92505060a06143b88a828b01614049565b91505092959891949750929550565b6000608082840312156143d957600080fd5b60006143e784828501613efd565b91505092915050565b6000610100828403121561440357600080fd5b600061441184828501613f24565b91505092915050565b60006040828403121561442c57600080fd5b600061443a84828501613f4b565b91505092915050565b60006060828403121561445557600080fd5b600061446384828501613f72565b91505092915050565b60006080828403121561447e57600080fd5b600061448c84828501613f99565b91505092915050565b6000602082840312156144a757600080fd5b60006144b584828501614073565b91505092915050565b60006144ca838361477d565b60208301905092915050565b6144df81614dcc565b82525050565b6144ee81614d79565b82525050565b6144fd81614cff565b6145078184614d47565b925061451282614ce1565b8060005b8381101561454357815161452a87826144be565b965061453583614d20565b925050600181019050614516565b505050505050565b61455481614d0a565b61455e8184614d52565b925061456982614ceb565b8060005b8381101561459a57815161458187826144be565b965061458c83614d2d565b92505060018101905061456d565b505050505050565b6145ab81614d15565b6145b58184614d5d565b92506145c082614cf5565b8060005b838110156145f15781516145d887826144be565b96506145e383614d3a565b9250506001810190506145c4565b505050505050565b61460281614d8b565b82525050565b61461181614d98565b82525050565b6000614624601f83614d68565b91507f43757276653a207472692d63727970746f206e6f7420737570706f72746564006000830152602082019050919050565b6000614664602683614d68565b91507f42616c616e63653a20496e73756666696369656e7420696e7465726e616c206260008301527f616c616e636500000000000000000000000000000000000000000000000000006020830152604082019050919050565b60006146ca601983614d68565b91507f43757276653a20546f6b656e73206e6f7420696e20706f6f6c000000000000006000830152602082019050919050565b600061470a601983614d68565b91507f43757276653a204e6f742076616c6964207265676973747279000000000000006000830152602082019050919050565b600061474a601f83614d68565b91507f5265656e7472616e637947756172643a207265656e7472616e742063616c6c006000830152602082019050919050565b61478681614dc2565b82525050565b61479581614dc2565b82525050565b60006020820190506147b060008301846144e5565b92915050565b60006040820190506147cb60008301856144e5565b6147d860208301846144e5565b9392505050565b60006080820190506147f460008301866144f4565b614801604083018561478c565b61480e60608301846144e5565b949350505050565b600060808201905061482b600083018561454b565b614838606083018461478c565b9392505050565b600060a082019050614854600083018661454b565b614861606083018561478c565b61486e60808301846144e5565b949350505050565b600060c08201905061488b60008301866145a2565b614898608083018561478c565b6148a560a08301846144e5565b949350505050565b60006080820190506148c260008301876145f9565b6148cf60208301866145f9565b6148dc604083018561478c565b6148e9606083018461478c565b95945050505050565b600060a08201905061490760008301886145f9565b61491460208301876145f9565b614921604083018661478c565b61492e606083018561478c565b61493b60808301846144d6565b9695505050505050565b600060208201905061495a6000830184614608565b92915050565b6000602082019050818103600083015261497981614617565b9050919050565b6000602082019050818103600083015261499981614657565b9050919050565b600060208201905081810360008301526149b9816146bd565b9050919050565b600060208201905081810360008301526149d9816146fd565b9050919050565b600060208201905081810360008301526149f98161473d565b9050919050565b6000608082019050614a15600083018661478c565b614a2260208301856144f4565b614a2f60608301846144e5565b949350505050565b6000608082019050614a4c600083018561478c565b614a59602083018461454b565b9392505050565b600060a082019050614a75600083018661478c565b614a82602083018561454b565b614a8f60808301846144e5565b949350505050565b600060c082019050614aac600083018661478c565b614ab960208301856145a2565b614ac660a08301846144e5565b949350505050565b6000606082019050614ae3600083018661478c565b614af060208301856145f9565b614afd604083018461478c565b949350505050565b6000608082019050614b1a600083018761478c565b614b2760208301866145f9565b614b34604083018561478c565b614b4160608301846144d6565b95945050505050565b6000606082019050614b5f600083018661478c565b614b6c602083018561478c565b614b79604083018461478c565b949350505050565b6000608082019050614b96600083018761478c565b614ba3602083018661478c565b614bb0604083018561478c565b614bbd606083018461478c565b95945050505050565b6000604051905081810181811067ffffffffffffffff82111715614bed57614bec614e02565b5b8060405250919050565b600067ffffffffffffffff821115614c1257614c11614e02565b5b602082029050919050565b600067ffffffffffffffff821115614c3857614c37614e02565b5b602082029050919050565b600067ffffffffffffffff821115614c5e57614c5d614e02565b5b602082029050919050565b600067ffffffffffffffff821115614c8457614c83614e02565b5b602082029050919050565b600067ffffffffffffffff821115614caa57614ca9614e02565b5b602082029050919050565b600067ffffffffffffffff821115614cd057614ccf614e02565b5b602082029050602081019050919050565b6000819050919050565b6000819050919050565b6000819050919050565b600060029050919050565b600060039050919050565b600060049050919050565b6000602082019050919050565b6000602082019050919050565b6000602082019050919050565b600081905092915050565b600081905092915050565b600081905092915050565b600082825260208201905092915050565b6000614d8482614da2565b9050919050565b600081600f0b9050919050565b6000819050919050565b600073ffffffffffffffffffffffffffffffffffffffff82169050919050565b6000819050919050565b6000614dd782614dde565b9050919050565b6000614de982614df0565b9050919050565b6000614dfb82614da2565b9050919050565bfe5b614e0d81614d79565b8114614e1857600080fd5b50565b60048110614e2857600080fd5b50565b60028110614e3857600080fd5b50565b614e4481614dc2565b8114614e4f57600080fd5b5056fe416464726573733a20696e73756666696369656e742062616c616e636520666f722063616c6c53616665436173743a2076616c756520646f65736e27742066697420696e20616e20696e743235365361666545524332303a204552433230206f7065726174696f6e20646964206e6f742073756363656564a264697066735822122003b9c4845bdc0705ed33544251ed3c074568caa0c2d88cf14b832d1b6f455d9264736f6c63430007060033",
  "linkReferences": {},
  "deployedLinkReferences": {}
}