{
  "_format": "hh-sol-artifact-1",
  "contractName": "FertilizerFacet",
  "sourceName": "contracts/farm/facets/FertilizerFacet.sol",
  "abi": [
    {
      "anonymous": false,
      "inputs": [
        {
          "indexed": false,
          "internalType": "uint128",
          "name": "id",
          "type": "uint128"
        },
        {
          "indexed": false,
          "internalType": "uint128",
          "name": "bpf",
          "type": "uint128"
        }
      ],
      "name": "SetFertilizer",
      "type": "event"
    },
    {
      "inputs": [
        {
          "internalType": "uint128",
          "name": "id",
          "type": "uint128"
        },
        {
          "internalType": "uint128",
          "name": "amount",
          "type": "uint128"
        },
        {
          "internalType": "uint256",
          "name": "minLP",
          "type": "uint256"
        }
      ],
      "name": "addFertilizerOwner",
      "outputs": [],
      "stateMutability": "payable",
      "type": "function"
    },
    {
      "inputs": [
        {
          "internalType": "address[]",
          "name": "accounts",
          "type": "address[]"
        },
        {
          "internalType": "uint256[]",
          "name": "ids",
          "type": "uint256[]"
        }
      ],
      "name": "balanceOfBatchFertilizer",
      "outputs": [
        {
          "components": [
            {
              "internalType": "uint128",
              "name": "amount",
              "type": "uint128"
            },
            {
              "internalType": "uint128",
              "name": "lastBpf",
              "type": "uint128"
            }
          ],
          "internalType": "struct IFertilizer.Balance[]",
          "name": "",
          "type": "tuple[]"
        }
      ],
      "stateMutability": "view",
      "type": "function"
    },
    {
      "inputs": [
        {
          "internalType": "address",
          "name": "account",
          "type": "address"
        },
        {
          "internalType": "uint256[]",
          "name": "ids",
          "type": "uint256[]"
        }
      ],
      "name": "balanceOfFertilized",
      "outputs": [
        {
          "internalType": "uint256",
          "name": "beans",
          "type": "uint256"
        }
      ],
      "stateMutability": "view",
      "type": "function"
    },
    {
      "inputs": [
        {
          "internalType": "address",
          "name": "account",
          "type": "address"
        },
        {
          "internalType": "uint256",
          "name": "id",
          "type": "uint256"
        }
      ],
      "name": "balanceOfFertilizer",
      "outputs": [
        {
          "components": [
            {
              "internalType": "uint128",
              "name": "amount",
              "type": "uint128"
            },
            {
              "internalType": "uint128",
              "name": "lastBpf",
              "type": "uint128"
            }
          ],
          "internalType": "struct IFertilizer.Balance",
          "name": "",
          "type": "tuple"
        }
      ],
      "stateMutability": "view",
      "type": "function"
    },
    {
      "inputs": [
        {
          "internalType": "address",
          "name": "account",
          "type": "address"
        },
        {
          "internalType": "uint256[]",
          "name": "ids",
          "type": "uint256[]"
        }
      ],
      "name": "balanceOfUnfertilized",
      "outputs": [
        {
          "internalType": "uint256",
          "name": "beans",
          "type": "uint256"
        }
      ],
      "stateMutability": "view",
      "type": "function"
    },
    {
      "inputs": [],
      "name": "beansPerFertilizer",
      "outputs": [
        {
          "internalType": "uint128",
          "name": "bpf",
          "type": "uint128"
        }
      ],
      "stateMutability": "view",
      "type": "function"
    },
    {
      "inputs": [
        {
          "internalType": "uint256[]",
          "name": "ids",
          "type": "uint256[]"
        },
        {
          "internalType": "enum LibTransfer.To",
          "name": "mode",
          "type": "uint8"
        }
      ],
      "name": "claimFertilized",
      "outputs": [],
      "stateMutability": "payable",
      "type": "function"
    },
    {
      "inputs": [],
      "name": "getActiveFertilizer",
      "outputs": [
        {
          "internalType": "uint256",
          "name": "",
          "type": "uint256"
        }
      ],
      "stateMutability": "view",
      "type": "function"
    },
    {
      "inputs": [],
      "name": "getCurrentHumidity",
      "outputs": [
        {
          "internalType": "uint128",
          "name": "humidity",
          "type": "uint128"
        }
      ],
      "stateMutability": "view",
      "type": "function"
    },
    {
      "inputs": [],
      "name": "getEndBpf",
      "outputs": [
        {
          "internalType": "uint128",
          "name": "endBpf",
          "type": "uint128"
        }
      ],
      "stateMutability": "view",
      "type": "function"
    },
    {
      "inputs": [
        {
          "internalType": "uint128",
          "name": "id",
          "type": "uint128"
        }
      ],
      "name": "getFertilizer",
      "outputs": [
        {
          "internalType": "uint256",
          "name": "",
          "type": "uint256"
        }
      ],
      "stateMutability": "view",
      "type": "function"
    },
    {
      "inputs": [],
      "name": "getFertilizers",
      "outputs": [
        {
          "components": [
            {
              "internalType": "uint128",
              "name": "endBpf",
              "type": "uint128"
            },
            {
              "internalType": "uint256",
              "name": "supply",
              "type": "uint256"
            }
          ],
          "internalType": "struct FertilizerFacet.Supply[]",
          "name": "fertilizers",
          "type": "tuple[]"
        }
      ],
      "stateMutability": "view",
      "type": "function"
    },
    {
      "inputs": [],
      "name": "getFirst",
      "outputs": [
        {
          "internalType": "uint128",
          "name": "",
          "type": "uint128"
        }
      ],
      "stateMutability": "view",
      "type": "function"
    },
    {
      "inputs": [
        {
          "internalType": "uint128",
          "name": "_s",
          "type": "uint128"
        }
      ],
      "name": "getHumidity",
      "outputs": [
        {
          "internalType": "uint128",
          "name": "humidity",
          "type": "uint128"
        }
      ],
      "stateMutability": "pure",
      "type": "function"
    },
    {
      "inputs": [],
      "name": "getLast",
      "outputs": [
        {
          "internalType": "uint128",
          "name": "",
          "type": "uint128"
        }
      ],
      "stateMutability": "view",
      "type": "function"
    },
    {
      "inputs": [
        {
          "internalType": "uint128",
          "name": "id",
          "type": "uint128"
        }
      ],
      "name": "getNext",
      "outputs": [
        {
          "internalType": "uint128",
          "name": "",
          "type": "uint128"
        }
      ],
      "stateMutability": "view",
      "type": "function"
    },
    {
      "inputs": [],
      "name": "isFertilizing",
      "outputs": [
        {
          "internalType": "bool",
          "name": "",
          "type": "bool"
        }
      ],
      "stateMutability": "view",
      "type": "function"
    },
    {
      "inputs": [
        {
          "internalType": "uint128",
          "name": "amount",
          "type": "uint128"
        },
        {
          "internalType": "uint256",
          "name": "minLP",
          "type": "uint256"
        },
        {
          "internalType": "enum LibTransfer.From",
          "name": "mode",
          "type": "uint8"
        }
      ],
      "name": "mintFertilizer",
      "outputs": [],
      "stateMutability": "payable",
      "type": "function"
    },
    {
      "inputs": [
        {
          "internalType": "address",
          "name": "account",
          "type": "address"
        },
        {
          "internalType": "uint256",
          "name": "amount",
          "type": "uint256"
        }
      ],
      "name": "payFertilizer",
      "outputs": [],
      "stateMutability": "payable",
      "type": "function"
    },
    {
      "inputs": [],
      "name": "remainingRecapitalization",
      "outputs": [
        {
          "internalType": "uint256",
          "name": "",
          "type": "uint256"
        }
      ],
      "stateMutability": "view",
      "type": "function"
    },
    {
      "inputs": [],
      "name": "totalFertilizedBeans",
      "outputs": [
        {
          "internalType": "uint256",
          "name": "beans",
          "type": "uint256"
        }
      ],
      "stateMutability": "view",
      "type": "function"
    },
    {
      "inputs": [],
      "name": "totalFertilizerBeans",
      "outputs": [
        {
          "internalType": "uint256",
          "name": "beans",
          "type": "uint256"
        }
      ],
      "stateMutability": "view",
      "type": "function"
    },
    {
      "inputs": [],
      "name": "totalUnfertilizedBeans",
      "outputs": [
        {
          "internalType": "uint256",
          "name": "beans",
          "type": "uint256"
        }
      ],
      "stateMutability": "view",
      "type": "function"
    }
  ],
  "bytecode": "0x608060405234801561001057600080fd5b50613ea9806100206000396000f3fe6080604052600436106101405760003560e01c80636ae1c014116100b6578063b6f420851161006f578063b6f420851461044d578063c85951a11461048a578063d47aee59146104b5578063dc6ba285146104d1578063f4a057e2146104fc578063f9c4ebde1461053957610140565b80636ae1c0141461035757806383e08888146103825780638cd31ca01461039e5780639bb4e35a146103ba5780639c45a1d5146103e5578063a3ef48c91461042257610140565b8063304ec65d11610108578063304ec65d1461024357806334af54161461028057806339448802146102ab5780634a16607c146102d65780634d622831146103015780634f9a96781461032c57610140565b80630bfca7e3146101455780631799b3b2146101615780631e2231431461019e5780631edb6be1146101c957806329130a6614610206575b600080fd5b61015f600480360381019061015a9190613321565b610564565b005b34801561016d57600080fd5b5061018860048036038101906101839190613116565b6106e5565b6040516101959190613a58565b60405180910390f35b3480156101aa57600080fd5b506101b3610786565b6040516101c09190613a73565b60405180910390f35b3480156101d557600080fd5b506101f060048036038101906101eb91906130c2565b6107ae565b6040516101fd9190613ab7565b60405180910390f35b34801561021257600080fd5b5061022d600480360381019061022891906132a9565b61084a565b60405161023a9190613a73565b60405180910390f35b34801561024f57600080fd5b5061026a60048036038101906102659190613152565b61085c565b604051610277919061399e565b60405180910390f35b34801561028c57600080fd5b506102956108fd565b6040516102a291906139c0565b60405180910390f35b3480156102b757600080fd5b506102c0610a92565b6040516102cd9190613a73565b60405180910390f35b3480156102e257600080fd5b506102eb610ac0565b6040516102f89190613ab7565b60405180910390f35b34801561030d57600080fd5b50610316610acf565b6040516103239190613a73565b60405180910390f35b34801561033857600080fd5b50610341610af7565b60405161034e9190613ab7565b60405180910390f35b34801561036357600080fd5b5061036c610b03565b60405161037991906139e2565b60405180910390f35b61039c600480360381019061039791906131ff565b610b1f565b005b6103b860048036038101906103b391906132d2565b610bf5565b005b3480156103c657600080fd5b506103cf610ccc565b6040516103dc9190613a73565b60405180910390f35b3480156103f157600080fd5b5061040c600480360381019061040791906132a9565b610cf4565b6040516104199190613ab7565b60405180910390f35b34801561042e57600080fd5b50610437610d37565b6040516104449190613ab7565b60405180910390f35b34801561045957600080fd5b50610474600480360381019061046f91906130c2565b610d4a565b6040516104819190613ab7565b60405180910390f35b34801561049657600080fd5b5061049f610de6565b6040516104ac9190613a73565b60405180910390f35b6104cf60048036038101906104ca9190613116565b610e59565b005b3480156104dd57600080fd5b506104e6610eb0565b6040516104f39190613ab7565b60405180910390f35b34801561050857600080fd5b50610523600480360381019061051e91906132a9565b610ebc565b6040516105309190613a73565b60405180910390f35b34801561054557600080fd5b5061054e610ece565b60405161055b9190613ab7565b60405180910390f35b6000610583620f4240610575610eda565b610ff690919063ffffffff16565b9050806fffffffffffffffffffffffffffffffff16846fffffffffffffffffffffffffffffffff1611156105b5578093505b610604620f42406105f66105c761107f565b6105ef620f4240896fffffffffffffffffffffffffffffffff1661109b90919063ffffffff16565b3387611121565b610ff690919063ffffffff16565b93506000610631600060030160000160009054906101000a900463ffffffff1663ffffffff16868661131d565b905061063b61156b565b73ffffffffffffffffffffffffffffffffffffffff16639a9a18a233836fffffffffffffffffffffffffffffffff1688600060470160009054906101000a90046fffffffffffffffffffffffffffffffff166040518563ffffffff1660e01b81526004016106ac9493929190613892565b600060405180830381600087803b1580156106c657600080fd5b505af11580156106da573d6000803e3d6000fd5b505050505050505050565b6106ed612d58565b6106f561156b565b73ffffffffffffffffffffffffffffffffffffffff166391b7301f84846040518363ffffffff1660e01b815260040161072f92919061393e565b604080518083038186803b15801561074657600080fd5b505afa15801561075a573d6000803e3d6000fd5b505050506040513d601f19601f8201168201806040525081019061077e9190613280565b905092915050565b60008060460160009054906101000a90046fffffffffffffffffffffffffffffffff16905090565b60006107b861156b565b73ffffffffffffffffffffffffffffffffffffffff16631edb6be184846040518363ffffffff1660e01b81526004016107f292919061390e565b60206040518083038186803b15801561080a57600080fd5b505afa15801561081e573d6000803e3d6000fd5b505050506040513d601f19601f820116820180604052508101906108429190613370565b905092915050565b600061085582611587565b9050919050565b606061086661156b565b73ffffffffffffffffffffffffffffffffffffffff1663bf02d30984846040518363ffffffff1660e01b81526004016108a0929190613967565b60006040518083038186803b1580156108b857600080fd5b505afa1580156108cc573d6000803e3d6000fd5b505050506040513d6000823e3d601f19601f820116820180604052508101906108f591906131be565b905092915050565b60606000808060460160009054906101000a90046fffffffffffffffffffffffffffffffff1690505b6000816fffffffffffffffffffffffffffffffff1611156109675761095560018361166790919063ffffffff16565b9150610960816116ef565b9050610926565b8167ffffffffffffffff8111801561097e57600080fd5b506040519080825280602002602001820160405280156109b857816020015b6109a5612d96565b81526020019060019003908161099d5790505b50925060009150600060460160009054906101000a90046fffffffffffffffffffffffffffffffff1690505b6000816fffffffffffffffffffffffffffffffff161115610a8d5780838381518110610a0c57fe5b6020026020010151600001906fffffffffffffffffffffffffffffffff1690816fffffffffffffffffffffffffffffffff1681525050610a4b8161175a565b838381518110610a5757fe5b60200260200101516020018181525050610a7b60018361166790919063ffffffff16565b9150610a86816116ef565b90506109e4565b505090565b6000610abb600060030160000160009054906101000a900463ffffffff1663ffffffff16611587565b905090565b6000610aca610eda565b905090565b60008060460160109054906101000a90046fffffffffffffffffffffffffffffffff16905090565b60008060440154905090565b60008060030160000160129054906101000a900460ff16905090565b6000610b2961156b565b73ffffffffffffffffffffffffffffffffffffffff166397e6e467338686600060470160009054906101000a90046fffffffffffffffffffffffffffffffff166040518563ffffffff1660e01b8152600401610b889493929190613852565b602060405180830381600087803b158015610ba257600080fd5b505af1158015610bb6573d6000803e3d6000fd5b505050506040513d601f19601f82011682018060405250810190610bda9190613370565b9050610bef610be76117a9565b8233856117c5565b50505050565b610bfd611834565b610c0561107f565b73ffffffffffffffffffffffffffffffffffffffff166323b872dd3330610c4a620f4240876fffffffffffffffffffffffffffffffff1661109b90919063ffffffff16565b6040518463ffffffff1660e01b8152600401610c689392919061381b565b602060405180830381600087803b158015610c8257600080fd5b505af1158015610c96573d6000803e3d6000fd5b505050506040513d601f19601f82011682018060405250810190610cba9190613257565b50610cc683838361131d565b50505050565b60008060470160009054906101000a90046fffffffffffffffffffffffffffffffff16905090565b6000806041016000836fffffffffffffffffffffffffffffffff166fffffffffffffffffffffffffffffffff168152602001908152602001600020549050919050565b6000806044015460006045015403905090565b6000610d5461156b565b73ffffffffffffffffffffffffffffffffffffffff1663b6f4208584846040518363ffffffff1660e01b8152600401610d8e92919061390e565b60206040518083038186803b158015610da657600080fd5b505afa158015610dba573d6000803e3d6000fd5b505050506040513d601f19601f82011682018060405250810190610dde9190613370565b905092915050565b6000610e54610e12600060030160000160009054906101000a900463ffffffff1663ffffffff166118cf565b600060470160009054906101000a90046fffffffffffffffffffffffffffffffff166fffffffffffffffffffffffffffffffff1661192d90919063ffffffff16565b905090565b610e616119d9565b73ffffffffffffffffffffffffffffffffffffffff163373ffffffffffffffffffffffffffffffffffffffff1614610e9857600080fd5b610eac610ea36117a9565b828460016117c5565b5050565b60008060430154905090565b6000610ec7826116ef565b9050919050565b60008060450154905090565b600080610ee56119f5565b90506000610fae620f42406fffffffffffffffffffffffffffffffff16610fa0610f0d6119fa565b73ffffffffffffffffffffffffffffffffffffffff166318160ddd6040518163ffffffff1660e01b815260040160206040518083038186803b158015610f5257600080fd5b505afa158015610f66573d6000803e3d6000fd5b505050506040513d601f19601f82011682018060405250810190610f8a9190613370565b610f92611a16565b61109b90919063ffffffff16565b610ff690919063ffffffff16565b9050620f4240808281610fbd57fe5b0402905080826048015410610fd757600092505050610ff3565b610fee826048015482611a2f90919063ffffffff16565b925050505b90565b600080821161106d576040517f08c379a000000000000000000000000000000000000000000000000000000000815260040180806020018281038252601a8152602001807f536166654d6174683a206469766973696f6e206279207a65726f00000000000081525060200191505060405180910390fd5b81838161107657fe5b04905092915050565b600073a0b86991c6218b36c1d19d4a2e9eb0ce3606eb48905090565b6000808314156110ae576000905061111b565b60008284029050828482816110bf57fe5b0414611116576040517f08c379a0000000000000000000000000000000000000000000000000000000008152600401808060200182810382526021815260200180613e016021913960400191505060405180910390fd5b809150505b92915050565b6000808414156111345760009050611315565b6000600381111561114157fe5b82600381111561114d57fe5b146111a8576111788386866001600381111561116557fe5b86600381111561117157fe5b1415611ab2565b90508084148061119d575060038081111561118f57fe5b82600381111561119b57fe5b145b156111a757611315565b5b60008573ffffffffffffffffffffffffffffffffffffffff166370a08231306040518263ffffffff1660e01b81526004016111e39190613800565b60206040518083038186803b1580156111fb57600080fd5b505afa15801561120f573d6000803e3d6000fd5b505050506040513d601f19601f820116820180604052508101906112339190613370565b905061126484308488038973ffffffffffffffffffffffffffffffffffffffff16611b40909392919063ffffffff16565b611311611302828873ffffffffffffffffffffffffffffffffffffffff166370a08231306040518263ffffffff1660e01b81526004016112a49190613800565b60206040518083038186803b1580156112bc57600080fd5b505afa1580156112d0573d6000803e3d6000fd5b505050506040513d601f19601f820116820180604052508101906112f49190613370565b611a2f90919063ffffffff16565b8361166790919063ffffffff16565b9150505b949350505050565b6000806113286119f5565b90506000846fffffffffffffffffffffffffffffffff169050600061134c876118cf565b9050611389611376826fffffffffffffffffffffffffffffffff168461109b90919063ffffffff16565b846045015461166790919063ffffffff16565b83604501819055506113d6818460470160009054906101000a90046fffffffffffffffffffffffffffffffff166fffffffffffffffffffffffffffffffff1661192d90919063ffffffff16565b9350611436866fffffffffffffffffffffffffffffffff16846041016000876fffffffffffffffffffffffffffffffff166fffffffffffffffffffffffffffffffff1681526020019081526020016000205461166790919063ffffffff16565b836041016000866fffffffffffffffffffffffffffffffff166fffffffffffffffffffffffffffffffff1681526020019081526020016000208190555061148a82846043015461166790919063ffffffff16565b83604301819055506114c36114bd620f42406fffffffffffffffffffffffffffffffff168461109b90919063ffffffff16565b86611c01565b856fffffffffffffffffffffffffffffffff16836041016000866fffffffffffffffffffffffffffffffff166fffffffffffffffffffffffffffffffff16815260200190815260200160002054111561151e57505050611564565b61152784612008565b7fc31dde89e0a39d2dde05fd2e10216e8d65bb7d42f501a77938ec42c70e7ca2f38482604051611558929190613a8e565b60405180910390a15050505b9392505050565b600073402c84de2ce49af88f5e2ef3710ff89bfed36cb6905090565b600080826fffffffffffffffffffffffffffffffff1614156115ad576113889050611662565b6101cd6117ba016fffffffffffffffffffffffffffffffff16826fffffffffffffffffffffffffffffffff16106115e75760c89050611662565b600061163560056116156117ba866fffffffffffffffffffffffffffffffff166122e390919063ffffffff16565b6fffffffffffffffffffffffffffffffff1661238a90919063ffffffff16565b905061165e816109c46fffffffffffffffffffffffffffffffff166122e390919063ffffffff16565b9150505b919050565b6000808284019050838110156116e5576040517f08c379a000000000000000000000000000000000000000000000000000000000815260040180806020018281038252601b8152602001807f536166654d6174683a206164646974696f6e206f766572666c6f77000000000081525060200191505060405180910390fd5b8091505092915050565b6000806116fa6119f5565b9050806042016000846fffffffffffffffffffffffffffffffff166fffffffffffffffffffffffffffffffff16815260200190815260200160002060009054906101000a90046fffffffffffffffffffffffffffffffff16915050919050565b6000806117656119f5565b9050806041016000846fffffffffffffffffffffffffffffffff166fffffffffffffffffffffffffffffffff16815260200190815260200160002054915050919050565b600073bea0000029ad1c77d3d5d23ba2d8893db9d1efab905090565b60008314156117d35761182e565b6001808111156117df57fe5b8160018111156117eb57fe5b1415611801576117fc82858561246a565b61182d565b61182c82848673ffffffffffffffffffffffffffffffffffffffff166124aa9092919063ffffffff16565b5b5b50505050565b61183c61254c565b60040160009054906101000a900473ffffffffffffffffffffffffffffffffffffffff1673ffffffffffffffffffffffffffffffffffffffff163373ffffffffffffffffffffffffffffffffffffffff16146118cd576040517f08c379a00000000000000000000000000000000000000000000000000000000081526004016118c490613a18565b60405180910390fd5b565b60006119266103e86119066103e86118e686611587565b6fffffffffffffffffffffffffffffffff1661192d90919063ffffffff16565b6fffffffffffffffffffffffffffffffff1661238a90919063ffffffff16565b9050919050565b6000808284019050836fffffffffffffffffffffffffffffffff16816fffffffffffffffffffffffffffffffff1610156119cf576040517f08c379a000000000000000000000000000000000000000000000000000000000815260040180806020018281038252601b8152602001807f536166654d6174683a206164646974696f6e206f766572666c6f77000000000081525060200191505060405180910390fd5b8091505092915050565b600073402c84de2ce49af88f5e2ef3710ff89bfed36cb6905090565b600090565b6000731bea3ccd22f4ebd3d37d731ba31eeca95713716d905090565b6000621cc1b064e8d4a5100081611a2957fe5b04905090565b600082821115611aa7576040517f08c379a000000000000000000000000000000000000000000000000000000000815260040180806020018281038252601e8152602001807f536166654d6174683a207375627472616374696f6e206f766572666c6f77000081525060200191505060405180910390fd5b818303905092915050565b600080611abf8686612579565b90508280611acd5750838110155b611b0c576040517f08c379a0000000000000000000000000000000000000000000000000000000008152600401611b0390613a38565b60405180910390fd5b611b16818561260e565b915060008282039050611b36878783611b2e87612627565b6000036126a9565b5050949350505050565b611bfb846323b872dd60e01b858585604051602401808473ffffffffffffffffffffffffffffffffffffffff1681526020018373ffffffffffffffffffffffffffffffffffffffff1681526020018281526020019350505050604051602081830303815290604052907bffffffffffffffffffffffffffffffffffffffffffffffffffffffff19166020820180517bffffffffffffffffffffffffffffffffffffffffffffffffffffffff83818316178352505050506127a4565b50505050565b6000611c0b6119f5565b90506000611c42611c1a610eda565b611c34611c25612893565b8761109b90919063ffffffff16565b610ff690919063ffffffff16565b90506000826040016000611c546128a3565b73ffffffffffffffffffffffffffffffffffffffff1673ffffffffffffffffffffffffffffffffffffffff16815260200190815260200160002060010154611c9a6128bf565b73ffffffffffffffffffffffffffffffffffffffff166318160ddd6040518163ffffffff1660e01b815260040160206040518083038186803b158015611cdf57600080fd5b505afa158015611cf3573d6000803e3d6000fd5b505050506040513d601f19601f82011682018060405250810190611d179190613370565b1115611e3057611dff836040016000611d2e6128a3565b73ffffffffffffffffffffffffffffffffffffffff1673ffffffffffffffffffffffffffffffffffffffff16815260200190815260200160002060010154611d746128bf565b73ffffffffffffffffffffffffffffffffffffffff166318160ddd6040518163ffffffff1660e01b815260040160206040518083038186803b158015611db957600080fd5b505afa158015611dcd573d6000803e3d6000fd5b505050506040513d601f19601f82011682018060405250810190611df19190613370565b611a2f90919063ffffffff16565b9050611e2d611e0c612893565b611e1f848461109b90919063ffffffff16565b610ff690919063ffffffff16565b90505b6000611e73620f42406fffffffffffffffffffffffffffffffff16611e65611e566128db565b8961109b90919063ffffffff16565b610ff690919063ffffffff16565b9050611e7d6117a9565b73ffffffffffffffffffffffffffffffffffffffff166340c10f1930611eac848661166790919063ffffffff16565b6040518363ffffffff1660e01b8152600401611ec992919061393e565b600060405180830381600087803b158015611ee357600080fd5b505af1158015611ef7573d6000803e3d6000fd5b505050506000611f056128e6565b73ffffffffffffffffffffffffffffffffffffffff1663384e03db611f28612902565b6040518060800160405280868152602001600081526020018b81526020016000815250896040518463ffffffff1660e01b8152600401611f6a939291906138d7565b602060405180830381600087803b158015611f8457600080fd5b505af1158015611f98573d6000803e3d6000fd5b505050506040513d601f19601f82011682018060405250810190611fbc9190613370565b9050611fcf611fc96128a3565b8461291e565b611fe0611fda612a1c565b8261291e565b611ff787866048015461166790919063ffffffff16565b856048018190555050505050505050565b60006120126119f5565b905060008160460160009054906101000a90046fffffffffffffffffffffffffffffffff166fffffffffffffffffffffffffffffffff1614156120ea5760018160030160000160126101000a81548160ff021916908315150217905550818160460160106101000a8154816fffffffffffffffffffffffffffffffff02191690836fffffffffffffffffffffffffffffffff160217905550818160460160006101000a8154816fffffffffffffffffffffffffffffffff02191690836fffffffffffffffffffffffffffffffff1602179055506122df565b8060460160009054906101000a90046fffffffffffffffffffffffffffffffff166fffffffffffffffffffffffffffffffff16826fffffffffffffffffffffffffffffffff161161219f5761215f828260460160009054906101000a90046fffffffffffffffffffffffffffffffff16612a38565b818160460160006101000a8154816fffffffffffffffffffffffffffffffff02191690836fffffffffffffffffffffffffffffffff1602179055506122de565b8060460160109054906101000a90046fffffffffffffffffffffffffffffffff166fffffffffffffffffffffffffffffffff16826fffffffffffffffffffffffffffffffff1610612254576122148160460160109054906101000a90046fffffffffffffffffffffffffffffffff1683612a38565b818160460160106101000a8154816fffffffffffffffffffffffffffffffff02191690836fffffffffffffffffffffffffffffffff1602179055506122dd565b60008160460160009054906101000a90046fffffffffffffffffffffffffffffffff1690506000612284826116ef565b90505b806fffffffffffffffffffffffffffffffff16846fffffffffffffffffffffffffffffffff1611156122c6578091506122bf816116ef565b9050612287565b6122d08285612a38565b6122da8482612a38565b50505b5b5b5050565b6000826fffffffffffffffffffffffffffffffff16826fffffffffffffffffffffffffffffffff16111561237f576040517f08c379a000000000000000000000000000000000000000000000000000000000815260040180806020018281038252601e8152602001807f536166654d6174683a207375627472616374696f6e206f766572666c6f77000081525060200191505060405180910390fd5b818303905092915050565b600080836fffffffffffffffffffffffffffffffff1614156123af5760009050612464565b60008284029050826fffffffffffffffffffffffffffffffff16846fffffffffffffffffffffffffffffffff16826fffffffffffffffffffffffffffffffff16816123f657fe5b046fffffffffffffffffffffffffffffffff161461245f576040517f08c379a0000000000000000000000000000000000000000000000000000000008152600401808060200182810382526021815260200180613e016021913960400191505060405180910390fd5b809150505b92915050565b60006124768484612579565b9050600061248d838361166790919063ffffffff16565b90506124a385858361249e87612627565b6126a9565b5050505050565b6125478363a9059cbb60e01b8484604051602401808373ffffffffffffffffffffffffffffffffffffffff16815260200182815260200192505050604051602081830303815290604052907bffffffffffffffffffffffffffffffffffffffffffffffffffffffff19166020820180517bffffffffffffffffffffffffffffffffffffffffffffffffffffffff83818316178352505050506127a4565b505050565b6000807fc8fcad8db84d3cc18b4c41d551ea0ee66dd599cde068d998e57d5e09332c131c90508091505090565b6000806125846119f5565b905080603e0160008573ffffffffffffffffffffffffffffffffffffffff1673ffffffffffffffffffffffffffffffffffffffff16815260200190815260200160002060008473ffffffffffffffffffffffffffffffffffffffff1673ffffffffffffffffffffffffffffffffffffffff1681526020019081526020016000205491505092915050565b600081831061261d578161261f565b825b905092915050565b60007f800000000000000000000000000000000000000000000000000000000000000082106126a1576040517f08c379a0000000000000000000000000000000000000000000000000000000008152600401808060200182810382526028815260200180613e226028913960400191505060405180910390fd5b819050919050565b60006126b36119f5565b90508281603e0160008773ffffffffffffffffffffffffffffffffffffffff1673ffffffffffffffffffffffffffffffffffffffff16815260200190815260200160002060008673ffffffffffffffffffffffffffffffffffffffff1673ffffffffffffffffffffffffffffffffffffffff168152602001908152602001600020819055508373ffffffffffffffffffffffffffffffffffffffff168573ffffffffffffffffffffffffffffffffffffffff167f18e1ea4139e68413d7d08aa752e71568e36b2c5bf940893314c2c5b01eaa0c428460405161279591906139fd565b60405180910390a35050505050565b6000612806826040518060400160405280602081526020017f5361666545524332303a206c6f772d6c6576656c2063616c6c206661696c65648152508573ffffffffffffffffffffffffffffffffffffffff16612ab99092919063ffffffff16565b905060008151111561288e5780806020019051602081101561282757600080fd5b810190808051906020019092919050505061288d576040517f08c379a000000000000000000000000000000000000000000000000000000000815260040180806020018281038252602a815260200180613e4a602a913960400191505060405180910390fd5b5b505050565b6000670de0b6b3a7640000905090565b6000731bea0050e63e05fbb5d8ba2f10cf5800b6224449905090565b6000731bea0050e63e05fbb5d8ba2f10cf5800b6224449905090565b6000620d3938905090565b600073a79828df1850e8a3a3064576f380d90aecdd3359905090565b600073c9c32cd16bf7efb85ff14e0c8603cc90f6f2ee49905090565b60006129286119f5565b9050612981828260400160008673ffffffffffffffffffffffffffffffffffffffff1673ffffffffffffffffffffffffffffffffffffffff1681526020019081526020016000206001015461166790919063ffffffff16565b8160400160008573ffffffffffffffffffffffffffffffffffffffff1673ffffffffffffffffffffffffffffffffffffffff168152602001908152602001600020600101819055508273ffffffffffffffffffffffffffffffffffffffff167f034be0cb985c00ed623355853288b175a6c0bd25ed03d64e9895ccec774af9e783604051612a0f91906139fd565b60405180910390a2505050565b6000731bea3ccd22f4ebd3d37d731ba31eeca95713716d905090565b6000612a426119f5565b905081816042016000856fffffffffffffffffffffffffffffffff166fffffffffffffffffffffffffffffffff16815260200190815260200160002060006101000a8154816fffffffffffffffffffffffffffffffff02191690836fffffffffffffffffffffffffffffffff160217905550505050565b6060612ac88484600085612ad1565b90509392505050565b606082471015612b2c576040517f08c379a0000000000000000000000000000000000000000000000000000000008152600401808060200182810382526026815260200180613ddb6026913960400191505060405180910390fd5b612b3585612c79565b612ba7576040517f08c379a000000000000000000000000000000000000000000000000000000000815260040180806020018281038252601d8152602001807f416464726573733a2063616c6c20746f206e6f6e2d636f6e747261637400000081525060200191505060405180910390fd5b6000808673ffffffffffffffffffffffffffffffffffffffff1685876040518082805190602001908083835b60208310612bf65780518252602082019150602081019050602083039250612bd3565b6001836020036101000a03801982511681845116808217855250505050505090500191505060006040518083038185875af1925050503d8060008114612c58576040519150601f19603f3d011682016040523d82523d6000602084013e612c5d565b606091505b5091509150612c6d828286612c8c565b92505050949350505050565b600080823b905060008111915050919050565b60608315612c9c57829050612d51565b600083511115612caf5782518084602001fd5b816040517f08c379a00000000000000000000000000000000000000000000000000000000081526004018080602001828103825283818151815260200191508051906020019080838360005b83811015612d16578082015181840152602081019050612cfb565b50505050905090810190601f168015612d435780820380516001836020036101000a031916815260200191505b509250505060405180910390fd5b9392505050565b604051806040016040528060006fffffffffffffffffffffffffffffffff16815260200160006fffffffffffffffffffffffffffffffff1681525090565b604051806040016040528060006fffffffffffffffffffffffffffffffff168152602001600081525090565b6000612dd5612dd084613b03565b613ad2565b90508083825260208201905082856020860282011115612df457600080fd5b60005b85811015612e245781612e0a8882612f06565b845260208401935060208301925050600181019050612df7565b5050509392505050565b6000612e41612e3c84613b2f565b613ad2565b90508083825260208201905082856040860282011115612e6057600080fd5b60005b85811015612e905781612e768882613022565b845260208401935060408301925050600181019050612e63565b5050509392505050565b6000612ead612ea884613b5b565b613ad2565b90508083825260208201905082856020860282011115612ecc57600080fd5b60005b85811015612efc5781612ee28882613098565b845260208401935060208301925050600181019050612ecf565b5050509392505050565b600081359050612f1581613d5e565b92915050565b600082601f830112612f2c57600080fd5b8135612f3c848260208601612dc2565b91505092915050565b600082601f830112612f5657600080fd5b8151612f66848260208601612e2e565b91505092915050565b60008083601f840112612f8157600080fd5b8235905067ffffffffffffffff811115612f9a57600080fd5b602083019150836020820283011115612fb257600080fd5b9250929050565b600082601f830112612fca57600080fd5b8135612fda848260208601612e9a565b91505092915050565b600081519050612ff281613d75565b92915050565b60008135905061300781613d8c565b92915050565b60008135905061301c81613d9c565b92915050565b60006040828403121561303457600080fd5b61303e6040613ad2565b9050600061304e84828501613083565b600083015250602061306284828501613083565b60208301525092915050565b60008135905061307d81613dac565b92915050565b60008151905061309281613dac565b92915050565b6000813590506130a781613dc3565b92915050565b6000815190506130bc81613dc3565b92915050565b600080604083850312156130d557600080fd5b60006130e385828601612f06565b925050602083013567ffffffffffffffff81111561310057600080fd5b61310c85828601612fb9565b9150509250929050565b6000806040838503121561312957600080fd5b600061313785828601612f06565b925050602061314885828601613098565b9150509250929050565b6000806040838503121561316557600080fd5b600083013567ffffffffffffffff81111561317f57600080fd5b61318b85828601612f1b565b925050602083013567ffffffffffffffff8111156131a857600080fd5b6131b485828601612fb9565b9150509250929050565b6000602082840312156131d057600080fd5b600082015167ffffffffffffffff8111156131ea57600080fd5b6131f684828501612f45565b91505092915050565b60008060006040848603121561321457600080fd5b600084013567ffffffffffffffff81111561322e57600080fd5b61323a86828701612f6f565b9350935050602061324d8682870161300d565b9150509250925092565b60006020828403121561326957600080fd5b600061327784828501612fe3565b91505092915050565b60006040828403121561329257600080fd5b60006132a084828501613022565b91505092915050565b6000602082840312156132bb57600080fd5b60006132c98482850161306e565b91505092915050565b6000806000606084860312156132e757600080fd5b60006132f58682870161306e565b93505060206133068682870161306e565b925050604061331786828701613098565b9150509250925092565b60008060006060848603121561333657600080fd5b60006133448682870161306e565b935050602061335586828701613098565b925050604061336686828701612ff8565b9150509250925092565b60006020828403121561338257600080fd5b6000613390848285016130ad565b91505092915050565b60006133a58383613408565b60208301905092915050565b60006133bd8383613737565b60408301905092915050565b60006133d58383613795565b60408301905092915050565b60006133ed83836137e2565b60208301905092915050565b61340281613d17565b82525050565b61341181613ca9565b82525050565b61342081613ca9565b82525050565b600061343182613bd1565b61343b8185613c49565b935061344683613b87565b8060005b8381101561347757815161345e8882613399565b975061346983613c08565b92505060018101905061344a565b5085935050505092915050565b600061348f82613bdc565b6134998185613c5a565b93506134a483613b97565b8060005b838110156134d55781516134bc88826133b1565b97506134c783613c15565b9250506001810190506134a8565b5085935050505092915050565b60006134ed82613be7565b6134f78185613c6b565b935061350283613ba7565b8060005b8381101561353357815161351a88826133c9565b975061352583613c22565b925050600181019050613506565b5085935050505092915050565b61354981613bf2565b6135538184613c7c565b925061355e82613bb7565b8060005b8381101561358f57815161357687826133e1565b965061358183613c2f565b925050600181019050613562565b505050505050565b60006135a38385613c87565b93507f07ffffffffffffffffffffffffffffffffffffffffffffffffffffffffffffff8311156135d257600080fd5b6020830292506135e3838584613d4d565b82840190509392505050565b60006135fa82613bfd565b6136048185613c87565b935061360f83613bc1565b8060005b8381101561364057815161362788826133e1565b975061363283613c3c565b925050600181019050613613565b5085935050505092915050565b61365681613cbb565b82525050565b61366581613cc7565b82525050565b6000613678602283613c98565b91507f4c69624469616d6f6e643a204d75737420626520636f6e7472616374206f776e60008301527f65720000000000000000000000000000000000000000000000000000000000006020830152604082019050919050565b60006136de602683613c98565b91507f42616c616e63653a20496e73756666696369656e7420696e7465726e616c206260008301527f616c616e636500000000000000000000000000000000000000000000000000006020830152604082019050919050565b60408201600082015161374d60008501826137c4565b50602082015161376060208501826137c4565b50505050565b60408201600082015161377c60008501826137c4565b50602082015161378f60208501826137c4565b50505050565b6040820160008201516137ab60008501826137c4565b5060208201516137be60208501826137e2565b50505050565b6137cd81613cd1565b82525050565b6137dc81613cd1565b82525050565b6137eb81613d0d565b82525050565b6137fa81613d0d565b82525050565b60006020820190506138156000830184613417565b92915050565b600060608201905061383060008301866133f9565b61383d6020830185613417565b61384a60408301846137f1565b949350505050565b600060608201905061386760008301876133f9565b818103602083015261387a818587613597565b905061388960408301846137d3565b95945050505050565b60006080820190506138a760008301876133f9565b6138b460208301866137f1565b6138c160408301856137d3565b6138ce60608301846137d3565b95945050505050565b600060c0820190506138ec6000830186613417565b6138f96020830185613540565b61390660a08301846137f1565b949350505050565b60006040820190506139236000830185613417565b818103602083015261393581846135ef565b90509392505050565b60006040820190506139536000830185613417565b61396060208301846137f1565b9392505050565b600060408201905081810360008301526139818185613426565b9050818103602083015261399581846135ef565b90509392505050565b600060208201905081810360008301526139b88184613484565b905092915050565b600060208201905081810360008301526139da81846134e2565b905092915050565b60006020820190506139f7600083018461364d565b92915050565b6000602082019050613a12600083018461365c565b92915050565b60006020820190508181036000830152613a318161366b565b9050919050565b60006020820190508181036000830152613a51816136d1565b9050919050565b6000604082019050613a6d6000830184613766565b92915050565b6000602082019050613a8860008301846137d3565b92915050565b6000604082019050613aa360008301856137d3565b613ab060208301846137d3565b9392505050565b6000602082019050613acc60008301846137f1565b92915050565b6000604051905081810181811067ffffffffffffffff82111715613af957613af8613d5c565b5b8060405250919050565b600067ffffffffffffffff821115613b1e57613b1d613d5c565b5b602082029050602081019050919050565b600067ffffffffffffffff821115613b4a57613b49613d5c565b5b602082029050602081019050919050565b600067ffffffffffffffff821115613b7657613b75613d5c565b5b602082029050602081019050919050565b6000819050602082019050919050565b6000819050602082019050919050565b6000819050602082019050919050565b6000819050919050565b6000819050602082019050919050565b600081519050919050565b600081519050919050565b600081519050919050565b600060049050919050565b600081519050919050565b6000602082019050919050565b6000602082019050919050565b6000602082019050919050565b6000602082019050919050565b6000602082019050919050565b600082825260208201905092915050565b600082825260208201905092915050565b600082825260208201905092915050565b600081905092915050565b600082825260208201905092915050565b600082825260208201905092915050565b6000613cb482613ced565b9050919050565b60008115159050919050565b6000819050919050565b60006fffffffffffffffffffffffffffffffff82169050919050565b600073ffffffffffffffffffffffffffffffffffffffff82169050919050565b6000819050919050565b6000613d2282613d29565b9050919050565b6000613d3482613d3b565b9050919050565b6000613d4682613ced565b9050919050565b82818337600083830152505050565bfe5b613d6781613ca9565b8114613d7257600080fd5b50565b613d7e81613cbb565b8114613d8957600080fd5b50565b60048110613d9957600080fd5b50565b60028110613da957600080fd5b50565b613db581613cd1565b8114613dc057600080fd5b50565b613dcc81613d0d565b8114613dd757600080fd5b5056fe416464726573733a20696e73756666696369656e742062616c616e636520666f722063616c6c536166654d6174683a206d756c7469706c69636174696f6e206f766572666c6f7753616665436173743a2076616c756520646f65736e27742066697420696e20616e20696e743235365361666545524332303a204552433230206f7065726174696f6e20646964206e6f742073756363656564a26469706673582212207a4bae3d023ef9619750ffafa2e063ac24fe6a9fdc6e35e010ebdd751257a5cc64736f6c63430007060033",
  "linkReferences": {},
  "deployedLinkReferences": {}
}