{
  "_format": "hh-sol-artifact-1",
  "contractName": "SiloFacet",
  "sourceName": "contracts/farm/facets/SiloFacet/SiloFacet.sol",
  "abi": [
    {
      "anonymous": false,
      "inputs": [
        {
          "indexed": true,
          "internalType": "address",
          "name": "account",
          "type": "address"
        },
        {
          "indexed": true,
          "internalType": "address",
          "name": "token",
          "type": "address"
        },
        {
          "indexed": false,
          "internalType": "uint32",
          "name": "season",
          "type": "uint32"
        },
        {
          "indexed": false,
          "internalType": "uint256",
          "name": "amount",
          "type": "uint256"
        },
        {
          "indexed": false,
          "internalType": "uint256",
          "name": "bdv",
          "type": "uint256"
        }
      ],
      "name": "AddDeposit",
      "type": "event"
    },
    {
      "anonymous": false,
      "inputs": [
        {
          "indexed": true,
          "internalType": "address",
          "name": "account",
          "type": "address"
        },
        {
          "indexed": true,
          "internalType": "address",
          "name": "token",
          "type": "address"
        },
        {
          "indexed": false,
          "internalType": "uint32",
          "name": "season",
          "type": "uint32"
        },
        {
          "indexed": false,
          "internalType": "uint256",
          "name": "amount",
          "type": "uint256"
        }
      ],
      "name": "AddWithdrawal",
      "type": "event"
    },
    {
      "anonymous": false,
      "inputs": [
        {
          "indexed": true,
          "internalType": "address",
          "name": "account",
          "type": "address"
        },
        {
          "indexed": false,
          "internalType": "uint256",
          "name": "plenty",
          "type": "uint256"
        }
      ],
      "name": "ClaimPlenty",
      "type": "event"
    },
    {
      "anonymous": false,
      "inputs": [
        {
          "indexed": true,
          "internalType": "address",
          "name": "account",
          "type": "address"
        },
        {
          "indexed": false,
          "internalType": "uint256",
          "name": "beans",
          "type": "uint256"
        }
      ],
      "name": "Plant",
      "type": "event"
    },
    {
      "anonymous": false,
      "inputs": [
        {
          "indexed": true,
          "internalType": "address",
          "name": "account",
          "type": "address"
        },
        {
          "indexed": true,
          "internalType": "address",
          "name": "token",
          "type": "address"
        },
        {
          "indexed": false,
          "internalType": "uint32",
          "name": "season",
          "type": "uint32"
        },
        {
          "indexed": false,
          "internalType": "uint256",
          "name": "amount",
          "type": "uint256"
        }
      ],
      "name": "RemoveDeposit",
      "type": "event"
    },
    {
      "anonymous": false,
      "inputs": [
        {
          "indexed": true,
          "internalType": "address",
          "name": "account",
          "type": "address"
        },
        {
          "indexed": true,
          "internalType": "address",
          "name": "token",
          "type": "address"
        },
        {
          "indexed": false,
          "internalType": "uint32[]",
          "name": "seasons",
          "type": "uint32[]"
        },
        {
          "indexed": false,
          "internalType": "uint256[]",
          "name": "amounts",
          "type": "uint256[]"
        },
        {
          "indexed": false,
          "internalType": "uint256",
          "name": "amount",
          "type": "uint256"
        }
      ],
      "name": "RemoveDeposits",
      "type": "event"
    },
    {
      "anonymous": false,
      "inputs": [
        {
          "indexed": true,
          "internalType": "address",
          "name": "account",
          "type": "address"
        },
        {
          "indexed": true,
          "internalType": "address",
          "name": "token",
          "type": "address"
        },
        {
          "indexed": false,
          "internalType": "uint32",
          "name": "season",
          "type": "uint32"
        },
        {
          "indexed": false,
          "internalType": "uint256",
          "name": "amount",
          "type": "uint256"
        }
      ],
      "name": "RemoveWithdrawal",
      "type": "event"
    },
    {
      "anonymous": false,
      "inputs": [
        {
          "indexed": true,
          "internalType": "address",
          "name": "account",
          "type": "address"
        },
        {
          "indexed": true,
          "internalType": "address",
          "name": "token",
          "type": "address"
        },
        {
          "indexed": false,
          "internalType": "uint32[]",
          "name": "seasons",
          "type": "uint32[]"
        },
        {
          "indexed": false,
          "internalType": "uint256",
          "name": "amount",
          "type": "uint256"
        }
      ],
      "name": "RemoveWithdrawals",
      "type": "event"
    },
    {
      "anonymous": false,
      "inputs": [
        {
          "indexed": true,
          "internalType": "address",
          "name": "account",
          "type": "address"
        },
        {
          "indexed": false,
          "internalType": "int256",
          "name": "delta",
          "type": "int256"
        }
      ],
      "name": "SeedsBalanceChanged",
      "type": "event"
    },
    {
      "anonymous": false,
      "inputs": [
        {
          "indexed": true,
          "internalType": "address",
          "name": "account",
          "type": "address"
        },
        {
          "indexed": false,
          "internalType": "int256",
          "name": "delta",
          "type": "int256"
        },
        {
          "indexed": false,
          "internalType": "int256",
          "name": "deltaRoots",
          "type": "int256"
        }
      ],
      "name": "StalkBalanceChanged",
      "type": "event"
    },
    {
      "inputs": [
        {
          "internalType": "address",
          "name": "account",
          "type": "address"
        }
      ],
      "name": "balanceOfEarnedBeans",
      "outputs": [
        {
          "internalType": "uint256",
          "name": "beans",
          "type": "uint256"
        }
      ],
      "stateMutability": "view",
      "type": "function"
    },
    {
      "inputs": [
        {
          "internalType": "address",
          "name": "account",
          "type": "address"
        }
      ],
      "name": "balanceOfEarnedSeeds",
      "outputs": [
        {
          "internalType": "uint256",
          "name": "",
          "type": "uint256"
        }
      ],
      "stateMutability": "view",
      "type": "function"
    },
    {
      "inputs": [
        {
          "internalType": "address",
          "name": "account",
          "type": "address"
        }
      ],
      "name": "balanceOfEarnedStalk",
      "outputs": [
        {
          "internalType": "uint256",
          "name": "",
          "type": "uint256"
        }
      ],
      "stateMutability": "view",
      "type": "function"
    },
    {
      "inputs": [
        {
          "internalType": "address",
          "name": "account",
          "type": "address"
        }
      ],
      "name": "balanceOfGrownStalk",
      "outputs": [
        {
          "internalType": "uint256",
          "name": "",
          "type": "uint256"
        }
      ],
      "stateMutability": "view",
      "type": "function"
    },
    {
      "inputs": [
        {
          "internalType": "address",
          "name": "account",
          "type": "address"
        }
      ],
      "name": "balanceOfPlenty",
      "outputs": [
        {
          "internalType": "uint256",
          "name": "plenty",
          "type": "uint256"
        }
      ],
      "stateMutability": "view",
      "type": "function"
    },
    {
      "inputs": [
        {
          "internalType": "address",
          "name": "account",
          "type": "address"
        }
      ],
      "name": "balanceOfRainRoots",
      "outputs": [
        {
          "internalType": "uint256",
          "name": "",
          "type": "uint256"
        }
      ],
      "stateMutability": "view",
      "type": "function"
    },
    {
      "inputs": [
        {
          "internalType": "address",
          "name": "account",
          "type": "address"
        }
      ],
      "name": "balanceOfRoots",
      "outputs": [
        {
          "internalType": "uint256",
          "name": "",
          "type": "uint256"
        }
      ],
      "stateMutability": "view",
      "type": "function"
    },
    {
      "inputs": [
        {
          "internalType": "address",
          "name": "account",
          "type": "address"
        }
      ],
      "name": "balanceOfSeeds",
      "outputs": [
        {
          "internalType": "uint256",
          "name": "",
          "type": "uint256"
        }
      ],
      "stateMutability": "view",
      "type": "function"
    },
    {
      "inputs": [
        {
          "internalType": "address",
          "name": "account",
          "type": "address"
        }
      ],
      "name": "balanceOfSop",
      "outputs": [
        {
          "components": [
            {
              "internalType": "uint32",
              "name": "lastRain",
              "type": "uint32"
            },
            {
              "internalType": "uint32",
              "name": "lastSop",
              "type": "uint32"
            },
            {
              "internalType": "uint256",
              "name": "roots",
              "type": "uint256"
            },
            {
              "internalType": "uint256",
              "name": "plentyPerRoot",
              "type": "uint256"
            },
            {
              "internalType": "uint256",
              "name": "plenty",
              "type": "uint256"
            }
          ],
          "internalType": "struct SiloExit.AccountSeasonOfPlenty",
          "name": "sop",
          "type": "tuple"
        }
      ],
      "stateMutability": "view",
      "type": "function"
    },
    {
      "inputs": [
        {
          "internalType": "address",
          "name": "account",
          "type": "address"
        }
      ],
      "name": "balanceOfStalk",
      "outputs": [
        {
          "internalType": "uint256",
          "name": "",
          "type": "uint256"
        }
      ],
      "stateMutability": "view",
      "type": "function"
    },
    {
      "inputs": [
        {
          "internalType": "address",
          "name": "account",
          "type": "address"
        }
      ],
      "name": "claimPlenty",
      "outputs": [],
      "stateMutability": "payable",
      "type": "function"
    },
    {
      "inputs": [
        {
          "internalType": "address",
          "name": "token",
          "type": "address"
        },
        {
          "internalType": "uint32",
          "name": "season",
          "type": "uint32"
        },
        {
          "internalType": "enum LibTransfer.To",
          "name": "mode",
          "type": "uint8"
        }
      ],
      "name": "claimWithdrawal",
      "outputs": [],
      "stateMutability": "payable",
      "type": "function"
    },
    {
      "inputs": [
        {
          "internalType": "address",
          "name": "token",
          "type": "address"
        },
        {
          "internalType": "uint32[]",
          "name": "seasons",
          "type": "uint32[]"
        },
        {
          "internalType": "enum LibTransfer.To",
          "name": "mode",
          "type": "uint8"
        }
      ],
      "name": "claimWithdrawals",
      "outputs": [],
      "stateMutability": "payable",
      "type": "function"
    },
    {
      "inputs": [
        {
          "internalType": "address",
          "name": "token",
          "type": "address"
        },
        {
          "internalType": "uint256",
          "name": "amount",
          "type": "uint256"
        },
        {
          "internalType": "enum LibTransfer.From",
          "name": "mode",
          "type": "uint8"
        }
      ],
      "name": "deposit",
      "outputs": [],
      "stateMutability": "payable",
      "type": "function"
    },
    {
      "inputs": [
        {
          "internalType": "address",
          "name": "token",
          "type": "address"
        },
        {
          "internalType": "uint32",
          "name": "_season",
          "type": "uint32"
        },
        {
          "internalType": "uint256",
          "name": "amount",
          "type": "uint256"
        }
      ],
      "name": "enrootDeposit",
      "outputs": [],
      "stateMutability": "nonpayable",
      "type": "function"
    },
    {
      "inputs": [
        {
          "internalType": "address",
          "name": "token",
          "type": "address"
        },
        {
          "internalType": "uint32[]",
          "name": "seasons",
          "type": "uint32[]"
        },
        {
          "internalType": "uint256[]",
          "name": "amounts",
          "type": "uint256[]"
        }
      ],
      "name": "enrootDeposits",
      "outputs": [],
      "stateMutability": "nonpayable",
      "type": "function"
    },
    {
      "inputs": [
        {
          "internalType": "address",
          "name": "account",
          "type": "address"
        },
        {
          "internalType": "address",
          "name": "token",
          "type": "address"
        },
        {
          "internalType": "uint32",
          "name": "season",
          "type": "uint32"
        }
      ],
      "name": "getDeposit",
      "outputs": [
        {
          "internalType": "uint256",
          "name": "",
          "type": "uint256"
        },
        {
          "internalType": "uint256",
          "name": "",
          "type": "uint256"
        }
      ],
      "stateMutability": "view",
      "type": "function"
    },
    {
      "inputs": [
        {
          "internalType": "address",
          "name": "token",
          "type": "address"
        }
      ],
      "name": "getTotalDeposited",
      "outputs": [
        {
          "internalType": "uint256",
          "name": "",
          "type": "uint256"
        }
      ],
      "stateMutability": "view",
      "type": "function"
    },
    {
      "inputs": [
        {
          "internalType": "address",
          "name": "token",
          "type": "address"
        }
      ],
      "name": "getTotalWithdrawn",
      "outputs": [
        {
          "internalType": "uint256",
          "name": "",
          "type": "uint256"
        }
      ],
      "stateMutability": "view",
      "type": "function"
    },
    {
      "inputs": [
        {
          "internalType": "address",
          "name": "account",
          "type": "address"
        },
        {
          "internalType": "address",
          "name": "token",
          "type": "address"
        },
        {
          "internalType": "uint32",
          "name": "season",
          "type": "uint32"
        }
      ],
      "name": "getWithdrawal",
      "outputs": [
        {
          "internalType": "uint256",
          "name": "",
          "type": "uint256"
        }
      ],
      "stateMutability": "view",
      "type": "function"
    },
    {
      "inputs": [],
      "name": "lastSeasonOfPlenty",
      "outputs": [
        {
          "internalType": "uint32",
          "name": "",
          "type": "uint32"
        }
      ],
      "stateMutability": "view",
      "type": "function"
    },
    {
      "inputs": [
        {
          "internalType": "address",
          "name": "account",
          "type": "address"
        }
      ],
      "name": "lastUpdate",
      "outputs": [
        {
          "internalType": "uint32",
          "name": "",
          "type": "uint32"
        }
      ],
      "stateMutability": "view",
      "type": "function"
    },
    {
      "inputs": [],
      "name": "plant",
      "outputs": [
        {
          "internalType": "uint256",
          "name": "beans",
          "type": "uint256"
        }
      ],
      "stateMutability": "payable",
      "type": "function"
    },
    {
      "inputs": [
        {
          "internalType": "address",
          "name": "token",
          "type": "address"
        }
      ],
      "name": "tokenSettings",
      "outputs": [
        {
          "components": [
            {
              "internalType": "bytes4",
              "name": "selector",
              "type": "bytes4"
            },
            {
              "internalType": "uint32",
              "name": "seeds",
              "type": "uint32"
            },
            {
              "internalType": "uint32",
              "name": "stalk",
              "type": "uint32"
            }
          ],
          "internalType": "struct Storage.SiloSettings",
          "name": "",
          "type": "tuple"
        }
      ],
      "stateMutability": "view",
      "type": "function"
    },
    {
      "inputs": [],
      "name": "totalEarnedBeans",
      "outputs": [
        {
          "internalType": "uint256",
          "name": "",
          "type": "uint256"
        }
      ],
      "stateMutability": "view",
      "type": "function"
    },
    {
      "inputs": [],
      "name": "totalRoots",
      "outputs": [
        {
          "internalType": "uint256",
          "name": "",
          "type": "uint256"
        }
      ],
      "stateMutability": "view",
      "type": "function"
    },
    {
      "inputs": [],
      "name": "totalSeeds",
      "outputs": [
        {
          "internalType": "uint256",
          "name": "",
          "type": "uint256"
        }
      ],
      "stateMutability": "view",
      "type": "function"
    },
    {
      "inputs": [],
      "name": "totalStalk",
      "outputs": [
        {
          "internalType": "uint256",
          "name": "",
          "type": "uint256"
        }
      ],
      "stateMutability": "view",
      "type": "function"
    },
    {
      "inputs": [
        {
          "internalType": "address",
          "name": "recipient",
          "type": "address"
        },
        {
          "internalType": "address",
          "name": "token",
          "type": "address"
        },
        {
          "internalType": "uint32",
          "name": "season",
          "type": "uint32"
        },
        {
          "internalType": "uint256",
          "name": "amount",
          "type": "uint256"
        }
      ],
      "name": "transferDeposit",
      "outputs": [],
      "stateMutability": "payable",
      "type": "function"
    },
    {
      "inputs": [
        {
          "internalType": "address",
          "name": "recipient",
          "type": "address"
        },
        {
          "internalType": "address",
          "name": "token",
          "type": "address"
        },
        {
          "internalType": "uint32[]",
          "name": "seasons",
          "type": "uint32[]"
        },
        {
          "internalType": "uint256[]",
          "name": "amounts",
          "type": "uint256[]"
        }
      ],
      "name": "transferDeposits",
      "outputs": [],
      "stateMutability": "payable",
      "type": "function"
    },
    {
      "inputs": [
        {
          "internalType": "address",
          "name": "account",
          "type": "address"
        }
      ],
      "name": "update",
      "outputs": [],
      "stateMutability": "payable",
      "type": "function"
    },
    {
      "inputs": [
        {
          "internalType": "address",
          "name": "token",
          "type": "address"
        },
        {
          "internalType": "uint32",
          "name": "season",
          "type": "uint32"
        },
        {
          "internalType": "uint256",
          "name": "amount",
          "type": "uint256"
        }
      ],
      "name": "withdrawDeposit",
      "outputs": [],
      "stateMutability": "payable",
      "type": "function"
    },
    {
      "inputs": [
        {
          "internalType": "address",
          "name": "token",
          "type": "address"
        },
        {
          "internalType": "uint32[]",
          "name": "seasons",
          "type": "uint32[]"
        },
        {
          "internalType": "uint256[]",
          "name": "amounts",
          "type": "uint256[]"
        }
      ],
      "name": "withdrawDeposits",
      "outputs": [],
      "stateMutability": "payable",
      "type": "function"
    },
    {
      "inputs": [],
      "name": "withdrawFreeze",
      "outputs": [
        {
          "internalType": "uint8",
          "name": "",
          "type": "uint8"
        }
      ],
      "stateMutability": "view",
      "type": "function"
    }
  ],
  "bytecode": "0x60806040523480156200001157600080fd5b50618ba580620000226000396000f3fe6080604052600436106101f95760003560e01c80637b52fadf1161010d578063ba39dc02116100a0578063d8bd0d9d1161006f578063d8bd0d9d14610751578063e23c96a41461077c578063e923e8d4146107b9578063f19ed6be146107f6578063fd9de16614610812576101f9565b8063ba39dc0214610683578063be6547d2146106c0578063cb03fb1e146106eb578063d5d2ea8c14610728576101f9565b80638eeae310116100dc5780638eeae310146105b0578063a7bf680f146105ed578063b189d9c81461062a578063b1c7a20f14610646576101f9565b80637b52fadf146104e157806383b9e85d1461050c578063896651e8146105355780638a6a7eb414610572576101f9565b80634654416611610190578063602aa1231161015f578063602aa1231461041157806369fbad941461044e578063764a98741461048b578063779b3c5c146104a75780637af9a0ce146104c5576101f9565b80634654416614610362578063488e94dc1461038d5780634916bc72146103a957806355926690146103e6576101f9565b8063249564aa116101cc578063249564aa1461028f578063261bcf0d146102cc578063341b94d5146102e85780633e465a2e14610325576101f9565b80630c9c31bd146101fe5780630d010ea91461023b5780630e2808eb146102575780631c1b877214610273575b600080fd5b34801561020a57600080fd5b5061022560048036038101906102209190617e28565b61083d565b604051610232919061883d565b60405180910390f35b61025560048036038101906102509190617f3b565b61088b565b005b610271600480360381019061026c9190617e28565b61090f565b005b61028d60048036038101906102889190617e28565b61091b565b005b34801561029b57600080fd5b506102b660048036038101906102b19190617e28565b610927565b6040516102c3919061883d565b60405180910390f35b6102e660048036038101906102e19190617e51565b610993565b005b3480156102f457600080fd5b5061030f600480360381019061030a9190617e28565b610a1b565b60405161031c919061883d565b60405180910390f35b34801561033157600080fd5b5061034c60048036038101906103479190617e28565b610a46565b604051610359919061883d565b60405180910390f35b34801561036e57600080fd5b50610377610aa1565b604051610384919061883d565b60405180910390f35b6103a760048036038101906103a291906180e2565b610ab0565b005b3480156103b557600080fd5b506103d060048036038101906103cb9190617e28565b610b30565b6040516103dd919061883d565b60405180910390f35b3480156103f257600080fd5b506103fb610b81565b60405161040891906188fc565b60405180910390f35b34801561041d57600080fd5b5061043860048036038101906104339190617e28565b610b9d565b604051610445919061883d565b60405180910390f35b34801561045a57600080fd5b5061047560048036038101906104709190617e28565b610bc8565b604051610482919061883d565b60405180910390f35b6104a560048036038101906104a09190618027565b610c19565b005b6104af610c9b565b6040516104bc919061883d565b60405180910390f35b6104df60048036038101906104da9190618131565b610cab565b005b3480156104ed57600080fd5b506104f6610cc5565b604051610503919061883d565b60405180910390f35b34801561051857600080fd5b50610533600480360381019061052e9190617f9e565b610cd4565b005b34801561054157600080fd5b5061055c60048036038101906105579190617e28565b610fe1565b604051610569919061883d565b60405180910390f35b34801561057e57600080fd5b5061059960048036038101906105949190617eec565b611387565b6040516105a7929190618858565b60405180910390f35b3480156105bc57600080fd5b506105d760048036038101906105d29190617e28565b6113a1565b6040516105e4919061883d565b60405180910390f35b3480156105f957600080fd5b50610614600480360381019061060f9190617e28565b61140d565b6040516106219190618807565b60405180910390f35b610644600480360381019061063f9190617f9e565b6115aa565b005b34801561065257600080fd5b5061066d60048036038101906106689190617e28565b6115c8565b60405161067a919061883d565b60405180910390f35b34801561068f57600080fd5b506106aa60048036038101906106a59190617e28565b611616565b6040516106b7919061883d565b60405180910390f35b3480156106cc57600080fd5b506106d5611664565b6040516106e29190618881565b60405180910390f35b3480156106f757600080fd5b50610712600480360381019061070d9190617e28565b611683565b60405161071f9190618881565b60405180910390f35b34801561073457600080fd5b5061074f600480360381019061074a9190618131565b6116e1565b005b34801561075d57600080fd5b5061076661190f565b604051610773919061883d565b60405180910390f35b34801561078857600080fd5b506107a3600480360381019061079e9190617eec565b61191e565b6040516107b0919061883d565b60405180910390f35b3480156107c557600080fd5b506107e060048036038101906107db9190617e28565b611934565b6040516107ed9190618822565b60405180910390f35b610810600480360381019061080b9190618093565b611a31565b005b34801561081e57600080fd5b50610827611ab7565b604051610834919061883d565b60405180910390f35b60008060380160008373ffffffffffffffffffffffffffffffffffffffff1673ffffffffffffffffffffffffffffffffffffffff168152602001908152602001600020600001549050919050565b60026000601e015414156108d4576040517f08c379a00000000000000000000000000000000000000000000000000000000081526004016108cb906187e7565b60405180910390fd5b60026000601e01819055506108e833611ac3565b6108f184611ac3565b6108fe3385858585611b73565b60016000601e018190555050505050565b61091881611bad565b50565b61092481611ac3565b50565b600061098c600060310160008473ffffffffffffffffffffffffffffffffffffffff1673ffffffffffffffffffffffffffffffffffffffff1681526020019081526020016000206008016001015461097e84611683565b610986611cc9565b03611ce8565b9050919050565b60026000601e015414156109dc576040517f08c379a00000000000000000000000000000000000000000000000000000000081526004016109d3906187e7565b60405180910390fd5b60026000601e01819055506109f033611ac3565b6109f986611ac3565b610a0833878787878787611d0b565b60016000601e0181905550505050505050565b6000610a3f610a286120a3565b610a3184610a46565b6120ad90919063ffffffff16565b9050919050565b6000610a9a82600060310160008573ffffffffffffffffffffffffffffffffffffffff1673ffffffffffffffffffffffffffffffffffffffff16815260200190815260200160002060080160000154612133565b9050919050565b600080601b0160020154905090565b60026000601e01541415610af9576040517f08c379a0000000000000000000000000000000000000000000000000000000008152600401610af0906187e7565b60405180910390fd5b60026000601e01819055506000610b1133858561221e565b9050610b1f84823385612341565b5060016000601e0181905550505050565b60008060310160008373ffffffffffffffffffffffffffffffffffffffff1673ffffffffffffffffffffffffffffffffffffffff168152602001908152602001600020600801600101549050919050565b60008060030160000160089054906101000a900460ff16905090565b6000610bc1610baa6123b0565b610bb384610a46565b6120ad90919063ffffffff16565b9050919050565b60008060310160008373ffffffffffffffffffffffffffffffffffffffff1673ffffffffffffffffffffffffffffffffffffffff168152602001908152602001600020601201600001549050919050565b60026000601e01541415610c62576040517f08c379a0000000000000000000000000000000000000000000000000000000008152600401610c59906187e7565b60405180910390fd5b60026000601e01819055506000610c7b338686866123b9565b9050610c8985823385612341565b5060016000601e018190555050505050565b6000610ca633612525565b905090565b610cb433611ac3565b610cc033848484612724565b505050565b600080601b0160000154905090565b60026000601e01541415610d1d576040517f08c379a0000000000000000000000000000000000000000000000000000000008152600401610d14906187e7565b60405180910390fd5b60026000601e0181905550610d3133611ac3565b6000610d4133878787878761274d565b90506000610d53878360000151612a4a565b90506000805b87879050811015610f21576000610da18560000151610d93868a8a87818110610d7e57fe5b905060200201356120ad90919063ffffffff16565b612bba90919063ffffffff16565b9050610de2338b8b8b86818110610db457fe5b9050602002016020810190610dc991906181a9565b8a8a87818110610dd557fe5b9050602002013585612c43565b610f13610f04610e88610e59600060390160008f73ffffffffffffffffffffffffffffffffffffffff1673ffffffffffffffffffffffffffffffffffffffff16815260200190815260200160002060000160049054906101000a900463ffffffff1663ffffffff16856120ad90919063ffffffff16565b8c8c87818110610e6557fe5b9050602002016020810190610e7a91906181a9565b610e82611cc9565b03611ce8565b610ef6600060390160008f73ffffffffffffffffffffffffffffffffffffffff1673ffffffffffffffffffffffffffffffffffffffff16815260200190815260200160002060000160089054906101000a900463ffffffff1663ffffffff16856120ad90919063ffffffff16565b612eb290919063ffffffff16565b84612eb290919063ffffffff16565b925050806001019050610d59565b506000610f92600060390160008b73ffffffffffffffffffffffffffffffffffffffff1673ffffffffffffffffffffffffffffffffffffffff16815260200190815260200160002060000160049054906101000a900463ffffffff1663ffffffff16846120ad90919063ffffffff16565b9050610fcb33610faf866040015184612f3a90919063ffffffff16565b610fc6876020015186612f3a90919063ffffffff16565b612fbd565b5050505060016000601e01819055505050505050565b600080600060310160008473ffffffffffffffffffffffffffffffffffffffff1673ffffffffffffffffffffffffffffffffffffffff168152602001908152602001600020905080601201600201549150600080600060310160008673ffffffffffffffffffffffffffffffffffffffff1673ffffffffffffffffffffffffffffffffffffffff168152602001908152602001600020600a01600c9054906101000a900463ffffffff1663ffffffff1611156112385781600a01600c9054906101000a900463ffffffff1663ffffffff1682600a0160089054906101000a900463ffffffff1663ffffffff1614156110e2578160120160010154905061111c565b6000603d01600083600a0160089054906101000a900463ffffffff1663ffffffff1663ffffffff1681526020019081526020016000205490505b600080603d0160008060310160008873ffffffffffffffffffffffffffffffffffffffff1673ffffffffffffffffffffffffffffffffffffffff168152602001908152602001600020600a01600c9054906101000a900463ffffffff1663ffffffff1663ffffffff16815260200190815260200160002054905081811115611232576000828203905081925061122e61121f6111b6612fd6565b611211600060310160008b73ffffffffffffffffffffffffffffffffffffffff1673ffffffffffffffffffffffffffffffffffffffff16815260200190815260200160002060120160000154856120ad90919063ffffffff16565b612bba90919063ffffffff16565b86612eb290919063ffffffff16565b9450505b506112b2565b6000603d0160008060310160008773ffffffffffffffffffffffffffffffffffffffff1673ffffffffffffffffffffffffffffffffffffffff168152602001908152602001600020600a0160089054906101000a900463ffffffff1663ffffffff1663ffffffff1681526020019081526020016000205490505b6112bb84611683565b63ffffffff16600060030160000160049054906101000a900463ffffffff1663ffffffff161115611380576000611334826000603d0160008060030160000160049054906101000a900463ffffffff1663ffffffff1663ffffffff16815260200190815260200160002054612f3a90919063ffffffff16565b905061137c61136d611344612fd6565b61135f61135089611616565b856120ad90919063ffffffff16565b612bba90919063ffffffff16565b85612eb290919063ffffffff16565b9350505b5050919050565b600080611395858585612fe8565b91509150935093915050565b60006114066113af83610a1b565b600060310160008573ffffffffffffffffffffffffffffffffffffffff1673ffffffffffffffffffffffffffffffffffffffff16815260200190815260200160002060080160000154612eb290919063ffffffff16565b9050919050565b611415617c67565b600060310160008373ffffffffffffffffffffffffffffffffffffffff1673ffffffffffffffffffffffffffffffffffffffff168152602001908152602001600020600a01600c9054906101000a900463ffffffff16816000019063ffffffff16908163ffffffff1681525050600060310160008373ffffffffffffffffffffffffffffffffffffffff1673ffffffffffffffffffffffffffffffffffffffff168152602001908152602001600020600a0160089054906101000a900463ffffffff16816020019063ffffffff16908163ffffffff1681525050600060310160008373ffffffffffffffffffffffffffffffffffffffff1673ffffffffffffffffffffffffffffffffffffffff1681526020019081526020016000206012016000015481604001818152505061154a82610fe1565b816080018181525050600060310160008373ffffffffffffffffffffffffffffffffffffffff1673ffffffffffffffffffffffffffffffffffffffff16815260200190815260200160002060120160010154816060018181525050919050565b6115b333611ac3565b6115c13386868686866131ef565b5050505050565b60008060380160008373ffffffffffffffffffffffffffffffffffffffff1673ffffffffffffffffffffffffffffffffffffffff168152602001908152602001600020600101549050919050565b60008060310160008373ffffffffffffffffffffffffffffffffffffffff1673ffffffffffffffffffffffffffffffffffffffff168152602001908152602001600020600e01549050919050565b60008060030160000160049054906101000a900463ffffffff16905090565b60008060310160008373ffffffffffffffffffffffffffffffffffffffff1673ffffffffffffffffffffffffffffffffffffffff168152602001908152602001600020600a0160049054906101000a900463ffffffff169050919050565b60026000601e0154141561172a576040517f08c379a0000000000000000000000000000000000000000000000000000000008152600401611721906187e7565b60405180910390fd5b60026000601e018190555061173e33611ac3565b600061174c3385858561326b565b90508373ffffffffffffffffffffffffffffffffffffffff163373ffffffffffffffffffffffffffffffffffffffff167f7dfe6babf78bb003d6561ed598a241a0b419a1f3acbb7ee153888fb60a4c8aa885856040516117ad92919061889c565b60405180910390a360006117c18584612a4a565b90506117d03386868685612c43565b60006117e58383612f3a90919063ffffffff16565b90506000611857600060390160008973ffffffffffffffffffffffffffffffffffffffff1673ffffffffffffffffffffffffffffffffffffffff16815260200190815260200160002060000160049054906101000a900463ffffffff1663ffffffff16836120ad90919063ffffffff16565b905060006118ed611871838961186b611cc9565b03611ce8565b6118df600060390160008c73ffffffffffffffffffffffffffffffffffffffff1673ffffffffffffffffffffffffffffffffffffffff16815260200190815260200160002060000160089054906101000a900463ffffffff1663ffffffff16866120ad90919063ffffffff16565b612eb290919063ffffffff16565b90506118fa338383612fbd565b505050505060016000601e0181905550505050565b600080601b0160010154905090565b600061192b848484613a41565b90509392505050565b61193c617ca2565b600060390160008373ffffffffffffffffffffffffffffffffffffffff1673ffffffffffffffffffffffffffffffffffffffff1681526020019081526020016000206040518060600160405290816000820160009054906101000a900460e01b7bffffffffffffffffffffffffffffffffffffffffffffffffffffffff19167bffffffffffffffffffffffffffffffffffffffffffffffffffffffff191681526020016000820160049054906101000a900463ffffffff1663ffffffff1663ffffffff1681526020016000820160089054906101000a900463ffffffff1663ffffffff1663ffffffff16815250509050919050565b60026000601e01541415611a7a576040517f08c379a0000000000000000000000000000000000000000000000000000000008152600401611a71906187e7565b60405180910390fd5b60026000601e0181905550611a8e33611ac3565b611a9a83833384613af7565b9150611aa7338484613cf3565b60016000601e0181905550505050565b60008060220154905090565b6000611ace82611683565b9050611ad8611cc9565b63ffffffff168163ffffffff1610611af05750611b70565b611afa8282613d1f565b611b0382614243565b611b0b611cc9565b600060310160008473ffffffffffffffffffffffffffffffffffffffff1673ffffffffffffffffffffffffffffffffffffffff168152602001908152602001600020600a0160046101000a81548163ffffffff021916908363ffffffff160217905550505b50565b6000806000611b84888787876142ae565b925092509250611b978787878785612c43565b611ba388888486614436565b5050505050505050565b60008060310160008373ffffffffffffffffffffffffffffffffffffffff1673ffffffffffffffffffffffffffffffffffffffff168152602001908152602001600020601201600201549050611c2b8282611c06614452565b73ffffffffffffffffffffffffffffffffffffffff1661446e9092919063ffffffff16565b600060310160008373ffffffffffffffffffffffffffffffffffffffff1673ffffffffffffffffffffffffffffffffffffffff168152602001908152602001600020601201600201600090558173ffffffffffffffffffffffffffffffffffffffff167f3ff94a43ca7e8ba19ce3ea7fdfbbe377ec2941bfb7745c1fc3dc075a5e2d840282604051611cbd919061883d565b60405180910390a25050565b60008060030160000160009054906101000a900463ffffffff16905090565b6000611d038263ffffffff16846120ad90919063ffffffff16565b905092915050565b818190508484905014611d53576040517f08c379a0000000000000000000000000000000000000000000000000000000008152600401611d4a906187c7565b60405180910390fd5b611d5b617cee565b60005b85859050811015611f07576000611da98a89898986818110611d7c57fe5b9050602002016020810190611d9191906181a9565b888887818110611d9d57fe5b9050602002013561326b565b9050611dea8989898986818110611dbc57fe5b9050602002016020810190611dd191906181a9565b888887818110611ddd57fe5b9050602002013585612c43565b611e01818460600151612eb290919063ffffffff16565b836060018181525050611e33858584818110611e1957fe5b905060200201358460000151612eb290919063ffffffff16565b836000018181525050611ef2611edf611eb0600060390160008c73ffffffffffffffffffffffffffffffffffffffff1673ffffffffffffffffffffffffffffffffffffffff16815260200190815260200160002060000160049054906101000a900463ffffffff1663ffffffff16846120ad90919063ffffffff16565b898986818110611ebc57fe5b9050602002016020810190611ed191906181a9565b611ed9614510565b03611ce8565b8460200151612eb290919063ffffffff16565b83602001818152505050806001019050611d5e565b50611f7a600060390160008873ffffffffffffffffffffffffffffffffffffffff1673ffffffffffffffffffffffffffffffffffffffff16815260200190815260200160002060000160049054906101000a900463ffffffff1663ffffffff1682606001516120ad90919063ffffffff16565b81604001818152505061200b611ff8600060390160008973ffffffffffffffffffffffffffffffffffffffff1673ffffffffffffffffffffffffffffffffffffffff16815260200190815260200160002060000160089054906101000a900463ffffffff1663ffffffff1683606001516120ad90919063ffffffff16565b8260200151612eb290919063ffffffff16565b8160200181815250508573ffffffffffffffffffffffffffffffffffffffff168873ffffffffffffffffffffffffffffffffffffffff167f5546b2ec4df884f6457f3f55f277a96bceff5c3d163925fd706cfc65c3bc5bc387878787876000015160405161207d95949392919061863f565b60405180910390a3612099888883604001518460200151614436565b5050505050505050565b6000612710905090565b6000808314156120c0576000905061212d565b60008284029050828482816120d157fe5b0414612128576040517f08c379a0000000000000000000000000000000000000000000000000000000008152600401808060200182810382526021815260200180618afd6021913960400191505060405180910390fd5b809150505b92915050565b6000806000601b0160020154141561214e5760009050612218565b60006121ca6000601b01600201546121bc600060310160008873ffffffffffffffffffffffffffffffffffffffff1673ffffffffffffffffffffffffffffffffffffffff168152602001908152602001600020600e01546000601b01600001546120ad90919063ffffffff16565b612bba90919063ffffffff16565b90508281116121dd576000915050612218565b6121f96121e86120a3565b848303612bba90919063ffffffff16565b915060006022015482111561221657600060220154915050612218565b505b92915050565b60008061222c85858561452f565b905061228681600060380160008773ffffffffffffffffffffffffffffffffffffffff1673ffffffffffffffffffffffffffffffffffffffff16815260200190815260200160002060010154612f3a90919063ffffffff16565b600060380160008673ffffffffffffffffffffffffffffffffffffffff1673ffffffffffffffffffffffffffffffffffffffff168152602001908152602001600020600101819055508373ffffffffffffffffffffffffffffffffffffffff163373ffffffffffffffffffffffffffffffffffffffff167faa6a2412fe6f73e85c713779b0e5a0d7fe8c08cc03c3a7b397ef83a4c1dca538858460405161232e92919061889c565b60405180910390a3809150509392505050565b600083141561234f576123aa565b60018081111561235b57fe5b81600181111561236757fe5b141561237d576123788285856146e8565b6123a9565b6123a882848673ffffffffffffffffffffffffffffffffffffffff1661446e9092919063ffffffff16565b5b5b50505050565b60006002905090565b6000805b83839050811015612412576124056123f687878787868181106123dc57fe5b90506020020160208101906123f191906181a9565b61452f565b83612eb290919063ffffffff16565b91508060010190506123bd565b5061246b81600060380160008773ffffffffffffffffffffffffffffffffffffffff1673ffffffffffffffffffffffffffffffffffffffff16815260200190815260200160002060010154612f3a90919063ffffffff16565b600060380160008673ffffffffffffffffffffffffffffffffffffffff1673ffffffffffffffffffffffffffffffffffffffff168152602001908152602001600020600101819055508373ffffffffffffffffffffffffffffffffffffffff163373ffffffffffffffffffffffffffffffffffffffff167f7c7b3f4a133861c092bfa3c8ba112156b88763da4e7ed69e50f617bc24c68c4e85858560405161251593929190618688565b60405180910390a3949350505050565b600061253082611ac3565b60008060310160008473ffffffffffffffffffffffffffffffffffffffff1673ffffffffffffffffffffffffffffffffffffffff1681526020019081526020016000206008016000015490506125868382612133565b9150600082141561259b57600091505061271f565b6125b382600060220154612f3a90919063ffffffff16565b6000602201819055506125d7836125c8614728565b6125d0611cc9565b8586612c43565b60006125f36125e46123b0565b846120ad90919063ffffffff16565b90506125ff8482614744565b600061261b61260c6120a3565b856120ad90919063ffffffff16565b90506126308184612eb290919063ffffffff16565b600060310160008773ffffffffffffffffffffffffffffffffffffffff1673ffffffffffffffffffffffffffffffffffffffff168152602001908152602001600020600801600001819055508473ffffffffffffffffffffffffffffffffffffffff167fb2d61db64b8ad7535308d2111c78934bc32baf9b7cd3a2e58cba25730003cd588260006040516126c59291906186fe565b60405180910390a28473ffffffffffffffffffffffffffffffffffffffff167fa5b32e50fecda2ccbfc130436ca7957154138f097b2a834f19ce579afd2d842785604051612713919061883d565b60405180910390a25050505b919050565b600080612733868686866142ae565b5091509150612745868685858561486d565b505050505050565b612755617cee565b60005b858590508110156128c25760006127a3898989898681811061277657fe5b905060200201602081019061278b91906181a9565b88888781811061279757fe5b9050602002013561326b565b90506127bc818460600151612eb290919063ffffffff16565b8360600181815250506127ee8585848181106127d457fe5b905060200201358460000151612eb290919063ffffffff16565b8360000181815250506128ad61289a61286b600060390160008c73ffffffffffffffffffffffffffffffffffffffff1673ffffffffffffffffffffffffffffffffffffffff16815260200190815260200160002060000160049054906101000a900463ffffffff1663ffffffff16846120ad90919063ffffffff16565b89898681811061287757fe5b905060200201602081019061288c91906181a9565b612894614510565b03611ce8565b8460200151612eb290919063ffffffff16565b83602001818152505050806001019050612758565b50612935600060390160008873ffffffffffffffffffffffffffffffffffffffff1673ffffffffffffffffffffffffffffffffffffffff16815260200190815260200160002060000160049054906101000a900463ffffffff1663ffffffff1682606001516120ad90919063ffffffff16565b8160400181815250506129c66129b3600060390160008973ffffffffffffffffffffffffffffffffffffffff1673ffffffffffffffffffffffffffffffffffffffff16815260200190815260200160002060000160089054906101000a900463ffffffff1663ffffffff1683606001516120ad90919063ffffffff16565b8260200151612eb290919063ffffffff16565b8160200181815250508573ffffffffffffffffffffffffffffffffffffffff168773ffffffffffffffffffffffffffffffffffffffff167f5546b2ec4df884f6457f3f55f277a96bceff5c3d163925fd706cfc65c3bc5bc3878787878760000151604051612a3895949392919061863f565b60405180910390a39695505050505050565b600080612a556148bb565b905060008160390160008673ffffffffffffffffffffffffffffffffffffffff1673ffffffffffffffffffffffffffffffffffffffff16815260200190815260200160002060000160009054906101000a900460e01b84604051602401612abc919061883d565b604051602081830303815290604052907bffffffffffffffffffffffffffffffffffffffffffffffffffffffff19166020820180517bffffffffffffffffffffffffffffffffffffffffffffffffffffffff838183161783525050505090506000803073ffffffffffffffffffffffffffffffffffffffff1683604051612b43919061860d565b6000604051808303816000865af19150503d8060008114612b80576040519150601f19603f3d011682016040523d82523d6000602084013e612b85565b606091505b509150915081612ba657600081511415612b9e57600080fd5b805181602001fd5b600060200181015194505050505092915050565b6000808211612c31576040517f08c379a000000000000000000000000000000000000000000000000000000000815260040180806020018281038252601a8152602001807f536166654d6174683a206469766973696f6e206279207a65726f00000000000081525060200191505060405180910390fd5b818381612c3a57fe5b04905092915050565b6000612c4d6148bb565b9050828160310160008873ffffffffffffffffffffffffffffffffffffffff1673ffffffffffffffffffffffffffffffffffffffff16815260200190815260200160002060100160008773ffffffffffffffffffffffffffffffffffffffff1673ffffffffffffffffffffffffffffffffffffffff16815260200190815260200160002060008663ffffffff1663ffffffff16815260200190815260200160002060000160008282829054906101000a90046fffffffffffffffffffffffffffffffff160192506101000a8154816fffffffffffffffffffffffffffffffff02191690836fffffffffffffffffffffffffffffffff160217905550818160310160008873ffffffffffffffffffffffffffffffffffffffff1673ffffffffffffffffffffffffffffffffffffffff16815260200190815260200160002060100160008773ffffffffffffffffffffffffffffffffffffffff1673ffffffffffffffffffffffffffffffffffffffff16815260200190815260200160002060008663ffffffff1663ffffffff16815260200190815260200160002060000160108282829054906101000a90046fffffffffffffffffffffffffffffffff160192506101000a8154816fffffffffffffffffffffffffffffffff02191690836fffffffffffffffffffffffffffffffff1602179055508473ffffffffffffffffffffffffffffffffffffffff168673ffffffffffffffffffffffffffffffffffffffff167fdbe49eaf5c2a8a7f65920c200ca5d47395540b884f6a1886fdb2611624f9981b868686604051612ea2939291906188c5565b60405180910390a3505050505050565b600080828401905083811015612f30576040517f08c379a000000000000000000000000000000000000000000000000000000000815260040180806020018281038252601b8152602001807f536166654d6174683a206164646974696f6e206f766572666c6f77000000000081525060200191505060405180910390fd5b8091505092915050565b600082821115612fb2576040517f08c379a000000000000000000000000000000000000000000000000000000000815260040180806020018281038252601e8152602001807f536166654d6174683a207375627472616374696f6e206f766572666c6f77000081525060200191505060405180910390fd5b818303905092915050565b612fc783826148c0565b612fd18383614744565b505050565b600069d3c21bcecceda1000000905090565b6000806000612ff56148bb565b905061300085614b18565b156130195761300f8685614b57565b92509250506131e7565b61302285614de1565b1561303b576130318685614e20565b92509250506131e7565b8060310160008773ffffffffffffffffffffffffffffffffffffffff1673ffffffffffffffffffffffffffffffffffffffff16815260200190815260200160002060100160008673ffffffffffffffffffffffffffffffffffffffff1673ffffffffffffffffffffffffffffffffffffffff16815260200190815260200160002060008563ffffffff1663ffffffff16815260200190815260200160002060000160009054906101000a90046fffffffffffffffffffffffffffffffff168160310160008873ffffffffffffffffffffffffffffffffffffffff1673ffffffffffffffffffffffffffffffffffffffff16815260200190815260200160002060100160008773ffffffffffffffffffffffffffffffffffffffff1673ffffffffffffffffffffffffffffffffffffffff16815260200190815260200160002060008663ffffffff1663ffffffff16815260200190815260200160002060000160109054906101000a90046fffffffffffffffffffffffffffffffff16816fffffffffffffffffffffffffffffffff169150806fffffffffffffffffffffffffffffffff16905092509250505b935093915050565b818190508484905014613237576040517f08c379a000000000000000000000000000000000000000000000000000000000815260040161322e906187c7565b60405180910390fd5b600061324787878787878761274d565b9050613262878783600001518460200151856040015161486d565b50505050505050565b6000806132766148bb565b905060008160310160008873ffffffffffffffffffffffffffffffffffffffff1673ffffffffffffffffffffffffffffffffffffffff16815260200190815260200160002060100160008773ffffffffffffffffffffffffffffffffffffffff1673ffffffffffffffffffffffffffffffffffffffff16815260200190815260200160002060008663ffffffff1663ffffffff16815260200190815260200160002060000160009054906101000a90046fffffffffffffffffffffffffffffffff168260310160008973ffffffffffffffffffffffffffffffffffffffff1673ffffffffffffffffffffffffffffffffffffffff16815260200190815260200160002060100160008873ffffffffffffffffffffffffffffffffffffffff1673ffffffffffffffffffffffffffffffffffffffff16815260200190815260200160002060008763ffffffff1663ffffffff16815260200190815260200160002060000160109054906101000a90046fffffffffffffffffffffffffffffffff16816fffffffffffffffffffffffffffffffff169150806fffffffffffffffffffffffffffffffff1690508094508192505050808410156138955760006134578261344986886120ad90919063ffffffff16565b612bba90919063ffffffff16565b9050600061353d828560310160008c73ffffffffffffffffffffffffffffffffffffffff1673ffffffffffffffffffffffffffffffffffffffff16815260200190815260200160002060100160008b73ffffffffffffffffffffffffffffffffffffffff1673ffffffffffffffffffffffffffffffffffffffff16815260200190815260200160002060008a63ffffffff1663ffffffff16815260200190815260200160002060000160109054906101000a90046fffffffffffffffffffffffffffffffff166fffffffffffffffffffffffffffffffff16612f3a90919063ffffffff16565b90506000613623878660310160008d73ffffffffffffffffffffffffffffffffffffffff1673ffffffffffffffffffffffffffffffffffffffff16815260200190815260200160002060100160008c73ffffffffffffffffffffffffffffffffffffffff1673ffffffffffffffffffffffffffffffffffffffff16815260200190815260200160002060008b63ffffffff1663ffffffff16815260200190815260200160002060000160009054906101000a90046fffffffffffffffffffffffffffffffff166fffffffffffffffffffffffffffffffff16612f3a90919063ffffffff16565b90507fffffffffffffffffffffffffffffffffffffffffffffffffffffffffffffffff6fffffffffffffffffffffffffffffffff16821115801561369957507fffffffffffffffffffffffffffffffffffffffffffffffffffffffffffffffff6fffffffffffffffffffffffffffffffff168111155b6136d8576040517f08c379a00000000000000000000000000000000000000000000000000000000081526004016136cf90618727565b60405180910390fd5b808560310160008c73ffffffffffffffffffffffffffffffffffffffff1673ffffffffffffffffffffffffffffffffffffffff16815260200190815260200160002060100160008b73ffffffffffffffffffffffffffffffffffffffff1673ffffffffffffffffffffffffffffffffffffffff16815260200190815260200160002060008a63ffffffff1663ffffffff16815260200190815260200160002060000160006101000a8154816fffffffffffffffffffffffffffffffff02191690836fffffffffffffffffffffffffffffffff160217905550818560310160008c73ffffffffffffffffffffffffffffffffffffffff1673ffffffffffffffffffffffffffffffffffffffff16815260200190815260200160002060100160008b73ffffffffffffffffffffffffffffffffffffffff1673ffffffffffffffffffffffffffffffffffffffff16815260200190815260200160002060008a63ffffffff1663ffffffff16815260200190815260200160002060000160106101000a8154816fffffffffffffffffffffffffffffffff02191690836fffffffffffffffffffffffffffffffff1602179055508295505050505050613a39565b6000811115613986578160310160008873ffffffffffffffffffffffffffffffffffffffff1673ffffffffffffffffffffffffffffffffffffffff16815260200190815260200160002060100160008773ffffffffffffffffffffffffffffffffffffffff1673ffffffffffffffffffffffffffffffffffffffff16815260200190815260200160002060008663ffffffff1663ffffffff168152602001908152602001600020600080820160006101000a8154906fffffffffffffffffffffffffffffffff02191690556000820160106101000a8154906fffffffffffffffffffffffffffffffff021916905550505b80841115613a3657808403935061399c86614b18565b156139c7576139be6139af8887876150c5565b84612eb290919063ffffffff16565b92505050613a39565b6139d086614de1565b156139fb576139f26139e388878761510f565b84612eb290919063ffffffff16565b92505050613a39565b6040517f08c379a0000000000000000000000000000000000000000000000000000000008152600401613a2d906187a7565b60405180910390fd5b50505b949350505050565b600080613a4c6148bb565b90508060310160008673ffffffffffffffffffffffffffffffffffffffff1673ffffffffffffffffffffffffffffffffffffffff16815260200190815260200160002060110160008573ffffffffffffffffffffffffffffffffffffffff1673ffffffffffffffffffffffffffffffffffffffff16815260200190815260200160002060008463ffffffff1663ffffffff168152602001908152602001600020549150509392505050565b600080841415613b0a5760009050613ceb565b60006003811115613b1757fe5b826003811115613b2357fe5b14613b7e57613b4e83868660016003811115613b3b57fe5b866003811115613b4757fe5b141561515b565b905080841480613b735750600380811115613b6557fe5b826003811115613b7157fe5b145b15613b7d57613ceb565b5b60008573ffffffffffffffffffffffffffffffffffffffff166370a08231306040518263ffffffff1660e01b8152600401613bb99190618624565b60206040518083038186803b158015613bd157600080fd5b505afa158015613be5573d6000803e3d6000fd5b505050506040513d601f19601f82011682018060405250810190613c099190618180565b9050613c3a84308488038973ffffffffffffffffffffffffffffffffffffffff166151e9909392919063ffffffff16565b613ce7613cd8828873ffffffffffffffffffffffffffffffffffffffff166370a08231306040518263ffffffff1660e01b8152600401613c7a9190618624565b60206040518083038186803b158015613c9257600080fd5b505afa158015613ca6573d6000803e3d6000fd5b505050506040513d601f19601f82011682018060405250810190613cca9190618180565b612f3a90919063ffffffff16565b83612eb290919063ffffffff16565b9150505b949350505050565b600080613d098585613d03614510565b866152aa565b91509150613d18858383612fbd565b5050505050565b60008060310160008473ffffffffffffffffffffffffffffffffffffffff1673ffffffffffffffffffffffffffffffffffffffff168152602001908152602001600020600e01541415613e51576000600301600001600d9054906101000a900463ffffffff16600060310160008473ffffffffffffffffffffffffffffffffffffffff1673ffffffffffffffffffffffffffffffffffffffff168152602001908152602001600020600a0160086101000a81548163ffffffff021916908363ffffffff16021790555060008060310160008473ffffffffffffffffffffffffffffffffffffffff1673ffffffffffffffffffffffffffffffffffffffff168152602001908152602001600020600a01600c6101000a81548163ffffffff021916908363ffffffff16021790555061423f565b8063ffffffff16600060030160000160099054906101000a900463ffffffff1663ffffffff161115613f4f57613e8682610fe1565b600060310160008473ffffffffffffffffffffffffffffffffffffffff1673ffffffffffffffffffffffffffffffffffffffff16815260200190815260200160002060120160020181905550600060030160000160049054906101000a900463ffffffff16600060310160008473ffffffffffffffffffffffffffffffffffffffff1673ffffffffffffffffffffffffffffffffffffffff168152602001908152602001600020600a0160086101000a81548163ffffffff021916908363ffffffff1602179055505b600060030160000160119054906101000a900460ff1615614175578063ffffffff166000600301600001600d9054906101000a900463ffffffff1663ffffffff1611156140a5576000600301600001600d9054906101000a900463ffffffff16600060310160008473ffffffffffffffffffffffffffffffffffffffff1673ffffffffffffffffffffffffffffffffffffffff168152602001908152602001600020600a01600c6101000a81548163ffffffff021916908363ffffffff160217905550600060310160008373ffffffffffffffffffffffffffffffffffffffff1673ffffffffffffffffffffffffffffffffffffffff168152602001908152602001600020600e0154600060310160008473ffffffffffffffffffffffffffffffffffffffff1673ffffffffffffffffffffffffffffffffffffffff168152602001908152602001600020601201600001819055505b6000600301600001600d9054906101000a900463ffffffff1663ffffffff16600060030160000160049054906101000a900463ffffffff1663ffffffff161415614170576000603d0160008060030160000160049054906101000a900463ffffffff1663ffffffff1663ffffffff16815260200190815260200160002054600060310160008473ffffffffffffffffffffffffffffffffffffffff1673ffffffffffffffffffffffffffffffffffffffff168152602001908152602001600020601201600101819055505b61423e565b60008060310160008473ffffffffffffffffffffffffffffffffffffffff1673ffffffffffffffffffffffffffffffffffffffff168152602001908152602001600020600a01600c9054906101000a900463ffffffff1663ffffffff16111561423d5760008060310160008473ffffffffffffffffffffffffffffffffffffffff1673ffffffffffffffffffffffffffffffffffffffff168152602001908152602001600020600a01600c6101000a81548163ffffffff021916908363ffffffff1602179055505b5b5b5050565b60008060310160008373ffffffffffffffffffffffffffffffffffffffff1673ffffffffffffffffffffffffffffffffffffffff168152602001908152602001600020600801600101541415614298576142ab565b6142aa816142a583610927565b6148c0565b5b50565b60008060006142bf8787878761326b565b905061432f600060390160008873ffffffffffffffffffffffffffffffffffffffff1673ffffffffffffffffffffffffffffffffffffffff16815260200190815260200160002060000160049054906101000a900463ffffffff1663ffffffff16826120ad90919063ffffffff16565b91506143c36143478387614341614510565b03611ce8565b6143b5600060390160008a73ffffffffffffffffffffffffffffffffffffffff1673ffffffffffffffffffffffffffffffffffffffff16815260200190815260200160002060000160089054906101000a900463ffffffff1663ffffffff16846120ad90919063ffffffff16565b612eb290919063ffffffff16565b92508573ffffffffffffffffffffffffffffffffffffffff168773ffffffffffffffffffffffffffffffffffffffff167f7dfe6babf78bb003d6561ed598a241a0b419a1f3acbb7ee153888fb60a4c8aa8878760405161442492919061889c565b60405180910390a39450945094915050565b6144418484836152d6565b61444c848484615667565b50505050565b6000736c3f90f043a72fa612cbac8115ee7e52bde6e490905090565b61450b8363a9059cbb60e01b8484604051602401808373ffffffffffffffffffffffffffffffffffffffff16815260200182815260200192505050604051602081830303815290604052907bffffffffffffffffffffffffffffffffffffffffffffffffffffffff19166020820180517bffffffffffffffffffffffffffffffffffffffffffffffffffffffff83818316178352505050506157c3565b505050565b60008060030160000160009054906101000a900463ffffffff16905090565b60008060030160000160009054906101000a900463ffffffff1663ffffffff168263ffffffff161115614597576040517f08c379a000000000000000000000000000000000000000000000000000000000815260040161458e90618787565b60405180910390fd5b60008060310160008673ffffffffffffffffffffffffffffffffffffffff1673ffffffffffffffffffffffffffffffffffffffff16815260200190815260200160002060110160008573ffffffffffffffffffffffffffffffffffffffff1673ffffffffffffffffffffffffffffffffffffffff16815260200190815260200160002060008463ffffffff1663ffffffff168152602001908152602001600020549050600060310160008673ffffffffffffffffffffffffffffffffffffffff1673ffffffffffffffffffffffffffffffffffffffff16815260200190815260200160002060110160008573ffffffffffffffffffffffffffffffffffffffff1673ffffffffffffffffffffffffffffffffffffffff16815260200190815260200160002060008463ffffffff1663ffffffff16815260200190815260200160002060009055809150509392505050565b60006146f484846158b2565b9050600061470b8383612eb290919063ffffffff16565b905061472185858361471c87615947565b6159c9565b5050505050565b600073bea0000029ad1c77d3d5d23ba2d8893db9d1efab905090565b600061474e6148bb565b905061476a8282601b0160010154612eb290919063ffffffff16565b81601b01600101819055506147cf828260310160008673ffffffffffffffffffffffffffffffffffffffff1673ffffffffffffffffffffffffffffffffffffffff16815260200190815260200160002060080160010154612eb290919063ffffffff16565b8160310160008573ffffffffffffffffffffffffffffffffffffffff1673ffffffffffffffffffffffffffffffffffffffff168152602001908152602001600020600801600101819055508273ffffffffffffffffffffffffffffffffffffffff167f8a9b067b02389729b43ff012ea79fec02744ec108317c48accb631af39a86a3c8360405161486091906186ba565b60405180910390a2505050565b60008060030160000160089054906101000a900460ff1660ff1661488f614510565b01905061489e86868387615ac4565b6148a88585615d27565b6148b3868385615dd7565b505050505050565b600090565b60006148ca6148bb565b905060008082601b016002015414156148fe576148f76148e8615df0565b846120ad90919063ffffffff16565b9050614934565b61493182601b01600001546149238585601b01600201546120ad90919063ffffffff16565b612bba90919063ffffffff16565b90505b61494e8383601b0160000154612eb290919063ffffffff16565b82601b01600001819055506149b3838360310160008773ffffffffffffffffffffffffffffffffffffffff1673ffffffffffffffffffffffffffffffffffffffff16815260200190815260200160002060080160000154612eb290919063ffffffff16565b8260310160008673ffffffffffffffffffffffffffffffffffffffff1673ffffffffffffffffffffffffffffffffffffffff16815260200190815260200160002060080160000181905550614a188183601b0160020154612eb290919063ffffffff16565b82601b0160020181905550614a7a818360310160008773ffffffffffffffffffffffffffffffffffffffff1673ffffffffffffffffffffffffffffffffffffffff168152602001908152602001600020600e0154612eb290919063ffffffff16565b8260310160008673ffffffffffffffffffffffffffffffffffffffff1673ffffffffffffffffffffffffffffffffffffffff168152602001908152602001600020600e01819055508373ffffffffffffffffffffffffffffffffffffffff167fb2d61db64b8ad7535308d2111c78934bc32baf9b7cd3a2e58cba25730003cd588483604051614b0a9291906186d5565b60405180910390a250505050565b6000614b22615dfd565b73ffffffffffffffffffffffffffffffffffffffff168273ffffffffffffffffffffffffffffffffffffffff16149050919050565b6000806000614b646148bb565b905060008160310160008773ffffffffffffffffffffffffffffffffffffffff1673ffffffffffffffffffffffffffffffffffffffff16815260200190815260200160002060020160010160008663ffffffff1663ffffffff168152602001908152602001600020549050614cb8818360310160008973ffffffffffffffffffffffffffffffffffffffff1673ffffffffffffffffffffffffffffffffffffffff1681526020019081526020016000206010016000614c21615dfd565b73ffffffffffffffffffffffffffffffffffffffff1673ffffffffffffffffffffffffffffffffffffffff16815260200190815260200160002060008863ffffffff1663ffffffff16815260200190815260200160002060000160009054906101000a90046fffffffffffffffffffffffffffffffff166fffffffffffffffffffffffffffffffff16612eb290919063ffffffff16565b9350614dd6614cf1670de0b6b3a7640000614ce3614cd4615e19565b856120ad90919063ffffffff16565b612bba90919063ffffffff16565b8360310160008973ffffffffffffffffffffffffffffffffffffffff1673ffffffffffffffffffffffffffffffffffffffff1681526020019081526020016000206010016000614d3f615dfd565b73ffffffffffffffffffffffffffffffffffffffff1673ffffffffffffffffffffffffffffffffffffffff16815260200190815260200160002060008863ffffffff1663ffffffff16815260200190815260200160002060000160109054906101000a90046fffffffffffffffffffffffffffffffff166fffffffffffffffffffffffffffffffff16612eb290919063ffffffff16565b925050509250929050565b6000614deb615e29565b73ffffffffffffffffffffffffffffffffffffffff168273ffffffffffffffffffffffffffffffffffffffff16149050919050565b6000806000614e2d6148bb565b9050614e398585615e45565b8093508194505050600080614e4e8787615f6f565b91509150600080614e5f8989616166565b91509150614f70614e8b83614e7d878b612eb290919063ffffffff16565b612eb290919063ffffffff16565b8660310160008c73ffffffffffffffffffffffffffffffffffffffff1673ffffffffffffffffffffffffffffffffffffffff1681526020019081526020016000206010016000614ed9615e29565b73ffffffffffffffffffffffffffffffffffffffff1673ffffffffffffffffffffffffffffffffffffffff16815260200190815260200160002060008b63ffffffff1663ffffffff16815260200190815260200160002060000160009054906101000a90046fffffffffffffffffffffffffffffffff166fffffffffffffffffffffffffffffffff16612eb290919063ffffffff16565b96506000614fcb614f7f61635d565b614fbd614f8a615e19565b614faf86614fa18a8e612eb290919063ffffffff16565b612eb290919063ffffffff16565b6120ad90919063ffffffff16565b612bba90919063ffffffff16565b90506150b6818760310160008d73ffffffffffffffffffffffffffffffffffffffff1673ffffffffffffffffffffffffffffffffffffffff168152602001908152602001600020601001600061501f615e29565b73ffffffffffffffffffffffffffffffffffffffff1673ffffffffffffffffffffffffffffffffffffffff16815260200190815260200160002060008c63ffffffff1663ffffffff16815260200190815260200160002060000160109054906101000a90046fffffffffffffffffffffffffffffffff166fffffffffffffffffffffffffffffffff16612eb290919063ffffffff16565b96505050505050509250929050565b60006150d284848461636d565b615106670de0b6b3a76400006150f86150e9615e19565b856120ad90919063ffffffff16565b612bba90919063ffffffff16565b90509392505050565b600061511c848484616495565b9050615152670de0b6b3a7640000615144615135615e19565b846120ad90919063ffffffff16565b612bba90919063ffffffff16565b90509392505050565b60008061516886866158b2565b905082806151765750838110155b6151b5576040517f08c379a00000000000000000000000000000000000000000000000000000000081526004016151ac90618767565b60405180910390fd5b6151bf8185617147565b9150600082820390506151df8787836151d787615947565b6000036159c9565b5050949350505050565b6152a4846323b872dd60e01b858585604051602401808473ffffffffffffffffffffffffffffffffffffffff1681526020018373ffffffffffffffffffffffffffffffffffffffff1681526020018281526020019350505050604051602081830303815290604052907bffffffffffffffffffffffffffffffffffffffffffffffffffffffff19166020820180517bffffffffffffffffffffffffffffffffffffffffffffffffffffffff83818316178352505050506157c3565b50505050565b60008060006152b98685612a4a565b90506152c88787878785617160565b925092505094509492505050565b60006152e06148bb565b905060008160310160008673ffffffffffffffffffffffffffffffffffffffff1673ffffffffffffffffffffffffffffffffffffffff1681526020019081526020016000206008016000015483146153905761538b600161537d84601b016000015461536f87615361600189601b0160020154612f3a90919063ffffffff16565b6120ad90919063ffffffff16565b612bba90919063ffffffff16565b612eb290919063ffffffff16565b6153d6565b8160310160008673ffffffffffffffffffffffffffffffffffffffff1673ffffffffffffffffffffffffffffffffffffffff168152602001908152602001600020600e01545b9050615432838360310160008873ffffffffffffffffffffffffffffffffffffffff1673ffffffffffffffffffffffffffffffffffffffff16815260200190815260200160002060080160000154612f3a90919063ffffffff16565b8260310160008773ffffffffffffffffffffffffffffffffffffffff1673ffffffffffffffffffffffffffffffffffffffff168152602001908152602001600020600801600001819055506154d4818360310160008873ffffffffffffffffffffffffffffffffffffffff1673ffffffffffffffffffffffffffffffffffffffff168152602001908152602001600020600e0154612f3a90919063ffffffff16565b8260310160008773ffffffffffffffffffffffffffffffffffffffff1673ffffffffffffffffffffffffffffffffffffffff168152602001908152602001600020600e0181905550615576838360310160008773ffffffffffffffffffffffffffffffffffffffff1673ffffffffffffffffffffffffffffffffffffffff16815260200190815260200160002060080160000154612eb290919063ffffffff16565b8260310160008673ffffffffffffffffffffffffffffffffffffffff1673ffffffffffffffffffffffffffffffffffffffff16815260200190815260200160002060080160000181905550615618818360310160008773ffffffffffffffffffffffffffffffffffffffff1673ffffffffffffffffffffffffffffffffffffffff168152602001908152602001600020600e0154612eb290919063ffffffff16565b8260310160008673ffffffffffffffffffffffffffffffffffffffff1673ffffffffffffffffffffffffffffffffffffffff168152602001908152602001600020600e01819055505050505050565b60006156716148bb565b90506156cd828260310160008773ffffffffffffffffffffffffffffffffffffffff1673ffffffffffffffffffffffffffffffffffffffff16815260200190815260200160002060080160010154612f3a90919063ffffffff16565b8160310160008673ffffffffffffffffffffffffffffffffffffffff1673ffffffffffffffffffffffffffffffffffffffff16815260200190815260200160002060080160010181905550615772828260310160008673ffffffffffffffffffffffffffffffffffffffff1673ffffffffffffffffffffffffffffffffffffffff16815260200190815260200160002060080160010154612eb290919063ffffffff16565b8160310160008573ffffffffffffffffffffffffffffffffffffffff1673ffffffffffffffffffffffffffffffffffffffff1681526020019081526020016000206008016001018190555050505050565b6000615825826040518060400160405280602081526020017f5361666545524332303a206c6f772d6c6576656c2063616c6c206661696c65648152508573ffffffffffffffffffffffffffffffffffffffff166172b29092919063ffffffff16565b90506000815111156158ad5780806020019051602081101561584657600080fd5b81019080805190602001909291905050506158ac576040517f08c379a000000000000000000000000000000000000000000000000000000000815260040180806020018281038252602a815260200180618b46602a913960400191505060405180910390fd5b5b505050565b6000806158bd6148bb565b905080603e0160008573ffffffffffffffffffffffffffffffffffffffff1673ffffffffffffffffffffffffffffffffffffffff16815260200190815260200160002060008473ffffffffffffffffffffffffffffffffffffffff1673ffffffffffffffffffffffffffffffffffffffff1681526020019081526020016000205491505092915050565b60007f800000000000000000000000000000000000000000000000000000000000000082106159c1576040517f08c379a0000000000000000000000000000000000000000000000000000000008152600401808060200182810382526028815260200180618b1e6028913960400191505060405180910390fd5b819050919050565b60006159d36148bb565b90508281603e0160008773ffffffffffffffffffffffffffffffffffffffff1673ffffffffffffffffffffffffffffffffffffffff16815260200190815260200160002060008673ffffffffffffffffffffffffffffffffffffffff1673ffffffffffffffffffffffffffffffffffffffff168152602001908152602001600020819055508373ffffffffffffffffffffffffffffffffffffffff168573ffffffffffffffffffffffffffffffffffffffff167f18e1ea4139e68413d7d08aa752e71568e36b2c5bf940893314c2c5b01eaa0c4284604051615ab591906186ba565b60405180910390a35050505050565b615b7681600060310160008773ffffffffffffffffffffffffffffffffffffffff1673ffffffffffffffffffffffffffffffffffffffff16815260200190815260200160002060110160008673ffffffffffffffffffffffffffffffffffffffff1673ffffffffffffffffffffffffffffffffffffffff16815260200190815260200160002060008563ffffffff1663ffffffff16815260200190815260200160002054612eb290919063ffffffff16565b600060310160008673ffffffffffffffffffffffffffffffffffffffff1673ffffffffffffffffffffffffffffffffffffffff16815260200190815260200160002060110160008573ffffffffffffffffffffffffffffffffffffffff1673ffffffffffffffffffffffffffffffffffffffff16815260200190815260200160002060008463ffffffff1663ffffffff16815260200190815260200160002081905550615c7181600060380160008673ffffffffffffffffffffffffffffffffffffffff1673ffffffffffffffffffffffffffffffffffffffff16815260200190815260200160002060010154612eb290919063ffffffff16565b600060380160008573ffffffffffffffffffffffffffffffffffffffff1673ffffffffffffffffffffffffffffffffffffffff168152602001908152602001600020600101819055508273ffffffffffffffffffffffffffffffffffffffff168473ffffffffffffffffffffffffffffffffffffffff167fad946216d2715ed9b769178b59b5bd1b1ee3a1ef3adbe82f17d30617109e96f38484604051615d1992919061889c565b60405180910390a350505050565b6000615d316148bb565b9050615d8a828260380160008673ffffffffffffffffffffffffffffffffffffffff1673ffffffffffffffffffffffffffffffffffffffff16815260200190815260200160002060000154612f3a90919063ffffffff16565b8160380160008573ffffffffffffffffffffffffffffffffffffffff1673ffffffffffffffffffffffffffffffffffffffff16815260200190815260200160002060000181905550505050565b615de183826172ca565b615deb838361766b565b505050565b600064e8d4a51000905090565b6000731bea0050e63e05fbb5d8ba2f10cf5800b6224449905090565b600067029342191969bfcd905090565b6000731bea3ccd22f4ebd3d37d731ba31eeca95713716d905090565b6000806000615e526148bb565b9050615ecc60048260310160008873ffffffffffffffffffffffffffffffffffffffff1673ffffffffffffffffffffffffffffffffffffffff16815260200190815260200160002060050160020160008763ffffffff1663ffffffff16815260200190815260200160002054612bba90919063ffffffff16565b9150615f65670de0b6b3a7640000615f57656d0b2f18424d8460310160008a73ffffffffffffffffffffffffffffffffffffffff1673ffffffffffffffffffffffffffffffffffffffff16815260200190815260200160002060050160010160008963ffffffff1663ffffffff168152602001908152602001600020546120ad90919063ffffffff16565b612bba90919063ffffffff16565b9250509250929050565b6000806000615f7c6148bb565b90508060310160008673ffffffffffffffffffffffffffffffffffffffff1673ffffffffffffffffffffffffffffffffffffffff1681526020019081526020016000206010016000615fcc617797565b73ffffffffffffffffffffffffffffffffffffffff1673ffffffffffffffffffffffffffffffffffffffff16815260200190815260200160002060008563ffffffff1663ffffffff16815260200190815260200160002060000160109054906101000a90046fffffffffffffffffffffffffffffffff166fffffffffffffffffffffffffffffffff16915061615c61606261635d565b61614e620f23238460310160008a73ffffffffffffffffffffffffffffffffffffffff1673ffffffffffffffffffffffffffffffffffffffff16815260200190815260200160002060100160006160b7617797565b73ffffffffffffffffffffffffffffffffffffffff1673ffffffffffffffffffffffffffffffffffffffff16815260200190815260200160002060008963ffffffff1663ffffffff16815260200190815260200160002060000160009054906101000a90046fffffffffffffffffffffffffffffffff166fffffffffffffffffffffffffffffffff166120ad90919063ffffffff16565b612bba90919063ffffffff16565b9250509250929050565b60008060006161736148bb565b90508060310160008673ffffffffffffffffffffffffffffffffffffffff1673ffffffffffffffffffffffffffffffffffffffff16815260200190815260200160002060100160006161c36177b3565b73ffffffffffffffffffffffffffffffffffffffff1673ffffffffffffffffffffffffffffffffffffffff16815260200190815260200160002060008563ffffffff1663ffffffff16815260200190815260200160002060000160109054906101000a90046fffffffffffffffffffffffffffffffff166fffffffffffffffffffffffffffffffff16915061635361625961635d565b616345620f00448460310160008a73ffffffffffffffffffffffffffffffffffffffff1673ffffffffffffffffffffffffffffffffffffffff16815260200190815260200160002060100160006162ae6177b3565b73ffffffffffffffffffffffffffffffffffffffff1673ffffffffffffffffffffffffffffffffffffffff16815260200190815260200160002060008963ffffffff1663ffffffff16815260200190815260200160002060000160009054906101000a90046fffffffffffffffffffffffffffffffff166fffffffffffffffffffffffffffffffff166120ad90919063ffffffff16565b612bba90919063ffffffff16565b9250509250929050565b6000670de0b6b3a7640000905090565b60006163776148bb565b9050616427826040518060400160405280601c81526020017f53696c6f3a2043726174652062616c616e636520746f6f206c6f772e000000008152508360310160008873ffffffffffffffffffffffffffffffffffffffff1673ffffffffffffffffffffffffffffffffffffffff16815260200190815260200160002060020160010160008763ffffffff1663ffffffff168152602001908152602001600020546177cf9092919063ffffffff16565b8160310160008673ffffffffffffffffffffffffffffffffffffffff1673ffffffffffffffffffffffffffffffffffffffff16815260200190815260200160002060020160010160008563ffffffff1663ffffffff1681526020019081526020016000208190555050505050565b6000806164a06148bb565b90506000806164af8787615e45565b9150915084821061674b576000616545836165378660310160008c73ffffffffffffffffffffffffffffffffffffffff1673ffffffffffffffffffffffffffffffffffffffff16815260200190815260200160002060050160010160008b63ffffffff1663ffffffff16815260200190815260200160002054896120ad90919063ffffffff16565b612bba90919063ffffffff16565b90506165be818560310160008b73ffffffffffffffffffffffffffffffffffffffff1673ffffffffffffffffffffffffffffffffffffffff16815260200190815260200160002060050160010160008a63ffffffff1663ffffffff16815260200190815260200160002054612f3a90919063ffffffff16565b8460310160008a73ffffffffffffffffffffffffffffffffffffffff1673ffffffffffffffffffffffffffffffffffffffff16815260200190815260200160002060050160010160008963ffffffff1663ffffffff1681526020019081526020016000208190555061664b8361663d84896120ad90919063ffffffff16565b612bba90919063ffffffff16565b90506166d76166646004836120ad90919063ffffffff16565b8560310160008b73ffffffffffffffffffffffffffffffffffffffff1673ffffffffffffffffffffffffffffffffffffffff16815260200190815260200160002060050160020160008a63ffffffff1663ffffffff16815260200190815260200160002054612f3a90919063ffffffff16565b8460310160008a73ffffffffffffffffffffffffffffffffffffffff1673ffffffffffffffffffffffffffffffffffffffff16815260200190815260200160002060050160020160008963ffffffff1663ffffffff1681526020019081526020016000208190555080945050505050617140565b81850394508093508260310160008873ffffffffffffffffffffffffffffffffffffffff1673ffffffffffffffffffffffffffffffffffffffff16815260200190815260200160002060050160020160008763ffffffff1663ffffffff168152602001908152602001600020600090558260310160008873ffffffffffffffffffffffffffffffffffffffff1673ffffffffffffffffffffffffffffffffffffffff16815260200190815260200160002060050160010160008763ffffffff1663ffffffff1681526020019081526020016000206000905561682d8787615f6f565b8092508193505050848210616c105760008360310160008973ffffffffffffffffffffffffffffffffffffffff1673ffffffffffffffffffffffffffffffffffffffff168152602001908152602001600020601001600061688c617797565b73ffffffffffffffffffffffffffffffffffffffff1673ffffffffffffffffffffffffffffffffffffffff16815260200190815260200160002060008863ffffffff1663ffffffff1681526020019081526020016000209050600061693e846169308460000160009054906101000a90046fffffffffffffffffffffffffffffffff166fffffffffffffffffffffffffffffffff168a6120ad90919063ffffffff16565b612bba90919063ffffffff16565b9050616985818360000160009054906101000a90046fffffffffffffffffffffffffffffffff166fffffffffffffffffffffffffffffffff1661788990919063ffffffff16565b8560310160008b73ffffffffffffffffffffffffffffffffffffffff1673ffffffffffffffffffffffffffffffffffffffff16815260200190815260200160002060100160006169d3617797565b73ffffffffffffffffffffffffffffffffffffffff1673ffffffffffffffffffffffffffffffffffffffff16815260200190815260200160002060008a63ffffffff1663ffffffff16815260200190815260200160002060000160006101000a8154816fffffffffffffffffffffffffffffffff02191690836fffffffffffffffffffffffffffffffff160217905550616aba84616aac8460000160109054906101000a90046fffffffffffffffffffffffffffffffff166fffffffffffffffffffffffffffffffff168a6120ad90919063ffffffff16565b612bba90919063ffffffff16565b9050616b01818360000160109054906101000a90046fffffffffffffffffffffffffffffffff166fffffffffffffffffffffffffffffffff1661788990919063ffffffff16565b8560310160008b73ffffffffffffffffffffffffffffffffffffffff1673ffffffffffffffffffffffffffffffffffffffff1681526020019081526020016000206010016000616b4f617797565b73ffffffffffffffffffffffffffffffffffffffff1673ffffffffffffffffffffffffffffffffffffffff16815260200190815260200160002060008a63ffffffff1663ffffffff16815260200190815260200160002060000160106101000a8154816fffffffffffffffffffffffffffffffff02191690836fffffffffffffffffffffffffffffffff160217905550616c04816fffffffffffffffffffffffffffffffff1687612eb290919063ffffffff16565b95505050505050617140565b8185039450616c288185612eb290919063ffffffff16565b93508260310160008873ffffffffffffffffffffffffffffffffffffffff1673ffffffffffffffffffffffffffffffffffffffff1681526020019081526020016000206010016000616c78617797565b73ffffffffffffffffffffffffffffffffffffffff1673ffffffffffffffffffffffffffffffffffffffff16815260200190815260200160002060008763ffffffff1663ffffffff168152602001908152602001600020600080820160006101000a8154906fffffffffffffffffffffffffffffffff02191690556000820160106101000a8154906fffffffffffffffffffffffffffffffff02191690555050616d228787616166565b80925081935050508482106171055760008360310160008973ffffffffffffffffffffffffffffffffffffffff1673ffffffffffffffffffffffffffffffffffffffff1681526020019081526020016000206010016000616d816177b3565b73ffffffffffffffffffffffffffffffffffffffff1673ffffffffffffffffffffffffffffffffffffffff16815260200190815260200160002060008863ffffffff1663ffffffff16815260200190815260200160002090506000616e3384616e258460000160009054906101000a90046fffffffffffffffffffffffffffffffff166fffffffffffffffffffffffffffffffff168a6120ad90919063ffffffff16565b612bba90919063ffffffff16565b9050616e7a818360000160009054906101000a90046fffffffffffffffffffffffffffffffff166fffffffffffffffffffffffffffffffff1661788990919063ffffffff16565b8560310160008b73ffffffffffffffffffffffffffffffffffffffff1673ffffffffffffffffffffffffffffffffffffffff1681526020019081526020016000206010016000616ec86177b3565b73ffffffffffffffffffffffffffffffffffffffff1673ffffffffffffffffffffffffffffffffffffffff16815260200190815260200160002060008a63ffffffff1663ffffffff16815260200190815260200160002060000160006101000a8154816fffffffffffffffffffffffffffffffff02191690836fffffffffffffffffffffffffffffffff160217905550616faf84616fa18460000160109054906101000a90046fffffffffffffffffffffffffffffffff166fffffffffffffffffffffffffffffffff168a6120ad90919063ffffffff16565b612bba90919063ffffffff16565b9050616ff6818360000160109054906101000a90046fffffffffffffffffffffffffffffffff166fffffffffffffffffffffffffffffffff1661788990919063ffffffff16565b8560310160008b73ffffffffffffffffffffffffffffffffffffffff1673ffffffffffffffffffffffffffffffffffffffff16815260200190815260200160002060100160006170446177b3565b73ffffffffffffffffffffffffffffffffffffffff1673ffffffffffffffffffffffffffffffffffffffff16815260200190815260200160002060008a63ffffffff1663ffffffff16815260200190815260200160002060000160106101000a8154816fffffffffffffffffffffffffffffffff02191690836fffffffffffffffffffffffffffffffff1602179055506170f9816fffffffffffffffffffffffffffffffff1687612eb290919063ffffffff16565b95505050505050617140565b6040517f08c379a0000000000000000000000000000000000000000000000000000000008152600401617137906187a7565b60405180910390fd5b9392505050565b60008183106171565781617158565b825b905092915050565b600080600061716d6148bb565b9050600084116171b2576040517f08c379a00000000000000000000000000000000000000000000000000000000081526004016171a990618747565b60405180910390fd5b6171bc8786617930565b6171c98888888888612c43565b6172368160390160008973ffffffffffffffffffffffffffffffffffffffff1673ffffffffffffffffffffffffffffffffffffffff16815260200190815260200160002060000160049054906101000a900463ffffffff1663ffffffff16856120ad90919063ffffffff16565b6172a38260390160008a73ffffffffffffffffffffffffffffffffffffffff1673ffffffffffffffffffffffffffffffffffffffff16815260200190815260200160002060000160089054906101000a900463ffffffff1663ffffffff16866120ad90919063ffffffff16565b92509250509550959350505050565b60606172c184846000856179e0565b90509392505050565b60006172d46148bb565b905060008214156172e55750617667565b600061731a82601b016000015461730c8585601b01600201546120ad90919063ffffffff16565b612bba90919063ffffffff16565b90508160310160008573ffffffffffffffffffffffffffffffffffffffff1673ffffffffffffffffffffffffffffffffffffffff168152602001908152602001600020600e01548111156173b0578160310160008573ffffffffffffffffffffffffffffffffffffffff1673ffffffffffffffffffffffffffffffffffffffff168152602001908152602001600020600e015490505b6173ca8383601b0160000154612f3a90919063ffffffff16565b82601b016000018190555061742f838360310160008773ffffffffffffffffffffffffffffffffffffffff1673ffffffffffffffffffffffffffffffffffffffff16815260200190815260200160002060080160000154612f3a90919063ffffffff16565b8260310160008673ffffffffffffffffffffffffffffffffffffffff1673ffffffffffffffffffffffffffffffffffffffff168152602001908152602001600020600801600001819055506174948183601b0160020154612f3a90919063ffffffff16565b82601b01600201819055506174f6818360310160008773ffffffffffffffffffffffffffffffffffffffff1673ffffffffffffffffffffffffffffffffffffffff168152602001908152602001600020600e0154612f3a90919063ffffffff16565b8260310160008673ffffffffffffffffffffffffffffffffffffffff1673ffffffffffffffffffffffffffffffffffffffff168152602001908152602001600020600e01819055508160030160000160119054906101000a900460ff161561760e57617572818360180160020154612f3a90919063ffffffff16565b82601801600201819055508160310160008573ffffffffffffffffffffffffffffffffffffffff1673ffffffffffffffffffffffffffffffffffffffff168152602001908152602001600020600e01548260310160008673ffffffffffffffffffffffffffffffffffffffff1673ffffffffffffffffffffffffffffffffffffffff168152602001908152602001600020601201600001819055505b8373ffffffffffffffffffffffffffffffffffffffff167fb2d61db64b8ad7535308d2111c78934bc32baf9b7cd3a2e58cba25730003cd58846000038360000360405161765c9291906186d5565b60405180910390a250505b5050565b60006176756148bb565b90506176918282601b0160010154612f3a90919063ffffffff16565b81601b01600101819055506176f6828260310160008673ffffffffffffffffffffffffffffffffffffffff1673ffffffffffffffffffffffffffffffffffffffff16815260200190815260200160002060080160010154612f3a90919063ffffffff16565b8160310160008573ffffffffffffffffffffffffffffffffffffffff1673ffffffffffffffffffffffffffffffffffffffff168152602001908152602001600020600801600101819055508273ffffffffffffffffffffffffffffffffffffffff167f8a9b067b02389729b43ff012ea79fec02744ec108317c48accb631af39a86a3c8360000360405161778a91906186ba565b60405180910390a2505050565b6000733a70dfa7d2262988064a2d051dd47521e43c9bdd905090565b600073d652c40fbb3f06d6b58cb9aa9cff063ee63d465d905090565b600083831115829061787c576040517f08c379a00000000000000000000000000000000000000000000000000000000081526004018080602001828103825283818151815260200191508051906020019080838360005b83811015617841578082015181840152602081019050617826565b50505050905090810190601f16801561786e5780820380516001836020036101000a031916815260200191505b509250505060405180910390fd5b5082840390509392505050565b6000826fffffffffffffffffffffffffffffffff16826fffffffffffffffffffffffffffffffff161115617925576040517f08c379a000000000000000000000000000000000000000000000000000000000815260040180806020018281038252601e8152602001807f536166654d6174683a207375627472616374696f6e206f766572666c6f77000081525060200191505060405180910390fd5b818303905092915050565b600061793a6148bb565b9050617993828260380160008673ffffffffffffffffffffffffffffffffffffffff1673ffffffffffffffffffffffffffffffffffffffff16815260200190815260200160002060000154612eb290919063ffffffff16565b8160380160008573ffffffffffffffffffffffffffffffffffffffff1673ffffffffffffffffffffffffffffffffffffffff16815260200190815260200160002060000181905550505050565b606082471015617a3b576040517f08c379a0000000000000000000000000000000000000000000000000000000008152600401808060200182810382526026815260200180618ad76026913960400191505060405180910390fd5b617a4485617b88565b617ab6576040517f08c379a000000000000000000000000000000000000000000000000000000000815260040180806020018281038252601d8152602001807f416464726573733a2063616c6c20746f206e6f6e2d636f6e747261637400000081525060200191505060405180910390fd5b6000808673ffffffffffffffffffffffffffffffffffffffff1685876040518082805190602001908083835b60208310617b055780518252602082019150602081019050602083039250617ae2565b6001836020036101000a03801982511681845116808217855250505050505090500191505060006040518083038185875af1925050503d8060008114617b67576040519150601f19603f3d011682016040523d82523d6000602084013e617b6c565b606091505b5091509150617b7c828286617b9b565b92505050949350505050565b600080823b905060008111915050919050565b60608315617bab57829050617c60565b600083511115617bbe5782518084602001fd5b816040517f08c379a00000000000000000000000000000000000000000000000000000000081526004018080602001828103825283818151815260200191508051906020019080838360005b83811015617c25578082015181840152602081019050617c0a565b50505050905090810190601f168015617c525780820380516001836020036101000a031916815260200191505b509250505060405180910390fd5b9392505050565b6040518060a00160405280600063ffffffff168152602001600063ffffffff1681526020016000815260200160008152602001600081525090565b604051806060016040528060007bffffffffffffffffffffffffffffffffffffffffffffffffffffffff19168152602001600063ffffffff168152602001600063ffffffff1681525090565b6040518060800160405280600081526020016000815260200160008152602001600081525090565b600081359050617d2581618a71565b92915050565b60008083601f840112617d3d57600080fd5b8235905067ffffffffffffffff811115617d5657600080fd5b602083019150836020820283011115617d6e57600080fd5b9250929050565b60008083601f840112617d8757600080fd5b8235905067ffffffffffffffff811115617da057600080fd5b602083019150836020820283011115617db857600080fd5b9250929050565b600081359050617dce81618a88565b92915050565b600081359050617de381618a98565b92915050565b600081359050617df881618aa8565b92915050565b600081519050617e0d81618aa8565b92915050565b600081359050617e2281618abf565b92915050565b600060208284031215617e3a57600080fd5b6000617e4884828501617d16565b91505092915050565b60008060008060008060808789031215617e6a57600080fd5b6000617e7889828a01617d16565b9650506020617e8989828a01617d16565b955050604087013567ffffffffffffffff811115617ea657600080fd5b617eb289828a01617d75565b9450945050606087013567ffffffffffffffff811115617ed157600080fd5b617edd89828a01617d2b565b92509250509295509295509295565b600080600060608486031215617f0157600080fd5b6000617f0f86828701617d16565b9350506020617f2086828701617d16565b9250506040617f3186828701617e13565b9150509250925092565b60008060008060808587031215617f5157600080fd5b6000617f5f87828801617d16565b9450506020617f7087828801617d16565b9350506040617f8187828801617e13565b9250506060617f9287828801617de9565b91505092959194509250565b600080600080600060608688031215617fb657600080fd5b6000617fc488828901617d16565b955050602086013567ffffffffffffffff811115617fe157600080fd5b617fed88828901617d75565b9450945050604086013567ffffffffffffffff81111561800c57600080fd5b61801888828901617d2b565b92509250509295509295909350565b6000806000806060858703121561803d57600080fd5b600061804b87828801617d16565b945050602085013567ffffffffffffffff81111561806857600080fd5b61807487828801617d75565b9350935050604061808787828801617dd4565b91505092959194509250565b6000806000606084860312156180a857600080fd5b60006180b686828701617d16565b93505060206180c786828701617de9565b92505060406180d886828701617dbf565b9150509250925092565b6000806000606084860312156180f757600080fd5b600061810586828701617d16565b935050602061811686828701617e13565b925050604061812786828701617dd4565b9150509250925092565b60008060006060848603121561814657600080fd5b600061815486828701617d16565b935050602061816586828701617e13565b925050604061817686828701617de9565b9150509250925092565b60006020828403121561819257600080fd5b60006181a084828501617dfe565b91505092915050565b6000602082840312156181bb57600080fd5b60006181c984828501617e13565b91505092915050565b60006181de83836185e0565b60208301905092915050565b6181f38161898e565b82525050565b60006182058385618939565b93507f07ffffffffffffffffffffffffffffffffffffffffffffffffffffffffffffff83111561823457600080fd5b602083029250618245838584618a2f565b82840190509392505050565b600061825d838561894a565b935061826882618917565b8060005b858110156182a15761827e8284618977565b61828888826181d2565b97506182938361892c565b92505060018101905061826c565b5085925050509392505050565b6182b7816189a0565b82525050565b60006182c882618921565b6182d2818561895b565b93506182e2818560208601618a3e565b80840191505092915050565b6182f7816189cc565b82525050565b61830681618a1d565b82525050565b6000618319601783618966565b91507f53696c6f3a2075696e74313238206f766572666c6f772e0000000000000000006000830152602082019050919050565b6000618359601b83618966565b91507f53696c6f3a204e6f204265616e7320756e64657220546f6b656e2e00000000006000830152602082019050919050565b6000618399602683618966565b91507f42616c616e63653a20496e73756666696369656e7420696e7465726e616c206260008301527f616c616e636500000000000000000000000000000000000000000000000000006020830152604082019050919050565b60006183ff602083618966565b91507f436c61696d3a205769746864726177616c206e6f742072656365697661626c656000830152602082019050919050565b600061843f601c83618966565b91507f53696c6f3a2043726174652062616c616e636520746f6f206c6f772e000000006000830152602082019050919050565b600061847f602783618966565b91507f53696c6f3a204372617465732c20616d6f756e7473206172652064696666206c60008301527f656e677468732e000000000000000000000000000000000000000000000000006020830152604082019050919050565b60006184e5601f83618966565b91507f5265656e7472616e637947756172643a207265656e7472616e742063616c6c006000830152602082019050919050565b60a08201600082015161852e60008501826185e0565b50602082015161854160208501826185e0565b50604082015161855460408501826185c2565b50606082015161856760608501826185c2565b50608082015161857a60808501826185c2565b50505050565b60608201600082015161859660008501826182ae565b5060208201516185a960208501826185e0565b5060408201516185bc60408501826185e0565b50505050565b6185cb816189f6565b82525050565b6185da816189f6565b82525050565b6185e981618a00565b82525050565b6185f881618a00565b82525050565b61860781618a10565b82525050565b600061861982846182bd565b915081905092915050565b600060208201905061863960008301846181ea565b92915050565b6000606082019050818103600083015261865a818789618251565b9050818103602083015261866f8185876181f9565b905061867e60408301846185d1565b9695505050505050565b600060408201905081810360008301526186a3818587618251565b90506186b260208301846185d1565b949350505050565b60006020820190506186cf60008301846182ee565b92915050565b60006040820190506186ea60008301856182ee565b6186f760208301846182ee565b9392505050565b600060408201905061871360008301856182ee565b61872060208301846182fd565b9392505050565b600060208201905081810360008301526187408161830c565b9050919050565b600060208201905081810360008301526187608161834c565b9050919050565b600060208201905081810360008301526187808161838c565b9050919050565b600060208201905081810360008301526187a0816183f2565b9050919050565b600060208201905081810360008301526187c081618432565b9050919050565b600060208201905081810360008301526187e081618472565b9050919050565b60006020820190508181036000830152618800816184d8565b9050919050565b600060a08201905061881c6000830184618518565b92915050565b60006060820190506188376000830184618580565b92915050565b600060208201905061885260008301846185d1565b92915050565b600060408201905061886d60008301856185d1565b61887a60208301846185d1565b9392505050565b600060208201905061889660008301846185ef565b92915050565b60006040820190506188b160008301856185ef565b6188be60208301846185d1565b9392505050565b60006060820190506188da60008301866185ef565b6188e760208301856185d1565b6188f460408301846185d1565b949350505050565b600060208201905061891160008301846185fe565b92915050565b6000819050919050565b600081519050919050565b6000602082019050919050565b600082825260208201905092915050565b600082825260208201905092915050565b600081905092915050565b600082825260208201905092915050565b60006189866020840184617e13565b905092915050565b6000618999826189d6565b9050919050565b60007fffffffff0000000000000000000000000000000000000000000000000000000082169050919050565b6000819050919050565b600073ffffffffffffffffffffffffffffffffffffffff82169050919050565b6000819050919050565b600063ffffffff82169050919050565b600060ff82169050919050565b6000618a28826189cc565b9050919050565b82818337600083830152505050565b60005b83811015618a5c578082015181840152602081019050618a41565b83811115618a6b576000848401525b50505050565b618a7a8161898e565b8114618a8557600080fd5b50565b60048110618a9557600080fd5b50565b60028110618aa557600080fd5b50565b618ab1816189f6565b8114618abc57600080fd5b50565b618ac881618a00565b8114618ad357600080fd5b5056fe416464726573733a20696e73756666696369656e742062616c616e636520666f722063616c6c536166654d6174683a206d756c7469706c69636174696f6e206f766572666c6f7753616665436173743a2076616c756520646f65736e27742066697420696e20616e20696e743235365361666545524332303a204552433230206f7065726174696f6e20646964206e6f742073756363656564a26469706673582212201605e35d8de1cecabeb7c41c6d127f58c6b8564997d355223c3d41ab829df3d764736f6c63430007060033",
  "linkReferences": {},
  "deployedLinkReferences": {}
}