{
  "_format": "hh-sol-artifact-1",
  "contractName": "PauseFacet",
  "sourceName": "contracts/farm/facets/PauseFacet.sol",
  "abi": [
    {
      "anonymous": false,
      "inputs": [
        {
          "indexed": false,
          "internalType": "uint256",
          "name": "timestamp",
          "type": "uint256"
        }
      ],
      "name": "Pause",
      "type": "event"
    },
    {
      "anonymous": false,
      "inputs": [
        {
          "indexed": false,
          "internalType": "uint256",
          "name": "timestamp",
          "type": "uint256"
        },
        {
          "indexed": false,
          "internalType": "uint256",
          "name": "timePassed",
          "type": "uint256"
        }
      ],
      "name": "Unpause",
      "type": "event"
    },
    {
      "inputs": [],
      "name": "pause",
      "outputs": [],
      "stateMutability": "payable",
      "type": "function"
    },
    {
      "inputs": [],
      "name": "unpause",
      "outputs": [],
      "stateMutability": "payable",
      "type": "function"
    }
  ],
  "bytecode": "0x608060405234801561001057600080fd5b506107d5806100206000396000f3fe6080604052600436106100295760003560e01c80633f4ba83a1461002e5780638456cb5914610038575b600080fd5b610036610042565b005b6100406101a4565b005b61004a6102b2565b600060020160009054906101000a900460ff1661009c576040517f08c379a0000000000000000000000000000000000000000000000000000000008152600401610093906106bf565b60405180910390fd5b60008060020160006101000a81548160ff0219169083151502179055506000610101600060020160019054906101000a90046fffffffffffffffffffffffffffffffff166fffffffffffffffffffffffffffffffff164261038390919063ffffffff16565b905061013f610e106101316001610123610e108661040690919063ffffffff16565b61048f90919063ffffffff16565b61051790919063ffffffff16565b905061015c8160006003016001015461048f90919063ffffffff16565b6000600301600101819055507fcd07e0cc457fccdfdfc05cd31791fc85ce41edf74e7cfe09ddcb2daefd98ccd5428260405161019992919061073a565b60405180910390a150565b6101ac6102b2565b600060020160009054906101000a900460ff16156101ff576040517f08c379a00000000000000000000000000000000000000000000000000000000081526004016101f6906106ff565b60405180910390fd5b6001600060020160006101000a81548160ff02191690831515021790555060008060140160000160006101000a81548160ff02191690831515021790555042600060020160016101000a8154816fffffffffffffffffffffffffffffffff02191690836fffffffffffffffffffffffffffffffff1602179055507f68b095021b1f40fe513109f513c66692f0b3219aee674a69f4efc57badb8201d426040516102a8919061071f565b60405180910390a1565b6102ba61059d565b60040160009054906101000a900473ffffffffffffffffffffffffffffffffffffffff1673ffffffffffffffffffffffffffffffffffffffff163373ffffffffffffffffffffffffffffffffffffffff16148061034257503073ffffffffffffffffffffffffffffffffffffffff163373ffffffffffffffffffffffffffffffffffffffff16145b610381576040517f08c379a0000000000000000000000000000000000000000000000000000000008152600401610378906106df565b60405180910390fd5b565b6000828211156103fb576040517f08c379a000000000000000000000000000000000000000000000000000000000815260040180806020018281038252601e8152602001807f536166654d6174683a207375627472616374696f6e206f766572666c6f77000081525060200191505060405180910390fd5b818303905092915050565b600080821161047d576040517f08c379a000000000000000000000000000000000000000000000000000000000815260040180806020018281038252601a8152602001807f536166654d6174683a206469766973696f6e206279207a65726f00000000000081525060200191505060405180910390fd5b81838161048657fe5b04905092915050565b60008082840190508381101561050d576040517f08c379a000000000000000000000000000000000000000000000000000000000815260040180806020018281038252601b8152602001807f536166654d6174683a206164646974696f6e206f766572666c6f77000000000081525060200191505060405180910390fd5b8091505092915050565b60008083141561052a5760009050610597565b600082840290508284828161053b57fe5b0414610592576040517f08c379a000000000000000000000000000000000000000000000000000000000815260040180806020018281038252602181526020018061077f6021913960400191505060405180910390fd5b809150505b92915050565b6000807fc8fcad8db84d3cc18b4c41d551ea0ee66dd599cde068d998e57d5e09332c131c90508091505090565b60006105d7601283610763565b91507f50617573653a206e6f74207061757365642e00000000000000000000000000006000830152602082019050919050565b6000610617602583610763565b91507f4c69624469616d6f6e643a204d75737420626520636f6e7472616374206f722060008301527f6f776e65720000000000000000000000000000000000000000000000000000006020830152604082019050919050565b600061067d601683610763565b91507f50617573653a20616c7265616479207061757365642e000000000000000000006000830152602082019050919050565b6106b981610774565b82525050565b600060208201905081810360008301526106d8816105ca565b9050919050565b600060208201905081810360008301526106f88161060a565b9050919050565b6000602082019050818103600083015261071881610670565b9050919050565b600060208201905061073460008301846106b0565b92915050565b600060408201905061074f60008301856106b0565b61075c60208301846106b0565b9392505050565b600082825260208201905092915050565b600081905091905056fe536166654d6174683a206d756c7469706c69636174696f6e206f766572666c6f77a2646970667358221220d51e64ba36ca001b3cd395684a8fe78bab929d77a01d6a93d3a69c92cf9ebb7164736f6c63430007060033",
  "linkReferences": {},
  "deployedLinkReferences": {}
}